:020000040000FA
:100000001834002081050000890500004D03000020
:100010008D0500008F050000910500000000000024
:100020000000000000000000000000009305000038
:1000300095050000000000009705000099050000EC
:10004000470900009B050000850B00009B05000090
:100050009B0500009B050000050700009B050000B4
:100060009B0500009B0500009B0500009B05000010
:100070009B0500009B0500009B0500009B05000000
:100080009B050000550900009B0500009B05000032
:10009000790900009B0500009B0500009B050000FE
:1000A0009B0500009B0500009B0500009B050000D0
:1000B0009B0500009B050000000000000000000000
:1000C0009B0500009B0500009B0500009B050000B0
:1000D0009B0500009B0500009B050000A10B000094
:1000E0009B0500009B0500009B0500000000000030
:1000F000000000009B050000000000009B050000C0
:1001000000000000000000000000000000000000EF
:1001100000000000000000000000000000000000DF
:1001200000000000000000000000000000000000CF
:1001300000000000000000000000000000000000BF
:1001400000000000000000000000000000000000AF
:10015000000000000000000000000000000000009F
:10016000000000000000000000000000000000008F
:10017000000000000000000000000000000000007F
:10018000000000000000000000000000000000006F
:10019000000000000000000000000000000000005F
:1001A000000000000000000000000000000000004F
:1001B000000000000000000000000000000000003F
:1001C000000000000000000000000000000000002F
:1001D000000000000000000000000000000000001F
:1001E000000000000000000000000000000000000F
:1001F00000000000000000000000000000000000FF
:10020000DFF80CD000F04EFA00480047E526000069
:100210001834002030B4044654E8000F0D4644E87A
:100220000053002BF8D1156030BC704730B4044641
:1002300054E8000F40EA010544E80053002BF7D1D1
:10024000156030BC704730B4044654E8000F00EA33
:10025000010544E80053002BF7D1156030BC70470E
:1002600030B4044654E8000F80EA010544E8005326
:10027000002BF7D1156030BC704730B4044654E809
:10028000000F00EB010544E80053002BF7D1156087
:1002900030BC704730B4044654E8000FA0EB0105B1
:1002A00044E80053002BF7D1156030BC70470000C4
:1002B00030B4044654E8000F0D4644E80053002BC8
:1002C000F8D1156030BC704730B4044654E8000FD4
:1002D00040EA010544E80053002BF7D1156030BC1B
:1002E000704730B4044654E8000F00EA010544E8C2
:1002F0000053002BF7D1156030BC704730B4044672
:1003000054E8000F80EA010544E80053002BF7D1C0
:10031000156030BC704730B4044654E8000F00EB61
:10032000010544E80053002BF7D1156030BC70473D
:1003300030B4044654E8000FA0EB010544E8005334
:10034000002BF7D1156030BC70470000094B1EF040
:10035000040F1CBFEFF309801847EFF3088006492C
:10036000064A884201D8904202D88D464FF00000DC
:1003700018470000C9080000183400201814002095
:1003800030B450E8012F93B2C48923448489A34236
:1003900028BF1B1B0489A34202BFBFF32F8F00207D
:1003A00007E0C3EA020340E80134002CE9D14FF032
:1003B00001000A6030BC704750E8012FC2EA0242D7
:1003C00040E801210029F7D1704730B450E8022FEE
:1003D0001FFAA2F3C488A34202BFBFF32F8F0020ED
:1003E0000DE0C48923448489A34228BF1B1BC2EAB1
:1003F000034340E80234002CE8D14FF001000A60CA
:1004000030BC704750E8022FC2EA224240E8022185
:100410000029F7D17047034653E8022FD988B2EB81
:10042000324F4FF0000017BF92B241EA014142EA59
:10043000014104E05A68B2EB324F08BF012043E8A3
:100440000212002AE8D1704730B4044654E8000F85
:100450000D4644E80053002BF8D1156030BC7047BE
:1004600030B4044654E8000F40EA010544E8005364
:10047000002BF7D1156030BC704730B4044654E807
:10048000000F00EA010544E80053002BF7D1156086
:1004900030BC704730B4044654E8000F80EA0105D0
:1004A00044E80053002BF7D1156030BC704730B4DE
:1004B000044654E8000F00EB010544E80053002B0C
:1004C000F7D1156030BC704730B4044654E8000FD3
:1004D000A0EB010544E80053002BF7D1156030BCB8
:1004E0007047000030B4044654E8000F0D4644E85D
:1004F0000053002BF8D1156030BC704730B404466F
:1005000054E8000F40EA010544E80053002BF7D1FE
:10051000156030BC704730B4044654E8000F00EA60
:10052000010544E80053002BF7D1156030BC70473B
:1005300030B4044654E8000F80EA010544E8005353
:10054000002BF7D1156030BC704730B4044654E836
:10055000000F00EB010544E80053002BF7D11560B4
:1005600030BC704730B4044654E8000FA0EB0105DE
:1005700044E80053002BF7D1156030BC70470000F1
:100580000648804706480047FEE7FEE7FEE7FEE72D
:10059000FEE7FEE7FEE7FEE7FEE7FEE77D09000077
:1005A000010200002DE9F05F0546002092469B46BF
:1005B00088460646814640241BE028464146474679
:1005C000224600F05FF853465A46C01A914110D3B4
:1005D00011461846224600F046F82D1A67EB01082E
:1005E0004F4622460120002100F03DF817EB00099C
:1005F0004E41201EA4F10104DFDC484631462A4664
:100600004346BDE8F09F000000487047A456000034
:1006100040EA01039B0703D009E008C9121F08C084
:10062000042AFAD203E011F8013B00F8013B521E04
:10063000F9D27047D2B201E000F8012B491EFBD27B
:1006400070470022F6E710B513460A4604461946DD
:10065000FFF7F0FF204610BD421C10F8011B0029D7
:10066000FBD1801A7047202A04DB203A00FA02F1FD
:10067000002070479140C2F1200320FA03F3194390
:1006800090407047202A04DB203A21FA02F0002132
:10069000704721FA02F3D040C2F120029140084392
:1006A00019467047064C074D06E0E06840F001032C
:1006B00094E8070098471034AC42F6D3FFF7A4FD46
:1006C0005C5700007C57000030B58C1810F8012BE7
:1006D00012F00F0301D110F8013B120906D110F8F6
:1006E000012B03E010F8015B01F8015B5B1EF9D1FF
:1006F00001E001F8013B521EFBD1A142E6D30020EC
:1007000030BD00002DE9F04F00268FB0DFF8B0813A
:10071000B14602964FF48075012437460396284669
:1007200003F0FAF938B1D8F80403204203D0284680
:1007300003F0E8F926432D1D64007F1CADB2082F9D
:10074000EDD34FF4BE74204603F0E6F948B12046DD
:1007500003F0D8F946F0004602AA0221002003F077
:10076000BBF9584C16F0FF0F15D001270025374272
:100770000DD008EB8501D1F81005D1F81015C0F3A4
:10078000052054F82520C1F3014102B190477F00B4
:100790006D1C082DEBD3002E7DDA0020CDF82890BB
:1007A000411E0DF1080B08AACDF82C9042F820103C
:1007B000401C91460228F9D300252E46A01910F8B6
:1007C000607F90F9000027F0C008401C49D008A9BC
:1007D000404602F015F988B34FEA971A404601F0F7
:1007E00077FB54F820701FB1BAF1030F03D00FE06C
:1007F000BAF1030F35D10AA84FEAD80208F007036F
:10080000815C4FF0010C0CFA03FC41EA0C018154AD
:1008100006A8CDF8188003F025F9069900EB8100B1
:10082000D0F8000702A9C0F301400690404602F04C
:10083000E7F80028069802D0022802D011E0032829
:100840000FD1BAF1030F08D10698022832D0022145
:10085000404603F0E1F86D1CEDB217B15146404639
:10086000B847761C042EA9D3002D20D004AA02215B
:10087000002003F031F900205A4604A952F8206004
:1008800051F82030B34217D000200AAE4FEA0903D6
:1008900051F8207000E00AE042F8207056F820700D
:1008A00043F82070401C0228F2D3002D84D10FB0F1
:1008B000BDE8F08F0321CBE7401C0228DED3F6E72A
:1008C000006000402C0B0020044603F08DFB00BFAD
:1008D00003F0FAF90028FBD1204600F001F80000EF
:1008E000BFF34F8F05480168054A01F4E0611143E9
:1008F0000160BFF34F8F00BFFDE700000CED00E08B
:100900000400FA0500F01F02012191404009800017
:1009100000F1E020C0F88012704700F01F020121B2
:1009200091404009800000F1E020C0F800117047BC
:1009300000F01F02012191404009800000F1E020F9
:10094000C0F80012704710B502F028F9BDE8104059
:1009500002F0BAB907480021C0F84011C0F84411AC
:10096000C0F84811C0F84C11C0F80011C0F80411CB
:1009700004F0FCB80010014004F06AB830B54FF044
:1009800080500022D0F830110123082902D1D0F87C
:10099000344114B1082909D00BE04FF08041C1F86F
:1009A0000C21C1F8102168490A6005E0D0F83441F3
:1009B00014B1082957D059E064490968644C216092
:1009C0006249091D0968241D2160604908310968D0
:1009D000241D21605D490C310968241D21605B499B
:1009E00010310968241D2160584914310968241DFB
:1009F0002160564918310968554C2034216053490B
:100A00001C310968241D2160504920310968241DCA
:100A100021604E4924310968241D21604B49283149
:100A20000968241D216049492C310968241D216071
:100A3000464930310968464C4034216043493431DD
:100A40000968241D2160414938310968241D21604D
:100A50003E493C310968241D21603C494031096808
:100A6000241D216005E0D0F8344114B1082904D0D8
:100A700006E0394C3749216005E0D0F8344114B123
:100A8000082904D006E0354CFB21216005E0D0F8B0
:100A9000344114B1082908D00AE090F8584230488F
:100AA000016864F30301016005E0D0F8344114B13A
:100AB000082905D00EE02B494FF40070086002E0D1
:100AC000D0F8340130B928480168C90702D06FF066
:100AD000010101602548016841F470010160BFF324
:100AE0004F8FBFF36F8F4FF01021D1F80002002815
:100AF00003DBD1F80402002822DA1D4C23601D48D4
:100B00000368002BFCD01223C1F800320568002DC9
:100B1000FCD0C1F8043201680029FCD022600168D1
:100B20000029FCD0BFF34F8F10487C380168124A6F
:100B300001F4E06111430160BFF34F8F00BFFDE797
:100B40000F490E48086030BD38050040040400100D
:100B500020C50040488103008C56004018F5004035
:100B6000E40E0040409602400004004088ED00E0A2
:100B700004E5014000E401400400FA050090D003C0
:100B8000E40000200448017F04480029024901D004
:100B900004F001B904F070B8940B0020002000406C
:100BA0002DE9F05F5448D0F8045300242E464FF04E
:100BB000010913E096FAA6F0B0FA80F7B80000F544
:100BC0008070804603F078FB28B1404603F07CFB40
:100BD00009FA07F0044309FA07F08643002EE9D129
:100BE00002F0D8FB002869D0444AD078F0BBA002BC
:100BF00064D5434940F2A978C1F80080081D036814
:100C000013F0FF0C02D0036803EA0C0C40F2AA7A3E
:100C1000C1F800A0036813F0FF0301D00668334059
:100C200040F2AB7BC1F800B0066816F0FF0601D0B9
:100C300007683E4040F2AC770F60076817EA0C0780
:100C400009D0D2F810C04CEA070CC2F810C0C1F8A5
:100C500000800760076840F2AD770F6007681F40AB
:100C600009D0136943EA0743136100E026E0C1F8A5
:100C700000A00760036840F2AE730B600368334066
:100C80000BD0DE0701D044F40004DE0601D544F0A9
:100C90000104C1F800B003600068106930F0011170
:100CA00002D005F080710C4310F0011F06D06905D9
:100CB00004D520F0011044F480641061C4F3C056E0
:100CC00024F400044F46DFF83C8009E094FAA4F0D5
:100CD000B0FA80F558F82500804707FA05F08443FC
:100CE000002CF3D104F0A6F9002E03D0BDE8F05F8C
:100CF00001F0BEBABDE8F09F00700240580000202D
:100D000000780240085500000FB41CB50A46521E78
:100D1000CDE9000207A9054B6A46069800F02CF8B9
:100D2000009A002111701CBC5DF814FB3910000002
:100D30000FB4084B10B504A902AA039800F01CF8E0
:100D4000044602A9002000F082F9204610BC5DF89C
:100D500014FB00004F10000002E008C8121F08C179
:100D6000002AFAD170477047002001E001C1121F2C
:100D7000002AFBD1704700002DE9FF4F8DB09B4644
:100D80000F460446002606E025280BD05A460F9948
:100D90009047641C761C20780028F5D111B03046AD
:100DA000BDE8F08F0025A8460122984900E00543E0
:100DB00014F8013F203B02FA03F00842F7D12078F3
:100DC0002E2817D114F8010F45F004052A280ED05B
:100DD0006FF02F022078A0F1300109290AD808EB22
:100DE000880102EB410100EB0108641CF2E757F8AF
:100DF000048B641C20786C280DD004DC4C2812D0A5
:100E00006A2811D104E074280DD07A280CD10AE0A8
:100E100045F4001507E0617845F48015814202D160
:100E2000641C05F58015641C2278692A45D008DC0D
:100E3000002AB3D0582A69D0632A10D0642A08D176
:100E40003BE0702A67D0732A13D0752A5CD0782AC9
:100E50005CD010465A460F999047761CD3E017F89D
:100E6000040B8DF8000000208DF80100E9460120F8
:100E700003E057F8049B4FF0FF3069074FF000057F
:100E800001D40AE06D1C45450DDA8542FADB19F8FC
:100E900005100029F6D106E06D1C8542FCDB19F82F
:100EA00005100029F8D12E4404E019F8010B5A4628
:100EB0000F9990476D1EF8D2A5E00A200021CDE9D8
:100EC0000801C5F3025002280DD001CFC117031E3F
:100ED00071F100030DDA4FF0000CD0EB0C006CEB5D
:100EE00001012D2308E0FF1D27F00707F7E80201A5
:100EF000EDE72B0504D52B238DF8283001233BE0AB
:100F0000EB0739D02023F7E70A2000E0102000216A
:100F1000CDE9080107E01020002145F00405CDE9E6
:100F200008014FF00808C5F3025002280FD001CF86
:100F300000214FF0000A2B071FD5702A0DD0DDE9E4
:100F400008C38CF0100C5CEA030C0CD015E0FF1DFC
:100F500027F00707F7E80201EBE740228DF8282089
:100F60004FF0010A0BE050EA010306D030238DF860
:100F700028308DF8292002239A46582A04D024A22A
:100F80000DF120090B9209E026A2F9E7DDE908231B
:100F9000FFF708FB0B9B9B5C09F8013D50EA01023F
:100FA000F4D1ADEB090020300890680701D44FF070
:100FB00001080899884502DDA8EB010000E0002047
:100FC0008046002506E00AA85A46405D0F999047E2
:100FD0006D1C761C5545F6DB04E030205A460F990F
:100FE0009047761CB8F10001A8F10108F5DC05E096
:100FF00019F8010B5A460F999047761C0899481E1C
:1010000008900029F4DC641CC5E6000009280100F2
:10101000303132333435363738396162636465666E
:101020000000000030313233343536373839414230
:1010300043444546000000004A68002A06D00A687A
:10104000531C0B6010704868401E486070470A6867
:10105000531C0B601070704702F0C6FF02F034FEA4
:101060000028FBD1104C0121208801EB00400FA18A
:1010700002F012FF10480068C00700D000BE2088B0
:10108000022101EB00400DA102F006FFBFF34F8FDC
:101090000948E43801680D4A01F4E0611143016038
:1010A000BFF34F8F00BFFDE7480100204661746128
:1010B0006C206572726F7200F0ED00E0537973740A
:1010C000656D207265736574000000000400FA0508
:1010D0000EB500210091CDE901106A4644F20100ED
:1010E000FFF7BAFF0EBD000070B50546054844681D
:1010F00005E02946204600F0F3FE20680468002C35
:10110000F7D170BD0800002070B5094844680CE0B4
:10111000267A002505E02946204600F005FC6D1CD6
:10112000EDB2B542F7D320680468002CF0D170BD51
:101130000800002070B50A4844680DE0267A0025B2
:1011400006E000222946204600F02CFC6D1CEDB282
:10115000B542F6D320680468002CEFD170BD0000C2
:101160000800002070B50849054606204C6807E0D5
:101170002946204600F0B4FE062803D121680C68F9
:10118000002CF5D170BD0000080000203EB50D46D2
:1011900001681446097F11F0010F09D000F021FF0A
:1011A00000210095CDE90141694600F09FFA3EBD5E
:1011B00008203EBD08B500F014FF694602F050F863
:1011C00008B1002008BD009808BD0000FEB5046805
:1011D000054617460E460020083400F0B9FC082EDC
:1011E00013D006DC012E10D0022E0ED0042E06D114
:1011F0000BE0102E09D0202E07D0402E05D006245B
:10120000002000F0A7FC2046FEBDE08A0FB130436D
:1012100000E0B043E082A1222021A270E170002111
:10122000A180E18002212181E18A61812C68284628
:10123000083400F06DFE064AA41CD2E903120094A3
:10124000CDE90112694600F051FA0446D8E70000E2
:10125000BC5500003EB50D4601681446097F11F0EB
:10126000010F09D000F0B4FE00210095CDE9014145
:10127000694600F03BFA3EBD08203EBDF8B5044685
:1012800000250FE0002705E0007800F01DFA08B106
:101290001120F8BD3946781CC7B2304600F05EF820
:1012A0000028F1D12946681CC5B2204600F068F834
:1012B0000600E7D100250DE0002703E00078214675
:1012C00000F007FA3946781CC7B2304600F046F8FD
:1012D0000028F3D12946681CC5B2204600F050F81A
:1012E0000600E9D1074800E0086801680029FBD141
:1012F00004600548694640690090606802682046BD
:101300009047F8BD0C000020E05300002DE9F041AB
:10131000164642680D461C46526819469047020020
:1013200014D000210B4627680EE0501890F801C039
:10133000AC4507D19E4203D101782160BDE8F08120
:101340005B1CDBB2007801448F42EED80020F5E749
:1013500001484068704700000800002042788A4237
:1013600001D80020704782781044084470474278C2
:101370008A4201D8002070478278104408447047A0
:10138000027A8A4201D80020704701EB41010930FE
:1013900008447047027A8A4201D80020704701EB66
:1013A000410109300844704702484078002800D0C5
:1013B0000120704708000020044901E01168091D60
:1013C0000A68002AFAD10860002070471000002047
:1013D00009490BE0824207D1026852680A6000683E
:1013E00000214160084670471168091D0A68002AFB
:1013F000F0D105207047000010000020F8B50D4620
:1014000001462878062401260B283CD2DFE800F0AC
:101410003B060A0C3B1A2C0A1F212A00032003F06A
:1014200095FD30E000242EE0284800216A46FEF7B2
:101430000AFF0028F6D026480660BFF36F8FBFF37F
:101440004F8FEFE7084600F063F804461BE00020EA
:1014500005E02048006810F0010F03D0022003F0DF
:1014600075FDDFE70120FAE71849E878091D0A68E9
:1014700032B100230B6049689047040005D000E0BA
:101480000E2402F0ADF82046F8BD03F057FD10B170
:1014900002F069F8F7E7A8780028F4D10E48007840
:1014A000082810D10C48001D007800070BD10A480D
:1014B0000830007810F0F00F05D107480C300078A4
:1014C00010F0F00FDFD002F04BF8DCE72000002036
:1014D0005C70024038040040E00F00F0024A014610
:1014E000D2E9000210470000640A002070B50C46E3
:1014F000054602F02FF8A84201D0102070BD034825
:10150000D4E90012C0E90212002070BD1C000020C6
:101510007FB5054605208DF8000006240DF1010079
:1015200002F036F89DF8010010F01F0006D00128E7
:101530000FD0022826D0032833D106E0694628467A
:1015400003F080F8044606282AD16846FFF70AFE11
:1015500025E09DF8050003A900F002FA050008D077
:101560006A469DF80C1000F0DBF90446062802D00C
:1015700016E0102415E06A469DF80C10284603F08A
:1015800057F90CE09DF80500010705D0694600F009
:1015900053F80446062803D1684603F0D5F80446FC
:1015A00024B102F01DF804B0204670BD03F0C6FC63
:1015B00010B101F0D8FFF6E701F0D2FFF3E7000029
:1015C000FEB5C08814460E46A04201D2054600E092
:1015D0001546844207D2802001F008FEB4FBF0F1EA
:1015E00000FB114068B100200096CDE901500020B9
:1015F00000F0AEFA6946802000F078F8040002D0CE
:1016000006E00120F0E705498020FFF76FFF044660
:10161000002000F09FFA2046FEBD0000105400009C
:1016200008B140210160014870470000C80A00204D
:1016300001F0E2BC01F0FABC10B50C46010600F066
:101640000F02092A09D200F00BF8006828B141689E
:101650000A682146BDE810401047102010BD000068
:10166000010600F00F0001D5034901E002494831AD
:1016700001EBC000704700001C0A002010B50446B2
:1016800000F00F00082805D2204601F029FD204671
:1016900001F0DCFD2046BDE8104001F02FBD000048
:1016A00070B50C46054601F069FD18B10548007893
:1016B000022801D0082070BD21462846BDE87040B0
:1016C00001F05EBD0800002010B5FFF7C9FF0068FB
:1016D00010BD10B50C46FFF7C3FF04601CB1616874
:1016E0000968416010BD0021FBE7000070B50C46A1
:1016F000054601F043FD18B105480078022801D0E5
:10170000082070BD21462846BDE8704001F0CABDE2
:101710000800002038B50B4D04466946E86901F021
:10172000EAF800280CD0216801606946E86901F0F8
:1017300003F9014604480268002A01D02046904778
:1017400038BD0000E0530000AC0A002070B50178FD
:10175000634C0546062975D005DC72D2DFE801F03E
:1017600064749578829E5E488229007823D011DCCB
:101770000B2968D0802939D0812962D15948FFF7D7
:10178000ADFE5848FFF7B0FC092003F0E3FDA06868
:1017900050B906E0832933D0842952D1032837D0A9
:1017A0003CE05148007A00B1012001F01DFFFFF735
:1017B000ABFC012065E0FFF7A7FC01F039FF00203A
:1017C00003F01AF94748401CFFF78EFC4548401CBF
:1017D000FFF784FE0A2003F0BDFD207800F09EF99B
:1017E00000282ED0BDE8704001F076B9052803D05E
:1017F000062803D0072824D1022042E0082040E038
:1018000003281ED101F032FF00281AD0042038E04E
:1018100001F02CFF10B1042003F0EEF801F090FF6E
:1018200000280ED006202CE0002003F093FDA468D1
:1018300005E02946204600F053FB20684468002C50
:10184000F7D170BD37E02EE0FFF75EFC022000E02C
:10185000052003F0D1F8032003F07CFD2846FFF7B4
:101860003DFE23E0032003F075FD1E48801CFFF7BA
:1018700035FE1C48801CFFF737FC20780628BBD1BA
:101880000720BDE8704003F0B7B8032003F0B4F8B8
:10189000022003F05FFD2846FFF726FC2846BDE83E
:1018A0007040FFF71BBE0B2003F054FD2846BDE837
:1018B0007040FFF719BCA878FFF7D2FED0E90023EB
:1018C0002946104698470028BBD0A8780107B8D011
:1018D00000F00F010829B4D2BDE8704001F092BCBD
:1018E00008000020F1530000AC0A0020FFF712BFEF
:1018F00038B5074C6946E06901F013F8002806D0B6
:10190000FFF724FF6946E06901F000F8012038BDC7
:10191000E05300000148FFF7FDBE0000E053000067
:10192000114642681368184770B5044640680D4672
:10193000C2680AB12046904720462946FFF720FD9D
:1019400005464678002408E021462846FFF706FDB4
:10195000007801F0A3FB641CE4B2B442F4D370BD80
:101960002DE9F04180460E480E46456814E02F7A76
:1019700000240DE021462846FFF702FD017841458D
:1019800004D106B134702846BDE8F081641CE4B28D
:10199000BC42EFD328680568002DE8D10020F3E7AA
:1019A0000800002070B50446406815460E4683685E
:1019B0001BB120469847062803D1204631460DB179
:1019C000072070BDFFF7DCFC05464678002408E0E0
:1019D00021462846FFF7C2FC0078FFF74FFE641C43
:1019E000E4B2B442F4D3002070BD034600205A682C
:1019F0001269002A01D01846104770472DE9F843B4
:101A0000284E0446042384222549F06900F060FF33
:101A100010B10320BDE8F88301F09EF8224801F0E0
:101A200047FD0028F6D12148B4B194E80E001430E7
:101A300080E80E001E4900200870486088601B483E
:101A400048217C38FEF7FDFD184848213438FEF760
:101A5000F8FD184D002411E006F120010EC9E6E75B
:101A6000002703E000782946FFF733FE3946781C4B
:101A7000C7B24046FFF772FC0028F3D12146641C30
:101A8000E4B22846FFF77CFC5FEA0008E8D1706802
:101A9000009068686946026828469047BAE70000E7
:101AA00098090020E0530000ED180000980A00207B
:101AB0000800002050540000074803E0016811F0BE
:101AC000010F07D00168C1F340010029F6D0034897
:101AD000FFF720BE7047000038040040E5530000C7
:101AE000034808B5806800906846FFF713FE08BDFC
:101AF000E0530000074918B1052803D300207047C0
:101B000008687047044A105C0028FAD051F8200099
:101B10007047000034000020C2540000092808D299
:101B2000DFE800F0070705070705050505000120A8
:101B3000704700207047092808D2DFE800F0070747
:101B400005070707070705000120704700207047B9
:101B500000F002B800F008B872B602480168491CEB
:101B6000016070478000002003490868401E08603B
:101B700000D162B6704700008000002070B50546B5
:101B800008680C46411C04D001F088FF206801F071
:101B900039FF6068411C02D0002101F02AFF28793A
:101BA0001F4901EB40102968007F0028A069C1F897
:101BB000240523D0607D227D29681043C1F86C057F
:101BC000D4E900122868C0F80C15C0F8142522E0EA
:101BD000A068411C02D0002101F00BFFE068411C0D
:101BE00004D001F05BFFE06801F00CFFD4E90212C1
:101BF0002868C0F80825C0F8101570BD607D217DEB
:101C00002A680843C2F86C05D4E900122868C0F8B5
:101C10001425C0F80C15207D0128D9D070BD000016
:101C2000940B0020102802D31038C0B2704740F047
:101C300080007047084908B5085C0090684601F0CC
:101C400003FFD0F810050099C84010F0010000D043
:101C5000012080F0010008BDDC5300007CB50024A9
:101C6000064E25460022305D03230095114601955E
:101C700001F084FE641C042CF4D37CBDDC53000012
:101C8000094908B5085C0090684601F0DDFED0F80F
:101C90000425009B0121994021EA0203C0F8083580
:101CA0001140C0F80C1508BDD85300000249085C6B
:101CB000012101F0FDBE0000D85300000249085C7C
:101CC000002101F0F5BE0000D85300007CB50024CF
:101CD000084E25460122305D0095002311460195EE
:101CE00001F04CFE641C042CF4D3BDE87C4000F0F1
:101CF00003B80000D853000010B500242046FFF7B9
:101D0000D5FF641C042CF9D310BD00002DE9F0416F
:101D1000861C0C4601270020FFF71AFF0F480168B8
:101D20002160D0E90012891A82680446511AB51C54
:101D300007E000BF00F08CFCD4E90001401AA16864
:101D4000091A491C8D42F5D82068304420600020D3
:101D5000FFF700FF3846BDE8F0810000F80F0020D3
:101D600030B482680468531C8360A154D0E9011226
:101D70008A4202D330BC01F008BD30BC704700007D
:101D8000034803C8814201D10120704700207047F9
:101D9000F80F002070B50C460546097800200B2985
:101DA00032D2DFE801F01A1A1A1A31060C272C1A5F
:101DB0001A0021462846BDE8704002F0FDBC2846C6
:101DC00000F0A6F80146A078814211D00006E07824
:101DD00006D518B103280BD0032070BD012104E003
:101DE00010B10128F6D103E00021284603F0ACFA37
:101DF000002070BD2846BDE87040FFF7DDBA2846D8
:101E0000BDE87040FFF7E4BA062070BD82690A6041
:101E10004069704708B103207047086810F8081F30
:101E2000202901D006207047D0F80210C160C18877
:101E30000182017A817400207047000010B54FF4D0
:101E40008064D1B1012916D0022906D003292BD1F3
:101E5000BDE810400120FFF729BF0120FFF72EFF4A
:101E6000224612491248FFF791F900281CD0BDE81C
:101E70001040FFF72DB9032012E0FFF79BF902464F
:101E80000A48032103780B48008801EB00400AA1AF
:101E900002F006F8224605490548FFF777F90220C7
:101EA000BDE81040FFF7ECBE10BD0000740100203B
:101EB000AC5300004801002052583A2073697A65FB
:101EC0003A20256C7520636861723A202563000012
:101ED0000249084490F93000704700002C0B0020A4
:101EE000426812681047000070B5084C050009D020
:101EF00010342168002907D0086820604968284606
:101F00008847F6E70834F4E770BD0000180B00209E
:101F100010B50021FFF73EFA0021FFF728FA0078FC
:101F200010BD00002DE9F05F26484168F1B3DFF8ED
:101F300098B00E688146DBF8004087688078E11B26
:101F400021F07F45ED1CB0B9DFF880804FF4803080
:101F5000C8F84403C8F804031120FEF7D3FC11208D
:101F6000FEF7DBFC4FF0010AC8F800A02F2000F0BC
:101F70006DFD89F802A0B54200D23546124BE81932
:101F80003C3320F07F401860DBF800105A46091BF4
:101F900021F07F41001B20F07F40C91C81420FD9F6
:101FA000106818602F2000F051FD00E004E0BDE84B
:101FB000F05F1120FEF7BCBCBDE8F05F02F07ABA1A
:101FC000BDE8F09F6C0000200415014000100140A6
:101FD00010B50121FFF7DEF90021FFF7C8F90078FD
:101FE00010BD10B50121FFF7D5F90121FFF7BFF9A9
:101FF000007810BD0E4910B50A784C780023A24233
:1020000012D0521CD2B20A70022A00D10B70084AB8
:102010000B780C3252F8232002608868104420F0BC
:102020007F408860012010BD0360002010BD0000CB
:102030006C0000206FEA0061C90F61F31F10704748
:102040000106044900D5903100F00F0001EB0010AB
:1020500070470000B40B0020704700000C4910B519
:102060000020C8708020FFF7EBFF817B012403294B
:1020700002D0006800280AD18020FFF7DBFF8440EF
:10208000E1430348BDE810400C3000F067BC10BDD0
:1020900058000020812002F0BFB8822002F0BCB8B6
:1020A000832002F0B9B8842002F0B6B8852002F08F
:1020B000B3B8862002F0B0B8872002F0ADB80000B7
:1020C000F8B5154E00208825F0702846FFF7B8FFB8
:1020D000817B0124032914D00068002810D12846F0
:1020E000FFF7A8FF8440E14306F10C0000F036FC46
:1020F0000A48806800908DF80250716868468847E9
:10210000F8BD2846FFF796FF8440E143BDE8F8405C
:1021100001480C3000F022BC58000020D4540000CC
:1021200038B5144D0020E870FFF78AFF817B012449
:10213000032902D0006868B108E00020FFF77AFFA9
:1021400084400C48E1430C3000F008FCBDE8384006
:1021500001F009BA0020FFF76DFF84400548E14314
:102160000C3000F0FBFB0448C068009069686846CA
:10217000884738BD58000020D4540000012002F0E8
:1021800069B8022002F066B8032002F063B80420A8
:1021900002F060B8052002F05DB8062002F05AB8DF
:1021A000072002F057B8000038B5104D0020082471
:1021B000E8702046FFF744FF817B032914D00068B4
:1021C000002811D12046FFF735FF01218140C94386
:1021D00005F10C0000F0C2FB0548406900908DF845
:1021E000024069686846884738BD000058000020F2
:1021F000D454000070B5154804680460BFF36F8FB5
:10220000BFF34F8FBFF36F8FBFF34F8F01F0C2F853
:1022100038B10F48016921F0011201F00111144396
:10222000016101266CB194FAA4F0B0FA80F5284659
:10223000FFF7F8FC06FA05F18C43294603F042F853
:10224000F0E7BDE8704002F0F5BE00006C7402409B
:102250005800002010B5054CA078FFF7EBFE0146B2
:10226000A078BDE8104003F02DB800005800002011
:10227000F8B51E48D0F8001221F00401C0F8001291
:102280001B4800681B4DC6B2A878FFF7D3FE012497
:1022900004FA00F12889EA68C04380B21043014281
:1022A00002D0A87802F08CFF06F08000A870002011
:1022B000FFF7C0FE04FA00F68020FFF7BBFE04FA29
:1022C00000F006430B48F1430C3000F047FB802040
:1022D000FFF7B0FE8440A86804430748AC60006A7A
:1022E0000090696868468847F8BD000000700240A9
:1022F0008074024058000020D454000038B50020FB
:1023000000900B480068ADF802008820FFF792FEAD
:10231000012505FA00F40820FFF78CFE05498540E9
:102320002C43886804438C6049686846884738BDF8
:10233000207502405800002070B50B480468046006
:10234000BFF36F8FBFF34F8F012609E094FAA4F01B
:10235000B0FA80F52846FFF765FC06FA05F08443DD
:10236000002CF3D170BD000068740240F8B5184825
:102370000568284601F0B4FFBFF36F8FBFF34F8F9E
:10238000144E154CE80506D501206070706A009067
:10239000616868468847A8054FF0000705D5677053
:1023A000B06A009061686846884768050ED5607815
:1023B00000280BD06770094901200860582001F0FF
:1023C000A1FFF06A0090616868468847F8BD000088
:1023D00000740240D45400005800002008750240E8
:1023E000054908B50020487088700448406800908E
:1023F00049686846884708BD58000020D45400004A
:10240000054910B501200860012000F011FB0028EB
:10241000FAD10249487010BD04000040180B00209A
:102420002DE9FC5F0E008346DDE90C47C6F1000094
:1024300098469246814600D40846012503E000BF35
:1024400090FBFAF06D1C5045FADAA84500D94546D4
:1024500024B1002E01DB780700D5641EB80702D531
:10246000B8F1000F0AD0F80708D13CB1A54205D257
:1024700020215846641EFFF773FCF6E7002E02DAAF
:102480004E462D2102E0780703D52B215846FFF751
:1024900067FC07F0030002280BD1B8F1000F08D148
:1024A0003CB1A54205D230215846641EFFF758FCC6
:1024B000F6E7CDE90047434652463146584602F01A
:1024C000E3FCBDE8FC9F000070B50E4604460079B1
:1024D00018494FF4A27501EB4010017F2068A1B1AB
:1024E0004FF4887101F07EFE4FF49071206801F086
:1024F00079FE4FF49271206801F074FE294620683D
:1025000001F070FE0C49206809E04FF48E7101F073
:1025100058FE2946206801F054FE08492068C0F89A
:102520000413206800F09DFB3146BDE8704000F0C8
:102530006CBB0000940B002010030200800002001E
:102540000268134602E08A4204D01268002AFAD1D7
:102550000B600160704700002DE9F047394E0027FD
:1025600080463D46DFF8E090D6F804A057E003D05F
:102570000446D0F81C8035E099F8002002EB4201B7
:10258000521CD2B289F8002009EBC10199F802303F
:10259000091D9A4201D189F8005048680A7804461A
:1025A000012A12D0022A02D0032A3BD108E002F00D
:1025B000ADFA00B10127257434E00574C06900E06C
:1025C00070680028F9D170602CE0207C50BB8868CE
:1025D0006060C868A0600869E0604869A061F07840
:1025E00000B165606268B168184B501A20F07F40F6
:1025F000984202D2A168084406E0881AA16820F037
:102600007F40814202D9081A206000E025606560A1
:102610000120A56020742046E56102F059FAB8F166
:102620000000A4D199F8001099F801008142A3D1CB
:1026300017B97168514502D00120BDE8F08700202C
:10264000FBE700006C000020EC0D0020FFFF7F0086
:1026500070B588B0214800F07AF92048001F06467E
:1026600000F075F91E4DD5E9014105E0C0F389126E
:1026700002EB9050641C044404EA010005EB800066
:10268000C0688207F2D000200DF1080204EA0103BD
:1026900005EB8303641CDB6842F82030401C0228F1
:1026A000F4D3029800F00300012808D002280AD1D0
:1026B0000298032101EB905004EB900403E0029890
:1026C000C0F3831004443046002101AAFDF723FF24
:1026D000002800D06C6008B070BD0000101400200D
:1026E000F80F002008B500F037FA08B1FEF7F0FC4B
:1026F000002000F0C1FA08B1FEF7EAFC002001F06A
:102700002DFC08B1FEF7E4FC01F0D0FA35480321B6
:10271000008801EB004034A101F0BEFBFFF7D6FAC0
:10272000FFF79CFA334F40F222303880C006456EE6
:10273000046E012604F00F032FA202216846FEF763
:10274000E3FA9DF80000240927F8160044EA05740E
:102750002D09761C112EEDD32848FFF74FF908B14B
:10276000FEF7B6FC25482038FEF788FD08B1FEF7D5
:10277000AFFC22480024243800F0EEFA08B1FEF73E
:10278000A7FC1F4DFFF7B4F80028FBD1287884423E
:1027900006D0041E02D0FFF78FF901E0FFF7A0F981
:1027A0000020FFF747FA78B116A11D486A68FEF7C6
:1027B000BFFA12484FF4806219492038FEF74AFDEB
:1027C00010B96868401C68600120FFF733FA28B12F
:1027D0000A48002204212038FEF7F8FC01F074FAC0
:1027E00020BFCFE74801002048656C6C6F2055532F
:1027F000422100007409002025780000CC5300001D
:102800000000002048656C6C6F2055534220434403
:10281000432046412064656D6F3A20257500000015
:10282000740500202DE9F047C7880446181D164698
:102830008946B0FBF7F1B0FBF7F207FB12009A19DB
:102840003A44D21CB2FBF7F2DDF820A001E0246884
:10285000491E0029FBD13D1A8846B54216D818E01A
:10286000BAF1000F05D0211809EB08002A46091D0E
:1028700004E0204409EB08012A46001DFDF7C8FECC
:1028800000202468761BA844B74201D9354600E0F1
:102890003D46002EE4D1BDE8F087000030B5024689
:1028A00069B101F089FB0021084C0BE001EB410309
:1028B00004EB830315685B88AB4202D111600020F2
:1028C00030BD491C8142F1D3052030BDE800002015
:1028D00010B531B1B2FBF3F403FB14241CB1092091
:1028E00010BD0E2010BD0160002141608160828119
:1028F000C381084610BD70B50C460546FDF740FD86
:10290000002802D021882868084470BD10B50A88C4
:1029100049888A4203D1FDF775FD012010BD0020D2
:1029200010BD70B50C460546FDF74FFD002802D0DE
:1029300061882868084470BD10B50A8849888A42B1
:1029400003D1FDF739FD012010BD002010BD08B5F1
:1029500001216A46FDF7D2FD009808BD08B56A4618
:10296000FDF7BFFC009808BD70B504460025284659
:10297000FFF7EEF821686268086890420ED9401EA1
:1029800008600178238AE26801FB0325227A216826
:10299000101AC0B20A79824200D208710020FFF7F3
:1029A000D9F8284670BD70B505460C460020FFF7E3
:1029B000CFF8E868298A201AB0FBF1F12A6810687C
:1029C000431C13600170BDE870400020FFF7C2B8DF
:1029D00010B530B1017A42680368891AC9B21A6029
:1029E00006E00E2010BD03681A68541C1C601170AC
:1029F000491EC9B2F7D2006800210171084610BD16
:102A0000C20800F007030120895C98400840704725
:102A100000F180400068002800D00120704708B510
:102A200000F18040002101600068009008BD0000B6
:102A30000549096840F4803001F00111814201D15B
:102A400001207047002070470C04004000283ED051
:102A50001F49204A096800BF00BF00BF00BF00BF78
:102A600000BF00BF00BF91422FD000BF00BF00BF1A
:102A700000BF00BF00BF00BF00BF00BF00BF00BF5E
:102A800000BF00BF00BF00BF00BF00BF00BF00BF4E
:102A900000BF00BF00BF00BF00BF00BF00BF00BF3E
:102AA00000BF00BF00BF00BF00BF00BF00BF00BF2E
:102AB00000BF00BF00BF00BF00BF00BF00BF00BF1E
:102AC00000BF00BF00BF00BF00BF0138C3D17047C7
:102AD000E40000200024F40010B50020FFF738F8CF
:102AE00006484168491E4160406808B9FFF788FC04
:102AF000BDE810400020FFF72DB80000180B0020A3
:102B000070B5144D0446687838B114B1616800207E
:102B100088470020FFF71CF813E00020FFF718F8A3
:102B200024B10C4821460830FFF70AFD686840B917
:102B30004FF48070FFF773FF01208107C1F8040391
:102B400008606868401C6860BDE870400020FFF7BE
:102B500001B80000180B002070B50E4C002520783D
:102B600008B1852513E00021A16061602161E16069
:102B70004FF0E020D0F80001012610F0010F03D142
:102B80000721002000F041F803480660267028461F
:102B900070BD0000180B0020180500402DE9F04121
:102BA0004FF480773846FFF733FF0124104EA50716
:102BB00048B13846FFF733FF0120C5F808037470A9
:102BC0000020FFF791F94FF482773846FFF720FF96
:102BD00000280BD03846FFF722FF0220C5F8080373
:102BE000B470BDE8F0410120FFF77EB9BDE8F08187
:102BF000180B002000F01F020121914040098000C5
:102C000000F1E020C0F8801170474907090E002844
:102C100006DA00F00F0202F1E02282F8141D03E050
:102C200000F1E02282F8001400F01F02012191401F
:102C30004009800000F1E020C0F88012C0F80011C7
:102C400070474109890001F1E021D1F8001100F03D
:102C50001F0201209040014201D001207047002056
:102C60007047000B40B270470121B1EB507F01D19A
:102C7000012070470020704770B5104C217809B1D1
:102C8000852070BD00B90E480E4A0178C1F340019D
:102C900011600C490078083900F0010008604FF01D
:102CA000E020D0F80001012510F0010F03D1072129
:102CB0000020FFF7AAFF2570002070BD480000200B
:102CC000D05400008005004070B54FF08040D0F82F
:102CD0000443204D600706D54FF4847001F062FA7A
:102CE00008B168688047A00607D54FF48A7001F0E4
:102CF00059FA10B1A96800208847600607D54FF43B
:102D00008C7001F04FFA10B1A968012088472006A5
:102D100007D54FF48E7001F045FA10B1E968002034
:102D20008847E00507D54FF4907001F03BFA10B1E9
:102D3000E96801208847A0050AD54FF4927001F098
:102D400031FA002804D0E968BDE870400220084745
:102D500070BD00004800002000B5024600F00EF8EB
:102D6000106838B10449C8604FF080414FF460707A
:102D7000C1F80403002000BD480000204FF080414E
:102D80004FF46070C1F8080301490020C860704723
:102D9000480000204FF0E02291699369CB1A23F09C
:102DA0007F438342F9D3704701460448044A0068D0
:102DB000B0FBF2F04843FFF7EDBF0000E400002055
:102DC00040420F004FF0E0206FF07F41416105214C
:102DD000016170472DE9F04105460079164F904694
:102DE00007EB40140E46E07E10B10820BDE8F081EC
:102DF000707F20772846FEF7C1FE5FEA080060601A
:102E00003169216003D0317F2846FFF75DFB2879C7
:102E100007EB4010007F0028286801D0082100E05F
:102E20000421C0F800150020E0752076A07501216E
:102E3000E176A076DAE70000940B00202DE9F04758
:102E4000054600793F4E904606EB40140F46207F22
:102E500018B10846FFF708FF30B1284600F074F8B3
:102E600020B11120BDE8F0871020FBE784F8168020
:102E7000A7600027A78228794FF0010806EB4014CD
:102E80003E46207F0028286825D04FF49079494697
:102E900001F0A8F94FF4AC7A5146286801F0A2F984
:102EA0002868A17DA268C0F84425C0F848152868A4
:102EB000C0F808806068F0B94946286801F08DF9CB
:102EC00080465146286801F088F958EA0001F3D09D
:102ED00058BBA7750FE04FF48E7A514601F071F997
:102EE0002868C0F808802146286801F079FE6168EA
:102EF0004FF4807089B13046B4E75146286801F03C
:102F00005BF910B9A08A4845F7D1A08A484505D099
:102F10002146286801F064FE00E08146A08AA17D78
:102F20008842EAD3A08A484501D10F26D1E751460D
:102F3000286801F041F90028F9D02868C0F80C8011
:102F4000C7E70000940B00200079044901EB401012
:102F5000807D002800D0012070470000940B0020E5
:102F600070B5044600791149002601EB4015206830
:102F70002A7FC0F80065686888B1207901EB4010AD
:102F8000007F0028206801D0094901E008498C39F8
:102F9000C0F808132068FFF764FEFFF72BFE2046F9
:102FA00001F0BCF9EE766E6070BD0000940B00205D
:102FB0001003020003490248C1F8040370470000EF
:102FC000041480010070024030B54C689C4204D269
:102FD000002545600968016007E043600D68E41A58
:102FE00005604C600868184408609A4202D10CB130
:102FF000012030BD002030BD10B500F019FB08499C
:10300000D1F80403C1F80803064800210160BFF3AA
:103010006F8FBFF34F8F0448C1700121017010BD45
:1030200000700240007502405800002010B54FF4B7
:103030000064204601F054F9134901200860BFF3F1
:103040006F8FBFF34F8F114801680905FCD52046EB
:1030500001F046F90E4940F2E37008604020091D76
:103060000860BFF36F8FBFF34F8F074980201C317B
:103070000860084840F2FF1181600021C160C17002
:1030800081700221017010BD007502400074024081
:10309000007802405800002002F092B810B50446B3
:1030A00002F08EF821064FF0010004F00F0200FA42
:1030B00002F001D5084901E00749091D0A68824369
:1030C0000A60BFF36F8FBFF34F8F204600F0DCF82C
:1030D0000249C1F8080310BD10750240007002409B
:1030E00005490860BFF34F8F40F480700860BFF35C
:1030F0006F8FBFF34F8F70470C75024070B5044659
:1031000000F0C2F81A49C1F80403204601F070F833
:1031100000282BD104F00F0122064FF0010505FA1B
:1031200001F001D5134A01E0124A121D136803434E
:103130001360BFF36F8FBFF34F8F200716D02006A9
:1031400014D4082912D20020FEF702FD204600F018
:10315000BBFA2046FEF76EFF85400748C168A943C9
:10316000C160BDE870400020FEF7F4BC70BD0000F7
:1031700000700240107502405800002001F038B87D
:103180002DE9F0410E460746FEF754FF05460020A4
:10319000FEF7DEFC144C380704D1A078874201D03A
:1031A00010241BE02089E168C04380B2084301215C
:1031B00001FA05F5284201D011240FE03846FEF748
:1031C0003FFF002181603268026072684260817353
:1031D000E0680543E5600C4602F094F80020FEF735
:1031E000B9FC2046BDE8F0815800002010B5FEF77C
:1031F00027FF808910BD10B50C46FEF721FF8481A2
:1032000010BD0000044940F480700860BFF36F8F68
:10321000BFF34F8F704700001875024000F00F0198
:10322000082901D300207047020607494FEA0070C1
:1032300001EB906002D5D0F8200401E0D0F84404FE
:103240000128EFD170470000007002400349086078
:10325000BFF36F8FBFF34F8F7047000018750240A8
:1032600070B50D46FEF7ECFE04460020FEF770FC3C
:10327000A0682860206828B111240020FEF76AFCAD
:10328000204670BDA47BF8E7010601D5044901E0A2
:103290000349093100F00F00095C012088407047A4
:1032A000945500002DE9F0470D460646FEF7C2FE94
:1032B00080460020FEF74CFC254C300704D1A07856
:1032C000864201D0102433E02089E168C04380B2F7
:1032D0004FF00109084309FA08F7384201D01124D8
:1032E00026E03046FEF7ACFE06F00F01330601EB98
:1032F00041014FF0000225D5164B03EB81012B68ED
:10330000B9EB537F2B7A4FEAC37302D1B3B1124B9F
:1033100001E0ABB1114B036068CD81E86800C0E902
:1033200001128273E0680743E760002401F0EAFFBE
:103330000020FEF70FFC2046BDE8F087084BEAE7C7
:10334000084BE8E7034B6C3303EB8101064BE2E7E4
:1033500058000020D40C0020793400001134000003
:1033600055340000D5330000C92F000000F00F00D5
:10337000082805D305480068C10300D50020704720
:10338000034901EB8000D0F8A0047047C0740240EC
:10339000007002400C480078082810D10A48001D2F
:1033A000007800070BD108480830007810F0F00FC3
:1033B00005D105480C30007810F0F00F01D0002046
:1033C0007047012070470000E00F00F00048704790
:1033D000AC0D00202DE9F0414D680C4E07460C461F
:1033E000954200D915462A4630462168FDF710F966
:1033F000C7E900656068401B606020682844206061
:103400006068002800D00120BDE8F081AC0D0020EC
:103410002DE9F0414C680E4F06460D46944200D906
:10342000144634B1224638462968FDF7F1F8376072
:1034300001E00020306074606868001B68602868E4
:103440002044286014B10120BDE8F0810020FBE792
:10345000AC0D00204B68934200D913460A68C0E9BE
:1034600000234868C01A4860086818440860486823
:10347000002800D0012070474B68934200D91346C2
:10348000002B0ED0D1F80020C0E900234868A0EB43
:103490000300486008681844086005D04FF0010038
:1034A00070474FF00002EFE74FF000007047000058
:1034B0002DE9F0410446FFF76DFF08B1FFF782FCEC
:1034C0002CB11E49087820B10820BDE8F081072002
:1034D000FBE74C6001200024087046024FEA040517
:1034E00044F0800707F00F00082801D3314600E0C0
:1034F00040213846FFF77FFE3846FEF7A1FD857371
:10350000641C0560E4B28560092CE9D35FF0000417
:1035100004F00F00082801D3314600E04021204686
:10352000FFF769FE2046FEF78BFD8573641C05607E
:10353000E4B28560092CEBD30020C6E758000020D8
:1035400003480078022801D301207047002070470B
:103550005800002001488078704700005800002083
:10356000502000F0CFBE10B5FFF714FF58B1EFF3B5
:10357000108472B64C2000F0C5FE4C2000F0C2FE54
:1035800084F3108810BDBDE810404C2000F0BABE96
:103590000021016041601149096801700F49091D4E
:1035A000096841700D49083109680C4A0C321268EB
:1035B00041EA02214180094910310968074A143261
:1035C000126841EA02218180044918310968034ADE
:1035D0001C32126841EA0221C180704780740240A7
:1035E000542000F08FBE00000C4A10B5002151702D
:1035F0000B4C10B9FFF7CEFE00B10A4C0A48C0F8D8
:10360000044307212720FFF700FB08490120086039
:10361000BFF36F8FBFF34F8F10BD00005800002025
:103620000714C0030714E003007002400475024051
:1036300010B52720FFF705FB002810D001F022FE6F
:10364000074900200860BFF36F8FBFF34F8F054914
:103650008020C1F8800148170349C1F8080310BD54
:103660000475024004E000E00070024010B5002440
:103670002046FEF76DFA0C48407878B101F002FE62
:103680000A480168890509D4094901220A600068CD
:10369000800502D50020086000E001240020FEF72C
:1036A00059FA204610BD0000580000200074024066
:1036B0002C75024003490248C1F808037047000016
:1036C00004148001007002402DE9F0418046FFF7AC
:1036D00061FE00270125174C002808F00F06384628
:1036E00011D0FEF735FA4046FEF7A4FC8540A068ED
:1036F0001149A843A06040F2C57000EB4600086085
:10370000081D076011E0FEF723FA4046FEF792FC21
:103710008540A0680949A843A06001EB8600C0F875
:10372000A074BFF36F8FBFF34F8FBDE8F04100204F
:10373000FEF710BA580000200078024000700240E6
:1037400010B500242046FEF703FA0748407830B150
:1037500000F0D0FD18B105490020086001240020C8
:10376000FEF7F8F9204610BD580000202C750240E5
:103770000FB408B50399002904D004AA00926A4640
:1037800000F00FF801B05DF814FB10B58268044634
:10379000002A05D0D4E90403216898470020A060DE
:1037A00010BD2DE9FC4791460C00804676D014F8F8
:1037B000011B39B125290ED04046FEF7D1FA2078F9
:1037C0000028F4D198F80C00002867D04046BDE8E6
:1037D000FC47FFF7DABF0020012221782B291BD0FC
:1037E0002D2902D0302908D102E040F0010001E08B
:1037F00040F00200641C002AEFD100252A290ED0D7
:103800002178A1F130020A2A11D205EB850201EBE1
:103810004205641C303DF1E740F00400EAE7D9F8C6
:1038200000100B1DC9F800300968641C0D44217894
:1038300000232E290BD114F8011FA1F130020A2A0E
:1038400005D203EB830201EB4203303BF3E76C2923
:103850000DD068290BD0692921D00BDC252918D07F
:10386000582931D063290ED0642915D117E014F8F6
:10387000011FECE7702969D0732932D075291BD05C
:10388000782909D120E0D9F80000011DC9F80010FD
:1038900001784046FEF764FA641C90E76CE0D9F8C2
:1038A00000100A1DC9F800200968CDE900500A225D
:1038B0004046FEF7B5FDEFE7D9F800100A1DC9F83C
:1038C000002009680A2206E0D9F800100A1DC9F88C
:1038D000002009681022CDE90050404601F0D4FADA
:1038E000DAE7D9F8001000270A1DC9F800200E6891
:1038F000C00705D112E04046761C7F1CFEF730FA67
:1039000031780029F7D104E0202140466D1EFEF7F2
:1039100027FABD42C0D9002DF6D1BDE74EB13046E1
:10392000FCF79AFE074604E0202140466D1EFEF794
:1039300017FABD4206D9002DF6D103E04046761CA9
:10394000FEF70EFA31780029F8D1A5E7D9F8000082
:10395000011DC9F80010056830214046FEF700FA45
:1039600078214046FEF7FCF908200021CDE900014E
:10397000034610222946B0E7BDE8FC872DE9FF4148
:103980001C46DDE90A7815460E46684600F05CF8EC
:1039900046EA450141EA840141EA072242EA084138
:1039A000009A00EB8200C0F80017BDE8FF812DE906
:1039B000FF411C46DDE90A7815460E46684600F0D0
:1039C0005FF846EA450141EA840141EA072242EAFA
:1039D0000841009A00EB8200C0F80017BDE8FF81A3
:1039E0001CB5002100910B4601220191FFF7DFFF7A
:1039F0001CBD1CB500220B46009211460192FFF738
:103A0000D6FF1CBD1CB5002100910B46012201917F
:103A10001146FFF7CCFF1CBD13B50C46684600F0FD
:103A200021F8009900EB8101D1F8002722F44032FF
:103A3000C1F80027009900EB8100D0F8001741EA97
:103A40000441C0F800171CBD0168202902D24FF0C4
:103A5000A040704701F01F0101600148704700005D
:103A6000000300500168202902D24FF0A0407047A7
:103A700001F01F0101600148704700000003005081
:103A80000168202902D24FF0A040704701F01F01C9
:103A900001600148704700000003005001B568460E
:103AA000FFF7EEFF009A01219140C0F8081508BD0C
:103AB00038B501240090684631B1FFF7C5FF009981
:103AC0008C40C0F8084538BDFFF7BEFF00998C4018
:103AD000C0F80C4538BD00001CB5094C0144D4E9C0
:103AE0000034CDE900346C4606E000BF54F82030C5
:103AF000D3F81035401C08C28142F7D81CBD000025
:103B0000C8540000034908B508440021016000685A
:103B1000009008BD0060004002494058012800D0D4
:103B2000002070470060004030B5124B0146002075
:103B3000D3F81044224609E0157A854205D1401C8D
:103B40000A28F7DB4FF0FF3030BD5268002AF3D16E
:103B5000421CF9D00872D3F810242AB152684A6086
:103B6000D3F81024516030BD0022C3F810144A600D
:103B700030BD0000F80F0020F0B595B01C4615468A
:103B80000F4608461A9E00F0E7FA182109A8FCF72C
:103B900058FD0E96CDE909540023082203A93846A2
:103BA00000F0F4FA059806900498ADF81C00002087
:103BB0008DF820000398082600F00300012802D0A9
:103BC00002281DD03CE003983346850AC0F3C200AA
:103BD0008DF81E0003980FA9C0F380008DF81F0018
:103BE0000398C0F38314A200384600F0CFFA09A866
:103BF000009006AB22460FA9284600F009FA1FE004
:103C00000398840DC0F3C2008DF81E000398C0F322
:103C100080008DF81F00082C01D2254600E0082501
:103C200033462A460FA9384600F0B0FA2E44641BEA
:103C300009AB06AA29460FA800F03AF9002CEAD1F0
:103C4000384600F092FA15B0F0BD7047012000F040
:103C5000EBBF000010B50448FFF782F9BDE8104043
:103C6000002000F0E1BF00008800002008B5034AF2
:103C700000924023024AFFF77FFF08BD3D45000048
:103C8000F80E0020084A012902EBC00005D00229E5
:103C900003D0032903D0042903D000207047007902
:103CA00070474079704700007C57000010B5FFF75F
:103CB000CDFF04210348FFF737FF02490120487276
:103CC00010BD0000900000202DE9FE4FFEF758F8CF
:103CD00010B10020BDE8FE8F6D480021C0F8181417
:103CE000BFF34F8FD0E9014604EA060100EB8101E2
:103CF0004FF000090AE000BFC1F3891202EB9151B5
:103D0000641C0C4404EA060100EB8101C9688A07BF
:103D1000F2D000216A46804604EA060308EB8300DD
:103D2000641CC06842F82100491C0229F4D30098A1
:103D300000F00300022802D001284DD0A2E0009834
:103D40005022810D8A46B2EB905F00D850210D467B
:103D500065F39F50009008314E4800F0B4F9070019
:103D600077D000F0F9F94B4608226946384600F052
:103D700013FA04EA0600311A8900091D09F1080B3B
:103D80008D4222D9424E0C3631B1CAB208EB8000C6
:103D9000691A91460C3004E03046EAB2002691469A
:103DA0003146CDB201465B46384600F0F5F90BEBE3
:103DB00009032EB12A4631464FEA070000F0ECF91C
:103DC0000AF1030004EB90043AE008EB80015B4643
:103DD0002A4638460C31F1E70098C0F383100628D4
:103DE00000D30620009960F38911C1F38310801C71
:103DF00000918100274800F066F9070042D000F0EA
:103E0000ABF94B4608226946384600F0C5F909F17E
:103E1000080900250EE000BF04EA060008EB800157
:103E20004B46042238460C31641C00F0B5F909F108
:103E300004096D1C0098C0F38310A842ECD847B168
:103E4000D8F81054D8F81804464660B1384600F047
:103E50008CF917E0687A012804D12A682846394687
:103E6000126890476D68002DF4D1384600F07DF956
:103E70000020FDF76DFED6F8180400B9746000202C
:103E8000FDF768FEFDF77CFF80F0010022E70000EF
:103E9000F80F00200C56000000231A4600F062BD07
:103EA0001CB5CDE9002302236A4600F05BFD1CBD72
:103EB0002DE9F0470E4680461C46924608293ED81A
:103EC00094F80C90002020731946104600F0C4FAB4
:103ED0000025B54206D218F805201AA12046FFF7A2
:103EE00047FC03E019A12046FFF742FC6D1C082D9A
:103EF000EFD317A12046FFF73BFC0025B54210D2B7
:103F000018F80570FCF780FB0068C05D10F03E0FEC
:103F100001D03A4600E02E220EA12046FFF728FCF1
:103F200003E00DA12046FFF723FC6D1C082DE5D30F
:103F300001222146504600F02DFA84F80C90BDE88D
:103F4000F08700002025303278000000202020007B
:103F50007C0000002563000020000000114810B51F
:103F6000FF218160002101604160C0F81814C0F891
:103F7000141480F81C140C4800F0F5F800280FD138
:103F80000A480B490B4B401AC108002005E000BF4E
:103F900000EB400223F82200401C8842F8D30020A6
:103FA00010BD0000F80F00200C560000C4570000A0
:103FB0007C570000E800002002480349401AC0086E
:103FC00070470000C45700007C57000013B56846D6
:103FD000FEF764FC08B100201CBD0248009950F8AF
:103FE00031001CBD7C57000070B508480125D0F891
:103FF000104480F81C5405E0657221682046496829
:1040000088476468002CF7D170BD0000F80F0020CD
:104010002DE9FF4781460C9D00200C462F7B28731D
:10402000984616462946184600F016FA072E42D240
:10403000DFE806F004090F161F2A36004946284615
:10404000FFF796FB37E0494628462268FFF790FBCA
:1040500031E0D4E9002349462846FFF789FB2AE0EE
:10406000A0680090D4E9002349462846FFF780FB6A
:1040700021E0D4E90201CDE90001D4E90023494659
:104080002846FFF775FB16E004F1080007C88DE825
:104090000700D4E9002349462846FFF769FB0AE0F8
:1040A00004F108000FC88DE80F00D4E90023494649
:1040B0002846FFF75DFB00222946404600F06AF9DA
:1040C0002F73BDE8FF872DE9F041058A80462D1F3B
:1040D0004819C01CB0FBF5F0C6B24046FEF744FCE0
:1040E000041E19D00020207101206071E580002796
:1040F0002546761EC4F800800BE04046FEF734FCEF
:1041000060B16179491C6171286005467F1CC0F867
:104110000080B742F1D32046BDE8F081204600F090
:1041200002F80020F8E72DE9F041457901466B1EC1
:10413000002201E00968521C9A42FBD30F68014635
:10414000002605E038460C68FEF72DFC2146761C5B
:10415000AE42F7D3BDE8F08108B501216A46001DE3
:10416000FCF7A5F908BDFEF733BC38B50446001DC1
:1041700001216A46FCF7A8F9009810F0FF0F04D15E
:104180002046BDE83840FFF7CEBF38BD38B5012422
:104190000094FEF747FB38BD38B500240094FEF7C5
:1041A00041FB38BD00F180410868002210B10120B8
:1041B0000A607047104670474058002800D0012020
:1041C000704708B5002242504058009008BDD0F812
:1041D0000403084000D0012070474058002800D058
:1041E0000120704708B5002242504058009008BD99
:1041F00002064FF0010100F00F0001FA00F101D5B5
:10420000044801E00348001D0068084000D0012078
:10421000704700001075024070B50D49054600203A
:10422000C8702846FDF70CFF817B0124032902D0CA
:10423000006800280AD12846FDF7FCFE8440E143CF
:10424000BDE8704002480C30FEF788BB70BD00002E
:1042500058000020F8B5164D06460020E87030469C
:10426000FDF7EEFE817B0124032902D0006850B1E6
:104270001AE03046FDF7DEFE84400D48E1430C3085
:10428000FEF76CFB10E03046FDF7D4FE8440084892
:10429000E1430C30FEF762FB0648006900908DF8A0
:1042A0000260696868468847BDE8F84000F0C2BE11
:1042B00058000020D454000002494058002800D083
:1042C0000120704700700240044908440021016049
:1042D000BFF36F8FBFF34F8F704700000070024035
:1042E00003490860BFF36F8FBFF34F8F7047000023
:1042F0000074024002480068002800D00120704786
:104300002C7502400449084401210160BFF36F8FFE
:10431000BFF34F8F704700000070024070B5034636
:1043200000791B4901EB40101968027F4FF0FF3004
:10433000002AD1F80C25D1F81465D1F80855D1F828
:10434000104504D0C1F80C05C1F8140503E0C1F80C
:104350001405C1F80C051968C1F80805C1F8100565
:10436000501C02D01046FFF73BFB701C02D03046B9
:10437000FFF736FB601C02D02046FFF731FB681CBC
:1043800004D02846BDE87040FFF72ABB70BD00008E
:10439000940B002010B50C46C17949B11AB109A19E
:1043A0002046FFF7E5F92046BDE81040FFF7EDB9DC
:1043B000007A0028F3D0044804A102682046FFF7E1
:1043C000D7F9ECE70D0A0000C000002025730000BB
:1043D000124910B50988032202EB014258B1104C72
:1043E000012814D0022805D110460EA1FFF754FD74
:1043F0000120207010BD10460DA1FFF74DFDFFF705
:104400009FF80028F6D1BDE81040FDF713B910461B
:104410000CA1FFF741FD0020EBE700004801002060
:10442000000000205553422072656164790000004D
:1044300055534220706F77657220646574656374AC
:104440006564000055534220706F77657220726575
:104450006D6F76656400000070B50446C0790D4646
:1044600000281CD1207A50B1A179A088FFF70AFC5E
:104470000B4951F820200BA12846FFF779F9A088B5
:104480000021FFF7A3FD03460549A079143951F82F
:1044900020202846BDE8704003A1FFF769B970BD30
:1044A000C0000020257300003C25733E2025733A90
:1044B0002000000070B5012670044FF0E0210025B7
:1044C000C1F88001084C4010C4F84803C4F8080340
:1044D00066602F20FEF7BAFAA660044C2F20A56074
:1044E000FEF7B4FAA57070BD001001406C0000200A
:1044F00070B50546C87D0C4600284FF484712846E7
:104500000AD0FFF75EFED5F81805627EE168885490
:10451000607E401C607670BDFFF753FED5F818052D
:1045200070BD1FB501238DF800308DF80810019281
:10453000D0E90012684690471FBD000010B5084C36
:104540000020D2B22070201DFEF778FC08B1FCF7E5
:10455000BFFD6078002802D021780029FAD010BD74
:1045600084000020002070472DE9FC4108790C46AA
:10457000012804D0022805D003285CD14DE0122286
:104580002E4952E0B4F80700092800D909208046D6
:1045900009260027FCF7DCFE05460BE06868694643
:1045A00042682846904700980644287A3844C7B2A3
:1045B00028680568002DF1D101A8FDF731F81F49E1
:1045C000054642461231FCF723F82F716E80FCF746
:1045D000EBFE18B1E87940F02000E871FCF7B8FE76
:1045E0000146174880E82201B4F80710C160002096
:1045F000FDF7AEFA114980200839FDF751F80400A3
:1046000005D10E4980201039FCF770FF04460020C8
:10461000FDF7A0FA2046BDE8FC81E078B4F805106B
:10462000FDF768FA010006D00A7802B0601CBDE808
:10463000F041FCF7C5BF0620EDE700002054000064
:10464000080B002038B54A7812F0600F36D11306F7
:104650003C4A8B784FF0000432D523B1062B15D09D
:10466000082B2BD116E00B466846FCF7D9FF014614
:104670000480007840F00100087052785208D20798
:1046800002D040F002000870022213E0BDE838407A
:10469000FFF76ABF0B466846FCF7C2FF0146107879
:1046A000052802D0042803D008E00120087000E0AB
:1046B0000C700122581CFCF783FF38BD062038BD62
:1046C00020480A2B0078F9D2DFE803F0051A05121A
:1046D000050605050524F1E7032803D0042801D0C9
:1046E00005281BD1FCF710FD042000F02FFC0FE083
:1046F000B1F803000128E1D1507840F0020006E053
:10470000B1F803000128D9D1507820F00200507090
:10471000002038BD052803D0042801D0082038BD6A
:10472000C87818B1012805D0072038BDFCF7ECFC8B
:10473000042002E0FCF7FEFC052000F007FC204608
:1047400038BD00001C000020F8B50446407810F089
:10475000600F27D16579A07820B101281BD00328EC
:1047600020D10DE06846FCF75BFF06462846FEF7C1
:1047700055FD308002223146601CFCF721FFF8BD58
:1047800005F00F0008280DD2B4F8030050B92846F0
:10479000FEF738FD0EE005F00F00082802D2B4F84D
:1047A000030008B10620F8BD2846FEF799FC28460C
:1047B000FEF74CFD0020F8BD38B54B784FF00602EF
:1047C0001C06C3F341132BD513B1012B12D113E0F7
:1047D0000C46897806290DD100210091E2782179D3
:1047E0006B46FCF793FD010004D0601C009AFCF7B7
:1047F000E7FE38BD062038BD0B46006889780830D2
:10480000212903D1B3F80710072901D0104638BD7C
:10481000072200F10C01581CBDE83840FCF7D0BE5F
:10482000002BF3D0012BE5D1BDE8384000F044B8AF
:10483000F8B50B4651780646144611F0600F25D1A5
:104840001C480906A17800781ED511B10A291DD18E
:1048500009E005281ED16846FCF7E2FE014600206B
:10486000088002220CE0052814D16846FCF7D8FE27
:10487000054619463046FDF7B8F82870012229464A
:10488000601CFCF79DFEF8BD0B2901D00620F8BD89
:10489000052801D00820F8BDB4F80300FF2801D98D
:1048A0000720F8BDD27819463046BDE8F840FDF73C
:1048B00079B800001C00002030B5044600688A78F2
:1048C000083085B0202A02D0222A29D125E0B1F86B
:1048D0000730072B24D10270C97941700021019162
:1048E0000291811C0091407801900020FDF730F981
:1048F00069460020FCF7FAFE050008D1184803A914
:104900000068CDE903040020FCF7F0FD0546002017
:10491000FDF720F9284605B030BDB1F807200AB1EF
:104920000620F8E7027DB1F8031002F0010201F061
:1049300001058182AA4211D00DB1022100E00321BC
:10494000204600F001FD4DB92046FDF741FBFEF782
:10495000A3FB2046FDF745FBFEF79EFB0020DAE7B0
:10496000BC5500002DE9F843224C88460546914687
:104970001F4669461846A668FDF7C8F988B300982F
:1049800000EA060104EB810252F80C1F21F003013A
:10499000491C401C11605FEAC56C02D541F004015E
:1049A00001E021F0040165F3C50167F3891168F3A3
:1049B0009F21116000EA0602290C04EB8202401CD0
:1049C000D160009000200AE0009959F8203001EAF7
:1049D000060204EB8202491CD360401C0091B842DD
:1049E000F2D394F81C0401E0FFF76EF90028FBD124
:1049F000BDE8F883F80F002070B50546FDF78EF886
:104A0000124C06462078FDF789F886420AD02846DF
:104A1000FDF784F820B104F10C00FEF771F801E015
:104A2000FEF75AF82846FDF786F806462078FDF787
:104A300082F8864208D02846FDF77DF810B1FEF7CF
:104A4000B9FA01E0FEF736FE257070BD08000020BF
:104A50002DE9F84F1D4C00256846D4E901A6FDF765
:104A6000C9FA002738B30023009A61681CE0D1F826
:104A700000C00846944503D9ACEB02020A6015E079
:104A8000A2EB0C0263440760D0F80CC0C1698146F8
:104A9000BCF1000F08D006EB030828F07F48C0E9FE
:104AA000018CC9F81C5005460029E0D128466160F8
:104AB000FDF752FD03E02846FDF74EFD10B15046CC
:104AC000FDF730FAE770BDE8F88F00006C000020B9
:104AD0000D4B10B5596831B102680C68A24204D878
:104AE000A21A0A60C161586010BD0B4603E00B4674
:104AF000C969121B21B10C689442F8D3A41A0C6046
:104B00000260C161D86110BD6C0000202DE9F04148
:104B1000144E77683D462C4603E0844204D0254677
:104B2000E469002CF9D11BE0D4B1A5420BD1F8699E
:104B3000706040B90C49012088600021B160F070BC
:104B40002F20FDF783FF2168E069E86110B102685A
:104B5000114401607068874202D00120BDE8F081F5
:104B60000020FBE76C000020001001402DE9F0411F
:104B7000194D6C68002C2CD0184800270068A968D3
:104B8000B846401A20F07F462068B0420CD8214633
:104B9000361A0744E469087C20B181F810808869DE
:104BA00049698847002CEFD129786878814206D17D
:104BB000401CC0B26870022801D185F80180064807
:104BC00069780C3040F82170BDE8F0411420FBF703
:104BD000AFBEBDE8F08100006C000020041501406C
:104BE00070B50C4605464FF48E71FFF7EAFAA18ABC
:104BF000A068415CA08A401CA082C5F81C1570BD4D
:104C00001FB500228DF800208DF8081081680191F1
:104C10008275D0E90012684690471FBD0149012006
:104C2000087070478400002010B588B00446202228
:104C30000E496846FBF7ECFC06200090C01F01906F
:104C4000029003904FF0EB7006900CB1084A00E020
:104C5000002269460748FEF7BDF808B1FCF738FAAC
:104C60000448001F447008B010BD0000EC5500005F
:104C70001D4C0000880000202DE9FF470C4605462A
:104C80004FF40071FFF7A3FA01274FF401780026D3
:104C900018B34FF4927949462846FFF78DFAE0B1F0
:104CA00049462846FFF78DFAC5F80883A07E00B96B
:104CB0006F6002208DF80000D5F88004C5F88004EC
:104CC0000390E07D8DF80800E0680190E675267697
:104CD000D4E900126846904727E004212846FFF7F0
:104CE00076FA10B34FF484712846FFF765FAE0B105
:104CF00021462846FFF7FCFBE07D617E884214D107
:104D0000207E38B1617EE268E0752069E060267639
:104D1000667607E0A07E00B96F60C5F80883E67587
:104D2000617EE2682046FFF7FCFB4FF48E78414637
:104D30002846FFF741FA88B1A08AA17D884204D2B3
:104D400021462846FFF74CFF08E041462846FFF77A
:104D500038FAA17D11B12046FFF752FF4FF4A27837
:104D600041462846FFF728FA002812D04146284637
:104D7000FFF727FAA07E00B12F60E07D002808D061
:104D8000E675617EE26804B02046BDE8F047FFF7B3
:104D9000C8BBBDE8FF872DE9FF410C464FF4927771
:104DA00005463946FFF719FA0026C0B139462846AC
:104DB000FFF718FA02208DF80000D5F88004C5F836
:104DC00080040390D5F83C058DF80800E068019058
:104DD000E6752676D4E900126846904724E04FF441
:104DE000887739462846FFF7F8F9E8B1394628466A
:104DF000FFF7F8F9D5F83C05C1B2E07D884213D140
:104E0000207E60B1E268D5F8000220F02000C5F8ED
:104E10000002207EE0752069E060267601E0E675FC
:104E2000E2682046FFF77DFB4FF4A277394628461B
:104E3000FFF7D3F968B139462846FFF7D3F9E07D8B
:104E400038B1E675D5F83C05E268C1B22046FFF7F7
:104E500068FB4FF4907631462846FFF7BEF90028EC
:104E60000FD031462846FFF7BDF9A07D002808D0B5
:104E7000D5F84C0504B0C1B22046BDE8F041FFF7BB
:104E8000BFBEBDE8FF8100002DE9F05F8346DDE98C
:104E90000A4A994690460D460846012703E000BF9E
:104EA000B0FBF8F07F1C4045FAD2B94500D94F4617
:104EB0005FEACA7012D18CB15FEA8A7002D5B9F18B
:104EC000000F01D0202607E0302605E03146584685
:104ED000641EFCF745FF0CB1A742F7D35FF0010653
:104EE000B9F1010F02D9A9F1010903E0B5FBF6F010
:104EF000404502D306FB08F6F2E7DFF83C9000BF1E
:104F0000B5FBF6F000FB165519F800105846FCF7F3
:104F100027FFB6FBF8F6002EF2D15FEACA7009D07F
:104F2000002C07D0A74205D220215846641EFCF76A
:104F300017FFF5E7BDE8F09FD05500000248006874
:104F4000002800D0012070472400002004490A787E
:104F5000824203D008700348FCF7F8BB704700009A
:104F60001C0000200C5400002DE9F05F0746486843
:104F700092464FF001080C4658B1FEF727FA00267A
:104F8000FEF724FAE56883465046554537D905466D
:104F900035E04FF00008C7F80080C7F8048033E020
:104FA000A068C0B1A84200D9284681460BEB060094
:104FB0004A466168FBF72CFBA168A5EB0905A1EB4C
:104FC0000900A060E1684E44A1EB0900E06061685F
:104FD00001EB09006060E06810B1A06878B902E0F8
:104FE0004FF000080BE0206888B141684A6804F17E
:104FF0000801904760602068006800682060002D0C
:10500000CED100BFC7E900B64046BDE8F09F002002
:105010006060002EF6D05645F4D28046F2E70106D5
:1050200001D5042100E0282100F00F0001EB8000F1
:10503000FFF768B92DE9FE4F5B4EF078002848D1A4
:105040008246DFF868814FF0010B3EE090FAA0F055
:10505000B0FA80F08146FCF7E5FD0446FCF7F0FF6E
:105060000546200610D5D5E90031AA8901A8984740
:1050700088BBC5F800A0802C31D1D8F8001241F0CF
:105080000401C8F800122AE02046FEF76FF90090EC
:10509000D5E900710346AA8901A8B8470199D9B199
:1050A000029A00998A4217D20220A8730BFA09F0DB
:1050B000C1433D480C30FDF751FC3D48006B00906A
:1050C0008DF80240716868468847D6E902100840AA
:1050D000BCD1BDE8FE8F02E008B9C5F800A086F893
:1050E00003B0B1680BFA09F08143B160A868029976
:1050F00022060844A860DDE9011004F00F020ED575
:10510000082A03D32B4A1160111D0DE002EB820225
:1051100008EB8202C2F80016C2F804060EE0082A64
:1051200004D3254A1160111D086007E002EB8202DA
:1051300008EB8202C2F80017C2F80407FEF72AF94A
:1051400068B34FF482752846FFF7BEF82046FFF794
:1051500066FF0220FDF728FE2846FFF7ADF800287D
:10516000F1D01E20FDF720FE144E02E00220FDF7D4
:105170001BFE30688006F9D50120FDF715FE2006DC
:1051800002D50B499C3101E00949AE3104F00F0012
:1051900031F81000FFF790F80028D4D099E72046A6
:1051A000FFF73DFF95E70000580000200070024027
:1051B000D4540000A0760240A077024074740240EC
:1051C0002DE9F84307460020FCF7C2FC3846FCF7FF
:1051D00037FF06463806294D4FF000084FF0030907
:1051E0004FF0010438461ED4FCF724FFE96804FAA6
:1051F00000F0884303D03846FEF766FA10E03846E0
:10520000C6F80080FCF716FFE96804FA00F0814355
:105210003846E960FCF70EFF8440A868A043A86008
:1052200086F80E9024E0FCF705FFD5E9022104FA88
:1052300000F061EA020108421AD03846FCF7FAFE93
:10524000E96804FA00F081433846E960FCF7F2FEB1
:105250008440A8680443AC600948C6F8008086F81A
:105260000E90006800908DF8027069686846884763
:10527000BDE8F8430020FCF76DBC0000580000209A
:10528000D45400002DE9F0410D4EB068040CF068D4
:105290002404044301270BE094FAA4F0B0FA80F54B
:1052A0002846FCF7BFFCFFF78BFF07FA05F08443A5
:1052B000002CF1D140F2FF10B060BDE8F081000099
:1052C00058000020012238B58A400C490C468B68F2
:1052D00013438B606168E468094B050602EA040227
:1052E00003D5002A09D19A6902E0002A05D1DA69BA
:1052F00000928DF802006846884738BD58000020AB
:10530000D454000002498020C1F800027047000018
:1053100004E000E010B502280BD003280ED00928C5
:1053200011D00A280FD1FCF783F9BDE81040FCF733
:10533000E3BCBDE810400020FCF7B8BCBDE810405D
:105340000020FCF7BBBC10BDC269002A00D010478A
:105350007047000002494968002900D0084770479B
:10536000AC0A0020080B0002020201000904000040
:1053700001020201000524001001052401030104BB
:1053800024020205240600010705820340001009DB
:10539000040100020A000000070581024000000726
:1053A0000501024000000000D1430000540100202C
:1053B000A8550000020001060102048281010000DC
:1053C00064530000420000003D1E00000000000089
:1053D00015530000000000000D0E0F100B0C1819E3
:1053E00080000000078100008200000083000000B0
:1053F00084090A030700000008000000B80A002022
:105400000000000000000000000000000B00000091
:105410006545000000000000694F0000080B0020F7
:10542000120100020000004015190F520001010294
:10543000030109020000000100C0FA00FD13000092
:10544000000000000000000000000000000000005C
:105450002C0000203C5400000100020300800000EA
:10546000040309002A034E006F0072006400690003
:1054700063002000530065006D00690063006F0049
:105480006E0064007500630074006F0072002603F4
:105490006E005200460035003200200055005300D7
:1054A0004200200043004400430020004400650007
:1054B0006D006F000E035500730065007200200040
:1054C00031000001020304000000005000030050FE
:1054D00000000000060000030100000006000000BC
:1054E00006000000060000000600000006000000A4
:1054F000060000010500000002000000030000009B
:105500000400000006000002E1230000392300002F
:105510005D200000952000009B200000A1200000DD
:10552000A7200000AD200000B3200000B92000003B
:1055300055220000C1200000212100007D21000033
:1055400083210000892100008F21000095210000A7
:105550009B210000A1210000A9210000FD220000E4
:105560006D23000071220000F52100005920000089
:1055700008010C011001140118011C012001240173
:105580002C013001340138013C0140014401480143
:105590004C01500102030405060708090B0C0D0E0F
:1055A0000F10111213140000951D00000D1E0000B5
:1055B000000000000000000000000000151E0000B8
:1055C00000000000000000000A00000000000000D1
:1055D0003031323334353637383941424344454629
:1055E0006D3C0000553C00004B3C0000FFFFFFFFFE
:1055F000FFFFFFFFFFFFFFFFFFFFFFFF00000000B7
:10560000000000000000D60107010000A4000020F7
:105610009C000020A4000020380F0020180000008B
:1056200000404040404040404040414141414140B5
:10563000404040404040404040404040404040406A
:1056400040050202020202020202020202020202F9
:1056500002202020202020202020200202020202FE
:105660000202909090909090101010101010101056
:105670001010101010101010101010100202020262
:1056800002028888888888880808080808080808A6
:1056900008080808080808080808080802020202A2
:1056A00040000000215600007761726E696E67004D
:1056B00064656275670000001B5B313B33306D0031
:1056C0001B5B306D000000001B5B313B33316D0014
:1056D0001B5B313B33326D001B5B313B33336D0061
:1056E0001B5B313B33346D001B5B313B33356D004D
:1056F0001B5B313B33366D001B5B313B33376D0039
:10570000696E666F000000006572726F72000000C3
:105710006170705F7573626400000000636C6F639A
:105720006B0000006770696F7465000075617274CA
:105730000000000055534244000000006364635FB2
:1057400061636D00686172646661756C740000006D
:1057500062616C6C6F63000061707000C457000080
:105760000000002054010000C8060000105800008E
:1057700054010020C4320000680D000010570000E2
:10578000000000001C57000000000000245700002B
:10579000000000002C5700000000000034570000FB
:1057A000000000003C5700000000000044570000CB
:1057B0000000030050570000000000005857000090
:1057C000000003000119031B15193360543364549E
:1057D000338E54074474090020B45454200040030D
:1057E0001FE05533085743A856325733B05633C0DD
:1057F0005633B85633C85633D05633D85633E0569E
:1058000033E85633F05643F856046D90D003000049
:0400000500000201F4
:00000001FF
