:020000040000FA
:10000000984A02201D06000025060000E9030000B2
:10001000290600002B0600002D060000000000004D
:100020000000000000000000000000002F0600009B
:100030003106000000000000330600003506000015
:10004000E70B000037060000B50E00004D0C000065
:100050003706000037060000F907000037060000E9
:10006000370600003706000037060000370600009C
:10007000370600003706000037060000370600008C
:1000800037060000290C0000370600003706000084
:10009000A90C0000370600003706000037060000F4
:1000A000370600003706000037060000370600005C
:1000B00037060000370600000000000000000000C6
:1000C000370600003706000037060000370600003C
:1000D000370600003706000037060000D10E00008A
:1000E00037060000F50B0000370600000000000096
:1000F0000000000037060000000000003706000086
:1001000000000000000000000000000000000000EF
:1001100000000000000000000000000000000000DF
:1001200000000000000000000000000000000000CF
:1001300000000000000000000000000000000000BF
:1001400000000000000000000000000000000000AF
:10015000000000000000000000000000000000009F
:10016000000000000000000000000000000000008F
:10017000000000000000000000000000000000007F
:10018000000000000000000000000000000000006F
:10019000000000000000000000000000000000005F
:1001A000000000000000000000000000000000004F
:1001B000000000000000000000000000000000003F
:1001C000000000000000000000000000000000002F
:1001D000000000000000000000000000000000001F
:1001E000000000000000000000000000000000000F
:1001F00000000000000000000000000000000000FF
:10020000DFF80CD000F0C8FA00480047296400006D
:10021000984A022030B4044654E8000F0D4644E8E2
:100220000053002BF8D1156030BC704730B4044641
:1002300054E8000F40EA010544E80053002BF7D1D1
:10024000156030BC704730B4044654E8000F00EA33
:10025000010544E80053002BF7D1156030BC70470E
:1002600030B4044654E8000F80EA010544E8005326
:10027000002BF7D1156030BC704730B4044654E809
:10028000000F00EB010544E80053002BF7D1156087
:1002900030BC704730B4044654E8000FA0EB0105B1
:1002A00044E80053002BF7D1156030BC70470000C4
:1002B00030B4044654E8000F0D4644E80053002BC8
:1002C000F8D1156030BC704730B4044654E8000FD4
:1002D00040EA010544E80053002BF7D1156030BC1B
:1002E000704730B4044654E8000F00EA010544E8C2
:1002F0000053002BF7D1156030BC704730B4044672
:1003000054E8000F80EA010544E80053002BF7D1C0
:10031000156030BC704730B4044654E8000F00EB61
:10032000010544E80053002BF7D1156030BC70473D
:1003300030B4044654E8000FA0EB010544E8005334
:10034000002BF7D1156030BC7047000030B4044674
:1003500054E8000F0D4644E80053002BF8D1156017
:1003600030BC704730B4044654E8000F40EA010541
:1003700044E80053002BF7D1156030BC704730B40F
:10038000044654E8000F00EA010544E80053002B3E
:10039000F7D1156030BC704730B4044654E8000F04
:1003A00080EA010544E80053002BF7D1156030BC0A
:1003B000704730B4044654E8000F00EB010544E8F0
:1003C0000053002BF7D1156030BC704730B40446A1
:1003D00054E8000FA0EB010544E80053002BF7D1CF
:1003E000156030BC70470000094B1EF0040F1CBFA5
:1003F000EFF309801847EFF308800649064A884260
:1004000001D8904202D88D464FF0000018470000F6
:10041000BD090000984A0220982A022030B450E812
:10042000012F93B2C48923448489A34228BF1B1B94
:100430000489A34202BFBFF32F8F002007E0C3EA65
:10044000020340E80134002CE9D14FF001000A60BA
:1004500030BC704750E8012FC2EA024240E8012157
:100460000029F7D1704730B450E8022F1FFAA2F3E9
:10047000C488A34202BFBFF32F8F00200DE0C489C0
:1004800023448489A34228BF1B1BC2EA034340E8DC
:100490000234002CE8D14FF001000A6030BC7047F4
:1004A00050E8022FC2EA224240E802210029F7D197
:1004B0007047034653E8022FD988B2EB324F4FF012
:1004C000000017BF92B241EA014142EA014104E053
:1004D0005A68B2EB324F08BF012043E80212002AEB
:1004E000E8D1704730B4044654E8000F0D4644E8A4
:1004F0000053002BF8D1156030BC704730B404466F
:1005000054E8000F40EA010544E80053002BF7D1FE
:10051000156030BC704730B4044654E8000F00EA60
:10052000010544E80053002BF7D1156030BC70473B
:1005300030B4044654E8000F80EA010544E8005353
:10054000002BF7D1156030BC704730B4044654E836
:10055000000F00EB010544E80053002BF7D11560B4
:1005600030BC704730B4044654E8000FA0EB0105DE
:1005700044E80053002BF7D1156030BC70470000F1
:1005800030B4044654E8000F0D4644E80053002BF5
:10059000F8D1156030BC704730B4044654E8000F01
:1005A00040EA010544E80053002BF7D1156030BC48
:1005B000704730B4044654E8000F00EA010544E8EF
:1005C0000053002BF7D1156030BC704730B404469F
:1005D00054E8000F80EA010544E80053002BF7D1EE
:1005E000156030BC704730B4044654E8000F00EB8F
:1005F000010544E80053002BF7D1156030BC70476B
:1006000030B4044654E8000FA0EB010544E8005361
:10061000002BF7D1156030BC7047000006488047BA
:1006200006480047FEE7FEE7FEE7FEE7FEE7FEE7D7
:10063000FEE7FEE7FEE7FEE7AD0C0000010200006A
:100640002DE9F05F0546002092469B468846064607
:10065000814640241BE0284641464746224600F09A
:100660008AF853465A46C01A914110D3114618468B
:10067000224600F071F82D1A67EB01084F4622461A
:100680000120002100F068F817EB00094E41201E00
:10069000A4F10104DFDC484631462A464346BDE862
:1006A000F09F00000048704740C100000649074A1B
:1006B0000868504343F2390210440860400870470C
:1006C0000149086070470000A00100206D4EC6413E
:1006D00040EA01039B0703D009E008C9121F08C0C4
:1006E000042AFAD203E011F8013B00F8013B521E44
:1006F000F9D27047D2B201E000F8012B491EFBD2BB
:1007000070470022F6E710B513460A46044619461C
:10071000FFF7F0FF204610BD10B5044604E00B784B
:1007200000F8013B03B1491C521EF8D2204610BD0F
:10073000421C10F8011B0029FBD1801A704730B50C
:1007400004460020034600E05B1C934203D2E05CB9
:10075000CD5C401BF8D030BD202A04DB203A00FAE3
:1007600002F1002070479140C2F1200320FA03F308
:10077000194390407047202A04DB203A21FA02F006
:100780000021704721FA02F3D040C2F120029140CB
:100790000843194670470000064C074D06E0E06824
:1007A00040F0010394E8070098471034AC42F6D3B8
:1007B000FFF72AFD44CE000064CE000030B58C184F
:1007C00010F8012B12F00F0301D110F8013B1209B0
:1007D00006D110F8012B03E010F8015B01F8015B72
:1007E0005B1EF9D101E001F8013B521EFBD1A14291
:1007F000E6D3002030BD00002DE9F04F00268FB079
:10080000DFF8B081B14602964FF480750124374677
:100810000396284608F04CFD38B1D8F8040320426E
:1008200003D0284608F03AFD26432D1D64007F1CA6
:10083000ADB2082FEDD34FF4BE74204608F038FD5A
:1008400048B1204608F02AFD46F0004602AA0221DF
:10085000002008F0E9FC584C16F0FF0F15D00127D6
:10086000002537420DD008EB8501D1F81005D1F8ED
:100870001015C0F3052054F82520C1F3014102B141
:1008800090477F006D1C082DEBD3002E7DDA0020F1
:10089000CDF82890411E0DF1080B08AACDF82C9038
:1008A00042F82010401C91460228F9D300252E461C
:1008B000A01910F8607F90F9000027F0C008401CD4
:1008C00049D008A9404606F08FFA88B34FEA971A34
:1008D000404602F085FF54F820701FB1BAF1030FB3
:1008E00003D00FE0BAF1030F35D10AA84FEAD802BE
:1008F00008F00703815C4FF0010C0CFA03FC41EA9D
:100900000C01815406A8CDF8188008F0BFFB0699A9
:1009100000EB8100D0F8000702A9C0F30140069067
:10092000404606F061FA0028069802D0022802D05C
:1009300011E003280FD1BAF1030F08D1069802285D
:1009400032D00221404608F054FB6D1CEDB217B1C5
:1009500051464046B847761C042EA9D3002D20D01E
:1009600004AA0221002008F05FFC00205A4604A9D6
:1009700052F8206051F82030B34217D000200AAE60
:100980004FEA090351F8207000E00AE042F82070B5
:1009900056F8207043F82070401C0228F2D3002D36
:1009A00084D10FB0BDE8F08F0321CBE7401C0228B3
:1009B000DED3F6E700600040382102201CB58146F6
:1009C00008F004FF08F054FD0028FBD130484D46E4
:1009D0000768304E012430A13088D9F8182004EB84
:1009E000004008F031FED5E90201CDE90001308870
:1009F000D5E9002304EB00402DA108F03DFEE86995
:100A00000090D5E90423308837A104EB004008F0BA
:100A10002AFE1F48001D0068800705D530883C4924
:100A200004EB004008F00CFEDFF8E880002500BF72
:100A300004FA05F0384208D058F825202AB1308849
:100A400035A104EB004008F0FFFD6D1C1A2DEFD31B
:100A5000380608D50E480C300268308831A104EB06
:100A6000004008F0F1FD380408D50948103002684C
:100A7000308834A104EB004008F0E6FD0448C8309B
:100A80000068C00700D000BE484600F069F80000CA
:100A900028ED00E0F801002048415244204641552D
:100AA0004C54206174203078253038580000000004
:100AB000202052303A2020307825303858202052DB
:100AC000313A2020307825303858202052323A20D0
:100AD00020307825303858202052333A2020307882
:100AE000253038580000000020205231323A2030A2
:100AF000782530385820204C523A20203078253044
:100B0000385820205053523A203078253038580039
:100B10001CC40000D000002043617573653A202595
:100B2000732E00004D656D4D616E616765204661F5
:100B3000756C7420416464726573733A2030782553
:100B400030385800427573204661756C74204164DA
:100B500064726573733A203078253038580000008D
:100B6000BFF34F8F05480168054A01F4E061114366
:100B70000160BFF34F8F00BFFDE700000CED00E008
:100B80000400FA0500F01F02012191404009800095
:100B900000F1E020C0F88012704700F01F02012130
:100BA00091404009800000F1E020C0F8001170473A
:100BB00000F01F02012191404009800000F1E02077
:100BC000C0F8001270474907090E002806DA00F045
:100BD0000F0000F1E02080F8141D704700F1E020C4
:100BE00080F80014704710B506F022FBBDE81040F5
:100BF00006F0E0BC10B50A4C4FF48071204608F0B6
:100C0000CDFE00280AD0074800214171C4F8001128
:100C100002688168BDE810400020104710BD000048
:100C200000900240A021022007480021C0F8401196
:100C3000C0F84411C0F84811C0F84C11C0F80011B8
:100C4000C0F804110AF0B4BA00100140F8B5144815
:100C5000124C05464FF48C7108F0B4FE00281BD0EE
:100C60000026C5F81861D5F818010090206820B951
:100C70000C494FF4267001F055FEA07FFF2801D0EB
:100C800008F0ABFA66772672D4E9002101B004F1CE
:100C90000800BDE8F0401047F8BD0000AC2102207C
:100CA0000030004074C200000AF0D4B930B54FF0F3
:100CB00080500022D0F830110123082902D1D0F849
:100CC000344114B1082909D00BE04FF08041C1F83C
:100CD0000C21C1F8102168490A6005E0D0F83441C0
:100CE00014B1082957D059E064490968644C21605F
:100CF0006249091D0968241D21606049083109689D
:100D0000241D21605D490C310968241D21605B4967
:100D100010310968241D2160584914310968241DC7
:100D20002160564918310968554C203421605349D7
:100D30001C310968241D2160504920310968241D97
:100D400021604E4924310968241D21604B49283116
:100D50000968241D216049492C310968241D21603E
:100D6000464930310968464C4034216043493431AA
:100D70000968241D2160414938310968241D21601A
:100D80003E493C310968241D21603C4940310968D5
:100D9000241D216005E0D0F8344114B1082904D0A5
:100DA00006E0394C3749216005E0D0F8344114B1F0
:100DB000082904D006E0354CFB21216005E0D0F87D
:100DC000344114B1082908D00AE090F8584230485C
:100DD000016864F30301016005E0D0F8344114B107
:100DE000082905D00EE02B494FF40070086002E09E
:100DF000D0F8340130B928480168C90702D06FF033
:100E0000010101602548016841F470010160BFF3F0
:100E10004F8FBFF36F8F4FF01021D1F800020028E1
:100E200003DBD1F80402002822DA1D4C23601D48A0
:100E30000368002BFCD01223C1F800320568002D96
:100E4000FCD0C1F8043201680029FCD0226001689E
:100E50000029FCD0BFF34F8F10487C380168124A3C
:100E600001F4E06111430160BFF34F8F00BFFDE764
:100E70000F490E48086030BD3805004004040010DA
:100E800020C50040488103008C56004018F5004002
:100E9000E40E0040409602400004004088ED00E06F
:100EA00004E5014000E401400400FA050090D0038D
:100EB0009C0100200448017F04480029024901D018
:100EC0000AF0C5BA0AF034BAD0210220002000404E
:100ED0002DE9F05F5448D0F8045300242E464FF01B
:100EE000010913E096FAA6F0B0FA80F7B80000F511
:100EF0008070804608F078FF28B1404608F07CFFFB
:100F000009FA07F0044309FA07F08643002EE9D1F5
:100F100007F00CFB002869D0444AD078F0BBA0024F
:100F200064D5434940F2A978C1F80080081D0368E0
:100F300013F0FF0C02D0036803EA0C0C40F2AA7A0B
:100F4000C1F800A0036813F0FF0301D00668334026
:100F500040F2AB7BC1F800B0066816F0FF0601D086
:100F600007683E4040F2AC770F60076817EA0C074D
:100F700009D0D2F810C04CEA070CC2F810C0C1F872
:100F800000800760076840F2AD770F6007681F4078
:100F900009D0136943EA0743136100E026E0C1F872
:100FA00000A00760036840F2AE730B600368334033
:100FB0000BD0DE0701D044F40004DE0601D544F076
:100FC0000104C1F800B003600068106930F001113D
:100FD00002D005F080710C4310F0011F06D06905A6
:100FE00004D520F0011044F480641061C4F3C056AD
:100FF00024F400044F46DFF83C8009E094FAA4F0A2
:10100000B0FA80F558F82500804707FA05F08443C8
:10101000002CF3D10AF0C6FB002E03D0BDE8F05F30
:1010200003F01CBEBDE8F09F00700240900000205D
:1010300000780240D4BD00000FB41CB50A46521E11
:10104000CDE9000207A9054B6A46069800F018F89A
:10105000009A002111701CBC5DF814FBE314000021
:1010600002E008C8121F08C1002AFAD17047704771
:10107000002001E001C1121F002AFBD170470000CF
:101080002DE9FF4F8DB00F460546002606E02528C6
:101090000BD0DDE90F1290476D1C761C28780028D4
:1010A000F5D111B03046BDE8F08F0024A246A1462C
:1010B0000122EC4900E0044315F8013F203B02FA0D
:1010C00003F00842F7D128782A2810D06FF02F02B9
:1010D0002878A0F13001092914D80AEB8A0102EB23
:1010E000410144F0020400EB010A6D1CF0E701CF5E
:1010F0005FEA000A03D544F40054CAF1000A44F040
:1011000002046D1C28782E2817D115F8010F44F021
:1011100004042A280ED06FF02F022878A0F13001A5
:1011200009290AD809EB890102EB410100EB010909
:101130006D1CF2E757F8049B6D1C28786C280FD0C3
:1011400006DC4C2817D068280DD06A2814D104E09A
:10115000742810D07A280FD10DE044F400140AE06E
:1011600044F4801401E044F440146978814202D1CF
:1011700004F580146D1C6D1C2A786E2A1FD00CDCBF
:10118000632A31D004DC002A8BD0582A11D1A3E085
:10119000642A68D0692A0CD165E0732A2ED004DC59
:1011A0006F2A73D0702A04D19BE0752A6FD0782AF9
:1011B0006ED01046DDE90F129047761C50E1C4F363
:1011C0000250022806D0032809D0042801CF09D0F4
:1011D000066045E101CFF117C0E9006140E101CFB0
:1011E00006803DE106703BE117F8040B8DF8000026
:1011F00000208DF80100EB46012003E057F804BB06
:101200004FF0FF3061074FF0000102D40DE008F10C
:101210000101884649450FDA8045F8DB1BF80810C4
:101220000029F4D108E008F1010188468142FADB87
:101230001BF808100029F6D1DDE90F23AAEB0800FE
:101240008146214600F036F9304400EB080604E000
:10125000DDE90F121BF8010B9047B8F10108F7D236
:1012600021464846F7E00A21C4F302534FF0000B31
:101270000891022B04D001CFC117032B09D00AE03B
:10128000FF1D27F00707F7E8020108E032E01FE042
:1012900020E000B2C117042B01D140B2C117031ED8
:1012A00071F1000307DA4FF0000CD0EB0C006CEB8F
:1012B00001012D2302E0230504D52B238DF82430D2
:1012C000012303E0E30701D02023F7E7984658E025
:1012D0000A2110E010210EE010204FF0000B0890C2
:1012E0000CE010214FF0000B44F004044FF008090B
:1012F000089103E008214FF0000B0891C4F302535A
:10130000022B04D001CF0021032B06D006E0FF1DE5
:1013100027F00707F7E8020103E080B2042B00D1B1
:10132000C0B24FF0000823072BD5702A07D0DDF894
:1013300020C08CF0100C5CEA0B0C05D00EE04023B2
:101340008DF82430012308E050EA010306D0302351
:101350008DF824308DF8252002239846DDF820C032
:101360008CF0080C5CEA0B0C0BD150EA010301D1A4
:10137000630706D530238DF824304FF00108A9F11A
:101380000109582A04D038A20B9208AA0A920BE04D
:101390003AA2F9E75B46089AFFF752F90B9B9B5C70
:1013A0000A9A521E0A92137050EA0102F2D10A9868
:1013B000ADEB000000F1200B600702D524F480346F
:1013C00001E04FF00109D94502DDA9EB0B0000E077
:1013D000002000EB0B0141440890AAEB010AE00356
:1013E00006D4DDE90F232146504600F063F8064499
:1013F0004FF0000908E009A911F80900DDE90F1212
:10140000904709F10109761CC145F4DBE0030CD5D6
:10141000DDE90F232146504600F04CF8064404E075
:10142000DDE90F1230209047761C0899481E08907D
:101430000029F5DC08E00A980A990078491C0A910D
:10144000DDE90F129047761CBBF10001ABF1010BF7
:10145000F1DC21465046DDE90F2300F019F806447F
:101460006D1C1BE609280100303132333435363724
:1014700038396162636465660000000030313233E0
:101480003435363738394142434445460000000080
:101490002DE9F041044600251E461746880404D471
:1014A00005E039462020B0476D1C641EF9D528465A
:1014B000BDE8F0812DE9F041044600251E46904626
:1014C000C80301D5302700E02027880404D505E0B3
:1014D00041463846B0476D1C641EF9D52846BDE824
:1014E000F0814A68002A06D00A68531C0B6010700D
:1014F0004868401E48607047022001F037BE000077
:1015000070B50A4D686818B909A1902001F00AFA6F
:10151000002406E06868012110F8340005F0FCFEA4
:10152000641C28788442F5D3002070BDA4000020FC
:101530002E2E5C2E2E5C2E2E5C2E2E5C2E2E5C2EE5
:101540002E5C636F6D706F6E656E74735C6C696238
:101550007261726965735C627574746F6E5C6170E0
:10156000705F627574746F6E2E630000F8B5154677
:101570000C460646052A01D20720F8BD05F0D0FF2B
:1015800018B905F09FFF0028F7D1104900204E60E0
:101590000C70C1E902500E4D08610DE006EBC4006D
:1015A0006968009181788DF801100078094A6946D0
:1015B00005F012FF0028E0D1641EE4B2EED2BDE8CF
:1015C000F840054A0021024800F0B2B8A40000200B
:1015D00074BE000049600000854000002DE9FC4118
:1015E00014468846074608F0F1F800BF07F040FFB0
:1015F0000028FBD16FF48040194D38184FF00106D8
:101600001ED0012813D02888424606EB004015A1C1
:1016100008F01AF819480068C00700D000BE22463A
:1016200002B041463846BDE8F04100F04FB8288886
:10163000238806EB004012A1626808F00CF8E9E785
:10164000A06808F0E1F9034621886068CDE900014F
:10165000288812A106EB0040A26808F00DF8D9E72F
:1016600010020020554E4B4E4F574E204641554CD0
:10167000542061742030782530385800F0ED00E0B7
:10168000415353455254494F4E204641494C4544DD
:101690002061742025733A25750000004552524F91
:1016A00052202575205B25735D2061742025733AD7
:1016B000257500000EB5ADF80010CDE901206A4691
:1016C000002144F20100FFF789FF0EBD08B5012398
:1016D0008DF800309DF80030144B186059609A6006
:1016E0006FF48041401807D001280FD1DA60D86824
:1016F00000889861D86807E01A61186980685861A5
:1017000018690088986118694068D8611868586835
:101710009868D868186958699869D86972B600BF1E
:101720009DF800000028FBD162B608BD48240220C5
:10173000074B9B7823B12AB120B10068037C1BB111
:1017400008207047072070474174426100207047AD
:101750006824022070B508F037FE104800240B21E1
:10176000047044700E4D817014206C602C706C708D
:10177000FFF708FA07211420FFF725FA1420FFF7D6
:101780000CFA0848046007211120FFF71CFA0548ED
:10179000001F0068A860002070BD000068240220BF
:1017A000B8000020081501402DE9F843DFF87090DB
:1017B00099F802305BB350B3052902D20720BDE887
:1017C000F88343691BB3437C012B22D000270446D6
:1017D000002588461646284600F0E2FF68460AF0D3
:1017E00099F9C0B1012101700E4944600968C0E94E
:1017F0000218C0E904769DF8000089F80100002075
:1018000000F0FCFF1420FFF7D3F92846D7E70820A3
:10181000D5E70F46DBE70425002000F0EFFFF4E7F3
:1018200068240220041501400649897839B130B195
:10183000416921B100210174022109F099BC0820FD
:10184000704700006824022070B5054606484468C9
:1018500007E02946204602F003F8204600F080F910
:101860000446002CF5D170BD4000002070B50A4838
:1018700045680EE02E7A002405E02146284600F057
:1018800021FE641CE4B2B442F7D3284600F068F9A4
:101890000546002DEED170BD400000202DE9F0413D
:1018A0000E4840F29C57456814E02E7A00240BE065
:1018B00000222146284600F069FE18B108A13846EA
:1018C00001F030F8641CE4B2B442F1D3284600F0D1
:1018D00047F90546002DE8D1BDE8F0814000002021
:1018E0002E2E5C2E2E5C2E2E5C2E2E5C2E2E5C2E32
:1018F0002E5C636F6D706F6E656E74735C6C696285
:101900007261726965735C757362645C6170705F4B
:10191000757362642E63000070B50646094806259B
:1019200044680AE03146204601F09AFF0546062841
:1019300005D1204600F014F90446002CF2D12846C7
:1019400070BD000040000020F8B5040004D138A1AB
:101950004FF4787000F0E6FF606820B934A140F2DF
:10196000E13000F0DFFF6068006820B930A140F28C
:10197000E23000F0D7FF2068006820B12CA140F2CF
:10198000E33000F0CFFF06F069FF10B906F070FFFA
:1019900020B927A140F2E73000F0C4FF00250FE096
:1019A000002705E0007800F0B3FB08B11120F8BD76
:1019B0003946781CC7B2304600F082F80028F1D1D1
:1019C0002946681CC5B2204600F0A2F80600E7D1FF
:1019D00000250DE0002703E00078214600F09EFB83
:1019E0003946781CC7B2304600F06AF80028F3D1B7
:1019F0002946681CC5B2204600F08AF80600E9D1E5
:101A0000194D40F20D4607E0A04203D108A130462F
:101A100000F088FF2868056828680028F4D113487A
:101A20002C60694640690090204601F019FFF8BD1E
:101A30002E2E5C2E2E5C2E2E5C2E2E5C2E2E5C2EE0
:101A40002E5C636F6D706F6E656E74735C6C696233
:101A50007261726965735C757362645C6170705FFA
:101A6000757362642E6300004400002090BC000087
:101A70002DE9F0410E461D461746194601F028FF94
:101A8000020014D0002421462B680EE0101990F8B3
:101A900001C0B44507D18F4203D101782960BDE868
:101AA000F081491CC9B200780444A342EED800205A
:101AB000F5E7000001484068704700004000002042
:101AC00070B50D46040004D106494FF4827000F051
:101AD00029FF6078A84201D8002070BDA07820447A
:101AE000284470BDA8C1000070B50D46040004D1A3
:101AF00006494FF4827000F015FF6078A84201D8C3
:101B0000002070BDA0782044284470BDA8C100000A
:101B100070B50D46040003D10649D12000F002FF44
:101B2000207AA84201D8002070BD05EB4500093499
:101B3000204470BDA8C1000070B50D46040003D15B
:101B40000649D12000F0EEFE207AA84201D80020FC
:101B500070BD05EB45000934204470BDA8C10000EC
:101B600010B5040004D1044940F2D91000F0DAFEA7
:101B70002068006810BD00000824000010B50400B3
:101B800004D104A140F2D91000F0CCFE2068006816
:101B900010BD00002E2E5C2E2E5C2E2E5C2E2E5C98
:101BA0002E2E5C2E2E5C636F6D706F6E656E74737F
:101BB0005C6C69627261726965735C757362645CA6
:101BC0006170705F757362642E680000024840782F
:101BD000002800D0012070474000002070B50400AC
:101BE00004D11CA140F2754000F09CFE606820B951
:101BF00018A140F2764000F095FE6068006820B9B8
:101C000014A140F2774000F08DFE06F027FE10B9D7
:101C100006F02EFE20B90FA140F2794000F082FEBE
:101C20002068406820B10BA140F27C4000F07AFEB1
:101C3000164D40F2834608E0A04203D105A130468C
:101C400000F070FE286805682D1D28680028F3D173
:101C50002C6070BD2E2E5C2E2E5C2E2E5C2E2E5CEB
:101C60002E2E5C2E2E5C636F6D706F6E656E7473BE
:101C70005C6C69627261726965735C757362645CE5
:101C80006170705F757362642E630000480000200D
:101C900010B5040004D111A140F28E4000F042FEC4
:101CA00006F0DCFD10B906F0E3FD20B90BA14FF4FE
:101CB000926000F037FE17480BE0A14207D121687F
:101CC00049680160206800214160084610BD08682D
:101CD000001D01680029F0D1052010BD2E2E5C2EBC
:101CE0002E5C2E2E5C2E2E5C2E2E5C2E2E5C636FB8
:101CF0006D706F6E656E74735C6C6962726172692F
:101D000065735C757362645C6170705F7573626447
:101D10002E63000048000020F8B50D46464E0146EF
:101D20002A780624307801270B2A61D2DFE802F0F6
:101D300060060A0C602048252D363F00032009F07C
:101D400065FC55E0002453E03B480021001D6A4635
:101D5000FEF7C7FA28B139480760BFF36F8FBFF3AA
:101D60004F8F30780028EDD135A140F29F3009E047
:101D7000084600F0A1F804463AE00028E2D030A17D
:101D800040F2AA3000F0CEFDDCE7012804D02CA1FF
:101D90004FF46C7000F0C6FD002005E03748006885
:101DA00010F0010F0AD0022009F030FCCAE7022827
:101DB00004D223A14FF4717000F0B4FD0120F3E7C9
:101DC000A87830B1802804D01DA140F2CD3000F0B9
:101DD000A9FD1949E87808310A6832B100230B607F
:101DE00049689047040005D000E00E2406F09AFDF3
:101DF0002046F8BD09F002FC10B106F056FDF7E7E9
:101E0000A8780028F4D11E480078082810D11C4872
:101E1000001D007800070BD119480830007810F039
:101E2000F00F05D116480C30007810F0F00FDFD01D
:101E300006F038FDDCE70000540000205C70024032
:101E40002E2E5C2E2E5C2E2E5C2E2E5C2E2E5C2ECC
:101E50002E5C636F6D706F6E656E74735C6C69621F
:101E60007261726965735C757362645C6170705FE6
:101E7000757362645F636F72652E6300380400409F
:101E8000E00F00F0024A0146D2E9000210470000CC
:101E90007020022070B50C46054606F0FDFCA842F5
:101EA00001D0102070BD0348D4E90012C0E902122D
:101EB000002070BD540000207FB5054605208DF838
:101EC000000006240DF1010006F004FD9DF801005C
:101ED00010F01F0006D001280FD0022826D00328BA
:101EE00033D106E06946284608F0B6FB04460628CA
:101EF0002AD16846FFF710FD25E09DF8050003A9EB
:101F000000F020FB050008D06A469DF80C1000F098
:101F1000D5FA0446062802D016E0102415E06A46D9
:101F20009DF80C10284608F0FBFC0CE09DF805001D
:101F3000010705D0694600F07BF80446062803D166
:101F4000684608F02BFC044624B106F0EBFC04B014
:101F5000204670BD09F052FB10B106F0A6FCF6E772
:101F600006F0A0FCF3E70000FEB5C08814460E465C
:101F7000A04201D2054600E01546844207D28020E7
:101F800006F058F9B4FBF0F100FB114068B10020F5
:101F90000096CDE90150002000F002FC6946802047
:101FA00000F0EEF8040002D006E00120F0E7054959
:101FB0008020FFF76FFF0446002000F01FFC204642
:101FC000FEBD0000C0BC000008B140210160014816
:101FD00070470000D420022010B506F051FC20B15B
:101FE00004A140F2B32000F09DFCBDE8104005F0D4
:101FF00097BF00002E2E5C2E2E5C2E2E5C2E2E5CAB
:102000002E2E5C2E2E5C636F6D706F6E656E74731A
:102010005C6C69627261726965735C757362645C41
:102020006170705F757362642E63000005F0BABF63
:1020300010B50C46010600F00F02092A08D200F084
:1020400009F8006820B12146BDE8104001F008BC45
:10205000102010BD10B5010600F00F0408D5092CA2
:1020600004D309A14FF4937000F05CFC144808E01D
:10207000092C04D304A14FF4967000F053FC1048CF
:10208000483000EBC40010BD2E2E5C2E2E5C2E2E90
:102090005C2E2E5C2E2E5C2E2E5C636F6D706F6E30
:1020A000656E74735C6C69627261726965735C758C
:1020B0007362645C6170705F757362642E630000AC
:1020C0002820022010B5044600F00F00082805D291
:1020D000204605F0F7FF204606F020F92046BDE82F
:1020E000104005F0F3BF000070B50C46054606F041
:1020F0003DF818B105480078022801D0082070BDCD
:1021000021462846BDE8704006F038B8400000205F
:1021100010B5FFF79FFF006810BD000070B50D46B9
:102120000646FFF797FF0446056015B1686800682A
:1021300008E00EB1802E04D103A14FF4A87000F086
:10214000F1FB0020606070BD2E2E5C2E2E5C2E2ECA
:102150005C2E2E5C2E2E5C2E2E5C636F6D706F6E6F
:10216000656E74735C6C69627261726965735C75CB
:102170007362645C6170705F757362642E630000EB
:1021800070B50C46054605F0F1FF18B1054800781A
:10219000022801D0082070BD21462846BDE87040C5
:1021A00006F024B94000002038B50B4D04466946BE
:1021B000E86904F0DFFC00280CD021680160694662
:1021C000E86904F0F8FC014604480268002A01D0DE
:1021D0002046904738BD000090BC0000B820022087
:1021E00070B5794C0546606820B978A14FF43C7011
:1021F00000F098FB01F02CFF072804D273A140F2F5
:10220000F72000F08FFB2878062872D005DC12D268
:10221000DFE800F0667FA0838DA9822822D006DC4B
:102220000B2867D0802838D0812804D10AE0832881
:102230003ED0842845D0BDE8704064A140F2C5304E
:1022400000F070BB6F48FFF71DFE6E48FFF7FCFA09
:10225000092009F057FC012006F068FBFFF706FB98
:10226000012073E0FFF702FB06F0ACFB002008F052
:1022700057FE6448401CFFF7E7FA6248401CFFF72E
:1022800001FE0A2009F03EFC207800F06FFA0028D9
:102290003ED0BDE8704004F0ADBE2078052803D0E4
:1022A000062803D0072833D102204FE008204DE054
:1022B000207803282CD106F0CFFB002828D004205A
:1022C00044E02078032805D106F0C6FB10B10420B5
:1022D00008F026FE06F078FC002819D0062035E02C
:1022E00068886080002009F00DFCA46840F2F516B3
:1022F0000CE045E03CE02946204601F0B1FA1CB96B
:1023000041A1304600F00EFB20684468002CF2D159
:1023100070BDFFF7ABFA022000E0052008F000FED8
:10232000032009F0EFFB2846FFF7ACFD23E0032074
:1023300009F0E8FB3348801CFFF7A4FD3148801CFE
:10234000FFF782FA20780628AED10720BDE870405A
:1023500008F0E6BD032008F0E3FD022009F0D2FBFF
:102360002846FFF771FA2846BDE87040FFF78ABD9E
:102370000B2009F0C7FB2846BDE87040FFF764BAA0
:10238000A878FFF767FE0446006820B90FA14FF454
:102390006D7000F0C7FA606820B90CA140F2B5304A
:1023A00000F0C0FAD4E90002294690470028AFD0D7
:1023B000A8780107ACD000F00F010829A8D2BDE829
:1023C000704005F089BF0000400000202E2E5C2EDA
:1023D0002E5C2E2E5C2E2E5C2E2E5C2E2E5C636FC1
:1023E0006D706F6E656E74735C6C69627261726938
:1023F00065735C757362645C6170705F7573626451
:102400002E630000A1BC00002E2E5C2E2E5C2E2E12
:102410005C2E2E5C2E2E5C2E2E5C636F6D706F6EAC
:10242000656E74735C6C69627261726965735C7508
:102430007362645C6170705F757362642E68000023
:10244000FFF7B2BE38B5074C6946E06904F0A8FB57
:10245000002806D0FFF7C4FE6946E06904F095FB4A
:10246000012038BD90BC000010B520B104A140F29D
:102470009B1000F057FABDE810400F48FFF794BEDC
:102480002E2E5C2E2E5C2E2E5C2E2E5C2E2E5C2E86
:102490002E5C636F6D706F6E656E74735C6C6962D9
:1024A0007261726965735C757362645C6170705FA0
:1024B000757362642E63000090BC0000114601F049
:1024C000CFB9000070B5044640680D46C2680AB135
:1024D00020469047207AA84204D20CA140F2332033
:1024E00000F020FA29462046FFF712FB0546467801
:1024F000002408E021462846FFF7E2FA007805F0BC
:10250000B1FD641CE4B2B442F4D370BD2E2E5C2E37
:102510002E5C2E2E5C2E2E5C2E2E5C2E2E5C636F7F
:102520006D706F6E656E74735C6C696272617269F6
:1025300065735C757362645C6170705F757362640F
:102540002E6300002DE9F04180460F480E46456895
:1025500016E02F7A00240DE021462846FFF7D8FA2E
:102560000178414504D106B134702846BDE8F081B8
:10257000641CE4B2BC42EFD32846FFF7F1FA0546EB
:10258000002DE6D10020F1E74000002070B50446A0
:10259000406815460E4683681BB1204698470628BA
:1025A00009D1207AB04204D20E494FF4057000F0F0
:1025B000B9F90DB1072070BD31462046FFF7A8FAE2
:1025C00005464678002408E021462846FFF778FAB9
:1025D0000078FFF777FD641CE4B2B442F4D3002026
:1025E00070BD00000C250000034600205A681269E7
:1025F000002A01D018461047704700002DE9F84323
:10260000274D0446042384222449E86904F09FFAF4
:1026100010B10320BDE8F88304F08AFD214806F0DC
:10262000D5F80028F6D12048B4B194E80E00143053
:1026300080E80E001D4900200870486088601A4834
:1026400048217C38FEF75DF8174848213438FEF7FA
:1026500058F8174E002411E005F120010EC9E6E7F5
:10266000002703E000783146FFF758FD3946781C13
:10267000C7B24046FFF724FA0028F3D12146641C74
:10268000E4B23046FFF744FA5FEA0008E8D1686830
:1026900000906946304601F0E3F8BBE7A41F022032
:1026A00090BC000041240000A42002204000002033
:1026B00000BD000001484088704700004000002035
:1026C00010B506F0CBF820B909A140F2BA2000F00D
:1026D00029F915480168C1F3400121B1BDE8104056
:1026E0001248FFF761BD016811F0010FF2D110BD72
:1026F0002E2E5C2E2E5C2E2E5C2E2E5C2E2E5C2E14
:102700002E5C636F6D706F6E656E74735C6C696266
:102710007261726965735C757362645C6170705F2D
:10272000757362642E6300003804004095BC00009D
:10273000034808B5806800906846FFF735FD08BD7E
:1027400090BC0000074918B1052803D3002070474A
:1027500008687047044A105C0028FAD051F820003D
:10276000704700006C0000208CBD0000092808D2D2
:10277000DFE800F00707050707050505050001204C
:10278000704700207047092808D2DFE800F00707EB
:10279000050707070707050001207047002070475D
:1027A00010B507F05BFC012803D004A11D2000F048
:1027B000B9F8BDE8104000F04FB800002E2E5C2E96
:1027C0002E5C2E2E5C2E2E5C2E2E5C2E2E5C636FCD
:1027D0006D706F6E656E74735C6C69627261726944
:1027E00065735C7574696C5C6170705F7574696C3D
:1027F0005F706C6174666F726D2E630010B507F0C8
:102800002DFC012803D004A12B2000F08BF8BDE89B
:10281000104000F029B800002E2E5C2E2E5C2E2ECB
:102820005C2E2E5C2E2E5C2E2E5C636F6D706F6E98
:10283000656E74735C6C69627261726965735C75F4
:1028400074696C5C6170705F7574696C5F706C61E9
:1028500074666F726D2E630072B602480168491C7F
:1028600001607047CC00002003490868401E0860E2
:1028700000D162B670470000CC00002070B505465C
:1028800008680C46411C04D006F0B1FC206806F034
:10289000A6FB6068411C02D0002106F097FB287956
:1028A0001F4901EB40102968007F0028A069C1F88A
:1028B000240523D0607D227D29681043C1F86C0572
:1028C000D4E900122868C0F80C15C0F8142522E0DD
:1028D000A068411C02D0002106F078FBE068411C92
:1028E00004D006F084FCE06806F079FBD4E902121B
:1028F0002868C0F80825C0F8101570BD607D217DDE
:102900002A680843C2F86C05D4E900122868C0F8A8
:102910001425C0F80C15207D0128D9D070BD000009
:10292000D02102201CB56A46ADF8000001910021BB
:1029300044F20200FEF752FE1CBD102802D31038EC
:10294000C0B2704740F080007047000010B504002E
:1029500003D103499C20FFF7E5FFA06910BD0000EB
:102960005CC80000FEB516460D46040003D10C49B4
:102970001220FFF7D7FFA0692169416061690160FA
:10298000C0E902564DB10021009101910291C16848
:10299000029182686946204690470020FEBD0000F3
:1029A0005CC8000019B1012906D0062070470AB1A1
:1029B000002010700020704712B1001D1060F9E770
:1029C00007207047FEB50D46060003D10F49482089
:1029D000FFF7A8FF1DB90D494920FFF7A3FFB46910
:1029E000686861684143A868FDF78BFEA06858B12C
:1029F0000748C16840690091CDE90150E068029044
:102A0000A2686946304690470020FEBD5CC80000C1
:102A1000C0BE00003EB5050003D10B492F20FFF7D3
:102A200081FFAC69A06848B1084A07CA8DE8070071
:102A3000E0680290A268694628469047002020601E
:102A40006060A060E0603EBD5CC80000C0BE0000E9
:102A50003EB50D46040003D10C496220FFF762FF2A
:102A60001DB90A496320FFF75DFFA069816859B16C
:102A7000074A9169126ACDE900150292C168029174
:102A8000826869462046904700203EBD5CC8000031
:102A9000C0BE000070B50E4D0E7A0C4628788642F6
:102AA00003D30CA11920FFF73DFF207828B101289E
:102AB00003D0022801D0032808D16A6806EB46003B
:102AC00002EB8000617801720021817270BD00000C
:102AD000300000202E2E5C2E2E5C2E2E5C2E2E5CC6
:102AE0002E2E5C2E2E5C65787465726E616C5C6651
:102AF000617466735C706F72745C6469736B696F28
:102B00005F626C6B6465762E630000002DE9FE4FFA
:102B1000846A0E468346A0684FF48052B2FBF0F1FF
:102B20003368B2FBF0F2B3FBF1F501FB1531571A34
:102B300000FB01F57168B94200D20F4600FB07F8AF
:102B4000D6F808905FEA887004D038494FF4E570F1
:102B5000FFF7E8FEDBF8281048464A194FF0000A54
:102B60004FEA98034FF0010912F13802D0F80080C3
:102B7000D2F800C0C44510D0BCF1FF3F01D04FF0E7
:102B8000010AD1F808C0B5FBFCF809FA08FCD1F835
:102B900034804CEA080CC1F834C050F804CB42F839
:102BA00004CB5B1E05F10405E0D1BAF1000F01D0A2
:102BB00084F82E907068C01B7060306838443060B4
:102BC000B068A16807FB0100B06094F82E00B8B1AE
:102BD000A0684FF48051B1FBF0F109FA01F0616B8C
:102BE000401E0843606310B194F82D0018B1E068EE
:102BF00008B1706830B15846BDE8FE4F00F0FEB92C
:102C0000606BF0E70A49C86A496B009004F1140050
:102C1000CDE901012069029084F80090E2686946DC
:102C2000584690470020BDE8FE8F0000ACC8000069
:102C3000FCBE000010B5040004D1044940F2BD20E0
:102C4000FFF770FEA06A001D10BD0000ACC80000B8
:102C50002DE9F04786B092468946040003D13E49EB
:102C6000F920FFF75FFE2169A56A04F1180011F051
:102C7000FF0F4ED14FF48056B6FBF1F201FB12610B
:102C8000F1BB364F396819B1112006B0BDE8F087A5
:102C90002246334904F02CFE0028F6D131490022A7
:102CA000D1E90001CDE900011146684604F032FD8A
:102CB0000028EAD199208DF80000002211466846CC
:102CC00004F028FD0028E0D180469F20CDF8148034
:102CD0008DF8000004208DF8010005AA41466846E1
:102CE00004F018FD0028D0D105A806F05DFE38B12B
:102CF0008168B1420DD121694068B0FBF1F000E07C
:102D000007E030B1B6FBF1F2B0FBF2F302FB1302C5
:102D10000AB10620B9E7C5E901015FEA0900C5E982
:102D2000030A4FF0010129704FF0FF312963217D23
:102D300001F0010185F82D103C600BD0CDF8088022
:102D4000CDF80C80CDF8108028690490EA6802A9BB
:102D500020469047002098E7ACC8000038010020CA
:102D600061A10000FCBE000070B514460E460500CF
:102D700004D115494FF42170FFF7D4FD2846AD6A00
:102D80001EB1012E1AD0062070BD2978012901D06C
:102D9000112070BD95F82D1059B1696B49B100F043
:102DA0002DF90028F5D1012104B1217085F82C10EE
:102DB00070BD0CB100202070002070BD14B1001D4A
:102DC0002060F9E7072070BDACC80000F0B4816A4C
:102DD0004C698B680D6B04FB03F0070B88692618A0
:102DE00006FB03F24FEA123CBD4239D3654537D8A2
:102DF0004FF48052BD4213D1B2FBF3F5B4FBF5F6AC
:102E0000B2FBF3F205FB1645541B5D43A04200D212
:102E1000044603FB04F24B19C86903F1380114E0BE
:102E2000654515D1B2FBF3F7B2FBF3F2B6FBF7FC45
:102E30006A4307FB1C66141B5C43B04200D2064683
:102E4000C86903FB06F220443831F0BCFDF740BCF2
:102E5000B2FBF3F06843001B5843CB691844F3E717
:102E6000F0BC70472DE9F0410E46050004D11E4923
:102E70004FF4CB70FFF756FD26B91B4940F297106F
:102E8000FFF750FD1948AC6A0068A84202D12078CB
:102E9000012802D01120BDE8F081D6E90110326886
:102EA0002262C4E90910C8CE04F1140888E8C800F9
:102EB000022304F120062370A3685A43594304F007
:102EC00071FD070002D0012020700AE00020B060F0
:102ED0007060E06828B92078012802D0284608F000
:102EE0004AFE3846D7E70000ACC800003801002091
:102EF000FEB5050004D1134940F26D10FFF712FD35
:102F0000114EAC6A3068A84202D12078012801D065
:102F10001120FEBDE06848B10C4A07CA8DE80700E1
:102F200020690290E268694628469047002525708E
:102F300004F086FD41F238012046FDF7E2FB002057
:102F40003560FEBDACC80000380100201CBF000089
:102F500070B50E46050004D1264940F23F20FFF728
:102F6000E1FC26B923494FF41070FFF7DBFC22483F
:102F7000AC6A0068A84202D12078012801D0112053
:102F800070BD96E8070004F1200304F1140C83E8F7
:102F9000070096E80E008CE80E00A26804F12001FC
:102FA0005043226B000B824203D12846FFF7AEFD4F
:102FB00010E094F82D1019B1284600F01FF809E030
:102FC00003212063217002034FF4805104F1380083
:102FD00004F0E8FC060002D00120207007E0E06861
:102FE00028B92078012802D0284608F0C4FD3046D0
:102FF00070BD0000ACC800003801002030B4836A06
:1030000093F82E20196B42B1090304201870002098
:1030100083F82E0030BC04F02BBC586B90FAA0F063
:10302000B0FA80F4986800FB04F202EB013203F17D
:10303000380104FB001005211970996830BC04F0B8
:103040003DBD000010B5040003D103499620FFF7F1
:1030500069FCE06910BD0000F8C80000FEB5164626
:103060000D46040003D10D491020FFF75BFCE06919
:10307000216941602269A169B1FBF2F10160C0E9F7
:1030800002564DB10021009101910291C168029157
:1030900082686946204690470020FEBDF8C80000BF
:1030A00019B1012906D0062070470AB1002010701E
:1030B0000020704712B1001D1060F9E7072070472B
:1030C000022200F001B80000FEB516460C460500CD
:1030D00003D114494620FFF725FC1CB911494720AC
:1030E000FFF720FCEF69686921687A68022E01FB0E
:1030F000020014D0A16863685A43FDF7E9FAB86882
:1031000058B10020009002908DF800600194F8689A
:103110000290BA686946284690470020FEBD0146E5
:10312000A068E8E7F8C800003EB5050003D10B49E8
:103130002D20FFF7F7FBEC69A06848B1084A07CAE1
:103140008DE80700E0680290A2686946284690472B
:10315000002020606060A060E0603EBDF8C8000014
:103160004CBF00000322FFF7AFBF000038B5044694
:10317000042803D30BA13620FFF7D4FB1548005DCC
:103180000090684605F04EFFD0F80425009B012111
:10319000994021EA0203C0F808351140C0F80C1527
:1031A00038BD00002E2E5C2E2E5C2E2E5C2E2E5C4A
:1031B0002E2E5C2E2E5C636F6D706F6E656E747359
:1031C0005C626F617264735C626F617264732E63C0
:1031D0000000000040BC000010B50446042803D3E2
:1031E00005A11E20FFF79EFB0F480121005DBDE8F1
:1031F000104006F006B800002E2E5C2E2E5C2E2EFF
:103200005C2E2E5C2E2E5C2E2E5C636F6D706F6EAE
:10321000656E74735C626F617264735C626F61721D
:1032200064732E630000000040BC000010B504462B
:10323000042803D305A11820FFF774FB0F480021D1
:10324000005DBDE8104005F0DCBF00002E2E5C2EB6
:103250002E5C2E2E5C2E2E5C2E2E5C2E2E5C636F32
:103260006D706F6E656E74735C626F617264735CB7
:10327000626F617264732E630000000040BC000046
:1032800038B50446042803D30AA11120FFF74AFBEE
:103290001448005D0090684605F0C4FED0F80405AF
:1032A0000099C84010F0010000D0012080F001001A
:1032B00038BD00002E2E5C2E2E5C2E2E5C2E2E5C39
:1032C0002E2E5C2E2E5C636F6D706F6E656E747348
:1032D0005C626F617264735C626F617264732E63AF
:1032E0000000000040BC00007CB50024084E2546CC
:1032F0000122305D009500231146019505F012FE74
:10330000641C042CF4D3BDE87C4000F003B800003A
:1033100040BC000010B500242046FFF75DFF641C90
:10332000042CF9D310BD10B500242046FFF77EFF12
:10333000641C042CF9D310BD10B50246064B4FF0A7
:10334000FF3000215C5C944201D1084610BD491C4D
:103350000429F7D310BD000044BC00002DE9F0475C
:103360000D468146FFF7E8FF0446042836D2DFF811
:1033700074801B481C4EA8F10C0725B3012D0ED0FC
:10338000022D2BD104EB440030444578002D25D08C
:10339000B968002922D02846BDE8F047084704EB69
:1033A0004401755C0E44717849B10E4A4FF40041F6
:1033B000093A8068FEF7F8F908B987F80390B17800
:1033C00008F80410E2E78068FEF72EFA04EB4401E7
:1033D000314418F804008D78A842D7D0BDE8F087B2
:1033E00048BC00002C000020781F022008B50E28E1
:1033F00009D00F280AD0102804D1064804216A46B3
:10340000FCF714FF08BD03480121F8E70148022139
:10341000F5E700001000002070B50023042810D24A
:103420000D4D00EB4004012A02D101290CD00022ED
:10343000094E00EB4000304461B1012906D0022959
:1034400006D00723184670BD0E30C2B22A55F9E7E0
:103450004270F7E78270F5E7781F022070B50646E4
:103460001E480024C0E90161B00720D500250122D3
:1034700011462846FFF7D0FF6D1C0446042D02D2EA
:10348000002CF4D013E094B940F266620421144891
:10349000FEF76CF804000AD1FEF732F8040006D1FA
:1034A0000F48104A0021001FFEF742F90446F007BA
:1034B00001D0FFF719FF74B909480B4A00210C38F5
:1034C000FEF736F9040006D10548084A01210838FC
:1034D000FEF72EF90446204670BD000020000020B3
:1034E00054BC00003137000079620000F91400007C
:1034F0002DE9F05F6A4C054600266078B34618B1A6
:1035000084F801B002F0A0FE664F4FF47A694FF4E0
:10351000C87A4FF00108182D62D2DFE805F0AC0C34
:103520000C31404D62676B746B74BE7D7D7D7D7D1B
:10353000ACAFB2B5BEBE0020FFF7A2FE00284FF030
:10354000000008D0FFF748FE022D02D14FF4E160E1
:1035500008E0484606E0FFF769FE022D01D1C820C9
:1035600000E05046410CC0034FF4FA72801841F15C
:103570000001257052000023FDF762F801462AE0A1
:103580000020FFF77DFE00284FF0000004D0FFF779
:1035900023FE4FF44870E5E7FFF748FEDFE7002021
:1035A000FFF76EFE00284FF0000002D0FFF714FE78
:1035B000CFE7FFF73BFED4E70020FFF761FE0028CE
:1035C0004FF0000002D0FFF707FE01E0FFF72EFEEC
:1035D000257041F69A1100223868FEF7E5F8064694
:1035E00046E00020FFF7C2FD257008E0002051E012
:1035F00025703DE084F801800120FFF7B7FD00222F
:1036000040F6CD41E8E784F801800120FFF7AEFDE8
:1036100000224FF48041DFE77868FEF705F906469F
:10362000D5F1110000D02EB10220FFF7D5FD84F8AE
:1036300002B01DE0012816D980B2C8214843C11745
:10364000C90341EA5041C0034FF4FA72801841F1B6
:10365000000152000023FCF7F3FF014600227868C6
:10366000FEF7A2F806460220FFF7E0FD84F802808C
:103670003046BDE8F09F02F0E7FDB9E702F0E4FD57
:10368000B4E702F0E1FD04E002F0DEFD0020FFF708
:10369000CDFD0120FFF7CAFDAAE7FFF744FEA7E72B
:1036A0002000002048BC00002DE9F041C61C0C465B
:1036B00001270020FFF774F80F4801682160D0E966
:1036C0000012891A82680446511AF51C07E000BFEF
:1036D00002F058FED4E90001401AA168091A491CF9
:1036E0008D42F5D82068304420600020FFF786F82E
:1036F0003846BDE8F08100007426022030B48268AC
:103700000468531C8360A154D0E901128A4202D399
:1037100030BC05F0B1BA30BC70470000034803C8A4
:10372000814201D101207047002070477426022099
:1037300000780221FFF712BE3EB5054603F0DCF922
:1037400003F0D6F80446284601F055F905461F2136
:103750002046FCF7D6FF0849D1E901010094CDE9E4
:10376000010169462846FEF70BFD002802D102211F
:1037700084F82C103EBD000090BE000005494FF0BB
:10378000FF32082841F8202002D3084480F858204E
:103790007047000038210220F0B54FF0FF3512B11C
:1037A0000023082601E008230C260C4C05E000BF8E
:1037B00054F823707F1C04D05B1CB342F8D3284616
:1037C000F0BD26185DB286F8305044F82310002A68
:1037D000F5D1E11881F85800F1E700003821022006
:1037E0000249084490F93000704700003821022057
:1037F00010B504460020E070401EE062204602F052
:1038000041FF08B1042010BD04F22E2002F017FD84
:10381000A0F52A41553901D0032010BD94F830009D
:10382000E92805D0EB2814D194F83200902810D163
:1038300004F1660002F0F8FC0749B1EB002F06D056
:1038400004F1820002F0F0FC0449884201D100201A
:1038500010BD022010BD00000046415446415433C3
:1038600070B50D46040003D10BA1C120FFF75AF833
:10387000606818B908A1C220FFF754F860680068B2
:1038800018B905A1C320FFF74DF860682946026802
:103890002046BDE8704010472E2E5C2E2E5C2E2E4A
:1038A0005C2E2E5C2E2E5C2E2E5C636F6D706F6E08
:1038B000656E74735C6C69627261726965735C7564
:1038C0007362645C6170705F757362642E63000084
:1038D00070B50D46040003D10B49F120FFF722F823
:1038E000606818B90849F220FFF71CF86068406862
:1038F00018B90549F320FFF715F8606829464268B2
:103900002046BDE8704010470C25000070B5084CFB
:10391000050009D010342168002907D0086820600C
:10392000496828468847F6E70834F4E770BD000088
:10393000242102204269891E921E8A4201D8002059
:103940007047826A408901FB00207047F8B506463F
:10395000507C14460D4618B9607B696A884203D3CF
:10396000304607F046FAF8BD04F1080007F0E7FD1D
:103970002066242800D32420206670B3002784F812
:103980006470802084F86500062084F866001220A8
:1039900084F86700202084F86800617B286A6A4602
:1039A00050F821000121009703F060FA0098D0B18F
:1039B0000168082204F16C00FCF7AEFE00981022AA
:1039C000416804F17400FCF7A7FE009804228168A6
:1039D00004F18400FCF7A0FE0EE0FFE70021304672
:1039E00000F002FBF8BDE76627676767A767E76730
:1039F000C4F88070C4F88470032304F16401304675
:103A0000226E07F00FFCF8BD2DE9F0478046907B51
:103A100014460E4602F10F050A280CD3607B716A2A
:103A2000884208D204F10800814607F088FD38B1C9
:103A3000207B00060AD44046BDE8F04707F0D9B91C
:103A40004046BDE8F047012100F0CEBA607B316A04
:103A500051F8207084F83000D5F80200697900BA76
:103A600020F0FF0008436063484607F068FDA0634C
:103A7000384603F0D3F94068E0632146304603F04E
:103A80005AF82064B5F8070045BA484607F057FDD4
:103A90000246E06B00FB05F18A4201D2012200E000
:103AA000002284F83120A26B8A4202D900FB152043
:103AB0006064224631464046BDE8F04700F040B819
:103AC0002DE9F0418046907B14460E4602F10F0529
:103AD000062803D3607B716A884204D34046BDE860
:103AE000F04107F086B9316A51F8207084F830004F
:103AF0006888697840BA01F01F0140EA01406063BC
:103B000004F1080007F01BFDA063384603F086F9B6
:103B10004068E0632146304603F00DF820642879C0
:103B2000E16BA26B01FB00F3934202D201FB102078
:103B30006064224631464046BDE8F041AFF3008064
:103B40000EB5537B086A50F82300002382F84830F2
:103B5000D364012382F85030536B0093136C0193AC
:103B60008969D26C11440291694603F095F90EBD42
:103B700070B50646907B14460D460A2803D3607B39
:103B8000696A884204D33046BDE8704007F031B915
:103B900004F1080007F0D3FC2066082800D30820B1
:103BA0002066A8B1617B286A50F8210003F036F93D
:103BB0000168491E09BA6166406804F1640100BAEF
:103BC000A0663046226EBDE87040032307F02ABB92
:103BD0003046BDE87040002100F006BA70B50546D9
:103BE000907B1446062803D3607B496A884204D33D
:103BF0002846BDE8704007F0FCB804F1080007F063
:103C00009EFC2066122800D31220206698B104F191
:103C1000640012210646FCF774FDF02084F864006D
:103C20000B2084F86B0031462846226EBDE87040B8
:103C3000032307F0F7BA2846BDE87040002100F0E2
:103C4000D3B92DE9F0478046907B14460E4602F129
:103C50000F050A280CD3607B716A884208D204F1F0
:103C60000800814607F06BFC38B1207B00060AD5BE
:103C70004046BDE8F04707F0BCB84046BDE8F04715
:103C8000012100F0B1B9607B316A51F8207084F8ED
:103C90003000D5F80200697900BA20F0FF0008432F
:103CA0006063484607F04BFCA063384603F0B6F863
:103CB0004068E0632146304602F03DFF2064B5F8DD
:103CC000070045BA484607F03AFC0246E06B00FBA5
:103CD00005F18A4201D2012200E0002284F831205D
:103CE000A26B8A4202D900FB15206064224631464D
:103CF0004046BDE8F04700F03BB82DE9F041804672
:103D0000907B14460E4602F10F05062803D3607B14
:103D1000716A884204D34046BDE8F04107F069B8B3
:103D2000316A51F8207084F83000688840BA6063C6
:103D300004F1080007F003FCA063384603F06EF8B6
:103D40004068E0632146304602F0F5FE20642879A1
:103D5000E16BA26B01FB00F3934202D201FB102046
:103D60006064224631464046BDE8F041AFF3008032
:103D700070B50D4602F1380114460EC95A439142FE
:103D800000D80A46A969E36C1944062307F065FACE
:103D900000280ED1002184F8511014F8502F012171
:103DA00042F0010204F80829EB6962685A40626037
:103DB000217070BD2DE9F05F26484168F1B3DFF84E
:103DC00098B00E688146DBF8004087688078E11B78
:103DD00021F07F45ED1CB0B9DFF880804FF48030D2
:103DE000C8F84403C8F804031120FCF7CBFE1120E7
:103DF000FCF7D3FE4FF0010AC8F800A02F2003F013
:103E0000B3F889F802A0B54200D23546124BE81942
:103E10003C3320F07F401860DBF800105A46091B45
:103E200021F07F41001B20F07F40C91C81420FD947
:103E3000106818602F2003F097F800E004E0BDE858
:103E4000F05F1120FCF7B4BEBDE8F05F06F0BCBA2D
:103E5000BDE8F09FB80000200415014000100140AB
:103E60002DE9F04105680F00804606D002F03EF8CB
:103E7000022809D20120BDE8F081EE6816B1686918
:103E8000B04207D8012605E0411CF4D0696981429F
:103E9000F1D83E4634466869641CA04202D8022428
:103EA000022E0AD32146404602F020F838B10128FC
:103EB000E1D0411CDFD0B442EDD10020DBE74FF070
:103EC000FF3632462146284606F0D5F830B957B1BC
:103ED00022463946284606F0CEF820B101280FD0F8
:103EE00001242046C7E7EC60D5E90401891E884219
:103EF00001D2401E2861287940F001002871F0E7C6
:103F00003446EEE72DE9F0410E4620300D680446B8
:103F10000B22202102F04AFB0020014608232A5CE4
:103F2000401C202A12D92F2A0BD05C2A09D02E2A15
:103F300001D0994214D30B2B37D02E2A35D10CE067
:103F4000401C2B5C2F2BFBD05C2BF9D0284430601D
:103F500059B32078E52834D035E008210B23DEE77B
:103F6000A2F181071E2F02D95F3F1C2F13D82F5CAF
:103F7000401CA7F1400CBCF13F0F04D3A7F1800C0B
:103F8000BCF17D0F11D2A3F1010C61450DD2625439
:103F9000491C675413E010A700E07F1C97F800C08D
:103FA000BCF1000F04D09445F7D10620BDE8F081A4
:103FB000A2F16107192F01D8203AD2B26254491CEC
:103FC000ADE705202070202A01D8042000E0002061
:103FD000E0720020EAE70000222A2B2C3A3B3C3D0D
:103FE0003E3F5B5D7C7F0000FEB50F46054602F05C
:103FF00083FD02F07DFC0446284600F0F3FC0646F3
:1040000004F11F000D210546FCF77BFB0DA00F49B5
:104010000068C4F81F006068C4F82300606CC4F82E
:10402000270084F82B70D1E904010095CDE9010146
:1040300069463046FEF7A4F8002802D1082184F82A
:104040002C10FEBD555342530000000090BE0000EE
:10405000EFF30580C005C00D10D0103840B2002825
:1040600006DA00F00F0000F1E02090F8140D03E0F4
:1040700000F1E02090F80004400970470F207047DD
:1040800020BF70472DE9F04100260125144C22E0A5
:104090006068226900EBC607387805FA00F1114222
:1040A00017D08A43226103F0FBF902463878E368AF
:1040B00005FA00F1194002FA00F3994209D1797822
:1040C000012901D0012100E0002151407A6802B1AC
:1040D0009047761CF6B220788642D9D3BDE8F081AD
:1040E000A40000202DE9F04104460021056800F0FD
:1040F00008F9002826D12846A16902F0C3FA020077
:104100001FD1E069017899B1C17A01F03F01A17135
:10411000C17A09070FD404F120010B2610F8013BE6
:1041200011F8017BDB1B761E04D0002BF6D002E0D9
:10413000042206E02BB10021204600F005F8020021
:10414000D9D01046BDE8F0812DE9F0470546076952
:10415000046880698946203710B1B7F5001F02D383
:104160000420BDE8F087F90560D1401CA8616969A9
:104170004FF0000829B16089401E10EA572F05D082
:1041800054E02089B0EB571F1DD94FE0284601F0BD
:10419000ADFE064601281BD9701C33D06069B042C1
:1041A0003ED8B9F1000F0ED028466969FFF758FED6
:1041B00006000BD0012E0BD0701C23D0204606F039
:1041C0001FFFF8B906E0C5F81880C9E70720C8E75F
:1041D0000220C6E74FF40072002104F1300002F023
:1041E000E5F94FF0000831462046FFF7A3FB4FF0FA
:1041F0000109E0620DE000BF84F80390204606F05C
:10420000FFFE08B10120ACE7E06A08F10108401C9C
:10421000E06261894145EFD8E16AA1EB0800E06204
:10422000314620466E61FFF785FBA861C7F30800A1
:10423000204430302F61E861002092E770B50446D9
:104240000E460420256821E0284602F01BFA10BB28
:10425000E2691178B1B1D27AE52902F03F02A27188
:104260000AD02E2908D00F2A06D022F020010829D2
:104270000AD00021B14210D000212046FFF764FF90
:1042800020B108E0042006E00121F3E7A16900293C
:10429000DAD1002801D00021A16170BD70B50446BB
:1042A0000021066800F02DF80DE03046A16902F00B
:1042B000E9F950B9E0690078E52809D040B1012159
:1042C0002046FFF741FF0028EFD0042807D007E081
:1042D0003046A16902F0D6F9050003D00FE00720AF
:1042E00005460CE020220021E06902F05FF90B2274
:1042F00004F12001E06902F04FF90120F070284636
:1043000070BD2DE9F04107680E460546B1F5001F66
:1043100036D2F00634D12E61AC6824B9387803283F
:1043200005D37C6A1CB178894FEA402812E03889AD
:10433000B0EB561F24D9786A12E0284601F0D6FD6A
:104340000446401C1AD0022C1AD37869A04217D90F
:10435000A6EB080646452146EFD23846FFF7EAFAB3
:10436000C5E9054060B100EB5620A861C6F308001E
:1043700038443030E8610020BDE8F0810120FBE7DF
:104380000220F9E72DE9F041234C0546606818B991
:1043900022A13320FEF7C6FA207885420DD260684C
:1043A00005EB450750F827603EB100EB8700417AE6
:1043B000C90705D0416829B106E00320BDE8F081B6
:1043C000407AFBE723494160012181723068DFF8C0
:1043D0008880006818B92149CA20FEF7A3FA30681E
:1043E0002A46414603683046984710B110E04068BD
:1043F0008047606800EB8700817A0029F7D1616807
:1044000001EB8701097A19B9417A21F00101417262
:10441000606800EB8700D3E7300000202E2E5C2E72
:104420002E5C2E2E5C2E2E5C2E2E5C2E2E5C657845
:104430007465726E616C5C66617466735C706F72D9
:10444000745C6469736B696F5F626C6B6465762E14
:104450006300000081400000952A000064C1000054
:10446000F8B51F4C0646154660680F4618B91DA1E1
:10447000EA20FEF757FA2078864201D30420F8BDDF
:1044800006EB46062FB1012F15D0022F1CD00120BC
:10449000F8BD01208DF8000060686A46002150F8E0
:1044A000260002F0CDFC08B1112815D19DF80000BE
:1044B0000028F1D110E0606850F8260070B102F0D9
:1044C0009BFC0068286007E0606850F8260028B16F
:1044D00002F092FC808828800020F8BD0320F8BDFF
:1044E000300000202E2E5C2E2E5C2E2E5C2E2E5C9C
:1044F0002E2E5C2E2E5C65787465726E616C5C6627
:10450000617466735C706F72745C6469736B696FFD
:104510005F626C6B6465762E630000002DE9FE43DC
:104520002A4D04461E4668681746884618B928A1D1
:104530009820FEF7F7F9287884420ED26EB16868A9
:1045400004EB440450F8241021B100EB84014A7AB2
:10455000D20704D00320BDE8FE830420FBE7CDE9A9
:1045600000760122CDF808808A7250F824606F46E8
:104570003068806818B92449EC20FEF7D3F9306818
:10458000406918B92049ED20FEF7CCF9306841693F
:104590003046884700680099884214D93068394607
:1045A00082683046904710B10DE0406880476868E7
:1045B00000EB8400817A0029F7D1686800EB840061
:1045C000007A0028C7D00120C5E700003000002095
:1045D0002E2E5C2E2E5C2E2E5C2E2E5C2E2E5C2E15
:1045E0002E5C65787465726E616C5C66617466736E
:1045F0005C706F72745C6469736B696F5F626C6B23
:104600006465762E6300000064C1000070B50A4D39
:104610000446686818B909A18D20FEF783F9287847
:10462000844201D3012070BD696804EB440001EBB2
:104630008000407A70BD0000300000202E2E5C2EDD
:104640002E5C2E2E5C2E2E5C2E2E5C2E2E5C657823
:104650007465726E616C5C66617466735C706F72B7
:10466000745C6469736B696F5F626C6B6465762EF2
:104670006300000070B5214C0546606818B920A1A0
:104680006020FEF74FF9207885420CD2616805EB77
:10469000450551F8250030B101EB85014A7AD20772
:1046A00003D0487A70BD032070BD0022114602F08D
:1046B000C7FB606850F825603068406818B91E492B
:1046C000D720FEF72FF93068416830468847112817
:1046D000EFD010B107E040688047606800EB8500CC
:1046E000817A0029F7D1606800EB8500017A19B959
:1046F000417A41F001014172407A70BD30000020E2
:104700002E2E5C2E2E5C2E2E5C2E2E5C2E2E5C2EE3
:104710002E5C65787465726E616C5C66617466733C
:104720005C706F72745C6469736B696F5F626C6BF1
:104730006465762E6300000064C100002DE9FE432D
:104740002D4D04461E4668681746884618B92BA1A9
:10475000BF20FEF7E7F8287884420ED26EB1686871
:1047600004EB440450F8241021B100EB84014A7A90
:10477000D20704D00320BDE8FE830420FBE74A7A79
:10478000520701D50220F6E7CDE900760122CDF8E7
:1047900008808A7250F824606F463068C06820B97B
:1047A00024494FF48470FEF7BDF83068406920B9A1
:1047B000204940F20910FEF7B5F8306841693046EB
:1047C000884700680099884214D930683946C26821
:1047D0003046904710B10DE040688047686800EBB4
:1047E0008400817A0029F7D1686800EB8400007AA0
:1047F0000028C0D00120BEE7300000202E2E5C2E05
:104800002E5C2E2E5C2E2E5C2E2E5C2E2E5C657861
:104810007465726E616C5C66617466735C706F72F5
:10482000745C6469736B696F5F626C6B6465762E30
:104830006300000064C1000070B50C46050004D19F
:1048400004A14FF49170FEF76DF8104845600470B4
:1048500070BD00002E2E5C2E2E5C2E2E5C2E2E5C4B
:104860002E2E5C2E2E5C65787465726E616C5C66B3
:10487000617466735C706F72745C6469736B696F8A
:104880005F626C6B6465762E630000003000002070
:104890000E4910B50A784C780023A24212D0521C5F
:1048A000D2B20A70022A00D10B70084A0B780C327F
:1048B00052F8232002608868104420F07F4088600E
:1048C000012010BD0360002010BD0000B8000020D2
:1048D00070B50E46054602F00FF902F009F8F178BE
:1048E000002401290ED0032918D090F82C000229A9
:1048F00018D0801E082838D2DFE800F01F37233791
:104900002937353490F82C0006282CD0082801D0FF
:10491000012828D12846FEF70FFF16E0012180F874
:104920002C1008E0062803D128460B2106F040FA97
:10493000284606F03AFA002070BD284606F096F8A0
:1049400003E000212846FFF74FFB04460BE0002060
:10495000FDF726FF284606F0CFF904460020FDF7B4
:104960004DFF00E00624204670BD034940F2AC60D4
:10497000FDF7D8FFF6E70000FCC2000010B50446C2
:10498000010600F00F00092804D306A140F2AE2072
:10499000FDF7C8FF6FEA0460C10F204661F31F10E6
:1049A00010BD00002E2E5C2E2E5C2E2E5C2E2E5C5A
:1049B0002E2E5C2E2E5C636F6D706F6E656E747341
:1049C0005C647269766572735F6E72665C75736241
:1049D000645C6E72665F6472765F757362642E6388
:1049E0000000000010B50021FDF7A6F80021FDF73A
:1049F0007BF8007810BD10B50021FDF79DF801216E
:104A0000FDF772F8007810BD70B50546000605F098
:104A10000F0402D5092C09D301E0092C08D307A102
:104A200040F29B20FDF77EFF280601D5134801E0E8
:104A30001248903800EB041070BD00002E2E5C2E42
:104A40002E5C2E2E5C2E2E5C2E2E5C2E2E5C636F2A
:104A50006D706F6E656E74735C6472697665727387
:104A60005F6E72665C757362645C6E72665F6472C0
:104A7000765F757362642E6300000000802202205E
:104A800010B50446010600F00F00092804D30349BD
:104A900040F27E20FDF746FF204610BD64B70000BF
:104AA000704700000C4910B50020C8708020FFF747
:104AB000ABFF817B0124032902D0006800280AD1C2
:104AC0008020FFF75BFF8440E1430348BDE81040CE
:104AD0000C3002F082B810BD90000020812005F05B
:104AE00057B8822005F054B8832005F051B88420CF
:104AF00005F04EB8852005F04BB8862005F048B883
:104B0000872005F045B8882005F096B838B5144DD3
:104B10000020E870FFF778FF817B0124032902D091
:104B2000006868B108E00020FFF728FF84400C48C7
:104B3000E1430C3002F051F8BDE8384003F0B5BE57
:104B40000020FFF71BFF84400548E1430C3002F0D2
:104B500044F80448C068009069686846884738BDD2
:104B600090000020A0BD0000012005F0A7B80220A1
:104B700005F0A4B8032005F0A1B8042005F09EB804
:104B8000052005F09BB8062005F098B8072005F031
:104B900095B8000038B5104D00200824E870204674
:104BA000FFF732FF817B032914D00068002811D160
:104BB0002046FFF7E3FE01218140C94305F10C00C7
:104BC00002F00BF80548406900908DF802406968D2
:104BD0006846884738BD000090000020A0BD000056
:104BE00070B5154804680460BFF36F8FBFF34F8F33
:104BF000BFF36F8FBFF34F8F03F098FC38B10F48AE
:104C0000016921F0011201F0011114430161012633
:104C10006CB194FAA4F0B0FA80F52846FDF78DFE49
:104C200006FA05F18C43294606F028FFF0E7BDE8B7
:104C3000704006F0B7BD00006C7402409000002088
:104C400010B5054CA078FFF799FE0146A078BDE8A5
:104C5000104006F013BF000090000020F8B51E4879
:104C6000D0F8001221F00401C0F800121B480068BF
:104C70001B4DC6B2A878FFF781FE012404FA00F1AB
:104C80002889EA68C04380B21043014202D0A87864
:104C900006F072FE06F08000A8700020FFF76EFE9E
:104CA00004FA00F68020FFF769FE04FA00F00643DC
:104CB0000B48F1430C3001F090FF8020FFF75EFEBF
:104CC0008440A86804430748AC60006A00906968A3
:104CD00068468847F8BD00000070024080740240BA
:104CE00090000020A0BD000038B5002000900B48C7
:104CF0000068ADF802008820FFF740FE012505FAA4
:104D000000F40820FFF73AFE054985402C438868E7
:104D100004438C6049686846884738BD2075024066
:104D20009000002070B50B4804680460BFF36F8FDB
:104D3000BFF34F8F012609E094FAA4F0B0FA80F592
:104D40002846FDF7FAFD06FA05F08443002CF3D15E
:104D500070BD000068740240F8B51C48056828461C
:104D600005F056F8BFF36F8FBFF34F8F184E194CF5
:104D7000E80506D501206070706A00906168684699
:104D80008847A8054FF0000705D56770B06A009006
:104D9000616868468847680516D56078002813D092
:104DA00005F040F820B10CA140F2AB40FDF7BAFD90
:104DB0006770194901200860582005F03BF8F06A37
:104DC0000090616868468847F8BD000000740240A2
:104DD000A0BD0000900000202E2E5C2E2E5C2E2EFA
:104DE0005C2E2E5C2E2E5C2E2E5C636F6D706F6EB3
:104DF000656E74735C647269766572735F6E7266F9
:104E00005C757362645C6E72665F6472765F757304
:104E100062642E630000000008750240054908B571
:104E200000204870887004484068009049686846CF
:104E3000884708BD90000020A0BD000038B504469A
:104E400000F008FC002807D16946204606F07AFEEB
:104E5000002801D10021216038BD00002DE9FF4F5D
:104E600091B01D4614464FF4007611A8DDF8788005
:104E700001F0CCF8002803DA0B2015B0BDE8F08F64
:104E8000FE4951F8201009B100220A70C0B2069004
:104E9000FFF778FAC10701D00320EEE7400701D5FC
:104EA0000A20EAE70CAA03210698FFF7D9FA38B9D5
:104EB0000C9828B1B0F5004F02D8411E084201D02D
:104EC00001200C90B24624B154453AD3B4F1807F0E
:104ED00037D8601E044234D1B8FBFAFBB4FBFAF7B2
:104EE0005FEA4B202C4610907DD009AA012106983C
:104EF000FFF7B6FA002877D1129800076FEAA010E2
:104F00004FEA9069099848456DD3A0EB09008646A1
:104F10000990802867D3802F13D812984FF6F57226
:104F20008007129840F6F57307D500F007000228B5
:104F30007ED01298C0077BD001E0C00701D00226C6
:104F40009AE0132099E73D000ED100204FEA5E4C15
:104F50000125CB4901E06D00401C31F81080B8F10B
:104F6000000F01D0E045F6D9BEFBF5F00AEB800159
:104F7000C91DB1FBFAF82021039100210E91904246
:104F800031D9C04988422ED82BE000BFDFF8F0C2EB
:104F900000204FEA1E310125ACF10E0C01E06D003E
:104FA000401C3CF81080B8F1000F01D08845F6D9BC
:104FB000BEFBF5F0984203D9042101EB400006E066
:104FC000012600EB40000321401C01EB500050443F
:104FD000401EB0FBFAF8012081030390B1FBFAF008
:104FE0000E90039901E05AE034E109EB010000EB77
:104FF000080104900E9808440C9900EB010C491E1E
:10500000ACF1010C2CEA010CACEB0001032E1AD020
:1050100008EB010800EB0511A1EB090171453ED831
:1050200003990E98AEEB0101A1EB0801081A00E00C
:1050300028E0B0FBF5F00790032E0ED0022E13D01F
:10504000012E2AD02DE0DDF80CC08C44CDF80CC028
:10505000DDF810C061440491DCE7904221D8F7B933
:105060006F087FF470AF1AE0904211D93FB9402029
:10507000B0EB450F03D36F003D0099D186E712983E
:10508000800707D503265EE76F00802FF4D906E07E
:10509000984206D8002FF7D001E0984201D90E209F
:1050A000EBE652460021204601F080FA0B2276A161
:1050B000204601F071FA514604F10B0005F0D1FCD5
:1050C0006573039881B204F10E0005F0CAFC01205B
:1050D0002074032E0ED0514604F1110005F0C1FCDE
:1050E0000999B1F5803F07D289B204F1130005F0A8
:1050F000B8FC05E00021EFE704F1200005F0A9FC71
:10510000F82060753F2104F1180005F0AAFCFF218A
:1051100004F11A0005F0A5FC494604F11C0005F055
:1051200098FC5C498027032E24D004F1270005F069
:1051300090FC1FFA88F104F1160005F092FC84F847
:105140002470292084F82600132253A104F12B0097
:1051500001F022FA04F5FF704AF655210B9005F094
:1051600080FC01234A4621460698FFF7E7FA00280B
:1051700070D121E004F1430005F06BFC414604F1DD
:10518000240005F066FC022104F12C0005F061FC0E
:10519000012104F1300005F064FC062104F1320025
:1051A00005F05FFC292084F8407084F84200132247
:1051B0003EA104F14700CBE7032E32D1012309F1D0
:1051C000060221460698FFF7B9FA5246002120460A
:1051D00001F0ECF93A49204605F03BFC394904F569
:1051E000F27005F036FC079904F5F470491E05F0DD
:1051F00030FC022104F5F67005F02BFC4AF655212F
:105200000B9805F02EFC012309F1070221460698B0
:10521000FFF794FA012309F1010221460698FFF7EE
:105220008DFA00212046109A01F0C0F96FF00701B5
:10523000032E02D0012E0ED00EE0204605F009FC10
:105240004FF0FF31201D05F004FC6FF0704104F1B8
:10525000080002E03AE01C49204605F0FAFB474608
:1052600058465F4500D83846804603462146049A92
:105270000698FFF763FA48BB524628E03C0000203E
:1052800082BC0000F5FFFF0FEBFE904D53444F53DF
:10529000352E3000000021484E4F204E414D452014
:1052A0002020204641542020202020004E4F204E18
:1052B000414D4520202020464154333220202000FB
:1052C0005252614172724161F8FFFF0058E00021C3
:1052D000204601F06BF90498B7EB080740440490AE
:1052E000BED1032E00D00E9D58465D4501D907461C
:1052F00000E02F463B462146049A0698FFF71EFA27
:10530000F0BB0498ED1B38440490EDD1032E05D07A
:105310000998B0F5803F03D3062604E00C2602E08E
:10532000022E38D001261298000736D452460021AA
:10533000204601F03BF94AF655210B9805F091FB08
:1053400004F5DF750020287001216970A970E870EC
:105350002E71099909EB010043F6C161B0FBF1F030
:10536000FE2169713F2141EA9001A971E871494626
:1053700005F1080005F06DFB05F10C00099900E04E
:1053800013E005F066FB0123002221460698FFF793
:10539000D5F950B901E00426C5E700221146069868
:1053A000FFF75EF800283FF478AD012065E50000C6
:1053B00017B581B0144602980090684600F026FEAA
:1053C000002802DA0B2004B010BD0B4A002352F86B
:1053D000201001B10B700199002900D00B7042F828
:1053E000201001D0012C01D00020ECE7002201A9FF
:1053F00002A800F01BFCE6E73C0000202DE9F74383
:105400008CB005000BD002F03F06324669460DA86D
:1054100000F00CFC04004FF0000804D0BFE00920AD
:105420000FB0BDE8F0830098019001A80D9900F03D
:1054300023FD040004D19DF82F00000600D50624AA
:1054400016F01C0F4CD04CB1042C03D101A8FEF770
:1054500025FF044646F008065CB1A0E09DF80A006E
:1054600010F0110F01D0072499E0700701D508242E
:1054700095E0300743D54D4F089839460E3005F07A
:10548000E8FA08983946163005F0E3FA0899202022
:10549000C8720899009800F0B4FE074600220899E7
:1054A000009805F0C2FA089800211C3005F0D1FAE6
:1054B00000990120C87007B3D1F82C90002239461A
:1054C00001A804F047FF040069D14946009801F0A3
:1054D000D9F804000098A7F10107C7600BD05EE07F
:1054E000C4BB9DF80A00C10601D5042457E0B107EA
:1054F00001D5C007B7D1300701D546F04006009866
:10550000C16A296208996962089900F07AFEA86068
:1055100008981C3000F088FEE860009828604FF47E
:105520000072C088A8802E7485F81180C5F81C8090
:1055300005F1280000218146C5F8148001F036F8F5
:10554000B0062ED5EE6866B36E610098A9684089F2
:1055500047020FE023E0284600F0C8FC014601287E
:1055600000D80224481C02D0F61B1CB104E0012420
:10557000F61B01E0BE42EED8A96184B9F00510D057
:105580000098FEF7D7F970B100EB5622EA61009857
:10559000012349464078FEF7C1FF10B10124C5F848
:1055A000008020463CE70224F9E700000000214883
:1055B00013B582B0040006D00022694603A800F0AB
:1055C00035FB18B120E0092004B010BD009921601E
:1055D0002046039900F050FC90B994F82B00000687
:1055E00007D4A079C00612D5E169009800F009FE41
:1055F000A0600098C188A18020460021FEF781FEAE
:10560000042804D00028DFD000212160DCE7052039
:10561000FAE738B50C460546694606F093FA0028C5
:1056200013D1014628468CB1FEF708FE042801D0AC
:1056300000280AD12146284600F0B7FC0021284660
:10564000FEF782FD042800D1002038BDFEF759FE88
:1056500038BD0000F8B50446694606F073FA002824
:105660000ED1217C4A060BD508060ED50098E269BA
:105670000123407804F12801FFF760F808B1012008
:10568000F8BD207C00F07F002074154E216A009840
:1056900000F0F8FF0028F3D1656A2946E87A40F067
:1056A0002000E872A268206805F0BFF905F11C002F
:1056B000E16805F0CEF9314605F1160005F0C9F9AB
:1056C000002105F1120005F0CCF900980121C1700C
:1056D00005F052FC217C01F0BF012174F8BD0000EF
:1056E0000000214870B52648264CADF50E7D0078A7
:1056F000012520B1208824A105EB00403CE0FAF709
:10570000D5FF03462EA210218AA8FBF795FC20881E
:10571000132646EA00408AAA2CA103F095FF00BF99
:1057200003F0A6FE0028FBD10A228AA96846FFF7EB
:1057300065FE02000DD020882CA105EB004003F08F
:1057400083FF00BF03F094FE0028FBD10DF50E7D12
:1057500070BD6846FFF772FB0200208809D005EB98
:1057600000402BA103F070FF03F082FE0028FBD164
:10577000ECE746EA00402DA103F062FFE6E70000F7
:105780000C00002010020020556E61626C652074D0
:105790006F206F706572617465206F6E2066696C32
:1057A0006573797374656D207768696C65205553EE
:1057B0004220697320636F6E6E65637465640000D8
:1057C000253038782E7478740000000043726561CB
:1057D00074696E672072616E646F6D2066696C65B6
:1057E0003A202573202E2E2E000000000D0A556E43
:1057F00061626C6520746F206F70656E206F72201F
:105800006372656174652066696C653A2025750070
:105810000D0A556E61626C6520746F20636C6F7346
:10582000652066696C653A2025750000646F6E65B9
:105830000D0A000070B54FF40C711B48FAF761FFB8
:1058400001211A48FEF7F8FF194C032619A12088F8
:1058500006EB004003F0F4FE0020FEF793FD012567
:105860000028208803D005EB00401AA116E006EBC3
:1058700000401FA103F0E4FE012222A10A48FFF725
:1058800097FD02000DD020880D2A05EB004004D0C2
:105890001DA103F0D9FE002070BD20A103F0D0FEB1
:1058A000F9E7012070BD00001C0402201400002054
:1058B00010020020496E697469616C697A696E67CB
:1058C000206469736B2030202851535049292E2EB3
:1058D0002E0000004469736B20696E697469616C05
:1058E000697A6174696F6E206661696C65642E0007
:1058F0004D6F756E74696E6720766F6C756D652E71
:105900002E2E0000000000004D6F756E7420666141
:10591000696C65643A202575000000004D6F756E56
:1059200074206661696C65642E2046696C657379C4
:105930007374656D206E6F7420666F756E642E20B3
:10594000506C6561736520666F726D61742064656B
:10595000766963652E0000002DE9F0412B482C4C40
:1059600094B001782088012639B106EB004029A1C6
:1059700003F066FE14B0BDE8F081032101EB0040A6
:1059800032A103F05DFE37A107A8FFF711FE020068
:1059900004D0208834A106EB00400DE00025132739
:1059A0000DF10D0801A907A8FFF733FE020006D08C
:1059B000208835A106EB004003F046FEDAE79DF8AB
:1059C0000D0098B19DF80C00C00607D5208842460E
:1059D00047EA004033A103F037FE07E02088434642
:1059E00047EA004033A1019A03F035FE15F10105A5
:1059F00003F03EFD0028FBD19DF80D000028D1D119
:105A000020882A4647EA00402DA1D5E70C00002057
:105A100010020020556E61626C6520746F206F70FB
:105A20006572617465206F6E2066696C6573797349
:105A300074656D207768696C6520555342206973E1
:105A400020636F6E6E656374656400000D0A4C69B7
:105A50007374696E67206469726563746F72793AF2
:105A6000202F00002F0000004469726563746F727C
:105A700079206C697374696E67206661696C65640E
:105A80003A202575000000004469726563746F72E6
:105A9000792072656164206661696C65643A2025CD
:105AA000750000002020203C4449523E2020202543
:105AB000730D0A0025396C75202025730D0A00002E
:105AC000456E747269657320636F756E743A202534
:105AD000750D0A00F8B51C481C4D01260178288870
