:1000000000000120A91E0000D11E0000D31E000028
:10001000D51E0000D71E0000D91E00000000000001
:10002000000000000000000000000000DB1E0000D7
:10003000DD1E000000000000DF1E0000E11E0000C9
:1000400099100000E31E0000E31E0000E31E000004
:10005000E31E0000E31E000051140000E31E000038
:10006000E31E0000E31E0000E31E0000E31E00008C
:10007000E31E0000E31E0000E31E0000E31E00007C
:100080007919000011060000E31E0000E31E0000C5
:10009000B1060000E31E0000E31E0000E31E0000A6
:1000A000E31E0000E31E0000E31E0000E31E00004C
:1000B000E31E0000E31E000000000000000000003E
:1000C000E31E0000E31E0000E31E0000E31E00002C
:1000D000E31E0000E31E0000E31E0000000000001D
:1000E0000000000000000000000000000000000010
:1000F0000000000000000000000000000000000000
:1001000000000000000000000000000000000000EF
:1001100000000000000000000000000000000000DF
:1001200000000000000000000000000000000000CF
:1001300000000000000000000000000000000000BF
:1001400000000000000000000000000000000000AF
:10015000000000000000000000000000000000009F
:10016000000000000000000000000000000000008F
:10017000000000000000000000000000000000007F
:10018000000000000000000000000000000000006F
:10019000000000000000000000000000000000005F
:1001A000000000000000000000000000000000004F
:1001B000000000000000000000000000000000003F
:1001C000000000000000000000000000000000002F
:1001D000000000000000000000000000000000001F
:1001E000000000000000000000000000000000000F
:1001F00000000000000000000000000000000000FF
:1002000010B5054C237833B9044B13B10448AFF350
:1002100000800123237010BD70000020000000004A
:10022000582600000C4B43B10C480D4910B5AFF3F4
:1002300000800C48036823B910BD0A48036833B92D
:100240007047094B002BF7D0BDE810401847064B0C
:10025000002BF5D0184700BF000000005826000012
:10026000740000206C00002000000000154B002BE3
:1002700008BF134B9D46A3F5803A00218B460F46DD
:100280001348144A121A02F02DF80F4B002B00D01D
:1002900098470E4B002B00D0984700200021040007
:1002A0000D000D48002802D00C48AFF3008001F08B
:1002B000F5FF2000290001F0BDFD01F0DBFF00BFCC
:1002C0000000080000000120000000000000000005
:1002D00070000020DC020020000000000000000090
:1002E000054A4FF0A043105CD3F8043523FA00F020
:1002F000C04300F00100704720260000044B195C49
:100300004FF0A04201238B40C2F80C35704700BF6C
:1003100020260000044B195C4FF0A04201238B40C3
:10032000C2F80835704700BF202600004FF0A043F8
:1003300010B44FF480204FF400344FF400214FF4F8
:100340008012C3F80845C3F80805C3F80815C3F8B8
:1003500008255DF8044B70474FF0A04310B44FF4EC
:1003600080204FF400344FF400214FF48012C3F882
:100370000C45C3F80C05C3F80C15C3F80C255DF843
:10038000044B7047074B4FF0A041185CD1F804357F
:100390000122824022EA03001340C1F80805C1F897
:1003A0000C3570472026000030B44FF0A0430322E4
:1003B0004FF400354FF480244FF400204FF48011A7
:1003C000C3F84427C3F84827C3F84C27C3F850277D
:1003D000C3F80855C3F80845C3F80805C3F808155D
:1003E00030BC70470D2809D00E2809D00F2809D03D
:1003F00010280CBF03204FF0FF30704700207047DB
:1004000001207047022070472DE9F84F254B93F8E3
:1004100000E0BEF1000F31D0DFF88CB0DFF88CA027
:10042000DFF88C900024012703E00134E4B2744526
:1004300024D226B2DBF80050DAF8003015F8360086
:1004400007FA00F1194205EBC608EED023EA0103D2
:10045000CAF8003000F0F2FF15F83660D9F8003025
:1004600007FA06F52B4000FA06F18B4208D00D4B37
:10047000013493F800E0E4B27445DAD3BDE8F88FB4
:10048000D8F80430002BF2D098F80110A1F1010146
:10049000B1FA81F14909091AB1FA81F149093046E5
:1004A0009847E4E78C000020BC000020B800002042
:1004B000B400002070B50646114800F047FD40B971
:1004C000104D01242B68B4401C4203D023EA0404DD
:1004D0002C6070BD304600F0B1FF0B4E326860B149
:1004E00022432B68094932601C432C600448096888
:1004F0000022BDE8704000F0D9BC22EA0402F0E717
:1005000094000020B8000020B400002090000020DB
:10051000042A01D8072070472DE9F04182B08846AF
:100520000546174600F05EFE002836D01D4C1E48DA
:100530001E491F4A1F4B2560002608F1FF3480F832
:1005400000800F6016601E60E4B2B8F1000F1ED08C
:10055000DFF86C80032701E0FF2C18D023B205EBF5
:10056000C30215F8330093788DF80470424601A950
:100570008DF806608DF807608DF8053000F03CFEC0
:10058000013CE4B20028E7D002B0BDE8F0810A4A9D
:100590000A48002100F078FCF6E700F0E1FD0028B1
:1005A000C4D0F1E7BC0000208C00002090000020A7
:1005B000B4000020B8000020090400002426000038
:1005C000B504000070B5084D2B785BB1074E0024D0
:1005D0003368012113F8340000F0CEFE2B7801348B
:1005E000A342F5D8002070BD8C000020BC00002084
:1005F00000B585B000230390194601AA44F201001A
:10060000ADF80430029301F011FC05B05DF804FB75
:10061000F8B5204A204B0025C2F84051C2F8445199
:10062000C2F84851C2F84C51C2F80051C2F8045106
:100630001B6813B31949D2F804450A68A41A1A684A
:1006400024F07F44A2422F4609D8197CDE69A41AFF
:10065000154499B91EB133461A68A242F5D910491A
:10066000104A0B7812789A420DD00F490F4A41F880
:1006700023504FF48013C2F80031F8BD1F745A693B
:1006800098699047E6E7531CDBB2022B08BF0023B2
:100690000B70EAE700100140E0010020DC010020BF
:1006A000D9010020D8010020D001002000E100E0A5
:1006B0002DE9F04F7D4A7E491378097899428BB035
:1006C0003BD00133DBB27B490491022B0D687A49A0
:1006D000069108BF00231370784A084652F8231089
:1006E000D0F80090049A6B18002423F07F434E4604
:1006F000AC461360204627462546AEB133688B4290
:1007000000F2ED81F4683760C91A1844F3693CB10E
:100710000CEB000E2EF07F42F561B460726035463E
:100720001E460124002EE9D12A46B146002C40F095
:10073000DB8201230793069B07E05F4B5D4A04922F
:10074000D3F80090069300220792D3F800A05C4BE8
:10075000DFF874C11B780593049B18680023494691
:10076000CE460893D146099303934FF0010B1746E9
:100770009A46804637B37C68BD683B46FF6951485E
:10078000A4EB080222F07F42824258D815441D6033
:10079000002283F810B05A609A60DA6100296ED0A6
:1007A0000868854263D90C4603E01068A8424FD21E
:1007B0001446E2692D1A002AF7D11D60DA61E3615F
:1007C000002FD8D10297CDF804E09CF801709CF876
:1007D00000200025974200F08680104600EB400084
:1007E0000CEBC000541C9CF80230E2B204798CF887
:1007F0000020934204BF8CF800500022022C836832
:100800004ED0032C40D0012CE4D11E7C002EE1D12F
:10081000C4685C6005699D604269DA6082699A61BA
:10082000059A029FDDF804E0002AA8D03446A4EB24
:10083000080224485E6022F07F428242A6D9A8EBDB
:10084000040424F07F44AC4208D22D1B1D609FE7B6
:10085000401B10601D60DA61E361B1E7002583F899
:1008600010B01D605D609D60DD6141B10868451B91
:100870000D609946D9614FF0010A19467AE7994609
:1008800019464FF0010A75E70029A3D00022CB6971
:100890000A741946002BFAD199464FF0010A94E7E1
:1008A000D9B19942084615D110E100BFD801002006
:1008B000D9010020DC010020E0010020D00100204F
:1008C000CC010020FEFF7F00C0000020A34200F00A
:1008D000E8802046C469002CF8D10E4697421D746A
:1008E00031467FF47AAF4046D046CA46DDF80490E0
:1008F000B8F1000F40F0F481099B002B40F0ED812E
:10090000089B1BB17B4B9DF814201A70039B13B9F5
:10091000494500F04C81002900F04E81764C049B43
:10092000D4F804051B68754D0F682978C21A22F0A7
:100930007F420332002951D17149DFF8C8C1DFF885
:10094000C8E14FF48036C4F84463C4F804634FF43C
:100950000036C1F880610E60012626602F21DCF888
:10096000004000BF00BF00BF00BF00BF00BF00BF0E
:1009700000BF74452FD000BF00BF00BF00BF00BF45
:1009800000BF00BF00BF00BF00BF00BF00BF00BF6F
:1009900000BF00BF00BF00BF00BF00BF00BF00BF5F
:1009A00000BF00BF00BF00BF00BF00BF00BF00BF4F
:1009B00000BF00BF00BF00BF00BF00BF00BF00BF3F
:1009C00000BF00BF00BF00BF00BF00BF00BF00BF2F
:1009D00000BF00BF00BF0139C3D12E7097422CBFAA
:1009E000DB199B18444923F07F43C1F84035D1F807
:1009F0000425121A1B1A22F07F4223F07F43033290
:100A00009A4248D9D1F804353E4AC1F840351268B7
:100A10003D492F2300BF00BF00BF00BF00BF00BF84
:100A200000BF00BF8A422FD000BF00BF00BF00BF81
:100A300000BF00BF00BF00BF00BF00BF00BF00BFBE
:100A400000BF00BF00BF00BF00BF00BF00BF00BFAE
:100A500000BF00BF00BF00BF00BF00BF00BF00BF9E
:100A600000BF00BF00BF00BF00BF00BF00BF00BF8E
:100A700000BF00BF00BF00BF00BF00BF00BF00BF7E
:100A800000BF00BF00BF00BF013BC3D11C4B4FF4F0
:100A90000032C3F80021174A002313700BB0BDE8E1
:100AA000F08F834212D00E46DC69D3F800E0C461B7
:100AB00034B12268724422609CF800209CF80170D6
:100AC0000398B14218BF0120039007E7D1F81C90AA
:100AD000B9F1000F1AD04E464FF0010AE4E72A465A
:100AE000B146002C60D15B1AC9F80030012307938E
:100AF000069B2AE6CC01002000100140CD01002019
:100B000000E100E0000000200024F400784E794C61
:100B1000C6F808B0784E4FF02F0E366800BF00BF01
:100B200000BF00BF00BF00BF00BF00BFA6422FD064
:100B300000BF00BF00BF00BF00BF00BF00BF00BFBD
:100B400000BF00BF00BF00BF00BF00BF00BF00BFAD
:100B500000BF00BF00BF00BF00BF00BF00BF00BF9D
:100B600000BF00BF00BF00BF00BF00BF00BF00BF8D
:100B700000BF00BF00BF00BF00BF00BF00BF00BF7D
:100B800000BF00BF00BF00BF00BF00BF00BF00BF6D
:100B9000BEF1010EC2D1012634460896C8464E4623
:100BA00005940994A2467FE7069806609BE7079B99
:100BB000002B3FF470AFAEE64D4A504B4E4E4D4CBD
:100BC0004FF480304FF400370125C3F88070C2F82D
:100BD00048032F23C2F80803556030681E4600BF43
:100BE00000BF00BF00BF00BF00BF00BF00BFA042EA
:100BF0002FD000BF00BF00BF00BF00BF00BF00BFBD
:100C000000BF00BF00BF00BF00BF00BF00BF00BFEC
:100C100000BF00BF00BF00BF00BF00BF00BF00BFDC
:100C200000BF00BF00BF00BF00BF00BF00BF00BFCC
:100C300000BF00BF00BF00BF00BF00BF00BF00BFBC
:100C400000BF00BF00BF00BF00BF00BF00BF00BFAC
:100C500000BF013EC3D19560049A116000BF00BF80
:100C600000BF00BF00BF00BF00BF00BFA0422FD029
:100C700000BF00BF00BF00BF00BF00BF00BF00BF7C
:100C800000BF00BF00BF00BF00BF00BF00BF00BF6C
:100C900000BF00BF00BF00BF00BF00BF00BF00BF5C
:100CA00000BF00BF00BF00BF00BF00BF00BF00BF4C
:100CB00000BF00BF00BF00BF00BF00BF00BF00BF3C
:100CC00000BF00BF00BF00BF00BF00BF00BF00BF2C
:100CD000013BC3D10A4B1970DDE6049B18600FE697
:100CE000069BC3F800A007E6069B1E6021E500BF37
:100CF000001001400024F4000000002000E100E0AA
:100D0000CD010020F0B4564B564A574E574C4FF485
:100D100080304FF400310125C2F88010C3F8480339
:100D20002F21C3F808035D6030680E4600BF00BF86
:100D300000BF00BF00BF00BF00BF00BFA0422FD058
:100D400000BF00BF00BF00BF00BF00BF00BF00BFAB
:100D500000BF00BF00BF00BF00BF00BF00BF00BF9B
:100D600000BF00BF00BF00BF00BF00BF00BF00BF8B
:100D700000BF00BF00BF00BF00BF00BF00BF00BF7B
:100D800000BF00BF00BF00BF00BF00BF00BF00BF6B
:100D900000BF00BF00BF00BF00BF00BF00BF00BF5B
:100DA000013EC3D19D6000BF00BF00BF00BF00BFB8
:100DB00000BF00BF00BFA0422FD000BF00BF00BFD8
:100DC00000BF00BF00BF00BF00BF00BF00BF00BF2B
:100DD00000BF00BF00BF00BF00BF00BF00BF00BF1B
:100DE00000BF00BF00BF00BF00BF00BF00BF00BF0B
:100DF00000BF00BF00BF00BF00BF00BF00BF00BFFB
:100E000000BF00BF00BF00BF00BF00BF00BF00BFEA
:100E100000BF00BF00BF00BF00BF0139C3D1144EE7
:100E2000144D154C1549164F002030702860207065
:100E30004FF48015E0240B26087048708E703870CF
:100E40001049C2F8805182F814431560C3F80805B0
:100E500082F81143D3F804350B60F0BC704700BF33
:100E60000010014000E100E0000000200024F40038
:100E7000CD010020E0010020D8010020C0000020AA
:100E8000D9010020DC010020074B9B780BB908201A
:100E900070473AB130B10368187C0028F7D1597413
:100EA0005A61704707207047C00000202DE9F041CB
:100EB000234CA37813B90820BDE8F0810028FAD0AC
:100EC000042902D80720BDE8F0814369002BF2D045
:100ED000437C0546012B4FF000000CBF884680463E
:100EE00017460E4600F068F86378A07821785A1CFF
:100EF000D2B2904208BF002291421AD003EB4303C2
:100F000004EBC30301200F499D601871D1F804154B
:100F1000D9601E61C3F814809F610020627000F0E8
:100F200053F8094B4FF48012C3F800210020BDE8AC
:100F3000F081002000F048F80420BDE8F08100BFF7
:100F4000C00000200010014000E100E070B5184D25
:100F5000AB780BB9082070BD0028FBD04369002B8B
:100F6000F8D0002404740646204600F025F86A787C
:100F7000A8782978531CDBB2984208BF23469942CF
:100F800011D002EB420205EBC2020221204696601C
:100F900011716B7000F018F8064B4FF48012C3F813
:100FA0000021204670BD204600F00EF8042070BDE0
:100FB000C000002000E100E072B6024A136801336D
:100FC00013607047E4010020034A1368013B13607B
:100FD00003B962B6704700BFE401002010B50D4CA4
:100FE00023780BB1852010BD0B4A6360E360106865
:100FF000A36010F00100236107D04FF0804201236D
:10100000C2F818352370002010BD072100F080F8C9
:10101000F3E700BFE801002000E100E030B51B4D20
:10102000AB7883B0044673B110B143680120984790
:101030000020FFF7C1FFEB6800200133EB60FFF7F2
:10104000C3FF03B030BD03F0FF00FFF7B5FF64B18D
:101050002A6942B1944208D0134601E09C4204D070
:101060001B68002BFAD122602C61EB68002BE2D1C7
:10107000074A08491360136801934FF08042022029
:101080000123019CC2F804030B60D4E7E8010020AF
:10109000040100400800004010B51A4B1A6882B0E5
:1010A000A2B100221A601B6800934FF08043012216
:1010B000154C0099C3F80823A368627033B10CCBB8
:1010C0000020A2609847A368002BF8D10F4B1A6844
:1010D000AAB100221A601B6801934FF080430222DC
:1010E000094C0199C3F8082323690122A27033B186
:1010F0000CCB0120226198472369002BF8D102B064
:1011000010BD00BF00010040E801002004010040C4
:10111000002810B418DB00F1604303F56143490176
:10112000C9B283F80013C3B24009800000F16040E7
:1011300000F5614003F01F0201239340C0F88031A5
:1011400003605DF8044B7047C3B2044A03F00F0418
:1011500049012244C9B21176E6E700BFFCEC00E089
:1011600030B51D4C94F8545083B015B1082003B02D
:1011700030BD4FF0FF33FF22072106202363636356
:10118000A363E36323646364A364E3642360636031
:10119000A360E36023616361A361E361236284F878
:1011A00050306362A36284F85230E36284F85330B3
:1011B00084F85120FFF7ACFF084B094A1D601B68FB
:1011C000019301984FF000430121284684F8541000
:1011D000C2F8043303B030BDFC0100207C61004044
:1011E00000600040034B93F85400003018BF01200A
:1011F000704700BFFC010020F0B55E4C251895F942
:101200003030002B01DB0820F0BD91F803E0BEF187
:10121000000F50D02368013300F0A6800826012576
:1012200054F8253001334CD06B1C54F8237001372F
:1012300048D0AB1CB3423CD254F82370013741D0A4
:10124000EB1CB34235D254F8237001373AD02B1D32
:10125000B3422ED254F82370013733D06B1DB34202
:1012600027D254F8237001372CD0AB1DB34220D2C3
:1012700054F82370013725D0EB1DB34219D254F82E
:10128000237001371ED005F10803B34211D254F880
:101290002370013716D005F10903B34209D254F87F
:1012A000237001370ED00A35B54202D2E36A01330A
:1012B00058D00420F0BD236A01332DD00C26092517
:1012C000AEE72B4626185DB244F8232086F830504E
:1012D000BEF1000F26D08B78A3B94A784FF0A04614
:1012E00000F5E073920046F82320CB78F3B9083D6F
:1012F0002C44097894F8502042EA811284F8502056
:101300001846F0BD830003F1A043D3F8002722F074
:101310000202C3F80027E8E7082685F83060334664
:1013200022623546234483F84800D4E7AB0003F13A
:10133000804303F5C0430978D3F8104524F44734BB
:1013400024F44074C3F8104502020904D3F81005D0
:1013500001F4403102F4F8520A430243C3F8102565
:101360000020F0BD0B23ADE7002385F8303022606C
:101370001D46B0E7FC010020F0B42E4D2E1882B0BF
:1013800096F93030072B1CDD2B4493F848309B092D
:10139000032B41D0012B14BF4FF440314FF40031E7
:1013A000800000F1A040D0F8002722F44032C0F8BD
:1013B0000027D0F800370B43C0F8003702B0F0BC6C
:1013C0007047DAB2072AF9D8980000F1804000F59A
:1013D000C04003F140029200D0F8104592B202F1F1
:1013E0008042002744F0010402F5C042C0F81045D5
:1013F0000197019817600029E0D096F9302055F840
:101400002220002ADAD001220B4902FA03F3C1F8A4
:10141000043302B0F0BC70474FF0A043D3F810354E
:10142000C34013F0010F0CBF4FF400314FF44031B3
:10143000B6E700BFFC010020006000404FF0A04371
:10144000D3F8103523FA00F000F00100704700BF18
:101450002DE9F04F87B00023CC4A01931168012990
:1014600000F00A821E46CA4B1A68012A00F0F68173
:10147000C84B1A68012A00F0E381C74B1A68012A99
:1014800000F0D081C54B1A68012A00F0BD81C44B21
:101490001A68012A00F0AA81C24B1A68012A00F0DA
:1014A0009781C14B1A68012A00F08481BF4B1A68EA
:1014B000012A00F05E8116F0FF0F1AD0BC4F012503
:1014C0000024A30003F180432E4203F5C0434FEAFA
:1014D00045050BD0D3F8100557F82420D3F8101584
:1014E000C0F30420C1F3014102B190470134082C3C
:1014F000E7D1002E02DB07B0BDE8F08F00224FF0ED
:10150000FF33AB4C02920393012502AE94F95010C5
:101510004F1C2DD0C9B221F0C00006AB4FEAD00E4F
:1015200003EB0E0701F0070317F80C2C05FA03F381
:101530001A421DD02218890992F9302054F822202D
:10154000002A00F0F080032900F0F0804FEA800EBE
:101550000EF1A04E17F814CCDEF800771CEA030356
:10156000C7F3014940F0B880B9F1030F00F0D7810B
:101570004FF0030A4FF002094FF00108002794F9D9
:101580005110481C2DD0C9B221F0C00006AB4FEA63
:10159000D00C03EB0C0E01F007031EF80C2C05FA1F
:1015A00003F31A421DD02218890992F9302054F809
:1015B0002220002A00F0CA80032900F0CA804FEAE6
:1015C000800C0CF1A04C1EF814BCDCF800E71BEA00
:1015D000030FCEF3014E40F09080BEF1030F00F0F8
:1015E0008A8194F952104A1C2CD0C9B221F0C00053
:1015F00006AB4FEAD00C03EB0C0E01F007031EF80C
:101600000C2C05FA03F31A421CD02218890992F90E
:10161000302054F82220002A00F08F80032900F0A7
:101620008E804FEA800C0CF1A04C1EF814ACDCF854
:1016300000E71AEA030FCEF3014E6AD1BEF1030FA1
:1016400000F0468194F953104B1C2CD0C9B221F004
:10165000C00006AB4FEAD00E03EB0E0201F0070309
:1016600012F80CCC05FA03F31CEA030F1BD004EBB1
:10167000000C89099CF930C054F82C90B9F1000F86
:101680006ED003296ED04FEA800E0EF1A04E12F8F4
:1016900014CCDEF800271CEA030FC2F3014211D17B
:1016A000032A00F0F580002F3FF425AF4FF0A04350
:1016B000019AD3F810359A423FF41DAF029A019374
:1016C000039223E7022AEED1032900F04681B9F103
:1016D000000FE8D0C847E6E7B9F1020F7FF448AF42
:1016E000032900F043814FF0030A4FF0010800275F
:1016F000002A3FF444AF904741E7BEF1020F7FF468
:1017000070AF032900F02C81002A3FF46AAF9047A4
:1017100067E7BEF1020F95D1032900F02481002A6A
:1017200090D090478EE703297FF422AF16F80EC0C1
:101730004CEA030C06F80EC008E7032982D116F81C
:101740000CA04AEA030A06F80CA06AE703297FF412
:1017500048AF16F80CB04BEA030B06F80CB02EE7B6
:101760000329A0D116F80EC04CEA030C06F80EC0EF
:1017700089E700221A601B6805934FF0A043059A81
:10178000D3F81035019346F0004694E6006100401E
:1017900004610040086100400C610040106100409D
:1017A00014610040186100401C6100407C610040F1
:1017B000FC0100206F4AD2F8042312067FF576AEB2
:1017C00000221A601B680493049B46F080066DE6B5
:1017D000684AD2F8042351067FF563AE00221A60EE
:1017E0001B680493049B46F040065AE6614AD2F80F
:1017F000042390067FF550AE00221A601B68049304
:10180000049B46F0200647E65A4AD2F80423D40641
:101810007FF53DAE00221A601B680493049B46F0DE
:10182000100634E6534AD2F8042315077FF52AAE92
:1018300000221A601B680493049B46F0080621E608
:101840004C4AD2F8042357077FF517AE00221A60DE
:101850001B680493049B46F004060EE6454AD2F842
:10186000042392077FF504AE00221A601B680493DC
:10187000049B46F00206FBE53E49D1F8046316F0EE
:1018800001063FF4F0AD136013680493049BEAE58E
:1018900003297FF41CAF4FF40032DEF8003723F445
:1018A0004033CEF80037DEF800371343CEF8003768
:1018B000B9F1000F01D047460CE74FF0A043019A61
:1018C000D3F8103593427FF4F9AE07B0BDE8F08F3E
:1018D00003297FF424AF4FF40037DCF8003723F4FA
:1018E0004033CCF80037DCF800373B43CCF8003706
:1018F0004746C84613E703297FF406AF4FF4003785
:10190000DCF8003723F44033CCF80037DCF800373C
:101910003B43CCF800374746C846D146F4E6032996
:1019200006D0CA461F464FF002094FF00108DFE615
:101930004FF40037DEF8003723F44033CEF8003799
:10194000DEF800373B43CEF800374FF0040A4FF083
:1019500003094FF002080127CAE64FF440329CE722
:101960004FF44037CCE74FF44037B6E74FF44037F9
:10197000E0E700BF00600040094BD3F80433DB0709
:1019800000D4704700B5074B074A0021196083B0A7
:101990001B6801931368019A984703B05DF804FB34
:1019A0000000014000010140540200200220FEF727
:1019B000E9BC00BF2DE9F0470D460646FEF712FDD3
:1019C00003281ED8012D04461FD00ED3022D1AD194
:1019D0001C4B00EB40041C44657895B11A4B1B6806
:1019E0007BB12846BDE8F04718471848FFF7AEFA24
:1019F000144B174A04EB44010B44125D9D78AA4234
:101A0000EBD0BDE8F087BDE8F0870E4F4FEA400805
:101A100008EB0003FA18FD5C53782BB9A044474447
:101A20000B4BBA781A55D8E7DFF8289007484A4692
:101A30004FF40041FFF73AFA0028EFD189F800602F
:101A4000ECE700BF9C020020D00200207C020020B6
:101A5000D80200205802002010B50078FEF7C2FC22
:101A600003280BD8064B00EB40001844407828B1FF
:101A7000044B1B6813B1BDE81040184710BD00BFF0
:101A80009C020020D0020020B34B1B68DB0700D46F
:101A9000704770B5B14EB24D33782C78FBB9172C26
:101AA0001CD8DFE814F0F100140114016300760083
:101AB000830096005D0039002C0039002C00A30043
:101AC000A800A800A800A800A800CE00DE00010120
:101AD000460018001800FEF73FFC2C7070BDA14BAB
:101AE0001B7800203070002B00F00581FEF712FCFF
:101AF0000120FEF70FFC0320FEF70CFCCFE70123CB
:101B000018463370FEF73EFC00224FF480419648A1
:101B1000BDE87040FFF7CAB9012318463370FEF7DD
:101B200031FC002240F6CD418F48BDE87040FFF700
:101B3000BDB98C4B1B78002B00F0FE800020FEF717
:101B4000E9FB0120FEF7E6FB0320FEF7E3FB0020A4
:101B5000FEF7D4FB0120FEF7D1FB15232B7070BDDF
:101B60000020FEF7CBFB07232B7070BD0020FEF793
:101B7000B7FB002800F0D3800020FEF7CBFB46F235
:101B8000666103232B7000227748BDE87040FFF7A1
:101B90008DB90020FEF7A4FB002800F0C5800020CE
:101BA000FEF7B8FB4FF400310423EBE70020FEF70B
:101BB00097FB002800F0BD800020FEF7ABFB05235B
:101BC0002B70002241F69A116748BDE87040FFF77C
:101BD0006DB90020FEF7D6FB06232B70002240F6DD
:101BE000CD416148BDE87040FFF760B9FEF7B4FB36
:101BF0000C232B7070BD5D48FFF7A8F9D4F11104D8
:101C000005467BD0002879D1012C13D0C82303FBD3
:101C100004F44FF4FA704FF400430021C3FB0401B5
:101C20004FF47A72002300F067FB2A4601464F48C2
:101C3000FFF73CF90220FEF761FB4A4B01221A70C4
:101C400070BD484B1B78002B79D00020FEF762FB5B
:101C50000120FEF75FFB0320FEF75CFB12232B70D5
:101C600070BD404B1B78002B6FD00020FEF752FB5D
:101C70000120FEF74FFB0320FEF74CFB0020FEF790
:101C80003DFB13232B7070BD364B1B78002B59D0B6
:101C90000020FEF73FFB0120FEF73CFB0320FEF790
:101CA00039FB00232B7070BD2E4B1B78002B4FD0BF
:101CB0000020FEF72FFB0120FEF72CFB0320FEF790
:101CC00029FB0120FEF71AFB14232B7070BD0020A6
:101CD000FEF706FBC8B10020FEF71CFB022C4EF2FB
:101CE000666118BF4FF400312C7000221E48BDE819
:101CF0007040FFF7DBB8FEF719FBD0E60220FEF7D5
:101D000009FB184B00221A7070BDFEF7F7FA43F278
:101D1000333141F69A13022C08BF1946E4E7FEF767
:101D2000EDFA41F69A112CE7FEF7E8FA43F2333167
:101D30003AE7FEF7E3FA42E7FEF7F8FA07E7FEF7BD
:101D4000F5FA8BE7FEF7F2FAABE7FEF7EFFA95E765
:101D5000FEF7ECFAB5E700BFA8020020AC020020B5
:101D6000D402002059020020B00200205C020020B2
:101D7000F0B5204A204B1060044610F0020083B0FA
:101D8000196013D01D4B1E480E210F271026112558
:101D9000197040F266620421DF709E715D72FEF779
:101DA000B7FBA0B1E3071DD403B0F0BDE20719D41F
:101DB000144A15480021FFF767F80028F4D1134AA8
:101DC0001348012103B0BDE8F040FFF75DB8FEF70E
:101DD000F9FB0028E6D101460E4A0F48FFF754F8F8
:101DE000E10703D50190FEF7DFFA01980028DFD064
:101DF00003B0F0BDA8020020D00200209C02002009
:101E000028260000891A000050260000AD190000A5
:101E100048260000591A00004C260000FEF7D2BBED
:101E20000E2800D070470020FEF768BA08B5FEF70C
:101E30007DFAFEE708B5FEF7B7FAFFF7CFF8B8B9B5
:101E40000020FFF7EBF8FEF75DFFD0B9154902203F
:101E5000FFF78EFFE8B9FFF7E1FF00BB4FF0A042AC
:101E60004FF40053C2F80C3540BF20BF20BFF9E744
:101E7000FEF7BEFB0020FFF7D1F8FEF743FF002876
:101E8000E4D0FEF7B5FB07490220FFF771FF0028F9
:101E9000E1D0FEF7ADFBFFF7C1FF0028DED0FEF773
:101EA000A7FBDBE7211E00000649074A074B9B1AE8
:101EB00003DD043BC858D050FBDC00F013F8FEF7FC
:101EC000D5F900006426000000000020700000200A
:101ED000FEE7FEE7FEE7FEE7FEE7FEE7FEE7FEE7DA
:101EE000FEE7FEE7F0B4B24B1A78062A1BD0B14ADF
:101EF000D2F8883043F47003C2F88830BFF34F8FB4
:101F0000BFF36F8F4FF01023D3F80022002AC0F2E6
:101F10007981D3F80432002BC0F27481A64BA74A12
:101F20001A60F0BC704704331B681807DFD1A44B5C
:101F30001B6803F0F002302A00F0298103F0E0036F
:101F4000402B00F024819E4B1B6803F0F003302BE4
:101F500000F00F819A4B1B6803F0F002302A00F06A
:101F6000F88003F0E003402B00F0F380944B1B68F3
:101F700003F0F003302B00F0DC80914B1B6803F082
:101F8000F002302A00F0C18003F0E003402B00F0A3
:101F9000BC808B4B1B6803F0F003302B00F0A78054
:101FA000874B1B6803F0F003302B00F08980844BD3
:101FB0001B6803F0F003502B30D0814B1B6803F0FB
:101FC000F002302A19D003F0E003402B15D07C4BEF
:101FD0001B6803F0F002302A03D003F0E003402B2B
:101FE00085D14FF08043D3F80024D2077FF57FAF2F
:101FF0006FF00102C3F8002479E7724B724A1B6844
:1020000003F04F0313606A4B1B78062B7FF46FAF0E
:102010006E4B1B6818077FF46AAFD8E74FF0805209
:102020006B4BD2F80414C3F82015D2F80814C3F887
:102030002415D2F80C14C3F82815D2F81014C3F8DC
:102040002C15D2F81414C3F83015D2F81814C3F8AC
:102050003415D2F81C14C3F84015D2F82014C3F874
:102060004415D2F82414C3F84815D2F82814C3F83C
:102070004C15D2F82C14C3F85015D2F83014C3F80C
:102080005415D2F83414C3F86015D2F83814C3F8D4
:102090006415D2F83C14C3F86815D2F840144448CB
:1020A000C3F86C15D2F844140278C3F87015062AE8
:1020B0007FF41DAF454B1B681C077FF418AF7CE70E
:1020C000444E454C4549464B0527012500203F22FB
:1020D0003760256008601A60354B1B78062B7FF44B
:1020E00006AF3A4B1B681D077FF401AF5FE7304B2B
:1020F0003C4A1B780321062B11607FF4F8AE334B6A
:102100001B681E077FF4F3AE4AE74FF080430022BE
:10211000C3F80C21C3F81021C3F83825244B1B78D1
:10212000062B7FF470AF294B1B681F077FF4DFAECF
:102130002FE72D491E4ACB68127823F08073062AB8
:10214000CB607FF4D4AE214B1B681B077FF4CFAE6E
:1021500013E7264B164A1B6812782549C3F342330E
:10216000062A0B60B8D1194B1B681A077FF4BFAE63
:10217000FCE60F4B1F4A1B781F491160062B7FF4AA
:10218000B6AE124B1B6819077FF4B1AEE2E61B4BEB
:10219000074A1B6812781A49C3F30423062A0B6006
:1021A000BCD10A4B1B6819073FF4CDAE9FE600BFB8
:1021B000E00F00F000ED00E0000000200090D003F0
:1021C000E80F00F058020010E40E0040E40F00F0A9
:1021D00000C000401056004088560040185600408D
:1021E00014560040A0050040F0ED00E0440200104D
:1021F0003C05004074C007400DF0ADBA2403001048
:1022000040350140184B0122C3F80425D3F80024BF
:10221000002AFBD04FF0102315221349C3F80022E7
:10222000D1F80034002BFBD04FF0102215210E4BBB
:10223000C2F80412D3F80024002AFBD000220A4975
:10224000C3F80425D1F80034002BFBD0BFF34F8F27
:102250000649074BCA6802F4E0621343CB60BFF340
:102260004F8F00BFFDE700BF00E0014000ED00E040
:102270000400FA0508B5074B044613B10021AFF37B
:102280000080054B1868836A03B19847204600F028
:1022900031F800BF000000005426000070B50D4E5C
:1022A0000D4CA41BA4100025A54209D10B4E0C4CCB
:1022B00000F0AAF9A41BA4100025A54205D170BD09
:1022C00056F8253098470135EEE756F825309847FF
:1022D0000135F2E764000020640000206400002063
:1022E0006800002002440346934200D1704703F87F
:1022F000011BF9E7FEE700BF53B94AB9002908BF3F
:1023000000281CBF4FF0FF314FF0FF3000F07AB9CA
:10231000ADF1080C6DE904CE00F006F8DDF804E03C
:10232000DDE9022304B070472DE9F0478C460D46E5
:102330000446089E002B51D18A4217466DD9B2FA45
:1023400082FEBEF1000F0BD0CEF1200C01FA0EF58B
:1023500020FA0CFC02FA0EF74CEA050C00FA0EF417
:102360004FEA174A250CBCFBFAF81FFA87F90AFB5B
:1023700018CC45EA0C4508FB09F3AB420AD9ED1924
:1023800008F1FF3280F02381AB4240F22081A8F1B6
:1023900002083D44ED1AA4B2B5FBFAF00AFB105551
:1023A00044EA054400FB09F9A14509D9E41900F103
:1023B000FF3380F00A81A14540F2078102383C4496
:1023C000A4EB090440EA08400021002E61D024FA61
:1023D0000EF4002334607360BDE8F0878B4207D9A8
:1023E000002E54D0002186E821000846BDE8F08781
:1023F000B3FA83F1002940F08E80AB4202D38242CF
:1024000000F2FA80841A65EB03050120AC46002E29
:102410003FD086E81010BDE8F08712B90127B7FB5E
:10242000F2F7B7FA87FEBEF1000F34D1EB1B3A0C7E
:102430001FFA87FC0121B3FBF2F8250C02FB1833CD
:1024400045EA03450CFB08F3AB4207D9ED1908F147
:10245000FF3002D2AB4200F2D1808046ED1AA3B227
:10246000B5FBF2F002FB105543EA05440CFB00FCFF
:10247000A44507D9E41900F1FF3302D2A44500F2C4
:10248000B8801846A4EB0C0440EA08409DE73146AA
:102490003046BDE8F087CEF1200405FA0EF307FAC6
:1024A0000EF720FA04F83A0C25FA04F448EA030877
:1024B000B4FBF2F14FEA184502FB11441FFA87FC06
:1024C00045EA044501FB0CF3AB4200FA0EF409D9CE
:1024D000ED1901F1FF3080F08A80AB4240F2878035
:1024E00002393D44EB1A1FFA88F5B3FBF2F002FB08
:1024F000103345EA034500FB0CF3AB4207D9ED1955
:1025000000F1FF386FD2AB426DD902383D44EB1A6F
:1025100040EA01418FE7C1F1200722FA07F88B401A
:1025200005FA01F448EA030320FA07FE4FEA134CC8
:10253000FD404EEA040EB5FBFCF94FEA1E440CFBCD
:1025400019551FFA83F844EA054509FB08F4AC4223
:1025500002FA01F200FA01FA08D9ED1809F1FF3088
:1025600043D2AC4241D9A9F102091D442D1B1FFAE7
:102570008EFEB5FBFCF00CFB10554EEA054400FB4B
:1025800008F8A04507D9E41800F1FF3529D2A04585
:1025900027D902381C4440EA0940A4EB0804A0FBF8
:1025A00002894C45C6464D4615D312D056B1BAEBFA
:1025B0000E0364EB050404FA07F7CB401F43CC403D
:1025C000376074600021BDE8F0871846F8E6904651
:1025D000E0E6C245EAD2B8EB020E69EB030501382A
:1025E000E4E72846D7E7404691E78146BEE7014643
:1025F00078E702383C4445E7084608E7A8F10208B6
:102600003D442BE7704700BFF8B500BFF8BC08BCDD
:102610009E467047F8B500BFF8BC08BC9E467047A0
:1026200011121314940000200D000300B5190000CE
:102630000E000300B51900000F000300B5190000DB
:1026400010000300B51900005C0200207C0200208D
:0C265000B0020020040000200000000088
:08265C0010DCFF7F010000000B
:102664000090D00300000000000000000000000003
:102674000000000000000000000000000000000056
:102684000000000000000000000000000000000046
:102694000000000000000000000000000000000036
:1026A4000000000000000000000000000000000026
:1026B4000000000000000000000000000000000016
:1026C40000000000250200000102000000000000DC
:0400000300001EA932
:00000001FF
