:020000040000FA
:10000000082800204D03000055030000570300009E
:10001000590300005B0300005D03000000000000C6
:100020000000000000000000000000005F0300006E
:10003000610300000000000063030000650300008E
:1000400067030000670300009109000067030000D8
:1000500067030000670300009504000067030000C9
:1000600067030000670300006703000067030000E8
:1000700067030000670300006703000067030000D8
:10008000670300006D0600006703000067030000BF
:10009000910600006703000067030000670300008B
:1000A00067030000670300006703000067030000A8
:1000B000670300006703000000000000000000006C
:1000C0006703000067030000670300006703000088
:1000D00067030000670300006703000000000000E2
:1000E0000000000000000000000000000000000010
:1000F0000000000000000000000000000000000000
:1001000000000000000000000000000000000000EF
:1001100000000000000000000000000000000000DF
:1001200000000000000000000000000000000000CF
:1001300000000000000000000000000000000000BF
:1001400000000000000000000000000000000000AF
:10015000000000000000000000000000000000009F
:10016000000000000000000000000000000000008F
:10017000000000000000000000000000000000007F
:10018000000000000000000000000000000000006F
:10019000000000000000000000000000000000005F
:1001A000000000000000000000000000000000004F
:1001B000000000000000000000000000000000003F
:1001C000000000000000000000000000000000002F
:1001D000000000000000000000000000000000001F
:1001E000000000000000000000000000000000000F
:1001F00000000000000000000000000000000000FF
:10020000DFF80CD000F034F9004800474517000033
:100210000828002030B4044654E8000F0D4644E896
:100220000053002BF8D1156030BC704730B4044641
:1002300054E8000F40EA010544E80053002BF7D1D1
:10024000156030BC704730B4044654E8000F00EA33
:10025000010544E80053002BF7D1156030BC70470E
:1002600030B4044654E8000F80EA010544E8005326
:10027000002BF7D1156030BC704730B4044654E809
:10028000000F00EB010544E80053002BF7D1156087
:1002900030BC704730B4044654E8000FA0EB0105B1
:1002A00044E80053002BF7D1156030BC70470000C4
:1002B00030B4044654E8000F0D4644E80053002BC8
:1002C000F8D1156030BC704730B4044654E8000FD4
:1002D00040EA010544E80053002BF7D1156030BC1B
:1002E000704730B4044654E8000F00EA010544E8C2
:1002F0000053002BF7D1156030BC704730B4044672
:1003000054E8000F80EA010544E80053002BF7D1C0
:10031000156030BC704730B4044654E8000F00EB61
:10032000010544E80053002BF7D1156030BC70473D
:1003300030B4044654E8000FA0EB010544E8005334
:10034000002BF7D1156030BC70470000064880478D
:1003500006480047FEE7FEE7FEE7FEE7FEE7FEE7AA
:10036000FEE7FEE7FEE7FEE795060000010200005B
:100370002DE9F05F0546002092469B4688460646DA
:10038000814640241BE0284641464746224600F06D
:100390005FF853465A46C01A914110D31146184689
:1003A000224600F046F82D1A67EB01084F46224618
:1003B0000120002100F03DF817EB00094E41201EFE
:1003C000A4F10104DFDC484631462A464346BDE835
:1003D000F09F0000004870477432000040EA0103BB
:1003E0009B0703D009E008C9121F08C0042AFAD2EB
:1003F00003E011F8013B00F8013B521EF9D27047AF
:10040000D2B201E000F8012B491EFBD27047002256
:10041000F6E710B513460A4604461946FFF7F0FF03
:10042000204610BD421C10F8011B0029FBD1801A88
:100430007047202A04DB203A00FA02F100207047BE
:100440009140C2F1200320FA03F319439040704712
:10045000202A04DB203A21FA02F00021704721FA19
:1004600002F3D040C2F12002914008431946704780
:10047000064C074D06E0E06840F0010394E80700F1
:1004800098471034AC42F6D3FFF7BEFEFC320000B2
:100490001C3300002DE9F04700268CB0DFF8609196
:1004A000B0464FF48075012437460696284601F081
:1004B00047FE38B1D9F80403204203D0284601F0A2
:1004C00035FE26432D1D64007F1CADB2082FEDD3F1
:1004D0004FF4BE74204601F033FE48B1204601F0CF
:1004E00025FE46F0004606AA0121002001F00AFE82
:1004F000444D16F0FF0F15D00127002437420DD0D0
:1005000009EB8401D1F81005D1F81015C0F30420CF
:1005100055F82420C1F3014102B190477F00641CCB
:10052000082CEBD3002E67DA4FF0FF30CDE90880BE
:1005300000263446281910F8507F90F9000027F063
:10054000C008401C44D009A9404601F006FA58B33F
:100550004FEA9719404600F089FE55F820701FB108
:10056000B9F1030F03D00FE0B9F1030F30D108A8A0
:100570004FEAD80208F00703815C4FF0010C0CFA37
:1005800003FC41EA0C0181544FF0A04101EB8800CB
:10059000D0F8000706A9C0F3014A404601F0DDF992
:1005A00018B1BAF1020F03D012E0BAF1030F0FD164
:1005B000B9F1030F08D1BAF1020F1BD00221404656
:1005C00001F084FD761CF6B217B149464046B847A3
:1005D000641C042CAED3002E0ED06A4601210020EC
:1005E00001F090FD06990098884205D00690089881
:1005F00009909DE70321E2E70CB0BDE8F087000019
:10060000006000404001002000F01F0201219140E5
:100610004009800000F1E020C0F88012704700F02F
:100620001F02012191404009800000F1E020C0F844
:100630000011704700F01F02012191404009800025
:1006400000F1E020C0F8001270474907090E0028A9
:1006500006DA00F00F0000F1E02080F8141D70476A
:1006600000F1E02080F800147047000007480021E6
:10067000C0F84011C0F84411C0F84811C0F84C113E
:10068000C0F80011C0F8041102F06ABB001001406C
:1006900002F0B8BAF0B5AE480023021D017801257A
:1006A000101D4FF0805406290BD11678360708D15B
:1006B0000678C6F30316032E06D0042E04D0052EAA
:1006C00002D0062907D00EE0B4F82463A14FC6F388
:1006D00004263E6002E01678360704D10678C6F399
:1006E0000316032E02D0062904D00FE09B4F9A4E2A
:1006F0007E670EE01678360708D10678C6F3031633
:10070000032E06D0042E04D0052E02D0062907D0D1
:100710000EE0D4F84462924FC6F342363E6002E0E7
:100720001678360704D10678C6F30316032E02D0D6
:10073000062906D011E08B4E376827F080773760A6
:100740000EE01678360708D10678C6F30316032E96
:1007500006D0042E04D0052E02D006290AD011E0BE
:100760004FF08046C6F80C31C6F810317C4E361F6B
:10077000336002E01678360704D10678C6F3031614
:10078000032E02D0062905D00CE0754F03266437EE
:100790003E600AE01678360704D10678C6F30316E1
:1007A000032E02D006290DD014E06F4F05263E60BF
:1007B0006D4E783635606C4E083633603F263F1DEF
:1007C0003E6002E01678360704D10678C6F30316B9
:1007D000052E02D0062957D062E0644E3668644F79
:1007E0003E60624E361D36683F1D3E605F4E0836E5
:1007F00036683F1D3E605D4E0C3636683F1D3E60DC
:100800005A4E103636683F1D3E60584E14363668D4
:100810003F1D3E60554E18363668554F20373E60B6
:10082000524E1C3636683F1D3E60504E20363668AC
:100830003F1D3E604D4E243636683F1D3E604B4E98
:10084000283636683F1D3E60484E2C3636683F1DC0
:100850003E60464E30363668454F40373E60434E28
:10086000343636683F1D3E60404E383636683F1D90
:100870003E603E4E3C3636683F1D3E603B4E403645
:1008800036683F1D3E6002E01678360708D10678CC
:10089000C6F30316032E06D0042E04D0052E02D074
:1008A000062907D019E0D4F85812324A01F04F0156
:1008B000116002E0117809070FD10078C0F303102E
:1008C000032803D0042801D0052806D12A4801684E
:1008D000C90702D06FF00101016022487438016835
:1008E00041F470010160BFF34F8FBFF36F8F4FF082
:1008F0001021D1F80002002803DBD1F804020028FF
:1009000022DA1E4A15601E480468002CFCD015240B
:10091000C1F800420568002DFCD0C1F8044201680E
:100920000029FCD0136001680029FCD0BFF34F8F71
:100930000C48F0380168134A01F4E061114301608A
:10094000BFF34F8F00BFFDE710490F480860F0BDAF
:10095000E00F00F0403501400DF0ADBA00C0074097
:100960003C050040FCED00E010560040040400107F
:1009700020C50040E40E00400004004004E50140B2
:1009800000E401400400FA050090D003A00000201C
:100990000448017F04480029024901D002F0F5BA59
:1009A00002F064BA980100200020004002E008C86C
:1009B000121F08C1002AFAD170477047002001E0D9
:1009C00001C1121F002AFBD17047022000F0A0B91C
:1009D00070B50024064D06E06868012110F8340067
:1009E00001F034F8641C28788442F5D3002070BDEF
:1009F00014000020F8B515460C460646052A01D21B
:100A00000720F8BD01F008F918B901F0D7F800285F
:100A1000F7D1104900204E600C70C1E902500E4D14
:100A200008610DE006EBC4006968009181788DF8DB
:100A300001100078094A694601F05AF80028E0D10F
:100A4000641EE4B2EED2BDE8F840054A0021024837
:100A500000F050B81400002098310000FD13000091
:100A60005D13000001F0D4FD01F042FC0028FBD131
:100A7000104C0121208801EB00400FA101F020FD66
:100A800010480068C00700D000BE2088022101EB9A
:100A900000400DA101F014FDBFF34F8F0948E43869
:100AA00001680D4A01F4E06111430160BFF34F8F0B
:100AB00000BFFDE7C8000020466174616C206572CC
:100AC000726F7200F0ED00E053797374656D2072FF
:100AD00065736574000000000400FA050EB500217E
:100AE0000091CDE901106A4644F20100FFF7BAFF18
:100AF0000EBD0000074B9B7823B12AB120B10068DE
:100B0000037C1BB108207047072070474174426185
:100B100000207047D801002070B501F083FF104815
:100B200000240B21047044700E4D817014206C6001
:100B30002C706C70FFF768FD07211420FFF785FD0E
:100B40001420FFF76CFD0848046007211120FFF70F
:100B50007CFD0548001F0068A860002070BD0000F3
:100B6000D801002028000020081501402DE9F84395
:100B7000DFF8709099F802305BB350B3052902D2C8
:100B80000720BDE8F88343691BB3437C012B22D0C7
:100B900000270446002588461646284600F036F809
:100BA000684602F0C5FAC0B1012101700E494460E7
:100BB0000968C0E90218C0E904769DF8000089F8C8
:100BC0000100002000F024F81420FFF733FD284630
:100BD000D7E70820D5E70F46DBE70425002000F023
:100BE00017F8F4E7D8010020041501400649897878
:100BF00039B130B1416921B100210174022102F003
:100C00008FB8082070470000D801002000F002B81B
:100C100000F008B872B602480168491C01607047CC
:100C20003C00002003490868401E086000D162B6FD
:100C3000704700003C0000202DE9F041064608689E
:100C40000C46411C4FF0A0474FF0010506D005FAB5
:100C500000F1C7F80815206801F02EFA6068411C01
:100C600002D0002101F01FFA3079204901EB401039
:100C7000A169007F00283068C0F8241525D0607D68
:100C8000227D31681043C1F86C05D4E90012306848
:100C9000C0F80C15C0F8142524E0A068411C02D04F
:100CA000002101F000FAE068411C05D08540C7F83A
:100CB0000855E06801F000FAD4E902123068C0F883
:100CC0000825C0F81015BDE8F081607D217D3268EF
:100CD0000843C2F86C05D4E900123068C0F8142546
:100CE000C0F80C15207D0128D7D0ECE79801002032
:100CF0000649095C4FF0A040D0F81005C84010F03C
:100D0000010000D0012080F0010070476431000034
:100D100007490B5C4FF0A041D1F804250120984011
:100D200020EA0203C1F808351040C1F80C057047ED
:100D3000603100000249085C012101F0D8B90000CF
:100D4000603100000249085C002101F0D0B90000C8
:100D5000603100000649095C4FF0A040D0F804055E
:100D6000C84010F0010000D0012080F00100704761
:100D7000603100007CB50024084E25460122305D1C
:100D8000009500231146019501F04EF9641C042CD6
:100D9000F4D3BDE87C4000F003B8000060310000EF
:100DA00010B500242046FFF7C5FF641C042CF9D3BE
:100DB00010BD10B500242046FFF7C4FF641C042CAE
:100DC000F9D310BD10B50246064B4FF0FF3000219D
:100DD0005C5C944201D1084610BD491C0429F7D33C
:100DE00010BD0000643100002DE9F0470D4681463A
:100DF000FFF7E8FF0446042836D2DFF874801B486A
:100E00001C4EA8F10C0725B3012D0ED0022D2BD1BD
:100E100004EB440030444578002D25D0B968002902
:100E200022D02846BDE8F047084704EB4401755C32
:100E30000E44717849B10E4A4FF40041093A806876
:100E4000FFF794FE08B987F80390B17808F804100A
:100E5000E2E78068FFF7CAFE04EB4401314418F86A
:100E600004008D78A842D7D0BDE8F0876831000033
:100E7000100000201401002070B50023042810D2B7
:100E80000D4D00EB4004012A02D101290CD00022B3
:100E9000094E00EB4000304461B1012906D002291F
:100EA00006D00723184670BD0E30C2B22A55F9E7A6
:100EB0004270F7E78270F5E71401002070B5002555
:100EC0000E3807280BD8002401262046FFF710FF14
:100ED00008B106FA04F00543641C042CF5DB014854
:100EE000056070BD00000020044A01460020127910
:100EF000D20702D0084600F04DB870470400002029
:100F000070B506461E480024C0E90161B00720D52F
:100F10000025012211462846FFF7AEFF6D1C04464E
:100F2000042D02D2002CF4D013E094B940F2666292
:100F300004211448FFF75EFD04000AD1FFF748FDC5
:100F4000040006D10F48104A0021001FFFF7D2FD10
:100F50000446F00701D0FFF70DFF74B909480B4AAA
:100F600000210C38FFF7C6FD040006D10548084AE9
:100F700001210838FFF7BEFD0446204670BD000081
:100F80000400002074310000D5110000A5150000F8
:100F9000CB0900002DE9F05F6A4C05460026607819
:100FA000B34618B184F801B000F0E4FA664F4FF48C
:100FB0007A694FF4C87A4FF00108182D62D2DFE841
:100FC00005F0AC0C0C31404D62676B746B74BE7DE8
:100FD0007D7D7D7DACAFB2B5BEBE0020FFF7BAFE11
:100FE00000284FF0000008D0FFF7A4FE022D02D128
:100FF0004FF4E16008E0484606E0FFF7A3FE022D4B
:1010000001D1C82000E05046410CC0034FF4FA72F1
:10101000801841F10001257052000023FFF7A8F964
:1010200001462AE00020FFF795FE00284FF000005F
:1010300004D0FFF77FFE4FF44870E5E7FFF782FE2C
:10104000DFE70020FFF786FE00284FF0000002D007
:10105000FFF770FECFE7FFF775FED4E70020FFF73C
:1010600079FE00284FF0000002D0FFF763FE01E098
:10107000FFF768FE257041F69A1100223868FFF7E5
:1010800075FD064646E00020FFF742FE257008E0A9
:10109000002051E025703DE084F801800120FFF739
:1010A00037FE002240F6CD41E8E784F801800120B8
:1010B000FFF72EFE00224FF48041DFE77868FFF74C
:1010C00095FD0646D5F1110000D02EB10220FFF7A4
:1010D00031FE84F802B01DE0012816D980B2C82183
:1010E0004843C117C90341EA5041C0034FF4FA72A3
:1010F000801841F1000152000023FFF739F9014641
:1011000000227868FFF732FD06460220FFF71AFE3C
:1011100084F802803046BDE8F09F00F02BFAB9E772
:1011200000F028FAB4E700F025FA04E000F022FA13
:101130000020FFF707FE0120FFF704FEAAE7FFF7F4
:1011400038FEA7E704000020683100002DE9F041D7
:10115000861C0C4601270020FFF758FD0F48016848
:101160002160D0E90012891A82680446511AB51C20
:1011700007E000BF00F09CFAD4E90001401AA16822
:10118000091A491C8D42F5D820683044206000209F
:10119000FFF73EFD3846BDE8F0810000E403002083
:1011A00030B482680468531C8360A154D0E90112F2
:1011B0008A4202D330BC00F03EBE30BC7047000013
:1011C000034803C8814201D10120704700207047C5
:1011D000E403002000780221FFF706BE70B5044644
:1011E000000E01F0FDFC0506200C01F0F9FC45EABB
:1011F0000045200A01F0F4FC45EA0025204601F0F4
:10120000EFFC284370BD000005494FF0FF3208286D
:1012100041F8202002D3084480F84820704700009D
:1012200040010020F0B54FF0FF3512B10023082631
:1012300001E008230C260C4C05E000BF54F8237095
:101240007F1C04D05B1CB342F8D32846F0BD26189F
:101250005DB286F8305044F82310002AF5D1E11829
:1012600081F84800F1E700004001002002490844ED
:1012700090F9300070470000400100204FF080409E
:101280000022C0F800210121C0F80010D0F8003180
:10129000002BFBD0054B1960C0F80421C0F80810E2
:1012A000D0F804110029FBD0704700001805004059
:1012B0002DE9F05F26484168F1B3DFF898B00E6879
:1012C0008146DBF8004087688078E11B21F07F458C
:1012D000ED1CB0B9DFF880804FF48030C8F84403CB
:1012E000C8F804031120FFF78FF91120FFF797F9D1
:1012F0004FF0010AC8F800A02F2000F037FB89F852
:1013000002A0B54200D23546124BE8193C3320F01A
:101310007F401860DBF800105A46091B21F07F411E
:10132000001B20F07F40C91C81420FD91068186053
:101330002F2000F01BFB00E004E0BDE8F05F11206F
:10134000FFF778B9BDE8F05F01F06CBBBDE8F09F36
:101350002800002004150140001001402DE9F04153
:1013600000260125144C22E06068226900EBC607C4
:10137000387805FA00F1114217D08A43226100F053
:1013800013FC02463878E36805FA00F1194002FAC6
:1013900000F3994209D17978012901D0012100E0B7
:1013A000002151407A6802B19047761CF6B220784D
:1013B0008642D9D3BDE8F081140000200E4910B553
:1013C0000A784C780023A24212D0521CD2B20A7082
:1013D000022A00D10B70084A0B780C3252F82320F5
:1013E00002608868104420F07F408860012010BDB2
:1013F0000360002010BD0000280000202DE9F0410E
:10140000124E07460125BD403068FFF7EFFB00286C
:101410000DD10F4C2069284207D1384600F0C4FB9B
:101420000028E06805D0284304E0A8432061BDE817
:10143000F081A843E060206928432061A1683068FA
:10144000BDE8F0410022FFF791BB00009831000099
:10145000140000202DE9FC5F0E008346DDE90C47F7
:10146000C6F1000098469246814600D40846012500
:1014700003E000BF90FBFAF06D1C5045FADAA84576
:1014800000D9454624B1002E01DB780700D5641E43
:10149000B80702D5B8F1000F0AD0F80708D13CB15F
:1014A000A54205D220215846641EFFF779FEF6E7D3
:1014B000002E02DA4E462D2102E0780703D52B21BB
:1014C0005846FFF76DFE07F0030002280BD1B8F174
:1014D000000F08D13CB1A54205D230215846641E08
:1014E000FFF75EFEF6E7CDE9004743465246314638
:1014F000584601F0C3FDBDE8FC9F000070B50E46E4
:101500000446007918494FF4A27501EB4010017FA1
:101510002068A1B14FF4887101F06EF94FF4907119
:10152000206801F069F94FF49271206801F064F9C4
:101530002946206801F060F90C49206809E04FF461
:101540008E7101F048F92946206801F044F90849F4
:101550002068C0F80413206800F075FA3146BDE831
:10156000704000F054BA00009801002010030200FF
:10157000800002000A4810B5807860B1002401E0C4
:10158000022C06D02046FFF7D5FB641C042CF7D3B1
:1015900010BD0324F6E7BDE81040FFF701BC0000D2
:1015A0000400002003480179C90702D00078FFF742
:1015B000F1BC7047040000202DE9F047394E0027A8
:1015C00080463D46DFF8E090D6F804A057E003D00F
:1015D0000446D0F81C8035E099F8002002EB420167
:1015E000521CD2B289F8002009EBC10199F80230EF
:1015F000091D9A4201D189F8005048680A780446CA
:10160000012A12D0022A02D0032A3BD108E001F0BD
:1016100057FB00B10127257434E00574C06900E070
:1016200070680028F9D170602CE0207C50BB88687D
:101630006060C868A0600869E0604869A061F078EF
:1016400000B165606268B168184B501A20F07F40A5
:10165000984202D2A168084406E0881AA16820F0E6
:101660007F40814202D9081A206000E02560656051
:101670000120A56020742046E56101F003FBB8F16C
:101680000000A4D199F8001099F801008142A3D17B
:1016900017B97168514502D00120BDE8F0870020DC
:1016A000FBE7000028000020D8010020FFFF7F009A
:1016B00070B588B0214800F0FDF82048001F0646AC
:1016C00000F0F8F81E4DD5E9014105E0C0F389129C
:1016D00002EB9050641C044404EA010005EB800016
:1016E000C0688207F2D000200DF1080204EA01036D
:1016F00005EB8303641CDB6842F82030401C0228A1
:10170000F4D3029800F00300012808D002280AD17F
:101710000298032101EB905004EB900403E002983F
:10172000C0F3831004443046002101AAFEF7D9FD1E
:10173000002800D06C6008B070BD0000FC070020DD
:10174000E4030020FFF79AFDFFF7E6F908B1FFF781
:10175000C5F9002000F016FF08B1FFF7BFF900F04F
:10176000B9FD17490320FFF7CBFB08B1FFF7B6F926
:1017700001F0E8F81448134C04601220FFF7B4FBA2
:10178000124D07460326288811A106EB004000F001
:1017900097FE380001D0FFF7A1F90027206848B173
:1017A00001F084F928880FA106EB0040226800F0C0
:1017B0008BFE276000F09CFD0028FBD120BFEDE7E9
:1017C000BD0E00000000002004150040C8000020ED
:1017D000507265737320416E7920427574746F6E18
:1017E0000000000054686520636F6E74656E74734A
:1017F000206F6620746865207061636B6167652087
:1018000077617320257500002DE9F047C7880446ED
:10181000181D16468946B0FBF7F1B0FBF7F207FB3F
:1018200012009A193A44D21CB2FBF7F2DDF820A05C
:1018300001E02468491E0029FBD13D1A8846B542C3
:1018400016D818E0BAF1000F05D0211809EB0800EE
:101850002A46091D04E0204409EB08012A46001D20
:10186000FEF7BCFD00202468761BA844B74201D9CE
:10187000354600E03D46002EE4D1BDE8F08700008B
:1018800030B5024669B100F0ABFE0021084C0BE018
:1018900001EB410304EB830315685B88AB4202D183
:1018A0001160002030BD491C8142F1D3052030BDBC
:1018B000A400002008B501216A46FEF705FD009846
:1018C00008BD70B5044600252846FFF79FF921683A
:1018D0006268086890420ED9401E08600178238A29
:1018E000E26801FB0325227A2168101AC0B20A7946
:1018F000824200D208710020FFF78AF9284670BDA5
:1019000070B505460C460020FFF780F9E868298A83
:10191000201AB0FBF1F12A681068431C13600170B3
:10192000BDE870400020FFF773B910B530B1017AFF
:1019300042680368891AC9B21A6006E00E2010BD19
:1019400003681A68541C1C601170491EC9B2F7D292
:10195000006800210171084610BDC20800F00703AD
:101960000120895C984008407047000000283ED064
:101970001F49204A096800BF00BF00BF00BF00BF69
:1019800000BF00BF00BF91422FD000BF00BF00BF0B
:1019900000BF00BF00BF00BF00BF00BF00BF00BF4F
:1019A00000BF00BF00BF00BF00BF00BF00BF00BF3F
:1019B00000BF00BF00BF00BF00BF00BF00BF00BF2F
:1019C00000BF00BF00BF00BF00BF00BF00BF00BF1F
:1019D00000BF00BF00BF00BF00BF00BF00BF00BF0F
:1019E00000BF00BF00BF00BF00BF0138C3D17047B8
:1019F000A00000200024F40000F01F02012191400B
:101A00004009800000F1E020C0F8801170474907CC
:101A1000090E002806DA00F00F0202F1E02282F837
:101A2000141D03E000F1E02282F8001400F01F0210
:101A3000012191404009800000F1E020C0F88012AF
:101A4000C0F800117047000B40B270472DE9F0411B
:101A50008846054600F0D6FE234E002828461AD0B8
:101A6000FFF704FC304490F848008009032802D0B6
:101A700001280ED007E04FF0A040D0F81005E84054
:101A800010F0010F05D003212846BDE8F04100F019
:101A90001DBB0221F8E700F0C1FE002822D0284635
:101AA000FFF7E4FB04464FF4807000EB84000F4F17
:101AB00081B207EB8400D0F8102542F00102C0F893
:101AC0001025084600F032FBB8F1000F0AD0284676
:101AD000FFF7CCFB56F82000002803D00120A040DF
:101AE000C7F80403BDE8F081400100200060004019
:101AF0002DE9FC41DFF8A480044608EB0400002730
:101B000090F930001346C0170E46401C01D008273C
:101B100041E0F27819462046FFF784FB0546401C59
:101B200038D0B07850B14FF0A04000EB8400D0F82E
:101B3000001721F00201C0F8001707E000217378B8
:101B4000204600910A46019100F080FAF078C0B179
:101B50001348317800EB8500D0F81025114B1A405E
:101B6000C0F810254FF4F8524FF4403302EA042233
:101B700003EA01410A43D0F810150A43C0F81025C2
:101B800009E008EB0500327810F8481F41EA82119D
:101B9000017000E004273846BDE8FC8140010020C8
:101BA00000600040FFE0FCFF4FF0A041D1F81015AD
:101BB000C14011F0010000D00120704770B5144DF4
:101BC00095F8540008B1082070BD0020411E2A1865
:101BD000401CC0B282F830102028F8D300242046E0
:101BE000FFF712FB641CE4B20C2CF8D3072106208B
:101BF000FFF70DFF4FF4BE7000F098FA05494FF063
:101C00000040C1F80403012085F85400002070BD95
:101C10004001002000600040034890F85400002874
:101C200000D0012070470000400100200121B1EBED
:101C3000507F01D101207047002070472DE9F0410D
:101C400005460079164F904607EB40140E46E07E9D
:101C500010B10820BDE8F081707F20772846FEF79C
:101C6000EBFF5FEA080060603169216003D0317FDB
:101C70002846FFF743FC287907EB4010007F002837
:101C8000286801D0082100E00421C0F800150020D8
:101C9000E0752076A0750121E176A076DAE70000F4
:101CA000980100202DE9F047054600793F4E904607
:101CB00006EB40140F46207F18B10846FFF7B6FF29
:101CC00030B1284600F074F820B11120BDE8F0874B
:101CD0001020FBE784F81680A7600027A7822879E8
:101CE0004FF0010806EB40143E46207F002828688C
:101CF00025D04FF49079494600F07EFD4FF4AC7A40
:101D00005146286800F078FD2868A17DA268C0F8D7
:101D10004425C0F848152868C0F808806068F0B904
:101D20004946286800F063FD80465146286800F067
:101D30005EFD58EA0001F3D058BBA7750FE04FF4E1
:101D40008E7A514600F047FD2868C0F80880214689
:101D5000286801F03FF861684FF4807089B130461F
:101D6000B4E75146286800F031FD10B9A08A484513
:101D7000F7D1A08A484505D02146286801F02AF805
:101D800000E08146A08AA17D8842EAD3A08A484526
:101D900001D10F26D1E75146286800F017FD002831
:101DA000F9D02868C0F80C80C7E70000980100202F
:101DB0000079044901EB4010807D002800D001200B
:101DC000704700009801002070B504460079114961
:101DD000002601EB401520682A7FC0F8006568687E
:101DE00088B1207901EB4010007F0028206801D0E5
:101DF000094901E008498C39C0F808132068FFF749
:101E000022FEFFF7F9FD204600F014FDEE766E602D
:101E100070BD000098010020100302000FB408B547
:101E20000399002904D004AA00926A4600F00FF832
:101E300001B05DF814FB10B582680446002A05D095
:101E4000D4E90403216898470020A06010BD2DE963
:101E5000FC4791460C00804676D014F8011B39B13E
:101E600025290ED04046FFF79BF920780028F4D1B1
:101E700098F80C00002867D04046BDE8FC47FFF703
:101E8000DABF0020012221782B291BD02D2902D076
:101E9000302908D102E040F0010001E040F00200EA
:101EA000641C002AEFD100252A290ED02178A1F147
:101EB00030020A2A11D205EB850201EB4205641CAF
:101EC000303DF1E740F00400EAE7D9F800100B1DBF
:101ED000C9F800300968641C0D44217800232E29BC
:101EE0000BD114F8011FA1F130020A2A05D203EB2D
:101EF000830201EB4203303BF3E76C290DD06829E4
:101F00000BD0692921D00BDC252918D0582931D0D4
:101F100063290ED0642915D117E014F8011FECE7EE
:101F2000702969D0732932D075291BD0782909D13D
:101F300020E0D9F80000011DC9F8001001784046E2
:101F4000FFF72EF9641C90E76CE0D9F800100A1D29
:101F5000C9F800200968CDE900500A224046FFF781
:101F600079FAEFE7D9F800100A1DC9F800200968CE
:101F70000A2206E0D9F800100A1DC9F800200968F5
:101F80001022CDE90050404601F078F8DAE7D9F8A0
:101F9000001000270A1DC9F800200E68C00705D1EF
:101FA00012E04046761C7F1CFFF7FAF831780029D2
:101FB000F7D104E0202140466D1EFFF7F1F8BD4245
:101FC000C0D9002DF6D1BDE74EB13046FEF72AFA52
:101FD000074604E0202140466D1EFFF7E1F8BD42B0
:101FE00006D9002DF6D103E04046761CFFF7D8F85D
:101FF00031780029F8D1A5E7D9F80000011DC9F80A
:102000000010056830214046FFF7CAF878214046A5
:10201000FFF7C6F808200021CDE900010346102291
:102020002946B0E7BDE8FC8770B541EA4201DDE929
:1020300004564FF0A04441EA830141EA052104EB34
:10204000800041EA0641C0F8001770BD70B541EA52
:102050004201DDE904564FF0A04441EA830141EA20
:10206000052104EB800041EA0641C0F8001770BD6D
:1020700070B541EA4201DDE904564FF0A04441EA5F
:10208000830141EA052104EB800041EA0641C0F8E2
:10209000001770BD1CB5002100910B460122019173
:1020A000FFF7E6FF1CBD1CB500220B46009211464F
:1020B0000192FFF7DDFF1CBD1CB5002100910B460E
:1020C000012201911146FFF7D3FF1CBD4FF0A04242
:1020D00002EB8000D0F8002722F44032C0F800273D
:1020E000D0F8002742EA0141C0F8001770470122EA
:1020F0004FF0A043824011B1C3F808257047C3F8E0
:102100000C25704718B5084B6C4601441B680093BA
:1021100006E000BF54F82030D3F81035401C08C248
:102120008142F7D818BD000094310000034908B57A
:102130000844002101600068009008BD0060004074
:1021400002494058012800D000207047006000403C
:1021500030B5124B01460020D3F81044224609E066
:10216000157A854205D1401C0A28F7DB4FF0FF3075
:1021700030BD5268002AF3D1421CF9D00872D3F85E
:1021800010242AB152684A60D3F81024516030BD3F
:102190000022C3F810144A6030BD0000E4030020A0
:1021A000F0B595B01C4615460F4608461A9E00F03D
:1021B000E7FA182109A8FEF72AF90E96CDE9095485
:1021C0000023082203A9384600F0F4FA0598069087
:1021D0000498ADF81C0000208DF820000398082614
:1021E00000F00300012802D002281DD03CE0039833
:1021F0003346850AC0F3C2008DF81E0003980FA96C
:10220000C0F380008DF81F000398C0F38314A20070
:10221000384600F0CFFA09A8009006AB22460FA975
:10222000284600F009FA1FE00398840DC0F3C200AD
:102230008DF81E000398C0F380008DF81F00082C55
:1022400001D2254600E0082533462A460FA9384624
:1022500000F0B0FA2E44641B09AB06AA29460FA869
:1022600000F03AF9002CEAD1384600F092FA15B0A5
:10227000F0BD7047012000F0D1BD000010B504484A
:10228000FFF7A2FDBDE81040002000F0C7BD000030
:102290004400002008B5034A00924023024AFFF799
:1022A0007FFF08BD252B0000E4020020084A012919
:1022B00002EBC00005D0022903D0032903D0042972
:1022C00003D00020704700797047407970470000C4
:1022D0001C33000010B5FFF7CDFF04210348FFF7C2
:1022E00037FF02490120487210BD00004C00002059
:1022F0002DE9FE4FFEF764FF10B10020BDE8FE8F10
:102300006D480021C0F81814BFF34F8FD0E9014683
:1023100004EA060100EB81014FF000090AE000BF6A
:10232000C1F3891202EB9151641C0C4404EA0601CA
:1023300000EB8101C9688A07F2D000216A46804615
:1023400004EA060308EB8300641CC06842F821001D
:10235000491C0229F4D3009800F00300022802D09F
:1023600001284DD0A2E000985022810D8A46B2EBA0
:10237000905F00D850210D4665F39F5000900831C2
:102380004E4800F0B4F9070077D000F0F9F94B4659
:1023900008226946384600F013FA04EA0600311AAA
:1023A0008900091D09F1080B8D4222D9424E0C36D5
:1023B00031B1CAB208EB8000691A91460C3004E0D2
:1023C0003046EAB2002691463146CDB201465B4620
:1023D000384600F0F5F90BEB09032EB12A463146D9
:1023E0004FEA070000F0ECF90AF1030004EB900457
:1023F0003AE008EB80015B462A4638460C31F1E7AB
:102400000098C0F38310062800D30620009960F3DB
:102410008911C1F38310801C00918100274800F0CE
:1024200066F9070042D000F0ABF94B460822694636
:10243000384600F0C5F909F1080900250EE000BF93
:1024400004EA060008EB80014B46042238460C31B2
:10245000641C00F0B5F909F104096D1C0098C0F383
:102460008310A842ECD847B1D8F81054D8F8180413
:10247000464660B1384600F08CF917E0687A0128CA
:1024800004D12A6828463946126890476D68002DA5
:10249000F4D1384600F07DF90020FEF7B7FBD6F8FE
:1024A000180400B974600020FEF7B2FBFEF788FE46
:1024B00080F0010022E70000E4030020DC3100008E
:1024C00000231A4600F042BB08B5012300926A4679
:1024D00000F03CFB08BD00002DE9F0470E468046A9
:1024E0001C46924608293ED894F80C900020207390
:1024F0001946104600F0F8F90025B54206D218F842
:1025000005201AA12046FFF789FC03E019A1204607
:10251000FFF784FC6D1C082DEFD317A12046FFF7B1
:102520007DFC0025B54210D218F80570FDF752FF6A
:102530000068C05D10F03E0F01D03A4600E02E2248
:102540000EA12046FFF76AFC03E00DA12046FFF72D
:1025500065FC6D1C082DE5D301222146504600F094
:10256000A5F984F80C90BDE8F087000020253032F2
:1025700078000000202020007C000000256300007F
:1025800020000000114810B5FF218160002101608A
:102590004160C0F81814C0F8141480F81C140C48DA
:1025A00000F0F5F800280FD10A480B490B4B401AF0
:1025B000C108002005E000BF00EB400223F8220024
:1025C000401C8842F8D3002010BD0000E403002026
:1025D000DC3100003C3300001C330000A40000206C
:1025E00002480349401AC008704700003C3300000D
:1025F0001C33000013B56846FFF742F908B100200C
:102600001CBD0248009950F831001CBD1C3300006D
:1026100070B508480125D0F8104480F81C5405E036
:10262000657221682046496888476468002CF7D1A4
:1026300070BD0000E40300202DE9FF4781460C9D9A
:1026400000200C462F7B28739846164629461846CC
:1026500000F04AF9072E42D2DFE806F004090F160F
:102660001F2A360049462846FFF7D8FB37E049467F
:1026700028462268FFF7D2FB31E0D4E9002349461F
:102680002846FFF7CBFB2AE0A0680090D4E900239E
:1026900049462846FFF7C2FB21E0D4E90201CDE913
:1026A0000001D4E9002349462846FFF7B7FB16E0AE
:1026B00004F1080007C88DE80700D4E90023494663
:1026C0002846FFF7ABFB0AE004F108000FC88DE8CD
:1026D0000F00D4E9002349462846FFF79FFB00225C
:1026E0002946404600F0E2F82F73BDE8FF872DE948
:1026F000F041058A80462D1F4819C01CB0FBF5F03B
:10270000C6B24046FFF7DDF8041E19D00020207144
:1027100001206071E58000272546761EC4F8008000
:102720000BE04046FFF7CDF860B16179491C61715B
:10273000286005467F1CC0F80080B742F1D32046D0
:10274000BDE8F081204600F002F80020F8E72DE90E
:10275000F041457901466B1E002201E00968521CD8
:102760009A42FBD30F680146002605E038460C6804
:10277000FFF7C6F82146761CAE42F7D3BDE8F081DC
:1027800008B501216A46001DFDF777FD08BDFFF77A
:10279000CCB838B50446001D01216A46FDF77AFD24
:1027A000009810F0FF0F04D12046BDE83840FFF735
:1027B000CEBF38BD38B501240094FFF725F838BDE9
:1027C00038B500240094FFF71FF838BD40580028A2
:1027D00000D00120704708B50022425040580090B8
:1027E00008BDD0F80403084000D0012070474058CD
:1027F000002800D00120704708B500224250405800
:10280000009008BD0449084490F93000082801DB15
:10281000012070470020704740010020044908440F
:1028200090F93000082801D201207047002070473D
:102830004001002070B5034600791B4901EB4010B0
:102840001968027F4FF0FF30002AD1F80C25D1F82B
:102850001465D1F80855D1F8104504D0C1F80C051D
:10286000C1F8140503E0C1F81405C1F80C05196896
:10287000C1F80805C1F81005501C02D01046FFF73A
:1028800009FC701C02D03046FFF704FC601C02D02B
:102890002046FFF7FFFB681C04D02846BDE87040C7
:1028A000FFF7F8BB70BD00009801002010B50C4682
:1028B000C17949B11AB109A12046FFF7AFFA204604
:1028C000BDE81040FFF7B7BA007A0028F3D00448FB
:1028D00004A102682046FFF7A1FAECE70D0A000008
:1028E0007C0000202573000070B50446C0790D46B9
:1028F00000281CD1207A50B1A179A088FFF7D6FC1E
:102900000B4951F820200BA12846FFF787FAA08831
:102910000021FFF76FFE03460549A079143951F8ED
:1029200020202846BDE8704003A1FFF777BA70BDAC
:102930007C000020257300003C25733E2025733A5F
:102940002000000070B532480024046030490720A0
:10295000091F08602E48001D0460C32000F040F9E4
:102960000506C22000F03CF945EA0045C12000F010
:1029700037F945EA0025C02000F032F90543244824
:1029800018300560C72000F02BF90506C62000F0BE
:1029900027F945EA0045C42000F022F905431C4808
:1029A0001C3005601B48FEF719FC194910310860FE
:1029B0001948FEF713FC16491431086014482030FA
:1029C0000460134901202431086011480830046074
:1029D0000F4912480C3108600D480221283001606F
:1029E0000168021D01F0030309493031022B0AD0AE
:1029F000006800F00300012804D1FF20086040F2C5
:102A00000710106070BD4FF6FF7008600448F8E7CB
:102A10000C15004067452301EFCDAB89010104018E
:102A20002110010070B5012670044FF0E02100254F
:102A3000C1F88001084C4010C4F84803C4F80803EA
:102A400066602F20FEF792FFA660044C2F20A56041
:102A5000FEF78CFFA57070BD00100140280000201B
:102A600070B50546C87D0C4600284FF48471284691
:102A70000AD0FFF7B0FED5F81805627EE1688854E9
:102A8000607E401C607670BDFFF7A5FED5F8180586
:102A900070BD1FB501238DF800308DF8081001922C
:102AA000D0E90012684690471FBD00002DE9F041B3
:102AB000154C0026C4F8006101252560D4F80001FA
:102AC0000028FBD0C4F80C61C4F80850D4F80C01FD
:102AD0000028FBD00820FEF707FA07460B48032121
:102AE000008801EB00400AA1FFF7EAFC380001D0A2
:102AF000FDF7F4FFC4F81061C4F81050D4F81001C9
:102B00000028FBD0BDE8F08100100040C800002084
:102B1000546865207061636B6574207761732073FE
:102B2000656E740010B5084C0020D2B22070201DD4
:102B3000FFF7B8F808B1FDF7D1FF6078002802D0A0
:102B400021780029FAD010BD400000202DE9F8437B
:102B5000224C8846054691461F4669461846A66897
:102B6000FEF7F4FA88B3009800EA060104EB81024C
:102B700052F80C1F21F00301491C401C11605FEA50
:102B8000C56C02D541F0040101E021F0040165F3B8
:102B9000C50167F3891168F39F21116000EA0602FD
:102BA000290C04EB8202401CD160009000200AE056
:102BB000009959F8203001EA060204EB8202491C10
:102BC000D360401C0091B842F2D394F81C0401E099
:102BD000FFF78EFB0028FBD1BDE8F883E40300205B
:102BE000014610B50020CBB24FEA000123FA01F2F2
:102BF00002F00102C1F10704A2401043491C082958
:102C0000F4D310BD2DE9F84F1D4C00256846D4E9DA
:102C100001A6FEF7D3FB002738B30023009A6168B2
:102C20001CE0D1F800C00846944503D9ACEB020281
:102C30000A6015E0A2EB0C0263440760D0F80CC0F8
:102C4000C1698146BCF1000F08D006EB030828F0EB
:102C50007F48C0E9018CC9F81C5005460029E0D125
:102C600028466160FEF7A8FC03E02846FEF7A4FCB6
:102C700010B15046FEF71CFBE770BDE8F88F00006E
:102C8000280000200D4B10B5596831B102680C685E
:102C9000A24204D8A21A0A60C161586010BD0B4656
:102CA00003E00B46C969121B21B10C689442F8D3AA
:102CB000A41A0C600260C161D86110BD2800002018
:102CC0002DE9F041144E77683D462C4603E08442DE
:102CD00004D02546E469002CF9D11BE0D4B1A5420B
:102CE0000BD1F869706040B90C490120886000215F
:102CF000B160F0702F20FEF739FE2168E069E861CD
:102D000010B10268114401607068874202D001204E
:102D1000BDE8F0810020FBE7280000200010014002
:102D2000F8B5064600240D462046FDF76FFF6846BD
:102D300000F0FEF968B10570084946609DF8000092
:102D400048700020FDF764FF1420FDF773FC204657
:102D5000F8BD04240020FDF75BFFF8E7D801002050
:102D60002DE9F041194D6C68002C2CD01848002733
:102D70000068A968B846401A20F07F462068B04233
:102D80000CD82146361A0744E469087C20B181F842
:102D90001080886949698847002CEFD129786878C4
:102DA000814206D1401CC0B26870022801D185F86A
:102DB0000180064869780C3040F82170BDE8F04188
:102DC0001420FDF737BCBDE8F0810000280000208A
:102DD0000415014070B50C4605464FF48E71FFF79F
:102DE000FAFCA18AA068415CA08A401CA082C5F8B8
:102DF0001C1570BD1FB500228DF800208DF808103D
:102E0000816801918275D0E90012684690471FBD24
:102E100001490120087070474000002010B588B0BB
:102E2000044620220E496846FDF7D8FA0620009095
:102E3000C01F0190029003904FF0EB7006900CB110
:102E4000084A00E0002269460748FEF7F7FE08B18D
:102E5000FDF744FE0448001F447008B010BD000098
:102E6000BC310000112E0000440000202DE9FF4776
:102E70000C4605464FF40071FFF7B3FC01274FF4F1
:102E80000178002618B34FF4927949462846FFF797
:102E90009DFCE0B149462846FFF79DFCC5F8088334
:102EA000A07E00B96F6002208DF80000D5F8800484
:102EB000C5F880040390E07D8DF80800E06801907B
:102EC000E6752676D4E900126846904727E004218B
:102ED0002846FFF786FC10B34FF484712846FFF7AD
:102EE00075FCE0B121462846FFF7BAFDE07D617E22
:102EF000884214D1207E38B1617EE268E075206995
:102F0000E0602676667607E0A07E00B96F60C5F8BF
:102F10000883E675617EE2682046FFF7BAFD4FF44C
:102F20008E7841462846FFF751FC88B1A08AA17DE2
:102F3000884204D221462846FFF74CFF08E041466C
:102F40002846FFF748FCA17D11B12046FFF752FF4C
:102F50004FF4A27841462846FFF738FC002812D0EB
:102F600041462846FFF737FCA07E00B12F60E07D88
:102F7000002808D0E675617EE26804B02046BDE80E
:102F8000F047FFF786BDBDE8FF872DE9FF410C46FE
:102F90004FF4927705463946FFF729FC0026C0B169
:102FA00039462846FFF728FC02208DF80000D5F8A6
:102FB0008004C5F880040390D5F83C058DF808001E
:102FC000E0680190E6752676D4E9001268469047DD
:102FD00024E04FF4887739462846FFF708FCE8B12B
:102FE00039462846FFF708FCD5F83C05C1B2E07D1C
:102FF000884213D1207E60B1E268D5F8000220F04B
:103000002000C5F80002207EE0752069E060267689
:1030100001E0E675E2682046FFF73BFD4FF4A2773A
:1030200039462846FFF7E3FB68B139462846FFF7E3
:10303000E3FBE07D38B1E675D5F83C05E268C1B246
:103040002046FFF726FD4FF4907631462846FFF7DD
:10305000CEFB00280FD031462846FFF7CDFBA07DE0
:10306000002808D0D5F84C0504B0C1B22046BDE810
:10307000F041FFF7BFBEBDE8FF8100002DE9F05F22
:103080008346DDE90A4A994690460D4608460127DF
:1030900003E000BFB0FBF8F07F1C4045FAD2B94511
:1030A00000D94F465FEACA7012D18CB15FEA8A70CC
:1030B00002D5B9F1000F01D0202607E0302605E047
:1030C00031465846641EFEF76BF80CB1A742F7D3A1
:1030D0005FF00106B9F1010F02D9A9F1010903E07E
:1030E000B5FBF6F0404502D306FB08F6F2E7DFF841
:1030F0003C9000BFB5FBF6F000FB165519F8001028
:103100005846FEF74DF8B6FBF8F6002EF2D15FEA0E
:10311000CA7009D0002C07D0A74205D220215846FA
:10312000641EFEF73DF8F5E7BDE8F09FA031000012
:103130000A494A788B78521CD2B2934200D10022BD
:103140000B78934201D1002070470270487800EB61
:10315000400001EBC000001D70470000D8010020B6
:10316000111213140D0E0F10D4000020F4000020D3
:10317000200100200D000300E90D00000E000300F7
:10318000E90D00000F000300E90D0000100003002E
:10319000E90D000000000050B8010020030000000D
:1031A000303132333435363738394142434445467D
:1031B000952200007D22000073220000FFFFFFFF28
:1031C000FFFFFFFFFFFFFFFFFFFFFFFF000000000B
:1031D000000000000000D601070100006000002090
:1031E0005800002060000020240300201800000088
:1031F000004040404040404040404141414141400A
:1032000040404040404040404040404040404040BE
:10321000400502020202020202020202020202024D
:103220000220202020202020202020020202020252
:1032300002029090909090901010101010101010AA
:1032400010101010101010101010101002020202B6
:1032500002028888888888880808080808080808FA
:1032600008080808080808080808080802020202F6
:1032700040000000F13100007761726E696E6700F6
:1032800064656275670000001B5B313B33306D0085
:103290001B5B306D000000001B5B313B33316D0068
:1032A0001B5B313B33326D001B5B313B33336D00B5
:1032B0001B5B313B33346D001B5B313B33356D00A1
:1032C0001B5B313B33366D001B5B313B33376D008D
:1032D000696E666F000000006572726F7200000018
:1032E0006770696F7465000075617274000000009A
:1032F00062616C6C6F630000617070003C330000B1
:1033000000000020D4000000AC09000010340000D0
:10331000D400002034270000BC090000E032000087
:1033200000000000E832000000000000F032000061
:1033300000000000F8320000000003000000000060
:10334000000000000000000000000000000000007D
:10335000000000000000000000000000000000006D
:10336000000000000000000000000000000000005D
:10337000000000000000000000000000000000004D
:103380000020004000000000B031000000000000FC
:10339000000000000000000000000000000000002D
:1033A0000000000000000000D83200007832000069
:1033B000D0320000803200009032000088320000DD
:1033C00098320000A0320000A8320000B0320000A5
:1033D000B8320000C0320000C83200000090D003B4
:1033E00000000000000000000000000000000000DD
:1033F00000000000000000000000000000000000CD
:1034000000000000000000000000000000000000BC
:0400000500000201F4
:00000001FF
