:020000040000FA
:10000000A82800204D0300005503000057030000FE
:10001000590300005B0300005D03000000000000C6
:100020000000000000000000000000005F0300006E
:10003000610300000000000063030000650300008E
:100040000907000067030000F50B000067030000CC
:1000500067030000670300006703000085070000D6
:1000600067030000CD0B0000E10B000067030000F8
:1000700067030000670300006703000067030000D8
:1000800067030000610700006703000079060000B5
:10009000CD0800006703000067030000670300004D
:1000A00067030000670300006703000067030000A8
:1000B000670300006703000000000000000000006C
:1000C0006703000067030000670300006703000088
:1000D00067030000670300006703000000000000E2
:1000E0000000000000000000000000000000000010
:1000F0000000000000000000000000000000000000
:1001000000000000000000000000000000000000EF
:1001100000000000000000000000000000000000DF
:1001200000000000000000000000000000000000CF
:1001300000000000000000000000000000000000BF
:1001400000000000000000000000000000000000AF
:10015000000000000000000000000000000000009F
:10016000000000000000000000000000000000008F
:10017000000000000000000000000000000000007F
:10018000000000000000000000000000000000006F
:10019000000000000000000000000000000000005F
:1001A000000000000000000000000000000000004F
:1001B000000000000000000000000000000000003F
:1001C000000000000000000000000000000000002F
:1001D000000000000000000000000000000000001F
:1001E000000000000000000000000000000000000F
:1001F00000000000000000000000000000000000FF
:10020000DFF80CD000F0ECF900480047AD16000014
:10021000A828002030B4044654E8000F0D4644E8F6
:100220000053002BF8D1156030BC704730B4044641
:1002300054E8000F40EA010544E80053002BF7D1D1
:10024000156030BC704730B4044654E8000F00EA33
:10025000010544E80053002BF7D1156030BC70470E
:1002600030B4044654E8000F80EA010544E8005326
:10027000002BF7D1156030BC704730B4044654E809
:10028000000F00EB010544E80053002BF7D1156087
:1002900030BC704730B4044654E8000FA0EB0105B1
:1002A00044E80053002BF7D1156030BC70470000C4
:1002B00030B4044654E8000F0D4644E80053002BC8
:1002C000F8D1156030BC704730B4044654E8000FD4
:1002D00040EA010544E80053002BF7D1156030BC1B
:1002E000704730B4044654E8000F00EA010544E8C2
:1002F0000053002BF7D1156030BC704730B4044672
:1003000054E8000F80EA010544E80053002BF7D1C0
:10031000156030BC704730B4044654E8000F00EB61
:10032000010544E80053002BF7D1156030BC70473D
:1003300030B4044654E8000FA0EB010544E8005334
:10034000002BF7D1156030BC70470000064880478D
:1003500006480047FEE7FEE7FEE7FEE7FEE7FEE7AA
:10036000FEE7FEE7FEE7FEE7D1080000010200001D
:10037000004870477033000040EA01039B0703D038
:1003800009E008C9121F08C0042AFAD203E011F8D4
:10039000013B00F8013B521EF9D27047D2B201E096
:1003A00000F8012B491EFBD270470022F6E710B57A
:1003B00013460A4604461946FFF7F0FF204610BDD3
:1003C000421C10F8011B0029FBD1801A70472DE94F
:1003D000FE4F81EA030404F0004421F00041009440
:1003E0004FF0000B23F0004350EA01045ED052EAC4
:1003F00003045BD0C3F30A54C1F30A552C44A4F29E
:10040000F3340194A0FB0254C1F3130141F48011B1
:10041000C3F3130343F4801301FB024400FB034EB8
:10042000840A970A44EA815447EA8357A4FB076881
:1004300002958D0A05FB07854FEA932C04FB0C54AB
:100440002705029D4FEA065847EA1637B5EB08051F
:100450006EEB070C870E920E47EA811742EA831271
:10046000A7FB0201B6EB0B0164EB00042B0D43EA82
:100470000C335E1844EB1C50DA465146E7FB020190
:10048000C5F313044FEA0B3343EA14534FEA043223
:10049000019C43EA0603A4F10C040294009CCDE9FC
:1004A00000B400F04FF803B0BDE8F08F0020014623
:1004B000F9E70EB5C10F80EAE0700844CA070021D1
:1004C00040F233438DE80E000A460B4600F03AF83E
:1004D00003B000BDC1F30A5210B5C1F3130140F2DD
:1004E000FF3341F480119A4201DA002010BD40F23E
:1004F00033439A42A2F2334203DC524200F003F843
:1005000010BD904010BD202A04DB203A21FA02F0F1
:100510000021704721FA02F3D040C2F1200291403D
:1005200008431946704710B5141E73F1000408DA29
:10053000401C41F1000192185B411A4301D120F0A7
:10054000010010BD2DE9F04D92469B4611B1B1FA64
:1005500081F202E0B0FA80F22032904600F052F8C8
:1005600004460F4640EA0A0041EA0B0153465A4648
:10057000084313D0114653EA010019D0C8F14002D4
:100580005046FFF7C0FF05460E46504659464246C4
:1005900000F038F8084305D0012004E02046394631
:1005A000BDE8F08D0020054346EAE0762C43374352
:1005B0000A986305E40AA0EB08000022FD0A44EA59
:1005C00047540A3002D500200146E9E70105101919
:1005D0006941DDE9084500196941BDE8F04DA2E730
:1005E000064C074D06E0E06840F0010394E8070080
:1005F00098471034AC42F6D3FFF706FE14340000DF
:1006000034340000202A04DB203A00FA02F10020F2
:1006100070479140C2F1200320FA03F31943904040
:10062000704770B58C1810F8015B15F0070301D105
:1006300010F8013B2A1106D110F8012B03E010F845
:10064000016B01F8016B5B1EF9D12B0705D4002368
:10065000521E0DD401F8013BFAE710F8013BCB1A0A
:10066000921C03E013F8015B01F8015B521EF9D5FF
:10067000A142D8D3002070BD10B50121080200F0BE
:1006800097FC02214FF4827000F092FC04214FF499
:10069000847000F08DFCBDE8104008214FF4867096
:1006A00000F086BC00F01F0201219140400980004B
:1006B00000F1E020C0F88012704700F01F02012115
:1006C00091404009800000F1E020C0F8001170471F
:1006D00000F01F02012191404009800000F1E0205C
:1006E000C0F8001270474907090E002806DA00F02A
:1006F0000F0000F1E02080F8141D704700F1E020A9
:1007000080F80014704700002DE9F0414FF4807725
:10071000384601F0D0F80124104EA50748B13846FC
:1007200001F0D0F80120C5F808037470002000F033
:100730002BFC4FF48277384601F0BDF800280BD02F
:10074000384601F0BFF80220C5F80803B470BDE8D0
:10075000F041012000F018BCBDE8F08168010020E4
:1007600007480021C0F84011C0F84411C0F84811F2
:10077000C0F84C11C0F80011C0F8041102F088BB99
:10078000001001402DE9FE434FF48278404602F00C
:1007900039F94C4F00254C4C012600B3404602F07D
:1007A00039F994F82E0010B194F82F10D1B18DF8CA
:1007B0000050616801912189ADF80810E26832B1FA
:1007C000218B618362602181E56010B102E02574B4
:1007D00000E03E6021686846884784F82F5094F80E
:1007E0002E0060B34FF48077384602F00BF930B337
:1007F000384602F00FF9628B94F82D108A420AD91C
:10080000A2EB010080B260832289A2EB0000626843
:1008100002EB400005E007D1E06828B184F82F60C2
:10082000658302F0A9F804E08A4202D184F82F60BF
:100830006583404602F0EEF82248001D06604FF442
:100840008877384602F0DEF848B1384602F0E2F820
:10085000257402208DF800002168684688474FF40F
:100860008A77384602F0CEF828B1384602F0D2F83E
:100870002574BDE8FE834FF000484FF48C7967691A
:100880001DE000BFB7FA87F028FA00F109EB8005F8
:100890008F43284602F0B6F888B1284602F0BAF82D
:1008A000A5F58C75E8088DF8040045F38000401C20
:1008B0008DF800608DF80500216868468847002F94
:1008C000E0D1D6E7007000407C01002002F052BA6F
:1008D000F0B5AE480023021D01780125101D4FF030
:1008E000805406290BD11678360708D10678C6F34E
:1008F0000316032E06D0042E04D0052E02D006299E
:1009000007D00EE0B4F82463A14FC6F304263E607E
:1009100002E01678360704D10678C6F30316032ED4
:1009200002D0062904D00FE09B4F9A4E7E670EE05E
:100930001678360708D10678C6F30316032E06D0BC
:10094000042E04D0052E02D0062907D00EE0D4F8DC
:100950004462924FC6F342363E6002E01678360794
:1009600004D10678C6F30316032E02D0062906D05A
:1009700011E08B4E376827F0807737600EE01678ED
:10098000360708D10678C6F30316032E06D0042EC8
:1009900004D0052E02D006290AD011E04FF080467F
:1009A000C6F80C31C6F810317C4E361F336002E0B9
:1009B0001678360704D10678C6F30316032E02D044
:1009C000062905D00CE0754F032664373E600AE027
:1009D0001678360704D10678C6F30316032E02D024
:1009E00006290DD014E06F4F05263E606D4E783617
:1009F00035606C4E083633603F263F1D3E6002E096
:100A00001678360704D10678C6F30316052E02D0F1
:100A1000062957D062E0644E3668644F3E60624EED
:100A2000361D36683F1D3E605F4E083636683F1DF6
:100A30003E605D4E0C3636683F1D3E605A4E1036A5
:100A400036683F1D3E60584E143636683F1D3E6086
:100A5000554E18363668554F20373E60524E1C367C
:100A600036683F1D3E60504E203636683F1D3E6062
:100A70004D4E243636683F1D3E604B4E2836366854
:100A80003F1D3E60484E2C3636683F1D3E60464E48
:100A900030363668454F40373E60434E3436366810
:100AA0003F1D3E60404E383636683F1D3E603E4E2C
:100AB0003C3636683F1D3E603B4E403636683F1D33
:100AC0003E6002E01678360708D10678C6F30316B2
:100AD000032E06D0042E04D0052E02D0062907D0FE
:100AE00019E0D4F85812324A01F04F01116002E0C7
:100AF000117809070FD10078C0F30310032803D041
:100B0000042801D0052806D12A480168C90702D067
:100B10006FF00101016022487438016841F47001EE
:100B20000160BFF34F8FBFF36F8F4FF01021D1F8EB
:100B30000002002803DBD1F80402002822DA1E4A52
:100B400015601E480468002CFCD01524C1F8004232
:100B50000568002DFCD0C1F8044201680029FCD0D2
:100B6000136001680029FCD0BFF34F8F0C48F038A8
:100B70000168134A01F4E06111430160BFF34F8F34
:100B800000BFFDE710490F480860F0BDE00F00F01E
:100B9000403501400DF0ADBA00C007403C050040B3
:100BA000FCED00E0105600400404001020C5004099
:100BB000E40E00400004004004E5014000E4014070
:100BC0000400FA050090D003F4000020042202493A
:100BD000024800F079BC0000AC0100200090004009
:100BE00004220249024800F06FBC0000B801002056
:100BF00000A000400448017F04480029024901D0B8
:100C000002F05BBA02F0CAB9C40100200020004023
:100C100002E008C8121F08C1002AFAD170477047C5
:100C2000002001E001C1121F002AFBD17047000023
:100C300001F0C4FD01F032FC0028FBD1104C012171
:100C4000208801EB00400FA101F010FD1048006862
:100C5000C00700D000BE2088022101EB00400DA19A
:100C600001F004FDBFF34F8F0948E43801680D4AD5
:100C700001F4E06111430160BFF34F8F00BFFDE756
:100C80004C010020466174616C206572726F7200C5
:100C9000F0ED00E053797374656D207265736574CF
:100CA000000000000400FA050EB500210091CDE916
:100CB00001106A4644F20100FFF7BAFF0EBD0000C2
:100CC000074B9B7823B12AB120B10068037C1BB18C
:100CD0000820704707207047417442610020704728
:100CE000E401002070B501F043FF104800240B21FF
:100CF000047044700E4D817014206C602C706C7008
:100D0000FFF7D0FC07211420FFF7EDFC1420FFF7BC
:100D1000D4FC0848046007211120FFF7E4FC0548D3
:100D2000001F0068A860002070BD0000E4010020E2
:100D300068000020081501402DE9F843DFF87090A5
:100D400099F802305BB350B3052902D20720BDE801
:100D5000F88343691BB3437C012B22D00027044650
:100D6000002588461646284600F026F8684602F018
:100D700077FAC0B1012101700E4944600968C0E9E9
:100D80000218C0E904769DF8000089F801000020EF
:100D900000F014F81420FFF79BFC2846D7E7082042
:100DA000D5E70F46DBE70425002000F007F8F4E75D
:100DB000E40100200415014000F002B800F008B87A
:100DC00072B602480168491C016070477C0000202F
:100DD00003490868401E086000D162B670470000F1
:100DE0007C0000202DE9F041064608680C46411CB5
:100DF0004FF0A0474FF0010506D005FA00F1C7F803
:100E00000815206801F068FA6068411C02D00021D2
:100E100001F059FA3079204901EB4010A169007FB7
:100E200000283068C0F8241525D0607D227D316807
:100E30001043C1F86C05D4E900123068C0F80C15F5
:100E4000C0F8142524E0A068411C02D0002101F064
:100E50003AFAE068411C05D08540C7F80855E068BB
:100E600001F03AFAD4E902123068C0F80825C0F857
:100E70001015BDE8F081607D217D32680843C2F81D
:100E80006C05D4E900123068C0F81425C0F80C15C0
:100E9000207D0128D7D0ECE7C40100202DE9F041E6
:100EA000861C0C4601270020FFF786FF0F480168CB
:100EB0002160D0E90012891A82680446511AB51CD3
:100EC00007E000BF00F0A8FBD4E90001401AA168C8
:100ED000091A491C8D42F5D8206830442060002052
:100EE000FFF76CFF3846BDE8F08100008804002061
:100EF00030B482680468531C8360A154D0E90112A5
:100F00008A4202D330BC01F0CAB830BC704700003E
:100F1000034803C8814201D1012070470020704777
:100F2000880400200348017FB1FA81F1C1F11F015B
:100F3000417670476803002070B5491C114AC9B258
:100F400002EB410332F8115033F8022C5C88AE18E2
:100F500033198E1E72434E1E05FB062204FB01212F
:100F60008289807B521E401E5143584301EB500141
:100F7000B1FBF0F0401C84B228210248FFF715FABB
:100F8000204670BD4003002070B5084C050009D014
:100F900010342168002907D0086820604968284675
:100FA0008847F6E70834F4E770BD000068010020C8
:100FB00010B5044608482258002A0CD0D0F8040383
:100FC000084208D0204600F085FC044920464968C4
:100FD000BDE81040084710BD00300140600000200F
:100FE0002DE9F05F26484168F1B3DFF898B00E684C
:100FF0008146DBF8004087688078E11B21F07F455F
:10100000ED1CB0B9DFF880804FF48030C8F844039D
:10101000C8F804031120FFF745FB1120FFF74DFB33
:101020004FF0010AC8F800A02F2000F00BFD89F84E
:1010300002A0B54200D23546124BE8193C3320F0ED
:101040007F401860DBF800105A46091B21F07F41F1
:10105000001B20F07F40C91C81420FD91068186026
:101060002F2000F0EFFC00E004E0BDE8F05F11206D
:10107000FFF72EBBBDE8F05F01F07ABDBDE8F09F41
:1010800068000020041501400010014038B5114CE3
:101090000546E07E01F02AF9607E04EB4000058100
:1010A000ADF80050607E8DF80200207F627E012145
:1010B00091408843207702D1207607490860616813
:1010C00068468847207F002803D0FFF72BFF00F0F9
:1010D000CDFD38BD68030020007500402DE9FE43BA
:1010E000434D817801262A7F06FA01F31A427CD00B
:1010F00005EB41010088888100F0B2FD002874D121
:101100003C48A5F110074FF0000844685FE0E07B21
:10111000C0B30194D4F804C0002000BF05EB400127
:101120008A8937F81010A1F10F039A4202DB0F31C0
:101130008A4201D9002012E0401CC0B20828EDD339
:1011400044E000BF9CF80710BCF8042005EB410107
:101150008989914201D9012004E0DCF800C0BCF18A
:10116000000FEFD1217C71B10028A07B1CD0012899
:101170002CD9204600F0CCF8ADF8080004208DF8FA
:10118000000020E022E008B3A07B012808D9204617
:1011900000F0BEF8ADF8080002208DF8000001E074
:1011A0008DF8008026740EE0012808D9204600F052
:1011B000AFF8ADF8080003208DF8000001E08DF8CD
:1011C000006084F810802968684688472468002CED
:1011D0009DD1074828212030FFF7E7F80449102265
:1011E0000C31A1F11C00FFF7C7F8BDE8FE83000039
:1011F000200300208000002003480079022801D14C
:1012000000F034BD70470000200300200E4910B5E7
:101210000A784C780023A24212D0521CD2B20A7033
:10122000022A00D10B70084A0B780C3252F82320A6
:1012300002608868104420F07F408860012010BD63
:101240000360002010BD0000680000202DE9F0437D
:101250000346002002462D4E02244FF00109596832
:1012600051E0CD798F79D3F808C006EB450504EB42
:101270008707AD893CF80780A84501D92CF80750AD
:101280008F79D3F808C03CF82780A84501D22CF804
:1012900027508D799F6804EB850837F825C037F80B
:1012A0000870BC4523D9ACEB070C1FFA8CFCBCF1D1
:1012B000000F1CD091F8078006EB4808B8F80C80A6
:1012C000A8EB07074FF47A7807FB08F7B7FBFCF7A2
:1012D000DFF838C0BFB20CF1200C0CEB450597428B
:1012E0006F8008D98D793A4609FA05F00AE04FF087
:1012F0000000BDE8F08305D13A468F7909FA07F579
:1013000045EA000009680029ABD1F2E7200300207C
:101310002DE9F0478146FFF799FF02004FF6FF7075
:101320003CD0514232EA010108D000260446314641
:101330004FF001081A4F99F80E5021E0B2FA82F0EE
:10134000C0F11F0080B223E008FA01FC1CEA020F82
:1013500014D007EB410C37F81130BCF804C05CFA2C
:1013600083F3DBB221B1A5F1010C8C4500D05B0801
:10137000462B03D9B34201D91E460846491CC9B2BF
:101380008D42E1D80749A04201D1088800E00880D9
:10139000C1B24846BDE8F047FFF7CEBDBDE8F087D3
:1013A00040030020800000202DE9FC5F0E008346F2
:1013B000DDE90C47C6F1000098469246814600D40C
:1013C0000846012503E000BF90FBFAF06D1C504574
:1013D000FADAA84500D9454624B1002E01DB78078A
:1013E00000D5641EB80702D5B8F1000F0AD0F8077F
:1013F00008D13CB1A54205D220215846641EFFF712
:1014000077FDF6E7002E02DA4E462D2102E078073E
:1014100003D52B215846FFF76BFD07F00300022888
:101420000BD1B8F1000F08D13CB1A54205D2302153
:101430005846641EFFF75CFDF6E7CDE900474346DA
:1014400052463146584601F0B1FEBDE8FC9F00000F
:1014500070B50E460446007918494FF4A27501EBA9
:101460004010017F2068A1B14FF4887101F0F2FAB9
:101470004FF49071206801F0EDFA4FF492712068FA
:1014800001F0E8FA2946206801F0E4FA0C492068E6
:1014900009E04FF48E7101F0CCFA2946206801F082
:1014A000C8FA08492068C0F80413206800F010FC4E
:1014B0003146BDE8704000F068BB0000C401002068
:1014C00010030200800002002DE9F84300251646B3
:1014D000884604462F4614E04FF4A07000EB8500C8
:1014E0004FF480312258A9404AB1D4F804230A426B
:1014F00005D0275021580091D8E9002190476D1C54
:10150000EDB2B542E8D3BDE8F8830268134602E0C5
:101510008A4204D01268002AFAD10B600160704739
:101520002DE9F047394E002780463D46DFF8E09030
:10153000D6F804A057E003D00446D0F81C8035E06C
:1015400099F8002002EB4201521CD2B289F8002027
:1015500009EBC10199F80230091D9A4201D189F8BD
:10156000005048680A780446012A12D0022A02D0A4
:10157000032A3BD108E001F05BFC00B10127257490
:1015800034E00574C06900E070680028F9D170602B
:101590002CE0207C50BB88686060C868A060086947
:1015A000E0604869A061F07800B165606268B16888
:1015B000184B501A20F07F40984202D2A16808448C
:1015C00006E0881AA16820F07F40814202D9081AFB
:1015D000206000E0256065600120A5602074204641
:1015E000E56101F007FCB8F10000A4D199F8001002
:1015F00099F801008142A3D117B97168514502D011
:101600000120BDE8F0870020FBE700006800002013
:10161000E4010020FFFF7F0070B588B0214800F092
:10162000F7F82048001F064600F0F2F81E4DD5E9F5
:10163000014105E0C0F3891202EB9050641C0444A0
:1016400004EA010005EB8000C0688207F2D00020A8
:101650000DF1080204EA010305EB8303641CDB6857
:1016600042F82030401C0228F4D3029800F0030016
:10167000012808D002280AD10298032101EB9050DA
:1016800004EB900403E00298C0F383100444304656
:10169000002101AAFEF725FE002800D06C6008B0EA
:1016A00070BD0000A008002088040020002001F088
:1016B0003FF808B1FFF7F8FA00F0E2FE1C480321FA
:1016C000008801EB00401BA100F0D0FFFFF70AFBF0
:1016D00008B1FFF7E9FA00F0FBF910B1FFF7E4FAFF
:1016E00002E0002000F016FA40F266611A4800F0AD
:1016F00085F908B1FFF7D8FA1848811C48611831FC
:1017000017484861A1F1180000F0EEF808B1FFF7A2
:10171000CBFA12481A3000F0E7F808B1FFF7C4FA24
:10172000AFF3038000F0BAFE0028FBD1F8E7000019
:101730004C010020436170616369746976652073B0
:10174000656E73696E67206C69627261727920657B
:1017500078616D706C652E006D1900000A00002024
:10176000A12C00002DE9F047C7880446181D164635
:101770008946B0FBF7F1B0FBF7F207FB12009A19AC
:101780003A44D21CB2FBF7F2DDF820A001E0246855
:10179000491E0029FBD13D1A8846B54216D818E0EB
:1017A000BAF1000F05D0211809EB08002A46091DDF
:1017B00004E0204409EB08012A46001DFEF7DCFD89
:1017C00000202468761BA844B74201D9354600E0C2
:1017D0003D46002EE4D1BDE8F087000030B502465A
:1017E00069B100F0D3FF0021084C0BE001EB41038D
:1017F00004EB830315685B88AB4202D111600020C3
:1018000030BD491C8142F1D3052030BDF8000020D5
:1018100008B501216A46FEF757FD009808BD70B56E
:10182000044600252846FFF7C7FA21686268086861
:1018300090420ED9401E08600178238AE26801FBBD
:101840000325227A2168101AC0B20A79824200D296
:1018500008710020FFF7B2FA284670BD70B5054642
:101860000C460020FFF7A8FAE868298A201AB0FB86
:10187000F1F12A681068431C13600170BDE87040E4
:101880000020FFF79BBA10B530B1017A42680368B7
:10189000891AC9B21A6006E00E2010BD03681A68E2
:1018A000541C1C601170491EC9B2F7D20068002197
:1018B0000171084610BD00F180400068002800D08A
:1018C0000120704708B500F18040002101600068E8
:1018D000009008BD034908B5084400220260006872
:1018E000009008BD00300140044900E011460A683C
:1018F000002AFBD1086000F003B80000840000203B
:101900002DE9F041174C05460026207F38B91648CE
:101910000022A1684068FFF70FFA00281FD10122BA
:10192000EA7302274FF6FF7E686811E08379A968A1
:1019300007EB830321F803E090F807C0237F02FA46
:101940000CF10B4203D10E430B43F6B22377006830
:101950000028EBD12771304600F034F90020BDE8B3
:10196000F081000020030020943200000278164924
:10197000052A21D2DFE802F0270327271300406859
:10198000124A90421FD140690288521C92B20280D2
:101990000888032101EB00400DA100F06BBE0B4A4B
:1019A0004168183291420ED10089A0F57F42FF3A7A
:1019B00009D04A69022110470888022101EB004042
:1019C0000AA100F053BE70474C0100200C0000201B
:1019D000427574746F6E20746F756368656420253A
:1019E0003033642074696D65732E0000556E6B6E24
:1019F0006F776E206576656E742E000010B50C4C06
:101A00000D4AA1600B4920600020486001210B486D
:101A1000FFF756F9002809D108480949001F00F0CE
:101A2000DFF8002802D101202071002010BD000045
:101A30002003002080000020F911000098320000EF
:101A4000DD10000000283ED01F49204A096800BF71
:101A500000BF00BF00BF00BF00BF00BF00BF91427A
:101A60002FD000BF00BF00BF00BF00BF00BF00BF3E
:101A700000BF00BF00BF00BF00BF00BF00BF00BF6E
:101A800000BF00BF00BF00BF00BF00BF00BF00BF5E
:101A900000BF00BF00BF00BF00BF00BF00BF00BF4E
:101AA00000BF00BF00BF00BF00BF00BF00BF00BF3E
:101AB00000BF00BF00BF00BF00BF00BF00BF00BF2E
:101AC00000BF0138C3D17047F40000200024F400A7
:101AD00070B50E4C0025207808B1852513E0002153
:101AE000A16061602161E1604FF0E020D0F8000169
:101AF000012610F0010F03D10721002000F045F866
:101B0000034806602670284670BD0000680100206A
:101B10001805004070B5154D0446A87838B114B1C9
:101B20006168012088470020FFF746F915E0002092
:101B3000FFF742F924B10D4821461030FFF7E5FCCC
:101B4000E86850B94FF48270FFF7BCFE02204107ED
:101B5000C1F80403064901200860E868401CE860F9
:101B6000BDE870400020FFF729B90000680100209F
:101B70000800004000F01F02012191404009800050
:101B800000F1E020C0F8801170474907090E0028D5
:101B900006DA00F00F0202F1E02282F8141D03E0E1
:101BA00000F1E02282F8001400F01F0201219140B0
:101BB0004009800000F1E020C0F88012C0F8001158
:101BC00070470000054901220A7602220A708A7EC7
:101BD00002438A76002008767047000068030020E0
:101BE0002DE9F0410E46D0B1CEB1194D00272F7628
:101BF0000078E8764FF0A04101EB80000324C0F8A4
:101C00000047E87E00F072FB12486E601249847053
:101C1000002000F0EBF820B12046BDE8F08107205D
:101C2000FBE7E87E00F062FB0A49002000F0AEF816
:101C30000028F1D107480121801E00F055F8002846
:101C4000EAD106480760012028700020E5E700007F
:101C5000680300208A000020F92B00000075004076
:101C60000148007E704700006803002070B5144CE6
:101C7000A07E10B3207F012550B912480560207E58
:101C800008B1112070BD2576A07E2077FFF74AF9B4
:101C9000607E0D49401CC0B2C8710C490022C1F8D9
:101CA0001425C1F81005E07E4FF0A0418540C1F831
:101CB0000C5500F0E1F80028E4D1002070BD0000D0
:101CC00068030020007500408A000020007000407A
:101CD000000B40B270470121B1EB507F01D10120D0
:101CE00070470020704700002DE9F041254C064662
:101CF00012200D46C4F808032348017C022918D09D
:101D0000027C01464FF4807891F82E10012A12D0FF
:101D10000222C4F8042301270774466005810022CB
:101D2000C26021B3458390F82D10304600F024FEA8
:101D300025E0122002E0C2682AB10220C4F80403A0
:101D40001120BDE8F081C660058361B94746384679
:101D500000F058FE0028FAD0384600F05BFE294615
:101D6000304600F009FE0220C4F8040307E02946CB
:101D7000304600F001FE404600F04CFE2760002097
:101D8000DFE70000007000407C01002070B50C46C9
:101D900014490546087C08B1112070BD2079124E07
:101DA00008B1012801D10020306001EB4500027F1D
:101DB0001AB911F82D2F521C0A70E1790177217A96
:101DC00041772146284600F0DFFD227AE179284656
:101DD00000F00EFE207908B1012801D10120306009
:101DE000002070BD7C010020007500402DE9F0410D
:101DF0001D4C054694F82C0010B10820BDE8F08178
:101E000009B115B102E00720F8E7184D44F8101B9E
:101E1000174928780860091D68780860E878A07775
:101E2000012727770020207060776060114EE077EF
:101E30006FF00040C6F808034FF4827000F0EAFD2E
:101E4000B01500F0E7FDA9780720FFF79EFE0220FD
:101E5000C6F80403A07F10B10120C6F804030448AB
:101E6000F03807600020C9E77C01002090320000B4
:101E7000F075004000700040084900200A7C012AEB
:101E800001D00820704791F82E30054A01210BB18E
:101E900011607047024A121DFAE700007C01002021
:101EA000007000402DE9F04105460079164F90463C
:101EB00007EB40140E46E07E10B10820BDE8F0812B
:101EC000707F20772846FEF78DFF5FEA080060608C
:101ED0003169216003D0317F2846FFF7B9FA2879AC
:101EE00007EB4010007F0028286801D0082100E09F
:101EF0000421C0F800150020E0752076A0750121AE
:101F0000E176A076DAE70000C40100202DE9F04771
:101F1000054600793F4E904606EB40140F46207F61
:101F200018B10846FFF7D7FE30B1284600F074F824
:101F300020B11120BDE8F0871020FBE784F816805F
:101F4000A7600027A78228794FF0010806EB40140C
:101F50003E46207F0028286825D04FF490794946D6
:101F600000F078FD4FF4AC7A5146286800F072FD1D
:101F70002868A17DA268C0F84425C0F848152868E3
:101F8000C0F808806068F0B94946286800F05DFD37
:101F900080465146286800F058FD58EA0001F3D009
:101FA00058BBA7750FE04FF48E7A514600F041FD03
:101FB0002868C0F808802146286800F0A3FF6168FF
:101FC0004FF4807089B13046B4E75146286800F07C
:101FD0002BFD10B9A08A4845F7D1A08A484505D005
:101FE0002146286800F08EFF00E08146A08AA17D8E
:101FF0008842EAD3A08A484501D10F26D1E751464D
:10200000286800F011FD0028F9D02868C0F80C807D
:10201000C7E70000C40100200079044901EB40102B
:10202000807D002800D0012070470000C4010020FE
:1020300070B5044600791149002601EB401520686F
:102040002A7FC0F80065686888B1207901EB4010EC
:10205000007F0028206801D0094901E008498C3937
:10206000C0F808132068FFF733FEFFF783FD204612
:1020700000F0F6FCEE766E6070BD0000C40100203A
:10208000100302000FB408B50399002904D004AA74
:1020900000926A4600F00FF801B05DF814FB10B52D
:1020A00082680446002A05D0D4E9040321689847D1
:1020B0000020A06010BD2DE9FC4791460C00804631
:1020C00076D014F8011B39B125290ED04046FEF711
:1020D0000FFF20780028F4D198F80C00002867D072
:1020E0004046BDE8FC47FFF7DABF00200122217817
:1020F0002B291BD02D2902D0302908D102E040F035
:10210000010001E040F00200641C002AEFD100252C
:102110002A290ED02178A1F130020A2A11D205EB2A
:10212000850201EB4205641C303DF1E740F00400FC
:10213000EAE7D9F800100B1DC9F800300968641CE3
:102140000D44217800232E290BD114F8011FA1F191
:1021500030020A2A05D203EB830201EB4203303B33
:10216000F3E76C290DD068290BD0692921D00BDC4D
:10217000252918D0582931D063290ED0642915D1CA
:1021800017E014F8011FECE7702969D0732932D0E9
:1021900075291BD0782909D120E0D9F80000011D4C
:1021A000C9F8001001784046FEF7A2FE641C90E7D3
:1021B0006CE0D9F800100A1DC9F800200968CDE9C3
:1021C00000500A224046FFF7EFF8EFE7D9F8001079
:1021D0000A1DC9F8002009680A2206E0D9F8001093
:1021E0000A1DC9F8002009681022CDE900504046B8
:1021F00000F0DCFFDAE7D9F8001000270A1DC9F863
:1022000000200E68C00705D112E04046761C7F1CF6
:10221000FEF76EFE31780029F7D104E02021404618
:102220006D1EFEF765FEBD42C0D9002DF6D1BDE79B
:102230004EB13046FEF7C4F8074604E02021404680
:102240006D1EFEF755FEBD4206D9002DF6D103E006
:102250004046761CFEF74CFE31780029F8D1A5E700
:10226000D9F80000011DC9F800100568302140466A
:10227000FEF73EFE78214046FEF73AFE0820002198
:10228000CDE90001034610222946B0E7BDE8FC87EE
:1022900070B541EA4201DDE904564FF0A04441EA3D
:1022A000830141EA052104EB800041EA0641C0F8C0
:1022B000001770BD1CB5002100910B460122019151
:1022C000FFF7E6FF1CBD1CB500220B46009211462D
:1022D0000192FFF7DDFF1CBD1CB5002100910B46EC
:1022E000012201911146FFF7D3FF1CBD4FF0A04220
:1022F00001218140C2F808157047000030B5124B2B
:1023000001460020D3F81044224609E0157A8542A0
:1023100005D1401C0A28F7DB4FF0FF3030BD526872
:10232000002AF3D1421CF9D00872D3F810242AB144
:1023300052684A60D3F81024516030BD0022C3F8BF
:1023400010144A6030BD000088040020F0B595B03C
:102350001C4615460F4608461A9E00F0E7FA18215B
:1023600009A8FEF722F80E96CDE9095400230822A9
:1023700003A9384600F0F4FA059806900498ADF8E1
:102380001C0000208DF820000398082600F00300B0
:10239000012802D002281DD03CE003983346850A6C
:1023A000C0F3C2008DF81E0003980FA9C0F380008F
:1023B0008DF81F000398C0F38314A200384600F084
:1023C000CFFA09A8009006AB22460FA9284600F0D4
:1023D00009FA1FE00398840DC0F3C2008DF81E00B7
:1023E0000398C0F380008DF81F00082C01D2254609
:1023F00000E0082533462A460FA9384600F0B0FA17
:102400002E44641B09AB06AA29460FA800F03AF92E
:10241000002CEAD1384600F092FA15B0F0BD7047B2
:10242000012000F093BD000010B50448FFF700FE46
:10243000BDE81040002000F089BD00009800002099
:1024400008B5034A00924023024AFFF77FFF08BD08
:10245000792C000088030020084A012902EBC00003
:1024600005D0022903D0032903D0042903D000207A
:10247000704700797047407970470000343400009D
:1024800010B5FFF7CDFF04210348FFF737FF0249DE
:102490000120487210BD0000A00000202DE9FE4F71
:1024A000FEF736FD10B10020BDE8FE8F6D4800211B
:1024B000C0F81814BFF34F8FD0E9014604EA0601B3
:1024C00000EB81014FF000090AE000BFC1F389125F
:1024D00002EB9151641C0C4404EA060100EB8101FB
:1024E000C9688A07F2D000216A46804604EA0603DA
:1024F00008EB8300641CC06842F82100491C0229D3
:10250000F4D3009800F00300022802D001284DD037
:10251000A2E000985022810D8A46B2EB905F00D86D
:1025200050210D4665F39F50009008314E4800F051
:10253000B4F9070077D000F0F9F94B460822694654
:10254000384600F013FA04EA0600311A8900091D22
:1025500009F1080B8D4222D9424E0C3631B1CAB274
:1025600008EB8000691A91460C3004E03046EAB26C
:10257000002691463146CDB201465B46384600F012
:10258000F5F90BEB09032EB12A4631464FEA070055
:1025900000F0ECF90AF1030004EB90043AE008EBD8
:1025A00080015B462A4638460C31F1E70098C0F3BB
:1025B0008310062800D30620009960F38911C1F327
:1025C0008310801C00918100274800F066F9070005
:1025D00042D000F0ABF94B4608226946384600F07D
:1025E000C5F909F1080900250EE000BF04EA06005C
:1025F00008EB80014B46042238460C31641C00F085
:10260000B5F909F104096D1C0098C0F38310A842C4
:10261000ECD847B1D8F81054D8F81804464660B141
:10262000384600F08CF917E0687A012804D12A684E
:1026300028463946126890476D68002DF4D1384617
:1026400000F07DF90020FEF7B7FBD6F8180400B9BA
:1026500074600020FEF7B2FBFEF75AFC80F0010028
:1026600022E7000088040020D832000000231A4628
:1026700000F036BB08B5012300926A4600F030FB3B
:1026800008BD00002DE9F0470E4680461C469246E4
:1026900008293ED894F80C90002020731946104663
:1026A00000F038FA0025B54206D218F805201AA124
:1026B0002046FFF7E7FC03E019A12046FFF7E2FC04
:1026C0006D1C082DEFD317A12046FFF7DBFC00257A
:1026D000B54210D218F80570FDF74AFE0068C05DDB
:1026E00010F03E0F01D03A4600E02E220EA1204607
:1026F000FFF7C8FC03E00DA12046FFF7C3FC6D1CEB
:10270000082DE5D301222146504600F0E5F984F872
:102710000C90BDE8F08700002025303278000000E2
:10272000202020007C000000256300002000000025
:10273000114810B5FF218160002101604160C0F89F
:102740001814C0F8141480F81C140C4800F0F5F8A4
:1027500000280FD10A480B490B4B401AC108002032
:1027600005E000BF00EB400223F82200401C884235
:10277000F8D3002010BD000088040020D8320000EB
:102780007434000034340000F8000020024803498B
:10279000401AC00870470000743400003434000050
:1027A00013B56846FFF71AF808B100201CBD0248AF
:1027B000009950F831001CBD3434000070B5084851
:1027C0000125D0F8104480F81C5405E0657221689A
:1027D0002046496888476468002CF7D170BD000026
:1027E000880400202DE9FF4781460C9D00200C46FF
:1027F0002F7B2873984616462946184600F08AF91A
:10280000072E42D2DFE806F004090F161F2A360011
:1028100049462846FFF736FC37E0494628462268F5
:10282000FFF730FC31E0D4E9002349462846FFF7A2
:1028300029FC2AE0A0680090D4E9002349462846F4
:10284000FFF720FC21E0D4E90201CDE90001D4E941
:10285000002349462846FFF715FC16E004F108005E
:1028600007C88DE80700D4E9002349462846FFF74A
:1028700009FC0AE004F108000FC88DE80F00D4E954
:10288000002349462846FFF7FDFB00222946404623
:1028900000F022F92F73BDE8FF872DE9F041058A8A
:1028A00080462D1F4819C01CB0FBF5F0C6B240464B
:1028B000FEF7B5FF041E19D00020207101206071C1
:1028C000E58000272546761EC4F800800BE04046D0
:1028D000FEF7A5FF60B16179491C6171286005466A
:1028E0007F1CC0F80080B742F1D32046BDE8F081DC
:1028F000204600F002F80020F8E72DE9F041457984
:1029000001466B1E002201E00968521C9A42FBD36B
:102910000F680146002605E038460C68FEF79EFF6A
:102920002146761CAE42F7D3BDE8F08108B50121FF
:102930006A46001DFDF7A1FC08BDFEF7A4BF38B52F
:102940000446001D01216A46FDF7A4FC009810F022
:10295000FF0F04D12046BDE83840FFF7CEBF38BD99
:1029600038B501240094FEF7FDFE38BD38B50024CB
:102970000094FEF7F7FE38BD024A1060101D01609A
:10298000704700002C76004010B50A784B78302450
:1029900002F0030204EA03131A438B784FF4E06455
:1029A00004EA03231A43CB784FF4805404EA033338
:1029B0001A430B794FF4E02404EA03431A434B799A
:1029C0004FF4801404EA03531A438B79240104EA78
:1029D00003631A43030105481844C0F81825CA794F
:1029E000097AC0F81415C0F8102510BD0070004019
:1029F000030103481844C0F81425C0F810157047A7
:102A00000070004002494058002800D00120704763
:102A100000700040034908B50844002202600068C5
:102A2000009008BD007000404058002800D00120F0
:102A3000704708B5002242504058009008BDD0F8B9
:102A40000403084000D0012070474058002800D0FF
:102A50000120704708B5002242504058009008BD40
:102A600070B5034600791B4901EB40101968027FDD
:102A70004FF0FF30002AD1F80C25D1F81465D1F8B9
:102A80000855D1F8104504D0C1F80C05C1F814055B
:102A900003E0C1F81405C1F80C051968C1F8080570
:102AA000C1F81005501C02D01046FFF703FC701C43
:102AB00002D03046FFF7FEFB601C02D02046FFF735
:102AC000F9FB681C04D02846BDE87040FFF7F2BB54
:102AD00070BD0000C401002010B50C46C17949B199
:102AE0001AB109A12046FFF7CDFA2046BDE81040F3
:102AF000FFF7D5BA007A0028F3D0044804A1026891
:102B00002046FFF7BFFAECE70D0A0000D0000020D6
:102B10002573000070B50446C0790D4600281CD10D
:102B2000207A50B1A179A088FFF796FC0B4951F8A3
:102B300020200BA12846FFF7A5FAA0880021FFF767
:102B40002FFE03460549A079143951F82020284664
:102B5000BDE8704003A1FFF795BA70BDD00000201A
:102B6000257300003C25733E2025733A20000000A9
:102B700070B5012670044FF0E0210025C1F88001F6
:102B8000084C4010C4F84803C4F8080366602F20BE
:102B9000FEF758FFA660044C2F20A560FEF752FFF9
:102BA000A57070BD001001406800002070B505469A
:102BB000C87D0C4600284FF4847128460AD0FFF7E0
:102BC00038FFD5F81805627EE1688854607E401CA5
:102BD000607670BDFFF72DFFD5F8180570BD1FB5E5
:102BE00001238DF800308DF808100192D0E9001211
:102BF000684690471FBD000010B504461548C07ECA
:102C0000FFF774FB01216068FFF76EF86068B0F9A8
:102C10000000FDF74EFC9FED101B53EC112BFDF750
:102C2000D6FB9FED0F1B53EC112BFDF7D0FB9FED57
:102C30000E1B53EC112BFDF7CAFB9FED0D1B53EC44
:102C4000112BFDF7C4FBFDF745FCBDE8104080B239
:102C5000FEF71CBA68030020333333333333E33FCA
:102C60000000000000408F4000000000000008400D
:102C7000000000000000503F10B5084C0020D2B208
:102C80002070201DFFF742F908B1FEF70DF86078BB
:102C9000002802D021780029FAD010BD940000202D
:102CA00070B5084D04462888A04209D00648032183
:102CB0002246008801EB004004A1FFF7DBFC2C80DA
:102CC00070BD0000080000204C010020536C6964B6
:102CD00065722076616C75653A20253033642E006C
:102CE0002DE9F843224C8846054691461F46694621
:102CF0001846A668FEF7D2F888B3009800EA0601E5
:102D000004EB810252F80C1F21F00301491C401C06
:102D100011605FEAC56C02D541F0040101E021F0C9
:102D2000040165F3C50167F3891168F39F21116000
:102D300000EA0602290C04EB8202401CD1600090DC
:102D400000200AE0009959F8203001EA060204EB5D
:102D50008202491CD360401C0091B842F2D394F81F
:102D60001C0401E0FFF79AFB0028FBD1BDE8F883C3
:102D7000880400202DE9F84F1D4C00256846D4E951
:102D800001A6FEF743FA002738B30023009A6168D2
:102D90001CE0D1F800C00846944503D9ACEB020210
:102DA0000A6015E0A2EB0C0263440760D0F80CC087
:102DB000C1698146BCF1000F08D006EB030828F07A
:102DC0007F48C0E9018CC9F81C5005460029E0D1B4
:102DD00028466160FEF7A4FB03E02846FEF7A0FB4F
:102DE00010B15046FEF7FCF8E770BDE8F88F000020
:102DF000680000200D4B10B5596831B102680C68AD
:102E0000A24204D8A21A0A60C161586010BD0B46E4
:102E100003E00B46C969121B21B10C689442F8D338
:102E2000A41A0C600260C161D86110BD6800002066
:102E30002DE9F041144E77683D462C4603E084426C
:102E400004D02546E469002CF9D11BE0D4B1A54299
:102E50000BD1F869706040B90C49012088600021ED
:102E6000B160F0702F20FEF7EDFD2168E069E861A8
:102E700010B10268114401607068874202D00120DD
:102E8000BDE8F0810020FBE7680000200010014051
:102E90002DE9F041194D6C68002C2CD01848002702
:102EA0000068A968B846401A20F07F462068B04202
:102EB0000CD82146361A0744E469087C20B181F811
:102EC0001080886949698847002CEFD12978687893
:102ED000814206D1401CC0B26870022801D185F839
:102EE0000180064869780C3040F82170BDE8F04157
:102EF0001420FDF7EDBBBDE8F08100006800002064
:102F00000415014070B50C4605464FF48E71FFF76D
:102F100090FDA18AA068415CA08A401CA082C5F8EF
:102F20001C1570BD1FB500228DF800208DF808100B
:102F3000816801918275D0E90012684690471FBDF3
:102F400001490120087070479400002010B588B036
:102F5000044620220E496846FDF70EFA062000902E
:102F6000C01F0190029003904FF0EB7006900CB1DF
:102F7000084A00E0002269460748FEF793FF08B1BF
:102F8000FDF792FE0448001F447008B010BD000019
:102F9000B8320000412F0000980000202DE9FF47C3
:102FA0000C4605464FF40071FFF749FD01274FF429
:102FB0000178002618B34FF4927949462846FFF766
:102FC00033FDE0B149462846FFF733FDC5F80883D5
:102FD000A07E00B96F6002208DF80000D5F8800453
:102FE000C5F880040390E07D8DF80800E06801904A
:102FF000E6752676D4E900126846904727E004215A
:103000002846FFF71CFD10B34FF484712846FFF7E4
:103010000BFDE0B121462846FFF7C8FDE07D617E4B
:10302000884214D1207E38B1617EE268E075206963
:10303000E0602676667607E0A07E00B96F60C5F88E
:103040000883E675617EE2682046FFF7C8FD4FF40D
:103050008E7841462846FFF7E7FC88B1A08AA17D1B
:10306000884204D221462846FFF74CFF08E041463B
:103070002846FFF7DEFCA17D11B12046FFF752FF85
:103080004FF4A27841462846FFF7CEFC002812D024
:1030900041462846FFF7CDFCA07E00B12F60E07DC1
:1030A000002808D0E675617EE26804B02046BDE8DD
:1030B000F047FFF794BDBDE8FF872DE9FF410C46BF
:1030C0004FF4927705463946FFF7BFFC0026C0B1A2
:1030D00039462846FFF7BEFC02208DF80000D5F8DF
:1030E0008004C5F880040390D5F83C058DF80800ED
:1030F000E0680190E6752676D4E9001268469047AC
:1031000024E04FF4887739462846FFF79EFCE8B163
:1031100039462846FFF79EFCD5F83C05C1B2E07D54
:10312000884213D1207E60B1E268D5F8000220F019
:103130002000C5F80002207EE0752069E060267658
:1031400001E0E675E2682046FFF749FD4FF4A277FB
:1031500039462846FFF779FC68B139462846FFF71B
:1031600079FCE07D38B1E675D5F83C05E268C1B27E
:103170002046FFF734FD4FF4907631462846FFF79E
:1031800064FC00280FD031462846FFF763FCA07D81
:10319000002808D0D5F84C0504B0C1B22046BDE8DF
:1031A000F041FFF7BFBEBDE8FF8100002DE9F05FF1
:1031B0008346DDE90A4A994690460D4608460127AE
:1031C00003E000BFB0FBF8F07F1C4045FAD2B945E0
:1031D00000D94F465FEACA7012D18CB15FEA8A709B
:1031E00002D5B9F1000F01D0202607E0302605E016
:1031F00031465846641EFDF77BFE0CB1A742F7D35B
:103200005FF00106B9F1010F02D9A9F1010903E04C
:10321000B5FBF6F0404502D306FB08F6F2E7DFF80F
:103220003C9000BFB5FBF6F000FB165519F80010F6
:103230005846FDF75DFEB6FBF8F6002EF2D15FEAC8
:10324000CA7009D0002C07D0A74205D220215846C9
:10325000641EFDF74DFEF5E7BDE8F09F9C320000CF
:103260000A494A788B78521CD2B2934200D100228C
:103270000B78934201D1002070470270487800EB30
:10328000400001EBC000001D70470000E401002079
:10329000010007001A000000F00200203031323334
:1032A00034353637383941424344454641240000DD
:1032B000292400001F240000FFFFFFFFFFFFFFFF86
:1032C000FFFFFFFFFFFFFFFF000000000000000006
:1032D0000000D60107010000B4000020AC0000206F
:1032E000B4000020C8030020180000000040404047
:1032F00040404040404041414141414040404040C9
:103300004040404040404040404040404005020274
:103310000202020202020202020202020220202033
:10332000202020202020200202020202020290908F
:10333000909090901010101010101010101010108D
:1033400010101010101010100202020202028888E1
:1033500088888888080808080808080808080808ED
:1033600008080808080808080202020240000000D5
:10337000ED3200007761726E696E67006465627598
:10338000670000001B5B313B33306D001B5B306D11
:10339000000000001B5B313B33316D001B5B313B98
:1033A00033326D001B5B313B33336D001B5B313BB4
:1033B00033346D001B5B313B33356D001B5B313BA0
:1033C00033366D001B5B313B33376D00696E666FC2
:1033D000000000006572726F72000000636C6F6322
:1033E0006B000000636F6D7000000000707069007A
:1033F000736161646300000074696D6572000000B0
:10340000756172740000000062616C6C6F63000093
:10341000617070007434000000000020580100004A
:1034200022060000E0340000580100205027000070
:10343000200C0000DC33000000000000E43300003A
:1034400000000000EC33000000000000F03300003A
:1034500000000000F833000000000000003400000D
:1034600000000000083400000000000010340000DC
:103470000000030041139001B2071B205C041201FD
:10348000D2011A3C1413580113203292041A441426
:10349000193C3B044C083C010154084B0202548A7D
:1034A00003290129193B697712204240031EAC32DF
:1034B00023D4331A74041ACC041A7C041A8C041A08
:1034C00084041A94041A9C041AA4041AAC041AB4AE
:1034D000041ABC041AC40411046090D00300000054
:0400000500000201F4
:00000001FF
