:020000040000FA
:10000000082C0020E9030000F1030000F3030000C6
:10001000F5030000F7030000F903000000000000F2
:10002000000000000000000000000000FB030000D2
:10003000FD03000000000000FF03000001040000B9
:10004000A908000003040000A10C00000304000044
:10005000030400000304000003040000250900005D
:1000600003040000790C00008D0C00000304000064
:100070000304000003040000030400000304000064
:100080000304000001090000030400001908000037
:100090006D0A0000030400000304000003040000D4
:1000A0000304000003040000030400000304000034
:1000B0000304000003040000000000000000000032
:1000C0000304000003040000030400000304000014
:1000D0000304000003040000030400000304000004
:1000E00003040000030400000304000000000000FB
:1000F00000000000030400000000000003040000F2
:1001000000000000000000000000000000000000EF
:1001100000000000000000000000000000000000DF
:1001200000000000000000000000000000000000CF
:1001300000000000000000000000000000000000BF
:1001400000000000000000000000000000000000AF
:10015000000000000000000000000000000000009F
:10016000000000000000000000000000000000008F
:10017000000000000000000000000000000000007F
:10018000000000000000000000000000000000006F
:10019000000000000000000000000000000000005F
:1001A000000000000000000000000000000000004F
:1001B000000000000000000000000000000000003F
:1001C000000000000000000000000000000000002F
:1001D000000000000000000000000000000000001F
:1001E000000000000000000000000000000000000F
:1001F00000000000000000000000000000000000FF
:10020000DFF80CD000F0BCFA0048004705310000D0
:10021000082C002030B4044654E8000F0D4644E892
:100220000053002BF8D1156030BC704730B4044641
:1002300054E8000F40EA010544E80053002BF7D1D1
:10024000156030BC704730B4044654E8000F00EA33
:10025000010544E80053002BF7D1156030BC70470E
:1002600030B4044654E8000F80EA010544E8005326
:10027000002BF7D1156030BC704730B4044654E809
:10028000000F00EB010544E80053002BF7D1156087
:1002900030BC704730B4044654E8000FA0EB0105B1
:1002A00044E80053002BF7D1156030BC70470000C4
:1002B00030B4044654E8000F0D4644E80053002BC8
:1002C000F8D1156030BC704730B4044654E8000FD4
:1002D00040EA010544E80053002BF7D1156030BC1B
:1002E000704730B4044654E8000F00EA010544E8C2
:1002F0000053002BF7D1156030BC704730B4044672
:1003000054E8000F80EA010544E80053002BF7D1C0
:10031000156030BC704730B4044654E8000F00EB61
:10032000010544E80053002BF7D1156030BC70473D
:1003300030B4044654E8000FA0EB010544E8005334
:10034000002BF7D1156030BC7047000030B4044674
:1003500054E8000F0D4644E80053002BF8D1156017
:1003600030BC704730B4044654E8000F40EA010541
:1003700044E80053002BF7D1156030BC704730B40F
:10038000044654E8000F00EA010544E80053002B3E
:10039000F7D1156030BC704730B4044654E8000F04
:1003A00080EA010544E80053002BF7D1156030BC0A
:1003B000704730B4044654E8000F00EB010544E8F0
:1003C0000053002BF7D1156030BC704730B40446A1
:1003D00054E8000FA0EB010544E80053002BF7D1CF
:1003E000156030BC7047000006488047064800474B
:1003F000FEE7FEE7FEE7FEE7FEE7FEE7FEE7FEE7D5
:10040000FEE7FEE7710A00000102000000487047A5
:10041000706400002DE9FE4399461546884607465C
:1004200001AC022942D3002D40D000200290A8F157
:1004300001004FF0FF36009022E000FB057201FB47
:10044000057011464A469047002805DC54F82600FE
:10045000304444F8260013E060682A4600FB05712A
:1004600054F8040C00FB057007E00B7890F800C00E
:1004700001F801CB00F8013B521E002AF5D176426B
:1004800054F8040C61688842D7DC4B462A4638464B
:10049000FFF7C0FF54F8040C4B46A8EB0001401CCA
:1004A00000FB05702A46491EFFF7B4FFBDE8FE8336
:1004B00010B5431A934209D28318881803E010F844
:1004C000011D03F8011D521EF9D210BD40EA0103BF
:1004D0009B0703D009E008C9121F08C0042AFAD2FA
:1004E00003E011F8013B00F8013B521EF9D210BDA8
:1004F000D2B201E000F8012B491EFBD27047002266
:10050000F6E710B513460A4604461946FFF7F0FF12
:10051000204610BD421C10F8011B0029FBD1801A97
:10052000704710B5002200E0521C835C8C5CA34233
:1005300001D1002BF8D1D8B2E1B2401A10BD034668
:1005400011F8012B00F8012B002AF9D11846704749
:1005500030B505460020034600E05B1C934205D2FF
:10056000EC5CC85C201A01D1002CF6D130BD2DE91D
:10057000FE4F81EA030404F0004421F0004100949E
:100580004FF0000B23F0004350EA01045ED052EA22
:1005900003045BD0C3F30A54C1F30A552C44A4F2FC
:1005A000F3340194A0FB0254C1F3130141F4801110
:1005B000C3F3130343F4801301FB024400FB034E17
:1005C000840A970A44EA815447EA8357A4FB0768E0
:1005D00002958D0A05FB07854FEA932C04FB0C540A
:1005E0002705029D4FEA065847EA1637B5EB08057E
:1005F0006EEB070C870E920E47EA811742EA8312D0
:10060000A7FB0201B6EB0B0164EB00042B0D43EAE0
:100610000C335E1844EB1C50DA465146E7FB0201EE
:10062000C5F313044FEA0B3343EA14534FEA043281
:10063000019C43EA0603A4F10C040294009CCDE95A
:1006400000B400F04FF803B0BDE8F08F0020014681
:10065000F9E70EB5C10F80EAE0700844CA0700212F
:1006600040F233438DE80E000A460B4600F03AF89C
:1006700003B000BDC1F30A5210B5C1F3130140F23B
:10068000FF3341F480119A4201DA002010BD40F29C
:1006900033439A42A2F2334203DC524200F003F8A1
:1006A00010BD904010BD202A04DB203A21FA02F050
:1006B0000021704721FA02F3D040C2F1200291409C
:1006C00008431946704710B5141E73F1000408DA88
:1006D000401C41F1000192185B411A4301D120F006
:1006E000010010BD2DE9F04D92469B4611B1B1FAC3
:1006F00081F202E0B0FA80F22032904600F052F827
:1007000004460F4640EA0A0041EA0B0153465A46A6
:10071000084313D0114653EA010019D0C8F1400232
:100720005046FFF7C0FF05460E4650465946424622
:1007300000F038F8084305D0012004E0204639468F
:10074000BDE8F08D0020054346EAE0762C433743B0
:100750000A986305E40AA0EB08000022FD0A44EAB7
:1007600047540A3002D500200146E9E70105101977
:100770006941DDE9084500196941BDE8F04DA2E78E
:10078000064C074D06E0E06840F0010394E80700DE
:1007900098471034AC42F6D3FFF736FDCC69000021
:1007A000EC690000202A04DB203A00FA02F1002064
:1007B00070479140C2F1200320FA03F3194390409F
:1007C000704770B58C1810F8015B15F0070301D164
:1007D00010F8013B2A1106D110F8012B03E010F8A4
:1007E000016B01F8016B5B1EF9D12B0705D40023C7
:1007F000521E0DD401F8013BFAE710F8013BCB1A69
:10080000921C03E013F8015B01F8015B521EF9D55D
:10081000A142D8D3002070BD10B50121080201F01B
:1008200023FB02214FF4827001F01EFB04214FF4E0
:10083000847001F019FBBDE8104008214FF4867068
:1008400001F012BB00F01F0201219140400980001D
:1008500000F1E020C0F88012704700F01F02012173
:1008600091404009800000F1E020C0F8001170477D
:1008700000F01F02012191404009800000F1E020BA
:10088000C0F8001270474907090E002806DA00F088
:100890000F0000F1E02080F8141D704700F1E02007
:1008A00080F80014704700002DE9F0414FF4807784
:1008B000384603F0B7FA0124104EA50748B1384670
:1008C00003F0B7FA0120C5F808037470002001F0A6
:1008D00025FA4FF48277384603F0A4FA00280BD0AB
:1008E000384603F0A6FA0220C5F80803B470BDE844
:1008F000F041012001F012BABDE8F081800500202E
:1009000007480021C0F84011C0F84411C0F8481150
:10091000C0F84C11C0F80011C0F8041105F084B9FA
:10092000001001402DE9FE434FF48278404604F068
:1009300041FE4C4F00254C4C012600B3404604F0CC
:1009400041FE94F82E0010B194F82F10D1B18DF81B
:100950000050616801912189ADF80810E26832B158
:10096000218B618362602181E56010B102E0257412
:1009700000E03E6021686846884784F82F5094F86C
:100980002E0060B34FF48077384604F013FE30B386
:10099000384604F017FE628B94F82D108A420AD96B
:1009A000A2EB010080B260832289A2EB00006268A2
:1009B00002EB400005E007D1E06828B184F82F6021
:1009C000658304F0B1FD04E08A4202D184F82F600F
:1009D0006583404604F0F6FD2248001D06604FF492
:1009E0008877384604F0E6FD48B1384604F0EAFD61
:1009F000257402208DF800002168684688474FF46E
:100A00008A77384604F0D6FD28B1384604F0DAFD7E
:100A10002574BDE8FE834FF000484FF48C79676978
:100A20001DE000BFB7FA87F028FA00F109EB800556
:100A30008F43284604F0BEFD88B1284604F0C2FD6D
:100A4000A5F58C75E8088DF8040045F38000401C7E
:100A50008DF800608DF80500216868468847002FF2
:100A6000E0D1D6E7007000409405002005F02EB8D4
:100A700030B54FF080500022D0F830110123082902
:100A800002D1D0F8344114B1082909D00BE04FF05D
:100A90008041C1F80C21C1F8102168490A6005E0C5
:100AA000D0F8344114B1082957D059E06449096895
:100AB000644C21606249091D0968241D2160604958
:100AC00008310968241D21605D490C310968241D25
:100AD00021605B4910310968241D21605849143197
:100AE0000968241D2160564918310968554C203485
:100AF000216053491C310968241D2160504920316F
:100B00000968241D21604E4924310968241D216093
:100B10004B4928310968241D216049492C31096855
:100B2000241D2160464930310968464C403421601B
:100B3000434934310968241D21604149383109682D
:100B4000241D21603E493C310968241D21603C4937
:100B500040310968241D216005E0D0F8344114B10A
:100B6000082904D006E0394C3749216005E0D0F867
:100B7000344114B1082904D006E0354CFB21216032
:100B800005E0D0F8344114B1082908D00AE090F803
:100B900058423048016864F30301016005E0D0F871
:100BA000344114B1082905D00EE02B494FF40070F0
:100BB000086002E0D0F8340130B928480168C9075C
:100BC00002D06FF0010101602548016841F4700115
:100BD0000160BFF34F8FBFF36F8F4FF01021D1F83B
:100BE0000002002803DBD1F80402002822DA1D4CA1
:100BF00023601D480368002BFCD01223C1F800328B
:100C00000568002DFCD0C1F8043201680029FCD031
:100C1000226001680029FCD0BFF34F8F10487C3858
:100C20000168124A01F4E06111430160BFF34F8F84
:100C300000BFFDE70F490E48086030BD3805004091
:100C40000404001020C50040488103008C56004079
:100C500018F50040E40E00404096024000040040B9
:100C600088ED00E004E5014000E401400400FA05DD
:100C70000090D0030001002004220249024801F044
:100C80009BBF0000C40500200090004004220249E0
:100C9000024801F091BF0000D005002000A00040F4
:100CA0000448017F04480029024901D005F0DAB860
:100CB00005F049B8DC0500200020004002E008C82B
:100CC000121F08C1002AFAD170477047002001E0C6
:100CD00001C1121F002AFBD17047000004F070F917
:100CE00003F05EFF0028FBD1134C606830B1208810
:100CF000012101EB004011A104F050F812480068F6
:100D0000C00700D000BE6068022806D320880221F8
:100D100001EB00400DA104F041F8BFF34F8F0A48EA
:100D2000E43801680D4A01F4E06111430160BFF34A
:100D30004F8F00BFFDE70000900100204661746105
:100D40006C206572726F7200F0ED00E0537973747D
:100D5000656D207265736574000000000400FA057B
:100D60000EB500210091CDE901106A4644F2010060
:100D7000FFF7B4FF0EBD0000074B9B7823B12AB1EB
:100D800020B10068037C1BB1082070470720704722
:100D90004174426100207047FC05002070B504F0EA
:100DA00013FD104800240B21047044700E4D817017
:100DB00014206C602C706C70FFF744FD0721142028
:100DC000FFF761FD1420FFF748FD08480460072184
:100DD0001120FFF758FD0548001F0068A86000209B
:100DE00070BD0000FC0500206800002008150140CF
:100DF0002DE9F843DFF8709099F802305BB350B3F7
:100E0000052902D20720BDE8F88343691BB3437C60
:100E1000012B22D000270446002588461646284686
:100E200000F036F8684605F0EFF8C0B10121017016
:100E30000E4944600968C0E90218C0E904769DF8CB
:100E4000000089F80100002000F024F81420FFF7CA
:100E50000FFD2846D7E70820D5E70F46DBE7042536
:100E6000002000F017F8F4E7FC050020041501400D
:100E70000649897839B130B1416921B10021017445
:100E8000022104F0B1BE082070470000FC050020DC
:100E900000F002B800F008B872B602480168491CB8
:100EA000016070477C00002003490868401E08600C
:100EB00000D162B6704700007C00002070B5054686
:100EC00008680C46411C04D003F0B6FD206803F00E
:100ED0007FFD6068411C02D0002103F070FD28797D
:100EE0001F4901EB40102968007F0028A069C1F864
:100EF000240523D0607D227D29681043C1F86C054C
:100F0000D4E900122868C0F80C15C0F8142522E0B6
:100F1000A068411C02D0002103F051FDE068411C93
:100F200004D003F089FDE06803F052FDD4E9021219
:100F30002868C0F80825C0F8101570BD607D217DB7
:100F40002A680843C2F86C05D4E900122868C0F882
:100F50001425C0F80C15207D0128D9D070BD0000E3
:100F6000DC0500200249085C012103F079BD000086
:100F70007C6100000249085C002103F071BD0000A3
:100F80007C6100007CB50024084E25460122305DBE
:100F9000009500231146019503F0D6FC641C042C37
:100FA000F4D3BDE87C4000F003B800007C61000091
:100FB00010B500242046FFF7D5FF641C042CF9D39C
:100FC00010BD00002DE9F041861C0C4601270020D1
:100FD000FFF75EFF0F4801682160D0E90012891A0F
:100FE00082680446511AB51C07E000BF01F0ACFF4F
:100FF000D4E90001401AA168091A491C8D42F5D8AC
:101000002068304420600020FFF744FF3846BDE8E8
:10101000F0810000E807002030B482680468531CA7
:101020008360A154D0E901128A4202D330BC03F09C
:1010300092BB30BC70470000034803C8814201D115
:101040000120704700207047E80700200348017F17
:10105000B1FA81F1C1F11F01417670470807002004
:1010600070B5816804468A7C002A4DD0C87C00286F
:101070004AD0121A0844D5B200F114016A1C133088
:10108000FFF716FAA068C17C491EC174A068817C74
:10109000491E81748DB308221C49206903F04EFB60
:1010A000204602F0C5F98178C078814211D1A0684C
:1010B00017A2C17C431808212046143302F084FC97
:1010C000204600F013F929462046BDE8704001F0A3
:1010D000D7B9204600F01EF9204600F007F9A068B5
:1010E0000BA2C17C431808212046143302F06CFC8B
:1010F0002046BDE8704000F003B92069BDE87040AB
:10110000044A03A103F01ABB70BD0000E8120000FE
:10111000257300009C61000070B504468068827CE5
:10112000C17C521A12F0FF053AD0084400F11501B3
:101130002A461430FFF7BCF9A068817C491E8174EF
:10114000204602F075F98178C078814214D1A068F8
:1011500014A2C17C431808212046143302F034FC49
:10116000114A10A1206903F0E9FA6D1EE9B2204688
:10117000BDE8704001F084B9204600F0CBF820466D
:1011800000F0B4F8A06807A2C17C431808212046EB
:10119000143302F019FC2046BDE8704000F0B0B8EE
:1011A00070BD000025730000A06100002DE9F04132
:1011B000044680680F4690F83D11C27C11F001068C
:1011C000817CA1EB0203DDB20AD07F2901D3002D7F
:1011D0007ED0A068C17C08440021077566B113E089
:1011E0007F297CD2002DF4D0831803F114012A4604
:1011F000481CFFF75DF9ECE7A068827C521CD2B274
:101200008274A068143281544DB3204602F010F964
:101210008178C07881420ED1A06832A2C17C431887
:1012200008212046143302F0CFFBA81BC1B2204690
:1012300001F026F921E0204600F06CF8A06829A210
:10124000C17C431808212046143302F0BDFB204620
:1012500000F056F80121204601F0F2F90DE03EB110
:10126000A068827C521CD2B28274A068143281546D
:101270003A461DA1206903F061FAA168C87C401CB0
:10128000C874204601F0E9F80028204603D0BDE8E4
:10129000F04101F001B901F096FA00281FD0204674
:1012A00002F0C6F80546C078A978401A401EC1B2BF
:1012B000204601F073F8204601F0EEF8E878A978AE
:1012C000401AC1B2204601F0C7F92878401E00E05C
:1012D00005E0C1B22046BDE8F04101F0B1B9BDE87A
:1012E000F081000025730000256300000069024AB8
:1012F00002A103F023BA00009461000025730000EE
:101300000069024A024903F019BA00008B6100002B
:10131000FC1200000069024A024903F00FBA000003
:1013200088610000FC1200002DE9F04F4FF0000929
:101330009DB005464E464C46CDF8149000F046FD53
:10134000284601F065FBAA680C2308A901A81432FD
:1013500001F04AFF0346019840B15BB159A2022156
:10136000284602F031FB1DB0BDE8F08F284601F0A1
:1013700093F8F8E75A4859490027A1EB00080DF106
:10138000200A83461AE00FD3284601F066F80100D0
:101390005448089B009001D053A200E054A20221BF
:1013A000284602F011FBDEE70BEBC704606801681A
:1013B0005AF82900FFF7B5F818B17F1CB7EBD80F22
:1013C000E1D94FF0000BCDF868B06068C7680FB185
:1013D000A9684860606809F101044FF0000880685E
:1013E0000DF1580906900198844237D25AF824002A
:1013F00042A1FFF796F850B35AF8240040A1FFF736
:1014000090F820B3424608F101081AAB2146CDF806
:101410000090069800F096FCB8F1000F1ED01A98C4
:10142000E0B101685AF82400FFF77BF80028DAD110
:101430001A98C16829B1A8F10101DDF818B0264653
:10144000059180684FF00008641C0690CBE7A868FF
:1014500090F83D1141F0020180F83D11284600F05E
:10146000A9FF284600F0F9FF10B9284601F014F84A
:10147000BBF1000F12D0CDF800901AAB31465846A0
:10148000059A00F05FFCA9681A980AEB860248608A
:101490000199C368891B284698470AE027B108AA22
:1014A00028460199B84704E017A20221284602F015
:1014B0008BFAA86890F83D1121F0020180F83D11E7
:1014C00051E700000D0A6E6F74207465726D696ECD
:1014D000617465643A2025630D0A00002C6A0000DF
:1014E000EC690000D1610000257325730D0A00002E
:1014F0000D0A257325730D0A000000002D680000F9
:101500002D2D68656C700000506C656173652073EB
:1015100070656369667920737562636F6D6D616E66
:10152000642E0D0A000000002DE9F0410446C06859
:101530008EB00D460026C068324601A903F01FFE9A
:1015400018B100200EB0BDE8F0816DB1019803F034
:10155000F8FDA168D1F82C01401CC1F82C0100F065
:10156000070001287ED10126204601F061FF0546D3
:101570008078012804D9401EC1B2204601F06CF8E1
:101580002878012804D9401EC1B2204600F078FF17
:101590002046FFF7ABFE2EB133A20221204602F017
:1015A00013FA5FE04FF000080023082202A9019817
:1015B00003F0D8FD049805900398ADF818008DF855
:1015C0001C800298082700F00300012802D002289E
:1015D0001DD03CE002983B46860AC0F3C2008DF85D
:1015E0001A00029808A9C0F380008DF81B00029829
:1015F000C0F38315AA00019803F0B4FD20690090A0
:1016000005AB2A4608A9304603F0EEFC1FE002981D
:10161000850DC0F3C2008DF81A000298C0F3800057
:101620008DF81B00082D01D22E4600E008263B460F
:10163000324608A9019803F095FD3744AD1B05AA71
:10164000314608A8236903F0BDFB002DEAD10198BB
:1016500003F077FDE068002201A9C06803F08FFD68
:101660000028A1D001206DE74C6F7374204C4F47C8
:1016700073202D20696E637265617365204C4F473E
:10168000206261636B656E6420717565756520739A
:10169000697A652E0D0A000030B440680468246938
:1016A000A44630BC60477CB500250446019501ABDB
:1016B000012269462046FFF7EFFF019800281CD061
:1016C0009DF800007F28F2D803F058FDA06841780B
:1016D00021B1012947D0022949D14DE0217E9DF851
:1016E0000060B1420DD1807C0028204606D0FFF773
:1016F0001BFE0221204600F0ABF87CBD00F0CCFEC2
:10170000F7E7092E17D004DC002ED0D0082E04D124
:1017100019E01B2E0DD07F2E1DD0FEF777FE00683E
:10172000805D10F03E0FC2D031462046FFF73EFDEF
:10173000BDE701211EE090F83D010007B7D5204626
:1017400000F0A0F8B3E790F83D010007AFD52046C0
:10175000FFF786FCABE790F83D010007A7D52046D0
:10176000FFF7DAFCA3E79DF800105B2901D0457074
:101770009DE7022141709AE74570A16891F83D010B
:101780000207BAD59DF80020413A0C2A8FD2DFE833
:1017900002F007090E31065006540606065886E781
:1017A000012100E00021204601F020F87FE72046DB
:1017B00001F03EFE064600787178884203D1B17888
:1017C000F2789142B4D0717988424FF001012046FD
:1017D0000AD100F0E3FD7179204600F051FEA168C6
:1017E000C87C401CC87462E700F02AFFA068C17C76
:1017F000491C15E0204601F01BFE06460078B17931
:10180000491C884202D1B178012991D001284FF0BA
:101810000101204606D000F033FEA068C17C491EBD
:10182000C17444E700F018FF7179204600F008FF0A
:10183000F3E7204600F0BEFD39E7204600F0E3FD67
:1018400035E7421C62F3000081F83D012FE70000FC
:101850008268022911700BD182680021117582689B
:10186000D1748268917403A20321036802F0ACB8BA
:101870007047000025730000002801D0FEF74ABE23
:10188000704700002DE9F04FA5B04FF00008054665
:10189000CDF82880CDF8108080684746817CC1F162
:1018A0007F01C9B25FEA010B7BD0C27C00F1140159
:1018B0009430FEF7FDFDA8680024C17C084480F840
:1018C0009440FEF7A3FD20900168A8680C23C27C19
:1018D0000244D27C895CC0F83841AA6801F0010951
:1018E0000DA91FA8943201F07FFC0D98FFF7C4FFEB
:1018F000C6B2A2461A940C941F9818B14844401ED0
:10190000B8426AD8B9F1000F01D0002605E00DA851
:1019100050F82700FFF7B0FFC6B200241BA82246EC
:101920000090641C1AAB3946504600F00BFA1A9826
:1019300000286BD001680DA8324650F82700FEF74A
:1019400007FE00280C9802D00028E7D05EE0D8B14E
:101950001A980068FFF790FF0499C0B2884200D936
:101960000490BBF1000F2BD021A800900CAB424695
:101970003946504600F0E6F91A98006883190C9829
:1019800000688219002015E0601E0A901A9800680D
:10199000FFF772FFC0B20490801B584510DAC0B246
:1019A0000DE07FE012F800C0614506D1401C10F048
:1019B000FF0010D0195C0029F4D1834500D983467B
:1019C0001A98B4F101080C90A8D262A2042128460A
:1019D00001F0FAFF1AE0FF20EFE700241BA82246DF
:1019E0000090641C1AAB3946504600F0ABF9ECB3DA
:1019F0001A98002856D001680DA850F82700FEF765
:101A000090FD0028EAD11A98D0F808A0BAF1000F8A
:101A100009D01A9838B11F997F1CFFB201EB090059
:101A20008742FFF469AF0C9800283BD00A984146E2
:101A300040455DD19AF8000038B11BA80A460090D5
:101A40000CAB3946504600F07DF90C980068FFF762
:101A500013FFB04206D00C985A46006881192846F8
:101A600000F070FA2098A968026800E01DE0C87CC8
:101A70000B181B7DD25CD2071DD0897C884211D205
:101A8000284601F0D5FCA9688478C87C401CC8743D
:101A9000284601F0CDFC8078A04225D101212846BE
:101AA00000F0CEFD25B0BDE8F08F2AA20421284623
:101AB00001F08AFFF6E791F83D01C2070FD020F050
:101AC000010081F83D0120212846FFF76FFBA8683F
:101AD00090F83D1141F0010180F83D11E2E720212D
:101AE0002846FFF763FBDDE7284600F0D5FCD9E781
:101AF00000212846049A03F08BFD0DF16C090A9C25
:101B00000EE01AAB224639465046CDF8009000F060
:101B100019F91A98049A0168284603F079FD641CA3
:101B20004445EED917A2032128462B6801F04CFF4B
:101B3000AB6816A208212846143301F045FF284659
:101B400000F048FD0C985A4600688119284600F0BC
:101B5000F9F9A7E75461622066756E6374696F6E68
:101B60003A20636F6D6D616E647320636F756E7480
:101B70006572206F766572666C6F7765642E0D0AEC
:101B8000000000000D0A257300000000257300000E
:101B9000002803D08968012081F83C0170470000CB
:101BA00070B5044640680D4690F8280030B1A06832
:101BB0000068FFF75DF908B108280CD1012685B14E
:101BC000606902F091FD616800220831606902F0ED
:101BD000ADFB08B1062070BD606880F82960002068
:101BE00070BD606890F8280048B9074A0021A068D5
:101BF000FFF7C2F86168002881F82860F0D120461C
:101C0000BDE8704003F033BEC55A000070B504460D
:101C100040680D460260606800224360606880F89A
:101C20002820606880F82920606820220830FEF7AC
:101C30003FFC2C61074A2946606902F077FB0500EA
:101C400005D1E06803F049FC206903F046FC284612
:101C500070BD0000D95C00001A60C0681A4603F02D
:101C600081BB10B50446406902F03EFDA0680068E3
:101C7000BDE81040FFF7FCB87CB51A600446006967
:101C80001A4603F0A8FB05001CD1606902F020FD94
:101C9000C0B9FF20009001236A4601A9206903F022
:101CA000E5FB78B900980199C2B2606902F08AFC3C
:101CB0000546606890F8290020B11DB92069009997
:101CC00003F0BFFB28467CBD2DE9F8431E461546B0
:101CD00088460746002418E0786808EB04016B4644
:101CE0000268D2F80CC02A46E047009804442D1A36
:101CF00058B9B8680178032907D000BF90F83C11A3
:101D00000029FBD0002180F83C11002DE4D1002EE9
:101D100001D000983060BDE8F883000070B5084C31
:101D2000050009D010342168002907D00868206018
:101D3000496828468847F6E70834F4E770BD000094
:101D4000800500202DE9F05F1C460A9E15464FF0E5
:101D5000000959B180B3017839B342683146284649
:101D600090473068D8B12660BDE8F09F1449154807
:101D7000A1EB0008B5EBD80F11D2DFF84CA000267C
:101D8000834609E00BEBC607786801685AF825001E
:101D9000FEF7C7FB30B1761CB6EBD80FF2D3C4F810
:101DA0000090E1E778682060DEE7406800EB021011
:101DB000016809B11860D7E7FFE7C3F80090D3E7DF
:101DC0002C6A0000EC690000040100202DE9F041BC
:101DD000856806460024287D002812D0A046FEF71C
:101DE00015FB0746D0F8000004F1140104F10104CA
:101DF000695CE4B2415CC90705D0002CF4D185F8D8
:101E00001480BDE8F081641E14F0FF040FD0A87C9C
:101E1000021B04F11400291805F11400521CFEF7EE
:101E200047FBB168887C001B8874B168C874B268CD
:101E30003D68937CD01813300446002102E0491C11
:101E4000C9B2401E0778EF5DFF07F8D18442D8D0B1
:101E50005B1A143302F80380B268907C401A9074C5
:101E6000B168C874CDE7000010B504460848225890
:101E7000002A0CD0D0F80403084208D0204601F014
:101E8000E1FF044920464968BDE81040084710BDFD
:101E900000300140600000202DE9F05F26484168D5
:101EA000F1B3DFF898B00E688146DBF80040876830
:101EB0008078E11B21F07F45ED1CB0B9DFF8808010
:101EC0004FF48030C8F84403C8F804031120FEF72B
:101ED000B9FC1120FEF7C1FC4FF0010AC8F800A0C0
:101EE0002F2001F0B9FF89F802A0B54200D2354693
:101EF000124BE8193C3320F07F401860DBF80010EB
:101F00005A46091B21F07F41001B20F07F40C91C6D
:101F100081420FD9106818602F2001F09DFF00E06A
:101F200004E0BDE8F05F1120FEF7A2BCBDE8F05F61
:101F300003F04ABCBDE8F09F680000200415014092
:101F4000001001402DE9F0410446806815460F4617
:101F5000827CC17C531A2A44DEB27F2A37D8002DF6
:101F600035D0084400F1140105F114021044721C2C
:101F7000FEF79EFAA0682A46C17C08443946143010
:101F8000FEF796FAA0681430FFF776FCA16811A25C
:101F90008874A068C17C431808212046143301F0DE
:101FA00013FDA068C17C2944C174204600F055FA95
:101FB00018B9204600F007FC10B1204600F06CFA7A
:101FC000002E04D02046BDE8F04100F003BBBDE880
:101FD000F0810000257300002DE9F05F564C574D4D
:101FE000132622782888002769684FF00F0B4FF0DE
:101FF0001E0946EA004004F1100804F1180A062AF6
:1020000025D2DFE802F0240317265260032903D308
:1020100001224BA102F0C6FE00204146431E52465B
:1020200041F8207042F82030401C0228F8DB0220E2
:10203000207038E0E268002A09D1032903D3022284
:1020400047A102F0AFFEC4F80C9003202070BDE859
:10205000F09FE0680028FAD10420207002F056F8C2
:1020600050B16868032805D3288848A146EA004093
:1020700002F094FE2770EAE702F042F80028FBD154
:10208000686803280FD328884BA146EA004002F075
:1020900085FE6868032806D32888032246EA0040A4
:1020A0004DA102F07FFE58460BE0E268002ACED137
:1020B000032903D304222AA102F074FE0520207014
:1020C0004846E060C3E7E0680028C0D1277002F00E
:1020D0001DF850B168680328B9D328882BA146EAB7
:1020E0000040BDE8F05F02F059BE02F009F8002898
:1020F000FBD16868032805D328882FA146EA004051
:1021000002F04CFED8F80020DAF80030D8F80400CD
:102110001A445208DAF80410626008444308A360C5
:102120006868032893D3288833A146EA0040BDE8B5
:10213000F05F02F03EBE0000300000209001002061
:102140005B535445503A2025645D20546F75636895
:1021500020626F746820706164732E0D0A000000A5
:102160005B535445503A2025645D204D656173757D
:1021700072656D656E7420737461727465643A2063
:10218000776169742033730D0A00000053656E7324
:102190006F722042757379202D20636F6E666967B8
:1021A00075726174696F6E207465726D696E6174A9
:1021B00065642E0D0A0000002D3E206D656173756B
:1021C00072656D656E742066696E697368656420FA
:1021D0004F4B2E0D0A0000005B535445503A20250A
:1021E000645D2052656C6561736520626F74682060
:1021F000706164732E0D0A000D0A4E6577207468B5
:10220000726573686F6C64733A0D0A0941494E3107
:10221000203D2025640D0A0941494E37203D2025E7
:10222000640D0A4D6F64756C652072656164792E6A
:102230000D0A0000012904D9136807A2022101F048
:10224000C3BB0C490A781AB10BA2042101F0BCBB34
:10225000012008707047000025733A20746F6F20CA
:102260006D616E7920706172616D65746572730D58
:102270000A00000030000020636F6E6669677572A7
:102280006174696F6E20616C7265616479206F6E34
:10229000676F696E670D0A0038B5114C0546E07E20
:1022A00002F0D4FB607E04EB40000581ADF80050E5
:1022B000607E8DF80200207F627E0121914088437C
:1022C000207702D120760749086061686846884710
:1022D000207F002803D0FEF7B9FE01F017FF38BDBC
:1022E0000807002000750040144A83781178012BFC
:1022F00010D0022B0ED0072B1FD1032919D005298E
:1023000017D00088916888424FF002000CD300BFBC
:10231000FEF730BE032909D0052907D0008851688F
:1023200088424FF00000F3D2FEF71CBE0088002167
:1023300001E00088012100F0BBB9704730000020A7
:1023400008B5002000901A208DF800000549684665
:1023500001F096FE08B1FEF703FD822001F082FE37
:1023600008BD0000E922000010B501F0CFFE0028F2
:102370000CD007484168032908D30088132141EA9B
:102380000040BDE8104003A102F008BD10BD0000F0
:1023900090010020427573792E000000002904D0BE
:1023A0000A46006901A102F0C9B970471B5B2564A8
:1023B0004200000070B5054601F03AF80446007886
:1023C0006178884203D1A078E17888421AD0E17818
:1023D000A078814204D9081AC1B22846FFF7DEFF6F
:1023E00020786178884205D9401AC1B2284600F0A9
:1023F00047F804E0081AC1B2284600F021F9A8689D
:10240000817CC17470BD70B5054601F011F80446B9
:1024100001788079401C814202D1A07801281BD02C
:10242000A078012804D9401EC1B2284600F014F952
:102430002078A179884206D9401A401EC1B22846A8
:1024400000F01EF805E0081A401CC1B2284600F052
:10245000F7F8A9680020C87470BD10B5044600687C
:10246000FFF70AFA0146A068C27C407B1144B1FB29
:10247000F0F200FB121008B1002010BD012010BDC9
:10248000002904D00A46006901A102F057B970473B
:102490001B5B2564440000000069024A024902F007
:1024A0004DB900008E610000FC1200002DE9FC5FB8
:1024B000002604468DF8046080683546B046B14673
:1024C00080219430FEF71BF84149206902F036F96B
:1024D000206902F040F9002740F2E73B4FF47A7A96
:1024E0006B46012201A92046FFF7D6F80098D8B123
:1024F0009DF804001B2806D0A16891F894101B29B0
:10250000EED152281CD0A26808F19401505408F171
:10251000010000F0FF08B8F1090F08D9A1680420F4
:1025200081F89490BDE8FC9F584601F0DBFC0098D0
:102530000028D5D17F1CBFB25745D1D30D20F1E77C
:10254000A16808F194004A4601F80090A16891F84A
:1025500095005B2803D081F894200B20E2E702204D
:102560006FF02F070AE000BF05EB850507EB450577
:10257000401C2B44C0B29DB2802808D200F19403C5
:10258000CB5C3B2BF0D1401CC0B2802809D30C207F
:10259000C8E700BF06EB860607EB460633449EB24B
:1025A000F1E700F19403CB5C002BF3D1FA20FA2E73
:1025B00001D9087200E00E72FA2D02D9A168887262
:1025C00001E0A0688572A06880F894200020A9E747
:1025D000AC61000070B5054600F02AFF0446807823
:1025E000E178884201D1012600E000262846FFF765
:1025F00034FF18B9284600F0E6F810B12846FFF776
:102600004BFF1EB160782178401A12E0E078A17883
:10261000401AC1B2284600F01FF82078617888423D
:1026200006D9401AC1B22846BDE8704000F008B88B
:10263000081AC1B22846BDE87040FFF721BF00006C
:10264000002904D00A46006901A102F077B870475A
:102650001B5B256443000000002904D00A46006982
:1026600001A102F06BB870471B5B256441000000BC
:102670000E4910B50A784C780023A24212D0521CA1
:10268000D2B20A70022A00D10B70084A0B780C32C1
:1026900052F8232002608868104420F07F40886050
:1026A000012010BD0360002010BD00006800002064
:1026B000074A52F82130834201D242F82100044AED
:1026C000083252F82130834201D942F82100704784
:1026D000400000202DE9F05F17460E00814670D0C3
:1026E00013B1F9B2FFF7ACFF0024FDF78FFE82466D
:1026F000006800E0641C315D415CC907FAD1002527
:102700003046FFF7B9F8D9F80810001B4A7BD11BF7
:10271000814228D306EB040805E000BF18F8051035
:102720000A290CD06D1C8542F8D33119D9F8100054
:1027300002F004F84846BDE8F05FFFF7ADBED9F8F7
:10274000100002F008F8414600232A464846FFF7E9
:10275000BBFA2C444846641CFFF79EFEF9B248467B
:10276000FFF76EFFE1E78B46DAF8001006EB04088E
:1027700018F805000B5CDB0702D0AB460A2804D032
:10278000E819904201D26D1CF2E7D9F8100001F06F
:10279000E2FF414600235A464846FFF795FA5C445B
:1027A000DAF8000000E0641C315D415CC907FAD131
:1027B0004846FFF771FEF9B24846FFF741FF9EE732
:1027C000FFE7BDE8F09F10B504460068FFF754F836
:1027D0000146A068827C407B1144B1FBF0F200FB13
:1027E000121008B1002010BD012010BDFEB500265A
:1027F00004460096019602968068E9B3D0E94D122E
:102800008A4271D0D0F8300100286DD02046FFF701
:10281000FAFDA068D0F83851002D68D000230922B5
:102820006946284602F09EFCA1689DF80850009871
:10283000C1F83801A06800230922D0F838016946A0
:1028400002F090FCA1689DF808200923D1F8380116
:102850001431521C02F086FCA1689DF80800C8746F
:10286000A1689DF8080088749DF80800A84202D26B
:102870002046FEF73BFD00E00BE0A3682BA20821F9
:102880002046143301F0A0F82046FFF7E6FD60BBB8
:1028900042E0D0F83801002846D02046FFF7B3FDCB
:1028A000A06800230922D0F83801694602F05AFCDA
:1028B000A0680199C0F83811A0680029857CB9D1B9
:1028C0009430FEF7D9FF0028A06805D000F19401EC
:1028D0001430FDF734FE00E00675A0681430FEF7F2
:1028E000CBFF8DF80800B7E71EE01AE0FFE71430D1
:1028F000FEF7C2FF10F0FF05A068D0F83011C0F855
:102900003811A06805D000F114019430FDF717FECE
:1029100090E780F894608DE72046FFF754FF002889
:1029200002D02046FFF7B8FDFEBD00002573000071
:10293000FEB50D46816804460026D1F8300138B353
:1029400000230922694602F00DFC0195A0680023CE
:102950000922D0F83001694602F00AFC0196A0680D
:10296000D0F830110091807C8DF80800A068C0F884
:102970003051002309226946284602F0F9FBA1687C
:10298000092328468A7C1431521C02F0F1FBFEBD5B
:10299000C1F83051A068C0F8345100960196A06883
:1029A000807C8DF80800E4E7FEB504468068D0F826
:1029B0003461002E28D0002309226946304602F0F7
:1029C000D1FBA16801980025C1F83401009501955B
:1029D0002B46092269463046029502F0C9FB304673
:1029E00002F08DFBA168D1F8340170B100230922F7
:1029F000694602F0B7FB0095A06800230922D0F8D1
:102A00003401694602F0B4FBFEBDC1F83051FEBD91
:102A1000FEB5044680681430FEF72EFF10F0FF0567
:102A2000A0684FF00006C0F8386133D0A068D0F835
:102A30003001E0B100230922694602F093FB9DF8C2
:102A40000820AA4213D1A068092300F19401D0F80C
:102A50003001521C02F086FBA06800F19401143092
:102A6000FDF75FFD0028A06880F8946012D0002672
:102A70000A352946606902F012FB0100204604D0A5
:102A800003B0BDE8F040FFF753BFFFF78DFF761CA2
:102A9000082EEED3FEBD00002DE9FC5F0E0083463C
:102AA000DDE90C47C6F1000098469246814600D405
:102AB0000846012503E000BF90FBFAF06D1C50456D
:102AC000FADAA84500D9454624B1002E01DB780783
:102AD00000D5641EB80702D5B8F1000F0AD0F80778
:102AE00008D13CB1A54205D220215846641EFEF70C
:102AF00093FAF6E7002E02DA4E462D2102E078071F
:102B000003D52B215846FEF787FA07F00300022869
:102B10000BD1B8F1000F08D13CB1A54205D230214C
:102B20005846641EFEF778FAF6E7CDE900474346BB
:102B300052463146584603F00DFABDE8FC9F0000AE
:102B400070B50E460446007918494FF4A27501EBA2
:102B50004010017F2068A1B14FF4887102F052FD4E
:102B60004FF49071206802F04DFD4FF4927120688F
:102B700002F048FD2946206802F044FD0C49206817
:102B800009E04FF48E7102F02CFD2946206802F016
:102B900028FD08492068C0F80413206801F0EAFA0B
:102BA0003146BDE8704001F040BA0000DC0500206D
:102BB00010030200800002002DE9F84300251646AC
:102BC000884604462F4614E04FF4A07000EB8500C1
:102BD0004FF480312258A9404AB1D4F804230A4264
:102BE00005D0275021580091D8E9002190476D1C4D
:102BF000EDB2B542E8D3BDE8F8830268134602E0BF
:102C00008A4204D01268002AFAD10B600160704732
:102C10002DE9F047394E002780463D46DFF8E09029
:102C2000D6F804A057E003D00446D0F81C8035E065
:102C300099F8002002EB4201521CD2B289F8002020
:102C400009EBC10199F80230091D9A4201D189F8B6
:102C5000005048680A780446012A12D0022A02D09D
:102C6000032A3BD108E002F08FFF00B10127257451
:102C700034E00574C06900E070680028F9D1706024
:102C80002CE0207C50BB88686060C868A060086940
:102C9000E0604869A061F07800B165606268B16881
:102CA000184B501A20F07F40984202D2A168084485
:102CB00006E0881AA16820F07F40814202D9081AF4
:102CC000206000E0256065600120A560207420463A
:102CD000E56102F03BFFB8F10000A4D199F80010C3
:102CE00099F801008142A3D117B97168514502D00A
:102CF0000120BDE8F0870020FBE70000680000200D
:102D0000FC050020FFFF7F001CB5012905D081686C
:102D100091F83D11C1F3400131B102B00022BDE88C
:102D20001040114600F078BE536804A1CDE90013AD
:102D3000136808A2022100F047FE1CBD20756E6BCF
:102D40006E6F776E20706172616D657465723A2086
:102D50000000000025733A257325730D0A0000005A
:102D60002DE9F74F82B0154602980F004FF000068C
:102D7000C068007A009058D0072248A12868FDF763
:102D8000E7FB78B1082247A12868FDF7E1FB00289E
:102D900030D02B6845A2029805B00221BDE8F04F63
:102DA00000F012BE012F02D0022F08D008E00298D6
:102DB00005B044A2BDE8F04F022100F005BE012697
:102DC000DFF81881002400BF58F824100A22686830
:102DD000FDF7BEFB10B1641C052CF5D3052C06D005
:102DE00004F0FF090224002E54D0002419E03CA274
:102DF0006B68D0E7012F4FF00009F6D0012449E0BD
:102E00004A462146009800F0D7FA48B900212046EA
:102E100002F0C8F803463AA20221029800F0D4FD5D
:102E2000641C02F06DF8A042EAD805B0BDE8F08F4E
:102E30004FF0000A55F824B002F062F880460026F0
:102E400009E00021304602F0ADF820225946FDF796
:102E50007FFB90B1761C4645F3D3464506D155F825
:102E6000243030A20221029800F0AEFD4A465146BD
:102E7000009800F0A1FA10B10BE0B246EDE7002196
:102E8000504602F08FF803461DA20221029800F07E
:102E90009BFD641CBC42CBD3C7E70000656E61623A
:102EA0006C65000064697361626C6500556E6B6EE1
:102EB0006F776E206F7074696F6E3A2025730D0AFC
:102EC0000000000042616420706172616D6574658C
:102ED0007220636F756E742E0D0A00009000002042
:102EE000556E6B6E6F776E20736576657269747957
:102EF000206C6576656C3A2025730D0A0000000091
:102F00004C6576656C20756E617661696C61626C8A
:102F10006520666F72206D6F64756C653A2025734D
:102F20000D0A0000556E6B6E6F776E206D6F6475C5
:102F30006C653A25730D0A00C06801214172704723
:102F4000C06800214172704770B588B0214800F018
:102F500097FA2048001F064600F092FA1E4DD5E968
:102F6000014105E0C0F3891202EB9050641C044457
:102F700004EA010005EB8000C0688207F2D000205F
:102F80000DF1080204EA010305EB8303641CDB680E
:102F900042F82030401C0228F4D3029800F00300CD
:102FA000012808D002280AD10298032101EB905091
:102FB00004EB900403E00298C0F38310044430460D
:102FC000002101AAFDF7DBF9002800D06C6008B0F1
:102FD00070BD0000000C0020E80700202DE9FE4F26
:102FE000814601F08DFF0746D9F80C0090F8088063
:102FF000407A20B91FA20221484600F0E5FC22A336
:1030000024A20821484600F0DFFC2AA208214846F5
:1030100000F0DAFC002429E001231A46214640464C
:1030200001F078FF8246002301222146404601F04C
:1030300071FF0546032801D2064600E00326012160
:10304000204601F0AFFF0346AE4201D225A200E0C8
:1030500017A2254850F8261050F82A008DE80700DE
:1030600022A20821484600F0AFFC641CBC42D3D326
:10307000BDE8FE8F4C6F6773206172652068616CDC
:10308000746564210D0A00006D6F64756C655F6E78
:10309000616D6500252D323473207C20637572725A
:1030A000656E74207C206275696C64696E200D0AFF
:1030B000000000002D2D2D2D2D2D2D2D2D2D2D2DF4
:1030C0002D2D2D2D2D2D2D2D2D2D2D2D2D2D2D2D30
:1030D0002D2D2D2D2D2D2D2D2D2D2D2D2D2D0D0A63
:1030E000000000002A00000090000020252D32344E
:1030F00073207C20252D3773207C20257325730DAC
:103100000A0000008AB0002001F0B2FE08B1FDF70D
:1031100027FEFDF737FF00F02BFF002410B1FDF76D
:103120001FFE02E0002000F045FFFDF737FE08B16A
:10313000FDF716FE20221F4901A8FDF7B9F9062068
:10314000019008200290032000901A4801238DF876
:1031500018401A4601A91C3800F0A2FD08B1FDF77D
:10316000FFFD14481C3800F039FE08B1FDF7F8FDEA
:10317000114C13256068032805D320880FA145EA68
:10318000004001F00BFEFFF7DBF86068032805D371
:103190002088144945EA004001F000FE02F0D8FB07
:1031A00001F0FEFC03481C3800F0F0FDFEF714FFB0
:1031B00030BFF5E74C610000900100204361706171
:1031C0006369746976652073656E73696E672064E0
:1031D0007269766572206578616D706C652E0D0A76
:1031E00000000000746400002DE9FF4F4FF000085C
:1031F00081B014468B468146C246C0F800802578CF
:10320000002D71D0FDF702F900900068405DC00705
:1032100002D004F801AB84E0D9F800008300401C20
:10322000C9F800004BF8034015E02678002E78D04E
:10323000B8F1000F05D1222E10D0272E0ED05C2E13
:103240001ED0B04514D12046FEF716FB0246611C85
:103250002046FDF72DF94FF00008E6E72046FEF77F
:103260000BFB0246611C2046FDF722F9B046DCE765
:10327000B8F1000F50D05C2E61D16078404508D184
:103280002046FEF7F9FA0246611C2046FDF710F9C8
:1032900055E030281CD100270225605DA0F13001E7
:1032A000072906D86D1C41EAC701EDB2CFB2052D42
:1032B000F3D3022D0CD92046FEF7DEFA421B61192A
:1032C0002046491E921CFDF7F3F804F8017BACE799
:1032D00078281ED100270225605DA0F13001092960
:1032E00003D841EA07100DE021E0A0F161010529B2
:1032F00001D8573804E0A0F14101052907D8373833
:1033000040EA07106D1CEDB2C7B2042DE4D3022DC4
:10331000D1D8B8F1000F12D100980068805DC007C5
:103320000DD0D9F8001004988142FFF468AFD9F8A5
:10333000002040464BF822A005B0BDE8F08F641C89
:1033400073E72DE9F047C7880446181D16468946DD
:10335000B0FBF7F1B0FBF7F207FB12009A193A4401
:10336000D21CB2FBF7F2DDF820A001E02468491E70
:103370000029FBD13D1A8846B54216D818E0BAF1AB
:10338000000F05D0211809EB08002A46091D04E0AA
:10339000204409EB08012A46001DFDF789F80020AA
:1033A0002468761BA844B74201D9354600E03D4663
:1033B000002EE4D1BDE8F08770B5144600230D4619
:1033C00006461A4601F0A6FD844201D9002070BDD0
:1033D00022462946304601F0C3FD012070BD0000A1
:1033E00030B5024669B101F08BFD0021084C0BE0BD
:1033F00001EB410304EB830315685B88AB4202D108
:103400001160002030BD491C8142F1D3052030BD40
:103410002401002010B50C460021E16061600349E1
:10342000A160012101F0BEFD206010BD50630000CD
:1034300070B58468006804F10805FEF71DFAC1B292
:10344000A971E07C6A790844B0FBF2F302FB130334
:103450005B1C2B70E07C0844B0FBF2F35B1CAB7090
:10346000A07C0844B0FBF2F35B1CEB70A07C08442A
:10347000B0FBF2F102FB1101491C6970284670BDD6
:1034800008B501216A46FCF76DFF009808BD08B534
:103490006A46FCF740FF08BD70B504460025284683
:1034A000FDF7F6FC21686268086890420ED9401E5C
:1034B00008600178238AE26801FB0325227A2168EB
:1034C000101AC0B20A79824200D208710020FDF7BA
:1034D000E1FC284670BD70B505460C460020FDF79E
:1034E000D7FCE868298A201AB0FBF1F12A68106835
:1034F000431C13600170BDE870400020FDF7CABC9A
:1035000010B530B1017A42680368891AC9B21A60ED
:1035100006E00E2010BD03681A68541C1C60117070
:10352000491EC9B2F7D2006800210171084610BDDA
:1035300070B51546826892F83D41C4F3400424B149
:103540001A46294600F068FA06E039B1516804A22B
:103550000B68022100F038FA012070BD002070BD18
:1035600025733A2062616420706172616D657465D3
:103570007220636F756E740D0A00000010B504466A
:1035800002290CD1A06890F83D01C0F3400030B191
:1035900020460022BDE81040114600F03DBA064A20
:1035A00006A1206901F0CAF8034A2069BDE810406D
:1035B000093202A101F0C2B8A86100002573000021
:1035C0001CB5012905D002290BD014D94FF00101F7
:1035D00012E002B04FF00002BDE81040114600F0CA
:1035E0001BBA53680849CDE90013136807A20221EA
:1035F00000F0EAF91CBD002102B00023BDE8104034
:103600001A46FFF795BF0000BC61000025733A25FC
:103610007325730D0A0000003EB50446012901D050
:10362000012100E0002100231A46FFF781FF002856
:1036300018D1E068C06801F0FEFDC0B2642110FB43
:1036400001F2E168C9688968B2FBF1F2D2B2009276
:10365000CDE90101A06804A20821D0F82C31204650
:1036600000F0B2F93EBD00004C6F7374204C4F4720
:10367000733A2025750D0A4D6178204C4F47207113
:1036800075657565207574696C697A6174696F6EAA
:103690003A2025752525205B25752F25755D0D0A9A
:1036A0000000000010B50446012901D0012100E00E
:1036B000002100231A46FFF73BFF002808D1A1682C
:1036C000C1F82C01E068C068BDE8104001F0B6BD4B
:1036D00010BD00007CB514460546012903D002291F
:1036E00008D0012107E002B00022BDE87040114679
:1036F00000F092B9002100231A46FFF719FF0028B5
:1037000009D161680448CDE9000104A202212846DC
:10371000236800F059F97CBDBC61000025733A258F
:103720007325730D0A00000010B50446012901D06D
:10373000012100E0002100231A46FFF7F9FE0028CE
:1037400006D1A06890F83D1121F0040180F83D11E8
:1037500010BD10B50446012901D0012100E000216F
:1037600000231A46FFF7E4FE002806D1A06890F86F
:103770003D1141F0040180F83D1110BD7CB51446A7
:103780000D460646022901D9012100E0002100234F
:103790001A46FFF7CDFE002812D1022D06D0B068E0
:1037A00090F83D0100070CD50AA30BE061680A48B8
:1037B000CDE9000109A202213046236800F004F996
:1037C0007CBD09A302B03046BDE8704007A20821C5
:1037D00000F0FAB86F6E0000BC61000025733A2556
:1037E0007325730D0A0000006F6666004563686FFD
:1037F000207374617475733A2025730D0A000000FC
:1038000010B50446012901D0012100E00021002368
:103810001A46FFF78DFE00280BD1A16891F83D01F3
:1038200020F0080081F83D01A16820F0010081F836
:103830003D0110BD10B50446012901D0012100E071
:10384000002100231A46FFF773FE002806D1A06866
:1038500090F83D1141F0080180F83D1110BD0000C5
:103860007FB50446012901D0012100E00021002399
:103870001A46FFF75DFE002827D1A0680026D0F881
:103880003451F5B101E0082E1BD20023092201A911
:10389000284601F067FC9DF80C20A1680923284602
:1038A0009431521C01F05EFCA068334694300090C5
:1038B000029D761C05A20821204600F085F8002D07
:1038C000E1D1A168002081F894007FBD5B253364BD
:1038D0005D2025730D0A00007CB5154604460129BC
:1038E00003D0022917D9012116E0A16801F10C02C9
:1038F0000D3102F0ADF800281ED0A16850200FA2B3
:103900004873A1681820087302B02046BDE87040D3
:10391000042100F059B8002100231A46FFF708FEE1
:10392000002809D169681548CDE9000114A20221D7
:1039300020462B6800F048F87CBD00006E6F2072B6
:103940006573706F6E73652066726F6D207465723B
:103950006D696E616C2C20617373756D65642038C0
:1039600030783234206368617273207363726565E6
:103970006E2073697A650D0A00000000BC610000CA
:1039800025733A257325730D0A00000010B504460F
:10399000012901D0012100E0002100231A46FFF790
:1039A000C7FD00280AD1064A06A1206900F0C6FE1C
:1039B000A16850204873A1681820087310BD00004A
:1039C000B6610000257300000FB438B5044607A89F
:1039D0000090A06890F83D21520717D5C27B8A421B
:1039E00014D0B0F80F50204602F044FB6A4620691C
:1039F000069900F0BCFEE9B2204602F03BFB290A22
:103A0000204602F019FB38BC5DF814FB6A462069B9
:103A1000069900F0ACFEF6E72DE9F04F804689B03C
:103A200016460C468948FDF727FF05468748543857
:103A3000FDF722FF281A1FFA80F9844884A2413832
:103A40000090D8F808000821406803684046FFF756
:103A5000BBFFD8F8080040680068FDF70DFF054679
:103A60007A484138FDF708FF284482B2D8F80800A8
:103A70000023406841684046FEF72CFE76A20821EC
:103A80004046FFF7A1FF16B30CB300251DE000BFB1
:103A900005EB450A04EB8A0BDBF80400FDF7ECFEAE
:103AA000074654F82A00FDF7E7FE391849450BD9B7
:103AB000DBF80400FDF7E0FE074654F82A00FDF7A6
:103AC000DBFE38441FFA80F96D1CB542E0D35F4835
:103AD0005438FDF7D1FE4844801C1FFA80F95B483A
:103AE00000904B465FA208214046FFF76DFF09F1A9
:103AF000030087B2079000233A465CA14046FEF7D8
:103B0000E9FD002C52D000254EE000BF05EB450A30
:103B100004EB8A0B54F82A00DBF804306BB350B383
:103B20004A4957A25439CDE9001008214046FFF711
:103B30004BFF09F102000090DBF80400FDF79CFE4A
:103B4000074654F82A00FDF797FE07443F485438CB
:103B5000FDF792FE39180098401A801EC1B2404607
:103B6000FEF76EFD3A224949D8F8100000F0E6FD54
:103B70000098401C0AE0009301E040B100904B46E1
:103B800038A208214046FFF71FFF079887B2DBF8ED
:103B9000081029B100233A464046FEF79BFD02E09B
:103BA0004046FEF779FC6D1CB542AFD3D8F808004B
:103BB00040688068002845D08146002004460646BB
:103BC00003AD02903246761C02AB012148460095B7
:103BD000FEF7B8F8029850B10068FDF74DFEA0421C
:103BE000F0D902980068FDF747FE84B2EAE7012E9B
:103BF00028D027A208214046FFF7E6FE00273A46D4
:103C00007F1C02AB012148460095FEF79BF8029805
:103C1000002817D0A11C8EB200680090334611A274
:103C200008214046FFF7D0FE0298F61CB2B2416868
:103C300021B100234046FEF74DFDE0E74046FEF788
:103C40002BFCDCE709B0BDE8F08F0000E561000067
:103C500025732573000000004F7074696F6E733A0E
:103C60000D0A00002020252D2A733A0053686F7733
:103C700020636F6D6D616E642068656C702E00004E
:103C8000202025732573257300000000E812000032
:103C9000537562636F6D6D616E64733A0D0A000057
:103CA0002DE9F0411E460546069F00F011F804007C
:103CB0000CD15EB13946E86800F0E6FE002802DA71
:103CC0000420BDE8F081E868012141722046F8E750
:103CD00070B50446C06815462346446160680268B2
:103CE0001668234AB047002840D1606901F027FADE
:103CF00000283BD1A168C1F83001A168C1F83401A6
:103D00004FF4A071A068FCF7FAFBA068012180F8CD
:103D10003C11A268184B92F83D0165F3820082F8CD
:103D20003D01A26840F0080082F83D01A068134AF6
:103D30000170A16850204873A16818200873002101
:103D40000C48D21A07E000BF03EBC1046468246882
:103D500040F82140491CB1EBD20FF5D3072A04D912
:103D6000D108074B0422FCF755FB002070BD000072
:103D7000911B000004010020EC6900002C6A000087
:103D8000495A00000023FDF79FBF000010B504460C
:103D900080680078D8B1012819D0022817D12046B0
:103DA000FDF781FC00212046FDF7BEFB78B10AA299
:103DB000032120462368FFF707FEA36806A2082117
:103DC00020461433FFF700FE2046FEF703FC20696F
:103DD000BDE8104000F0BFBC2573000070B504467C
:103DE00080680078012801D0082070BD60680168F3
:103DF0008A680021904705000FD10821204602F073
:103E000039F90121204602F017F905A1206900F0D7
:103E100095FC02212046FDF71BFD284670BD0000E1
:103E20000D0A0A0000F180400068002800D001203F
:103E3000704708B500F180400021016000680090E3
:103E400008BD0000034908B508440022026000686C
:103E5000009008BD0030014000283ED01F49204A94
:103E6000096800BF00BF00BF00BF00BF00BF00BFA8
:103E700000BF91422FD000BF00BF00BF00BF00BFF6
:103E800000BF00BF00BF00BF00BF00BF00BF00BF3A
:103E900000BF00BF00BF00BF00BF00BF00BF00BF2A
:103EA00000BF00BF00BF00BF00BF00BF00BF00BF1A
:103EB00000BF00BF00BF00BF00BF00BF00BF00BF0A
:103EC00000BF00BF00BF00BF00BF00BF00BF00BFFA
:103ED00000BF00BF00BF0138C3D170470001002000
:103EE0000024F40000283ED01F49204A096800BF82
:103EF00000BF00BF00BF00BF00BF00BF00BF9142B6
:103F00002FD000BF00BF00BF00BF00BF00BF00BF79
:103F100000BF00BF00BF00BF00BF00BF00BF00BFA9
:103F200000BF00BF00BF00BF00BF00BF00BF00BF99
:103F300000BF00BF00BF00BF00BF00BF00BF00BF89
:103F400000BF00BF00BF00BF00BF00BF00BF00BF79
:103F500000BF00BF00BF00BF00BF00BF00BF00BF69
:103F600000BF0138C3D17047000100200024F400D5
:103F700070B50E4C0025207808B1852513E000218E
:103F8000A16061602161E1604FF0E020D0F80001A4
:103F9000012610F0010F03D10721002000F045F8A1
:103FA000034806602670284670BD0000800500208A
:103FB0001805004070B5154D0446A87838B114B105
:103FC0006168012088470020FCF762FF15E00020AF
:103FD000FCF75EFF24B10D4821461030FEF70DFEC0
:103FE000E86850B94FF48270FFF723FF02204107C1
:103FF000C1F80403064901200860E868401CE86035
:10400000BDE870400020FCF745BF0000800500209F
:104010000800004000F01F0201219140400980008B
:1040200000F1E020C0F8801170474907090E002810
:1040300006DA00F00F0202F1E02282F8141D03E01C
:1040400000F1E02282F8001400F01F0201219140EB
:104050004009800000F1E020C0F88012C0F8001193
:1040600070470000054901220A7602220A708A7E02
:1040700002438A7600200876704700000807002077
:10408000F8B50E46E0B1DEB1194D00272F76007865
:10409000E8760090684600F0C1FC0099032400EB2C
:1040A0008100C0F80047E87E00F0D0FC11486E6047
:1040B00011498470002000F0DDF818B12046F8BDE9
:1040C0000720F8BDE87E00F0C1FC0A49002000F09E
:1040D000AFF80028F2D107480121801E00F056F801
:1040E0000028EBD105480760012028700020F8BDAA
:1040F0000807002086000020AD5800000075004031
:104100000148007E704700000807002038B5154CB4
:10411000A07E28B3207F012550B913480560207E7A
:1041200008B1112038BD2576A07E2077FCF78EFFE0
:10413000607E0E49401CC0B2C8710D490022C1F812
:104140001425C1F81005E07E0090684600F066FC7A
:1041500000998D40C0F80C5500F0D2F80028E1D14C
:10416000002038BD080700200075004086000020B0
:1041700000700040000B40B270470121B1EB507F4E
:1041800001D1012070470020704700002DE9F04167
:10419000254C064612200D46C4F808032348017C2E
:1041A000022918D0027C01464FF4807891F82E1035
:1041B000012A12D00222C4F80423012707744660A2
:1041C00005810022C26021B3458390F82D1030464E
:1041D00001F0AAF925E0122002E0C2682AB102200B
:1041E000C4F804031120BDE8F081C660058361B9FD
:1041F0004746384601F0DEF90028FAD0384601F08B
:10420000E1F92946304601F08FF90220C4F8040391
:1042100007E02946304601F087F9404601F0D2F91F
:1042200027600020DFE700000070004094050020B8
:1042300070B50F4A05460C46107C08B1112070BDC0
:1042400002EB4501087F18B912F82D0F401C1070C1
:10425000E0790877207A48772146284601F06CF902
:10426000227AE179284601F09BF9002070BD000018
:10427000940500202DE9F0411D4C054694F82C00D2
:1042800010B10820BDE8F08109B115B102E00720A6
:10429000F8E7184D44F8101B174928780860091DE5
:1042A00068780860E878A0770127277700202070D9
:1042B00060776060114EE0776FF00040C6F8080349
:1042C0004FF4827001F07EF9B01501F07BF9A97806
:1042D0000720FFF7AAFE0220C6F80403A07F10B152
:1042E0000120C6F804030448F03807600020C9E73D
:1042F0009405002084610000F075004000700040CB
:10430000084900200A7C012A01D00820704791F852
:104310002E30054A01210BB111607047024A121D6F
:10432000FAE7000094050020007000402DE9F041FC
:1043300005460079164F904607EB40140E46E07E86
:1043400010B10820BDE8F081707F20772846FCF787
:10435000B5FD5FEA080060603169216003D0317FFC
:104360002846FEF7EDFB287907EB4010007F002878
:10437000286801D0082100E00421C0F800150020C1
:10438000E0752076A0750121E176A076DAE70000DD
:10439000DC0500202DE9F04105460079284E9046C5
:1043A00006EB40140F46207F18B10846FFF7E5FEE4
:1043B00080B1626800234FF404704FF4017172B150
:1043C0002A7906EB4212127F002A2A6805D0C2F829
:1043D000080304E01020BDE8F081C2F80813E27D74
:1043E000B2B1227E7AB162685AB12A7906EB4212E2
:1043F000127F1AB12968C1F8040302E02868C0F8E6
:1044000004131120E7E72761012384F8188005E0F1
:1044100084F817800020E76060762076287942468D
:1044200006EB40103946007F0028284603D0BDE83F
:10443000F04100F06FB8BDE8F04100F017B800009F
:10444000DC0500200179084A02EB411101220B7FB3
:1044500001680BB14A6070474FF40173C1F808332B
:104460000068426070470000DC0500202DE9F05F25
:1044700004460079264901EB4015A87E184302D175
:10448000204601F0E4F968680028206806D04FF45F
:104490000171C0F804130020BDE8F09F4FF4A2762C
:1044A000314601F09EF8B1464FF4927A4FF4847B86
:1044B0005146206801F090F806465946206801F000
:1044C0008BF880464946206801F086F8074648EA9E
:1044D00007003043ECD056EA070007D12946206890
:1044E00001F090F9E87D697E8842E1D80020E87506
:1044F0000EB10320D0E70FB10F20CDE7A97E012038
:104500000029216801D00860C5E74860C3E70000C2
:10451000DC0500202DE9F05F894604464FF48875DC
:104520009A46904600260068294601F06BF84FF441
:10453000A2773946206801F065F82068C0F8349504
:10454000C0F838852068BAF1000F14D0D0F80012F6
:1045500041F02001C0F800122179DFF8648008EBF7
:104560004110406850B120684FF40471C0F8041342
:104570003046BDE8F09F01210160EDE7AA46B9464B
:104580004FF4927B5146206801F037F807464946C0
:10459000206801F032F805465946206801F02DF8F0
:1045A000014647EA05000843ECD02379002208EBD6
:1045B0004310C27501B10326002DD9D00F26D7E7CD
:1045C000DC0500202DE9F047054600793F4E904676
:1045D00006EB40140F46207F18B10846FFF7CDFDCB
:1045E00030B1284600F074F820B11120BDE8F08702
:1045F0001020FBE784F81680A7600027A78228799F
:104600004FF0010806EB40143E46207F0028286842
:1046100025D04FF49079494600F0F4FF4FF4AC7A7E
:104620005146286800F0EEFF2868A17DA268C0F816
:104630004425C0F848152868C0F808806068F0B9BB
:104640004946286800F0D9FF80465146286800F0A6
:10465000D4FF58EA0001F3D058BBA7750FE04FF420
:104660008E7A514600F0BDFF2868C0F808802146C8
:10467000286801F013FB61684FF4807089B13046FF
:10468000B4E75146286800F0A7FF10B9A08A484552
:10469000F7D1A08A484505D02146286801F0FEFAE6
:1046A00000E08146A08AA17D8842EAD3A08A4845DD
:1046B00001D10F26D1E75146286800F08DFF002870
:1046C000F9D02868C0F80C80C7E70000DC0500209E
:1046D0000079044901EB4010807D002800D00120C2
:1046E00070470000DC05002070B5044600791149D0
:1046F000002601EB401520682A7FC0F80065686835
:1047000088B1207901EB4010007F0028206801D09B
:10471000094901E008498C39C0F808132068FFF7FF
:1047200029FDFFF777FC204600F0BAFFEE766E60B9
:1047300070BD0000DC050020100302000FB408B5B6
:104740000399002904D004AA00926A4600F00FF8E9
:1047500001B05DF814FB10B582680446002A05D04C
:10476000D4E90403216898470020A06010BD2DE91A
:10477000FC4791460C00804676D014F8011B39B1F5
:1047800025290ED04046FCF747FC20780028F4D1BC
:1047900098F80C00002867D04046BDE8FC47FFF7BA
:1047A000DABF0020012221782B291BD02D2902D02D
:1047B000302908D102E040F0010001E040F00200A1
:1047C000641C002AEFD100252A290ED02178A1F1FE
:1047D00030020A2A11D205EB850201EB4205641C66
:1047E000303DF1E740F00400EAE7D9F800100B1D76
:1047F000C9F800300968641C0D44217800232E2973
:104800000BD114F8011FA1F130020A2A05D203EBE3
:10481000830201EB4203303BF3E76C290DD068299A
:104820000BD0692921D00BDC252918D0582931D08B
:1048300063290ED0642915D117E014F8011FECE7A5
:10484000702969D0732932D075291BD0782909D1F4
:1048500020E0D9F80000011DC9F800100178404699
:10486000FCF7DAFB641C90E76CE0D9F800100A1D35
:10487000C9F800200968CDE900500A224046FEF739
:104880000BF9EFE7D9F800100A1DC9F800200968F4
:104890000A2206E0D9F800100A1DC9F800200968AC
:1048A0001022CDE90050404601F054FBDAE7D9F878
:1048B000001000270A1DC9F800200E68C00705D1A6
:1048C00012E04046761C7F1CFCF7A6FB31780029DD
:1048D000F7D104E0202140466D1EFCF79DFBBD4250
:1048E000C0D9002DF6D1BDE74EB13046FBF712FE20
:1048F000074604E0202140466D1EFCF78DFBBD42BB
:1049000006D9002DF6D103E04046761CFCF784FB67
:1049100031780029F8D1A5E7D9F80000011DC9F8C0
:104920000010056830214046FCF776FB78214046B0
:10493000FCF772FB08200021CDE90001034610229C
:104940002946B0E7BDE8FC872DE9FF411C46DDE9BB
:104950000A7815460E46684600F044F846EA4501D6
:1049600041EA840141EA072242EA0841009A00EB49
:104970008200C0F80017BDE8FF812DE9FF411C4609
:10498000DDE90A7815460E46684600F039F846EA31
:10499000450141EA840141EA072242EA0841009ABE
:1049A00000EB8200C0F80017BDE8FF811CB50021B4
:1049B00000910B4601220191FFF7DFFF1CBD1CB5E2
:1049C00000220B46009211460192FFF7D6FF1CBD54
:1049D0001CB5002100910B46012201911146FFF701
:1049E000CCFF1CBD0168202902D24FF0A0407047C7
:1049F00001F01F01016001487047000000030050F2
:104A00000168202902D24FF0A040704701F01F0139
:104A10000160014870470000000300500168202930
:104A200002D24FF0A040704701F01F010160014821
:104A3000704700000003005001B56846FFF7E0FF33
:104A4000009A01219140C0F8081508BD01B56846DB
:104A5000FFF7E4FF009A01219140C0F8081508BD56
:104A600038B501240090684631B1FFF7BBFF0099CB
:104A70008C40C0F8084538BDFFF7B4FF00998C4062
:104A8000C0F80C4538BD00002DE9F0410E461D4927
:104A900004460025D1F81024104609E0037AAB4201
:104AA00005D16D1C0A2DF7DB4FF0FF3527E040687C
:104AB0000028F3D1681C22D02572D1F8100430B13F
:104AC00040686060D1F810044460002713E00020C3
:104AD000C1F810446060F8E700231A4639462846BA
:104AE00000F018FAB04200D330460246207A394628
:104AF00000F036FA7F1C00F003FAB842ECD82846E2
:104B0000BDE8F081E8070020704710B5446960688F
:104B100001688A680121904718B10420A1680870D3
:104B200010BD0320FAE72DE9F34146690446B06859
:104B3000007804281ED0032807D0002501A9E068CA
:104B400000F087FB85F0010709E00125F6E739460B
:104B50003046FCF7E9FC01A9E06800F07AFB002888
:104B6000F5D1019800F0E4FA002D03D00021304681
:104B7000FCF7DAFCBDE8FC81084A012902EBC00021
:104B800005D0022903D0032903D0042903D0002033
:104B90007047007970474079704700002C6A000028
:104BA0002DE9F04F8DB0FCF747FA18B100200DB099
:104BB000BDE8F08F76480021C0F81814BFF34F8F7E
:104BC000D0E9014504EA050100EB81014FF000093D
:104BD0000AE000BFC1F3891202EB9151641C0C443E
:104BE00004EA050100EB8101C9688A07F2D00021BF
:104BF00003AA804604EA050008EB8000641CC06834
:104C000042F82100491C0229F4D3039800F0030064
:104C1000022802D001284FD0B5E003985022810D20
:104C20008B46B2EB905F00D850210F4667F39F5040
:104C3000C0F3C20A03900831564800F030FA06006B
:104C400079D000F075FA4B46082203A9304600F0EF
:104C50008FFA09F1080004EA05010190681A800042
:104C6000001D874221D94A4D0C3530B1C2B208EB44
:104C70008101381A91460C3104E02946FAB2002528
:104C800091462846C7B23046019B00F071FA019860
:104C900000EB090325B13A462946304600F068FA90
:104CA0000BF1030004EB90043CE008EB81013A4671
:104CB00030460C31019BF1E70398C0F383100628BE
:104CC00000D30620039960F38911C1F38310C1F367
:104CD000C20A801C039181002E4800F0E0F9060012
:104CE00051D000F025FA4B46082203A9304600F0C7
:104CF0003FFA09F1080900270EE000BF04EA0500A9
:104D000008EB80014B46042230460C31641C00F055
:104D10002FFA09F104097F1C0398C0F38310B842ED
:104D2000ECD846B1D8F81054D8F818044746D8B192
:104D3000304600F006FA26E0687A012813D104987C
:104D4000154A00EB400002EB8000297A806801EBF5
:104D50004101C84000F00700504504D32A682846A6
:104D60003146126890476D68002DE5D1304600F05D
:104D7000E8F90020FCF78CF8D7F8180400B97C603B
:104D80000020FCF787F8FCF757F980F001000EE7E8
:104D9000E8070020586300002401002000231A4681
:104DA00000F008BE08B5012300926A4600F002FE3A
:104DB00008BD1CB5CDE9002302236A4600F0FAFDC8
:104DC0001CBD00002DE9F0470E4680461C46924669
:104DD00008293ED894F80C900020207319461046FC
:104DE00000F0B8FC0025B54206D218F805201AA13B
:104DF0002046FFF7A3FC03E019A12046FFF79EFC25
:104E00006D1C082DEFD317A12046FFF797FC002556
:104E1000B54210D218F80570FBF7F8FA0068C05DCB
:104E200010F03E0F01D03A4600E02E220EA120469F
:104E3000FFF784FC03E00DA12046FFF77FFC6D1C0B
:104E4000082DE5D301222146504600F065FC84F888
:104E50000C90BDE8F087000020253032780000007B
:104E6000202020007C0000002563000020000000BE
:104E70002DE9F0471D484FF00009FF21C0F80090D0
:104E8000C0E90191C0F81894C0F8149480F81C94FB
:104E9000174800F054F9002826D11649DFF8588049
:104EA000A1EB0800C70800241BE0002635460CE0F3
:104EB000AC4209D058F8340058F835101422FBF7EA
:104EC00047FB002800DD761C6D1CBD42F0D30B496A
:104ED00004EB440001EB8000C0F80490048046809D
:104EE000641CBC42E1D30020BDE8F087E807002045
:104EF000586300007C6A00002C6A00002401002036
:104F000002480349401AC008704700007C6A00004C
:104F10002C6A00007FB505461146002401A87BB12C
:104F2000FEF75EFAA0B901980B4900EB400001EBD7
:104F3000800005EB45018068C84000F0070407E0E9
:104F4000FEF74EFA20B90548019900EBC1008479BB
:104F500004B0204670BD0000240100202C6A00002F
:104F600030B50F4B01EB410103EB810400EB400036
:104F70000723A56803FA00F18D4302F00701814081
:104F8000294300252A46A16003FA02F00840D040D8
:104F9000A84200D90546D21C0A2AF5D3656030BD67
:104FA0002401002013B56846FEF71AFA08B1002064
:104FB0001CBD0248009950F831001CBD2C6A00004D
:104FC00070B508480125D0F8104480F81C5405E05D
:104FD000657221682046496888476468002CF7D1CB
:104FE00070BD0000E80700202DE9FF4781460C9DB9
:104FF00000200C462F7B28739846164629461846F3
:1050000000F0A8FB072E42D2DFE806F004090F16D5
:105010001F2A360049462846FFF790FB37E04946ED
:1050200028462268FFF78AFB31E0D4E9002349468D
:105030002846FFF783FB2AE0A0680090D4E900230C
:1050400049462846FFF77AFB21E0D4E90201CDE981
:105050000001D4E9002349462846FFF76FFB16E01C
:1050600004F1080007C88DE80700D4E90023494689
:105070002846FFF763FB0AE004F108000FC88DE83B
:105080000F00D4E9002349462846FFF757FB0022CA
:105090002946404600F040FB2F73BDE8FF872DE90D
:1050A000F041058A80462D1F4819C01CB0FBF5F061
:1050B000C6B24046FEF7F0F9041E19D00020207158
:1050C00001206071E58000272546761EC4F8008027
:1050D0000BE04046FEF7E0F960B16179491C61716F
:1050E000286005467F1CC0F80080B742F1D32046F7
:1050F000BDE8F081204600F002F80020F8E72DE935
:10510000F041457901466B1E002201E00968521CFE
:105110009A42FBD30F680146002605E038460C682A
:10512000FEF7D9F92146761CAE42F7D3BDE8F081EF
:1051300008B501216A46001DFBF79FF808BDFEF780
:10514000DFB938B50446001D01216A46FBF7A2F815
:10515000009810F0FF0F04D12046BDE83840FFF75B
:10516000CEBF38BD38B501240094FEF7EAF838BD4B
:1051700038B500240094FEF7E4F838BD70472DE9F7
:10518000F0410446002790460E463846FBF780FE65
:10519000204600F038F830B105270020FBF77AFEF2
:1051A0003846BDE8F08120680568B8F1000F05D1E8
:1051B0000168204600F046F821680860E268012A8C
:1051C0000CD0022A0ED0042A11D06068082A13D00D
:1051D00005FB02013046FBF76BF9DEE76068405DD6
:1051E0003070DAE7606830F815003080D5E7606825
:1051F00050F825003060D0E700EBC500D0E9001082
:10520000C6E90010C9E7016808684968884201D109
:10521000012070470020704701680A68496880686B
:10522000884201D9491C00E00021914201D10120AE
:105230007047002070470068806870470068002150
:10524000816070478068884201D9481C70470020FF
:1052500070472DE9F04104464FF000080E464046E5
:10526000FBF716FE2046FFF7D7FF070009D0207C8A
:1052700038B14FF004080020FBF70CFE4046BDE8B3
:10528000F0812068456841682046FFF7DBFF216810
:10529000486037B1206801682046FFF7D3FF2168D6
:1052A0000860E268012A14D0022A16D0042A19D014
:1052B000082A1CD06068314605FB0200FBF7F8F8AD
:1052C000204600F075FA21688A688242D3D288604D
:1052D000D1E7616830784855F2E76168308821F895
:1052E0001500EDE76168306841F82500E8E7D6E988
:1052F0000001626802EBC502C2E90001E0E72DE9A6
:10530000F04115460E46044643B10121A068FEF760
:10531000BEF8C00702D01120BDE8F081A068616826
:10532000D0E90272BB1A481C834202D100202860D7
:1053300016E007EA010302EA0100834202D3C91A18
:10534000491C00E0D11B2868884200D20146296030
:10535000206818443060A0682A6881681144816020
:105360000020D9E72DE9F041054617468846002080
:10537000FBF78EFDA8684168C0680C1A3868A04227
:1053800000D204463C60AA686968D0685268084048
:105390000A40824201D9161A01E00E1A761CB44264
:1053A00008D92968324608444146FBF781F8A41B16
:1053B0000020B0442968224601444046FBF778F8B3
:1053C000A8683A68C1681144C1600020FBF762FD1B
:1053D0000020BDE8F0812DE9F041054617468846DA
:1053E0000020FBF755FDA8683C684168C068081AB2
:1053F0006968081A401C844200D304463C60A868CF
:105400006968406808400E1A761CB44208D92968B9
:10541000324608444146FBF74BF8A41B0020B04439
:105420002968224608444146FBF742F8A8683A68D2
:105430004168114441600020FBF72CFD0020BDE8CD
:10544000F08138B582685468D368E41AA14201D962
:10545000042038BD1944D1608268116180686FF002
:1054600002016A46FAF73DFF002038BDF8B5144640
:105470000E4605463BB10221A868FEF708F88007F2
:1054800001D51120F8BDA9680B694868C11A09D077
:105490006A681340104098420DD927688F420AD994
:1054A000216010E0002020606FF002016A46A868C9
:1054B000FAF717FF0FE0984205D8D01A2168401C70
:1054C000814200D92060286818443060A8682268AA
:1054D0000169114401610020F8BD8268002151601A
:1054E0008268D16082681161826891608068016021
:1054F000704738B5826845685468D368E31AEB1A78
:105500005B1C994201D9042038BD21445160826856
:105510009160806801216A46FAF70AFFC00701D04E
:10552000002038BD082038BD024A1060101D0160FF
:10553000704700002C76004010B50A784B78302474
:1055400002F0030204EA03131A438B784FF4E06479
:1055500004EA03231A43CB784FF4805404EA03335C
:105560001A430B794FF4E02404EA03431A434B79BE
:105570004FF4801404EA03531A438B79240104EA9C
:1055800003631A43030105481844C0F81825CA7973
:10559000097AC0F81415C0F8102510BD007000403D
:1055A000030103481844C0F81425C0F810157047CB
:1055B0000070004002494058002800D00120704788
:1055C00000700040034908B50844002202600068EA
:1055D000009008BD007000404058002800D0012015
:1055E000704708B5002242504058009008BDD0F8DE
:1055F0000403084000D0012070474058002800D024
:105600000120704708B5002242504058009008BD64
:105610002DE9F84317460C0005462BD0DFF87080C3
:105620004646D8F80000FCF727F93844C7B230687E
:10563000FCF722F9A968497B081AB0FBF7F0C6B25B
:105640002046FCF719F9A968381AC7B2487CB0FBA4
:10565000F6F206FB1202401C487482B123460DA2EA
:1056600007212846FEF7B0F939462846BDE8F84339
:10567000FCF7E6BFA96800204874BDE8F8830094F1
:1056800005A207212846D8F80030FEF79DF9EBE780
:1056900080000020257300000D0A2573257300008B
:1056A00070B5034600791B4901EB40101968027F71
:1056B0004FF0FF30002AD1F80C25D1F81465D1F84D
:1056C0000855D1F8104504D0C1F80C05C1F81405EF
:1056D00003E0C1F81405C1F80C051968C1F8080504
:1056E000C1F81005501C02D01046FFF75FF9701C7E
:1056F00002D03046FFF75AF9601C02D02046FFF76F
:1057000055F9681C04D02846BDE87040FFF74EB933
:1057100070BD0000DC05002010B50C46C17949B110
:105720001AB109A12046FFF709F82046BDE810404C
:10573000FFF711B8007A0028F3D0044804A10268EA
:105740002046FEF7FBFFECE70D0A0000DC0000201E
:105750002573000070B50446C0790D4600281CD1A1
:10576000207A50B1A179A088FFF706FA0B4951F8C9
:1057700020200BA12846FEF7E1FFA0880021FFF7BB
:1057800011FC03460549A079143951F82020284618
:10579000BDE8704003A1FEF7D1BF70BDDC00002062
:1057A000257300003C25733E2025733A200000003D
:1057B00001680A684968914201D3881A7047806875
:1057C000801A0844401C704770B5012670044FF0E1
:1057D000E0210025C1F88001084C4010C4F84803BE
:1057E000C4F8080366602F20FEF736FBA660044C61
:1057F0002F20A560FEF730FBA57070BD00100140A2
:105800006800002070B50546C87D0C4600284FF49E
:10581000847128460AD0FFF7E4FED5F81805627EA9
:10582000E1688854607E401C607670BDFFF7D9FE49
:10583000D5F8180570BD1FB501238DF800308DF81F
:1058400008100192D0E90012684690471FBD10B5BC
:10585000044600684FF49271FFF7C3FE4FF4847161
:105860002068FFF7BEFE20680121016010BD1CB555
:105870000446FF200190012301AA6946E068FFF772
:105880003EFD002810D1019900290DD0CAB26069EF
:105890000099FEF77FFD002806D1A068224640F659
:1058A000CD410068FBF7A4FA1CBD000010B504460A
:1058B0001548C07EFFF7CAF801216068FEF766FC54
:1058C0006068B0F90000FAF7C4FE9FED101B53ECBE
:1058D000112BFAF74CFE9FED0F1B53EC112BFAF72F
:1058E00046FE9FED0E1B53EC112BFAF740FE9FED89
:1058F0000D1B53EC112BFAF73AFEFAF7BBFEBDE88D
:10590000104080B2FCF7C8BC0807002033333333A3
:105910003333E33F0000000000408F4000000000F0
:1059200000000840000000000000503F0022CA6054
:105930004A60054A8A60052803D2044A52F82000CA
:1059400000E000200860704750630000A4000020C1
:1059500010B5144A01211448FBF70EFA08B1FBF701
:10596000FFF9002240F6CD411048FBF741FA08B19B
:10597000FBF7F6F90C480E4A0121001FFBF7FCF972
:1059800008B1FBF7EDF90948002240F266612038C2
:10599000FBF72EFA002803D0BDE81040FBF7E0B972
:1059A00010BD0000B15A00002C610000DC01002095
:1059B000692300002DE9F843224C884605469146AC
:1059C0001F4669461846A668FBF7FCFA88B300989C
:1059D00000EA060104EB810252F80C1F21F00301DA
:1059E000491C401C11605FEAC56C02D541F00401FE
:1059F00001E021F0040165F3C50167F3891168F343
:105A00009F21116000EA0602290C04EB8202401C6F
:105A1000D160009000200AE0009959F8203001EA96
:105A2000060204EB8202491CD360401C0091B8427C
:105A3000F2D394F81C0401E0FFF7B2F80028FBD180
:105A4000BDE8F883E807002009680068FAF769BD37
:105A50002DE9F04115460E460446FCF727FD78B9BE
:105A6000A068FA21077A90F80A802046FCF7E8FD42
:105A7000FA212046FCF792FC2046FCF717FD10B1F6
:105A80000620BDE8F081A068007A3070A068807AB6
:105A900028703078C01BC1B22046FCF7F1FC297891
:105AA000A1EB0800C1B22046FCF7D6FD0020E8E7D4
:105AB0000348C168002902D0C168491EC16070470F
:105AC000300000204069FEF7BDBC00002DE9F84F12
:105AD0001D4C00256846D4E901A6FCF7C9FD002746
