:020000040000FA
:10000000003500201D04000025040000150200003A
:10001000290400002B0400002D0400000000000053
:100020000000000000000000000000002F0400009D
:10003000310400000000000033040000350400001B
:10004000E3090000370400005D0E000037040000E3
:1000500037040000370400002106000037040000C8
:1000600037040000370400003704000037040000A4
:100070003704000037040000370400003704000094
:1000800037040000F10900003704000037040000C5
:100090005D0B000037040000370400003704000047
:1000A0003704000037040000370400003704000064
:1000B00037040000370400000000000000000000CA
:1000C0003704000037040000370400003704000044
:1000D000370400003704000037040000000000006F
:1000E0000000000000000000000000000000000010
:1000F0000000000000000000000000000000000000
:1001000000000000000000000000000000000000EF
:1001100000000000000000000000000000000000DF
:1001200000000000000000000000000000000000CF
:1001300000000000000000000000000000000000BF
:1001400000000000000000000000000000000000AF
:10015000000000000000000000000000000000009F
:10016000000000000000000000000000000000008F
:10017000000000000000000000000000000000007F
:10018000000000000000000000000000000000006F
:10019000000000000000000000000000000000005F
:1001A000000000000000000000000000000000004F
:1001B000000000000000000000000000000000003F
:1001C000000000000000000000000000000000002F
:1001D000000000000000000000000000000000001F
:1001E000000000000000000000000000000000000F
:1001F00000000000000000000000000000000000FF
:10020000DFF80CD000F0CEF9004800470D400000A8
:1002100000350020094B1EF0040F1CBFEFF30980CE
:100220001847EFF308800649064A884201D89042F1
:1002300002D88D464FF00000184700009D070000CF
:10024000003500200015002030B4044654E8000FAB
:100250000D4644E80053002BF8D1156030BC7047C0
:1002600030B4044654E8000F40EA010544E8005366
:10027000002BF7D1156030BC704730B4044654E809
:10028000000F00EA010544E80053002BF7D1156088
:1002900030BC704730B4044654E8000F80EA0105D2
:1002A00044E80053002BF7D1156030BC704730B4E0
:1002B000044654E8000F00EB010544E80053002B0E
:1002C000F7D1156030BC704730B4044654E8000FD5
:1002D000A0EB010544E80053002BF7D1156030BCBA
:1002E0007047000030B4044654E8000F0D4644E85F
:1002F0000053002BF8D1156030BC704730B4044671
:1003000054E8000F40EA010544E80053002BF7D100
:10031000156030BC704730B4044654E8000F00EA62
:10032000010544E80053002BF7D1156030BC70473D
:1003300030B4044654E8000F80EA010544E8005355
:10034000002BF7D1156030BC704730B4044654E838
:10035000000F00EB010544E80053002BF7D11560B6
:1003600030BC704730B4044654E8000FA0EB0105E0
:1003700044E80053002BF7D1156030BC70470000F3
:1003800030B4044654E8000F0D4644E80053002BF7
:10039000F8D1156030BC704730B4044654E8000F03
:1003A00040EA010544E80053002BF7D1156030BC4A
:1003B000704730B4044654E8000F00EA010544E8F1
:1003C0000053002BF7D1156030BC704730B40446A1
:1003D00054E8000F80EA010544E80053002BF7D1F0
:1003E000156030BC704730B4044654E8000F00EB91
:1003F000010544E80053002BF7D1156030BC70476D
:1004000030B4044654E8000FA0EB010544E8005363
:10041000002BF7D1156030BC7047000006488047BC
:1004200006480047FEE7FEE7FEE7FEE7FEE7FEE7D9
:10043000FEE7FEE7FEE7FEE7610B000001020000B9
:1004400000487047A88800002DE9FE4399461546EC
:100450008846074601AC022942D3002D40D0002037
:100460000290A8F101004FF0FF36009022E000FB5F
:10047000057201FB057011464A469047002805DCCD
:1004800054F82600304444F8260013E060682A46F9
:1004900000FB057154F8040C00FB057007E00B78B5
:1004A00090F800C001F801CB00F8013B521E002A71
:1004B000F5D1764254F8040C61688842D7DC4B468B
:1004C0002A463846FFF7C0FF54F8040C4B46A8EB09
:1004D0000001401C00FB05702A46491EFFF7B4FFCF
:1004E000BDE8FE8310B5431A934209D283188818D9
:1004F00003E010F8011D03F8011D521EF9D210BDD2
:1005000040EA01039B0703D009E008C9121F08C095
:10051000042AFAD203E011F8013B00F8013B521E15
:10052000F9D210BDD2B201E000F8012B491EFBD276
:1005300070470022F6E710B513460A4604461946EE
:10054000FFF7F0FF204610BD421C10F8011B0029E8
:10055000FBD1801A704710B5002200E0521C835C6A
:100560008C5CA34201D1002BF8D1D8B2E1B2401A81
:1005700010BD034611F8012B00F8012B002AF9D118
:100580001846704730B505460020034600E05B1C66
:10059000934205D2EC5CC85C201A01D1002CF6D144
:1005A00030BD0000064C074D06E0E06840F0010356
:1005B00094E8070098471034AC42F6D3FFF724FEC6
:1005C0002C9E00004C9E000070B58C1810F8015B4A
:1005D00015F0070301D110F8013B2A1106D110F8DC
:1005E000012B03E010F8016B01F8016B5B1EF9D1E0
:1005F0002B0705D40023521E0DD401F8013BFAE766
:1006000010F8013BCB1A921C03E013F8015B01F8D0
:10061000015B521EF9D5A142D8D3002070BD000065
:100620002DE9F04700268CB0DFF86891B0464FF412
:100630008075012437460696284605F029FE38B114
:10064000D9F80403204203D0284605F017FE2643BC
:100650002D1D64007F1CADB2082FEDD34FF4BE7486
:10066000204605F015FE48B1204605F007FE46F08D
:10067000004606AA0121002005F0C8FD464D16F0EF
:10068000FF0F15D00127002437420DD009EB84015C
:10069000D1F81005D1F81015C0F3042055F8242026
:1006A000C1F3014102B190477F00641C082CEBD3D9
:1006B000002E6BDA4FF0FF30CDE90880002634467B
:1006C000281910F8507F90F9000027F0C008401C4E
:1006D00048D009A9404603F0FFFF78B34FEA9719C5
:1006E000404600F041FF55F820701FB1B9F1030FEB
:1006F00003D00FE0B9F1030F34D108A84FEAD801B5
:1007000008F00702435C4FF0010C0CFA02FC43EACC
:100710000C03435404A8CDF8108005F01DFD049986
:1007200000EB8100D0F8000706A9C0F3014A40465B
:1007300003F0D2FF18B1BAF1020F03D012E0BAF100
:10074000030F0FD1B9F1030F08D1BAF1020F1BD07B
:100750000221404605F0E7FC761CF6B217B1494687
:100760004046B847641C042CAAD3002E0ED06A461B
:100770000121002005F04AFD06990098884205D025
:1007800006900898099099E70321E2E70CB0BDE8CC
:10079000F087000000600040F00B00201CB581468F
:1007A00006F02CF805F008FE0028FBD137484E462D
:1007B0000768374C01256068002821D0208835A1C2
:1007C00005EB0040B26905F0F9FE6068002817D01B
:1007D000D6E90201CDE900012088D6E9002305EB26
:1007E000004032A105F002FF606848B1F069009056
:1007F000D6E9042320883BA105EB004005F0EDFE7F
:100800002248001D0068800707D5606828B120884D
:100810003E4905EB004005F0CDFEDFF8F4800026F0
:1008200005FA06F038420AD058F826203AB1606836
:1008300028B1208837A105EB004005F0BFFE761CEB
:100840001A2EEDD338060AD5606840B10F480C3037
:100850000268208832A105EB004005F0AFFE3804A5
:100860000AD5606840B1094810300268208834A178
:1008700005EB004005F0A2FE0448C8300068C00740
:1008800000D000BE484600F069F8000028ED00E006
:100890003C02002048415244204641554C542061BE
:1008A0007420307825303858000000002020523065
:1008B0003A2020307825303858202052313A2020F4
:1008C000307825303858202052323A202030782590
:1008D000303858202052333A20203078253038588C
:1008E0000000000020205231323A20307825303884
:1008F0005820204C523A202030782530385820207B
:100900005053523A2030782530385800C0910000BA
:10091000EC00002043617573653A2025732E0000BA
:100920004D656D4D616E616765204661756C742023
:10093000416464726573733A20307825303858000A
:10094000427573204661756C7420416464726573EE
:10095000733A20307825303858000000BFF34F8FAD
:1009600005480168054A01F4E06111430160BFF3E5
:100970004F8F00BFFDE700000CED00E00400FA051A
:1009800000F01F02012191404009800000F1E020A9
:10099000C0F88012704700F01F0201219140400909
:1009A000800000F1E020C0F80011704700F01F0245
:1009B000012191404009800000F1E020C0F80012C0
:1009C00070474907090E002806DA00F00F0000F111
:1009D000E02080F8141D704700F1E02080F800143A
:1009E000704710B504F054FEBDE8104004F0DEBEC0
:1009F00007480021C0F84011C0F84411C0F8481160
:100A0000C0F84C11C0F80011C0F8041107F070B91B
:100A100000100140044900EB400001EBC000416DB3
:100A2000806D081A704700007412002000F024BA8C
:100A300070B5064614460D46002000F083FC2246A1
:100A40002946304600F006F80446002000F0A8FCD5
:100A5000204670BD2DE9F0471B4D07461646287805
:100A60000C4608B900F008FA07EB470005EBC00791
:100A7000A046D7E91595002448374D4511D9B868E7
:100A8000441BB44200D3344678682246411940469C
:100A9000FFF728FDB868361B2544A044A84200D1C2
:100AA0000025A9EB0500B04200D206463EB17868A9
:100AB000324641194046FFF715FD3444354404B130
:100AC0003D612046BDE8F0877412002070B50B4BE5
:100AD0000646144618780D4608B900F0CDF90020F6
:100AE00000F030FC22462946304600F009F8044662
:100AF000002000F055FC204670BD0000741200205C
:100B000070B50E46144900EB400001EBC0051446D9
:100B1000E86A183520B101280FD0022805D113E06A
:100B2000284600F0DDF9A04201D2002411E022465F
:100B30003146284600F00CFA0BE0284600F0D0F9C8
:100B4000A042F4D20446F2E73146284600F0D3F939
:100B50000446204670BD00007412002007F01AB849
:100B6000F0B5AE480023021D01780125101D4FF09D
:100B7000805406290BD11678360708D10678C6F3BB
:100B80000316032E06D0042E04D0052E02D006290B
:100B900007D00EE0B4F82463A14FC6F304263E60EC
:100BA00002E01678360704D10678C6F30316032E42
:100BB00002D0062904D00FE09B4F9A4E7E670EE0CC
:100BC0001678360708D10678C6F30316032E06D02A
:100BD000042E04D0052E02D0062907D00EE0D4F84A
:100BE0004462924FC6F342363E6002E01678360702
:100BF00004D10678C6F30316032E02D0062906D0C8
:100C000011E08B4E376827F0807737600EE016785A
:100C1000360708D10678C6F30316032E06D0042E35
:100C200004D0052E02D006290AD011E04FF08046EC
:100C3000C6F80C31C6F810317C4E361F336002E026
:100C40001678360704D10678C6F30316032E02D0B1
:100C5000062905D00CE0754F032664373E600AE094
:100C60001678360704D10678C6F30316032E02D091
:100C700006290DD014E06F4F05263E606D4E783684
:100C800035606C4E083633603F263F1D3E6002E003
:100C90001678360704D10678C6F30316052E02D05F
:100CA000062957D062E0644E3668644F3E60624E5B
:100CB000361D36683F1D3E605F4E083636683F1D64
:100CC0003E605D4E0C3636683F1D3E605A4E103613
:100CD00036683F1D3E60584E143636683F1D3E60F4
:100CE000554E18363668554F20373E60524E1C36EA
:100CF00036683F1D3E60504E203636683F1D3E60D0
:100D00004D4E243636683F1D3E604B4E28363668C1
:100D10003F1D3E60484E2C3636683F1D3E60464EB5
:100D200030363668454F40373E60434E343636687D
:100D30003F1D3E60404E383636683F1D3E603E4E99
:100D40003C3636683F1D3E603B4E403636683F1DA0
:100D50003E6002E01678360708D10678C6F303161F
:100D6000032E06D0042E04D0052E02D0062907D06B
:100D700019E0D4F85812324A01F04F01116002E034
:100D8000117809070FD10078C0F30310032803D0AE
:100D9000042801D0052806D12A480168C90702D0D5
:100DA0006FF00101016022487438016841F470015C
:100DB0000160BFF34F8FBFF36F8F4FF01021D1F859
:100DC0000002002803DBD1F80402002822DA1E4AC0
:100DD00015601E480468002CFCD01524C1F80042A0
:100DE0000568002DFCD0C1F8044201680029FCD040
:100DF000136001680029FCD0BFF34F8F0C48F03816
:100E00000168134A01F4E06111430160BFF34F8FA1
:100E100000BFFDE710490F480860F0BDE00F00F08B
:100E2000403501400DF0ADBA00C007403C05004020
:100E3000FCED00E0105600400404001020C5004006
:100E4000E40E00400004004004E5014000E40140DD
:100E50000400FA050090D003C80100200448017F77
:100E600004480029024901D007F0ABB807F01AB8CE
:100E7000480C00200020004010B5124C02202061D8
:100E8000606111A0A06104F17800E0614FF400708E
:100E900020620020A06260620BA1A164E06204F500
:100EA0001E71E1641021A065C4E91410E06509A178
:100EB000E01DFFF75EFB08A12046FFF75AFB20204C
:100EC000A07110BD741200205465726D696E616C62
:100ED000000000005254540053454747455200005B
:100EE0000269C1688A4203D88068401A104400E051
:100EF000501A401E70472DE9F047C46817468946CE
:100F000006464FF000083069A04201D9051B02E0F7
:100F1000B168201A0D1AB0686D1E001BA84200D8D7
:100F20000546BD4200D33D4670682A4620444946E6
:100F3000FFF7D8FAB0687F1B2C44A844A944A0420C
:100F400000D10024F460002FDDD14046BDE8F087D9
:100F50002DE9F04104468846D4E90207C51BE16843
:100F6000606816460844B54206D94146FFF7BAFA0A
:100F7000B819E060BDE8F0812A464146FFF7B2FAB1
:100F8000761B08EB050132466068FFF7ABFAE660B6
:100F9000F0E700000FB4084B10B504A902AA0398AB
:100FA00000F01BF8044602A9002000F081F820465A
:100FB00010BC5DF814FB0000B110000002E008C88E
:100FC000121F08C1002AFAD170477047002001E0C3
:100FD00001C1121F002AFBD170472DE9F84F994635
:100FE000924688460546002706E025280AD0514645
:100FF0004A4690476D1C7F1C28780028F5D138465A
:10100000BDE8F88F002315F8011F18462E2915D1C9
:1010100015F8011F04232A290DD06FF02F0229781B
:10102000A1F13004092C09D800EB800002EB40004C
:1010300008446D1CF3E758F8040B6D1C2A78002A4D
:10104000DDD0632A07D0732A0FD0104651464A4696
:1010500090477F1C2AE018F8042B8DF8002000210F
:101060008DF801106E46012103E058F8046B4FF033
:10107000FF315A074FF0000401D409E0641C844298
:101080000BDA8C42FADB325D002AF7D105E0641CF2
:101090008C42FCDB305D0028F9D1274404E016F8CF
:1010A000010B51464A469047641EF8D26D1CA3E7D7
:1010B0000A68531C0B601070704700002DE9FC415A
:1010C00014468846074605F099FB00BF05F074F901
:1010D0000028FBD16FF480401D4D38184FF00106F9
:1010E00022D00128686814D030B12888424606EB27
:1010F000004018A105F062FA1C480068C00700D043
:1011000000BE224602B041463846BDE8F04100F03C
:1011100055B80028F0D02888238806EB004014A199
:10112000626805F052FAE7E768680028E4D0A06832
:1011300006F010FA034621886068CDE9000128888E
:1011400012A106EB0040A26805F050FAD4E70000B7
:101150006C020020554E4B4E4F574E204641554C89
:10116000542061742030782530385800F0ED00E0CC
:10117000415353455254494F4E204641494C4544F2
:101180002061742025733A25750000004552524FA6
:1011900052202575205B25735D2061742025733AEC
:1011A000257500000EB5ADF80010CDE901206A46A6
:1011B000002144F20100FFF781FF0EBD08B50123B5
:1011C0008DF800309DF80030144B186059609A601B
:1011D0006FF48041401807D001280FD1DA60D86839
:1011E00000889861D86807E01A61186980685861BA
:1011F00018690088986118694068D861186858684B
:101200009868D868186958699869D86972B600BF33
:101210009DF800000028FBD162B608BD680C0020D4
:10122000014800687047000004150140074B9B7897
:1012300023B12AB120B10068037C1BB1082070479C
:10124000072070474174426100207047880C0020DD
:1012500070B506F08FFA104800240B21047044701A
:101260000E4D817014206C602C706C70FFF788FB41
:1012700007211420FFF7A5FB1420FFF78CFB08487B
:10128000046007211120FFF79CFB0548001F006840
:10129000A860002070BD0000880C0020D400002051
:1012A000081501402DE9F843DFF8709099F80230F5
:1012B0005BB350B3052902D20720BDE8F883436928
:1012C0001BB3437C012B22D000270446002588460F
:1012D0001646284600F036F8684606F045FFC0B1CD
:1012E000012101700E4944600968C0E90218C0E993
:1012F00004769DF8000089F80100002000F050F805
:101300001420FFF753FB2846D7E70820D5E70F4600
:10131000DBE70425002000F043F8F4E7880C002008
:10132000041501400649897839B130B1416921B1CC
:1013300000210174022106F0BBBC082070470000A8
:10134000880C002010B506F0FBF9012803D004A199
:101350001D2000F0B9F8BDE8104000F04FB80000C3
:101360002E2E5C2E2E5C2E2E5C2E2E5C2E2E5C2EB7
:101370002E5C636F6D706F6E656E74735C6C69620A
:101380007261726965735C7574696C5C6170705FC1
:101390007574696C5F706C6174666F726D2E63003A
:1013A00010B506F0CDF9012803D004A12B2000F0E0
:1013B0008BF8BDE8104000F029B800002E2E5C2EFE
:1013C0002E5C2E2E5C2E2E5C2E2E5C2E2E5C636FE1
:1013D0006D706F6E656E74735C6C69627261726958
:1013E00065735C7574696C5C6170705F7574696C51
:1013F0005F706C6174666F726D2E630072B6024826
:101400000168491C01607047E80000200349086832
:10141000401E086000D162B670470000E80000205E
:1014200070B5054608680C46411C04D004F0E4FE83
:10143000206804F06EFE6068411C02D0002104F0B8
:101440005FFE28791F4901EB40102968007F0028C2
:10145000A069C1F8240523D0607D227D296810434E
:10146000C1F86C05D4E900122868C0F80C15C0F862
:10147000142522E0A068411C02D0002104F040FEA7
:10148000E068411C04D004F0B7FEE06804F041FEBF
:10149000D4E902122868C0F80825C0F8101570BDFC
:1014A000607D217D2A680843C2F86C05D4E90012EA
:1014B0002868C0F81425C0F80C15207D0128D9D063
:1014C00070BD0000480C00201CB56A46ADF8000055
:1014D0000191002144F20200FFF7F0FD1CBD000065
:1014E0002DE9F041861C0C4601270020FFF72AFF5A
:1014F0000F4801682160D0E90012891A8268044609
:10150000511AB51C07E000BF02F09AFCD4E90001B3
:10151000401AA168091A491C8D42F5D82068304448
:1015200020600020FFF73CFF3846BDE8F081000056
:10153000540E002030B482680468531C8360A154A8
:10154000D0E901128A4202D330BC04F061BC30BC45
:1015500070470000034803C8814201D10120704751
:1015600000207047540E00200249084490F93000D2
:1015700070470000F00B002070B5816804468A7C3B
:10158000002A4DD0C87C00284AD0121A0844D5B28F
:1015900000F114016A1C1330FEF7A4FFA068C17C9F
:1015A000491EC174A068817C491E81748DB30822D4
:1015B0001C49206904F0ECFB204602F059FF8178B9
:1015C000C078814211D1A06817A2C17C43180821BC
:1015D0002046143303F0D4FB204600F03DF92946A1
:1015E0002046BDE8704001F091BE204600F0A0F911
:1015F000204600F031F9A0680BA2C17C43180821F5
:101600002046143303F0BCFB2046BDE8704000F0D8
:1016100059B92069BDE87040044A03A104F0B8BB81
:1016200070BD00005418000025730000B98400004C
:1016300070B504468068827CC17C521A12F0FF05A6
:1016400048D0084400F115012A461430FEF74AFF3D
:10165000A068817C491E8174204602F009FF8178D0
:10166000C07881420CD1A0681BA2C17C431808211C
:101670002046143303F084FB40F26336C4B913E010
:10168000204600F055F9204600F0E6F8A06812A2C6
:10169000C17C431808212046143303F071FB204617
:1016A000BDE8704000F00EB90CA13046FFF70CFF0A
:1016B000206918B909A13046FFF706FF154A06A1AF
:1016C000206904F065FB6D1EE9B22046BDE870405C
:1016D00001F01CBE70BD0000257300002E2E5C2E94
:1016E0002E5C2E2E5C2E2E5C2E2E5C2E2E5C636FBE
:1016F0006D706F6E656E74735C6C69627261726935
:1017000065735C636C695C6E72665F636C692E63A3
:1017100000000000BD8400002DE9F041044680680F
:101720000F4690F83D11C27C11F00106817CA1EBBF
:101730000203DDB20AD07F2901D3002D7ED0A0683C
:10174000C17C08440021077566B113E07F297CD273
:10175000002DF4D0831803F114012A46481CFEF72B
:10176000C1FEECE7A068827C521CD2B28274A068F1
:10177000143281544DB3204602F07AFE8178C0784D
:1017800081420ED1A06832A2C17C431808212046B4
:10179000143303F0F5FAA81BC1B2204601F0B6FDE0
:1017A00021E0204600F0C4F8A06829A2C17C4318BB
:1017B00008212046143303F0E3FA204600F082F8B3
:1017C0000121204601F0AEFE0DE03EB1A068827C12
:1017D000521CD2B28274A068143281543A461DA1C0
:1017E000206904F0D5FAA168C87C401CC874204662
:1017F00001F079FD0028204603D0BDE8F04101F05A
:1018000091BD01F074FF00281FD0204602F030FE89
:101810000546C078A978401A401EC1B2204601F0A2
:1018200003FD204601F07EFDE878A978401AC1B298
:10183000204601F083FE2878401E00E005E0C1B29A
:101840002046BDE8F04101F06DBEBDE8F08100002A
:10185000257300002563000070B504004FF48A75FD
:1018600003D108A12846FFF72FFE206918B905A16A
:101870002846FFF729FE2069BDE870400F4A10A1F5
:1018800004F086BA2E2E5C2E2E5C2E2E5C2E2E5C44
:101890002E2E5C2E2E5C636F6D706F6E656E747392
:1018A0005C6C69627261726965735C636C695C6EC1
:1018B00072665F636C692E6300000000B1840000F3
:1018C0002573000070B504004FF4907503D108A192
:1018D0002846FFF7F9FD206918B905A12846FFF74A
:1018E000F3FD2069BDE870400F4A10A104F050BA22
:1018F0002E2E5C2E2E5C2E2E5C2E2E5C2E2E5C2E22
:101900002E5C636F6D706F6E656E74735C6C696274
:101910007261726965735C636C695C6E72665F6349
:101920006C692E6300000000A8840000257300008D
:1019300070B504004FF48D7503D108A12846FFF758
:10194000C3FD206918B905A12846FFF7BDFD206930
:10195000BDE870400F4A10A104F01ABA2E2E5C2E7A
:101960002E5C2E2E5C2E2E5C2E2E5C2E2E5C636F3B
:101970006D706F6E656E74735C6C696272617269B2
:1019800065735C636C695C6E72665F636C692E6321
:1019900000000000A5840000257300002DE9F04F31
:1019A0004FF000099DB005464E464C46CDF81490C8
:1019B00001F02AFB284601F0C7FFAA680C2308A9FA
:1019C00001A8143202F0FCFB0346019840B15BB160
:1019D0005CA20221284603F0D3F91DB0BDE8F08FC8
:1019E000284601F09FFCF8E75D485C490027A1EB21
:1019F00000080DF1200A83461AE00FD3284601F0B3
:101A000072FC01005748089B009001D056A200E0EC
:101A100057A20221284603F0B3F9DEE70BEBC70417
:101A2000606801685AF82900FEF795FD18B17F1C1F
:101A3000B7EBD80FE1D9207820B150A140F24E7019
:101A4000FFF742FD4FF0000BCDF868B06068C76843
:101A50000FB1A9684860606809F101044FF00008FF
:101A600080680DF1580906900198844237D25AF8DF
:101A7000240050A1FEF76FFD50B35AF824004EA188
:101A8000FEF769FD20B3424608F101081AAB214672
:101A9000CDF80090069801F075F9B8F1000F1ED04E
:101AA0001A98E0B101685AF82400FEF754FD0028A6
:101AB000DAD11A98C16829B1A8F10101DDF818B08E
:101AC0002646059180684FF00008641C0690CBE71D
:101AD000A86890F83D1141F0020180F83D112846B8
:101AE00001F0AEFB284601F0FEFB10B9284601F0DC
:101AF00019FCBBF1000F12D0CDF800901AAB3146A3
:101B00005846059A01F03EF9A9681A980AEB860230
:101B100048600199C368891B284698470AE027B1A5
:101B200008AA28460199B84704E025A202212846C0
:101B300003F026F9A86890F83D1121F0020180F821
:101B40003D114AE70D0A6E6F74207465726D696EFF
:101B5000617465643A2025630D0A0000B49E00009C
:101B60004C9E0000EE840000257325730D0A0000D2
:101B70000D0A257325730D0A000000002E2E5C2E21
:101B80002E5C2E2E5C2E2E5C2E2E5C2E2E5C636F19
:101B90006D706F6E656E74735C6C69627261726990
:101BA00065735C636C695C6E72665F636C692E63FF
:101BB000000000002D6800002D2D68656C7000008D
:101BC000506C656173652073706563696679207315
:101BD0007562636F6D6D616E642E0D0A000000000A
:101BE0002DE9F0410446C0688EB00D460026C0685D
:101BF000324601A905F096F918B100200EB0BDE8F3
:101C0000F0816DB1019804F0BAFEA168D1F82C0101
:101C1000401CC1F82C0100F0070001287ED10126EC
:101C2000204602F025FC05468078012804D9401E94
:101C3000C1B2204601F082FC2878012804D9401E58
:101C4000C1B2204601F062FB2046FFF705FE2EB12F
:101C500033A20221204603F093F85FE04FF0000822
:101C60000023082202A9019804F09AFE0498059026
:101C70000398ADF818008DF81C800298082700F032
:101C80000300012802D002281DD03CE002983B4608
:101C9000860AC0F3C2008DF81A00029808A9C0F3A2
:101CA00080008DF81B000298C0F38315AA000198EC
:101CB00004F076FE2069009005AB2A4608A930465C
:101CC00004F0B0FD1FE00298850DC0F3C2008DF84E
:101CD0001A000298C0F380008DF81B00082D01D275
:101CE0002E4600E008263B46324608A9019804F03B
:101CF00057FE3744AD1B05AA314608A8236904F0F6
:101D00007FFC002DEAD1019804F039FEE068002242
:101D100001A9C06805F006F90028A1D001206DE7EF
:101D20004C6F7374204C4F4773202D20696E637283
:101D300065617365204C4F47206261636B656E641B
:101D40002071756575652073697A652E0D0A00002E
:101D50002DE9F0411E4617460D46040000D01DB97E
:101D600009A19A20FFF7B0FB606818B906A19B2073
:101D7000FFF7AAFB606833463A4601680C692946BA
:101D8000A446BDE8F04160472E2E5C2E2E5C2E2E20
:101D90005C2E2E5C2E2E5C2E2E5C636F6D706F6E33
:101DA000656E74735C6C69627261726965735C63A1
:101DB0006C695C6E72665F636C692E630000000084
:101DC00070B5044640680E460025007A38B1A06818
:101DD0000068FFF7A7FA08B108281AD10025BEB994
:101DE0006068007A50B90B4A0021A068FFF71EFA1C
:101DF000616805004FF00100087209D1A068224611
:101E00004FF4A4710068FFF74DFA0546FEF70EFE89
:101E1000284670BD0D7B000010B541680A6041681E
:101E20004B60406800210172FEF700FE002010BDEB
:101E300070B51C0015460E4603D106A15B20FFF7C6
:101E400043FB2A4631460020FEF7F2FD20600020C9
:101E500070BD00002E2E5C2E2E5C2E2E5C2E2E5C75
:101E60002E2E5C2E2E5C636F6D706F6E656E7473BC
:101E70005C6C69627261726965735C636C695C72E7
:101E800074745C6E72665F636C695F7274742E63E7
:101E90000000000080680068FFF744BA2DE9F041B7
:101EA0001D0014460F4603D10BA16920FFF70CFB60
:101EB00019480068C0070DD0002622463946002088
:101EC000FEF704FE0644241AF7D105B12E60002067
:101ED000BDE8F0812C60FAE72E2E5C2E2E5C2E2EB3
:101EE0005C2E2E5C2E2E5C2E2E5C636F6D706F6EE2
:101EF000656E74735C6C69627261726965735C6350
:101F00006C695C7274745C6E72665F636C695F723C
:101F100074742E6300000000F0ED00E07CB5002535
:101F20000446019501AB012269462046FFF710FFE8
:101F3000019800281CD09DF800007F28F2D804F0FA
:101F4000C3FFA068417821B1012947D0022949D1B6
:101F50004DE0217E9DF80060B1420DD1807C0028CB
:101F6000204606D0FFF71AFD0221204600F0AAF80D
:101F70007CBD01F0D7F9F7E7092E17D004DC002E5D
:101F8000D0D0082E04D119E01B2E0DD07F2E1DD0ED
:101F9000FEF756FA0068805D10F03E0FC2D0314661
:101FA0002046FFF7B9FBBDE701211EE090F83D0197
:101FB0000007B7D5204600F09FF8B3E790F83D0141
:101FC0000007AFD52046FFF7D7FAABE790F83D0101
:101FD0000007A7D52046FFF72BFBA3E79DF80010CD
:101FE0005B2901D045709DE7022141709AE7457059
:101FF000A16891F83D010207BAD59DF80020413A49
:102000000C2A8FD2DFE802F007090E310650065481
:102010000606065886E7012100E00021204601F06F
:1020200079FB7FE7204602F023FA064600787178B4
:10203000884203D1B178F2789142B4D07179884264
:102040004FF0010120460AD101F0EEF871792046E7
:1020500001F05CF9A168C87C401CC87462E701F01B
:1020600061FAA068C17C491C15E0204602F000FA24
:1020700006460078B179491C884202D1B17801291D
:1020800091D001284FF00101204606D001F03EF921
:10209000A068C17C491EC17444E701F04FFA717910
:1020A000204601F03FFAF3E7204601F0C9F839E78E
:1020B000204601F0EEF835E7421C62F3000081F89B
:1020C0003D012FE78268022911700BD1826800213F
:1020D00011758268D1748268917403A20321036828
:1020E00002F04EBE7047000025730000002801D0AA
:1020F000FEF72ABA704700002DE9F04FA5B04FF067
:1021000000080546CDF82880CDF810808068474645
:10211000817CC1F17F01C9B25FEA010B7BD0C27C37
:1021200000F114019430FEF7DDF9A8680024C17CA9
:10213000084480F89440FEF783F920900168A8686D
:102140000C23C27C0244D27C895CC0F83841AA6866
:1021500001F001090DA91FA8943202F031F80D9881
:10216000FFF7C4FFC6B2A2461A940C941F9818B188
:102170004844401EB8426AD8B9F1000F01D0002689
:1021800005E00DA850F82700FFF7B0FFC6B2002405
:102190001BA822460090641C1AAB3946504600F03A
:1021A000F1FD1A9800286BD001680DA8324650F84E
:1021B0002700FEF7E7F900280C9802D00028E7D0A6
:1021C0005EE0D8B11A980068FFF790FF0499C0B29A
:1021D000884200D90490BBF1000F2BD021A80090B9
:1021E0000CAB42463946504600F0CCFD1A980068C8
:1021F00083190C9800688219002015E0601E0A906F
:102200001A980068FFF772FFC0B20490801B58450F
:1022100010DAC0B20DE07FE012F800C0614506D1CF
:10222000401C10F0FF0010D0195C0029F4D1834548
:1022300000D983461A98B4F101080C90A8D262A282
:102240000421284602F09CFD1AE0FF20EFE700245D
:102250001BA822460090641C1AAB3946504600F079
:1022600091FDECB31A98002856D001680DA850F8DB
:102270002700FEF770F90028EAD11A98D0F808A0D4
:10228000BAF1000F09D01A9838B11F997F1CFFB21C
:1022900001EB09008742FFF469AF0C9800283BD09E
:1022A0000A98414640455DD19AF8000038B11BA814
:1022B0000A4600900CAB3946504600F063FD0C987E
:1022C0000068FFF713FFB04206D00C985A4600682A
:1022D0008119284600F03CFF2098A968026800E0B8
:1022E0001DE0C87C0B181B7DD25CD2071DD0897CF9
:1022F000884211D2284602F0BBF8A9688478C87CCD
:10230000401CC874284602F0B3F88078A04225D15A
:102310000121284601F006F925B0BDE8F08F2AA278
:102320000421284602F02CFDF6E791F83D01C20792
:102330000FD020F0010081F83D0120212846FFF751
:10234000EBF9A86890F83D1141F0010180F83D11CA
:10235000E2E720212846FFF7DFF9DDE7284600F015
:10236000E1FFD9E700212846049A05F019F90DF19B
:102370006C090A9C0EE01AAB224639465046CDF84D
:10238000009000F0FFFC1A98049A0168284605F0B6
:1023900007F9641C4445EED917A2032128462B688F
:1023A00002F0EEFCAB6816A208212846143302F0B6
:1023B000E7FC284601F080F80C985A46006881191D
:1023C000284600F0C5FEA7E75461622066756E637B
:1023D00074696F6E3A20636F6D6D616E6473206314
:1023E0006F756E746572206F766572666C6F776557
:1023F000642E0D0A000000000D0A25730000000085
:102400002573000070B505460C0004D105A140F20B
:10241000B970FFF759F8002D03D0A168012081F8A9
:102420003C0170BD2E2E5C2E2E5C2E2E5C2E2E5C62
:102430002E2E5C2E2E5C636F6D706F6E656E7473E6
:102440005C6C69627261726965735C636C695C6E15
:1024500072665F636C692E630000000070B504460D
:1024600040680D4690F8280030B1A0680068FEF77B
:1024700059FF08B108280CD1012685B1606903F025
:102480005DFC616800220831606903F0EDF908B174
:10249000062070BD606880F82960002070BD60680B
:1024A00090F8280048B9074A0021A068FEF7BEFE50
:1024B0006168002881F82860F0D12046BDE87040AE
:1024C00005F0ACB98D7B000070B5044640680D4640
:1024D0000260606800224360606880F828206068BD
:1024E00080F82920606820220830FDF7FBFF2C616E
:1024F000074A2946606903F0B7F9050005D1E0688D
:1025000004F0E4FF206904F0E1FF284670BD0000FC
:10251000A17D00002DE9F0411C0016460F4605463E
:1025200003D106A1D220FEF7CFFF2660224639460E
:10253000E868BDE8F04104F00EBF00002E2E5C2ECE
:102540002E5C2E2E5C2E2E5C2E2E5C2E2E5C636F4F
:102550006D706F6E656E74735C6C696272617269C6
:1025600065735C636C695C756172745C6E72665FE6
:10257000636C695F756172742E63000010B5044668
:10258000406903F0DBFBA0680068BDE81040FEF77F
:10259000C9BE00002DE9FC411D0016460F46044649
:1025A00003D116A1E620FEF78FFF2E602A4639469A
:1025B000206904F009FF05001CD1606903F0B2FB3B
:1025C000C0B9FF20009001236A4601A9206904F0E8
:1025D00046FF78B900980199C2B2606903F0E6FA43
:1025E0000546606890F8290020B11DB9206900995E
:1025F00004F020FF2846BDE8FC8100002E2E5C2E52
:102600002E5C2E2E5C2E2E5C2E2E5C2E2E5C636F8E
:102610006D706F6E656E74735C6C69627261726905
:1026200065735C636C695C756172745C6E72665F25
:10263000636C695F756172742E6300002DE9F84365
:102640001F4614468846050002D0B8F1000F03D19A
:102650001DA16B20FEF738FF6868006818B91AA141
:102660006C20FEF731FF002625E000BF686808EB0C
:1026700006016B460268D2F80CC02246E04718B14A
:1026800011A17620FEF720FF0098844203D20EA10C
:102690007720FEF719FF00980644241A58B9A86855
:1026A0000178032907D000BF90F83C110029FBD026
:1026B000002180F83C11002CD8D1002F01D00098C7
:1026C0003860BDE8F88300002E2E5C2E2E5C2E2E86
:1026D0005C2E2E5C2E2E5C2E2E5C636F6D706F6EEA
:1026E000656E74735C6C69627261726965735C6358
:1026F0006C695C6E72665F636C692E63000000003B
:1027000070B5084C050009D010342168002907D0A5
:1027100008682060496828468847F6E70834F4E7E7
:1027200070BD0000DC0B0020F8B514460E46050015
:1027300004D121A140F20E20FEF7C6FEA86818B110
:10274000686808B1286820B91BA140F20F20FEF785
:10275000BBFE012E03D0284602F0E0FC30B1284633
:10276000BDE8F8400122184902F068BB022E08D0EB
:10277000236801B02846BDE8F04014A2022102F00F
:10278000FFBA19A16068FDF7E6FE68B117A160689D
:10279000FDF7E1FE40B16068009016A202212846D4
:1027A000236802F0EDFAF8BD2846BDE8F84018A20B
:1027B000082102F0E5BA00002E2E5C2E2E5C2E2E93
:1027C0005C6D61696E2E6300E482000025733A201F
:1027D00062616420706172616D6574657220636FFF
:1027E000756E740D0A0000002D7400002D2D7465A7
:1027F0007374000025733A20756E6B6E6F776E20D0
:10280000706172616D657465723A2025730D0A00FE
:1028100044756D6D792074657374206F7074696F81
:102820006E2E0D0A00000000012904D0136804A2D6
:10283000022102F0A5BA0949002048607047000053
:1028400025733A2062616420706172616D65746500
:102850007220636F756E740D0A0000000000002086
:10286000012904D0136804A2022102F089BA09499F
:10287000012008707047000025733A2062616420CF
:10288000706172616D6574657220636F756E740D31
:102890000A00000000000020012904D0136804A2EF
:1028A000022102F06DBA094900200870704700004B
:1028B00025733A2062616420706172616D65746590
:1028C0007220636F756E740D0A0000000000002016
:1028D00070B514460D460646012902D002F01EFCD2
:1028E00030B13046BDE870400022114602F0A6BA71
:1028F0002368022D01D904A200E00AA23046BDE8F7
:102900007040022102F03CBA25733A2062616420D3
:10291000706172616D6574657220636F756E740DA0
:102920000A00000025733A20706C6561736520739E
:1029300070656369667920737562636F6D6D616E32
:10294000640D0A002DE9F04714460D46814602F059
:10295000E5FB30B14846BDE8F0470022114602F0E1
:102960006DBA022D07D048462368BDE8F04728A27B
:10297000022102F005BADFF8B48098F801001428AB
:1029800001D32BA206E06068FDF7DEFDC6B2212E62
:1029900002D32DA2022132E0002567680AE000BFC1
:1029A000FDF74EFD0068795D405C10F0380F2BD0CC
:1029B0006D1CEDB2B542F3D3284E002505EB451052
:1029C00030446168FDF7C7FD00281FD06D1CEDB2D3
:1029D000142DF3D398F80110454601EB4110491C22
:1029E00088F8011030441EA16268FEF7D3FA1D4B2F
:1029F000212269781948FDF727FD1BA208214846C6
:102A0000BDE8F04702F0BCB91FA2C3E72EA2C1E7A0
:102A100025733A2062616420706172616D6574652E
:102A20007220636F756E740D0A00000000000020B4
:102A3000636F6D6D616E64206C696D697420726581
:102A400061636865640D0A00746F6F206C6F6E6758
:102A500020636F6D6D616E640D0A0000D802002066
:102A60002573000079790000636F6D6D616E6420DD
:102A70006164646564207375636365737366756C04
:102A80006C790D0A0000000062616420636F6D6D57
:102A9000616E64206E616D65202D20706C656173C0
:102AA0006520757365206F6E6C7920616C7068614C
:102AB0006E756D65726963616C20636861726163D4
:102AC000746572730D0A00006475706C69636174DB
:102AD000656420636F6D6D616E640D0A0000000017
:102AE0002DE9F84314460D46804602F017FB30B13D
:102AF0004046BDE8F8430022114602F09FB9022D7E
:102B000003D014A2022123681DE00025184F194E9E
:102B100009E000BF05EB451038446168FDF71BFD77
:102B200070B16D1CEDB270788542F3D3606800908F
:102B300011A202214046236802F022F9BDE8F88381
:102B4000636814A2082101B04046BDE8F04302F0DA
:102B500017B9000025733A206261642070617261C8
:102B60006D6574657220636F756E740D0A000000E8
:102B7000D80200200000002025733A20756B6E6F8C
:102B8000776E20706172616D657465723A2025738D
:102B90000D0A000064796E616D696320636F6D6D6D
:102BA000616E643A2025730D0A0000002DE9F041A2
:102BB00017460C468046012902D002F0AFFA30B128
:102BC0004046BDE8F0410022114602F037B9022C20
:102BD00002D01BA23B6811E00024204E204D08E0EB
:102BE00004EB441030447968FDF7B5FC60B1641C17
:102BF000E4B268788442F3D37B681AA24046BDE809
:102C0000F041022102F0BCB8132C14D06878001BEC
:102C100000EB401204EB4410304400F12101FDF7B9
:102C200061FC687816A2401E68704046BDE8F0411D
:102C3000082102F0A5B8002086F87302F1E7000031
:102C400025733A2062616420706172616D657465FC
:102C50007220636F756E740D0A000000D8020020A8
:102C600000000020646964206E6F742066696E64E1
:102C700020636F6D6D616E643A2025730D0A00004C
:102C8000636F6D6D616E642072656D6F7665642033
:102C90007375636365737366756C6C790D0A0000F8
:102CA000F8B514460D46074602F038FA30B13846FA
:102CB000BDE8F8400022114602F0C0B8012D08D04E
:102CC000236801B03846BDE8F04013A2022102F0AB
:102CD00057B8184D687838B117A20821384602F065
:102CE0004FF800241A4E13E03846BDE8F84019A208
:102CF000042102F045B800BF04EB441030440090BA
:102D000023461DA20821384602F03AF8641CE4B2BA
:102D100068788442F0D3F8BD25733A20626164205C
:102D2000706172616D6574657220636F756E740D8C
:102D30000A0000000000002044796E616D69632084
:102D4000636F6D6D616E64206C6973743A0D0A0077
:102D5000D8020020506C6561736520616464207343
:102D60006F6D6520636F6D6D616E6473206669724F
:102D700073742E0D0A0000005B2533645D202573FB
:102D80000D0A00002DE9F05F1C000A9F15468846D9
:102D9000064603D120A1AF20FEF796FB1FB91EA166
:102DA000B020FEF791FB4FF00009B8F1000F0BD0F7
:102DB0001EB3307838B37268394628469047386871
:102DC000D8B12760BDE8F09F21492248A1EB000857
:102DD000B5EBD80F14D2DFF880A00026834609E0B7
:102DE0000BEBC607786801685AF82500FDF7B3FBBE
:102DF00020B1761CB6EBD80FF2D301E0786808E07A
:102E0000C4F80090DEE7706800EB05100168002947
:102E1000F6D02060D6E700002E2E5C2E2E5C2E2EE3
:102E20005C2E2E5C2E2E5C2E2E5C636F6D706F6E92
:102E3000656E74735C6C69627261726965735C6300
:102E40006C695C6E72665F636C692E6300000000E3
:102E5000B49E00004C9E0000CC01002010B504463A
:102E600002F05CF930B120460022BDE81040114666
:102E700001F0E4BF054A0721204601F081FF20460A
:102E8000BDE8104002A2082101F07ABFAC88000022
:102E90002020202020202020202020202020202032
:102EA0004E6F726469632053656D69636F6E6475FC
:102EB00063746F72202020202020202020202020DA
:102EC00020200D0A0D0A0000F8B515460E46040034
:102ED00004D118A140F22510FEF7F6FAA06818B147
:102EE000606808B1206820B912A14FF49370FEF712
:102EF000EBFA012E03D0204602F010F930B1204643
:102F0000BDE8F8400022114601F098BF022E08D01B
:102F10002B6801B02046BDE8F0400AA2022101F072
:102F20002FBF686800900EA2022120462B6801F096
:102F300027FFF8BD2E2E5C2E2E5C2E2E5C6D616957
:102F40006E2E630025733A206261642070617261A5
:102F50006D6574657220636F756E740D0A000000F4
:102F600025733A20756E6B6E6F776E20706172619B
:102F70006D657465723A2025730D0A002DE9F041E4
:102F800016460D460746012408E000BF56F82430D7
:102F900007A20821384601F0F3FE641CAC42F5D3C9
:102FA0003846BDE8F04103A2082101F0E9BE000067
:102FB000257320000D0A0000F8B516460D46074699
:102FC000012409E056F824000090234604A20821B9
:102FD000384601F0D5FE641CAC42F3D3F8BD0000C6
:102FE000617267765B25645D203D2025730D0A00C4
:102FF00001A2022101F0C4BE4E696365206A6F6BB5
:1030000065203B290D0A00002DE9F0418568064640
:103010000024287D002812D0A046FDF711FA0746AB
:10302000D0F8000004F1140104F10104695CE4B279
:10303000415CC90705D0002CF4D185F81480BDE8A7
:10304000F081641E14F0FF040FD0A87C021B04F171
:103050001400291805F11400521CFDF743FAB16859
:10306000887C001B8874B168C874B2683D68937C22
:10307000D01813300446002102E0491CC9B2401E9A
:103080000778EF5DFF07F8D18442D8D05B1A14337C
:1030900002F80380B268907C401A9074B168C874DA
:1030A000CDE700002DE9F05F26484168F1B3DFF875
:1030B00098B00E688146DBF8004087688078E11B95
:1030C00021F07F45ED1CB0B9DFF880804FF48030EF
:1030D000C8F84403C8F804031120FDF751FC11207F
:1030E000FDF759FC4FF0010AC8F800A02F2002F0AC
:1030F000C3F989F802A0B54200D23546124BE8194F
:103100003C3320F07F401860DBF800105A46091B62
:1031100021F07F41001B20F07F40C91C81420FD964
:10312000106818602F2002F0A7F900E004E0BDE865
:10313000F05F1120FDF73ABCBDE8F05F04F01ABB68
:10314000BDE8F09FD40000200415014000100140AC
:103150002DE9F04115460F00044604D123A140F2A9
:103160002950FEF7B1F9A068817CC27C8B1A2944F2
:10317000DEB27F2937D8002D35D0104400F114017C
:1031800005F114021044721CFDF7ACF9A0682A4640
:10319000C17C084439461430FDF7A4F9A068143006
:1031A000FEF7A4FFA1681FA28874A068C17C431821
:1031B00008212046143301F0E3FDA068C17C2944B6
:1031C000C174204600F08FF818B9204600F08FFA3D
:1031D00010B1204600F0A6F8002E04D02046BDE82D
:1031E000F04100F069B9BDE8F08100002E2E5C2EA0
:1031F0002E5C2E2E5C2E2E5C2E2E5C2E2E5C636F93
:103200006D706F6E656E74735C6C69627261726909
:1032100065735C636C695C6E72665F636C692E6378
:103220000000000025730000002904D00A46006950
:1032300001A102F0ADBD70471B5B25644200000098
:1032400070B5054601F014F90446007861788842AB
:1032500003D1A078E17888421AD0E178A078814241
:1032600004D9081AC1B22846FFF7DEFF207861783A
:10327000884205D9401AC1B2284600F047F804E058
:10328000081AC1B2284600F04DF9A868817CC174C3
:1032900070BD70B5054601F0EBF804460178807901
:1032A000401C814202D1A07801281BD0A0780128BF
:1032B00004D9401EC1B2284600F040F92078A17917
:1032C000884206D9401A401EC1B2284600F01EF8B6
:1032D00005E0081A401CC1B2284600F023F9A9688D
:1032E0000020C87470BD10B504460068FEF7FEFEED
:1032F0000146A068C27C407B1144B1FBF0F200FBA8
:10330000121008B1002010BD012010BD002904D00A
:103310000A46006901A102F03BBD70471B5B2564B2
:103320004400000070B504004FF4937503D108A168
:103330002846FEF7C9F8206918B905A12846FEF706
:10334000C3F82069BDE870400F4A10A102F020BD0B
:103350002E2E5C2E2E5C2E2E5C2E2E5C2E2E5C2EA7
:103360002E5C636F6D706F6E656E74735C6C6962FA
:103370007261726965735C636C695C6E72665F63CF
:103380006C692E6300000000AB8400002573000010
:103390002DE9FC5F002604468DF804608068354600
:1033A000B046B14680219430FDF7C3F84149206909
:1033B00002F0EEFC206902F02BFD002740F2E73B13
:1033C0004FF47A7A6B46012201A92046FEF7C0FC31
:1033D0000098D8B19DF804001B2806D0A16891F888
:1033E00094101B29EED152281CD0A26808F1940138
:1033F000505408F1010000F0FF08B8F1090F08D996
:10340000A168042081F89490BDE8FC9F584602F022
:1034100079F800980028D5D17F1CBFB25745D1D389
:103420000D20F1E7A16808F194004A4601F80090E8
:10343000A16891F895005B2803D081F894200B20B7
:10344000E2E702206FF02F070AE000BF05EB8505D9
:1034500007EB4505401C2B44C0B29DB2802808D222
:1034600000F19403CB5C3B2BF0D1401CC0B2802810
:1034700009D30C20C8E700BF06EB860607EB46061B
:1034800033449EB2F1E700F19403CB5C002BF3D1FF
:10349000FA20FA2E01D9087200E00E72FA2D02D934
:1034A000A168887201E0A0688572A06880F8942005
:1034B0000020A9E7C984000070B5054600F0D8FFD8
:1034C00004468078E178884201D1012600E0002698
:1034D0002846FFF708FF18B9284600F008F910B190
:1034E0002846FFF71FFF1EB160782178401A12E0CE
:1034F000E078A178401AC1B2284600F01FF8207881
:103500006178884206D9401AC1B22846BDE87040A9
:1035100000F008B8081AC1B22846BDE87040FFF7AD
:10352000F5BE0000002904D00A46006901A102F09E
:103530002FBC70471B5B256443000000002904D0AA
:103540000A46006901A102F023BC70471B5B256499
:103550004100000070B50C00054604D10AA140F2FC
:103560007520FDF7B1FF0C48417800208D4209D24B
:103570000A4AE06005EB4511A060114408A0C4E9C7
:10358000001070BD206070BD2E2E5C2E2E5C2E2E85
:103590005C6D61696E2E630000000020D80200207F
:1035A00053686F772064796E616D696320636F6D16
:1035B0006D616E64206E616D652E00000E4910B560
:1035C0000A784C780023A24212D0521CD2B20A7060
:1035D000022A00D10B70084A0B780C3252F82320D3
:1035E00002608868104420F07F408860012010BD90
:1035F0000360002010BD0000D40000202DE9F05F22
:1036000017460E00814670D013B1F9B2FFF78AFF5A
:103610000024FCF715FF8246006800E0641C315D61
:10362000415CC907FAD100253046FEF75FFDD9F8A5
:103630000810001B4A7BD11B814228D306EB0408EB
:1036400005E000BF18F805100A290CD06D1C854252
:10365000F8D33119D9F8100002F09AFB4846BDE8BA
:10366000F05FFFF75FBED9F8100002F0D1FB4146D2
:1036700000232A464846FEF7E1FF2C444846641CD6
:10368000FFF750FEF9B24846FFF74CFFE1E78B46E3
:10369000DAF8001006EB040818F805000B5CDB07ED
:1036A00002D0AB460A2804D0E819904201D26D1C22
:1036B000F2E7D9F8100002F0ABFB414600235A466E
:1036C0004846FEF7BBFF5C44DAF8000000E0641CEB
:1036D000315D415CC907FAD14846FFF723FEF9B2D4
:1036E0004846FFF71FFF9EE7FFE7BDE8F09F10B5D4
:1036F00004460068FEF7FAFC0146A068827C407B25
:103700001144B1FBF0F200FB121008B1002010BD13
:10371000012010BDFEB500260446009601960296D3
:103720008068E9B3D0E94D128A4271D0D0F83001F7
:1037300000286DD02046FFF7ACFDA068D0F83851C6
:10374000002D68D0002309226946284603F028F995
:10375000A1689DF808500098C1F83801A0680023BE
:103760000922D0F83801694603F01AF9A1689DF8DA
:1037700008200923D1F838011431521C03F010F944
:10378000A1689DF80800C874A1689DF808008874B5
:103790009DF80800A84202D22046FEF75DF800E03E
:1037A0000BE0A3682BA208212046143301F0E8FAAD
:1037B0002046FFF798FD60BB42E0D0F838010028B2
:1037C00046D02046FFF765FDA06800230922D0F807
:1037D0003801694603F0E4F8A0680199C0F838118F
:1037E000A0680029857CB9D19430FEF77FFC0028C1
:1037F000A06805D000F194011430FCF7BAFE00E097
:103800000675A0681430FEF771FC8DF80800B7E764
:103810001EE01AE0FFE71430FEF768FC10F0FF0529
:10382000A068D0F83011C0F83811A06805D000F1B8
:1038300014019430FCF79DFE90E780F894608DE7CA
:103840002046FFF754FF002802D02046FFF76AFD0C
:10385000FEBD000025730000FEB50D00044604D136
:103860001E494FF49060FDF72FFEA1680026D1F8A5
:10387000300138B300230922694603F091F801951D
:10388000A06800230922D0F83001694603F08EF8C1
:103890000196A068D0F830110091807C8DF8080066
:1038A000A068C0F83051002309226946284603F079
:1038B0007DF8A168092328468A7C1431521C03F044
:1038C00075F8FEBDC1F83051A068C0F834510096BB
:1038D0000196A068807C8DF80800E4E7947A0000E7
:1038E000FEB504468068D0F83461002E28D000234D
:1038F00009226946304603F053F8A1680198002573
:10390000C1F83401009501952B46092269463046DD
:10391000029503F04BF8304603F00FF8A168D1F898
:10392000340170B100230922694603F039F800958B
:10393000A06800230922D0F83401694603F036F864
:10394000FEBDC1F83051FEBDFEB50446806814309E
:10395000FEF7CCFB10F0FF05A0684FF00006C0F8A2
:10396000386133D0A068D0F83001E0B100230922DB
:10397000694603F015F89DF80820AA4213D1A06803
:10398000092300F19401D0F83001521C03F008F82B
:10399000A06800F194011430FCF7DDFD0028A06858
:1039A00080F8946012D000260A352946606902F03A
:1039B00094FF0100204604D003B0BDE8F040FFF7BB
:1039C0004BBFFFF78DFF761C082EEED3FEBD000027
:1039D0002DE9FC5F0E008346DDE90C47C6F10000CF
:1039E00098469246814600D40846012503E000BF70
:1039F00090FBFAF06D1C5045FADAA84500D945460F
:103A000024B1002E01DB780700D5641EB80702D56B
:103A1000B8F1000F0AD0F80708D13CB1A54205D291
:103A200020215846641EFDF785FDF6E7002E02DAD8
:103A30004E462D2102E0780703D52B215846FDF78D
:103A400079FD07F0030002280BD1B8F1000F08D16F
:103A50003CB1A54205D230215846641EFDF76AFDEF
:103A6000F6E7CDE90047434652463146584604F052
:103A700021FBBDE8FC9F000070B50E4604460079AE
:103A800018494FF4A27501EB4010017F2068A1B1E5
:103A90004FF4887103F07EFD4FF49071206803F0BD
:103AA00079FD4FF49271206803F074FD2946206877
:103AB00003F070FD0C49206809E04FF48E7103F0AB
:103AC00058FD2946206803F054FD08492068C0F8D5
:103AD0000413206801F03CFE3146BDE8704001F05F
:103AE0000FBE0000480C00201003020080000200FE
:103AF0000268134602E08A4204D01268002AFAD112
:103B00000B600160704700002DE9F047394E002737
:103B100080463D46DFF8E090D6F804A057E003D099
:103B20000446D0F81C8035E099F8002002EB4201F1
:103B3000521CD2B289F8002009EBC10199F8023079
:103B4000091D9A4201D189F8005048680A78044654
:103B5000012A12D0022A02D0032A3BD108E004F045
:103B600077F800B10127257434E00574C06900E0DE
:103B700070680028F9D170602CE0207C50BB886808
:103B80006060C868A0600869E0604869A061F0787A
:103B900000B165606268B168184B501A20F07F4030
:103BA000984202D2A168084406E0881AA16820F071
:103BB0007F40814202D9081A206000E025606560DC
:103BC0000120A56020742046E56104F023F8B8F1D7
:103BD0000000A4D199F8001099F801008142A3D106
:103BE00017B97168514502D00120BDE8F087002067
:103BF000FBE70000D4000020880C0020FFFF7F00BE
:103C00001CB5012905D0816891F83D11C1F340012F
:103C100031B102B00022BDE81040114601F00EB9EA
:103C2000536804A1CDE90013136808A2022101F032
:103C3000A7F81CBD20756E6B6E6F776E2070617279
:103C4000616D657465723A200000000025733A25A5
:103C50007325730D0A0000002DE9F74F82B0154659
:103C600002980F004FF00006C068007A009058D00C
:103C7000072248A12868FCF785FC78B1082247A1F3
:103C80002868FCF77FFC002830D02B6845A20298FA
:103C900005B00221BDE8F04F01F072B8012F02D04B
:103CA000022F08D008E0029805B044A2BDE8F04F0A
:103CB000022101F065B80126DFF81881002400BF59
:103CC00058F824100A226868FCF75CFC10B1641CE8
:103CD000052CF5D3052C06D004F0FF090224002E94
:103CE00054D0002419E03CA26B68D0E7012F4FF0BC
:103CF0000009F6D0012449E04A462146009800F028
:103D00007BFB48B90021204602F06AFD03463AA237
:103D10000221029801F034F8641C02F00FFDA04269
:103D2000EAD805B0BDE8F08F4FF0000A55F824B08E
:103D300002F004FD8046002609E00021304602F032
:103D40004FFD20225946FCF71DFC90B1761C4645DC
:103D5000F3D3464506D155F8243030A2022102980B
:103D600001F00EF84A465146009800F045FB10B1AC
:103D70000BE0B246EDE70021504602F031FD03466C
:103D80001DA20221029800F0FBFF641CBC42CBD3B1
:103D9000C7E70000656E61626C650000646973616D
:103DA000626C6500556E6B6E6F776E206F70746914
:103DB0006F6E3A2025730D0A0000000042616420F6
:103DC000706172616D6574657220636F756E742EBB
:103DD0000D0A000058010020556E6B6E6F776E2043
:103DE0007365766572697479206C6576656C3A20C6
:103DF00025730D0A000000004C6576656C20756E19
:103E0000617661696C61626C6520666F72206D6FAE
:103E100064756C653A2025730D0A0000556E6B6E53
:103E20006F776E206D6F64756C653A25730D0A00AF
:103E3000C068012141727047C0680021417270471B
:103E400070B588B0244800F03BFB2348001F0646AD
:103E500000F036FB214DD5E9014105E0C0F38912A0
:103E600002EB9050641C044404EA010005EB80005E
:103E7000C0688207F2D000200DF1080204EA0103B5
:103E800005EB8303641CDB6842F82030401C0228E9
:103E9000F4D3029800F00300012817D002280ED0B6
:103EA0000F4940F22710FDF70FFB3046002101AA11
:103EB000FCF77FFA002800D06C6008B070BD029853
:103EC000032101EB905004EB9004EEE70298C0F35D
:103ED00083100444E9E700006C120020540E002017
:103EE000B89B00002DE9FE4F814602F027FC0746F3
:103EF000D9F80C0090F80880407A20B91FA202215E
:103F0000484600F03DFF22A324A20821484600F0C5
:103F100037FF2AA20821484600F032FF002429E09A
:103F200001231A462146404602F012FC8246002335
:103F300001222146404602F00BFC0546032801D22F
:103F4000064600E003260121204602F049FC034614
:103F5000AE4201D225A200E017A2254850F8261053
:103F600050F82A008DE8070022A20821484600F0F8
:103F700007FF641CBC42D3D3BDE8FE8F4C6F677350
:103F8000206172652068616C746564210D0A00000F
:103F90006D6F64756C655F6E616D6500252D3234E3
:103FA00073207C2063757272656E74207C2062754C
:103FB000696C64696E200D0A000000002D2D2D2D06
:103FC0002D2D2D2D2D2D2D2D2D2D2D2D2D2D2D2D21
:103FD0002D2D2D2D2D2D2D2D2D2D2D2D2D2D2D2D11
:103FE0002D2D2D2D2D2D0D0A000000002A00000082
:103FF00058010020252D323473207C20252D377365
:10400000207C20257325730D0A0000008AB04748E4
:1040100002F04CFB18B146A2C121FDF7C3F801F034
:10402000B7FA18B142A2C421FDF7BCF8002001F094
:10403000D1FA002001F098FB18B13DA2C821FDF78C
:10404000B1F8FDF705F918B139A2CB21FDF7AAF8AF
:104050003B4A01213B48FDF7E9F818B134A2CF21D2
:10406000FDF7A0F800224FF400413748FDF71AF998
:1040700018B12FA2D221FDF795F8324920223C3108
:1040800001A8FCF72FFA06200190082002900020DA
:104090008DF818002B48032401231A4601A9001D9E
:1040A000009401F041F818B121A2DE21FDF77AF861
:1040B000244801231A4600212030009401F034F8EE
:1040C00018B11BA2E121FDF76DF81E48001D01F09B
:1040D00073F918B11DA2B821FDF764F81948203012
:1040E00001F06AF918B119A2BA21FDF75BF81B4C6F
:1040F000606803280FD32088132545EA004018A1E3
:1041000002F058FA6068032805D320881DA145EA0B
:10411000004002F04FFA02F04FF90A48203001F057
:10412000F5F80848001D01F0F1F8F4E7211200004D
:104130002E2E5C2E2E5C2E2E5C6D61696E2E630021
:10414000CD7A000088820000B80200202E2E5C2E5E
:104150002E5C2E2E5C6D61696E2E63006C02002059
:10416000436F6D6D616E64204C696E6520496E749D
:10417000657266616365206578616D706C652E0D92
:104180000A000000506C656173652070726573737E
:104190002074686520546162206B657920746F20FB
:1041A00073656520616C6C20617661696C61626C1D
:1041B0006520636F6D6D616E64732E0D0A000000E3
:1041C0002DE9FF4F4FF0000881B014468B46814621
:1041D000C246C0F800802578002D71D0FCF730F978
:1041E00000900068405DC00702D004F801AB84E095
:1041F000D9F800008300401CC9F800004BF80340C8
:1042000015E02678002E78D0B8F1000F05D1222EC7
:1042100010D0272E0ED05C2E1ED0B04514D12046D3
:10422000FDF764FF0246611C2046FCF75BF94FF086
:104230000008E6E72046FDF759FF0246611C2046CC
:10424000FCF750F9B046DCE7B8F1000F50D05C2E17
:104250006AD16078404508D12046FDF747FF024605
:10426000611C2046FCF73EF95EE030281CD1002797
:104270000225605DA0F13001072906D86D1C41EAD6
:10428000C701EDB2CFB2052DF3D3022D0CD92046D4
:10429000FDF72CFF421B61192046491E921CFCF7BA
:1042A00021F904F8017BACE778281ED1002702250C
:1042B000605DA0F13001092903D841EA07100DE043
:1042C00021E0A0F16101052901D8573804E0A0F1EF
:1042D0004101052907D8373840EA07106D1CEDB2B7
:1042E000C7B2042DE4D3022DD1D8B8F1000F1BD1F1
:1042F00000980068805DC00716D0D9F800100498B7
:104300008142FFF468AFD9F800000C2804D907A156
:1043100040F2FE30FDF7D8F8D9F8002040464BF8BF
:1043200022A005B0BDE8F08F641C6AE72E2E5C2E3B
:104330002E5C2E2E5C2E2E5C2E2E5C2E2E5C636F41
:104340006D706F6E656E74735C6C696272617269B8
:1043500065735C636C695C6E72665F636C692E6327
:10436000000000002DE9F05FC7888A46191D164637
:10437000B1FBF7F2B1FBF7F507FB121999193944B4
:10438000C91CB1FBF7F104464079C9B2DDF828B089
:10439000884206D217499420FDF796F801E0246878
:1043A0006D1E002DFBD1A846A7EB0905B5421AD812
:1043B0001CE000BFBBF1000F06D004EB09010AEBC3
:1043C00008002A46091D05E004EB09000AEB080174
:1043D0002A46001DFCF786F82468761B4FF000097A
:1043E000A844B74201D9354600E03D46002EE1D150
:1043F000BDE8F09F6898000070B5144600230D4694
:1044000006461A4602F0A4F9844201D9002070BD84
:1044100022462946304602F0C1F9012070BD000055
:1044200030B5024669B102F089F90021084C0BE071
:1044300001EB410304EB830315685B88AB4202D1B7
:104440001160002030BD491C8142F1D3052030BDF0
:104450000002002010B50C460021E16061600349B4
:10446000A160012102F0BCF9206010BD8887000026
:1044700070B58468006804F10805FDF737FEC1B225
:10448000A971E07C6A790844B0FBF2F302FB1303E4
:104490005B1C2B70E07C0844B0FBF2F35B1CAB7040
:1044A000A07C0844B0FBF2F35B1CEB70A07C0844DA
:1044B000B0FBF2F102FB1101491C6970284670BD86
:1044C00008B501216A46FBF767FF009808BD08B5EB
:1044D0006A46FBF73AFF08BD70B5040003D113A18B
:1044E000C620FCF7F1FF00252846FCF72BFF2068CB
:1044F00062680168914214D9491E01600D781CB9A7
:1045000019A18920FCF7E0FF208AE16805FB00156E
:104510002068217A0278891A0279C9B28A4200D2C7
:1045200001710020FCF73CFF284670BD2E2E5C2E4A
:104530002E5C2E2E5C2E2E5C2E2E5C2E2E5C636F3F
:104540006D706F6E656E74735C6C696272617269B6
:1045500065735C62616C6C6F635C6E72665F6261F6
:104560006C6C6F632E6300002E2E5C2E2E5C2E2E44
:104570005C2E2E5C2E2E5C2E2E5C636F6D706F6E2B
:10458000656E74735C6C69627261726965735C629A
:10459000616C6C6F635C6E72665F62616C6C6F63A2
:1045A0002E63000070B50C46050003D10FA1EA2070
:1045B000FCF78AFF1CB90DA1EB20FCF785FF00205A
:1045C000FCF7C0FE1DB918499620FCF77DFFE8688E
:1045D0002A68211A288AB1FBF0F11068431C136085
:1045E0000170BDE870400020FCF7DABE2E2E5C2E74
:1045F0002E5C2E2E5C2E2E5C2E2E5C2E2E5C636F7F
:104600006D706F6E656E74735C6C696272617269F5
:1046100065735C62616C6C6F635C6E72665F626135
:104620006C6C6F632E6300006845000010B50400D9
:1046300002D0206830B901E00E2010BD17A1A020E3
:10464000FCF742FF606818B914A1A120FCF73CFFF9
:10465000A06818B911A1A220FCF736FFE06818B9CC
:104660000EA1A320FCF730FF208A18B90BA1A420CB
:10467000FCF72AFF207A61682268401AC0B21160F4
:1046800004E0226811684B1C13600870401EC0B221
:10469000F7D221680020087110BD00002E2E5C2E7C
:1046A0002E5C2E2E5C2E2E5C2E2E5C2E2E5C636FCE
:1046B0006D706F6E656E74735C6C69627261726945
:1046C00065735C62616C6C6F635C6E72665F626185
:1046D0006C6C6F632E630000C20800F007030120BA
:1046E000895C98400840704770B51546826892F81A
:1046F0003D41C4F3400424B11A46294600F09EFB14
:1047000006E039B1516804A20B68022100F038FBC1
:10471000012070BD002070BD25733A2062616420C5
:10472000706172616D6574657220636F756E740D72
:104730000A00000070B50D46040004D122A140F625
:10474000CE20FCF7C1FEA06818B1606808B12068EF
:1047500020B91DA140F6CF20FCF7B6FE022D0CD1EA
:10476000A06890F83D01C0F3400030B12046BDE89C
:1047700070400022114600F061BB40F6D7251CB9FD
:1047800011A12846FCF7A0FE206918B90EA1284601
:10479000FCF79AFE1A4A1BA1206901F0F9FA40F6CB
:1047A000D8251CB908A12846FCF78EFE206918B947
:1047B00005A12846FCF788FE2069BDE87040104A34
:1047C00010A1093201F0E4BA2E2E5C2E2E5C2E2EA2
:1047D0005C2E2E5C2E2E5C2E2E5C636F6D706F6EC9
:1047E000656E74735C6C69627261726965735C6337
:1047F0006C695C6E72665F636C692E63000000001A
:10480000C5840000257300001CB5012905D00229CC
:104810000BD014D94FF0010112E002B04FF00002AA
:10482000BDE81040114600F009BB53680849CDE9C6
:104830000013136807A2022100F0A2FA1CBD002198
:1048400002B00023BDE810401A46FFF74DBF00003C
:10485000D984000025733A257325730D0A000000E2
:104860003EB50446012901D0012100E000210023CA
:104870001A46FFF739FF002818D1E068C06802F037
:1048800021FCC0B2642110FB01F2E168C9688968AB
:10489000B2FBF1F2D2B20092CDE90101A06804A20C
:1048A0000821D0F82C31204600F06AFA3EBD000005
:1048B0004C6F7374204C4F47733A2025750D0A4D89
:1048C0006178204C4F472071756575652075746956
:1048D0006C697A6174696F6E3A2025752525205BB5
:1048E00025752F25755D0D0A0000000010B50446E2
:1048F000012901D0012100E0002100231A46FFF721
:10490000F3FE002808D1A168C1F82C01E068C06856
:10491000BDE8104002F000BC10BD00007CB515469B
:104920000E46040004D118A14FF42F60FCF7CCFD13
:10493000A06818B1606808B1206820B912A140F6DB
:10494000F120FCF7C1FD012E03D0022E09D0012178
:1049500008E002B02046BDE870400022114600F099
:104960006DBA002100231A462046FFF7BDFE00283D
:1049700009D169681248CDE9000112A2022120463E
:104980002B6800F0FDF97CBD2E2E5C2E2E5C2E2EA9
:104990005C2E2E5C2E2E5C2E2E5C636F6D706F6E07
:1049A000656E74735C6C69627261726965735C6375
:1049B0006C695C6E72665F636C692E630000000058
:1049C000D984000025733A257325730D0A00000071
:1049D00010B50446012901D0012100E00021002387
:1049E0001A46FFF781FE002806D1A06890F83D1115
:1049F00021F0040180F83D1110BD10B504460129D5
:104A000001D0012100E0002100231A46FFF76CFECF
:104A1000002806D1A06890F83D1141F0040180F80B
:104A20003D1110BD7CB514460D460646022901D93C
:104A3000012100E0002100231A46FFF755FE00285F
:104A400012D1022D06D0B06890F83D0100070CD5B8
:104A50000AA30BE061680A48CDE9000109A202211E
:104A60003046236800F08CF97CBD09A302B03046C3
:104A7000BDE8704007A2082100F082B96F6E000007
:104A8000D984000025733A257325730D0A000000B0
:104A90006F6666004563686F207374617475733A5E
:104AA0002025730D0A00000010B50446012901D02D
:104AB000012100E0002100231A46FFF715FE00281F
:104AC0000BD1A16891F83D0120F0080081F83D016B
:104AD000A16820F0010081F83D0110BD10B5044629
:104AE000012901D0012100E0002100231A46FFF72F
:104AF000FBFD002806D1A06890F83D1141F00801A7
:104B000080F83D1110BD00007FB50D46040004D1B2
:104B100022A140F63730FCF7D7FCA06818B16068D6
:104B200008B1206820B91DA140F63830FCF7CCFC54
:104B3000012D01D0012100E0002100231A4620466A
:104B4000FFF7D2FD002827D1A0680026D0F8345105
:104B5000F5B101E0082E1BD20023092201A9284645
:104B600001F01EFF9DF80C20A1680923284694310E
:104B7000521C01F015FFA068334694300090029D4E
:104B8000761C14A20821204600F0FAF8002DE1D18D
:104B9000A168002081F894007FBD00002E2E5C2EBD
:104BA0002E5C2E2E5C2E2E5C2E2E5C2E2E5C636FC9
:104BB0006D706F6E656E74735C6C69627261726940
:104BC00065735C636C695C6E72665F636C692E63AF
:104BD000000000005B2533645D2025730D0A000092
:104BE0007CB515460E46040004D120A140F69D3048
:104BF000FCF76AFCA06818B1606808B1206820B9A9
:104C00001AA140F69E30FCF75FFC012E03D0022E65
:104C100018D9012117E0A168204601F10C020D31DD
:104C200002F0FAFE00281FD0A16850201DA2487390
:104C3000A1681820087302B02046BDE87040042126
:104C400000F09EB8002100231A462046FFF74CFDD5
:104C5000002809D169682348CDE9000122A2022178
:104C600020462B6800F08CF87CBD00002E2E5C2EB8
:104C70002E5C2E2E5C2E2E5C2E2E5C2E2E5C636FF8
:104C80006D706F6E656E74735C6C6962726172696F
:104C900065735C636C695C6E72665F636C692E63DE
:104CA000000000006E6F20726573706F6E73652078
:104CB00066726F6D207465726D696E616C2C206117
:104CC0007373756D656420383078323420636861A1
:104CD00072732073637265656E2073697A650D0A5D
:104CE00000000000D984000025733A257325730D58
:104CF0000A00000070B50446012901D0012100E03E
:104D0000002100231A46FFF7EFFC002817D140F6D8
:104D100096351CB90AA12846FCF7D6FB206918B9BC
:104D200007A12846FCF7D0FB134A14A1206901F023
:104D30002FF8A16850204873A1681820087370BD2F
:104D40002E2E5C2E2E5C2E2E5C2E2E5C2E2E5C2E9D
:104D50002E5C636F6D706F6E656E74735C6C6962F0
:104D60007261726965735C636C695C6E72665F63C5
:104D70006C692E6300000000D384000025730000DE
:104D80000FB4F8B5044608980E4620B91DA140F6A8
:104D9000D400FCF799FB24B91AA140F6D500FCF722
:104DA00093FBA06818B1606808B1206820B915A10C
:104DB00040F6D600FCF788FB09A80090A06890F8A0
:104DC0003D11490718D5C17BB14215D0B0F80F503D
:104DD0003146204603F0FEF96A462069089901F041
:104DE00043F8E9B2204603F0F5F9290A204603F01A
:104DF000D3F9F8BC5DF814FB6A462069089901F004
:104E000033F8F6E72E2E5C2E2E5C2E2E5C2E2E5CBA
:104E10002E2E5C2E2E5C636F6D706F6E656E7473DC
:104E20005C6C69627261726965735C636C695C6E0B
:104E300072665F636C692E63000000002DE9F04F1D
:104E400089B090460D46040004D191A140F654105B
:104E5000FCF73AFBA06818B1606808B1206820B977
:104E60008BA140F65510FCF72FFB9748FDF73EF954
:104E7000064695485438FDF739F9301A1FFA80F97B
:104E8000914892A241380090A068082140680368C8
:104E90002046FFF775FFA06840680068FDF726F917
:104EA000064689484138FDF721F9304482B2A068AE
:104EB0000023406841682046FEF7A0FB85A2082138
:104EC0002046FFF75DFFB8F1000F22D00DB300269A
:104ED0001DE000BF06EB460A05EB8A0BDBF8040079
:104EE000FDF704F9074655F82A00FDF7FFF83918D1
:104EF00049450BD9DBF80400FDF7F8F8074655F8EB
:104F00002A00FDF7F3F838441FFA80F9761C46456D
:104F1000E0D36D485438FDF7E9F84844801C1FFA87
:104F200080F9694800904B466DA208212046FFF7A2
:104F300027FF09F1030087B2079000233A466AA1D0
:104F40002046FEF75BFB002D51D000264DE000BF50
:104F500006EB460A05EB8A0B55F82A00DBF804300D
:104F600063B348B3584965A25439CDE9001008210C
:104F70002046FFF705FF09F102000090DBF804006E
:104F8000FDF7B4F8074655F82A00FDF7AFF80744D7
:104F90004D485438FDF7AAF839180098401A801E79
:104FA000C1B22046FEF7BEFA3A225749206900F006
:104FB000EFFE0098401C0AE0009301E040B1009031
:104FC0004B4647A208212046FFF7DAFE079887B232
:104FD000DBF8081029B100233A462046FEF70EFB05
:104FE00002E02046FEF79EF9761C4645B0D3A06845
:104FF00040688068002847D0814600200646054664
:1050000003AF02902A466D1C02AB0121484600976F
:10501000FDF7B8FE029850B10068FDF767F8B0429E
:10502000F0D902980068FDF761F886B2EAE7012D31
:105030002AD036A208212046FFF7A2FE0025B84656
:105040002A466D1C02AB01214846CDF80080FDF7D1
:1050500099FE0298002817D0B11C8FB2006800900A
:105060003B461FA208212046FFF78AFE0298FF1C3C
:10507000BAB2416821B100232046FEF7BFFADFE74C
:105080002046FEF74FF9DBE709B0BDE8F08F0000DE
:105090002E2E5C2E2E5C2E2E5C2E2E5C2E2E5C2E4A
:1050A0002E5C636F6D706F6E656E74735C6C69629D
:1050B0007261726965735C636C695C6E72665F6372
:1050C0006C692E63000000000285000025732573C3
:1050D000000000004F7074696F6E733A0D0A000093
:1050E0002020252D2A733A0053686F7720636F6D57
:1050F0006D616E642068656C702E00002020257341
:105100002573257300000000541800005375626376
:105110006F6D6D616E64733A0D0A0000806890F8DF
:105120003D01C0F3400070472DE9F0411E46DDF817
:10513000188015460F46040004D10DA140F62D003D
:10514000FCF7C2F92A463946204600F02DF8050042
:105150000CD15EB14146E06801F0A2F8002802DA05
:105160000420BDE8F081E068012141722846F8E79B
:105170002E2E5C2E2E5C2E2E5C2E2E5C2E2E5C2E69
:105180002E5C636F6D706F6E656E74735C6C6962BC
:105190007261726965735C636C695C6E72665F6391
:1051A0006C692E63000000002DE9F04715460E469D
:1051B000040004D140A140F2CF70FCF785F9A0684B
:1051C00018B1606808B1206820B93BA14FF4FA60BB
:1051D000FCF77AF9207E0A2806D00D2804D036A1E3
:1051E00040F2D170FCF770F9E0682346404A446110
:1051F000606801680F683146B847002859D1606976
:1052000020B92DA14FF4FC60FCF75EF9606901F054
:10521000B4FB00284DD1A168C1F83001A168C1F8E4
:1052200034014FF4A071A068FBF783F9A068012155
:1052300080F83C11A2682F4F40F2FC7992F83D01B2
:1052400040F2FD7A65F3820082F83D01A26840F0E9
:10525000080082F83D01A0680170A16850204873E1
:10526000A1681820002408732348244980460D1A99
:1052700013E000BF18EBC40603D10FA14846FCF7AA
:1052800023F97068006818B90BA15046FCF71CF9A7
:105290007068006847F82400641CB4EBD50FE9D3AC
:1052A000072D05D9E908164B04223846FBF7CCF840
:1052B0000020BDE8F08700002E2E5C2E2E5C2E2EE6
:1052C0005C2E2E5C2E2E5C2E2E5C636F6D706F6ECE
:1052D000656E74735C6C69627261726965735C633C
:1052E0006C695C6E72665F636C692E63000000001F
:1052F00005240000CC0100204C9E0000B49E00005C
:10530000B57900000023FDF799B9000010B504003D
:1053100004D11AA140F6AB00FCF7D6F8A06818B18A
:10532000606808B1206820B914A140F6AC00FCF711
:10533000CBF8A0680078D8B1012819D0022817D17D
:105340002046FCF7EBFD00212046FCF749FC78B134
:1053500018A2032120462368FFF712FDA36815A2B7
:10536000082120461433FFF70BFD2046FEF7A4F872
:105370002069BDE8104000F04BBD00002E2E5C2ED1
:105380002E5C2E2E5C2E2E5C2E2E5C2E2E5C636FE1
:105390006D706F6E656E74735C6C69627261726958
:1053A00065735C636C695C6E72665F636C692E63C7
:1053B000000000002573000070B5040004D117A19F
:1053C00040F67A00FCF780F8A06818B1606808B170
:1053D000206820B911A140F67B00FCF775F8A068A1
:1053E0000078012801D0082070BD606801688A68D3
:1053F0000021904705000FD10821204602F0EAFE67
:105400000121204602F0C8FE12A1206900F0C0FC74
:1054100002212046FCF756FE284670BD2E2E5C2E3B
:105420002E5C2E2E5C2E2E5C2E2E5C2E2E5C636F40
:105430006D706F6E656E74735C6C696272617269B7
:1054400065735C636C695C6E72665F636C692E6326
:10545000000000000D0A0A0000F1804000680028EA
:1054600000D00120704708B500F1804000210160A4
:105470000068009008BD000000283ED01F49204A67
:10548000096800BF00BF00BF00BF00BF00BF00BF72
:1054900000BF91422FD000BF00BF00BF00BF00BFC0
:1054A00000BF00BF00BF00BF00BF00BF00BF00BF04
:1054B00000BF00BF00BF00BF00BF00BF00BF00BFF4
:1054C00000BF00BF00BF00BF00BF00BF00BF00BFE4
:1054D00000BF00BF00BF00BF00BF00BF00BF00BFD4
:1054E00000BF00BF00BF00BF00BF00BF00BF00BFC4
:1054F00000BF00BF00BF0138C3D17047C801002002
:105500000024F40000283ED01F49204A096800BF4B
:1055100000BF00BF00BF00BF00BF00BF00BF91427F
:105520002FD000BF00BF00BF00BF00BF00BF00BF43
:1055300000BF00BF00BF00BF00BF00BF00BF00BF73
:1055400000BF00BF00BF00BF00BF00BF00BF00BF63
:1055500000BF00BF00BF00BF00BF00BF00BF00BF53
:1055600000BF00BF00BF00BF00BF00BF00BF00BF43
:1055700000BF00BF00BF00BF00BF00BF00BF00BF33
:1055800000BF0138C3D17047C80100200024F400D7
:1055900070B50E4C0025207808B1852513E0002158
:1055A000A16061602161E1604FF0E020D0F800016E
:1055B000012610F0010F03D10721002000F0A0F810
:1055C000034806602670284670BD0000DC0B0020F2
:1055D0001805004070B51C4C0546207818B91BA171
:1055E000D520FBF771FFA07838B115B169680120AB
:1055F00088470020FBF7A6FE15E00020FBF7A2FE7F
:1056000025B1114829461030FEF772FAE06850B90A
:105610004FF48270FFF727FF02204107C1F804030F
:105620001A4901200860E068401CE0600020FBF798
:10563000B7FEE068002805D1BDE8704003A1F12065
:10564000FBF742BF70BD0000DC0B00202E2E5C2E4D
:105650002E5C2E2E5C2E2E5C2E2E5C2E2E5C636F0E
:105660006D706F6E656E74735C647269766572736B
:105670005F6E72665C636C6F636B5C6E72665F64B8
:1056800072765F636C6F636B2E63000008000040EE
:105690002DE9F0414FF480773846FFF7DDFE012415
:1056A000104EA50748B13846FFF7DDFE0120C5F8CA
:1056B000080374700020FDF723F84FF48277384612
:1056C000FFF7CAFE00280BD03846FFF7CCFE0220B9
:1056D000C5F80803B470BDE8F0410120FDF710B82B
:1056E000BDE8F081DC0B002000F01F020121914099
:1056F0004009800000F1E020C0F8801170470000F0
:1057000070B50D460446082903D31049FE20FBF767
:10571000DBFE6807000E002C06DA04F00F0101F131
:10572000E02181F8140D03E004F1E02181F8000488
:1057300004F01F01012088406109890001F1E02186
:10574000C1F88002C1F8000170BD0000A490000003
:10575000000B40B270470121B1EB507F01D1012015
:10576000704700207047000070B50D4C217809B1DA
:10577000852070BD00B90B480B49007800F001008E
:1057800008604FF0E020D0F80001012510F0010F73
:1057900003D107210020FFF7B3FF2570002070BD63
:1057A000C8000020A48400007805004070B54FF0C8
:1057B0008040D0F804531B4C68070DD54FF484701B
:1057C00001F078FB40B1606820B917A140F24110A8
:1057D000FBF77AFE60688047A8060ED54FF48A7002
:1057E00001F068FB48B1A06820B90FA140F2491050
:1057F000FBF76AFEA16800208847680611D54FF4C0
:105800008C7001F057FB00280BD0A06820B906A1CE
:105810004FF4A870FBF758FEA168BDE87040012066
:10582000084770BDC80000202E2E5C2E2E5C2E2E48
:105830005C2E2E5C2E2E5C2E2E5C636F6D706F6E58
:10584000656E74735C647269766572735F6E72669E
:105850005C706F7765725C6E72665F6472765F70A3
:105860006F7765722E6300002DE9F04190460D00C0
:10587000064603D118A1EA20FBF726FE3079264F11
:1058800007EB4014E07E10B10820BDE8F081687F8E
:10589000207729463046FBF7C3FD5FEA08006060C9
:1058A0002969216003D0297F3046FEF7E5F8307979
:1058B00007EB4010007F0028306801D0082100E08D
:1058C0000421C0F800150020E0752076A0750121A4
:1058D000E176A076D9E700002E2E5C2E2E5C2E2ECF
:1058E0005C2E2E5C2E2E5C2E2E5C636F6D706F6EA8
:1058F000656E74735C647269766572735F6E7266EE
:105900005C756172745C6E72665F6472765F7561FD
:1059100072742E6300000000480C00202DE9F04155
:1059200005460079304E174606EB40148846E07E67
:10593000012804D02DA140F23220FBF7C5FD27B984
:105940002AA140F23320FBF7BFFD287906EB401077
:10595000007F18B14046FFF7FEFE80B16268002369
:105960004FF404704FF4017172B12A7906EB4212C0
:10597000127F002A2A6805D0C2F8080304E010202C
:10598000BDE8F081C2F80813E27DB2B1227E7AB19F
:1059900062685AB12A7906EB4212127F1AB129685D
:1059A000C1F8040302E02868C0F804131120E7E7F7
:1059B000C4F810800123277605E0E7750020C4F8BD
:1059C0000C806076207628793A4606EB40104146F6
:1059D000007F0028284603D0BDE8F04100F08EB8D3
:1059E000BDE8F04100F036B8480C00202E2E5C2EA9
:1059F0002E5C2E2E5C2E2E5C2E2E5C2E2E5C636F6B
:105A00006D706F6E656E74735C64726976657273C7
:105A10005F6E72665C756172745C6E72665F6472F2
:105A2000765F756172742E63000000000179084A88
:105A300002EB411101220B7F01680BB14A607047F4
:105A40004FF40173C1F808330068426070470000EA
:105A5000480C00202DE9F05F04460079264901EB4F
:105A60004015A87E184302D1204601F0C6FE6868A2
:105A70000028206806D04FF40171C0F804130020FC
:105A8000BDE8F09F4FF4A276314601F072FDB146B9
:105A90004FF4927A4FF4847B5146206801F064FD04
:105AA00006465946206801F05FFD80464946206859
:105AB00001F05AFD074648EA07003043ECD056EAA9
:105AC000070007D12946206801F072FEE87D697E53
:105AD0008842E1D80020E8750EB10320D0E70FB16D
