:020000040000FA
:10000000182600204D030000550300005703000090
:10001000590300005B0300005D03000000000000C6
:100020000000000000000000000000005F0300006E
:10003000610300000000000063030000650300008E
:1000400067030000670300002D070000670300003E
:1000500067030000670300006703000067030000F8
:10006000F106000005070000190700006703000003
:1000700067030000670300006703000067030000D8
:1000800067030000670300006703000067030000C8
:1000900067030000670300006703000067030000B8
:1000A00067030000670300006703000067030000A8
:1000B000670300006703000000000000000000006C
:1000C0006703000067030000670300006703000088
:1000D00067030000670300006703000000000000E2
:1000E0000000000000000000000000000000000010
:1000F0000000000000000000000000000000000000
:1001000000000000000000000000000000000000EF
:1001100000000000000000000000000000000000DF
:1001200000000000000000000000000000000000CF
:1001300000000000000000000000000000000000BF
:1001400000000000000000000000000000000000AF
:10015000000000000000000000000000000000009F
:10016000000000000000000000000000000000008F
:10017000000000000000000000000000000000007F
:10018000000000000000000000000000000000006F
:10019000000000000000000000000000000000005F
:1001A000000000000000000000000000000000004F
:1001B000000000000000000000000000000000003F
:1001C000000000000000000000000000000000002F
:1001D000000000000000000000000000000000001F
:1001E000000000000000000000000000000000000F
:1001F00000000000000000000000000000000000FF
:10020000DFF80CD000F0E4F800480047850B000050
:100210001826002030B4044654E8000F0D4644E888
:100220000053002BF8D1156030BC704730B4044641
:1002300054E8000F40EA010544E80053002BF7D1D1
:10024000156030BC704730B4044654E8000F00EA33
:10025000010544E80053002BF7D1156030BC70470E
:1002600030B4044654E8000F80EA010544E8005326
:10027000002BF7D1156030BC704730B4044654E809
:10028000000F00EB010544E80053002BF7D1156087
:1002900030BC704730B4044654E8000FA0EB0105B1
:1002A00044E80053002BF7D1156030BC70470000C4
:1002B00030B4044654E8000F0D4644E80053002BC8
:1002C000F8D1156030BC704730B4044654E8000FD4
:1002D00040EA010544E80053002BF7D1156030BC1B
:1002E000704730B4044654E8000F00EA010544E8C2
:1002F0000053002BF7D1156030BC704730B4044672
:1003000054E8000F80EA010544E80053002BF7D1C0
:10031000156030BC704730B4044654E8000F00EB61
:10032000010544E80053002BF7D1156030BC70473D
:1003300030B4044654E8000FA0EB010544E8005334
:10034000002BF7D1156030BC70470000064880478D
:1003500006480047FEE7FEE7FEE7FEE7FEE7FEE7AA
:10036000FEE7FEE7FEE7FEE7F503000001020000FE
:1003700000487047FC22000040EA01039B0703D0BD
:1003800009E008C9121F08C0042AFAD203E011F8D4
:10039000013B00F8013B521EF9D27047D2B201E096
:1003A00000F8012B491EFBD270470022F6E710B57A
:1003B00013460A4604461946FFF7F0FF204610BDD3
:1003C000421C10F8011B0029FBD1801A7047000065
:1003D000064C074D06E0E06840F0010394E8070092
:1003E00098471034AC42F6D3FFF70EFF8823000085
:1003F000A8230000F0B5AE480023021D01780125B6
:10040000101D4FF0805406290BD11678360708D1FD
:100410000678C6F30316032E06D0042E04D0052E4C
:1004200002D0062907D00EE0B4F82463A14FC6F32A
:1004300004263E6002E01678360704D10678C6F33B
:100440000316032E02D0062904D00FE09B4F9A4ECC
:100450007E670EE01678360708D10678C6F30316D5
:10046000032E06D0042E04D0052E02D0062907D074
:100470000EE0D4F84462924FC6F342363E6002E08A
:100480001678360704D10678C6F30316032E02D079
:10049000062906D011E08B4E376827F08077376049
:1004A0000EE01678360708D10678C6F30316032E39
:1004B00006D0042E04D0052E02D006290AD011E061
:1004C0004FF08046C6F80C31C6F810317C4E361F0E
:1004D000336002E01678360704D10678C6F30316B7
:1004E000032E02D0062905D00CE0754F0326643791
:1004F0003E600AE01678360704D10678C6F3031684
:10050000032E02D006290DD014E06F4F05263E6061
:100510006D4E783635606C4E083633603F263F1D91
:100520003E6002E01678360704D10678C6F303165B
:10053000052E02D0062957D062E0644E3668644F1B
:100540003E60624E361D36683F1D3E605F4E083687
:1005500036683F1D3E605D4E0C3636683F1D3E607E
:100560005A4E103636683F1D3E60584E1436366877
:100570003F1D3E60554E18363668554F20373E6059
:10058000524E1C3636683F1D3E60504E203636684F
:100590003F1D3E604D4E243636683F1D3E604B4E3B
:1005A000283636683F1D3E60484E2C3636683F1D63
:1005B0003E60464E30363668454F40373E60434ECB
:1005C000343636683F1D3E60404E383636683F1D33
:1005D0003E603E4E3C3636683F1D3E603B4E4036E8
:1005E00036683F1D3E6002E01678360708D106786F
:1005F000C6F30316032E06D0042E04D0052E02D017
:10060000062907D019E0D4F85812324A01F04F01F8
:10061000116002E0117809070FD10078C0F30310D0
:10062000032803D0042801D0052806D12A480168F0
:10063000C90702D06FF001010160224874380168D7
:1006400041F470010160BFF34F8FBFF36F8F4FF024
:100650001021D1F80002002803DBD1F804020028A1
:1006600022DA1E4A15601E480468002CFCD01524AE
:10067000C1F800420568002DFCD0C1F804420168B1
:100680000029FCD0136001680029FCD0BFF34F8F14
:100690000C48F0380168134A01F4E061114301602D
:1006A000BFF34F8F00BFFDE710490F480860F0BD52
:1006B000E00F00F0403501400DF0ADBA00C007403A
:1006C0003C050040FCED00E0105600400404001022
:1006D00020C50040E40E00400004004004E5014055
:1006E00000E401400400FA050090D00374000020EB
:1006F00004220249024800F0C7B90000B4000020FB
:100700000080004004220249024800F0BDB9000008
:10071000C00000200090004004220249024800F07E
:10072000B3B90000CC00002000A000400448017FC5
:1007300004480029024901D001F08BBC01F0FABB4A
:10074000D80000200020004002E008C8121F08C1A5
:10075000002AFAD170477047002001E001C1121F42
:10076000002AFBD17047000001F048F900F0B6FF05
:100770000028FBD1104C0121208801EB00400FA183
:1007800001F094F810480068C00700D000BE20882F
:10079000022101EB00400DA101F088F8BFF34F8F5B
:1007A0000948E43801680D4A01F4E0611143016031
:1007B000BFF34F8F00BFFDE7A800002046617461C2
:1007C0006C206572726F7200F0ED00E05379737403
:1007D000656D207265736574000000000400FA0501
:1007E0000EB500210091CDE901106A4644F20100E6
:1007F000FFF7BAFF0EBD00F003B800F009B8000023
:1008000072B602480168491C016070471000002060
:1008100003490868401E086000D162B670470000B6
:10082000100000202DE9F041064608680C46411CE6
:100830004FF0A0474FF0010506D005FA00F1C7F8C8
:100840000815206800F070FE6068411C02D000218D
:1008500000F061FE3079204901EB4010A169007F72
:1008600000283068C0F8241525D0607D227D3168CD
:100870001043C1F86C05D4E900123068C0F80C15BB
:10088000C0F8142524E0A068411C02D0002100F02B
:1008900042FEE068411C05D08540C7F80855E06875
:1008A00000F042FED4E902123068C0F80825C0F812
:1008B0001015BDE8F081607D217D32680843C2F8E3
:1008C0006C05D4E900123068C0F81425C0F80C1586
:1008D000207D0128D7D0ECE7D80000202DE9F04199
:1008E000861C0C4601270020FFF785FF0F48016892
:1008F0002160D0E90012891A82680446511AB51C99
:1009000007E000BF00F0F4F8D4E90001401AA16844
:10091000091A491C8D42F5D8206830442060002017
:10092000FFF76BFF3846BDE8F0810000F8010020BA
:1009300030B482680468531C8360A154D0E901126A
:100940008A4202D330BC00F0D2BC30BC70470000F9
:10095000034803C8814201D101207047002070473D
:10096000F8010020704700002DE9FC5F0E0083466F
:10097000DDE90C47C6F1000098469246814600D456
:100980000846012503E000BF90FBFAF06D1C5045BE
:10099000FADAA84500D9454624B1002E01DB7807D4
:1009A00000D5641EB80702D5B8F1000F0AD0F807C9
:1009B00008D13CB1A54205D220215846641EFFF75C
:1009C000B7FFF6E7002E02DA4E462D2102E0780747
:1009D00003D52B215846FFF7ABFF07F00300022891
:1009E0000BD1B8F1000F08D13CB1A54205D230219E
:1009F0005846641EFFF79CFFF6E7CDE900474346E3
:100A000052463146584601F09DFBBDE8FC9F000070
:100A100070B50E460446007918494FF4A27501EBF3
:100A20004010017F2068A1B14FF4887101F0DAF81D
:100A30004FF49071206801F0D5F84FF4927120685E
:100A400001F0D0F82946206801F0CCF80C49206864
:100A500009E04FF48E7101F0B4F82946206801F0E6
:100A6000B0F808492068C0F80413206800F03FFA85
:100A70003146BDE8704000F01EBA0000D8000020EA
:100A800010030200800002002DE9F84300251646FD
:100A9000884604462F4614E04FF4A07000EB850012
:100AA0004FF480312258A9404AB1D4F804230A42B5
:100AB00005D0275021580091D8E9002190476D1C9E
:100AC000EDB2B542E8D3BDE8F883000001218140D2
:100AD00003484068014201D0012070470020704760
:100AE0000800002001218140080300D00120704748
:100AF00070B588B0214800F039F92048001F06463B
:100B000000F034F91E4DD5E9014105E0C0F389122A
:100B100002EB9050641C044404EA010005EB8000E1
:100B2000C0688207F2D000200DF1080204EA010338
:100B300005EB8303641CDB6842F82030401C02286C
:100B4000F4D3029800F00300012808D002280AD14B
:100B50000298032101EB905004EB900403E002980B
:100B6000C0F3831004443046002101AAFFF7B9FB0B
:100B7000002800D06C6008B070BD00001006002096
:100B8000F80100200EB50024204600F0F1FE08B167
:100B9000FFF726FE00F094FD01F084F83E4D092693
:100BA0003E4AD5E90601CDE901018DF8046001A9AD
:100BB000284600F04FFA08B1FFF712FE64213648CC
:100BC00000F090FA024601200346009000213248CE
:100BD00000F02AFAD5E90801CDE901012E488DF887
:100BE00004602F4A01A9083000F034FA08B1FFF779
:100BF000F7FD29484FF4FA684146083000F072FAD0
:100C0000024600272448012339460830009700F0A7
:100C10000BFAD5E90A01CDE901011F488DF80460FE
:100C20001F4A01A9103000F015FA08B1FFF7D8FDEE
:100C300019484146103000F055FA02461648012383
:100C400000211030009700F0EFF9134800F0DEF9B2
:100C5000052000F0DFF81048083000F0D7F9114DFA
:100C60006FF00900686068680028FCD10A481030FD
:100C700000F0CCF90C4E03276A689442FCD030880F
:100C8000144607EB004009A100F014FE00F026FD19
:100C90000028FBD1F0E70000F82100008D1E0000C5
:100CA0006509000000000020A80000204375727252
:100CB000656E7420636F756E743A202575000000B0
:100CC0002DE9F047C7880446181D16468946B0FB33
:100CD000F7F1B0FBF7F207FB12009A193A44D21C65
:100CE000B2FBF7F2DDF820A001E02468491E0029DC
:100CF000FBD13D1A8846B54216D818E0BAF1000F6C
:100D000005D0211809EB08002A46091D04E02044FB
:100D100009EB08012A46001DFFF72EFB002024687E
:100D2000761BA844B74201D9354600E03D46002E67
:100D3000E4D1BDE8F087000030B5024669B100F0AB
:100D400045FE0021084C0BE001EB410304EB83035B
:100D500015685B88AB4202D11160002030BD491C90
:100D60008142F1D3052030BD7800002008B5012173
:100D70006A46FFF7A9FA009808BD70B50446002539
:100D80002846FFF738FD21686268086890420ED94E
:100D9000401E08600178238AE26801FB0325227A5D
:100DA0002168101AC0B20A79824200D2087100206C
:100DB000FFF723FD284670BD70B505460C460020A0
:100DC000FFF719FDE868298A201AB0FBF1F12A68BB
:100DD0001068431C13600170BDE870400020FFF7ED
:100DE0000CBD10B530B1017A42680368891AC9B2E6
:100DF0001A6006E00E2010BD03681A68541C1C60BF
:100E00001170491EC9B2F7D200680021017108466D
:100E100010BD000000283ED01F49204A096800BFCD
:100E200000BF00BF00BF00BF00BF00BF00BF9142B6
:100E30002FD000BF00BF00BF00BF00BF00BF00BF7A
:100E400000BF00BF00BF00BF00BF00BF00BF00BFAA
:100E500000BF00BF00BF00BF00BF00BF00BF00BF9A
:100E600000BF00BF00BF00BF00BF00BF00BF00BF8A
:100E700000BF00BF00BF00BF00BF00BF00BF00BF7A
:100E800000BF00BF00BF00BF00BF00BF00BF00BF6A
:100E900000BF0138C3D17047740000200024F40063
:100EA00000F01F02012191404009800000F1E02084
:100EB000C0F8801170474907090E002806DA00F0D3
:100EC0000F0202F1E02282F8141D03E000F1E0229B
:100ED00082F8001400F01F020121914040098000B7
:100EE00000F1E020C0F88012C0F800117047000B3C
:100EF00040B270470121B1EB507F01D10120704712
:100F0000002070472DE9F0470427144E8146002445
:100F10004FF001080020FFF76EFC08FA04F5354297
:100F200003D02046FFF7D2FD58B10020FFF765FC43
:100F300027B104F10104AE43E4B2EBD13846BDE879
:100F4000F087074908FA04F000274A681043486010
:100F500089F800403846FFF750FCEFE7FFFF0F002D
:100F6000080000202DE9F04114460D00074612D07C
:100F70008CB10026FFF7B6FD78B13846FFF7A6FD25
:100F800068B1084800EBC700C0F81055C0F8144518
:100F90003046BDE8F0810E20FBE70726F8E708267B
:100FA000F6E7000000F0014070B504460126002578
:100FB000A640FFF797FD18B12046FFF787FD18B14F
:100FC00002480660284670BD0825FBE704F501408D
:100FD0000448017809B18520704701210170002083
:100FE000704700000800002030B54FF480340568D9
:100FF0008C4013B1C5F8044301E0C5F8084300680C
:1010000000EB8100C0F8402530BD000001680122DE
:101010000A600079034A00EB400002EB80000221E5
:1010200001727047B4000020F0B40468049E40F2DE
:101030000115D4F800728D40AF43C4F80072046803
:10104000D4F800521D43C4F800523346F0BCFFF7F9
:10105000CBBF0000F8B504460D460079204900EBEF
:10106000400001EB8006307A08B10820F8BD3AB1A3
:10107000326068687060002003464FF4A07709E092
:101080000720F8BD226807EB800153505158401CDF
:10109000C0B2009161798142F4D82068E978000BF0
:1010A00040B2FFF708FF20686978D0F8042561F3A3
:1010B0000102C0F804252068A978D0F8082561F35A
:1010C0000102C0F8082520682978D0F8102561F3BE
:1010D0000302C0F81025012030720020F8BD000086
:1010E000B40000200068D0F810254FF47A5048432F
:1010F000D04070472DE9F04105460079164F9046E3
:1011000007EB40140E46E07E10B10820BDE8F081E8
:10111000707F20772846FFF785FB5FEA0800606054
:101120003169216003D0317F2846FFF771FC2879AF
:1011300007EB4010007F0028286801D0082100E05C
:101140000421C0F800150020E0752076A07501216B
:10115000E176A076DAE70000D80000202DE9F0471C
:10116000054600793F4E904606EB40140F46207F1F
:1011700018B10846FFF7BEFE30B1284600F074F8FB
:1011800020B11120BDE8F0871020FBE784F816801D
:10119000A7600027A78228794FF0010806EB4014CA
:1011A0003E46207F0028286825D04FF49079494694
:1011B00000F018FD4FF4AC7A5146286800F012FD9B
:1011C0002868A17DA268C0F84425C0F848152868A1
:1011D000C0F808806068F0B94946286800F0FDFC56
:1011E00080465146286800F0F8FC58EA0001F3D028
:1011F00058BBA7750FE04FF48E7A514600F0E1FC22
:101200002868C0F808802146286800F047FE616819
:101210004FF4807089B13046B4E75146286800F039
:10122000CBFC10B9A08A4845F7D1A08A484505D023
:101230002146286800F032FE00E08146A08AA17DA8
:101240008842EAD3A08A484501D10F26D1E751460A
:10125000286800F0B1FC0028F9D02868C0F80C809C
:10126000C7E70000D80000200079044901EB4010D6
:10127000807D002800D0012070470000D8000020A9
:1012800070B5044600791149002601EB401520682D
:101290002A7FC0F80065686888B1207901EB4010AA
:1012A000007F0028206801D0094901E008498C39F5
:1012B000C0F808132068FFF71AFEFFF7F1FD20467B
:1012C00000F096FCEE766E6070BD0000D800002045
:1012D000100302000FB408B50399002904D004AA32
:1012E00000926A4600F00FF801B05DF814FB10B5EB
:1012F00082680446002A05D0D4E90403216898478F
:101300000020A06010BD2DE9FC4791460C008046EE
:1013100076D014F8011B39B125290ED04046FFF7CD
:1013200007FB20780028F4D198F80C00002867D03B
:101330004046BDE8FC47FFF7DABF002001222178D4
:101340002B291BD02D2902D0302908D102E040F0F2
:10135000010001E040F00200641C002AEFD10025EA
:101360002A290ED02178A1F130020A2A11D205EBE8
:10137000850201EB4205641C303DF1E740F00400BA
:10138000EAE7D9F800100B1DC9F800300968641CA1
:101390000D44217800232E290BD114F8011FA1F14F
:1013A00030020A2A05D203EB830201EB4203303BF1
:1013B000F3E76C290DD068290BD0692921D00BDC0B
:1013C000252918D0582931D063290ED0642915D188
:1013D00017E014F8011FECE7702969D0732932D0A7
:1013E00075291BD0782909D120E0D9F80000011D0A
:1013F000C9F8001001784046FFF79AFA641C90E79C
:101400006CE0D9F800100A1DC9F800200968CDE980
:1014100000500A224046FFF7A7FAEFE7D9F800107C
:101420000A1DC9F8002009680A2206E0D9F8001050
:101430000A1DC9F8002009681022CDE90050404675
:1014400000F080FEDAE7D9F8001000270A1DC9F87D
:1014500000200E68C00705D112E04046761C7F1CB4
:10146000FFF766FA31780029F7D104E020214046E1
:101470006D1EFFF75DFABD42C0D9002DF6D1BDE764
:101480004EB13046FEF79CFF074604E0202140465F
:101490006D1EFFF74DFABD4206D9002DF6D103E0CF
:1014A0004046761CFFF744FA31780029F8D1A5E7C9
:1014B000D9F80000011DC9F8001005683021404628
:1014C000FFF736FA78214046FFF732FA082000216C
:1014D000CDE90001034610222946B0E7BDE8FC87AC
:1014E00070B541EA4201DDE904564FF0A04441EAFB
:1014F000830141EA052104EB800041EA0641C0F87E
:10150000001770BD1CB5002100910B46012201910E
:10151000FFF7E6FF1CBD1CB500220B4600921146EA
:101520000192FFF7DDFF1CBD1CB5002100910B46A9
:10153000012201911146FFF7D3FF1CBD30B5124BBC
:1015400001460020D3F81044224609E0157A85426E
:1015500005D1401C0A28F7DB4FF0FF3030BD526840
:10156000002AF3D1421CF9D00872D3F810242AB112
:1015700052684A60D3F81024516030BD0022C3F88D
:1015800010144A6030BD0000F8010020F0B595B09D
:101590001C4615460F4608461A9E00F0E7FA182129
:1015A00009A8FEF702FF0E96CDE909540023082290
:1015B00003A9384600F0F4FA059806900498ADF8AF
:1015C0001C0000208DF820000398082600F003007E
:1015D000012802D002281DD03CE003983346850A3A
:1015E000C0F3C2008DF81E0003980FA9C0F380005D
:1015F0008DF81F000398C0F38314A200384600F052
:10160000CFFA09A8009006AB22460FA9284600F0A1
:1016100009FA1FE00398840DC0F3C2008DF81E0084
:101620000398C0F380008DF81F00082C01D22546D6
:1016300000E0082533462A460FA9384600F0B0FAE4
:101640002E44641B09AB06AA29460FA800F03AF9FC
:10165000002CEAD1384600F092FA15B0F0BD704780
:10166000012000F03FBC000010B50448FFF708FE61
:10167000BDE81040002000F035BC0000180000203C
:1016800008B5034A00924023024AFFF77FFF08BDD6
:10169000D11D0000F8000020084A012902EBC0001B
:1016A00005D0022903D0032903D0042903D0002048
:1016B000704700797047407970470000A823000008
:1016C00010B5FFF7CDFF04210348FFF737FF0249AC
:1016D0000120487210BD0000200000202DE9FE4FBF
:1016E000FFF736F910B10020BDE8FE8F6D480021EC
:1016F000C0F81814BFF34F8FD0E9014604EA060181
:1017000000EB81014FF000090AE000BFC1F389122C
:1017100002EB9151641C0C4404EA060100EB8101C8
:10172000C9688A07F2D000216A46804604EA0603A7
:1017300008EB8300641CC06842F82100491C0229A0
:10174000F4D3009800F00300022802D001284DD005
:10175000A2E000985022810D8A46B2EB905F00D83B
:1017600050210D4665F39F50009008314E4800F01F
:10177000B4F9070077D000F0F9F94B460822694622
:10178000384600F013FA04EA0600311A8900091DF0
:1017900009F1080B8D4222D9424E0C3631B1CAB242
:1017A00008EB8000691A91460C3004E03046EAB23A
:1017B000002691463146CDB201465B46384600F0E0
:1017C000F5F90BEB09032EB12A4631464FEA070023
:1017D00000F0ECF90AF1030004EB90043AE008EBA6
:1017E00080015B462A4638460C31F1E70098C0F389
:1017F0008310062800D30620009960F38911C1F3F5
:101800008310801C00918100274800F066F90700D2
:1018100042D000F0ABF94B4608226946384600F04A
:10182000C5F909F1080900250EE000BF04EA060029
:1018300008EB80014B46042238460C31641C00F052
:10184000B5F909F104096D1C0098C0F38310A84292
:10185000ECD847B1D8F81054D8F81804464660B10F
:10186000384600F08CF917E0687A012804D12A681C
:1018700028463946126890476D68002DF4D13846E5
:1018800000F07DF90020FEF7B6FFD6F8180400B985
:1018900074600020FEF7B1FFFFF75AF880F00100F6
:1018A00022E70000F80100206422000000231A460D
:1018B00000F0A2BA08B5012300926A4600F09CFA33
:1018C00008BD00002DE9F0470E4680461C469246B2
:1018D00008293ED894F80C90002020731946104631
:1018E00000F022FA0025B54206D218F805201AA108
:1018F0002046FFF7EFFC03E019A12046FFF7EAFCC2
:101900006D1C082DEFD317A12046FFF7E3FC00253F
:10191000B54210D218F80570FEF72AFD0068C05DC8
:1019200010F03E0F01D03A4600E02E220EA12046D4
:10193000FFF7D0FC03E00DA12046FFF7CBFC6D1CA8
:10194000082DE5D301222146504600F08DF984F898
:101950000C90BDE8F08700002025303278000000B0
:10196000202020007C0000002563000020000000F3
:10197000114810B5FF218160002101604160C0F86D
:101980001814C0F8141480F81C140C4800F0F5F872
:1019900000280FD10A480B490B4B401AC108002000
:1019A00005E000BF00EB400223F82200401C884203
:1019B000F8D3002010BD0000F801002064220000D0
:1019C000D0230000A823000078000020024803492B
:1019D000401AC00870470000D0230000A823000070
:1019E00013B56846FFF7A8F908B100201CBD0248EE
:1019F000009950F831001CBDA823000070B50848BC
:101A00000125D0F8104480F81C5405E06572216867
:101A10002046496888476468002CF7D170BD0000F3
:101A2000F80100202DE9FF4781460C9D00200C465F
:101A30002F7B2873984616462946184600F074F9FD
:101A4000072E42D2DFE806F004090F161F2A3600DF
:101A500049462846FFF73EFC37E0494628462268BB
:101A6000FFF738FC31E0D4E9002349462846FFF768
:101A700031FC2AE0A0680090D4E9002349462846BA
:101A8000FFF728FC21E0D4E90201CDE90001D4E907
:101A9000002349462846FFF71DFC16E004F1080024
:101AA00007C88DE80700D4E9002349462846FFF718
:101AB00011FC0AE004F108000FC88DE80F00D4E91A
:101AC000002349462846FFF705FC002229464046E8
:101AD00000F0CAF82F73BDE8FF872DE9F041058AB1
:101AE00080462D1F4819C01CB0FBF5F0C6B2404619
:101AF000FFF743F9041E19D0002020710120607106
:101B0000E58000272546761EC4F800800BE040469D
:101B1000FFF733F960B16179491C617128600546AE
:101B20007F1CC0F80080B742F1D32046BDE8F081A9
:101B3000204600F002F80020F8E72DE9F041457951
:101B400001466B1E002201E00968521C9A42FBD339
:101B50000F680146002605E038460C68FFF72CF9AF
:101B60002146761CAE42F7D3BDE8F08108B50121CD
:101B70006A46001DFEF781FB08BDFFF732B938B594
:101B80000446001D01216A46FEF784FB009810F010
:101B9000FF0F04D12046BDE83840FFF7CEBF38BD67
:101BA00038B501240094FFF78BF838BD38B5002410
:101BB0000094FFF785F838BD4058002800D0012078
:101BC000704708B5002242504058009008BDD0F838
:101BD0000403084000D0012070474058002800D07E
:101BE0000120704708B5002242504058009008BDBF
:101BF00070B5034600791B4901EB40101968027F5C
:101C00004FF0FF30002AD1F80C25D1F81465D1F837
:101C10000855D1F8104504D0C1F80C05C1F81405D9
:101C200003E0C1F81405C1F80C051968C1F80805EE
:101C3000C1F81005501C02D01046FFF763FC701C61
:101C400002D03046FFF75EFC601C02D02046FFF752
:101C500059FC681C04D02846BDE87040FFF752BC10
:101C600070BD0000D800002010B50C46C17949B104
:101C70001AB109A12046FFF72DFB2046BDE8104010
:101C8000FFF735BB007A0028F3D0044804A10268AE
:101C90002046FFF71FFBECE70D0A00005000002074
:101CA0002573000070B5FFF793F908B1FEF798FDB2
:101CB0001B48FFF727F908B1FEF792FD194D184CA4
:101CC00005F108002A680168207801F5A071121D4D
:101CD000FFF748F908B1FEF783FD1148401CFFF7F4
:101CE00011F908B1FEF77CFD0E482A681030016832
:101CF000607801F5A071FFF735F908B1FEF770FDC6
:101D00002078FFF751F908B1FEF76AFD6078FFF718
:101D10004BF9002803D0BDE87040FEF761BD70BDEF
:101D200000000020F821000070B50446C0790D467F
:101D300000281CD1207A50B1A179A088FFF7ACFC13
:101D40000B4951F820200BA12846FFF7C3FAA088C1
:101D50000021FFF745FE03460549A079143951F8E3
:101D600020202846BDE8704003A1FFF7B3BA70BD3C
:101D700050000020257300003C25733E2025733A57
:101D80002000000070B50546C87D0C4600284FF4C1
:101D9000847128460AD0FFF714FFD5F81805627E33
:101DA000E1688854607E401C607670BDFFF709FFD3
:101DB000D5F8180570BD1FB501238DF800308DF8DA
:101DC00008100192D0E90012684690471FBD00003C
:101DD00010B5084C0020D2B22070201DFFF7BEF9CC
:101DE00008B1FEF7FDFC6078002802D021780029B8
:101DF000FAD010BD140000202DE9F843224C88468B
:101E0000054691461F4669461846A668FEF766FDD8
:101E100088B3009800EA060104EB810252F80C1F17
:101E200021F00301491C401C11605FEAC56C02D51A
:101E300041F0040101E021F0040165F3C50167F3FD
:101E4000891168F39F21116000EA0602290C04EB56
:101E50008202401CD160009000200AE0009959F8ED
:101E6000203001EA060204EB8202491CD360401CC8
:101E70000091B842F2D394F81C0401E0FFF72EFC65
:101E80000028FBD1BDE8F883F80100200248416832
:101E9000491C4160704700000000002070B50C46EE
:101EA00005464FF48E71FFF78CFEA18AA068415C55
:101EB000A08A401CA082C5F81C1570BD1FB5002269
:101EC0008DF800208DF80810816801918275D0E9A5
:101ED0000012684690471FBD0149012008707047F5
:101EE0001400002010B588B0044620220E49684630
:101EF000FEF742FA06200090C01F01900290039066
:101F00004FF0EB7006900CB1084A00E000226946E1
:101F10000748FFF7EFF808B1FEF762FC0448001F1E
:101F2000447008B010BD000044220000D91E00001B
:101F3000180000202DE9FF470C4605464FF40071BC
:101F4000FFF745FE01274FF40178002618B34FF440
:101F5000927949462846FFF72FFEE0B149462846C8
:101F6000FFF72FFEC5F80883A07E00B96F6002203E
:101F70008DF80000D5F88004C5F880040390E07D5A
:101F80008DF80800E0680190E6752676D4E9001225
:101F90006846904727E004212846FFF718FE10B353
:101FA0004FF484712846FFF707FEE0B1214628462A
:101FB000FFF7E8FEE07D617E884214D1207E38B1D3
:101FC000617EE268E0752069E0602676667607E06B
:101FD000A07E00B96F60C5F80883E675617EE2688F
:101FE0002046FFF7E8FE4FF48E7841462846FFF77B
:101FF000E3FD88B1A08AA17D884204D2214628460B
:10200000FFF74CFF08E041462846FFF7DAFDA17DC7
:1020100011B12046FFF752FF4FF4A27841462846FF
:10202000FFF7CAFD002812D041462846FFF7C9FD38
:10203000A07E00B12F60E07D002808D0E675617EAB
:10204000E26804B02046BDE8F047FFF7B4BEBDE843
:10205000FF872DE9FF410C464FF49277054639463C
:10206000FFF7BBFD0026C0B139462846FFF7BAFD91
:1020700002208DF80000D5F88004C5F88004039094
:10208000D5F83C058DF80800E0680190E6752676E5
:10209000D4E900126846904724E04FF48877394627
:1020A0002846FFF79AFDE8B139462846FFF79AFD22
:1020B000D5F83C05C1B2E07D884213D1207E60B1E5
:1020C000E268D5F8000220F02000C5F80002207E6A
:1020D000E0752069E060267601E0E675E26820465A
:1020E000FFF769FE4FF4A27739462846FFF775FDE2
:1020F00068B139462846FFF775FDE07D38B1E675D1
:10210000D5F83C05E268C1B22046FFF754FE4FF413
:10211000907631462846FFF760FD00280FD0314603
:102120002846FFF75FFDA07D002808D0D5F84C05B4
:1021300004B0C1B22046BDE8F041FFF7BFBEBDE824
:10214000FF8100002DE9F05F8346DDE90A4A9946E8
:1021500090460D460846012703E000BFB0FBF8F0AB
:102160007F1C4045FAD2B94500D94F465FEACA7094
:1021700012D18CB15FEA8A7002D5B9F1000F01D09B
:10218000202607E0302605E031465846641EFEF75B
:10219000CFFB0CB1A742F7D35FF00106B9F1010FF5
:1021A00002D9A9F1010903E0B5FBF6F0404502D3DD
:1021B00006FB08F6F2E7DFF83C9000BFB5FBF6F04F
:1021C00000FB165519F800105846FEF7B1FBB6FB98
:1021D000F8F6002EF2D15FEACA7009D0002C07D0C1
:1021E000A74205D220215846641EFEF7A1FBF5E761
:1021F000BDE8F09F2822000000800040000400009D
:10220000009000400104000000A000400204000013
:1022100000000007000000000000000700000000B0
:10222000000000070000000030313233343536370B
:102230003839414243444546811600006916000082
:102240005F160000FFFFFFFFFFFFFFFFFFFFFFFF25
:10225000FFFFFFFF00000000000000000000D601AB
:1022600007010000340000202C0000203400002072
:10227000380100201800000000404040404040402D
:102280004040414141414140404040404040404049
:1022900040404040404040404005020202020202ED
:1022A000020202020202020202202020202020203C
:1022B0002020200202020202020290909090909050
:1022C000101010101010101010101010101010100E
:1022D0001010101002020202020288888888888882
:1022E000080808080808080808080808080808086E
:1022F00008080808020202024000000079220000DB
:102300007761726E696E67006465627567000000D0
:102310001B5B313B33306D001B5B306D00000000F8
:102320001B5B313B33316D001B5B313B33326D0046
:102330001B5B313B33336D001B5B313B33346D0032
:102340001B5B313B33356D001B5B313B33366D001E
:102350001B5B313B33376D00696E666F0000000018
:102360006572726F720000007070690074696D654B
:1023700072000000756172740000000062616C6C94
:102380006F63000061707000D02300000000002027
:10239000B40000004807000084240000B4000020BE
:1023A00064250000580700006823000000000000BA
:1023B0006C230000000000007423000000000000F7
:1023C0007C230000000000008423000000000300C4
:1023D00000000000000000000000000000000000FD
:1023E000000000000000000000200040000000008D
:1023F0003822000000000000000000000000000083
:1024000000000000000000000000000000000000CC
:102410006023000000230000582300000823000070
:1024200018230000102300002023000028230000B0
:102430003023000038230000402300004823000020
:10244000502300000090D0030000000000000000B6
:10245000000000000000000000000000000000007C
:10246000000000000000000000000000000000006C
:10247000000000000000000000000000000000005C
:042480000000000058
:0400000500000201F4
:00000001FF
