:020000040000FA
:10000000402600204D030000550300005703000068
:10001000590300005B0300005D03000000000000C6
:100020000000000000000000000000005F0300006E
:10003000610300000000000063030000650300008E
:10004000F503000067030000A10600004D04000056
:1000500067030000670300006703000067030000F8
:1000600067030000670300006703000067030000E8
:1000700067030000670300006703000067030000D8
:1000800067030000670300006703000067030000C8
:1000900067030000670300006703000067030000B8
:1000A00067030000670300006703000067030000A8
:1000B000670300006703000000000000000000006C
:1000C0006703000067030000670300006703000088
:1000D0006703000067030000670300006703000078
:1000E00067030000670300006703000000000000D2
:1000F000000000006703000000000000670300002C
:1001000000000000000000000000000000000000EF
:1001100000000000000000000000000000000000DF
:1001200000000000000000000000000000000000CF
:1001300000000000000000000000000000000000BF
:1001400000000000000000000000000000000000AF
:10015000000000000000000000000000000000009F
:10016000000000000000000000000000000000008F
:10017000000000000000000000000000000000007F
:10018000000000000000000000000000000000006F
:10019000000000000000000000000000000000005F
:1001A000000000000000000000000000000000004F
:1001B000000000000000000000000000000000003F
:1001C000000000000000000000000000000000002F
:1001D000000000000000000000000000000000001F
:1001E000000000000000000000000000000000000F
:1001F00000000000000000000000000000000000FF
:10020000DFF80CD000F0E4F8004800477D10000053
:100210004026002030B4044654E8000F0D4644E860
:100220000053002BF8D1156030BC704730B4044641
:1002300054E8000F40EA010544E80053002BF7D1D1
:10024000156030BC704730B4044654E8000F00EA33
:10025000010544E80053002BF7D1156030BC70470E
:1002600030B4044654E8000F80EA010544E8005326
:10027000002BF7D1156030BC704730B4044654E809
:10028000000F00EB010544E80053002BF7D1156087
:1002900030BC704730B4044654E8000FA0EB0105B1
:1002A00044E80053002BF7D1156030BC70470000C4
:1002B00030B4044654E8000F0D4644E80053002BC8
:1002C000F8D1156030BC704730B4044654E8000FD4
:1002D00040EA010544E80053002BF7D1156030BC1B
:1002E000704730B4044654E8000F00EA010544E8C2
:1002F0000053002BF7D1156030BC704730B4044672
:1003000054E8000F80EA010544E80053002BF7D1C0
:10031000156030BC704730B4044654E8000F00EB61
:10032000010544E80053002BF7D1156030BC70473D
:1003300030B4044654E8000FA0EB010544E8005334
:10034000002BF7D1156030BC70470000064880478D
:1003500006480047FEE7FEE7FEE7FEE7FEE7FEE7AA
:10036000FEE7FEE7FEE7FEE7990400000102000059
:100370000048704754BB020040EA01039B0703D0CA
:1003800009E008C9121F08C0042AFAD203E011F8D4
:10039000013B00F8013B521EF9D27047D2B201E096
:1003A00000F8012B491EFBD270470022F6E710B57A
:1003B00013460A4604461946FFF7F0FF204610BDD3
:1003C000421C10F8011B0029FBD1801A7047000065
:1003D000064C074D06E0E06840F0010394E8070092
:1003E00098471034AC42F6D3FFF70EFFF4BB02007F
:1003F00014BC02002DE9F0414FF48077384600F03C
:100400005CFF0124104EA50748B1384600F05CFFA0
:100410000120C5F808037470002000F0A7FA4FF41B
:100420008277384600F049FF00280BD0384600F0AC
:100430004BFF0220C5F80803B470BDE8F04101206D
:1004400000F094BABDE8F081C4000020F8B511486E
:100450000F4D04464FF48C7102F0C0F9002815D0FE
:100460000026C4F81861D4F818010090A87F2C4623
:10047000FF2801D001F05EFE66772672D4E90021E4
:1004800001B004F10800BDE8F0401047F8BD0000DD
:10049000D80000200030004030B54FF080500022DE
:1004A000D0F830110123082902D1D0F8344114B119
:1004B000082909D00BE04FF08041C1F80C21C1F8A8
:1004C000102168490A6005E0D0F8344114B10829C8
:1004D00057D059E064490968644C21606249091D9C
:1004E0000968241D2160604908310968241D2160C4
:1004F0005D490C310968241D21605B491031096890
:10050000241D2160584914310968241D2160564971
:1005100018310968554C2034216053491C31096851
:10052000241D2160504920310968241D21604E4955
:1005300024310968241D21604B4928310968241D94
:10054000216049492C310968241D21604649303118
:100550000968464C40342160434934310968241D00
:100560002160414938310968241D21603E493C31F0
:100570000968241D21603C4940310968241D21601F
:1005800005E0D0F8344114B1082904D006E0394C14
:100590003749216005E0D0F8344114B1082904D06E
:1005A00006E0354CFB21216005E0D0F8344114B160
:1005B000082908D00AE090F858423048016864F3EE
:1005C0000301016005E0D0F8344114B1082905D0D9
:1005D0000EE02B494FF40070086002E0D0F83401BF
:1005E00030B928480168C90702D06FF001010160E5
:1005F0002548016841F470010160BFF34F8FBFF3DC
:100600006F8F4FF01021D1F80002002803DBD1F8E2
:100610000402002822DA1D4C23601D480368002BC9
:10062000FCD01223C1F800320568002DFCD0C1F8BF
:10063000043201680029FCD0226001680029FCD046
:10064000BFF34F8F10487C380168124A01F4E06113
:1006500011430160BFF34F8F00BFFDE70F490E4804
:10066000086030BD380500400404001020C500407B
:10067000488103008C56004018F50040E40E00400D
:10068000409602400004004088ED00E004E501408F
:1006900000E401400400FA050090D0037800002037
:1006A0000448017F04480029024901D002F019BC26
:1006B00002F088BBFC0000200020004002E008C8D7
:1006C000121F08C1002AFAD170477047002001E0CC
:1006D00001C1121F002AFBD17047000001F0A0FFEA
:1006E00001F016FE0028FBD1104C0121208801EBFF
:1006F00000400FA101F0F4FE10480068C00700D0D0
:1007000000BE2088022101EB00400DA101F0E8FEAF
:10071000BFF34F8F0948E43801680D4A01F4E061E6
:1007200011430160BFF34F8F00BFFDE7B800002009
:10073000466174616C206572726F7200F0ED00E0CA
:1007400053797374656D20726573657400000000E1
:100750000400FA050EB500210091CDE901106A46AA
:1007600044F20100FFF7BAFF0EBD00F003B800F03D
:1007700009B8000072B602480168491C0160704760
:100780001400002003490868401E086000D162B6CA
:10079000704700001400002070B5054608680C463C
:1007A000411C04D001F0D0FC206801F07AFC6068A4
:1007B000411C02D0002101F061FC28791F4901EBA6
:1007C00040102968007F0028A069C1F8240523D0C3
:1007D000607D227D29681043C1F86C05D4E90012C0
:1007E0002868C0F80C15C0F8142522E0A068411C48
:1007F00002D0002101F042FCE068411C04D001F06D
:10080000A3FCE06801F04DFCD4E902122868C0F8AE
:100810000825C0F8101570BD607D217D2A68084349
:10082000C2F86C05D4E900122868C0F81425C0F895
:100830000C15207D0128D9D070BD0000FC000020DF
:100840002DE9F041861C0C4601270020FFF78DFFA3
:100850000F4801682160D0E90012891A82680446B5
:10086000511AB51C07E000BF00F0BEFBD4E900013F
:10087000401AA168091A491C8D42F5D820683044F5
:1008800020600020FFF773FF3846BDE8F0810000CC
:100890001C02002030B482680468531C8360A15499
:1008A000D0E901128A4202D330BC00F0DCBF30BC78
:1008B00070470000034803C8814201D101207047FE
:1008C000002070471C0200202DE9FC41254900262C
:1008D000254DD1E90101CDE9000117E0ADF8026035
:1008E00000240CE0ADF8004001231F226946A868EF
:1008F00001F0FAF808B1FFF72DFF1534A4B2A8688B
:1009000001F07EFBA042EDD21536B6B2A86801F028
:10091000E3F9B042E2D20A264FF4784719E000BF6B
:10092000ADF802600A240CE0ADF8004000233A461E
:100930006946A86801F0D8F808B1FFF70BFF153435
:10094000A4B2A86801F05CFB0A30A042ECD21536D4
:10095000B6B2A86801F0C0F90A30B042E0D2BDE8F2
:10096000FC810000603100000000002070B5084CE0
:10097000050009D010342168002907D008682060DC
:10098000496828468847F6E70834F4E770BD000058
:10099000C400002010B5012002F0CFFB7A4C2046A5
:1009A00000F0E6FC282002F0C8FB204600F0E0FC46
:1009B000CF2002F0C2FB002002F0C8FBC12002F0F1
:1009C000C5FB302002F0C2FBE82002F0B6FB852018
:1009D00002F0BCFB002002F0B9FB782002F0B6FB6D
:1009E000CB2002F0AAFB392002F0B0FB2C2002F051
:1009F000ADFB002002F0AAFB342002F0A7FB02208E
:100A000002F0A4FBF72002F098FB202002F09EFBEE
:100A1000EA2002F092FB002002F098FB002002F096
:100A200095FBC02002F089FB232002F08FFBC12040
:100A300002F083FB102002F089FBC52002F07DFB51
:100A40003E2002F083FB282002F080FBC72002F04A
:100A500074FB862002F07AFB362002F06EFB482001
:100A600002F074FB3A2002F068FB552002F06EFBA6
:100A7000B12002F062FB002002F068FB182002F0B7
:100A800065FBB62002F059FB082002F05FFB8220D4
:100A900002F05CFB272002F059FBF22002F04DFB34
:100AA000002002F053FB262002F047FB012002F059
:100AB0004DFBE02002F041FB0F2002F047FB31200C
:100AC00002F044FB2B2002F041FB0C2002F03EFB25
:100AD0000E2002F03BFB082002F038FB4E2002F013
:100AE00035FBF12002F032FB372002F02FFB07200C
:100AF00002F02CFB102002F029FB032002F026FB61
:100B00000E2002F023FB092002F020FB002002F05F
:100B10001DFBE12002F011FB002002F017FB0E206C
:100B200002F014FB142002F011FB032002F00EFB74
:100B3000112002F00BFB072002F008FB312002F02D
:100B400005FBC12002F002FB482002F0FFFA08205A
:100B500002F0FCFA0F2002F0F9FA0C2002F0F6FA8B
:100B6000312002F0F3FA362002F0F0FA0F2002F002
:100B7000EDFA112002F0E1FA204600F0F9FBBDE8A1
:100B80001040292002F0D9BAC0D4010008B12120B8
:100B900000E0202002F0D1BA7047000010B586B006
:100BA0002B200090684601F0B7FA009A032100EB71
:100BB0008200C0F800170F4B01AC0FCB84E80F0088
:100BC0002F208DF804002E208DF806002D208DF8A2
:100BD00005002C208DF80700064800231A4601A9BD
:100BE000083800F045FC040002D1FFF7D3FE204690
:100BF00006B010BD9C89020038B514460B4602466B
:100C000001F0B4FF200A8DF800008DF801402B2080
:100C100001F0A4FA0221684601F0D2FF2B2001F076
:100C200054FA38BDF8B51C4615460A19521E93B23F
:100C30004219521E92B2069E01F098FF300A8DF8BA
:100C400000008DF801602B2001F088FA6C43E01D54
:100C5000C11700EB5170C510E01704EB507020F085
:100C60000700201A082827D2DFE800F004201C180B
:100C700014100C080221684601F0A2FF0221684608
:100C800001F09EFF0221684601F09AFF02216846AA
:100C900001F096FF0221684601F092FF02216846AA
:100CA00001F08EFF0221684601F08AFF02216846AA
:100CB00001F086FF6D1EDDD12B2001F006FAF8BD94
:100CC00010B50446362002F038FA54B1012C0AD08F
:100CD000022C0AD0032C0AD1E820BDE8104002F013
:100CE00035BA4820F9E72820F7E78820F5E710BD56
:100CF000014800F055BC0000948902002DE9FC5F1A
:100D00000E008346DDE90C47C6F100009846924686
:100D1000814600D40846012503E000BF90FBFAF0AD
:100D20006D1C5045FADAA84500D9454624B1002E7D
:100D300001DB780700D5641EB80702D5B8F1000FB3
:100D40000AD0F80708D13CB1A54205D22021584667
:100D5000641EFFF79FFDF6E7002E02DA4E462D21B6
:100D600002E0780703D52B215846FFF793FD07F0E3
:100D7000030002280BD1B8F1000F08D13CB1A54205
:100D800005D230215846641EFFF784FDF6E7CDE911
:100D90000047434652463146584602F01BF9BDE82B
:100DA000FC9F000070B50E460446007918494FF4C8
:100DB000A27501EB4010017F2068A1B14FF488714A
:100DC00001F027FD4FF49071206801F022FD4FF4EF
:100DD0009271206801F01DFD2946206801F019FD7F
:100DE0000C49206809E04FF48E7101F001FD29469D
:100DF000206801F0FDFC08492068C0F80413206851
:100E000000F023FB3146BDE8704000F002BB00005B
:100E1000FC000020100302008000020070B5424D6B
:100E200086B003AB95E80700404C83E807001C3D03
:100E3000A06800F051FF2835ADF8120095E80700D2
:100E40008DE80700A06801F0DBF8ADF80000A068AD
:100E500000F042FFADF80200A06800F03DFFADF8E1
:100E6000060000254FF478460CE000BFADF81050A6
:100E7000324603A9A06800F03FFF08B1FFF76AFC03
:100E80000A35ADB2A06801F0BBF8A842EED2A06866
:100E900001F0B6F8ADF8100000250FE0A06800F0F2
:100EA0001BFF401BADF81200324603A9A06800F0FA
:100EB00023FF08B1FFF74EFC0A35ADB2A06800F081
:100EC0000BFFA842EAD200250FE0A06800F004FF63
:100ED000401BADF806001F226946A06800F00CFF19
:100EE00008B1FFF737FC0A35ADB2A06800F0F4FE98
:100EF000A842EAD20020ADF8060005460CE000BF8B
:100F0000ADF804501F226946A06800F0F5FE08B154
:100F1000FFF720FC0A35ADB2A06801F071F8A842D5
:100F2000EED206B070BD00007C89020000000020F7
:100F30002DE9FF4F83B09946DDF840800F461646F5
:100F40004FF0FF30494501D2012300E003460193F1
:100F5000424500DA012000904FF0000BB9EB07008A
:100F600000D5404205B2B8EB060000D5404204B2BD
:100F7000119B039801F090FCA54204DA65406C4097
:100F800065404FF0010B601B400000B20290600012
:100F90000FFA80FAAAEB050004B21EE0002C09DB70
:100FA0000198384487B20098304486B202982044B1
:100FB00004B20CE004EB0A0004B2BBF1000F03D052
:100FC0000098304486B202E00198384487B2324635
:100FD0003946119B039801F05FFC4645DED14F4531
:100FE000DCD107B0BDE8F08F70B588B0214800F0C3
:100FF00011F92048001F064600F00CF91E4DD5E9F6
:10100000014105E0C0F3891202EB9050641C0444D6
:1010100004EA010005EB8000C0688207F2D00020DE
:101020000DF1080204EA010305EB8303641CDB688D
:1010300042F82030401C0228F4D3029800F003004C
:10104000012808D002280AD10298032101EB905010
:1010500004EB900403E00298C0F38310044430468C
:10106000002101AAFFF73DF9002800D06C6008B00C
:1010700070BD0000340600201C0200200EB50020C8
:1010800001F088FA08B1FFF765FB01F033F9294850
:101090000321008801EB004027A101F021FA00BFE5
:1010A00001F036F90028FBD12D4CA06800F017FEA6
:1010B00008B1FFF74FFB2B4F01264FF47A75012142
:1010C000A06800F016FE2749A0681C3100F0C4FC9F
:1010D0000021A06800F00DFE38680290A06800F0C2
:1010E000FBFD3238ADF80A006068CDE90006002249
:1010F00002A92368A06800F079FE08B1FFF72AFB77
:10110000284600F0E9F801F015FDFFF787FE2846B4
:1011100000F0E2F801F00EFDFFF7D6FB284600F0E4
:10112000DBF801F007FD01F017FC284600F0D4F8C9
:10113000C5E70000B80000205468697320612047AB
:101140004658207573616765206578616D706C65C0
:10115000206170706C69636174696F6E2E000000AD
:1011600000000020603100002DE9F047C7880446E8
:10117000181D16468946B0FBF7F1B0FBF7F207FBE6
:1011800012009A193A44D21CB2FBF7F2DDF820A003
:1011900001E02468491E0029FBD13D1A8846B5426A
:1011A00016D818E0BAF1000F05D0211809EB080095
:1011B0002A46091D04E0204409EB08012A46001DC7
:1011C000FFF7DAF800202468761BA844B74201D95B
:1011D000354600E03D46002EE4D1BDE8F087000032
:1011E00030B5024669B101F003FA0021084C0BE06A
:1011F00001EB410304EB830315685B88AB4202D12A
:101200001160002030BD491C8142F1D3052030BD62
:101210007C00002008B501216A46FFF755F80098C8
:1012200008BD70B5044600252846FFF79EFA2168E0
:101230006268086890420ED9401E08600178238ACF
:10124000E26801FB0325227A2168101AC0B20A79EC
:10125000824200D208710020FFF789FA284670BD4B
:1012600070B505460C460020FFF77FFAE868298A2A
:10127000201AB0FBF1F12A681068431C136001705A
:10128000BDE870400020FFF772BA10B530B1017AA6
:1012900042680368891AC9B21A6006E00E2010BDC0
:1012A00003681A68541C1C601170491EC9B2F7D239
:1012B000006800210171084610BD00F180400068FF
:1012C000002800D00120704708B500F180400021BF
:1012D00001600068009008BD4FF47A71484300F047
:1012E00001B8000000283ED01F49204A096800BF0D
:1012F00000BF00BF00BF00BF00BF00BF00BF9142E2
:101300002FD000BF00BF00BF00BF00BF00BF00BFA5
:1013100000BF00BF00BF00BF00BF00BF00BF00BFD5
:1013200000BF00BF00BF00BF00BF00BF00BF00BFC5
:1013300000BF00BF00BF00BF00BF00BF00BF00BFB5
:1013400000BF00BF00BF00BF00BF00BF00BF00BFA5
:1013500000BF00BF00BF00BF00BF00BF00BF00BF95
:1013600000BF0138C3D17047780000200024F4008A
:1013700000283ED01F49204A096800BF00BF00BFB7
:1013800000BF00BF00BF00BF00BF91422FD000BF11
:1013900000BF00BF00BF00BF00BF00BF00BF00BF55
:1013A00000BF00BF00BF00BF00BF00BF00BF00BF45
:1013B00000BF00BF00BF00BF00BF00BF00BF00BF35
:1013C00000BF00BF00BF00BF00BF00BF00BF00BF25
:1013D00000BF00BF00BF00BF00BF00BF00BF00BF15
:1013E00000BF00BF00BF00BF00BF00BF00BF01388B
:1013F000C3D17047780000200024F40000F01F02E1
:10140000012191404009800000F1E020C0F88011E6
:1014100070474907090E002806DA00F00F0202F1B2
:10142000E02282F8141D03E000F1E02282F80014AB
:1014300000F01F02012191404009800000F1E020EE
:10144000C0F88012C0F800117047000B40B270471E
:101450000121B1EB507F01D101207047002070477E
:101460000121B1EB507F01D101207047002070476E
:101470002DE9FC47074640790C46DFF804A100EB54
:10148000C0010AEB8106307F10B10820BDE8FC875F
:10149000C6E90023207B0128207802D800F00BFE4B
:1014A00001E000F047FE4FF00009CDF80090CDF8C4
:1014B000049020784B464A46012100F0A4FD607854
:1014C0004FF0FF35FF2806D0804600F0F4FD40467F
:1014D00000F0DDFD00E0A846A078FF2809D000223A
:1014E00005460123CDF800901146CDF8049000F098
:1014F0008AFDE078FF2804D000F01CFEE07800F0C0
:10150000C6FD7879E17800EBC0020AEB82008177B2
:1015100038682278C0F80825C0F80C85C0F8105546
:10152000A168C0F82415227B617B01B10121012A49
:1015300004D0022A05D0032A08D105E041F00201B7
:1015400004E041F0040101E041F00601C0F8541547
:101550006179C0F8C015316811B14021C0F8041399
:101560000721C0F80015306820B1217997F90400EF
:10157000FFF74FFF484686F81D900121317785E738
:10158000D80000201FB5069C00918DF8042002931E
:101590008DF80C400022694600F036F804B010BD0A
:1015A000F8B54179174A01EBC10102EB810501222F
:1015B000296859B190F9041001F01F0302FA03F3EE
:1015C0004909890001F1E021C1F8803104682868E7
:1015D000002670B1701EC4F80803687F48B16261CC
:1015E0004FF482773946204601F0F8F80028F9D008
:1015F0006E77C4F81861D4F818010090C4F800653B
:101600002E77F8BDD80000202DE9F04105460F46A1
:101610004079154900EBC00001EB80041646607F5D
:1016200010B11120BDE8F081206820B116F0140F30
:1016300001D10120607797E80F0004F10C0888E8D9
:101640000F0094F8210020F0070084F82100A07F0B
:10165000FF2801D000F02FFD33463A462146286886
:10166000BDE8F04101F0BEBAD80000202DE9F041FC
:1016700005460079164F904607EB40140E46E07E73
:1016800010B10820BDE8F081707F20772846FFF771
:1016900083F85FEA080060603169216003D0317F20
:1016A0002846FFF77FFB287907EB4010007F0028D2
:1016B000286801D0082100E00421C0F800150020AE
:1016C000E0752076A0750121E176A076DAE70000CA
:1016D000FC0000202DE9F047054600793F4E90467A
:1016E00006EB40140F46207F18B10846FFF7B8FEFE
:1016F00030B1284600F074F820B11120BDE8F08721
:101700001020FBE784F81680A7600027A7822879BD
:101710004FF0010806EB40143E46207F0028286861
:1017200025D04FF49079494601F073F84FF4AC7A24
:101730005146286801F06DF82868A17DA268C0F8BC
:101740004425C0F848152868C0F808806068F0B9DA
:101750004946286801F058F880465146286801F04B
:1017600053F858EA0001F3D058BBA7750FE04FF4C7
:101770008E7A514601F03CF82868C0F8088021466E
:10178000286801F0D3FA61684FF4807089B130465F
:10179000B4E75146286801F026F810B9A08A4845F8
:1017A000F7D1A08A484505D02146286801F0BEFA45
:1017B00000E08146A08AA17D8842EAD3A08A4845FC
:1017C00001D10F26D1E75146286801F00CF8002816
:1017D000F9D02868C0F80C80C7E70000FC000020A2
:1017E0000079044901EB4010807D002800D00120E1
:1017F00070470000FC00002070B5044600791149D4
:10180000002601EB401520682A7FC0F80065686853
:1018100088B1207901EB4010007F0028206801D0BA
:10182000094901E008498C39C0F808132068FFF71E
:101830000CFEFFF7E3FD204600F0F2FFEE766E604F
:1018400070BD0000FC000020100302000FB408B5BA
:101850000399002904D004AA00926A4600F00FF808
:1018600001B05DF814FB10B582680446002A05D06B
:10187000D4E90403216898470020A06010BD2DE939
:10188000FC4791460C00804676D014F8011B39B114
:1018900025290ED04046FEF7FDFF20780028F4D120
:1018A00098F80C00002867D04046BDE8FC47FFF7D9
:1018B000DABF0020012221782B291BD02D2902D04C
:1018C000302908D102E040F0010001E040F00200C0
:1018D000641C002AEFD100252A290ED02178A1F11D
:1018E00030020A2A11D205EB850201EB4205641C85
:1018F000303DF1E740F00400EAE7D9F800100B1D95
:10190000C9F800300968641C0D44217800232E2991
:101910000BD114F8011FA1F130020A2A05D203EB02
:10192000830201EB4203303BF3E76C290DD06829B9
:101930000BD0692921D00BDC252918D0582931D0AA
:1019400063290ED0642915D117E014F8011FECE7C4
:10195000702969D0732932D075291BD0782909D113
:1019600020E0D9F80000011DC9F8001001784046B8
:10197000FEF790FF641C90E76CE0D9F800100A1D98
:10198000C9F800200968CDE900500A224046FFF757
:10199000B5F9EFE7D9F800100A1DC9F80020096869
:1019A0000A2206E0D9F800100A1DC9F800200968CB
:1019B0001022CDE90050404601F00CFBDAE7D9F8DF
:1019C000001000270A1DC9F800200E68C00705D1C5
:1019D00012E04046761C7F1CFEF75CFF3178002940
:1019E000F7D104E0202140466D1EFEF753FFBD42B3
:1019F000C0D9002DF6D1BDE74EB13046FEF7E0FC70
:101A0000074604E0202140466D1EFEF743FFBD421D
:101A100006D9002DF6D103E04046761CFEF73AFFCA
:101A200031780029F8D1A5E7D9F80000011DC9F8DF
:101A30000010056830214046FEF72CFF7821404613
:101A4000FEF728FF08200021CDE9000103461022FF
:101A50002946B0E7BDE8FC871CB500220092019240
:101A6000C2699288ADF80420C2695288ADF8062098
:101A70000A46694600F001F81CBD2DE9F047814691
:101A8000C0690C46904681882288914203D34088E1
:101A90006188884202D20720BDE8F08720790026BD
:101AA00000F001071BE0002515E0E1883844891BA0
:101AB000491E01FB005038F81000010A41EA0020DD
:101AC00083B26088304482B22088284481B248467C
:101AD00000F0E2FE6D1CA088A842E6D8761CE088E3
:101AE000B042E0DC0020D7E72DE9FF5F0C46B1F9FA
:101AF0000450C169904683469A462288A0880026F1
:101B00008B88121A3746934206DB62884988101A7E
:101B10004FF00109814277DA072004B0BDE8F09F59
:101B2000BAF1000F72D02188881B01D44A1B33D52B
:101B3000701CCDF80090CDE90180084483B2608824
:101B40000021401B82B2584600F0B2FFCDE9009858
:101B50002188681C0390084483B260880021801BA0
:101B600082B2584600F0A4FFCDE90098218803987E
:101B7000084483B260880021304482B2584600F0A5
:101B800097FFCDE9009821880298084483B26088C5
:101B90000021284482B233E009EB4601CDF80090E1
:101BA000CDE901818BB26188491B8AB281B2584666
:101BB00000F07EFF09EB4500CDE9009883B2039069
:101BC0006088801B82B22088401B81B2584600F09A
:101BD0006FFFCDE90098039883B26088304482B2E9
:101BE0002088401B81B2584600F062FFCDE9009882
:101BF00060880299284482B220888BB2801B81B20F
:101C0000584600F055FF51E061E0FFE76088434629
:101C1000284482B22088304481B2584600F03CFE0D
:101C200060884346284482B22088801B81B258468F
:101C300000F032FE60884346304482B22088284457
:101C400081B2584600F028FE60884346304482B294
:101C50002088401B81B2584600F01EFE6088434633
:101C6000401B82B22088801B81B2584600F014FECF
:101C700060884346401B82B22088304481B2584677
:101C800000F00AFE60884346801B82B22088401B19
:101C900081B2584600F000FE60884346801B82B245
:101CA0002088284481B2584600F0F6FD002F07DC5A
:101CB000761C36B207EB4600401C07B2002F06DD4B
:101CC0006D1E2DB2684207EB4000401E07B2B542C0
:101CD000BFF626AF002020E7C0694088704710B5E6
:101CE000044600688047002802D1E2690121117092
:101CF00010BD8269084610472DE9FC47C3690C46B0
:101D00008146988809884FF000081546C4468842E5
:101D100003D25A88A688B24206D36288904206D27D
:101D20005888E388984202D20720BDE8FC87A38840
:101D3000E688CF1AA2EB060000D57F42002800DA21
:101D40004042874202DDB4F808C001E0B4F80880E0
:101D5000994201D0B24210D1581AB31A00D55B4251
:101D600063449BB2CDE90035002800DA404240448C
:101D700083B2484600F09CFE36E0B8F1000F15D063
:101D800000260FE0B4F90600CDE90005A0886288BE
:101D9000304483B22088304481B24846FFF7C8F807
:101DA000761CB6B22089B042ECD81DE0BCF1000F21
:101DB00014D000260EE0E088304400B2CDE90005E2
:101DC0006088A388304482B221884846FFF7B0F883
:101DD000761CB6B22089B042EDD805E030B2CDE92C
:101DE00000054846FFF7A4F800209EE72DE9FE4FC6
:101DF000814608880C9DADF80800D9F81C0088467B
:101E00004C88418828781F46081A9346A04202DA77
:101E10000720BDE8FE8F00264FF00A0A2BE00A2AB1
:101E20002ED0CDE9004B02AB2946484601F02CF9F3
:101E3000B95D6878081AC0B220292CD0696811F8F9
:101E4000200000BFD9F81C108A88121ABDF80800BB
:101E500082420FDA0D9888B1B8F80000ADF808009A
:101E600028784988B0FBFAF22244024494B2081A56
:101E7000A04203DB761CBA5D002AD0D10020C8E75F
:101E8000B8F80000ADF808002878B0FBFAF121445A
:101E9000084484B2CCE728784008D3E72DE9FE4F08
:101EA0009A468B8815468146581B87B2C8880C46CF
:101EB000411BDDF830C08EB2012B13D0012811D0A8
:101EC000B3EB450F0ED3B0EB450F0BD3D9F81C2065
:101ED0002188B2F80480884507D25288B4F802807D
:101EE000424502D20720BDE8FE8FBCF1000F06D0AC
:101EF000CDE9000A6288484600F0DAFD50E0ADF80E
:101F000000106088ADF802002088A188524608447D
:101F1000ADF804006088ADF80600ADF808506946D9
:101F20004846FFF7E9FE2088ADF800006088524679
:101F30003044ADF802002088A1880844ADF80400C0
:101F4000608869463044ADF806004846FFF7D4FE85
:101F50002088ADF80000608852462844ADF80200A1
:101F60002088ADF80400608869463044ADF806006A
:101F70004846FFF7C1FE208852463844ADF80000BD
:101F8000608869462844ADF8020020883844ADF8DE
:101F9000040060883044ADF806004846FFF7ACFE08
:101FA0000020A0E730B4C5690346A8796A8810F01C
:101FB000010FA8880AD004461046A97141B1012931
:101FC0000BD0022904D003290BD106E01446F4E714
:101FD000DA695480DA69908003E0DA695080D86960
:101FE00084805A6930BC084610471CB5C3695A88BA
:101FF0009B88CDE900210022114600F059FD1CBD4F
:10200000C069808870472DE9FF411C46DDE90A78E8
:1020100015460E46684600F063F846EA450141EA77
:10202000840141EA072242EA0841009A00EB82005B
:10203000C0F80017BDE8FF812DE9FF411C46DDE92E
:102040000A7815460E46684600F058F846EA4501FB
:1020500041EA840141EA072242EA0841009A00EB82
:102060008200C0F80017BDE8FF811CB50021009177
:102070000B4601220191FFF7DFFF1CBD1CB50022BA
:102080000B46009211460192FFF7D6FF1CBD1CB50E
:10209000002100910B46012201911146FFF7B3FF89
:1020A0001CBD1CB5002100910B4601220191114677
:1020B000FFF7C2FF1CBD01B5684600F011F8009A99
:1020C00001219140C0F80C1508BD01B5684600F02B
:1020D00023F8009A01219140C0F80C1508BD0000BA
:1020E0000168202902D24FF0A040704701F01F0183
:1020F000016001487047000000030050016820297A
:1021000002D24FF0A040704701F01F01016001486A
:1021100070470000000300500168202902D24FF0F0
:10212000A040704701F01F010160014870470000A6
:102130000003005001B56846FFF7D2FF009A012165
:102140009140C0F8081508BD01B56846FFF7D6FFF5
:10215000009A01219140C0F8081508BD01B56846F4
:10216000FFF7DAFF009A01219140C0F8081508BD79
:1021700030B5124B01460020D3F81044224609E046
:10218000157A854205D1401C0A28F7DB4FF0FF3055
:1021900030BD5268002AF3D1421CF9D00872D3F83E
:1021A00010242AB152684A60D3F81024516030BD1F
:1021B0000022C3F810144A6030BD00001C02002049
:1021C000F0B595B01C4615460F4608461A9E00F01D
:1021D000DFFA182109A8FEF7E8F80E96CDE90954B0
:1021E0000023082203A9384600F0ECFA059806906F
:1021F0000498ADF81C0000208DF8200003980826F4
:1022000000F00300012802D002281DD03CE0039812
:102210003346850AC0F3C2008DF81E0003980FA94B
:10222000C0F380008DF81F000398C0F38314A20050
:10223000384600F0C7FA09A8009006AB22460FA95D
:10224000284600F001FA1FE00398840DC0F3C20095
:102250008DF81E000398C0F380008DF81F00082C35
:1022600001D2254600E0082533462A460FA9384604
:1022700000F0A8FA2E44641B09AB06AA29460FA851
:1022800000F032F9002CEAD1384600F08AFA15B095
:10229000F0BD7047012000F06DBD000010B504488E
:1022A000FFF7AAFABDE81040002000F063BD00006F
:1022B0001C00002008B5034A00924023024AFFF7A1
:1022C0007FFF08BD452B00001C010020084A0129A2
:1022D00002EBC00005D0022903D0032903D0042952
:1022E00003D00020704700797047407970470000A4
:1022F00014BC020010B5FFF7CDFF04210348FFF71F
:1023000037FF02490120487210BD00002400002060
:102310002DE9FE4FFEF7CEFA10B10020BDE8FE8F8A
:102320006D480021C0F81814BFF34F8FD0E9014663
:1023300004EA060100EB81014FF000090AE000BF4A
:10234000C1F3891202EB9151641C0C4404EA0601AA
:1023500000EB8101C9688A07F2D000216A468046F5
:1023600004EA060308EB8300641CC06842F82100FD
:10237000491C0229F4D3009800F00300022802D07F
:1023800001284DD0A2E000985022810D8A46B2EB80
:10239000905F00D850210D4665F39F5000900831A2
:1023A0004E4800F0ACF9070077D000F0F1F94B4649
:1023B00008226946384600F00BFA04EA0600311A92
:1023C0008900091D09F1080B8D4222D9424E0C36B5
:1023D00031B1CAB208EB8000691A91460C3004E0B2
:1023E0003046EAB2002691463146CDB201465B4600
:1023F000384600F0EDF90BEB09032EB12A463146C1
:102400004FEA070000F0E4F90AF1030004EB90043E
:102410003AE008EB80015B462A4638460C31F1E78A
:102420000098C0F38310062800D30620009960F3BB
:102430008911C1F38310801C00918100274800F0AE
:102440005EF9070042D000F0A3F94B460822694626
:10245000384600F0BDF909F1080900250EE000BF7B
:1024600004EA060008EB80014B46042238460C3192
:10247000641C00F0ADF909F104096D1C0098C0F36B
:102480008310A842ECD847B1D8F81054D8F81804F3
:10249000464660B1384600F084F917E0687A0128B2
:1024A00004D12A6828463946126890476D68002D85
:1024B000F4D1384600F075F90020FEF756F9D6F849
:1024C000180400B974600020FEF751F9FEF7F2F924
:1024D00080F0010022E700001C020020BCBA0200CC
:1024E00000231A4600F0D8BB2DE9F0470E4680467F
:1024F0001C46924608293ED894F80C900020207380
:102500001946104600F0FAF90025B54206D218F82F
:1025100005201AA12046FFF799F903E019A12046EA
:10252000FFF794F96D1C082DEFD317A12046FFF794
:102530008DF90025B54210D218F80570FDF718FF87
:102540000068C05D10F03E0F01D03A4600E02E2238
:102550000EA12046FFF77AF903E00DA12046FFF710
:1025600075F96D1C082DE5D301222146504600F077
:10257000A7F984F80C90BDE8F087000020253032E0
:1025800078000000202020007C000000256300006F
:1025900020000000114810B5FF218160002101607A
:1025A0004160C0F81814C0F8141480F81C140C48CA
:1025B00000F0F5F800280FD10A480B490B4B401AE0
:1025C000C108002005E000BF00EB400223F8220014
:1025D000401C8842F8D3002010BD00001C020020DF
:1025E000BCBA020044BC020014BC02007C00002003
:1025F00002480349401AC0087047000044BC02006A
:1026000014BC020013B56846FEF7EAFD08B10020CD
:102610001CBD0248009950F831001CBD14BC0200DA
:1026200070B508480125D0F8104480F81C5405E026
:10263000657221682046496888476468002CF7D194
:1026400070BD00001C0200202DE9FF4781460C9D53
:1026500000200C462F7B28739846164629461846BC
:1026600000F04CF9072E42D2DFE806F004090F16FD
:102670001F2A360049462846FFF7E8F837E0494662
:1026800028462268FFF7E2F831E0D4E90023494602
:102690002846FFF7DBF82AE0A0680090D4E9002381
:1026A00049462846FFF7D2F821E0D4E90201CDE9F6
:1026B0000001D4E9002349462846FFF7C7F816E091
:1026C00004F1080007C88DE80700D4E90023494653
:1026D0002846FFF7BBF80AE004F108000FC88DE8B0
:1026E0000F00D4E9002349462846FFF7AFF800223F
:1026F0002946404600F0E4F82F73BDE8FF872DE936
:10270000F041058A80462D1F4819C01CB0FBF5F02A
:10271000C6B24046FEF785FD041E19D00020207188
:1027200001206071E58000272546761EC4F80080F0
:102730000BE04046FEF775FD60B16179491C61719F
:10274000286005467F1CC0F80080B742F1D32046C0
:10275000BDE8F081204600F002F80020F8E72DE9FE
:10276000F041457901466B1E002201E00968521CC8
:102770009A42FBD30F680146002605E038460C68F4
:10278000FEF76EFD2146761CAE42F7D3BDE8F08120
:1027900008B501216A46001DFDF76FFD08BDFEF773
:1027A00074BD38B50446001D01216A46FDF772FD6F
:1027B000009810F0FF0F04D12046BDE83840FFF725
:1027C000CEBF38BD38B501240094FEF7CDFC38BD2E
:1027D00038B500240094FEF7C7FC38BD40580028E7
:1027E00000D0012070474058002800D001207047D9
:1027F00008B5002242504058009008BDD0F80403AC
:10280000084000D0012070474058002800D0012027
:10281000704708B5002242504058009008BD0000A3
:1028200070B5034600791B4901EB40101968027F1F
:102830004FF0FF30002AD1F80C25D1F81465D1F8FB
:102840000855D1F8104504D0C1F80C05C1F814059D
:1028500003E0C1F81405C1F80C051968C1F80805B2
:10286000C1F81005501C02D01046FFF7FEFB701C8B
:1028700002D03046FFF7F9FB601C02D02046FFF77C
:10288000F4FB681C04D02846BDE87040FFF7EDBBA0
:1028900070BD0000FC000020F0B40D46C169144674
:1028A0008A884988954208D28C4206D28668214699
:1028B0002846B446F0BC1A466047F0BC704700009A
:1028C00010B50C46C17949B11AB109A12046FEF7ED
:1028D000BDFF2046BDE81040FEF7C5BF007A0028C6
:1028E000F3D0044804A102682046FEF7AFFFECE7EE
:1028F0000D0A0000540000202573000070B5044646
:10290000C0790D4600281CD1207A50B1A179A08849
:10291000FFF7DCFC0B4951F820200BA12846FEF7FD
:1029200095FFA0880021FFF76DFE03460549A079B9
:10293000143951F820202846BDE8704003A1FEF765
:1029400085BF70BD54000020257300003C25733EF8
:102950002025733A200000002DE9F041524D86B049
:10296000524CD5E90301CDE90101A068FFF748FB0E
:102970004008ADF80400A068FFF7AEF90646A0686D
:10298000FFF73EFBB6FBF0F0ADF80600A068FFF7DE
:10299000A3F9ADF80800D5E90501CDE90301A06868
:1029A000FFF72EFB4008ADF80C00A068FFF794F984
:1029B0000546A068FFF724FBB5FBF0F0ADF80E006C
:1029C000A068FFF789F9ADF810000121A068FFF7B2
:1029D000E9FA00252E464DE0A81CADF80C00ADF834
:1029E0000450B01CADF80660ADF80E00A068FFF70B
:1029F00007FBC5F1000800EB4800ADF80800A0682F
:102A0000FFF76AF9774200EB4700ADF80A00A068CB
:102A1000FFF7F6FA00EB4800001FADF81000A068C1
:102A2000FFF75AF900EB4700001FADF81200002035
:102A3000AF19009007EB87004300022201A9A068AC
:102A4000FFF72CFA08B1FDF785FE012000907842CF
:102A500000EB80004FF6FF7101EB4003022203A957
:102A6000A068FFF71BFA08B1FDF774FEAD1D08362C
:102A7000ADB2B6B2A068FFF7C3FA001F00EBD0708A
:102A8000B5EB600F08DCA068FFF726F9001F00EB2C
:102A9000D070B6EB600F9FDD0021A068FFF782FACF
:102AA00006B0BDE8F08100006031000000000020A9
:102AB000F8B515460246C0691C460E46DDE90637E4
:102AC000818840888E420FD285420DD2891BA14257
:102AD00000DA8CB2401B984200DA83B20097D768C4
:102AE000224629463046B847F8BD70B50546C87D30
:102AF0000C4600284FF4847128460AD0FFF778FE70
:102B0000D5F81805627EE1688854607E401C6076C6
:102B100070BDFFF76DFED5F8180570BD1FB5012318
:102B20008DF800308DF808100192D0E90012684647
:102B300090471FBD02484CF218618068FFF755BAF4
:102B40000000002010B5084C0020D2B22070201DDB
:102B5000FEF7C0FD08B1FDF7FDFD6078002802D04A
:102B600021780029FAD010BD180000202DE9F0418D
:102B700007461C4615460E462A2000F0DEFA380AA3
:102B800000F0E4FAF8B200F0E1FA280A00F0DEFA08
:102B9000E8B200F0DBFA2B2000F0CFFA300A00F0A8
:102BA000D5FAF0B200F0D2FA200A00F0CFFAE0B283
:102BB00000F0CCFABDE8F0412C2000F0BEBA0000D5
:102BC00008B500220092CAB2014600230448FEF76D
:102BD000D9FC002803D0BDE80840FDF7BBBD08BD07
:102BE000948902002DE9F843044610681E461546F4
:102BF0000F464FF0000810B1FEF72AFCF8B1A868A4
:102C000010B1FEF725FCD0B128792968C4F8441525
:102C1000C4F84805287BA968C4F83415C4F83805F9
:102C20004FF48C754046C4F81881D4F818110091FF
:102C3000F2074FF0010107D0C4F8501506E087F8FD
:102C40001D801020BDE8F883C4F85005B20702D5F6
:102C5000C4F8401501E0C4F84005300700D42161F4
:102C6000386848B146F38000401C4FF040000FD058
:102C7000C4F804030020E5E729462046FFF7AEFD2F
:102C80000028F9D0B87FFF28F4D0FFF753FAF1E716
:102C9000C4F80803EEE700002DE9F843224C88460B
:102CA000054691461F4669461846A668FDF7C8FDC9
:102CB00088B3009800EA060104EB810252F80C1F69
:102CC00021F00301491C401C11605FEAC56C02D56C
:102CD00041F0040101E021F0040165F3C50167F34F
:102CE000891168F39F21116000EA0602290C04EBA8
:102CF0008202401CD160009000200AE0009959F83F
:102D0000203001EA060204EB8202491CD360401C19
:102D10000091B842F2D394F81C0401E0FFF7F8FAEE
:102D20000028FBD1BDE8F8831C02002070B50C46DA
:102D300005464FF48E71FFF75BFDA18AA068415CE8
:102D4000A08A401CA082C5F81C1570BD1FB50022CA
:102D50008DF800208DF80810816801918275D0E906
:102D60000012684690471FBD014901200870704756
:102D70001800002010B588B0044620220E4968468D
:102D8000FDF7FAFA06200090C01F01900290039010
:102D90004FF0EB7006900CB1084A00E00022694643
:102DA0000748FEF763FC08B1FDF7D4FC0448001F98
:102DB000447008B010BD00009CBA0200692D0000EC
:102DC0001C0000202DE9FF470C4605464FF400711A
:102DD000FFF714FD01274FF40178002618B34FF4D4
:102DE000927949462846FFF7FEFCE0B1494628465D
:102DF000FFF7FEFCC5F80883A07E00B96F600220D3
:102E00008DF80000D5F88004C5F880040390E07DBB
:102E10008DF80800E0680190E6752676D4E9001286
:102E20006846904727E004212846FFF7E7FC10B3E7
:102E30004FF484712846FFF7D6FCE0B121462846BE
:102E4000FFF753FEE07D617E884214D1207E38B1C9
:102E5000617EE268E0752069E0602676667607E0CC
:102E6000A07E00B96F60C5F80883E675617EE268F0
:102E70002046FFF753FE4FF48E7841462846FFF771
:102E8000B2FC88B1A08AA17D884204D2214628469E
:102E9000FFF74CFF08E041462846FFF7A9FCA17D5B
:102EA00011B12046FFF752FF4FF4A2784146284661
:102EB000FFF799FC002812D041462846FFF798FCFE
:102EC000A07E00B12F60E07D002808D0E675617E0D
:102ED000E26804B02046BDE8F047FFF71FBEBDE83A
:102EE000FF872DE9FF410C464FF49277054639469E
:102EF000FFF78AFC0026C0B139462846FFF789FC57
:102F000002208DF80000D5F88004C5F880040390F5
:102F1000D5F83C058DF80800E0680190E675267646
:102F2000D4E900126846904724E04FF48877394688
:102F30002846FFF769FCE8B139462846FFF769FCE7
:102F4000D5F83C05C1B2E07D884213D1207E60B146
:102F5000E268D5F8000220F02000C5F80002207ECB
:102F6000E0752069E060267601E0E675E2682046BB
:102F7000FFF7D4FD4FF4A27739462846FFF744FC0B
:102F800068B139462846FFF744FCE07D38B1E67564
:102F9000D5F83C05E268C1B22046FFF7BFFD4FF40B
:102FA000907631462846FFF72FFC00280FD0314697
:102FB0002846FFF72EFCA07D002808D0D5F84C0548
:102FC00004B0C1B22046BDE8F041FFF7BFBEBDE886
:102FD000FF8100002DE9F05F8346DDE90A4A99464A
:102FE00090460D460846012703E000BFB0FBF8F00D
:102FF0007F1C4045FAD2B94500D94F465FEACA70F6
:1030000012D18CB15FEA8A7002D5B9F1000F01D0FC
:10301000202607E0302605E031465846641EFDF7BD
:1030200039FC0CB1A742F7D35FF00106B9F1010FEB
:1030300002D9A9F1010903E0B5FBF6F0404502D33E
:1030400006FB08F6F2E7DFF83C9000BFB5FBF6F0B0
:1030500000FB165519F800105846FDF71BFCB6FB8F
:10306000F8F6002EF2D15FEACA7009D0002C07D022
:10307000A74205D220215846641EFDF70BFCF5E758
:10308000BDE8F09F80BA02002DE9FF4F487883B079
:10309000101AC0B20C4600904968984611F82000FA
:1030A000C01D4FEAD009202A01D0002734E0B8F82B
:1030B0000000217800EB51003AE0002628E00025CE
:1030C0000098022101EB800B109807FB096A384435
:1030D00001906168C5F1070231F80B00A168014455
:1030E000012011F80A10904001420BD0B8F80000FE
:1030F00005EBC601084481B20198119B82B2039886
:10310000FFF7CAFB6D1CEDB2082DE2D3761CB6B2F8
:103110004E45D4D37F1CBFB22078B842CDD8616869
:10312000009811F82000E1780144B8F80000084444
:10313000A8F8000007B0BDE8F08F01B52B20FEF71E
:10314000C4FF01216846FFF73BFD08BD01B52B20F8
:10315000FFF704F801216846FFF732FD08BD0000C3
:1031600005000000000000000A0000000000000050
:10317000000002000000000000000200FFFFFFFF4F
:10318000FFFFFFFFFFFFFFFFFFFFFFFFFFFFFFFF4F
:10319000FFFFFFFFFFFFFFFFFFFFFFFFFFFFFFFF3F
:1031A000FFFFFFFFFFFFFFFFFFFFFFFFFFFFFFFF2F
:1031B000FFFFFFFFFFFFFFFFFFFFFFFFFFFFFFFF1F
:10AFA000FFFFFFFFFFFFFFFFFFDFFFFDFFFEFFFFD4
:10AFB000FFFEFFDFFFFEFFFDFFFEFFFFFFFFFFDFE6
:10AFC000FFFFFFFFFFFFFFFFFFFFFFFFFFFFFFFF91
:10AFD000FFFFFFFFFFFFFFFFFFFFFFFFFFFFFFFE82
:10AFE000FFFEFFFFFFFFFFFFFFFFFFFFFFFFFFFF72
:10AFF000FFFFFFFFFFFEFFFEFFFEFFFEFFFFFFDF85
:10B00000FFFFFFFFFFFFFFFFFFFFFFFFFFFFFFFF50
:10B01000FFFFFFFFFFFFFFFEFFFEFFFFFFFFFFFF42
:10B02000FFFFFFFFFFFFFFFFFFFFFFFFFFFFFFFF30
:10B03000FFFFFFFFFFFFFFFFFFFFFFFFFFFFFFFF20
:10B04000FFFFFFFFFFFFFFFFFFFFFFFFFFFFFFFF10
:10B05000FFFFFFFFFFFFFFFFFFFFFFFFFFFFFFFF00
:10B06000FFFFFFFFFFFFFFFFFFFFFFFFFFFFFFFFF0
:10B07000FFFFFFFFFFFFFFFFFFFFFFFFFFFFFFFFE0
:10B08000FFFFFFFFFFFFFFFFFFFFFFFFFFFFFFFFD0
:10B09000FFFFFFFFFFFFFFFFFFFFFFFFFFFFFFFFC0
:10B0A000FFFFFFFFFFFFFFFFFFFFFFFFFFFFFFFFB0
:10B0B000FFFFFFFFFFFFFFFFFFFFFFFFFFFFFFFFA0
:10B0C000FFFFFFFFFFFFFFFFFFFFFFFFFFFFFFFF90
:10B0D000FFFFFFFFFFFFFFFFFFFFFFFFFFFFFFFF80
:10B0E000FFFFFFFFFFFFFFFFFFFFFFFFFFFFFFFF70
:10B0F000FFFFFFFFFFFFFFFFFFFFFFFFFFFFFFFF60
:10B10000FFFFFFFFFFFFFFFFFFFFFFFFFFFFFFFF4F
:10B11000FFFFFFFFFFFFFFFFFFFFFFFFFFFFFFFF3F
:10B12000FFFFFFFFFFFFFFFFFFFFFFFFFFFFFFFF2F
:10B13000FFFFFFFFFFFFFFFFFFFFFFFFFFFFFFFF1F
:10B14000FFFFFFFFFFFFFFFFFFFFFFFFFFFFFFFF0F
:10B15000FFFFFFFFFFFFFFFFFFFFFFFFFFFFFFFFFF
:10B16000FFFFFFFFFFFFFFFFFFFFFFFFFFFFFFFFEF
:10B17000FFFFFFFFFFFFFFFFFFFFFFFFFFFFFFDE00
:10B18000FFFEFFDEFFFFF7FDFFDFFF9DFFDFF7FFA5
:10B19000F7DEFFBFFFBFFFDFFFFFFFDFFFDFFFFFC8
:10B1A000FFDFF7DFFFFFFFDFFFDFFFFFFFFEFFFE39
:10B1B000FFFEF7DFF7BEFFFFFFDFFFDFF79EF7DEE3
:10B1C000E75AB5F49CF09D31A552BE15D6D8E73BA1
:10B1D000E75BF7BDF7DEF7BEFFDFFFDFFFFFF7DE60
:10B1E000FFFFF7BEF7DEFFFFFFFFFFDFFFFFFFFF01
:10B1F000F7DEF7BEFFDFFFDFF7DFF7DFFFDFFFDFA1
:10B20000FFDFFFFFFFFFFFFFFFFFFFFFFFFFFFFF6E
:10B21000FFDFFFDFFFFFFFFFFFFFFFFFFFFFFFFF7E
:10B22000FFFFFFFEFFFFFFFFFFFFFFDFFFDFFFDF8F
:10B23000FFDFFFFFFFFFFFFFFFFFFFFFFFFFFFFF3E
:10B24000FFFFFFFFFFFFFFFFFFFFFFFFFFFFFFFF0E
:10B25000FFFFFFFFFFFFFFFFFFFFFFFFFFFFFFFFFE
:10B26000FFFFFFFFFFFFFFFFFFFFFFFFFFFFFFFFEE
:10B27000FFFFFFFFFFFFFFFFFFFFFFFFFFFFFFFFDE
:10B28000FFFFFFFFFFFFFFFFFFFFFFFFFFDFFFDF0E
:10B29000FFDFFFDFFFDFFFDFFFFFFFDFFFDFFFDF9E
:10B2A000FFDFFFFFFFFFFFFFFFFFFFFFFFFFFFFFCE
:10B2B000FFFFFFFFFFFFFFFFFFFFFFFFFFFFFFFF9E
:10B2C000FFFFFFFFFFFFFFFFFFFFFFFFFFFFFFFF8E
:10B2D000FFFFFFFFFFDFFFFFFFFFFFFFFFFFFFFF9E
:10B2E000FFFFFFFFFFFFFFFFFFFFFFFFFFFFFFFF6E
:10B2F000FFFFFFFFFFFFFFFFFFFFFFFFFFFFFFFF5E
:10B30000FFFFFFFFFFFFFFFFFFFFFFFFFFFFFFFF4D
:10B31000FFFFFFFFFFFFFFFFFFFFFFFFFFFFFFFF3D
:10B32000FFFFFFFFFFFFFFFFFFFFFFFFFFFFFFFF2D
:10B33000FFFFFFFFFFFFFFFFFFFFFFFFFFFFFFFF1D
:10B34000FFFFFFFFFFDFFFFFFFFFFFFFFFFFFFFF2D
:10B35000FFFFFFFFFFFFFFFFFFFFFFFFFFFFFFFFFD
:10B36000FFFFFFDFFFFFF7DEFFDEFFFFEF9EEFDEF9
:10B37000FFFEFFFFFFFFF7BEFFDFFFDFF7DFFFFF8F
:10B38000FFFFFFDEFFFEFFFEFFFFFFFFFFFEFFDE12
:10B39000FFDFFFFFFFDFFFDFFFDEFFFFF7DDC65749
:10B3A0009D319D0F950E7C2A7C4C7C2C7C0D844E0F
:10B3B000844E94D0AD93B5D5C658D6BBEF9CF7DE7E
:10B3C000FFFFFFFEFFFEFFFEFFFEF7DEF7DFF7BF2A
:10B3D000F7DFFFDEFFFFF7DEFFDFFFFFFFFEFFDF30
:10B3E000FFFFFFDFF7DFFFFFFFFFFFFFFFFFFFFFB5
:10B3F000FFDFFFDFFFDFFFDFFFDFFFDFFFDFFFFF3D
:10B40000FFDFFFFEFFFFFFFFFFFFFFFFFFFFFFFE6E
:10B41000FFFEFFDFFFDFFFDFFFDFFFDFFFFFFFFFDD
:10B42000FFFFFFFFFFFFFFFFFFFFFFFFFFFFFFFF2C
:10B43000FFFFFFFFFFFFFFFFFFFFFFFFFFFFFFFF1C
:10B44000FFFFFFFFFFFFFFFFFFFFFFFFFFFFFFFF0C
:10B45000FFFFFFFFFFFFFFFFFFFFFFFFFFFFFFFFFC
:10B46000FFFFFFFFFFFFFFFFFFFFFFFFFFFFFFDF0C
:10B47000FFDFFFDFFFFFFFFFFFFFFFFFFFFFFFFF1C
:10B48000FFFFFFFFFFFFFFFFFFFFFFFFFFFFFFFFCC
:10B49000FFFFFFFFFFFFFFFFFFFFFFFFFFFFFFFFBC
:10B4A000FFFFFFFFFFFFFFFFFFFFFFFFFFFFFFFFAC
:10B4B000FFFFFFFFFFFFFFFFFFFFFFFFFFFFFFFF9C
:10B4C000FFFFFFFFFFFFFFFFFFFFFFFFFFFFFFFF8C
:10B4D000FFFFFFFFFFFFFFFFFFFFFFFFFFFFFFFF7C
:10B4E000FFFFFFFFFFFFFFFFFFFFFFFFFFFFFFFF6C
:10B4F000FFFFFFFFFFFFFFFFFFFFFFFFFFFFFFFF5C
:10B50000FFFFFFFFFFFFFFFFFFFFFFFFFFFFFFFF4B
:10B51000FFFFFFFFFFFFFFFFFFFFFFFFFFFFFFFF3B
:10B52000FFFFFFFFFFDFFFFFFFFFFFFFFFFFFFFF4B
:10B53000FFFFFFFFFFFFFFFFFFFFFFFFFFFFFFDF3B
:10B54000FFDFFFDEF7DEF7BECE56B5929D0F9D50B2
:10B55000ADD2C676DF19F7DCF7DEFFDEF7BEF7BE49
:10B56000F7BEF7BEFFDFFFDFFFDEFFDEFFDFFFDF3F
:10B57000FFBFF7BFF7BFF7DDF7DDD6F894CF9CF03C
:10B580009D109D30A57084AD7C4D8CAF7C2D846E5C
:10B590006BEC6BEC742C73EC6BAB6BAC7BED94B025
:10B5A000AD73BE16CE98DF3BF7BDF7BDF7BDFFDF2D
:10B5B000FFDFF7DEFFDEFFFEFFDEF7BDFFFDFFDE94
:10B5C000FFDFFFDFFFDEFFFFF7DEF7DEF7DEF7DE90
:10B5D000FFDFFFDFFFDFFFDFFFDFFFDFFFDFFFFF5B
:10B5E000FFFFFFFFFFFFFFFFFFDFFFFFFFFEFFFE8D
:10B5F000FFFEFFDFFFDFFFDFFFDFFFFFFFFFFFFFDC
:10B60000FFFFFFFFFFFFFFFFFFFFFFFFFFFFFFFF4A
:10B61000FFFFFFFFFFFFFFFFFFFFFFFFFFFFFFFF3A
:10B62000FFFFFFFFFFFFFFFFFFFFFFFFFFFFFFFF2A
:10B63000FFFFFFFFFFFFFFFFFFDFFFDFFFFFFFFF5A
:10B64000FFDFFFDFFFFFFFFFFFDFFFDFFFDFFFDFCA
:10B65000FFFFFFDFFFDFFFFFFFFFFFFFFFFFFFFF3A
:10B66000FFFFFFFFFFFFFFFFFFFFFFFFFFFFFFFFEA
:10B67000FFFFFFFFFFFFFFFFFFFFFFFFFFFFFFFFDA
:10B68000FFFFFFFFFFFFFFFFFFFFFFFFFFFFFFFFCA
:10B69000FFFFFFFFFFFFFFFFFFFFFFFFFFFFFFFFBA
:10B6A000FFFFFFFFFFFFFFFFFFFFFFFFFFFFFFFFAA
:10B6B000FFFFFFFFFFFFFFFFFFFFFFFFFFFFFFFF9A
:10B6C000FFFFFFFFFFFFFFFFFFFFFFFFFFFFFFFF8A
:10B6D000FFFFFFFFFFFFFFFFFFFFFFFFFFFFFFFF7A
:10B6E000FFFFFFFFFFFFFFFFFFFFFFFFFFFFFFFF6A
:10B6F000FFFFFFFFFFFFFFFFFFFFFFFFFFFFFFFF5A
:10B70000FFFFFFFFFFDFFFFFFFFFFFFFFFFFFFFF69
:10B71000FFFFFFFFFFFFFFFFFFFFFFFFFFFFFFFF39
:10B72000F7DEFFDEF7BEBE14AD6E9CED9CCD8C8BBC
:10B7300073C97C2B73EC8CCF94F1A573B5F6CE99BD
:10B74000E77CEF5CF7BDFFDEFFFFFFFFFFFFFFDFE2
:10B75000FFDFF7DFF7DED6D9A5738CAD94EE9D4FF2
:10B760009D6F9D6F9D717C8E84D07C8F7C6E742DBF
:10B77000742E742D744D7C4D73EC740C7C0C73EC36
:10B780006BAB636A6BAB73EC844E94B0A553BDF5A1
:10B79000CE98DF1ADF1AEF7CFFFEFFFEFFDFF7BE59
:10B7A000FFFFFFFEF7BEF7BEF7DEF7DEF7DEF7DEE0
:10B7B000F7DEFFDEF7DEF7DEFFDEFFDEFFDEFFFE99
:10B7C000FFFEFFDEFFDEFFDEFFDFFFDFFFDFFFDF6D
:10B7D000FFDFFFDFFFDFFFDFFFDFFFDFFFFFFFFF39
:10B7E000FFFFFFFFFFFFFFFFFFFFFFFFFFFFFFFF69
:10B7F000FFFFFFFFFFFFFFFFFFFFFFFFFFFFFFFF59
:10B80000FFFFFFFFFFFFFFFFFFFFFFFFFFFFFFFF48
:10B81000FFFFFFFFFFFFFFFFFFDFFFDFFFFFFFFF78
:10B82000FFDFFFDFFFDFFFFFFFDFFFDFFFFFFFFFC8
:10B83000FFFFFFDFFFDFFFFFFFFFFFFFFFFFFFFF58
:10B84000FFFFFFFFFFFFFFFFFFFFFFFFFFFFFFFF08
:10B85000FFFFFFFFFFFFFFFFFFFFFFFFFFFFFFFFF8
:10B86000FFFFFFFFFFFFFFFFFFFFFFFFFFFFFFDF08
:10B87000FFDFFFFFFFFFFFFFFFFFFFFFFFFFFFFFF8
:10B88000FFFFFFFFFFFFFFFFFFFFFFFFFFFFFFFFC8
:10B89000FFFFFFFFFFFFFFFFFFFFFFFFFFFFFFFFB8
:10B8A000FFFFFFFFFFFFFFFFFFFFFFFFFFFFFFFFA8
:10B8B000FFFFFFFFFFFFFFFFFFFFFFFFFFFFFFFF98
:10B8C000FFFFFFFFFFFFFFFFFFFFFFFFFFFFFFFF88
:10B8D000FFFFFFFFFFFFFFFFFFFFFFFFFFFFFFFF78
:10B8E000FFFFFFFFFFDFFFDFFFFFFFFFFFFFFFFFA8
:10B8F000FFFFFFFFFFFFFFFFFFFFFFFFFFFFFFFF58
:10B90000F7DEF7DEEF9DBE33BE2E9D0BA54D94AB4B
:10B91000844B846C848D742C73EB636A5B4A73EC88
:10B920007C4E7C2D94D0B5D3BE37CE78DEFAEF7B3B
:10B93000EF9CDEF9AD93846D9D509D4E952F9D70CB
:10B94000956F7C8E63AE63B0638F63CE6C0F63AE16
:10B9500074316C106BCE740E740D7C4D73EB73EB05
:10B9600073EB740B740B73EB740B6B8A6BAA6B89A0
:10B970006B6A73CC842E8C8FAD73C637DEDAE71B0F
:10B98000EF9CFFFEFFFEFFFEFFDEFFFFFFFFFFFF5E
:10B99000F7DEF7DEFFDEFFDEF7DEFFDEFFDEFFDED7
:10B9A000FFFEFFFEFFDEFFDEFFDFFFDFFFDFF7DF73
:10B9B000F7DFFFDEFFDEFFDEFFDEFFFEFFFEFFFE46
:10B9C000FFFEFFFEFFFFFFFFFFFFFFFFFFFFFFFF89
:10B9D000FFFFFFFFFFFFFFFFFFFFFFFFFFFFFFFF77
:10B9E000FFFFFFFFFFFFFFFFFFFFFFFFFFFFFFFF67
:10B9F000FFFFFFFFFFFFFFFFF7DEFFDFFFFFFFFFA0
:10BA0000FFDFFFDFFFFFFFFFFFDFFFDFFFFFFFFFC6
:10BA1000FFFFFFDFFFFFFFFFFFFFFFFFFFFFFFFF56
:10BA2000FFFFFFFFFFFFFFFFFFFFFFFFFFFFFFFF26
:10BA3000FFFFFFFFFFFFFFFFFFFFFFFFFFFFFFFF16
:10BA4000FFFFFFFFFFFFFFFFFFFFFFFFFFFFFFFF06
:10BA5000FFFFFFFFFFFFFFFFFFFFFFFFFFFFFFFFF6
:10BA6000FFFFFFFFFFFFFFFFFFFFFFFFFFFFFFFFE6
:10BA7000FFFFFFFFFFFFFFFFFFFFFFFFFFFFFFFFD6
:10BA8000FFFFFFFFFFFFFFFFFFFFFFFFFFFFFFFFC6
:10BA9000FFFFFFFFFFFFFFFFFFFFFFFFFFFFFFFFB6
:10BAA000FFFFFFFFFFFFFFFFFFFFFFFFFFFFFFFFA6
:10BAB000FFFFFFFFFFFFFFFFFFFFFFFFFFFFFFFF96
:10BAC000FFFFFFFFFFFFFFFFFFFFFFFFFFFFFFFF86
:10BAD000FFFFFFDFFFFFFFFFFFFFFFDFFFDFFFDFF6
:10BAE000FFFFFFFEDF1ABE14BE50A58E9D4D950EC2
:10BAF0008CCF848D7C6C744B7C6D7C4C7C4D7C6DD0
:10BB0000742C73EB73EB73EA73EB7C0C7C0C8C6D15
:10BB10009D0F8C8D8CAD8CAD952E8D2E9D9084CFF0
:10BB20006C3053504B115352533153315371533185
:10BB300053515B715B4F636E6BCE6BCD6BAC6BCC5B
:10BB40006BCC6BEB6BEB742C740B73EA73EA73EBDB
:10BB500073CA73CB73CB73CA63686B897BEB7C0D41
:10BB60008C8F9CF1AD94BE16CE78DF1BEF7CF7DE98
:10BB7000F7BEFFFFFFFFFFFFFFFEFFDEFFDFFFDF80
:10BB8000FFDFFFDFFFDFF7BEFFFFFFDFFFDFFFFFAE
:10BB9000FFFFF7DEFFDFFFFFFFFFFFDEFFFFFFFF1F
:10BBA000FFDFFFDEFFFFFFFFFFFFFFFFFFFFFFFFE6
:10BBB000FFFFFFFFFFFFFFFFFFFFFFDFFFDFFFFFD5
:10BBC000FFFFFFFFFFFFFFFFFFFFFFFFFFDFFFFFA5
:10BBD000FFFFFFFFFFFFFFFFFFDFFFDFFFFFFFFFB5
:10BBE000FFFFFFFFFFFFFFFFFFFFFFFFFFDFFFDFA5
:10BBF000FFDFFFDFFFDFFFFFFFFFFFFFFFFFFFFFB5
:10BC0000FFDFFFFFFFFFFFFFFFDFFFDFFFFFFFFFA4
:10BC1000FFFFFFFFFFFFFFFFFFFFFFFFFFFFFFFF34
:10BC2000FFFFFFFFFFFFFFFFFFFFFFFFFFFFFFFF24
:10BC3000FFFFFFFFFFDFFFDFFFDFFFDFFFFFFFFF94
:10BC4000FFFFFFFFFFFFFFFFFFFFFFFFFFFFFFFF04
:10BC5000FFFFFFFFFFFFFFFFFFFFFFFFFFFFFFFFF4
:10BC6000FFFFFFFFFFFFFFFFFFFFFFFFFFFFFFFFE4
:10BC7000FFFFFFFFFFFFFFFFFFFFFFFFFFFFFFFFD4
:10BC8000FFFFFFFFFFFFFFFFFFFFFFFFFFFFFFFFC4
:10BC9000FFFFFFFFFFFFFFFFFFFFFFFFFFFFFFFFB4
:10BCA000FFFFFFFFFFDFFFFFFFFFFFFFFFFFFFFFC4
:10BCB000FFFFFFFFFFFFFFFFFFFFFFFFFFFFFFDFB4
:10BCC000F7BEFFFECE77BE52A5B184D16C30745260
:10BCD00074317450845094B27C6F744E744E742ED0
:10BCE000744E7C6E848E742C7C2A844A8C8B94AB2C
:10BCF00094CC94CC94CD94EE952E955284D05BAF99
:10BD0000533153335BB34B305B9153725B9253723D
:10BD10005B9253515B5063916BB16B916B8E6B8EE9
:10BD2000636D638D638D638C636B73ED73ED73EB88
:10BD3000740B73EA6BCA6BCA73EA73EB7C2B7C2CB3
:10BD40007C4D740C73EC6BAB73EC7C0D844E9CF1EE
:10BD5000B5B5BE17D6B9E73AF79CF7DDFFFEFFFE93
:10BD6000FFDEFFFFFFDFFFFFF7DEFFFFFFFEFFFE4F
:10BD7000FFFEFFFFFFFFFFFFFFFFFFDFF7BFF7DF64
:10BD8000FFDFFFDFFFDFFFDFFFFFFFFFFFFFFFFF43
:10BD9000FFFFFFDFFFFFFFFFFFDFFFFFFFDFFFFF13
:10BDA000FFFFFFFFFFFFFFFFFFFFFFFFFFDFFFFFC3
:10BDB000FFFFFFFFFFFFFFFFFFFFFFDFFFFFFFDFD3
:10BDC000FFFFFFFFFFFFFFFFFFFFFFFFFFDFFFDFC3
:10BDD000FFDFFFDFFFDFFFFFFFFFFFFFFFFFFFFFD3
:10BDE000FFFFFFFFFFFFFFFFFFFFFFFFFFFFFFFF63
:10BDF000FFFFFFFFFFFFFFFFFFFFFFFFFFFFFFFF53
:10BE0000FFFFFFFFFFFFFFFFFFFFFFFFFFFFFFDF62
:10BE1000FFFFFFFFFFFFFFFFFFFFFFFFFFFFFFFF32
:10BE2000FFFFFFFFFFFFFFFFFFFFFFFFFFFFFFFF22
:10BE3000FFFFFFFFFFFFFFFFFFFFFFFFFFFFFFFF12
:10BE4000FFFFFFFFFFFFFFFFFFFFFFFFFFFFFFFF02
:10BE5000FFFFFFFFFFFFFFFFFFFFFFFFFFFFFFFFF2
:10BE6000FFFFFFFFFFFFFFFFFFFFFFFFFFFFFFFFE2
:10BE7000FFFFFFFFFFFFFFFFFFFFFFFFFFFFFFFFD2
:10BE8000FFFFFFFFFFDFFFFFFFFFFFFFFFFFFFFFE2
:10BE9000FFFFFFFFFFFFFFFFFFFFFFFFFFDFFFFFD2
:10BEA000F7DEF7BDBE56BE7374705BD35393537207
:10BEB0005B925B9063916B9163B06BD06C1174314A
:10BEC0006C1074307C506C0E848E8CAE8CAC8CAA52
:10BED00094EB8CAA9D4F94F184916BF14B0F5BB264
:10BEE00053715371537153515371535153515351B2
:10BEF00053715B715B5063915B315AF063716350B6
:10BF00005B2F5B2F636F5B0E6B8F636E73B0634D44
:10BF10006B8D636C6B8C6BAD6B8C73ED740D740BF4
:10BF20007C4C7C4C7C2C740B7C2C7C0C73EB636900
:10BF30006B8C73CC7C0C7C0C9CEFAD72C635D6D868
:10BF4000DF1ADF3AE77BF7DDFFFEF7FEF7DEF7DE0D
:10BF5000FFFFF7DFFFDFFFDFFFDFFFDFFFFFFFDFB9
:10BF6000FFFFFFFFFFFFFFFFFFDFF7DEFFDFFFDF6A
:10BF7000FFDFFFDFFFDFFFDFFFDFFFDFFFDFFFFFB1
:10BF8000FFFFFFFFFFFFFFDFFFDFFFDFFFFFFFDF41
:10BF9000FFDFFFFFFFFFFFFFFFFFFFFFFFDFF7DE1A
:10BFA000FFFFFFFFFFFFFFFFFFFFFFDFFFFFFFFFC1
:10BFB000FFFFFFDFFFDFFFFFFFFFFFFFFFFFFFFFD1
:10BFC000FFFFFFFFFFFFFFFFFFFFFFFFFFFFFFFF81
:10BFD000FFFFFFFFFFFFFFFFFFFFFFFFFFFFFFFF71
:10BFE000FFFFFFFFFFFFFFFFFFFFFFFFFFFFFFDF81
:10BFF000FFFFFFFFFFFFFFFFFFFFFFFFFFFFFFFF51
:10C00000FFFFFFFFFFFFFFFFFFFFFFFFFFFFFFFF40
:10C01000FFFFFFFFFFFFFFFFFFFFFFFFFFFFFFFF30
:10C02000FFFFFFFFFFFFFFFFFFFFFFFFFFFFFFFF20
:10C03000FFFFFFFFFFFFFFFFFFFFFFFFFFFFFFFF10
:10C04000FFFFFFFFFFFFFFFFFFFFFFFFFFFFFFFF00
:10C05000FFFFFFFFFFFFFFFFFFFFFFFFFFFFFFFFF0
:10C06000FFFFFFFFFFDFFFFFFFDFFFFFFFFFFFFF20
:10C07000FFFFFFFFFFFFFFFFFFFFFFFFFFDFFFDF10
:10C08000FFFFDF3AC67595745392647564135BB114
:10C09000535063B15B4F6391639263925B515B91C9
:10C0A0005B715B7063D06C106C1174307C4F8CAE24
:10C0B000952E9D509D526BCF5B505BB25B935B7333
:10C0C00053705BB1535153534AF14AD05B715B31AA
:10C0D0005330530F5B50532F5B50530F5B1052F094
:10C0E00052F05310530F5B3063715B10631073D3C6
:10C0F00063505B0F5B2E6BB052EC6BAE636C6BAD41
:10C100006BCD638C740E6BCC7C2D7C2D7C4D6BCBFE
:10C11000740C73EB73CA7C2B846C9D0FB5D3ADB3D9
:10C12000AD93B5F29D108C8E9D11C657DEFAF7BD0A
:10C13000F7DEF7DEFFFEFFFEF7DEF7BEFFFFFFDFF5
:10C14000FFDFFFDFF7DEFFDFFFDFFFDFFFDFFFDF08
:10C15000FFDFFFDFFFDFFFDEFFDEFFDEFFFFFFDED3
:10C16000FFFFFFFFFFFFFFDFFFDFFFDFFFDFFFDF7F
:10C17000FFDFFFDFFFFFFFFFFFFFFFDFFFFFFFDF4F
:10C18000FFFFFFFFFFFFFFFFFFDFFFDFFFDFFFFF1F
:10C19000FFFFFFDFFFDFFFFFFFFFFFFFFFFFFFFFEF
:10C1A000FFFFFFFFFFFFFFFFFFFFFFFFFFFFFFFF9F
:10C1B000FFFFFFFFFFFFFFFFFFFFFFFFFFFFFFFF8F
:10C1C000FFFFFFFFFFFFFFFFFFFFFFFFFFFFFFDF9F
:10C1D000FFFFFFFFFFFFFFFFFFFFFFFFFFFFFFFF6F
:10C1E000FFFFFFFFFFFFFFFFFFFFFFFFFFFFFFFF5F
:10C1F000FFFFFFFFFFFFFFFFFFFFFFFFFFFFFFFF4F
:10C20000FFFFFFFFFFFFFFFFFFFFFFFFFFFFFFFF3E
:10C21000FFFFFFFFFFFFFFFFFFFFFFFFFFFFFFFF2E
:10C22000FFFFFFFFFFFFFFFFFFFFFFFFFFFFFFFF1E
:10C23000FFFFFFFFFFFFFFFFFFFFFFFFFFFFFFFF0E
:10C24000FFFFFFFFFFDFFFDFFFFFFFFFFFDFFFFF5E
:10C25000FFFFFFFFFFFFFFFFFFFFFFFFFFDFF7BE57
:10C26000FFFEC677C6556CD05BF45BF353508CD59C
:10C2700063916BF263B263B35B915B925B925B928F
:10C280005B725B925B505B5053705B915B705B6F5A
:10C290006BCF6BCF63AF5BB05BD153515BB153904E
:10C2A00053924B105B9253506BF29517637152EFA0
:10C2B00063925B515330533052EF4AEE4AAE4AAE6E
:10C2C0004ACE52EE52CE5B2F52EF5AEF633052CE2F
:10C2D0005B1052CF94F67C5394F4636E73F06B8FC3
:10C2E00052EE634E5B0D5B2C636D634B6BAD73CD98
:10C2F0007C0C73EB7C0B7C0A8C8CA54FADD29D31F2
:10C300009D52A5729D117C0D6B8B6BAB73AC7C0D3C
:10C310008C8F9D12AD74C657DF1AEF5BEF7CF79DD3
:10C32000F7DEFFFEFFDFFFDFFFDFFFDFF7DEF7DE19
:10C33000FFDEFFDFFFDEF7DEFFDEFFDEFFFFF7DE03
:10C34000F7DEF7DEF7DEFFDFFFDFFFDFFFFFFFDFF8
:10C35000F7DEFFDFFFFFFFFFFFDFFFDFFFFFFFFF76
:10C36000FFFFFFFFFFFFFFFFFFDFFFDFFFFFFFFF1D
:10C37000FFFFFFFFFFFFFFDFFFDFFFDFFFFFFFFF2D
:10C38000FFFFFFFFFFFFFFFFFFDFFFFFFFFFFFFFDD
:10C39000FFFFFFFFFFFFFFFFFFFFFFFFFFFFFFFFAD
:10C3A000FFFFFFFFFFFFFFFFFFFFFFFFFFFFF7DEC6
:10C3B000FFDFFFFFFFFFFFFFFFDFFFDFFFFFFFFFED
:10C3C000FFFFFFFFFFFFFFFFFFFFFFFFFFFFFFFF7D
:10C3D000FFFFFFFFFFFFFFFFFFFFFFFFFFFFFFFF6D
:10C3E000FFFFFFFFFFFFFFFFFFFFFFFFFFFFFFFF5D
:10C3F000FFFFFFFFFFFFFFFFFFFFFFFFFFFFFFFF4D
:10C40000FFFFFFFFFFFFFFFFFFFFFFFFFFFFFFFF3C
:10C41000FFFFFFFFFFFFFFFFFFFFFFFFFFFFFFFF2C
:10C42000FFFFFFFFFFFFFFFFFFFFFFFFFFFFFFFF1C
:10C43000FFFFFFFFFFFFFFDFFFDEFFFFF7DFEF9DE7
:10C44000F7BDBE57B6545C335C1363F342CEA5B858
:10C45000A597ADF99D795B725B925B926392639253
:10C460005B715B925BB35BD25BB24B0E63B06C31C2
:10C4700063F15B91535153305B6F5BB35B925371CC
:10C48000537153525B725B707C93AE395B6FB63AFB
:10C49000B63A5B50639252EF52EF5B4F52EF52EE5F
:10C4A00042AC426C52F052F0530F4AAE52EF52CFB0
:10C4B000428C8CB4C65BC67B9D15AD97ADB8B5F903
:10C4C000638FA59794F4634F845473D2634F5B0ECC
:10C4D00052EC634D52CB73CF844FAD929D6F9D4E06
:10C4E000B612A591B61294ED844C7C0B844B7C2B38
:10C4F00073EA73EA73EB6BAB740D846E84AF9511C2
:10C50000ADB4BE36D6FAE75CEF9DFFFFFFFFF7FF45
:10C51000F7DFFFFFF7DEF7BEF7BEF7DEFFDEFFDE79
:10C52000FFFEF7DEFFFEF7BEFFDFF7DEF7BEF7DF49
:10C53000F7BFFFFFFFFEFFFDFFFFFFFFF7FEFFFE60
:10C54000FFDFFFDFFFDFFFFFFFFFFFFFFFFFFFFF5B
:10C55000FFDFFFFFFFFFFFFFFFFFFFFFFFFFFFFF0B
:10C56000FFFFFFFFFFFFFFFFFFFFFFFFFFFFFFFFDB
:10C57000FFFFFFFFFFFFFFFFFFFFFFFFFFFFFFFFCB
:10C58000FFFFFFFFFFFFFFFFFFFFFFFFFFFFFFFFBB
:10C59000FFFFFFFFFFFFFFFFFFFFFFFFFFFFFFFFAB
:10C5A000FFFFFFFFFFFFFFFFFFFFFFFFFFFFFFFF9B
:10C5B000FFFFFFFFFFFFFFFFFFFFFFFFFFFFFFFF8B
:10C5C000FFFFFFFFFFFFFFFFFFFFFFFFFFFFFFFF7B
:10C5D000FFFFFFFFFFFFFFFFFFFFFFFFFFFFFFFF6B
:10C5E000FFFFFFFFFFFFFFFFFFFFFFFFFFFFFFFF5B
:10C5F000FFFFFFFFFFFFFFFFFFFFFFFFFFFFFFFF4B
:10C60000FFFFFFFFFFFFFFFFFFFFFFFFFFFFFFFF3A
:10C61000FFFFFFFFFFFFFFDFFFDFFFFFF7DEFFFF93
:10C62000E71AC676959353F353F35BD363B29D57E2
:10C630009D76A5B78D16535053725B725B715B711B
:10C640005B7053515B92537163B19D56D6FBE77D8E
:10C65000E79ECEDC8CF663B25B925B925B924B30D2
:10C660004B315B925B7253709536A5B86BF1BE5B34
:10C67000CF1D63B1ADBA5330426DB63B6371639069
:10C680008CF56BB14AAF4ACF4ACF4AAE4ACF4AAFD8
:10C69000426C7C5273F184949D769D55B618ADF72B
:10C6A000A596C67AD6FC636F84549D1695157C3189
:10C6B0009D166BB07C325AEE73D16B6D6BAD6BCD4A
:10C6C000740F8CD09D3194CF73AC844E7C2C8C8DA8
:10C6D000846D8C6E844D844D740C6BCB6BAB73ECA2
:10C6E0006BCC6BCC740C7C4D94F0A572ADD4CE9712
:10C6F000DF19E75BF7BDF7BEFFDEFFDFFFFFF7DF08
:10C70000FFDFF7BFFFDFFFFEFFFEFFFEFFDFF7DF0C
:10C71000FFDFF7BFFFDFFFDEFFFFFFFFFFFEFFFED4
:10C72000FFFFFFDFFFDFFFFFFFFFFFFFFFFFFFFF59
:10C73000FFDFFFFFFFFFFFFFFFFFFFFFFFFFFFFF29
:10C74000FFFFFFFFFFFFFFFFFFFFFFFFFFFFFFFFF9
:10C75000FFFFFFFFFFFFFFFFFFFFFFFFFFFFFFFFE9
:10C76000FFFFFFFFFFFFFFFFFFFFFFFFFFFFFFFFD9
:10C77000FFFFFFFFFFFFFFFFFFFFFFFFFFFFFFFFC9
:10C78000FFFFFFFFFFFFFFFFFFFFFFFFFFFFFFFFB9
:10C79000FFFFFFFFFFFFFFFFFFFFFFFFFFFFFFFFA9
:10C7A000FFFFFFFFFFFFFFFFFFFFFFFFFFFFFFFF99
:10C7B000FFFFFFFFFFFFFFFFFFFFFFFFFFFFFFFF89
:10C7C000FFFFFFFFFFFFFFFFFFFFFFFFFFFFFFFF79
:10C7D000FFFFFFFFFFFFFFFFFFFFFFFFFFFFFFFF69
:10C7E000FFFFFFFFFFFFFFFFFFFFFFFFFFFFFFFF59
:10C7F000FFFFFFFFFFFFFFDFFFDFFFFEF7FEFFDFB3
:10C80000CE57BE54745153D353B35B9284D69D9785
:10C8100074117C9284B44B0E53715B7153505B71F5
:10C820005B915B525B717C53CE9BF7BFFFBFFFBD3B
:10C83000FFDEFFDEEFDF951653525BB253515371AB
:10C840005BB2539153715BB184B56BF274129D5618
:10C850008CD44AEE8CF6741363B1BE5B4ACE74334B
:10C86000B63B84B6531053104AEF52EF4AAF4AD04A
:10C87000530F3A6C4ACE42AE532F4ACD5B4E7411E1
:10C880006BF17C739D7752CD9D359515A596B617A6
:10C890008493B619AD9784539D368C9484537C133E
:10C8A00094F7530D6BAF632D6B6E6B6E634C634CE3
:10C8B0006B8D842F73EE7C2E846E848F846F7C4E00
:10C8C000742D7C4C7C4C7C4C742C6BEB73EC7C2D71
:10C8D000740C846E8CAF9D11B5F5D6B9D6F9E73BD3
:10C8E000EF9CF7BEFFFFFFFEFFFEFFFFFFFEF7BE60
:10C8F000F7DEF7DEFFFFFFBFFFFEFFFFFFFFFFFFDB
:10C90000FFFEFFFFFFDFFFDFFFFFFFFFFFFFFFDF98
:10C91000FFDFFFFFFFFFFFFFFFFFFFFFFFFFFFFF47
:10C92000FFFFFFFFFFFFFFFFFFFFFFFFFFFFFFFF17
:10C93000FFFFFFFFFFFFFFFFFFFFFFFFFFFFFFFF07
:10C94000FFFFFFFFFFFFFFFFFFFFFFFFFFFFFFFFF7
:10C95000FFFFFFFFFFFFFFFFFFFFFFFFFFFFFFFFE7
:10C96000FFFFFFFFFFFFFFFFFFFFFFFFFFFFFFFFD7
:10C97000FFFFFFFFFFFFFFFFFFFFFFFFFFFFFFFFC7
:10C98000FFFFFFFFFFFFFFFFFFFFFFFFFFFFFFFFB7
:10C99000FFFFFFFFFFFFFFFFFFFFFFFFFFFFFFFFA7
:10C9A000FFFFFFFFFFFFFFFFFFFFFFFFFFFFFFFF97
:10C9B000FFFFFFFFFFFFFFFFFFFFFFFFFFFFFFFF87
:10C9C000FFFFFFFFFFDFFFFFFFFFFFDFFFFFFFFFB7
:10C9D000FFFFFFFFFFFFFFFFFFDFFFDFFFFEF79E11
:10C9E000BE14B61363B15BD34B515B927453A5B7BE
:10C9F0008D1495357C934B0E533053514B305B72F5
:10CA000053305B736392C69AF7BFFFDFF7BEF79DA3
:10CA1000FFBEFFDED6F984916BF263F3537153715D
:10CA2000535153505BB153714AF04B0F5B4F74122B
:10CA30005B6F63B0530E5B507C5384936BB2BE7CD0
:10CA40009D78637153315330530F5B515B315310F9
:10CA50004AEE53504AD053314AAF428F42AF428FD1
:10CA6000322D4ACE4AAE3A2B6BAF8CD4636F9556BB
:10CA70008CF495348CF3BE598492ADB6B5F8ADD82C
:10CA8000849484D4C69B7C11A5576BB173D15B0E83
:10CA90005AEE6B905B0D6B8E636E6BCF7C50742F78
:10CAA00084907C4E7C4F84B07C2F84907C2E7C6F55
:10CAB000742D84AF6BEB740B6BEB6BCA7C2C846DA9
:10CAC000950FA571C675D6B9DF1BE77CF7BDFFFDD5
:10CAD000FFFDFFFDFFFEFFDFFFFEFFFFFFDFFFDFCC
:10CAE000FFDFFFFEFFFEFFDFFFDFFFDFFFFFFFFFD8
:10CAF000FFFFFFDFFFDFFFDFFFDFFFDFFFDFFFFF06
:10CB0000FFFFFFFFFFFFFFFFFFFFFFFFFFFFFFFF35
:10CB1000FFFFFFFFFFFFFFFFFFFFFFFFFFFFFFFF25
:10CB2000FFFFFFFFFFFFFFFFFFFFFFFFFFFFFFDF35
:10CB3000FFFFFFFFFFFFFFFFFFDFFFDFFFFFFFFF45
:10CB4000FFFFFFFFFFFFFFFFFFFFFFFFFFFFFFFFF5
:10CB5000FFFFFFFFFFFFFFFFFFFFFFFFFFFFFFFFE5
:10CB6000FFFFFFFFFFFFFFFFFFFFFFFFFFFFFFFFD5
:10CB7000FFFFFFFFFFFFFFFFFFFFFFFFFFFFFFFFC5
:10CB8000FFFFFFFFFFFFFFFFFFFFFFFFFFFFFFFFB5
:10CB9000FFFFFFFFFFFFFFFFFFFFFFFFFFFFFFFFA5
:10CBA000FFFFFFFFFFDFFFFFFFFFFFDFFFFFFFFFD5
:10CBB000FFFFFFFFF7DFFFFEFFFEFFDFFFFFDED916
:10CBC000C6559D5263B263D353506BF29536A59709
:10CBD000C6BB8CD463B15B5053315B51535053513E
:10CBE00053516BB36BB0BE37F7BEFFFFF7FFF7FFD4
:10CBF000F7BECE387C0C8CEF849153715B925371ED
:10CC000053504B30537053715B925351BE9CA59758
:10CC1000A5D8A5D89D778CD58CD56BD15B70743396
:10CC200063B25B515B515330531053105B326391CD
:10CC3000428C5B50743484D55B6F531152F152F1C6
:10CC4000531142AE426E4ACE4ACD4AAE426E3A4D82
:10CC50004ACF52EE63906BD0C69A95347C71B63948
:10CC60007432C6DB8D14A596ADD884739D56A597F6
:10CC70008CB494D484537C338453847352ED7411F4
:10CC8000638F6390638E6BEF74307C717C91744F13
:10CC90007C8F7C6E7CAF744D6BEC7C6D7C6E742CE9
:10CCA000846E742D740C740D7C2E8C909D12A55284
:10CCB000C676CE56EF3BF79DFFDEFFFEFFFFFFDFA0
:10CCC000F7BFFFDEFFFEFFFFFFDFFFFFFFFFFFFFFE
:10CCD000FFFFFFFFFFFFFFFFFFFFF7DEFFDFFFDFCD
:10CCE000FFFFFFFFFFFFFFFFFFFFFFFFFFFFFFFF54
:10CCF000FFFFFFFFFFFFFFFFFFFFFFFFFFFFFFFF44
:10CD0000FFFFFFFFFFFFFFFFFFFFFFFFFFFFFFDF53
:10CD1000FFFFFFFFFFFFFFFFFFFFFFFFFFFFFFFF23
:10CD2000FFFFFFFFFFFFFFFFFFFFFFFFFFFFFFFF13
:10CD3000FFFFFFFFFFFFFFFFFFFFFFFFFFFFFFFF03
:10CD4000FFFFFFFFFFFFFFFFFFFFFFFFFFFFFFFFF3
:10CD5000FFFFFFFFFFFFFFFFFFFFFFFFFFFFFFFFE3
:10CD6000FFFFFFFFFFFFFFFFFFFFFFFFFFFFFFFFD3
:10CD7000FFFFFFFFFFFFFFFFFFFFFFFFFFFFFFFFC3
:10CD8000FFFFFFFFFFDFFFFFFFFFFFDFFFFFFFFFF3
:10CD9000FFFFFFFFF7FFFFFEFFFFFFBFFFDEC656EF
:10CDA000C6757C71639263B263916BD1741173D059
:10CDB00084728CB55B505B10639263925B915B9164
:10CDC0005B705B7084516B69840DB5D5D6D9BE3666
:10CDD0007BEE630A846C8D0F743163F35BB2537125
:10CDE00053515351537153304B0F6C13BE9C6BD145
:10CDF000AE19638FADF9B619B63AADF9ADF9532F47
:10CE000053305B51531053305330531063734AAF58
:10CE10008CD69D5984759D95CEFA532E4AAE5330CB
:10CE20006BF384B67C555331426E426E4AB052F079
:10CE3000426E3A6E3A6D3A4C73F263B1322B5B50EC
:10CE40004AEE84D463B08493B5F99D35ADD7BE79ED
:10CE5000C699ADB773F08472A5779516ADB8A5984D
:10CE6000743384948493638F534E74325B4E6BD0CF
:10CE700074307C7174507C917CB1744F7C6F744FB2
:10CE8000744E7C4F8490846D7C2C7C4D846E846EBB
:10CE90007C0D7C0D8C6EDED8FFFEFFFEFFFEFFDFFB
:10CEA000F7BFF7DEFFFEFFFFFFDFFFDFFFFFFFFF44
:10CEB000FFFFFFDFFFDFFFDFFFDFF7DEFFDFFFDF6B
:10CEC000FFFFFFFFFFFFFFFFFFFFFFFFFFFFFFFF72
:10CED000FFFFFFFFFFDFFFFFFFFFFFDFFFFFFFFFA2
:10CEE000FFFFFFFFFFFFFFFFFFFFFFFFFFFFFFDF72
:10CEF000FFFFFFFFFFFFFFDFFFDFFFDFFFFFFFFFA2
:10CF0000FFFFFFFFFFFFFFFFFFFFFFFFFFFFFFFF31
:10CF1000FFFFFFFFFFFFFFFFFFFFFFFFFFFFFFFF21
:10CF2000FFFFFFFFFFFFFFFFFFFFFFFFFFFFFFFF11
:10CF3000FFFFFFFFFFFFFFFFFFFFFFFFFFFFFFFF01
:10CF4000FFFFFFFFFFFFFFFFFFFFFFFFFFFFFFFFF1
:10CF5000FFDFFFFFFFFFFFFFFFDFFFFFFFFFFFFF21
:10CF6000FFFFFFFFFFFFFFDFFFDFFFFFFFFFFFFF11
:10CF7000FFFFFFFFFFFEF7DFFFFFF7BEF7BDC63580
:10CF8000BE356BD063716BB26BB195156BD073F11D
:10CF90005B2E635063516B92635063705B4F639081
:10CFA0005B90530E8CB17C2B5AE65AE84A874A862E
:10CFB00062E883EB8C8C8D5243105B9253315B7132
:10CFC00053515B525B7253305B70B63A7C73B65A06
:10CFD000B6397C729D569515530E7C73AE1A5B5014
:10CFE0005B51533153315330535153114AD08CD785
:10CFF00084755B314AEFBEB9D77BB63A7C548494D2
:10D000007C755B507C747C5552F06BD3A5B8743240
:10D010007C745B50532F530F4AAE42AE3A6E428E31
:10D020003A4D3A6D3A4D3A4D4A8D52EE63907C320C
:10D030008472AD984AAC8472ADD763AFBE7BA5B79E
:10D04000BE7A95549537A5D9530F53305B725B5117
:10D05000533063925B505B7063D16BF074316C0F33
:10D060007C907C6F84D07C8E8CEF84AF7C6D848EC2
:10D07000848E8CCE848CA58FEF9CF7DEFFDFFFDFE4
:10D08000FFDFFFDFFFDFFFDFFFFFFFFFFFFFFFFF30
:10D09000FFFFFFFFFFFFFFFFFFFFFFDFFFDFFFDF00
:10D0A000FFFFFFFFFFFFFFFFFFDFFFFFFFFFFFFFB0
:10D0B000FFFFFFFFFFDFFFFFFFFFFFFFFFFFFFFFA0
:10D0C000FFFFFFDFFFDFFFFFFFFFFFFFFFFFFFFFB0
:10D0D000FFFFFFDFFFDFFFFFFFFFFFFFFFFFFFFFA0
:10D0E000FFFFFFFFFFFFFFFFFFFFFFFFFFFFFFFF50
:10D0F000FFFFFFFFFFFFFFFFFFFFFFFFFFFFFFFF40
:10D10000FFFFFFFFFFFFFFFFFFFFFFFFFFFFFFFF2F
:10D11000FFFFFFFFFFFFFFFFFFFFFFFFFFFFFFFF1F
:10D12000FFFFFFFFFFFFFFFFFFFFFFFFFFFFFFFF0F
:10D13000FFFFFFFFFFFFFFFFFFDFFFFFFFFFFFFF1F
:10D14000FFFFFFFFFFDFFFFFFFFFFFDFFFFFFFFF2F
:10D15000FFFFFFFFFFFEF7DFFFFFFFFEDEB9CE950B
:10D1600094F163715B506B7163509D3694F4DF1DD5
:10D170009D365B2F637073D26B9173B163905B507C
:10D180005B4F6371636E94F15B495B0952E86349DD
:10D190006329846E848F63D04B335B5153505B5152
:10D1A0005B515B525B325B715B6FC6BB63B0ADF9C9
:10D1B0008CD4B6199D7684B4532EA5B874335B71A4
:10D1C0005331533153515330531053314AAFADD9CA
:10D1D000530E5B717454CF3D955684B56BD25B7121
:10D1E0004AAF42AD5B6EA5B75B5095369555B679A3
:10D1F00095357C93ADF99D7774537C7495384B0FBE
:10D200006BD242AE531052CF426E3A0D426E52AFC5
:10D21000633173D34A8E6350639052EE84946BD023
:10D220009DB6A5D6AE1A9D7842CE63B2535163B374
:10D230005B315B5153315331639253106391532EE1
:10D24000638F638F743073F074107C507C507C4F0C
:10D25000848F848D8CED954CC677F7DEF7BFF7BED3
:10D26000FFFEF7FFFFFFFFDFFFFFFFFFFFFFFFDF17
:10D27000FFDFFFFFFFFFFFFFFFDFFFFFFFDFFFFF1E
:10D28000FFDFFFFFFFFFFFFFFFFFFFFFFFFFFFFFCE
:10D29000FFFFFFFFFFDFFFFFFFFFFFFFFFFFFFFFBE
:10D2A000FFFFFFDFFFFFFFFFFFFFFFFFFFFFFFFFAE
:10D2B000FFFFFFDFFFDFFFFFFFFFFFFFFFFFFFFFBE
:10D2C000FFFFFFFFFFFFFFFFFFFFFFFFFFFFFFFF6E
:10D2D000FFFFFFFFFFFFFFFFFFFFFFFFFFFFFFFF5E
:10D2E000FFFFFFFFFFFFFFFFFFFFFFFFFFFFFFFF4E
:10D2F000FFFFFFFFFFFFFFFFFFFFFFFFFFFFFFFF3E
:10D30000FFFFFFFFFFFFFFFFFFFFFFFFFFFFFFFF2D
:10D31000FFFFFFFFFFFFFFFFFFFFFFFFFFFFFFFF1D
:10D32000FFFFFFFFFFDFFFFFFFFFFFFFFFDFFFDF6D
:10D33000FFDFFFDFFFFEF7DFF7FFFFFEBDF5C6747F
:10D3400073EF5B32634F63316BB1A556A5768CB436
:10D35000634F632F73B1634F635163516B716B9272
:10D36000637163725B3084726BEF63AD4B0A534A37
:10D37000638D6BF0638E5B2F635263715B715B50E7
:10D380005B305B515B5163B28493B619849363B095
:10D39000530D9D579D56ADF9638FCEDC4ACE533069
:10D3A0005B925B5153305330531153306BF28CF618
:10D3B000532F5B7163B25B704B0F426E63914AEE09
:10D3C0007C54A5B7B638C6BA4ACDB61A7412AE1A8E
:10D3D00084D4AE19A5B8B63AADF89D7774529D962F
:10D3E000955484D48CD5847473F27C535B306B92E7
:10D3F0004A8D52CE4AAE63313A0D5B304AAE52EF9F
:10D4000052EF63B263D14B0E5B70533053305330E5
:10D41000741263905B705B7153304AEF53105B5131
:10D420005B5163725B515B315330531063715B50DE
:10D430006BF263CF6C0F8D12A593EF9DF7BFFFFECC
:10D44000FFFDF7FEFFFFFFFFFFFFFFFFFFFFFFDE18
:10D45000F7DEFFFFFFFFFFFFFFDFFFFFFFFFFFFF25
:10D46000FFDFFFDFFFDFFFDFFFFFFFFFFFFFFFFF4C
:10D47000FFFFFFFFFFDFFFFFFFFFFFDFFFFFFFFFFC
:10D48000FFFFFFFFFFFFFFFFFFFFFFFFFFFFFFFFAC
:10D49000FFFFFFFFFFFFFFFFFFFFFFFFFFFFFFFF9C
:10D4A000FFFFFFFFFFFFFFFFFFFFFFFFFFFFFFFF8C
:10D4B000FFFFFFFFFFFFFFFFFFFFFFFFFFFFFFFF7C
:10D4C000FFFFFFFFFFFFFFFFFFFFFFFFFFFFFFFF6C
:10D4D000FFFFFFFFFFFFFFFFFFFFFFFFFFFFFFFF5C
:10D4E000FFFFFFFFFFFFFFFFFFFFFFFFFFFFFFFF4C
:10D4F000FFFFFFDFFFDFFFFFFFFFFFFFFFFFFFFF7C
:10D50000FFFFFFFFFFDFFFFFFFFFFFFFFFDFFFDF8B
:10D51000FFDFFFDFFFDEFFDFF7FEEFBCBDF4BE3451
:10D52000638F6352634F5B3094F57C52C69B6BB044
:10D530005B0F5B10637152EE53105B106B715AF00E
:10D540005B0F633263515B2F5B2F5B4F530D5B6E41
:10D5500063B0532F530F6B916B915B7063705B5093
:10D560005B3063505B305B507412B639B63994F55A
:10D570009D369536639063909556A5B8530F4B0F23
:10D58000531053714B305331533153309D576BD33C
:10D59000531153104ACE4AEE63917C549D77B618CE
:10D5A000CEFBDF5CD75C84B24AED5B4F5B5063928D
:10D5B000530E8CD65B7095358CF4A5D86BF1AE38D4
:10D5C000534CADD7B65AADF99D559D559515B5D966
:10D5D00094F484738C945B0F52CF52AF63715310E9
:10D5E0004AD05312530F6BF36BF35B5163924AEEC5
:10D5F000ADD984B484B37C926BF16BD15B706371F1
:10D6000053305B515311533163725B3153315311BA
:10D610004B10535153105B729512BE37FFDEFFDE85
:10D62000F7FEF7FFF7FFFFDFFFFEFFFEFFDFFFDE86
:10D63000FFDEFFFFFFFFFFFFFFDFFFFFFFFFFFFF3B
:10D64000FFDFFFDFFFDFFFDFFFDFFFDFFFDFFFDFEA
:10D65000FFDFFFFFFFDFFFFFFFFFFFDFFFDFFFDF7A
:10D66000FFFFFFFFFFFFFFDFFFDFFFDFFFDFFFFF4A
:10D67000FFDFFFFFFFFFFFFFFFFFFFFFFFFFFFFFDA
:10D68000FFFFFFFFFFFFFFFFFFFFFFFFFFFFFFFFAA
:10D69000FFFFFFFFFFFFFFFFFFFFFFFFFFFFFFFF9A
:10D6A000FFFFFFFFFFFFFFFFFFFFFFFFFFFFFFFF8A
:10D6B000FFFFFFFFFFFFFFFFFFFFFFFFFFFFFFFF7A
:10D6C000FFFFFFFFFFFFFFFFFFFFFFDFFFFFFFFF8A
:10D6D000FFFFFFDFFFFFFFFFFFFFFFFFFFFFFFFF7A
:10D6E000FFFFFFFFFFDFFFFFFFFFFFFFFFDFFFDFAA
:10D6F000FFDFFFDFFFBEFFDFF7DFE75ACE959D526A
:10D700006BD06BB173B173F28CD49D558CD35B2EFF
:10D71000530F5B314AAE5B5052EF6351633052ADF1
:10D72000422A5AEF5B3052EE5AEF635063306B304F
:10D7300063305B306BB26BB284535B506BB16B91F7
:10D740006BD16B905B4F636F5B2F6BD194F49D3605
:10D750009D57ADB895569D77CEDC6BF15B505B5114
:10D76000535153705371535153115B30A5B84A8EC6
:10D7700063725B307C31A595C699DF3BDF1BD6FA1F
:10D78000C698C699D6FD52CEC69B63B0428C7452E1
:10D790006BB24AAE4ACF5B6F52EE6BB26BB374346E
:10D7A0009537745284949D579D5684B4B63A7C52F2
:10D7B000A59694F484726BB08C93845394F6639121
:10D7C00063B07C7353105B725B315B7253316BB22D
:10D7D0009D787C7384B49D56ADD8A59795569515C4
:10D7E0008493638F84B47432532E6BD24B2F537057
:10D7F00053705370537253528491A593DF19FFFEF7
:10D80000F7BFF7DFF7DEFFDEFFDEF7DEFFFEFFFE2E
:10D81000FFFFFFFFFFFFFFFFFFFFFFDFFFDFFFFF58
:10D82000FFFFFFDFFFDFFFDFFFFFFFDFFFDFFFDFC8
:10D83000FFDFFFDFFFDEFFFFFFFFFFDFFFDFFFDFB9
:10D84000FFFFFFFFFFFFFFDFFFDFFFDFFFDFFFDF88
:10D85000FFFFFFFFFFFFFFFFFFFFFFFFFFFFFFFFD8
:10D86000FFFFFFFFFFFFFFFFFFFFFFFFFFFFFFFFC8
:10D87000FFFFFFFFFFFFFFFFFFFFFFFFFFFFFFFFB8
:10D88000FFFFFFFFFFFFFFFFFFFFFFFFFFFFFFFFA8
:10D89000FFFFFFFFFFFFFFFFFFFFFFFFFFFFFFFF98
:10D8A000FFFFFFFFFFFFFFFFFFFFFFFFFFFFFFFF88
:10D8B000FFFFFFDFFFFFFFFFFFFFFFFFFFFFFFFF98
