:020000040000FA
:10000000102B0020E9030000F1030000F3030000BF
:10001000F5030000F7030000F903000000000000F2
:10002000000000000000000000000000FB030000D2
:10003000FD03000000000000FF03000001040000B9
:100040004D06000003040000C9090000030400007D
:100050000304000003040000030400000304000084
:100060000304000003040000030400000304000074
:100070000304000003040000030400000304000064
:1000800003040000A50600000304000003040000B0
:10009000C90600000304000003040000030400007C
:1000A0000304000003040000030400000304000034
:1000B0000304000003040000000000000000000032
:1000C0000304000003040000030400000304000014
:1000D000030400000304000003040000000000000B
:1000E0000000000000000000000000000000000010
:1000F0000000000000000000000000000000000000
:1001000000000000000000000000000000000000EF
:1001100000000000000000000000000000000000DF
:1001200000000000000000000000000000000000CF
:1001300000000000000000000000000000000000BF
:1001400000000000000000000000000000000000AF
:10015000000000000000000000000000000000009F
:10016000000000000000000000000000000000008F
:10017000000000000000000000000000000000007F
:10018000000000000000000000000000000000006F
:10019000000000000000000000000000000000005F
:1001A000000000000000000000000000000000004F
:1001B000000000000000000000000000000000003F
:1001C000000000000000000000000000000000002F
:1001D000000000000000000000000000000000001F
:1001E000000000000000000000000000000000000F
:1001F00000000000000000000000000000000000FF
:10020000DFF80CD000F0B4F900480047B12C000032
:10021000102B002030B4044654E8000F0D4644E88B
:100220000053002BF8D1156030BC704730B4044641
:1002300054E8000F40EA010544E80053002BF7D1D1
:10024000156030BC704730B4044654E8000F00EA33
:10025000010544E80053002BF7D1156030BC70470E
:1002600030B4044654E8000F80EA010544E8005326
:10027000002BF7D1156030BC704730B4044654E809
:10028000000F00EB010544E80053002BF7D1156087
:1002900030BC704730B4044654E8000FA0EB0105B1
:1002A00044E80053002BF7D1156030BC70470000C4
:1002B00030B4044654E8000F0D4644E80053002BC8
:1002C000F8D1156030BC704730B4044654E8000FD4
:1002D00040EA010544E80053002BF7D1156030BC1B
:1002E000704730B4044654E8000F00EA010544E8C2
:1002F0000053002BF7D1156030BC704730B4044672
:1003000054E8000F80EA010544E80053002BF7D1C0
:10031000156030BC704730B4044654E8000F00EB61
:10032000010544E80053002BF7D1156030BC70473D
:1003300030B4044654E8000FA0EB010544E8005334
:10034000002BF7D1156030BC7047000030B4044674
:1003500054E8000F0D4644E80053002BF8D1156017
:1003600030BC704730B4044654E8000F40EA010541
:1003700044E80053002BF7D1156030BC704730B40F
:10038000044654E8000F00EA010544E80053002B3E
:10039000F7D1156030BC704730B4044654E8000F04
:1003A00080EA010544E80053002BF7D1156030BC0A
:1003B000704730B4044654E8000F00EB010544E8F0
:1003C0000053002BF7D1156030BC704730B40446A1
:1003D00054E8000FA0EB010544E80053002BF7D1CF
:1003E000156030BC7047000006488047064800474B
:1003F000FEE7FEE7FEE7FEE7FEE7FEE7FEE7FEE7D5
:10040000FEE7FEE7CD06000001020000004870474D
:10041000245B00002DE9FE439946154688460746B1
:1004200001AC022942D3002D40D000200290A8F157
:1004300001004FF0FF36009022E000FB057201FB47
:10044000057011464A469047002805DC54F82600FE
:10045000304444F8260013E060682A4600FB05712A
:1004600054F8040C00FB057007E00B7890F800C00E
:1004700001F801CB00F8013B521E002AF5D176426B
:1004800054F8040C61688842D7DC4B462A4638464B
:10049000FFF7C0FF54F8040C4B46A8EB0001401CCA
:1004A00000FB05702A46491EFFF7B4FFBDE8FE8336
:1004B00010B5431A934209D28318881803E010F844
:1004C000011D03F8011D521EF9D210BD40EA0103BF
:1004D0009B0703D009E008C9121F08C0042AFAD2FA
:1004E00003E011F8013B00F8013B521EF9D210BDA8
:1004F000D2B201E000F8012B491EFBD27047002266
:10050000F6E710B513460A4604461946FFF7F0FF12
:10051000204610BD421C10F8011B0029FBD1801A97
:10052000704710B5002200E0521C835C8C5CA34233
:1005300001D1002BF8D1D8B2E1B2401A10BD034668
:1005400011F8012B00F8012B002AF9D11846704749
:1005500030B505460020034600E05B1C934205D2FF
:10056000EC5CC85C201A01D1002CF6D130BD000033
:10057000064C074D06E0E06840F0010394E80700F0
:1005800098471034AC42F6D3FFF73EFED860000027
:10059000F860000070B58C1810F8015B15F00703C7
:1005A00001D110F8013B2A1106D110F8012B03E00C
:1005B00010F8016B01F8016B5B1EF9D12B0705D414
:1005C0000023521E0DD401F8013BFAE710F8013B5D
:1005D000CB1A921C03E013F8015B01F8015B521E79
:1005E000F9D5A142D8D3002070BD00F01F0201212F
:1005F00091404009800000F1E020C0F8801270476F
:1006000000F01F02012191404009800000F1E0202C
:10061000C0F80011704700F01F020121914040090D
:10062000800000F1E020C0F8001270474907090E71
:10063000002806DA00F00F0000F1E02080F8141D19
:10064000704700F1E02080F8001470472DE9F04178
:100650004FF48077384603F0AFF90124104EA50718
:1006600048B1384603F0AFF90120C5F808037470AB
:10067000002001F0B5F94FF48277384603F09CF979
:1006800000280BD0384603F09EF90220C5F8080375
:10069000B470BDE8F041012001F0A2B9BDE8F081DD
:1006A000EC04002007480021C0F84011C0F84411B4
:1006B000C0F84811C0F84C11C0F80011C0F804117E
:1006C00004F0F2BD0010014004F040BDF0B5AE48AA
:1006D0000023021D01780125101D4FF080540629CA
:1006E0000BD11678360708D10678C6F30316032E09
:1006F00006D0042E04D0052E02D0062907D00EE025
:10070000B4F82463A14FC6F304263E6002E01678D5
:10071000360704D10678C6F30316032E02D0062945
:1007200004D00FE09B4F9A4E7E670EE01678360796
:1007300008D10678C6F30316032E06D0042E04D083
:10074000052E02D0062907D00EE0D4F84462924F5D
:10075000C6F342363E6002E01678360704D10678CA
:10076000C6F30316032E02D0062906D011E08B4EE5
:10077000376827F0807737600EE01678360708D1A3
:100780000678C6F30316032E06D0042E04D0052ED9
:1007900002D006290AD011E04FF08046C6F80C318D
:1007A000C6F810317C4E361F336002E016783607EB
:1007B00004D10678C6F30316032E02D0062905D00D
:1007C0000CE0754F032664373E600AE01678360762
:1007D00004D10678C6F30316032E02D006290DD0E5
:1007E00014E06F4F05263E606D4E783635606C4ED6
:1007F000083633603F263F1D3E6002E0167836071C
:1008000004D10678C6F30316052E02D0062957D068
:1008100062E0644E3668644F3E60624E361D366854
:100820003F1D3E605F4E083636683F1D3E605D4EA0
:100830000C3636683F1D3E605A4E103636683F1DF6
:100840003E60584E143636683F1D3E60554E183691
:100850003668554F20373E60524E1C3636683F1D75
:100860003E60504E203636683F1D3E604D4E243669
:1008700036683F1D3E604B4E283636683F1D3E6051
:10088000484E2C3636683F1D3E60464E3036366840
:10089000454F40373E60434E343636683F1D3E601C
:1008A000404E383636683F1D3E603E4E3C36366818
:1008B0003F1D3E603B4E403636683F1D3E6002E0C5
:1008C0001678360708D10678C6F30316032E06D02D
:1008D000042E04D0052E02D0062907D019E0D4F842
:1008E0005812324A01F04F01116002E011780907F5
:1008F0000FD10078C0F30310032803D0042801D0DF
:10090000052806D12A480168C90702D06FF0010105
:10091000016022487438016841F470010160BFF33E
:100920004F8FBFF36F8F4FF01021D1F800020028D6
:1009300003DBD1F80402002822DA1E4A15601E48A3
:100940000468002CFCD01524C1F800420568002D75
:10095000FCD0C1F8044201680029FCD01360016892
:100960000029FCD0BFF34F8F0C48F0380168134AC0
:1009700001F4E06111430160BFF34F8F00BFFDE759
:1009800010490F480860F0BDE00F00F0403501400D
:100990000DF0ADBA00C007403C050040FCED00E0A2
:1009A000105600400404001020C50040E40E004032
:1009B0000004004004E5014000E401400400FA05A1
:1009C0000090D003CC0000200448017F0448002997
:1009D000024901D004F086BD04F0F5BC00050020FA
:1009E0000020004002E008C8121F08C1002AFAD106
:1009F00070477047002001E001C1121F002AFBD19F
:100A00007047000003F0C0FE03F0BEFC0028FBD1DD
:100A1000134C606830B12088012101EB004011A126
:100A200003F0B0FD12480068C00700D000BE606847
:100A3000022806D32088022101EB00400DA103F01B
:100A4000A1FDBFF34F8F0A48E43801680D4A01F455
:100A5000E06111430160BFF34F8F00BFFDE700006D
:100A60002C010020466174616C206572726F720007
:100A7000F0ED00E053797374656D207265736574F1
:100A8000000000000400FA050EB500210091CDE938
:100A900001106A4644F20100FFF7B4FF0EBD0000EA
:100AA000074B9B7823B12AB120B10068037C1BB1AE
:100AB000082070470720704741744261002070474A
:100AC0002005002070B504F03BFA104800240B21EB
:100AD000047044700E4D817014206C602C706C702A
:100AE000FFF783FD07211420FFF7A0FD1420FFF777
:100AF00087FD0848046007211120FFF797FD05488E
:100B0000001F0068A860002070BD000020050020C4
:100B100040000020081501402DE9F843DFF87090EF
:100B200099F802305BB350B3052902D20720BDE823
:100B3000F88343691BB3437C012B22D00027044672
:100B4000002588461646284600F036F8684604F028
:100B50009BFDC0B1012101700E4944600968C0E9E4
:100B60000218C0E904769DF8000089F80100002011
:100B700000F024F81420FFF74EFD2846D7E70820A0
:100B8000D5E70F46DBE70425002000F017F8F4E76F
:100B900020050020041501400649897839B130B19B
:100BA000416921B100210174022104F05DBB0820DC
:100BB000704700002005002000F002B800F008B8DF
:100BC00072B602480168491C016070475400002059
:100BD00003490868401E086000D162B670470000F3
:100BE000540000202DE9F041064608680C46411CDF
:100BF0004FF0A0474FF0010506D005FA00F1C7F805
:100C00000815206803F02AFB6068411C02D000210F
:100C100003F01BFB3079204901EB4010A169007FF4
:100C200000283068C0F8241525D0607D227D316809
:100C30001043C1F86C05D4E900123068C0F80C15F7
:100C4000C0F8142524E0A068411C02D0002103F064
:100C5000FCFAE068411C05D08540C7F80855E068FB
:100C600003F0FCFAD4E902123068C0F80825C0F895
:100C70001015BDE8F081607D217D32680843C2F81F
:100C80006C05D4E900123068C0F81425C0F80C15C2
:100C9000207D0128D7D0ECE7000500202DE9F041A8
:100CA000861C0C4601270020FFF786FF0F480168CD
:100CB0002160D0E90012891A82680446511AB51CD5
:100CC00007E000BF01F016FFD4E90001401AA16857
:100CD000091A491C8D42F5D8206830442060002054
:100CE000FFF76CFF3846BDE8F0810000EC060020FD
:100CF00030B482680468531C8360A154D0E90112A7
:100D00008A4202D330BC03F08CB930BC704700007B
:100D1000034803C8814201D1012070470020704779
:100D2000EC06002070B5816804468A7C002A4DD00C
:100D3000C87C00284AD0121A0844D5B200F1140128
:100D40006A1C1330FFF7B4FBA068C17C491EC17454
:100D5000A068817C491E81748DB308221C492069DA
:100D600003F052F9204602F02DF98178C0788142D3
:100D700011D1A06817A2C17C431808212046143362
:100D800002F0ECFB204600F013F929462046BDE8AE
:100D9000704000F0DDBF204600F01EF9204600F054
:100DA00007F9A0680BA2C17C431808212046143320
:100DB00002F0D4FB2046BDE8704000F003B9206982
:100DC000BDE87040044A03A103F01EB970BD0000E5
:100DD000AC0F0000257300005058000070B50446A9
:100DE0008068827CC17C521A12F0FF053AD0084418
:100DF00000F115012A461430FFF75AFBA068817CE8
:100E0000491E8174204602F0DDF88178C078814265
:100E100014D1A06814A2C17C4318082120461433C1
:100E200002F09CFB114A10A1206903F0EDF86D1E41
:100E3000E9B22046BDE8704000F08ABF204600F0CD
:100E4000CBF8204600F0B4F8A06807A2C17C431894
:100E500008212046143302F081FB2046BDE8704093
:100E600000F0B0B870BD00002573000054580000B9
:100E70002DE9F041044680680F4690F83D11C27C90
:100E800011F00106817CA1EB0203DDB20AD07F29BB
:100E900001D3002D7ED0A068C17C084400210775D5
:100EA00066B113E07F297CD2002DF4D0831803F1C2
:100EB00014012A46481CFFF7FBFAECE7A068827C85
:100EC000521CD2B28274A068143281544DB32046B1
:100ED00002F078F88178C07881420ED1A06832A201
:100EE000C17C431808212046143302F037FBA81BAD
:100EF000C1B2204600F02CFF21E0204600F06CF843
:100F0000A06829A2C17C431808212046143302F0AE
:100F100025FB204600F056F80121204600F0F8FF9E
:100F20000DE03EB1A068827C521CD2B28274A068EF
:100F3000143281543A461DA1206903F065F8A16876
:100F4000C87C401CC874204600F0EFFE00282046F4
:100F500003D0BDE8F04100F007BF01F02AFA0028F5
:100F60001FD0204602F02EF80546C078A978401A16
:100F7000401EC1B2204600F079FE204600F0F4FE8B
:100F8000E878A978401AC1B2204600F0CDFF287851
:100F9000401E00E005E0C1B22046BDE8F04100F08F
:100FA000B7BFBDE8F0810000257300002563000095
:100FB0000069024A02A103F027B800004858000067
:100FC000257300000069024A024903F01DB80000C1
:100FD0003F580000C00F00000069024A024903F0B8
:100FE00013B800003C580000C00F00002DE9F04F7E
:100FF0004FF000099DB005464E464C46CDF8149082
:1010000000F046FD284601F0F9FAAA680C2308A969
:1010100001A8143201F0B2FE0346019840B15BB161
:1010200059A20221284602F099FA1DB0BDE8F08FBE
:10103000284600F099FEF8E75A4859490027A1EBE5
:1010400000080DF1200A83461AE00FD3284600F06D
:101050006CFE01005448089B009001D053A200E0B0
:1010600054A20221284602F079FADEE70BEBC7040E
:10107000606801685AF82900FFF753FA18B17F1C1D
:10108000B7EBD80FE1D94FF0000BCDF868B060682E
:10109000C7680FB1A9684860606809F101044FF0A2
:1010A000000880680DF1580906900198844237D2F3
:1010B0005AF8240042A1FFF734FA50B35AF824003A
:1010C00040A1FFF72EFA20B3424608F101081AABFF
:1010D0002146CDF80090069800F096FCB8F1000F7C
:1010E0001ED01A98E0B101685AF82400FFF719FAE7
:1010F0000028DAD11A98C16829B1A8F10101DDF8F8
:1011000018B02646059180684FF00008641C0690D0
:10111000CBE7A86890F83D1141F0020180F83D113D
:10112000284600F0AFFD284600F0FFFD10B9284624
:1011300000F01AFEBBF1000F12D0CDF800901AABF0
:1011400031465846059A00F05FFCA9681A980AEBE8
:10115000860248600199C368891B284698470AE0BF
:1011600027B108AA28460199B84704E017A202212E
:10117000284602F0F3F9A86890F83D1121F0020129
:1011800080F83D1151E700000D0A6E6F7420746500
:10119000726D696E617465643A2025630D0A000002
:1011A00038610000F8600000855800002573257341
:1011B0000D0A00000D0A257325730D0A00000000BA
:1011C0002D6800002D2D68656C700000506C656105
:1011D0007365207370656369667920737562636FE8
:1011E0006D6D616E642E0D0A000000002DE9F04166
:1011F0000446C0688EB00D460026C068324601A97C
:1012000003F0D1FB18B100200EB0BDE8F0816DB144
:10121000019803F07AFBA168D1F82C01401CC1F8B9
:101220002C0100F0070001287ED10126204601F0A4
:10123000C9FE05468078012804D9401EC1B2204667
:1012400000F072FE2878012804D9401EC1B2204661
:1012500000F07EFD2046FFF7ABFE2EB133A2022147
:10126000204602F07BF95FE04FF0000800230822DF
:1012700002A9019803F05AFB049805900398ADF871
:1012800018008DF81C800298082700F00300012840
:1012900002D002281DD03CE002983B46860AC0F3EB
:1012A000C2008DF81A00029808A9C0F380008DF8DA
:1012B0001B000298C0F38315AA00019803F036FBC7
:1012C0002069009005AB2A4608A9304603F070FA61
:1012D0001FE00298850DC0F3C2008DF81A00029835
:1012E000C0F380008DF81B00082D01D22E4600E0CF
:1012F00008263B46324608A9019803F017FB3744FD
:10130000AD1B05AA314608A8236903F03FF9002D5B
:10131000EAD1019803F0F9FAE068002201A9C06857
:1013200003F041FB0028A1D001206DE74C6F7374DE
:10133000204C4F4773202D20696E63726561736581
:10134000204C4F47206261636B656E642071756548
:1013500075652073697A652E0D0A000030B4406807
:1013600004682469A44630BC60477CB50025044667
:10137000019501AB012269462046FFF7EFFF019876
:1013800000281CD09DF800007F28F2D803F00AFB4B
:10139000A068417821B1012947D0022949D14DE007
:1013A000217E9DF80060B1420DD1807C002820464E
:1013B00006D0FFF71BFE0221204600F0ABF87CBDF3
:1013C00000F0D2FCF7E7092E17D004DC002ED0D0B5
:1013D000082E04D119E01B2E0DD07F2E1DD0FFF753
:1013E00015F80068805D10F03E0FC2D031462046EF
:1013F000FFF73EFDBDE701211EE090F83D0100072B
:10140000B7D5204600F0A0F8B3E790F83D010007FB
:10141000AFD52046FFF786FCABE790F83D0100070B
:10142000A7D52046FFF7DAFCA3E79DF800105B295B
:1014300001D045709DE7022141709AE74570A1688F
:1014400091F83D010207BAD59DF80020413A0C2AD7
:101450008FD2DFE802F007090E3106500654060667
:10146000065886E7012100E00021204600F0B4FF85
:101470007FE7204601F0A6FD064600787178884295
:1014800003D1B178F2789142B4D0717988424FF0AB
:10149000010120460AD100F0E9FB7179204600F0F5
:1014A00057FCA168C87C401CC87462E700F030FD9E
:1014B000A068C17C491C15E0204601F083FD06466A
:1014C0000078B179491C884202D1B178012991D0C4
:1014D00001284FF00101204606D000F039FCA06839
:1014E000C17C491EC17444E700F01EFD717920469D
:1014F00000F00EFDF3E7204600F0C4FB39E720467C
:1015000000F0E9FB35E7421C62F3000081F83D0181
:101510002FE700008268022911700BD18268002138
:1015200011758268D1748268917403A203210368E3
:1015300002F014B87047000025730000002801D0A5
:10154000FEF7E8BF704700002DE9F04FA5B04FF05F
:1015500000080546CDF82880CDF810808068474601
:10156000817CC1F17F01C9B25FEA010B7BD0C27CF3
:1015700000F114019430FEF79BFFA8680024C17CA1
:10158000084480F89440FEF741FF20900168A86865
:101590000C23C27C0244D27C895CC0F83841AA6822
:1015A00001F001090DA91FA8943201F0E7FB0D9885
:1015B000FFF7C4FFC6B2A2461A940C941F9818B144
:1015C0004844401EB8426AD8B9F1000F01D0002645
:1015D00005E00DA850F82700FFF7B0FFC6B20024C1
:1015E0001BA822460090641C1AAB3946504600F0F6
:1015F0000BFA1A9800286BD001680DA8324650F8F3
:101600002700FEF7A5FF00280C9802D00028E7D09D
:101610005EE0D8B11A980068FFF790FF0499C0B255
:10162000884200D90490BBF1000F2BD021A8009074
:101630000CAB42463946504600F0E6F91A9800686D
:1016400083190C9800688219002015E0601E0A902A
:101650001A980068FFF772FFC0B20490801B5845CB
:1016600010DAC0B20DE07FE012F800C0614506D18B
:10167000401C10F0FF0010D0195C0029F4D1834504
:1016800000D983461A98B4F101080C90A8D262A23E
:101690000421284601F062FF1AE0FF20EFE7002452
:1016A0001BA822460090641C1AAB3946504600F035
:1016B000ABF9ECB31A98002856D001680DA850F881
:1016C0002700FEF72EFF0028EAD11A98D0F808A0CC
:1016D000BAF1000F09D01A9838B11F997F1CFFB2D8
:1016E00001EB09008742FFF469AF0C9800283BD05A
:1016F0000A98414640455DD19AF8000038B11BA8D0
:101700000A4600900CAB3946504600F07DF90C9823
:101710000068FFF713FFB04206D00C985A460068E5
:101720008119284600F058FA2098A968026800E05C
:101730001DE0C87C0B181B7DD25CD2071DD0897CB4
:10174000884211D2284601F03DFCA9688478C87C03
:10175000401CC874284601F035FC8078A04225D191
:101760000121284600F0D4FB25B0BDE8F08F2AA265
:101770000421284601F0F2FEF6E791F83D01C20788
:101780000FD020F0010081F83D0120212846FFF70D
:101790006FFBA86890F83D1141F0010180F83D1100
:1017A000E2E720212846FFF763FBDDE7284600F04B
:1017B000DBFAD9E700212846049A03F0E5FA0DF197
:1017C0006C090A9C0EE01AAB224639465046CDF809
:1017D000009000F019F91A98049A0168284603F05D
:1017E000D3FA641C4445EED917A2032128462B687E
:1017F00001F0B4FEAB6816A208212846143301F0AC
:10180000ADFE284600F04EFB0C985A460068811940
:10181000284600F0E1F9A7E75461622066756E631F
:1018200074696F6E3A20636F6D6D616E64732063CF
:101830006F756E746572206F766572666C6F776512
:10184000642E0D0A000000000D0A25730000000040
:1018500025730000002803D08968012081F83C012D
:101860007047000070B5044640680D4690F82800A7
:1018700030B1A0680068FFF78FF908B108280CD1D3
:10188000012685B1606902F095FB6168002208318C
:10189000606902F0B1F908B1062070BD606880F897
:1018A0002960002070BD606890F8280048B9074A98
:1018B0000021A068FFF7F4F86168002881F828602B
:1018C000F0D12046BDE8704003F08DBB45510000CB
:1018D00070B5044640680D460260606800224360AF
:1018E000606880F82820606880F8292060682022DD
:1018F0000830FEF7DDFD2C61074A2946606902F0D9
:101900007BF9050005D1E06803F0FBF9206903F0DD
:10191000F8F9284670BD0000595300001A60C068ED
:101920001A4603F033B910B50446406902F042FB91
:10193000A0680068BDE81040FFF72EB97CB51A60BA
:10194000044600691A4603F05AF905001CD1606983
:1019500002F024FBC0B9FF20009001236A4601A9D0
:10196000206903F097F978B900980199C2B26069CB
:1019700002F08EFA0546606890F8290020B11DB982
:101980002069009903F071F928467CBD2DE9F843E0
:101990001E46154688460746002418E0786808EB7E
:1019A00004016B460268D2F80CC02A46E047009852
:1019B00004442D1A58B9B8680178032907D000BF2C
:1019C00090F83C110029FBD0002180F83C11002D3B
:1019D000E4D1002E01D000983060BDE8F88300000B
:1019E00070B5084C050009D010342168002907D0D3
:1019F00008682060496828468847F6E70834F4E715
:101A000070BD0000EC0400202DE9F05F1C460A9E2A
:101A100015464FF0000959B180B3017839B34268D7
:101A20003146284690473068D8B12660BDE8F09F1F
:101A300014491548A1EB0008B5EBD80F11D2DFF817
:101A40004CA00026834609E00BEBC60778680168C6
:101A50005AF82500FEF765FD30B1761CB6EBD80FBD
:101A6000F2D3C4F80090E1E778682060DEE74068D0
:101A700000EB0210016809B11860D7E7FFE7C3F86F
:101A80000090D3E738610000F8600000D00000202B
:101A90002DE9F041856806460024287D002812D0F3
:101AA000A046FEF7B3FC0746D0F8000004F114018D
:101AB00004F10104695CE4B2415CC90705D0002C63
:101AC000F4D185F81480BDE8F081641E14F0FF04A1
:101AD0000FD0A87C021B04F11400291805F1140092
:101AE000521CFEF7E5FCB168887C001B8874B16865
:101AF000C874B2683D68937CD01813300446002146
:101B000002E0491CC9B2401E0778EF5DFF07F8D11B
:101B10008442D8D05B1A143302F80380B268907CF8
:101B2000401A9074B168C874CDE700002DE9F05FE9
:101B300026484168F1B3DFF898B00E688146DBF8BB
:101B4000004087688078E11B21F07F45ED1CB0B92B
:101B5000DFF880804FF48030C8F84403C8F80403ED
:101B60001120FEF742FD1120FEF74AFD4FF0010A59
:101B7000C8F800A02F2001F02FFF89F802A0B5427D
:101B800000D23546124BE8193C3320F07F401860F4
:101B9000DBF800105A46091B21F07F41001B20F0A2
:101BA0007F40C91C81420FD9106818602F2001F0B6
:101BB00013FF00E004E0BDE8F05F1120FEF72BBD4D
:101BC000BDE8F05F03F0BCB9BDE8F09F4000002025
:101BD00004150140001001402DE9F04104468068E1
:101BE00015460F46827CC17C531A2A44DEB27F2AF6
:101BF00037D8002D35D0084400F1140105F1140246
:101C00001044721CFEF754FCA0682A46C17C0844AC
:101C100039461430FEF74CFCA0681430FFF78EFCF8
:101C2000A16811A28874A068C17C431808212046CD
:101C3000143301F093FCA068C17C2944C174204690
:101C400000F073F818B9204600F0B3FB10B120463D
:101C500000F08AF8002E04D02046BDE8F04100F0E4
:101C600021B9BDE8F081000025730000002904D0EF
:101C70000A46006901A102F0C7B970471B5B2564E1
:101C80004200000070B5054601F09CF9044600785A
:101C90006178884203D1A078E17888421AD0E1784F
:101CA000A078814204D9081AC1B22846FFF7DEFFA6
:101CB00020786178884205D9401AC1B2284600F0E0
:101CC00047F804E0081AC1B2284600F021F9A868D4
:101CD000817CC17470BD70B5054601F073F904468E
:101CE00001788079401C814202D1A07801281BD064
:101CF000A078012804D9401EC1B2284600F014F98A
:101D00002078A179884206D9401A401EC1B22846DF
:101D100000F01EF805E0081A401CC1B2284600F089
:101D2000F7F8A9680020C87470BD10B504460068B3
:101D3000FFF704FC0146A068C27C407B1144B1FB64
:101D4000F0F200FB121008B1002010BD012010BD00
:101D5000002904D00A46006901A102F055B9704774
:101D60001B5B2564440000000069024A024902F03E
:101D70004BB9000042580000C00F00002DE9FC5F85
:101D8000002604468DF8046080683546B046B146AA
:101D900080219430FEF7B3FB4149206902F034F909
:101DA000206902F03EF9002740F2E73B4FF47A7ACF
:101DB0006B46012201A92046FFF7D0FA0098D8B15E
:101DC0009DF804001B2806D0A16891F894101B29E7
:101DD000EED152281CD0A26808F19401505408F1A9
:101DE000010000F0FF08B8F1090F08D9A16804202C
:101DF00081F89490BDE8FC9F584601F033FE0098AE
:101E00000028D5D17F1CBFB25745D1D30D20F1E7B3
:101E1000A16808F194004A4601F80090A16891F881
:101E200095005B2803D081F894200B20E2E7022084
:101E30006FF02F070AE000BF05EB850507EB4505AE
:101E4000401C2B44C0B29DB2802808D200F19403FC
:101E5000CB5C3B2BF0D1401CC0B2802809D30C20B6
:101E6000C8E700BF06EB860607EB460633449EB282
:101E7000F1E700F19403CB5C002BF3D1FA20FA2EAA
:101E800001D9087200E00E72FA2D02D9A168887299
:101E900001E0A0688572A06880F894200020A9E77E
:101EA0006058000070B5054601F08CF80446807853
:101EB000E178884201D1012600E000262846FFF79C
:101EC00034FF18B9284600F074FA10B12846FFF71D
:101ED0004BFF1EB160782178401A12E0E078A178BB
:101EE000401AC1B2284600F01FF820786178884275
:101EF00006D9401AC1B22846BDE8704000F008B8C3
:101F0000081AC1B22846BDE87040FFF721BF0000A3
:101F1000002904D00A46006901A102F075B8704793
:101F20001B5B256443000000002904D00A460069B9
:101F300001A102F069B870471B5B256441000000F5
:101F40000E4910B50A784C780023A24212D0521CD8
:101F5000D2B20A70022A00D10B70084A0B780C32F8
:101F600052F8232002608868104420F07F40886087
:101F7000012010BD0360002010BD000040000020C3
:101F800030B44FF0805250690C49401E886012698D
:101F90000B4C5043C1E900020A4D0246C860136869
:101FA000A34208D0AB4203D102F58072CA60F6E7C3
:101FB00030BC02F0C7BC30BC70470000DC0400201D
:101FC000A55A5AA500005AA51CB5012905D081685B
:101FD00091F83D11C1F3400131B102B00022BDE8DA
:101FE0001040114601F0E2BA536804A1CDE9001394
:101FF000136808A2022101F0B1FA1CBD20756E6BB6
:102000006E6F776E20706172616D657465723A20D3
:102010000000000025733A257325730D0A000000A7
:1020200010B5034C206802F08DFC2068E06010BD04
:10203000DC0400202DE9F043194D0746194E2C68A9
:10204000E86891B0A04224D12068B04221D016A205
:1020500005E02068B04209D0484507D01AA2042103
:10206000384601F07BFA11B0BDE8F083002041460C
:1020700004EB800212790A54401CC0B23E28F7D902
:102080006B4617A20821384601F068FA04F58074FF
:1020900002E0DFF85490E846E868A042D9D2E2E7CF
:1020A000DC040020A55A5AA5506C65617365207741
:1020B0007269746520736F6D657468696E672066F8
:1020C000697273742E0D0A00436F727275707465B5
:1020D00064206461746120666F756E642E0D0A0061
:1020E00025730D0A0000000000005AA52DE9F843F1
:1020F00016460746022906D233A00090136838A27C
:102100004FF0020106E00AD937A00090136834A20C
:102110004FF00401384601F021FABDE8F8837068F9
:10212000FEF7F8F905463E2808D901B03846BDE863
:10213000F0433E2337A2022101F010BA444CDFF8ED
:102140001481E06801684A1C1CD0414503D042A2BA
:102150004FF002010AE015D1226800F50071A1EBF1
:102160000201B1F5805F06D946A204213846BDE8D8
:10217000F84301F0F3B94F4902F0FCFBE06800F5C9
:102180008070E06074684C4E0346021D0120306090
:102190004A486D1C01680029FCD0002106E0675CFC
:1021A00042F821700768002FFCD0491CA942F6D3E1
:1021B0000021316001680029FCD041461846BDE885
:1021C000F84302F0D7BB00002062616420706172A6
:1021D000616D6574657220636F756E740D0A000021
:1021E00025733A25730000002062616420706172DB
:1021F000616D6574657220636F756E74202D20703B
:102200006C65617365207573652071756F74657396
:102210000D0A0000546F6F206C6F6E67207374722C
:10222000696E672E20506C65617365206C696D69FD
:102230007420656E746572656420737472696E676C
:1022400020746F2025642063686172732E0D0A006C
:10225000DC040020A55A5AA5466C61736820636FA0
:10226000727275707465642C20706C656173652082
:102270006572726173652069742066697273742E69
:10228000000000004E6F7420656E6F7567682073E4
:1022900070616365202D20706C65617365206572C7
:1022A00061736520666C6173682066697273742E51
:1022B0000D0A000000005AA504E5014000E40140B9
:1022C0002DE9F05F17460E00814670D013B1F9B2C8
:1022D000FFF71EFE0024FEF799F88246006800E032
:1022E000641C315D415CC907FAD100253046FFF717
:1022F00025F9D9F80810001B4A7BD11B814228D34D
:1023000006EB040805E000BF18F805100A290CD0F8
:102310006D1C8542F8D33119D9F8100001F074FE14
:102320004846BDE8F05FFFF71FBDD9F8100001F087
:1023300078FE414600232A464846FFF727FB2C44F7
:102340004846641CFFF710FDF9B24846FFF7E0FD70
:10235000E1E78B46DAF8001006EB040818F80500F0
:102360000B5CDB0702D0AB460A2804D0E819904288
:1023700001D26D1CF2E7D9F8100001F052FE41467F
:1023800000235A464846FFF701FB5C44DAF8000098
:1023900000E0641C315D415CC907FAD14846FFF793
:1023A000E3FCF9B24846FFF7B3FD9EE7FFE7BDE85F
:1023B000F09F10B504460068FFF7C0F80146A0681A
:1023C000827C407B1144B1FBF0F200FB121008B19B
:1023D000002010BD012010BDFEB500260446009669
:1023E000019602968068E9B3D0E94D128A4271D015
:1023F000D0F8300100286DD02046FFF76CFCA068B3
:10240000D0F83851002D68D00023092269462846AB
:1024100002F08CFAA1689DF808500098C1F83801C4
:10242000A06800230922D0F83801694602F07EFA3C
:10243000A1689DF808200923D1F838011431521CF5
:1024400002F074FAA1689DF80800C874A1689DF8AC
:10245000080088749DF80800A84202D22046FEF7C2
:10246000A7FD00E00BE0A3682BA20821204614334F
:1024700001F074F82046FFF758FC60BB42E0D0F84A
:102480003801002846D02046FFF725FCA06800232D
:102490000922D0F83801694602F048FAA06801998B
:1024A000C0F83811A0680029857CB9D19430FFF7B5
:1024B00045F80028A06805D000F194011430FEF71B
:1024C0003EF800E00675A0681430FFF737F88DF885
:1024D0000800B7E71EE01AE0FFE71430FFF72EF818
:1024E00010F0FF05A068D0F83011C0F83811A068CE
:1024F00005D000F114019430FEF721F890E780F840
:1025000094608DE72046FFF754FF002802D0204654
:10251000FFF72AFCFEBD000025730000FEB50D4646
:10252000816804460026D1F8300138B3002309221F
:10253000694602F0FBF90195A06800230922D0F852
:102540003001694602F0F8F90196A068D0F8301120
:102550000091807C8DF80800A068C0F830510023FD
:1025600009226946284602F0E7F9A16809232846AE
:102570008A7C1431521C02F0DFF9FEBDC1F83051E3
:10258000A068C0F8345100960196A068807C8DF850
:102590000800E4E7FEB504468068D0F83461002EF8
:1025A00028D0002309226946304602F0BFF9A1680D
:1025B00001980025C1F83401009501952B460922A8
:1025C00069463046029502F0B7F9304602F07BF9D1
:1025D000A168D1F8340170B100230922694602F0E4
:1025E000A5F90095A06800230922D0F834016946B6
:1025F00002F0A2F9FEBDC1F83051FEBDFEB50446A1
:1026000080681430FEF79AFF10F0FF05A0684FF0C5
:102610000006C0F8386133D0A068D0F83001E0B1CE
:1026200000230922694602F081F99DF80820AA4298
:1026300013D1A068092300F19401D0F83001521C95
:1026400002F074F9A06800F194011430FDF769FFFD
:102650000028A06880F8946012D000260A35294628
:10266000606902F000F90100204604D003B0BDE823
:10267000F040FFF753BFFFF78DFF761C082EEED317
:10268000FEBD00002DE9FC5F0E008346DDE90C472E
:10269000C6F1000098469246814600D408460125BE
:1026A00003E000BF90FBFAF06D1C5045FADAA84534
:1026B00000D9454624B1002E01DB780700D5641E01
:1026C000B80702D5B8F1000F0AD0F80708D13CB11D
:1026D000A54205D220215846641EFEF709FBF6E705
:1026E000002E02DA4E462D2102E0780703D52B2179
:1026F0005846FEF7FDFA07F0030002280BD1B8F1A7
:10270000000F08D13CB1A54205D230215846641EC5
:10271000FEF7EEFAF6E7CDE900474346524631466A
:10272000584602F057FFBDE8FC9F000070B50E460A
:102730000446007918494FF4A27501EB4010017F5F
:102740002068A1B14FF4887102F018FB4FF490712A
:10275000206802F013FB4FF49271206802F00EFB28
:102760002946206802F00AFB0C49206809E04FF472
:102770008E7102F0F2FA2946206802F0EEFA08495A
:102780002068C0F80413206801F02BFA3146BDE838
:10279000704001F00ABA000000050020100302009A
:1027A000800002000268134602E08A4204D01268E8
:1027B000002AFAD10B600160704700002DE9F04754
:1027C000394E002780463D46DFF8E090D6F804A059
:1027D00057E003D00446D0F81C8035E099F800207B
:1027E00002EB4201521CD2B289F8002009EBC10170
:1027F00099F80230091D9A4201D189F800504868C1
:102800000A780446012A12D0022A02D0032A3BD1B8
:1028100008E002F0F9FC00B10127257434E00574EA
:10282000C06900E070680028F9D170602CE0207C5D
:1028300050BB88686060C868A0600869E06048694B
:10284000A061F07800B165606268B168184B501AF9
:1028500020F07F40984202D2A168084406E0881A1E
:10286000A16820F07F40814202D9081A206000E070
:10287000256065600120A56020742046E56102F0B6
:10288000A5FCB8F10000A4D199F8001099F8010056
:102890008142A3D117B97168514502D00120BDE82A
:1028A000F0870020FBE7000040000020200500200A
:1028B000FFFF7F001CB5012905D0816891F83D110B
:1028C000C1F3400131B102B00022BDE81040114611
:1028D00000F06CBE536804A1CDE90013136808A290
:1028E000022100F03BFE1CBD20756E6B6E6F776E93
:1028F00020706172616D657465723A20000000009D
:1029000025733A257325730D0A0000002DE9F74F52
:1029100082B0154602980F004FF00006C068007A9A
:10292000009058D0072248A12868FDF711FE78B121
:10293000082247A12868FDF70BFE002830D02B683D
:1029400045A2029805B00221BDE8F04F00F006BE96
:10295000012F02D0022F08D008E0029805B044A24F
:10296000BDE8F04F022100F0F9BD0126DFF8188123
:10297000002400BF58F824100A226868FDF7E8FD1B
:1029800010B1641C052CF5D3052C06D004F0FF090A
:102990000224002E54D0002419E03CA26B68D0E73A
:1029A000012F4FF00009F6D0012449E04A462146A4
:1029B000009800F0CBFA48B90021204601F0D6FE7D
:1029C00003463AA20221029800F0C8FD641C01F0FF
:1029D0007BFEA042EAD805B0BDE8F08F4FF0000AB8
:1029E00055F824B001F070FE8046002609E0002171
:1029F000304601F0BBFE20225946FDF7A9FD90B1FB
:102A0000761C4645F3D3464506D155F8243030A20E
:102A10000221029800F0A2FD4A465146009800F0BB
:102A200095FA10B10BE0B246EDE70021504601F0F7
:102A30009DFE03461DA20221029800F08FFD641C3A
:102A4000BC42CBD3C7E70000656E61626C650000D5
:102A500064697361626C6500556E6B6E6F776E2092
:102A60006F7074696F6E3A2025730D0A00000000C4
:102A700042616420706172616D6574657220636F7C
:102A8000756E742E0D0A00005C000020556E6B6E92
:102A90006F776E207365766572697479206C6576E0
:102AA000656C3A2025730D0A000000004C657665C0
:102AB0006C20756E617661696C61626C6520666F11
:102AC00072206D6F64756C653A2025730D0A0000E5
:102AD000556E6B6E6F776E206D6F64756C653A2501
:102AE000730D0A00C068012141727047C06800215F
:102AF0004172704770B588B0214800F08BFA2048C9
:102B0000001F064600F086FA1E4DD5E9014105E09A
:102B1000C0F3891202EB9050641C044404EA0100E3
:102B200005EB8000C0688207F2D000200DF108029A
:102B300004EA010305EB8303641CDB6842F82030E0
:102B4000401C0228F4D3029800F00300012808D0AA
:102B500002280AD10298032101EB905004EB900463
:102B600003E00298C0F3831004443046002101AA18
:102B7000FDF705FC002800D06C6008B070BD0000B7
:102B8000040B0020EC0600202DE9FE4F814601F0E9
:102B90009BFD0746D9F80C0090F80880407A20B9D0
:102BA0001FA20221484600F0D9FC22A324A208213A
:102BB000484600F0D3FC2AA20821484600F0CEFC8B
:102BC000002429E001231A462146404601F086FDF3
:102BD0008246002301222146404601F07FFD054642
:102BE000032801D2064600E003260121204601F019
:102BF000BDFD0346AE4201D225A200E017A2254842
:102C000050F8261050F82A008DE8070022A208216B
:102C1000484600F0A3FC641CBC42D3D3BDE8FE8F41
:102C20004C6F6773206172652068616C7465642104
:102C30000D0A00006D6F64756C655F6E616D6500F7
:102C4000252D323473207C2063757272656E74207A
:102C50007C206275696C64696E200D0A00000000BA
:102C60002D2D2D2D2D2D2D2D2D2D2D2D2D2D2D2D94
:102C70002D2D2D2D2D2D2D2D2D2D2D2D2D2D2D2D84
:102C80002D2D2D2D2D2D2D2D2D2D0D0A000000006B
:102C90002A0000005C000020252D323473207C20A7
:102CA000252D3773207C20257325730D0A00000025
:102CB0008AB0002001F0C0FC08B1FDF7E5FEFDF789
:102CC00001FF08B1FDF7E0FE00F012FF002420B183
:102CD000852802D0FDF7D8FE02E0002000F02AFF90
:102CE000FFF74EF920221C4901A8FDF7E1FB062061
:102CF00001900820029003200090174801238DF8CE
:102D000018401A4601A91C3800F094FD08B1FDF7DF
:102D1000BBFE11481C3800F02BFE08B1FDF7B4FED5
:102D20000E4C606803280FD32088132545EA004025
:102D30000BA101F027FC6068032805D320880E4909
:102D400045EA004001F01EFC01F01EFB02481C3861
:102D500000F0E6FDF8E70000C45700002C01002059
:102D6000466C6173687772697465206578616D700F
:102D70006C652E0D0A000000285B00002DE9FF4F56
:102D80004FF0000881B014468B468146C246C0F819
:102D900000802578002D71D0FDF738FB0090006889
:102DA000405DC00702D004F801AB84E0D9F8000010
:102DB0008300401CC9F800004BF8034015E026785A
:102DC000002E78D0B8F1000F05D1222E10D0272E7A
:102DD0000ED05C2E1ED0B04514D12046FEF7AEFBBF
:102DE0000246611C2046FDF763FB4FF00008E6E752
:102DF0002046FEF7A3FB0246611C2046FDF758FB68
:102E0000B046DCE7B8F1000F50D05C2E61D160789D
:102E1000404508D12046FEF791FB0246611C204642
:102E2000FDF746FB55E030281CD100270225605DE8
:102E3000A0F13001072906D86D1C41EAC701EDB2A7
:102E4000CFB2052DF3D3022D0CD92046FEF776FB29
:102E5000421B61192046491E921CFDF729FB04F80C
:102E6000017BACE778281ED100270225605DA0F128
:102E70003001092903D841EA07100DE021E0A0F153
:102E80006101052901D8573804E0A0F14101052965
:102E900007D8373840EA07106D1CEDB2C7B2042DD1
:102EA000E4D3022DD1D8B8F1000F12D100980068F8
:102EB000805DC0070DD0D9F8001004988142FFF45E
:102EC00068AFD9F8002040464BF822A005B0BDE815
:102ED000F08F641C73E72DE9F047C7880446181D7E
:102EE00016468946B0FBF7F1B0FBF7F207FB12007C
:102EF0009A193A44D21CB2FBF7F2DDF820A001E0A7
:102F00002468491E0029FBD13D1A8846B54216D8CF
:102F100018E0BAF1000F05D0211809EB08002A4685
:102F2000091D04E0204409EB08012A46001DFDF7B5
:102F3000BFFA00202468761BA844B74201D9354661
:102F400000E03D46002EE4D1BDE8F08770B51446A0
:102F500000230D4606461A4601F0C0FB844201D903
:102F6000002070BD22462946304601F0DDFB0120DD
:102F700070BD000030B5024669B101F0A5FB00212B
:102F8000084C0BE001EB410304EB830315685B88FD
:102F9000AB4202D11160002030BD491C8142F1D307
:102FA000052030BDF000002010B50C460021E16086
:102FB00061600349A160012101F0D8FB206010BDD0
:102FC000045A000070B58468006804F10805FEF733
:102FD000B5FAC1B2A971E07C6A790844B0FBF2F39A
:102FE00002FB13035B1C2B70E07C0844B0FBF2F384
:102FF0005B1CAB70A07C0844B0FBF2F35B1CEB7075
:10300000A07C0844B0FBF2F102FB1101491C69707D
:10301000284670BD08B501216A46FDF7A3F900985E
:1030200008BD08B56A46FDF776F908BD70B50446D7
:1030300000252846FDF7C0FD2168626808689042B7
:103040000ED9401E08600178238AE26801FB03253F
:10305000227A2168101AC0B20A79824200D208711D
:103060000020FDF7ABFD284670BD70B505460C4647
:103070000020FDF7A1FDE868298A201AB0FBF1F1D4
:103080002A681068431C13600170BDE8704000207E
:10309000FDF794BD10B530B1017A42680368891A12
:1030A000C9B21A6006E00E2010BD03681A68541CED
:1030B0001C601170491EC9B2F7D20068002101716D
:1030C000084610BD70B51546826892F83D41C4F3BC
:1030D000400424B11A46294600F068FA06E039B1E6
:1030E000516804A20B68022100F038FA012070BD7B
:1030F000002070BD25733A206261642070617261A6
:103100006D6574657220636F756E740D0A00000042
:1031100010B5044602290CD1A06890F83D01C0F317
:10312000400030B120460022BDE81040114600F0BA
:103130003DBA064A06A1206900F066FF034A2069ED
:10314000BDE81040093202A100F05EBF5C580000EB
:10315000257300001CB5012905D002290BD014D914
:103160004FF0010112E002B04FF00002BDE8104044
:10317000114600F01BBA53680849CDE900131368E3
:1031800007A2022100F0EAF91CBD002102B00023D1
:10319000BDE810401A46FFF795BF000070580000C8
:1031A00025733A257325730D0A0000003EB50446C9
:1031B000012901D0012100E0002100231A46FFF778
:1031C00081FF002818D1E068C06801F048FCC0B257
:1031D000642110FB01F2E168C9688968B2FBF1F271
:1031E000D2B20092CDE90101A06804A20821D0F872
:1031F0002C31204600F0B2F93EBD00004C6F7374D4
:10320000204C4F47733A2025750D0A4D6178204CAC
:103210004F47207175657565207574696C697A61B1
:1032200074696F6E3A2025752525205B25752F253D
:10323000755D0D0A0000000010B50446012901D09B
:10324000012100E0002100231A46FFF73BFF002880
:1032500008D1A168C1F82C01E068C068BDE8104041
:1032600001F000BC10BD00007CB5144605460129E4
:1032700003D0022908D0012107E002B00022BDE8F6
:103280007040114600F092B9002100231A46FFF762
:1032900019FF002809D161680448CDE9000104A2A2
:1032A00002212846236800F059F97CBD70580000BF
:1032B00025733A257325730D0A00000010B50446E6
:1032C000012901D0012100E0002100231A46FFF767
:1032D000F9FE002806D1A06890F83D1121F0040104
:1032E00080F83D1110BD10B50446012901D001211F
:1032F00000E0002100231A46FFF7E4FE002806D173
:10330000A06890F83D1141F0040180F83D1110BD16
:103310007CB514460D460646022901D9012100E07C
:10332000002100231A46FFF7CDFE002812D1022DFE
:1033300006D0B06890F83D0100070CD50AA30BE059
:1033400061680A48CDE9000109A2022130462368DC
:1033500000F004F97CBD09A302B03046BDE870401E
:1033600007A2082100F0FAB86F6E00007058000044
:1033700025733A257325730D0A0000006F666600F9
:103380004563686F207374617475733A2025730DFB
:103390000A00000010B50446012901D0012100E017
:1033A000002100231A46FFF78DFE00280BD1A168EB
:1033B00091F83D0120F0080081F83D01A16820F05E
:1033C000010081F83D0110BD10B50446012901D06E
:1033D000012100E0002100231A46FFF773FE0028B8
:1033E00006D1A06890F83D1141F0080180F83D1128
:1033F00010BD00007FB50446012901D0012100E085
:10340000002100231A46FFF75DFE002827D1A0689F
:103410000026D0F83451F5B101E0082E1BD200236C
:10342000092201A9284601F081FA9DF80C20A16823
:10343000092328469431521C01F078FAA0683346DB
:1034400094300090029D761C05A20821204600F0D1
:1034500085F8002DE1D1A168002081F894007FBD9E
:103460005B2533645D2025730D0A00007CB515468D
:103470000446012903D0022917D9012116E0A168C9
:1034800001F10C020D3101F02DFE00281ED0A168C3
:1034900050200FA24873A1681820087302B020467C
:1034A000BDE87040042100F059B8002100231A46FD
:1034B000FFF708FE002809D169681548CDE9000129
:1034C00014A2022120462B6800F048F87CBD0000C1
:1034D0006E6F20726573706F6E73652066726F6DAC
:1034E000207465726D696E616C2C20617373756DEB
:1034F00065642038307832342063686172732073D9
:10350000637265656E2073697A650D0A00000000BC
:103510007058000025733A257325730D0A000000CA
:1035200010B50446012901D0012100E0002100234B
:103530001A46FFF7C7FD00280AD1064A06A12069EE
:1035400000F062FDA16850204873A168182008733C
:1035500010BD00006A580000257300000FB438B594
:10356000044607A80090A06890F83D21520717D59F
:10357000C27B8A4214D0B0F80F50204602F0BAF84D
:103580006A462069069900F058FDE9B2204602F02B
:10359000B1F8290A204602F08FF838BC5DF814FB18
:1035A0006A462069069900F048FDF6E72DE9F04FDC
:1035B000804689B016460C468948FDF7BFFF054690
:1035C00087485438FDF7BAFF281A1FFA80F9844853
:1035D00084A241380090D8F80800082140680368A8
:1035E0004046FFF7BBFFD8F8080040680068FDF7C9
:1035F000A5FF05467A484138FDF7A0FF284482B26E
:10360000D8F808000023406841684046FEF758FE9D
:1036100076A208214046FFF7A1FF16B30CB30025A0
:103620001DE000BF05EB450A04EB8A0BDBF8040044
:10363000FDF784FF074654F82A00FDF77FFF39188D
:1036400049450BD9DBF80400FDF778FF074654F82D
:103650002A00FDF773FF38441FFA80F96D1CB5424C
:10366000E0D35F485438FDF769FF4844801C1FFAD7
:1036700080F95B4800904B465FA208214046FFF767
:103680006DFF09F1030087B2079000233A465CA161
:103690004046FEF715FE002C52D000254EE000BF3C
:1036A00005EB450A04EB8A0B54F82A00DBF80430DA
:1036B0006BB350B34A4957A25439CDE900100821E1
:1036C0004046FFF74BFF09F102000090DBF80400D1
:1036D000FDF734FF074654F82A00FDF72FFF074493
:1036E0003F485438FDF72AFF39180098401A801EC9
:1036F000C1B24046FEF70CFC3A224949D8F8100006
:1037000000F082FC0098401C0AE0009301E040B108
:1037100000904B4638A208214046FFF71FFF07984C
:1037200087B2DBF8081029B100233A464046FEF77D
:10373000C7FD02E04046FEF717FB6D1CB542AFD354
:10374000D8F8080040688068002845D081460020ED
:103750000446064603AD02903246761C02AB0121B8
:1037600048460095FEF750F9029850B10068FDF701
:10377000E5FEA042F0D902980068FDF7DFFE84B2B2
:10378000EAE7012E28D027A208214046FFF7E6FEEF
:1037900000273A467F1C02AB012148460095FEF700
:1037A00033F90298002817D0A11C8EB2006800904F
:1037B000334611A208214046FFF7D0FE0298F61CBE
:1037C000B2B2416821B100234046FEF779FDE0E73F
:1037D0004046FEF7C9FADCE709B0BDE8F08F00000B
:1037E0009958000025732573000000004F7074691C
:1037F0006F6E733A0D0A00002020252D2A733A00BF
:1038000053686F7720636F6D6D616E642068656CBF
:10381000702E000020202573257325730000000002
:10382000AC0F0000537562636F6D6D616E64733A27
:103830000D0A00002DE9F0411E460546069F00F0E6
:1038400011F804000CD15EB13946E86800F010FDB3
:10385000002802DA0420BDE8F081E8680121417205
:103860002046F8E770B50446C06815462346446113
:10387000606802681668234AB047002840D1606932
:1038800001F041F800283BD1A168C1F83001A168DE
:10389000C1F834014FF4A071A068FCF730FEA068B5
:1038A000012180F83C11A268184B92F83D0165F3A4
:1038B000820082F83D01A26840F0080082F83D01D4
:1038C000A068134A0170A16850204873A1681820AD
:1038D000087300210C48D21A07E000BF03EBC104B3
:1038E0006468246840F82140491CB1EBD20FF5D33D
:1038F000072A04D9D108074B0422FCF78BFD0020CE
:1039000070BD000055180000D0000020F8600000D5
:1039100038610000DD5000000023FEF737B80000DA
:1039200010B5044680680078D8B1012819D0022863
:1039300017D12046FDF719FD00212046FDF756FC62
:1039400078B10AA2032120462368FFF707FEA36887
:1039500006A2082120461433FFF700FE2046FEF79A
:10396000A1FA2069BDE8104000F05BBB25730000A0
:1039700070B5044680680078012801D0082070BD29
:10398000606801688A680021904705000FD108210E
:10399000204601F0AFFE0121204601F08DFE05A179
:1039A000206900F031FB02212046FDF7B3FD2846D7
:1039B00070BD00000D0A0A0000F180400068002878
:1039C00000D00120704708B500F18040002101605F
:1039D0000068009008BD000000283ED01F49204A22
:1039E000096800BF00BF00BF00BF00BF00BF00BF2D
:1039F00000BF91422FD000BF00BF00BF00BF00BF7B
:103A000000BF00BF00BF00BF00BF00BF00BF00BFBE
:103A100000BF00BF00BF00BF00BF00BF00BF00BFAE
:103A200000BF00BF00BF00BF00BF00BF00BF00BF9E
:103A300000BF00BF00BF00BF00BF00BF00BF00BF8E
:103A400000BF00BF00BF00BF00BF00BF00BF00BF7E
:103A500000BF00BF00BF0138C3D17047CC000020B9
:103A60000024F40000283ED01F49204A096800BF06
:103A700000BF00BF00BF00BF00BF00BF00BF91423A
:103A80002FD000BF00BF00BF00BF00BF00BF00BFFE
:103A900000BF00BF00BF00BF00BF00BF00BF00BF2E
:103AA00000BF00BF00BF00BF00BF00BF00BF00BF1E
:103AB00000BF00BF00BF00BF00BF00BF00BF00BF0E
:103AC00000BF00BF00BF00BF00BF00BF00BF00BFFE
:103AD00000BF00BF00BF00BF00BF00BF00BF00BFEE
:103AE00000BF0138C3D17047CC0000200024F4008F
:103AF00070B50E4C0025207808B1852513E0002113
:103B0000A16061602161E1604FF0E020D0F8000128
:103B1000012610F0010F03D10721002000F045F825
:103B2000034806602670284670BD0000EC040020A3
:103B30001805004070B5154D0446A87838B114B189
:103B40006168012088470020FDF736F815E0002065
:103B5000FDF732F824B10D4821461030FEF722FE61
:103B6000E86850B94FF48270FFF72DFF022041073B
:103B7000C1F80403064901200860E868401CE860B9
:103B8000BDE870400020FDF719B80000EC040020EB
:103B90000800004000F01F02012191404009800010
:103BA00000F1E020C0F8801170474907090E002895
:103BB00006DA00F00F0202F1E02282F8141D03E0A1
:103BC00000F1E02282F8001400F01F020121914070
:103BD0004009800000F1E020C0F88012C0F8001118
:103BE0007047000B40B270470121B1EB507F01D10B
:103BF00001207047002070472DE9F041054600790B
:103C0000164F904607EB40140E46E07E10B1082098
:103C1000BDE8F081707F20772846FCF7E3FF5FEA7C
:103C2000080060603169216003D0317F2846FEF7CB
:103C30007DFD287907EB4010007F0028286801D01F
:103C4000082100E00421C0F800150020E07520766E
:103C5000A0750121E176A076DAE7000000050020DA
:103C60002DE9F04105460079284E904606EB4014B8
:103C70000F46207F18B10846FFF7B6FF80B1626893
:103C800000234FF404704FF4017172B12A7906EBEE
:103C90004212127F002A2A6805D0C2F8080304E005
:103CA0001020BDE8F081C2F80813E27DB2B1227E97
:103CB0007AB162685AB12A7906EB4212127F1AB1C0
:103CC0002968C1F8040302E02868C0F80413112031
:103CD000E7E72761012384F8188005E084F817805E
:103CE0000020E760607620762879424606EB401097
:103CF0003946007F0028284603D0BDE8F04100F097
:103D00006FB8BDE8F04100F017B8000000050020D2
:103D10000179084A02EB411101220B7F01680BB1C6
:103D20004A6070474FF40173C1F80833006842607D
:103D300070470000000500202DE9F05F044600797F
:103D4000264901EB4015A87E184302D1204601F018
:103D50003AF968680028206806D04FF40171C0F86D
:103D600004130020BDE8F09F4FF4A276314600F026
:103D7000F4FFB1464FF4927A4FF4847B51462068A9
:103D800000F0E6FF06465946206800F0E1FF804655
:103D90004946206800F0DCFF074648EA0700304348
:103DA000ECD056EA070007D12946206801F0E6F872
:103DB000E87D697E8842E1D80020E8750EB10320D5
:103DC000D0E70FB10F20CDE7A97E0120002921689F
:103DD00001D00860C5E74860C3E700000005002087
:103DE0002DE9F05F894604464FF488759A4690465F
:103DF00000260068294600F0C1FF4FF4A27739463B
:103E0000206800F0BBFF2068C0F83495C0F8388502
:103E10002068BAF1000F14D0D0F8001241F0200150
:103E2000C0F800122179DFF8648008EB4110406887
:103E300050B120684FF40471C0F804133046BDE857
:103E4000F09F01210160EDE7AA46B9464FF4927B4D
:103E50005146206800F08DFF07464946206800F073
:103E600088FF05465946206800F083FF014647EA6F
:103E700005000843ECD02379002208EB4310C275FB
:103E800001B10326002DD9D00F26D7E70005002069
:103E90002DE9F047054600793F4E904606EB401469
:103EA0000F46207F18B10846FFF79EFE30B1284626
:103EB00000F074F820B11120BDE8F0871020FBE776
:103EC00084F81680A7600027A78228794FF00108A0
:103ED00006EB40143E46207F0028286825D04FF48A
:103EE0009079494600F04AFF4FF4AC7A5146286871
:103EF00000F044FF2868A17DA268C0F84425C0F8FE
:103F000048152868C0F808806068F0B949462868F4
:103F100000F02FFF80465146286800F02AFF58EA3B
:103F20000001F3D058BBA7750FE04FF48E7A5146CD
:103F300000F013FF2868C0F808802146286801F0C7
:103F4000EDF961684FF4807089B13046B4E75146AD
:103F5000286800F0FDFE10B9A08A4845F7D1A08A74
:103F6000484505D02146286801F0D8F900E081468F
:103F7000A08AA17D8842EAD3A08A484501D10F26B4
:103F8000D1E75146286800F0E3FE0028F9D0286800
:103F9000C0F80C80C7E70000000500200079044944
:103FA00001EB4010807D002800D001207047000008
:103FB0000005002070B5044600791149002601EB88
:103FC000401520682A7FC0F80065686888B12079AC
:103FD00001EB4010007F0028206801D0094901E072
:103FE00008498C39C0F808132068FFF7FAFDFFF77D
:103FF000D1FD204600F010FFEE766E6070BD00002F
:1040000000050020100302000FB408B50399002931
:1040100004D004AA00926A4600F00FF801B05DF8DF
:1040200014FB10B582680446002A05D0D4E90403C5
:10403000216898470020A06010BD2DE9FC479146FB
:104040000C00804676D014F8011B39B125290ED01A
:104050004046FCF74DFE20780028F4D198F80C007B
:10406000002867D04046BDE8FC47FFF7DABF0020D4
:10407000012221782B291BD02D2902D0302908D1EB
:1040800002E040F0010001E040F00200641C002A60
:10409000EFD100252A290ED02178A1F130020A2A79
:1040A00011D205EB850201EB4205641C303DF1E7BE
:1040B00040F00400EAE7D9F800100B1DC9F8003001
:1040C0000968641C0D44217800232E290BD114F8B3
:1040D000011FA1F130020A2A05D203EB830201EB92
:1040E0004203303BF3E76C290DD068290BD06929D6
:1040F00021D00BDC252918D0582931D063290ED0C6
:10410000642915D117E014F8011FECE7702969D074
:10411000732932D075291BD0782909D120E0D9F82C
:104120000000011DC9F8001001784046FCF7E0FDD1
:10413000641C90E76CE0D9F800100A1DC9F8002053
:104140000968CDE900500A224046FEF79BFAEFE7E6
:10415000D9F800100A1DC9F8002009680A2206E0F3
:10416000D9F800100A1DC9F8002009681022CDE90D
:104170000050404601F02EFADAE7D9F80010002787
:104180000A1DC9F800200E68C00705D112E040469C
:10419000761C7F1CFCF7ACFD31780029F7D104E0D8
:1041A000202140466D1EFCF7A3FDBD42C0D9002D65
:1041B000F6D1BDE74EB13046FCF7ACF9074604E056
:1041C000202140466D1EFCF793FDBD4206D9002D0F
:1041D000F6D103E04046761CFCF78AFD31780029D1
:1041E000F8D1A5E7D9F80000011DC9F8001005684D
:1041F00030214046FCF77CFD78214046FCF778FDF5
:1042000008200021CDE90001034610222946B0E72D
:10421000BDE8FC8770B541EA4201DDE904564FF084
:10422000A04441EA830141EA052104EB800041EA10
:104230000641C0F8001770BD1CB5002100910B4667
:1042400001220191FFF7E6FF1CBD1CB500220B46C1
:10425000009211460192FFF7DDFF1CBD1CB5002145
:1042600000910B46012201911146FFF7D3FF1CBDBF
:104270002DE9F0410E461D4904460025D1F81024D1
:10428000104609E0037AAB4205D16D1C0A2DF7DB1D
:104290004FF0FF3527E040680028F3D1681C22D09A
:1042A0002572D1F8100430B140686060D1F8100474
:1042B0004460002713E00020C1F810446060F8E774
:1042C00000231A463946284600F008FAB04200D3C7
:1042D00030460246207A394600F026FA7F1C00F06C
:1042E000F3F9B842ECD82846BDE8F081EC0600208E
:1042F000704710B54469606801688A680121904779
:1043000018B10420A168087010BD0320FAE72DE958
:10431000F34146690446B068007804281ED003289B
:1043200007D0002501A9E06800F0A7FB85F0010790
:1043300009E00125F6E739463046FCF757FF01A9A9
:10434000E06800F09AFB0028F5D1019800F0D4FA5B
:10435000002D03D000213046FCF748FFBDE8FC816A
:10436000084A012902EBC00005D0022903D0032925
:1043700003D0042903D000207047007970474079AA
:1043800070470000386100002DE9F04F8DB0FCF758
:10439000BFFC18B100200DB0BDE8F08F76480021B9
:1043A000C0F81814BFF34F8FD0E9014504EA0501A6
:1043B00000EB81014FF000090AE000BFC1F3891250
:1043C00002EB9151641C0C4404EA050100EB8101ED
:1043D000C9688A07F2D0002103AA804604EA0500D2
:1043E00008EB8000641CC06842F82100491C0229C7
:1043F000F4D3039800F00300022802D001284FD024
:10440000B5E003985022810D8B46B2EB905F00D847
:1044100050210F4667F39F50C0F3C20A0390083142
:10442000564800F020FA060079D000F065FA4B46B5
:10443000082203A9304600F07FFA09F1080004EAD7
:1044400005010190681A8000001D874221D94A4D5C
:104450000C3530B1C2B208EB8101381A91460C31EB
:1044600004E02946FAB2002591462846C7B23046F4
:10447000019B00F061FA019800EB090325B13A466F
:104480002946304600F058FA0BF1030004EB900483
:104490003CE008EB81013A4630460C31019BF1E7E4
:1044A0000398C0F38310062800D30620039960F315
:1044B0008911C1F38310C1F3C20A801C03918100EA
:1044C0002E4800F0D0F9060051D000F015FA4B4606
:1044D000082203A9304600F02FFA09F10809002745
:1044E0000EE000BF04EA050008EB80014B46042201
:1044F00030460C31641C00F01FFA09F104097F1CDE
:104500000398C0F38310B842ECD846B1D8F81054E1
:10451000D8F818044746D8B1304600F0F6F926E03E
:10452000687A012813D10498154A00EB400002EB89
:104530008000297A806801EB4101C84000F0070043
:10454000504504D32A6828463146126890476D6862
:10455000002DE5D1304600F0D8F90020FCF72CFB07
:10456000D7F8180400B97C600020FCF727FBFCF7A3
:10457000CFFB80F001000EE7EC0600200C5A000093
:10458000F000002000231A4600F05EBD2DE9F04740
:104590000E4680461C46924608293ED894F80C9058
:1045A000002020731946104600F090FC0025B5420B
:1045B00006D218F805201AA12046FFF725FD03E0D2
:1045C00019A12046FFF720FD6D1C082DEFD317A180
:1045D0002046FFF719FD0025B54210D218F80570E6
:1045E000FBF714FF0068C05D10F03E0F01D03A46A3
:1045F00000E02E220EA12046FFF706FD03E00DA1EC
:104600002046FFF701FD6D1C082DE5D30122214650
:10461000504600F03DFC84F80C90BDE8F0870000A7
:104620002025303278000000202020007C0000008F
:1046300025630000200000002DE9F0471D484FF0E1
:104640000009FF21C0F80090C0E90191C0F818945A
:10465000C0F8149480F81C94174800F054F900280E
:1046600026D11649DFF85880A1EB0800C7080024BE
:104670001BE0002635460CE0AC4209D058F8340067
:1046800058F835101422FBF763FF002800DD761C74
:104690006D1CBD42F0D30B4904EB440001EB8000DC
:1046A000C0F8049004804680641CBC42E1D3002022
:1046B000BDE8F087EC0600200C5A0000686100009D
:1046C00038610000F000002002480349401AC00889
:1046D0007047000068610000386100007FB5054642
:1046E0001146002401A87BB1FEF744FCA0B9019853
:1046F0000B4900EB400001EB800005EB45018068B1
:10470000C84000F0070407E0FEF734FC20B9054874
:10471000019900EBC100847904B0204670BD00000F
:10472000F00000203861000030B50F4B01EB410173
:1047300003EB810400EB40000723A56803FA00F1B6
:104740008D4302F007018140294300252A46A160DC
:1047500003FA02F00840D040A84200D90546D21C16
:104760000A2AF5D3656030BDF000002013B5684615
:10477000FEF700FC08B100201CBD0248009950F86B
:1047800031001CBD3861000070B508480125D0F823
:10479000104480F81C5405E0657221682046496881
:1047A00088476468002CF7D170BD0000EC0600203B
:1047B0002DE9FF4781460C9D00200C462F7B287376
:1047C000984616462946184600F080FB072E42D22E
:1047D000DFE806F004090F161F2A3600494628466E
:1047E000FFF712FC37E0494628462268FFF70CFC29
:1047F00031E0D4E9002349462846FFF705FC2AE0CA
:10480000A0680090D4E9002349462846FFF7FCFB46
:1048100021E0D4E90201CDE90001D4E900234946B1
:104820002846FFF7F1FB16E004F1080007C88DE801
:104830000700D4E9002349462846FFF7E5FB0AE0D4
:1048400004F108000FC88DE80F00D4E900234946A1
:104850002846FFF7D9FB00222946404600F018FB06
:104860002F73BDE8FF872DE9F041058A80462D1F93
:104870004819C01CB0FBF5F0C6B24046FEF7D6FBA7
:10488000041E19D00020207101206071E5800027EE
:104890002546761EC4F800800BE04046FEF7C6FBB6
:1048A00060B16179491C6171286005467F1CC0F8C0
:1048B0000080B742F1D32046BDE8F081204600F0E9
:1048C00002F80020F8E72DE9F041457901466B1E1A
:1048D000002201E00968521C9A42FBD30F6801468E
:1048E000002605E038460C68FEF7BFFB2146761C23
:1048F000AE42F7D3BDE8F08108B501216A46001D3C
:10490000FBF7BBFC08BDFEF7C5BB38B50446001D70
:1049100001216A46FBF7BEFC009810F0FF0F04D19E
:104920002046BDE83840FFF7CEBF38BD38B501247A
:104930000094FEF7D0FA38BD38B500240094FEF795
:10494000CAFA38BD094902220A60BFF36F8FBFF36C
:104950004F8F0A1D106006480268002AFCD0002014
:104960000860BFF36F8FBFF34F8F704704E50140BE
:1049700000E40140094A01231360BFF36F8FBFF3C6
:104980004F8F0160064801680029FCD000201060AC
:10499000BFF36F8FBFF34F8F7047000004E50140F6
:1049A00000E4014070472DE9F0410446002790469D
:1049B0000E463846FCF700F9204600F038F830B1D2
:1049C00005270020FCF7FAF83846BDE8F08120689A
:1049D0000568B8F1000F05D10168204600F046F8DF
:1049E00021680860E268012A0CD0022A0ED0042A4D
:1049F00011D06068082A13D005FB02013046FBF78E
:104A000057FDDEE76068405D3070DAE7606830F8D7
:104A100015003080D5E7606850F825003060D0E799
:104A200000EBC500D0E90010C6E90010C9E7016835
:104A300008684968884201D101207047002070470A
:104A400001680A6849688068884201D9491C00E009
:104A50000021914201D10120704700207047006879
:104A600080687047006800218160704780688842D4
:104A700001D9481C7047002070472DE9F0410446D9
:104A80004FF000080E464046FCF796F82046FFF728
:104A9000D7FF070009D0207C38B14FF00408002070
:104AA000FCF78CF84046BDE8F08120684568416815
:104AB0002046FFF7DBFF2168486037B120680168B6
:104AC0002046FFF7D3FF21680860E268012A14D06E
:104AD000022A16D0042A19D0082A1CD06068314650
:104AE00005FB0200FBF7E4FC204600F01DFA2168FC
:104AF0008A688242D3D28860D1E7616830784855AD
:104B0000F2E76168308821F81500EDE761683068E8
:104B100041F82500E8E7D6E90001626802EBC5022A
:104B2000C2E90001E0E72DE9F04115460E460446D2
:104B300043B10121A068FEF774FAC00702D011202A
:104B4000BDE8F081A0686168D0E90272BB1A481C18
:104B5000834202D10020286016E007EA010302EA3E
:104B60000100834202D3C91A491C00E0D11B286806
:104B7000884200D201462960206818443060A0684D
:104B80002A688168114481600020D9E72DE9F0414D
:104B90000546174688460020FCF70EF8A8684168CD
:104BA000C0680C1A3868A04200D204463C60AA686B
:104BB0006968D068526808400A40824201D9161AD2
:104BC00001E00E1A761CB44208D92968324608441E
:104BD0004146FBF76DFCA41B0020B0442968224627
:104BE00001444046FBF764FCA8683A68C168114478
:104BF000C1600020FBF7E2FF0020BDE8F0812DE955
:104C0000F0410546174688460020FBF7D5FFA86807
:104C10003C684168C068081A6968081A401C8442E8
:104C200000D304463C60A8686968406808400E1AD2
:104C3000761CB44208D92968324608444146FBF73D
:104C400037FCA41B0020B044296822460844414692
:104C5000FBF72EFCA8683A684168114441600020C7
:104C6000FBF7ACFF0020BDE8F08138B582685468DE
:104C7000D368E41AA14201D9042038BD1944D16097
:104C80008268116180686FF002016A46FBF729FBB8
:104C9000002038BDF8B514460E4605463BB102214A
:104CA000A868FEF7BEF9800701D51120F8BDA968F4
:104CB0000B694868C11A09D06A68134010409842CD
:104CC0000DD927688F420AD9216010E000202060AA
:104CD0006FF002016A46A868FBF703FB0FE09842F9
:104CE00005D8D01A2168401C814200D9206028686C
:104CF00018443060A86822680169114401610020ED
:104D0000F8BD8268002151608268D16082681161BB
:104D10008268916080680160704738B58268456834
:104D20005468D368E31AEB1A5B1C994201D904203A
:104D300038BD2144516082689160806801216A46D3
:104D4000FBF7F6FAC00701D0002038BD082038BDB7
:104D50004058002800D00120704708B5002242507A
:104D60004058009008BDD0F80403084000D001204E
:104D700070474058002800D00120704708B5002235
:104D800042504058009008BD2DE9F84317460C00EA
:104D900005462BD0DFF870804646D8F80000FCF7B7
:104DA000CDFB3844C7B23068FCF7C8FBA968497B23
:104DB000081AB0FBF7F0C6B22046FCF7BFFBA968A3
:104DC000381AC7B2487CB0FBF6F206FB1202401C50
:104DD000487482B123460DA207212846FEF7BEFB88
:104DE00039462846BDE8F843FDF792B8A968002087
:104DF0004874BDE8F883009405A207212846D8F836
:104E00000030FEF7ABFBEBE75800002025730000F5
:104E10000D0A25732573000070B5034600791B4900
:104E200001EB40101968027F4FF0FF30002AD1F8E3
:104E30000C25D1F81465D1F80855D1F8104504D0E7
:104E4000C1F80C05C1F8140503E0C1F81405C1F858
:104E50000C051968C1F80805C1F81005501C02D0EE
:104E60001046FFF7E9F9701C02D03046FFF7E4F96D
:104E7000601C02D02046FFF7DFF9681C04D02846EA
:104E8000BDE87040FFF7D8B970BD000000050020F4
:104E900010B50C46C17949B11AB109A12046FFF7F6
:104EA000B3F82046BDE81040FFF7BBB8007A0028F1
:104EB000F3D0044804A102682046FFF7A5F8ECE708
:104EC0000D0A0000A80000202573000070B50446FC
:104ED000C0790D4600281CD1207A50B1A179A08854
:104EE000FFF73EFA0B4951F820200BA12846FFF7A7
:104EF0008BF8A0880021FFF739FC03460549A0790B
:104F0000143951F820202846BDE8704003A1FFF76E
:104F10007BB870BDA8000020257300003C25733EBF
:104F20002025733A2000000001680A684968914210
:104F300001D3881A70478068801A0844401C704763
:104F400070B5012670044FF0E0210025C1F8800102
:104F5000084C4010C4F84803C4F8080366602F20CA
:104F6000FEF73AFDA660044C2F20A560FEF734FD45
:104F7000A57070BD001001404000002070B50546CE
:104F8000C87D0C4600284FF4847128460AD0FFF7EC
:104F9000E4FED5F81805627EE1688854607E401C06
:104FA000607670BDFFF7D9FED5F8180570BD1FB546
:104FB00001238DF800308DF808100192D0E900121D
:104FC000684690471FBD10B5044600684FF49271C3
:104FD000FFF7C3FE4FF484712068FFF7BEFE206820
:104FE0000121016010BD1CB50446FF200190012382
:104FF00001AA6946E068FFF796FD002810D10199E3
:1050000000290DD0CAB260690099FEF729FE002878
:1050100006D1A068224640F6CD410068FBF77CFD32
:105020001CBD00000022CA604A60054A8A6005284B
:1050300003D2044A52F8200000E0002008607047C4
:10504000045A0000700000202DE9F843224C8846E5
:10505000054691461F4669461846A668FBF71EFEA0
:1050600088B3009800EA060104EB810252F80C1F95
:1050700021F00301491C401C11605FEAC56C02D598
:1050800041F0040101E021F0040165F3C50167F37B
:10509000891168F39F21116000EA0602290C04EBD4
:1050A0008202401CD160009000200AE0009959F86B
:1050B000203001EA060204EB8202491CD360401C46
:1050C0000091B842F2D394F81C0401E0FFF75CF9B8
:1050D0000028FBD1BDE8F883EC06002009680068D1
:1050E000FBF71FBA2DE9F04115460E460446FCF7C2
:1050F00045FE78B9A068FA21077A90F80A80204620
:10510000FCF706FFFA212046FCF7B0FD2046FCF72D
:1051100035FE10B10620BDE8F081A068007A30703D
:10512000A068807A28703078C01BC1B22046FCF796
:105130000FFE2978A1EB0800C1B22046FCF7F4FE6F
:105140000020E8E74069FEF7E3BD00002DE9F84FD5
:105150001D4C00256846D4E901A6FCF7F1FE0027A6
:1051600038B30023009A61681CE0D1F800C00846FB
:10517000944503D9ACEB02020A6015E0A2EB0C02E5
:1051800063440760D0F80CC0C1698146BCF1000FD0
:1051900008D006EB030828F07F48C0E9018CC9F865
:1051A0001C5005460029E0D128466160FDF706FB4A
:1051B00003E02846FDF702FB10B15046FCF7B6FCB1
:1051C000E770BDE8F88F0000400000200D4B10B5DF
:1051D000596831B102680C68A24204D8A21A0A6068
:1051E000C161586010BD0B4603E00B46C969121B34
:1051F00021B10C689442F8D3A41A0C600260C1611A
:10520000D86110BD400000202DE9F041144E7768B0
:105210003D462C4603E0844204D02546E469002C38
:10522000F9D11BE0D4B1A5420BD1F869706040B947
:105230000C49012088600021B160F0702F20FEF73A
:10524000CBFB2168E069E86110B10268114401609C
:105250007068874202D00120BDE8F0810020FBE7A2
:105260004000002000100140F8B5064600240D461D
:105270002046FBF7A1FC684600F006FA68B105700D
:10528000084946609DF8000048700020FBF796FC36
:105290001420FBF7C0F92046F8BD04240020FBF7DA
:1052A0008DFCF8E7200500202DE9F041194D6C68D0
:1052B000002C2CD0184800270068A968B846401A6E
:1052C00020F07F462068B0420CD82146361A0744A9
:1052D000E469087C20B181F81080886949698847B1
:1052E000002CEFD129786878814206D1401CC0B2E9
:1052F0006870022801D185F80180064869780C3071
:1053000040F82170BDE8F0411420FBF784B9BDE8F6
:10531000F0810000400000200415014070B50C46EB
:1053200005464FF48E71FFF718FDA18AA068415C15
:10533000A08A401CA082C5F81C1570BD1FB50022B4
:105340008DF800208DF80810816801918275D0E9F0
:105350000012684690471FBD7CB5FF2605460096A3
:1053600000780C46B8B1012806D0022812D1297A5B
:10537000E068FFF7D2FC0AE0297AE068FFF7CDFC8D
:10538000287A20B16068D0E90021002090472046AB
:10539000FFF729FE7CBD297A2069FFF766FC00969D
:1053A00001236A4601A92069FFF774FC009820B127
:1053B000C2B260690199FEF76BFD6068D0E9002117
:1053C000012090477CBD2DE9FF470C4605464FF470
:1053D0000071FFF7C8FC01274FF40178002618B3CD
:1053E0004FF4927949462846FFF7B2FCE0B14946AE
:1053F0002846FFF7B2FCC5F80883A07E00B96F60AD
:1054000002208DF80000D5F88004C5F880040390D0
:10541000E07D8DF80800E0680190E6752676D4E915
:1054200000126846904727E004212846FFF79BFCBE
:1054300010B34FF484712846FFF78AFCE0B121468F
:105440002846FFF79BFDE07D617E884214D1207ED7
:1054500038B1617EE268E0752069E06026766676A4
:1054600007E0A07E00B96F60C5F80883E675617E2D
:10547000E2682046FFF79BFD4FF48E7841462846B0
:10548000FFF766FC88B1A08AA17D884204D221463C
:105490002846FFF743FF08E041462846FFF75DFC3A
:1054A000A17D11B12046FFF749FF4FF4A278414694
:1054B0002846FFF74DFC002812D041462846FFF74A
:1054C0004CFCA07E00B12F60E07D002808D0E6757E
:1054D000617EE26804B02046BDE8F047FFF767BD93
:1054E000BDE8FF872DE9FF410C464FF49277054652
:1054F0003946FFF73EFC0026C0B139462846FFF783
:105500003DFC02208DF80000D5F88004C5F8800429
:105510000390D5F83C058DF80800E0680190E67529
:105520002676D4E900126846904724E04FF4887745
:1055300039462846FFF71DFCE8B139462846FFF7F3
:105540001DFCD5F83C05C1B2E07D884213D1207E18
:1055500060B1E268D5F8000220F02000C5F8000232
:10556000207EE0752069E060267601E0E675E2685D
:105570002046FFF71CFD4FF4A27739462846FFF777
:10558000F8FB68B139462846FFF7F8FBE07D38B1F3
:10559000E675D5F83C05E268C1B22046FFF707FD85
:1055A0004FF4907631462846FFF7E3FB00280FD0F2
:1055B00031462846FFF7E2FBA07D002808D0D5F849
:1055C0004C0504B0C1B22046BDE8F041FFF7B6BEBD
:1055D000BDE8FF812DE9F05F8346DDE90A4A99467F
:1055E00090460D460846012703E000BFB0FBF8F0E7
:1055F0007F1C4045FAD2B94500D94F465FEACA70D0
:1056000012D18CB15FEA8A7002D5B9F1000F01D0D6
:10561000202607E0302605E031465846641EFBF799
:1056200067FB0CB1A742F7D35FF00106B9F1010F98
:1056300002D9A9F1010903E0B5FBF6F0404502D318
:1056400006FB08F6F2E7DFF83C9000BFB5FBF6F08A
:1056500000FB165519F800105846FBF749FBB6FB3E
:10566000F8F6002EF2D15FEACA7009D0002C07D0FC
:10567000A74205D220215846641EFBF739FBF5E707
:10568000BDE8F09FF45900000A494A788B78521C13
:10569000D2B2934200D100220B78934201D1002074
:1056A00070470270487800EB400001EBC000001D1D
:1056B00070470000200500201CB5002913D0826827
:1056C000127C8A420FD008A3D3E90023CDE900233E
:1056D00001F12F028DF803208268117400696A4677
:1056E00003A1FEF791FC1CBD1B5B34006D000000A4
:1056F000257300001CB5826899B1D27B8A420FD015
:105700000CA2D2E90032CDE9003201F12F028DF86E
:1057100005208268D17300696A4608A1FEF774FC0F
:105720001CBDD173006902B0054ABDE8104003A159
:10573000FEF76ABC1B5B313B33006D002573000034
:105740004C58000038010020580100203F000000A4
:1057500098010020AC0100200F000000BC010020D7
:105760000020004000000000E0590000D0010020AF
:10577000445700005457000048570000605700008D
:10578000500300203C03002004000000040000003F
:105790000100000038000020300000203800002008
:1057A0005C030020300000008C5B000068570000A4
:1057B000FC01002018000020000000209457000089
:1057C0000D000000FFFFFFFFFFFFFFFFFFFFFFFFD8
:1057D000FFFFFFFF00000000000000000000D601F6
:1057E0000701000000000000EC5700002C5C0000E6
:1057F000FC5B00000000000021200000245C000091
:105800000C5C00000000000035200000345C00004B
:105810009C5B000000000000ED2000000000000084
:10582000000000000000000000000000545C0000C8
:105830003C5C0000E4570000C91F00001B37001B40
:1058400038001B45002C20001B5B4A001B5B6D00D1
:10585000082008001B5B4B00202D20001B5B48002C
:105860001B5B366E001B5B324A001B5B3F336C00D8
:1058700020756E6B6E6F776E20706172616D6574EE
:1058800065723A20003A20636F6D6D616E64206E20
:105890006F7420666F756E64002D682C202D2D6846
:1058A000656C70000F430000F3420000F1420000FD
:1058B0006C5C00005C5C0000000000001131000026
:1058C00000000000C8580000A45C00008C5C0000D0
:1058D00000000000BD320000A85C0000745C000005
:1058E00000000000E732000000000000000000009F
:1058F0000000000000000000C45C0000AC5C000080
:10590000C05800006932000000000000105900007B
:10591000A45C0000F85C000000000000953300006B
:10592000A85C0000CC5C000000000000C93300004F
:105930000000000000000000000000000000000067
:105940003C5D0000285D0000085900001133000094
:10595000585D0000445D000000000000F5330000C9
:105960000000000068590000A85D0000605D0000B4
:1059700000000000213500000000000000000000D1
:1059800000000000000000004C5E0000B05D000060
:10599000605900006D34000000000000A0590000B4
:1059A000A05E0000545E000000000000AD31000069
:1059B000A45E0000785E00000000000039320000A4
:1059C00000000000000000000000000000000000D7
:1059D000BC5E0000AC5E000098590000553100002C
:1059E000D118000027190000651800003D190000BB
:1059F0001D190000303132333435363738394142E1
:105A00004344454601000000A92F00008C000020FF
:105A1000840000208C0000202C06002018000000CC
:105A2000010000002550000000000000305A000076
:105A3000EC5F0000785F0000045A00000D290000B0
:105A4000E45F0000F45E0000205A00000D29000011
:105A500014600000F45F000000000000E52A000070
:105A6000306000000460000000000000ED2A00002B
:105A7000286000001860000000000000892B000072
:105A80000000000000000000000000000000000016
:105A9000386000003C600000285A0000B528000073
:105AA0000040404040404040404041414141414031
:105AB00040404040404040404040404040404040E6
:105AC0004005020202020202020202020202020275
:105AD000022020202020202020202002020202027A
