:020000040000FA
:10000000E02700204D0300005503000057030000C7
:10001000590300005B0300005D03000000000000C6
:100020000000000000000000000000005F0300006E
:10003000610300000000000063030000650300008E
:1000400067030000670300006D06000067030000FF
:1000500067030000670300006703000067030000F8
:1000600067030000670300006703000067030000E8
:1000700067030000670300006703000067030000D8
:1000800067030000670300006703000067030000C8
:1000900067030000670300006703000067030000B8
:1000A00067030000670300006703000067030000A8
:1000B000670300006703000000000000000000006C
:1000C0006703000067030000670300006703000088
:1000D0006703000067030000670300006703000078
:1000E0006703000031040000670300000000000007
:1000F000000000006703000000000000670300002C
:1001000000000000000000000000000000000000EF
:1001100000000000000000000000000000000000DF
:1001200000000000000000000000000000000000CF
:1001300000000000000000000000000000000000BF
:1001400000000000000000000000000000000000AF
:10015000000000000000000000000000000000009F
:10016000000000000000000000000000000000008F
:10017000000000000000000000000000000000007F
:10018000000000000000000000000000000000006F
:10019000000000000000000000000000000000005F
:1001A000000000000000000000000000000000004F
:1001B000000000000000000000000000000000003F
:1001C000000000000000000000000000000000002F
:1001D000000000000000000000000000000000001F
:1001E000000000000000000000000000000000000F
:1001F00000000000000000000000000000000000FF
:10020000DFF80CD000F002F900480047A50A000012
:10021000E027002030B4044654E8000F0D4644E8BF
:100220000053002BF8D1156030BC704730B4044641
:1002300054E8000F40EA010544E80053002BF7D1D1
:10024000156030BC704730B4044654E8000F00EA33
:10025000010544E80053002BF7D1156030BC70470E
:1002600030B4044654E8000F80EA010544E8005326
:10027000002BF7D1156030BC704730B4044654E809
:10028000000F00EB010544E80053002BF7D1156087
:1002900030BC704730B4044654E8000FA0EB0105B1
:1002A00044E80053002BF7D1156030BC70470000C4
:1002B00030B4044654E8000F0D4644E80053002BC8
:1002C000F8D1156030BC704730B4044654E8000FD4
:1002D00040EA010544E80053002BF7D1156030BC1B
:1002E000704730B4044654E8000F00EA010544E8C2
:1002F0000053002BF7D1156030BC704730B4044672
:1003000054E8000F80EA010544E80053002BF7D1C0
:10031000156030BC704730B4044654E8000F00EB61
:10032000010544E80053002BF7D1156030BC70473D
:1003300030B4044654E8000FA0EB010544E8005334
:10034000002BF7D1156030BC70470000064880478D
:1003500006480047FEE7FEE7FEE7FEE7FEE7FEE7AA
:10036000FEE7FEE7FEE7FEE765040000010200008D
:1003700000487047F82200000649074A08685043C1
:1003800043F2390210440860400870470149086090
:10039000704700006C0000206D4EC64140EA01032A
:1003A0009B0703D009E008C9121F08C0042AFAD22B
:1003B00003E011F8013B00F8013B521EF9D27047EF
:1003C000D2B201E000F8012B491EFBD27047002297
:1003D000F6E710B513460A4604461946FFF7F0FF44
:1003E000204610BD421C10F8011B0029FBD1801AC9
:1003F000704730B504460020034600E05B1C934282
:1004000003D2E05CCD5C401BF8D030BD064C074DFC
:1004100006E0E06840F0010394E8070098471034D4
:10042000AC42F6D3FFF7F0FE7823000098230000DB
:1004300010B50A4C4FF48071204601F0ADFB002846
:100440000AD0074800214171C4F800110268816890
:10045000BDE810400020104710BD00000090024091
:100460009402002030B54FF080500022D0F83011B7
:100470000123082902D1D0F8344114B1082909D048
:100480000BE04FF08041C1F80C21C1F81021684900
:100490000A6005E0D0F8344114B1082957D059E07A
:1004A00064490968644C21606249091D0968241D7A
:1004B0002160604908310968241D21605D490C31C3
:1004C0000968241D21605B4910310968241D2160E1
:1004D000584914310968241D2160564918310968AA
:1004E000554C2034216053491C310968241D21607A
:1004F000504920310968241D21604E492431096882
:10050000241D21604B4928310968241D2160494977
:100510002C310968241D2160464930310968464C58
:1005200040342160434934310968241D2160414928
:1005300038310968241D21603E493C310968241D79
:1005400021603C4940310968241D216005E0D0F854
:10055000344114B1082904D006E0394C37492160F0
:1005600005E0D0F8344114B1082904D006E0354C38
:10057000FB21216005E0D0F8344114B1082908D0EE
:100580000AE090F858423048016864F303010160C2
:1005900005E0D0F8344114B1082905D00EE02B490C
:1005A0004FF40070086002E0D0F8340130B92848F8
:1005B0000168C90702D06FF0010101602548016898
:1005C00041F470010160BFF34F8FBFF36F8F4FF0A5
:1005D0001021D1F80002002803DBD1F80402002822
:1005E00022DA1D4C23601D480368002BFCD0122327
:1005F000C1F800320568002DFCD0C1F80432016852
:100600000029FCD0226001680029FCD0BFF34F8F85
:1006100010487C380168124A01F4E061114301601E
:10062000BFF34F8F00BFFDE70F490E48086030BD94
:10063000380500400404001020C500404881030034
:100640008C56004018F50040E40E004040960240F1
:100650000004004088ED00E004E5014000E40140B2
:100660000400FA050090D003680000200448017FD0
:1006700004480029024901D001F0F5BC01F064BC36
:10068000A00200200020004002E008C8121F08C19C
:10069000002AFAD170477047002001E001C1121F03
:1006A000002AFBD17047000001F098F901F00EF824
:1006B0000028FBD1104C0121208801EB00400FA144
:1006C00001F0ECF810480068C00700D000BE208898
:1006D000022101EB00400DA101F0E0F8BFF34F8FC4
:1006E0000948E43801680D4A01F4E06111430160F2
:1006F000BFF34F8F00BFFDE78800002046617461A3
:100700006C206572726F7200F0ED00E053797374C3
:10071000656D207265736574000000000400FA05C1
:100720000EB500210091CDE901106A4644F20100A6
:10073000FFF7BAFF0EBD00F003B800F009B80000E3
:1007400072B602480168491C01607047040000202D
:1007500003490868401E086000D162B67047000077
:100760000400002070B5054608680C46411C04D002
:1007700000F0D2FE206800F0B6FE6068411C02D096
:10078000002100F0A7FE28791F4901EB40102968DD
:10079000007F0028A069C1F8240523D0607D227D58
:1007A00029681043C1F86C05D4E900122868C0F824
:1007B0000C15C0F8142522E0A068411C02D00021CD
:1007C00000F088FEE068411C04D000F0A5FEE0685F
:1007D00000F089FED4E902122868C0F80825C0F8A4
:1007E000101570BD607D217D2A680843C2F86C0534
:1007F000D4E900122868C0F81425C0F80C15207D33
:100800000128D9D070BD0000A00200202DE9F041E0
:10081000861C0C4601270020FFF78DFF0F4801685A
:100820002160D0E90012891A82680446511AB51C69
:1008300007E000BF00F0ECF8D4E90001401AA1681D
:10084000091A491C8D42F5D82068304420600020E8
:10085000FFF773FF3846BDE8F0810000C0030020B9
:1008600030B482680468531C8360A154D0E901123B
:100870008A4202D330BC00F012BD30BC7047000089
:10088000034803C8814201D101207047002070470E
:10089000C00300200EB5154940208DF80800D1E9AD
:1008A0000001CDE9000100221146684600F0D2FAAD
:1008B00008B1FFF735FF99208DF80000002211469E
:1008C000684600F0C7FA08B1FFF72AFF01208DF84B
:1008D000000002208DF80100002202A9684600F005
:1008E000B9FA002801D0FFF71BFF0EBD0C22000053
:1008F0002DE9FC5F0E008346DDE90C47C6F10000E0
:1009000098469246814600D40846012503E000BF80
:1009100090FBFAF06D1C5045FADAA84500D945461F
:1009200024B1002E01DB780700D5641EB80702D57C
:10093000B8F1000F0AD0F80708D13CB1A54205D2A2
:1009400020215846641EFFF78BFFF6E7002E02DADF
:100950004E462D2102E0780703D52B215846FFF79C
:100960007FFF07F0030002280BD1B8F1000F08D178
:100970003CB1A54205D230215846641EFFF770FFF6
:10098000F6E7CDE90047434652463146584601F066
:10099000E3FBBDE8FC9F000070B50E4604460079FD
:1009A00018494FF4A27501EB4010017F2068A1B1F6
:1009B0004FF4887101F00BF94FF49071206801F049
:1009C00006F94FF49271206801F001F92946206878
:1009D00001F0FDF80C49206809E04FF48E7101F038
:1009E000E5F82946206801F0E1F808492068C0F8D8
:1009F0000413206800F01AFA3146BDE8704000F098
:100A0000F9B90000A00200201003020080000200DB
:100A100070B588B0214800F08FF92048001F0646C5
:100A200000F08AF91E4DD5E9014105E0C0F38912B5
:100A300002EB9050641C044404EA010005EB8000C2
:100A4000C0688207F2D000200DF1080204EA010319
:100A500005EB8303641CDB6842F82030401C02284D
:100A6000F4D3029800F00300012808D002280AD12C
:100A70000298032101EB905004EB900403E00298EC
:100A8000C0F3831004443046002101AAFFF729FC7B
:100A9000002800D06C6008B070BD0000D8070020AE
:100AA000C00300201FB5002000F052FF08B1FFF77F
:100AB00037FE00F0FDFD3B4C03253BA1208805EBF4
:100AC000004000F0EBFE0020FFF760FC0026444FE2
:100AD000FFF752FCB855761CFF2EF9D9414B0FCBCE
:100AE0008DE80F0000224049684600F03BFA08B14B
:100AF000FFF716FE20883DA105EB004000F0CEFE7A
:100B0000FFF7C8FE3E4E002737703946012000F03F
:100B10001FFA08B1FFF704FE30780028FCD03770C8
:100B2000208838A105EB004000F0B8FE4FF4807833
:100B3000002241462A4800F09DFA08B1FFF7F0FD77
:100B400030780028FCD03770208838A105EB0040B1
:100B500000F0A4FE002241463C4800F05DFA3078E7
:100B60000028FCD03770208839A105EB004000F048
:100B700095FE208839A105EB004000F08FFE42462B
:100B800032491748FFF735FC0028208805EB004064
:100B900005D035A100F082FE00F056FAFEE737A13D
:100BA000F8E700008800002051535049207772690F
:100BB000746520616E642072656164206578616D82
:100BC000706C65207573696E6720323462697420B9
:100BD00061646472657373696E67206D6F6465002C
:100BE0009400002014220000ED1C000051535049D5
:100BF00020496E697469616C697A6564000000005F
:100C00000000002050726F63657373206F6620656B
:100C1000726173696E6720666972737420626C6FAB
:100C2000636B2073746172740000000050726F6314
:100C3000657373206F662077726974696E672064CC
:100C4000617461207374617274000000940100206B
:100C5000446174612072656164000000436F6D70CF
:100C60006172652E2E2E00004461746120696E63EE
:100C70006F6E73697374656E740000004461746113
:100C800020636F6E73697374656E74002DE9F047AD
:100C9000C7880446181D16468946B0FBF7F1B0FB1D
:100CA000F7F207FB12009A193A44D21CB2FBF7F292
:100CB000DDF820A001E02468491E0029FBD13D1A7F
:100CC0008846B54216D818E0BAF1000F05D02118B1
:100CD00009EB08002A46091D04E0204409EB08013D
:100CE0002A46001DFFF75AFB00202468761BA84403
:100CF000B74201D9354600E03D46002EE4D1BDE8BB
:100D0000F087000030B5024669B100F04FFE0021C7
:100D1000084C0BE001EB410304EB830315685B888F
:100D2000AB4202D11160002030BD491C8142F1D399
:100D3000052030BD7000002008B501216A46FFF78C
:100D4000C3FA009808BD70B5044600252846FFF791
:100D5000F2FC21686268086890420ED9401E086063
:100D60000178238AE26801FB0325227A2168101AA0
:100D7000C0B20A79824200D208710020FFF7DDFC80
:100D8000284670BD70B505460C460020FFF7D3FC21
:100D9000E868298A201AB0FBF1F12A681068431C20
:100DA00013600170BDE870400020FFF7C6BC10B5AD
:100DB00030B1017A42680368891AC9B21A6006E044
:100DC0000E2010BD03681A68541C1C601170491E67
:100DD000C9B2F7D2006800210171084610BD00F0C9
:100DE0001F02012191404009800000F1E020C0F87D
:100DF000801170474907090E002806DA00F00F023B
:100E000002F1E02282F8141D03E000F1E02282F8F2
:100E1000001400F01F02012191404009800000F100
:100E2000E020C0F88012C0F800117047000B40B2FB
:100E300070470121B1EB507F01D1012070470020A4
:100E400070470121B1EB507F01D101207047002094
:100E5000704700002DE9F04106463B4815464079B1
:100E600010B11120BDE8F081384CA2150027C4F85C
:100E7000007129B3737800200A2B21D2DFE803F038
:100E800020201C1916130E0B0805CB7940EA0360CD
:100E90008B7940EA03404B7940EA03200B79034306
:100EA000C4F83C360020CB7840EA03608B7840EAF7
:100EB00003404B7840EA032009780143C4F8381610
:100EC0000120C4F808033088B178337940EA013052
:100ED000F178490341EA83310843717940EAC1302E
:100EE000C4F8340690464146204600F055FE0028DE
:100EF000F9D0C4F800710120C4F804030DB371786F
:100F0000D4F83C0606290BD0072907D0082903D0BE
:100F1000092906D1020EEA71020CAA71020A6A714D
:100F20002871D4F8380606290BD2DFE801F00A0A46
:100F300009070503010EE970010CA970010A697027
:100F4000287000208EE700009402002000900240EC
:100F5000034AC2F81C15C2F820050C2000F004BF9B
:100F6000009002402DE9F047284E04469146307922
:100F70000F4610B10820BDE8F087204600F0BCFE07
:100F8000F0B3A079E17940EAC100217A40EA81100A
:100F9000617A01B101211E4D40EAC110C5F8440536
:100FA000D5F800061B490840A17A0143E07A00B158
:100FB000012041EA0060217B40EA4160617B40EA18
:100FC0000170C5F800064FF0000886F80580C6F8E5
:100FD000089001203760C5F808031FB1A17B2920C4
:100FE000FFF708FF01203071C5F800050402C5F8BD
:100FF000008128602146284600F0CEFD002800E050
:1010000002E0F7D00020B6E70720B4E79402002002
:101010000090024000FFFF0070B514460D460646E2
:10102000FFF707FF58B10748C0F80445C0F8086546
:10103000C0F80C55BDE87040042000F095BE1020AB
:1010400070BD00000090024007480121C0F808135D
:101050000021C0F80015054B4215C3F88021C0F8E7
:1010600000110348017170470090024004E000E065
:101070009402002070B514460D460646FFF7D9FECF
:1010800058B10748C0F81045C0F81465C0F81855A5
:10109000BDE87040082000F067BE102070BD000061
:1010A000009002402DE9F04105460079164F904628
:1010B00007EB40140E46E07E10B10820BDE8F08139
:1010C000707F20772846FFF74DFB5FEA08006060DD
:1010D0003169216003D0317F2846FFF75DFC287914
:1010E00007EB4010007F0028286801D0082100E0AD
:1010F0000421C0F800150020E0752076A0750121BC
:10110000E176A076DAE70000A00200202DE9F047A2
:10111000054600793F4E904606EB40140F46207F6F
:1011200018B10846FFF78DFE30B1284600F074F87C
:1011300020B11120BDE8F0871020FBE784F816806D
:10114000A7600027A78228794FF0010806EB40141A
:101150003E46207F0028286825D04FF490794946E4
:1011600000F035FD4FF4AC7A5146286800F02FFDB1
:101170002868A17DA268C0F84425C0F848152868F1
:10118000C0F808806068F0B94946286800F01AFD88
:1011900080465146286800F015FD58EA0001F3D05A
:1011A00058BBA7750FE04FF48E7A514600F0FEFC55
:1011B0002868C0F808802146286800F079FE616838
:1011C0004FF4807089B13046B4E75146286800F08A
:1011D000E8FC10B9A08A4845F7D1A08A484505D057
:1011E0002146286800F064FE00E08146A08AA17DC7
:1011F0008842EAD3A08A484501D10F26D1E751465B
:10120000286800F0CEFC0028F9D02868C0F80C80CF
:10121000C7E70000A00200200079044901EB40105C
:10122000807D002800D0012070470000A00200202F
:1012300070B5044600791149002601EB401520687D
:101240002A7FC0F80065686888B1207901EB4010FA
:10125000007F0028206801D0094901E008498C3945
:10126000C0F808132068FFF7E1FDFFF7B8FD20463E
:1012700000F0B4FCEE766E6070BD0000A0020020AD
:10128000100302000FB408B50399002904D004AA82
:1012900000926A4600F00FF801B05DF814FB10B53B
:1012A00082680446002A05D0D4E9040321689847DF
:1012B0000020A06010BD2DE9FC4791460C0080463F
:1012C00076D014F8011B39B125290ED04046FFF71E
:1012D000C7FA20780028F4D198F80C00002867D0CD
:1012E0004046BDE8FC47FFF7DABF00200122217825
:1012F0002B291BD02D2902D0302908D102E040F043
:10130000010001E040F00200641C002AEFD100253A
:101310002A290ED02178A1F130020A2A11D205EB38
:10132000850201EB4205641C303DF1E740F004000A
:10133000EAE7D9F800100B1DC9F800300968641CF1
:101340000D44217800232E290BD114F8011FA1F19F
:1013500030020A2A05D203EB830201EB4203303B41
:10136000F3E76C290DD068290BD0692921D00BDC5B
:10137000252918D0582931D063290ED0642915D1D8
:1013800017E014F8011FECE7702969D0732932D0F7
:1013900075291BD0782909D120E0D9F80000011D5A
:1013A000C9F8001001784046FFF75AFA641C90E72C
:1013B0006CE0D9F800100A1DC9F800200968CDE9D1
:1013C00000500A224046FFF793FAEFE7D9F80010E1
:1013D0000A1DC9F8002009680A2206E0D9F80010A1
:1013E0000A1DC9F8002009681022CDE900504046C6
:1013F00000F0B2FEDAE7D9F8001000270A1DC9F89C
:1014000000200E68C00705D112E04046761C7F1C04
:10141000FFF726FA31780029F7D104E02021404671
:101420006D1EFFF71DFABD42C0D9002DF6D1BDE7F4
:101430004EB13046FEF7D6FF074604E02021404675
:101440006D1EFFF70DFABD4206D9002DF6D103E05F
:101450004046761CFFF704FA31780029F8D1A5E759
:10146000D9F80000011DC9F8001005683021404678
:10147000FFF7F6F978214046FFF7F2F9082000213E
:10148000CDE90001034610222946B0E7BDE8FC87FC
:101490002DE9FF411C46DDE90A7815460E466846EF
:1014A00000F02CF846EA450141EA840141EA0722AE
:1014B00042EA0841009A00EB8200C0F80017BDE83C
:1014C000FF811CB5002100910B4601220191FFF71D
:1014D000DFFF1CBD1CB500220B4600921146019295
:1014E000FFF7D6FF1CBD1CB5002100910B46012261
:1014F00001911146FFF7CCFF1CBD000001682029B7
:1015000002D24FF0A040704701F01F010160014876
:10151000704700000003005001B56846FFF7EEFF7A
:10152000009A01219140C0F8081508BD30B5124B52
:1015300001460020D3F81044224609E0157A85427E
:1015400005D1401C0A28F7DB4FF0FF3030BD526850
:10155000002AF3D1421CF9D00872D3F810242AB122
:1015600052684A60D3F81024516030BD0022C3F89D
:1015700010144A6030BD0000C0030020F0B595B0E3
:101580001C4615460F4608461A9E00F0DFFA182141
:1015900009A8FEF71CFF0E96CDE909540023082286
:1015A00003A9384600F0ECFA059806900498ADF8C7
:1015B0001C0000208DF820000398082600F003008E
:1015C000012802D002281DD03CE003983346850A4A
:1015D000C0F3C2008DF81E0003980FA9C0F380006D
:1015E0008DF81F000398C0F38314A200384600F062
:1015F000C7FA09A8009006AB22460FA9284600F0BA
:1016000001FA1FE00398840DC0F3C2008DF81E009C
:101610000398C0F380008DF81F00082C01D22546E6
:1016200000E0082533462A460FA9384600F0A8FAFC
:101630002E44641B09AB06AA29460FA800F032F914
:10164000002CEAD1384600F08AFA15B0F0BD704798
:10165000002000F051BC000010B50448FFF7E8FD81
:10166000BDE81040002000F047BC00000C00002046
:1016700008B5034A00924023024AFFF77FFF08BDE6
:10168000F51D0000C0020020084A012902EBC0003D
:1016900005D0022903D0032903D0042903D0002058
:1016A0007047007970474079704700009823000028
:1016B00010B5FFF7CDFF04210348FFF737FF0249BC
:1016C0000120487210BD0000140000202DE9FE4FDB
:1016D000FFF7D6F810B10020BDE8FE8F6D4800215D
:1016E000C0F81814BFF34F8FD0E9014604EA060191
:1016F00000EB81014FF000090AE000BFC1F389123D
:1017000002EB9151641C0C4404EA060100EB8101D8
:10171000C9688A07F2D000216A46804604EA0603B7
:1017200008EB8300641CC06842F82100491C0229B0
:10173000F4D3009800F00300022802D001284DD015
:10174000A2E000985022810D8A46B2EB905F00D84B
:1017500050210D4665F39F50009008314E4800F02F
:10176000ACF9070077D000F0F1F94B460822694642
:10177000384600F00BFA04EA0600311A8900091D08
:1017800009F1080B8D4222D9424E0C3631B1CAB252
:1017900008EB8000691A91460C3004E03046EAB24A
:1017A000002691463146CDB201465B46384600F0F0
:1017B000EDF90BEB09032EB12A4631464FEA07003B
:1017C00000F0E4F90AF1030004EB90043AE008EBBE
:1017D00080015B462A4638460C31F1E70098C0F399
:1017E0008310062800D30620009960F38911C1F305
:1017F0008310801C00918100274800F05EF90700EB
:1018000042D000F0A3F94B4608226946384600F062
:10181000BDF909F1080900250EE000BF04EA060041
:1018200008EB80014B46042238460C31641C00F062
:10183000ADF909F104096D1C0098C0F38310A842AA
:10184000ECD847B1D8F81054D8F81804464660B11F
:10185000384600F084F917E0687A012804D12A6834
:1018600028463946126890476D68002DF4D13846F5
:1018700000F075F90020FEF75EFFD6F8180400B9F5
:1018800074600020FEF759FFFEF7FAFF80F00100B8
:1018900022E70000C00300206022000000231A4657
:1018A00000F0BCBA2DE9F0470E4680461C46924631
:1018B00008293ED894F80C90002020731946104651
:1018C00000F0E6F90025B54206D218F805201AA165
:1018D0002046FFF7D7FC03E019A12046FFF7D2FC12
:1018E0006D1C082DEFD317A12046FFF7CBFC002578
:1018F000B54210D218F80570FEF73AFD0068C05DD9
:1019000010F03E0F01D03A4600E02E220EA12046F4
:10191000FFF7B8FC03E00DA12046FFF7B3FC6D1CF8
:10192000082DE5D301222146504600F093F984F8B2
:101930000C90BDE8F08700002025303278000000D0
:10194000202020007C000000256300002000000013
:10195000114810B5FF218160002101604160C0F88D
:101960001814C0F81414012180F81C140B4800F05E
:10197000F4F800280ED10A480A490B4B401AC10856
:10198000002004E000EB400223F82200401C8842C3
:10199000F8D3002010BD0000C0030020602200002A
:1019A000B023000098230000700000200248034983
:1019B000401AC00870470000B023000098230000C0
:1019C00013B56846FFF79EF908B100201CBD024818
:1019D000009950F831001CBD9823000070B50848EC
:1019E0000125D0F8104480F81C5405E06572216888
:1019F0002046496888476468002CF7D170BD000014
:101A0000C00300202DE9FF4781460C9D00200C46B5
:101A10002F7B2873984616462946184600F038F959
:101A2000072E42D2DFE806F004090F161F2A3600FF
:101A300049462846FFF726FC37E0494628462268F3
:101A4000FFF720FC31E0D4E9002349462846FFF7A0
:101A500019FC2AE0A0680090D4E9002349462846F2
:101A6000FFF710FC21E0D4E90201CDE90001D4E93F
:101A7000002349462846FFF705FC16E004F108005C
:101A800007C88DE80700D4E9002349462846FFF738
:101A9000F9FB0AE004F108000FC88DE80F00D4E953
:101AA000002349462846FFF7EDFB00222946404621
:101AB00000F0D0F82F73BDE8FF872DE9F041058ACB
:101AC00080462D1F4819C01CB0FBF5F0C6B2404639
:101AD000FFF739F9041E19D0002020710120607130
:101AE000E58000272546761EC4F800800BE04046BE
:101AF000FFF729F960B16179491C617128600546D9
:101B00007F1CC0F80080B742F1D32046BDE8F081C9
:101B1000204600F002F80020F8E72DE9F041457971
:101B200001466B1E002201E00968521C9A42FBD359
:101B30000F680146002605E038460C68FFF722F9D9
:101B40002146761CAE42F7D3BDE8F08108B50121ED
:101B50006A46001DFEF791FB08BDFFF728B938B5AE
:101B60000446001D01216A46FEF794FB009810F020
:101B7000FF0F04D12046BDE83840FFF7CEBF38BD87
:101B800038B501240094FFF781F838BD38B500243A
:101B90000094FFF77BF838BD4058002800D00120A2
:101BA00070474058002800D00120704708B5002237
:101BB00042504058009008BDD0F80403084000D0BF
:101BC000012070474058002800D00120704708B518
:101BD000002242504058009008BD000070B50346F6
:101BE00000791B4901EB40101968027F4FF0FF306C
:101BF000002AD1F80C25D1F81465D1F80855D1F890
:101C0000104504D0C1F80C05C1F8140503E0C1F873
:101C10001405C1F80C051968C1F80805C1F81005CC
:101C2000501C02D01046FFF74CFC701C02D030460E
:101C3000FFF747FC601C02D02046FFF742FC681CFF
:101C400004D02846BDE87040FFF73BBC70BD0000E3
:101C5000A002002010B50C46C17949B11AB109A102
:101C60002046FFF70FFB2046BDE81040FFF717BBEB
:101C7000007A0028F3D0044804A102682046FFF748
:101C800001FBECE70D0A0000440000202573000072
:101C900070B50446C0790D4600281CD1207A50B199
:101CA000A179A088FFF7F0FC0B4951F820200BA187
:101CB0002846FFF7E7FAA0880021FFF781FE0346D8
:101CC0000549A079143951F820202846BDE8704014
:101CD00003A1FFF7D7BA70BD4400002025730000B0
:101CE0003C25733E2025733A200000000149012065
:101CF000087070470000002010B50278FF2A11D04C
:101D00004178FF290ED08178FF290BD0C178FF29B7
:101D100008D01449C1F8242542784FF0FF34FF2A37
:101D200002D002E0002010BD2246C1F828258278AA
:101D3000FF2A00D12246C1F83025C278FF2A00D1FF
:101D40002246C1F834250279FF2A00D12246C1F883
:101D500038254379FF2B00D01C46C1F83C450120B3
:101D600010BD00000090024070B50D494A790AB1DB
:101D7000112070BD0B4CA5150022C4F800210B6882
:101D80000122002B02D04A71C4F80423225005D14D
:101D900029462046FFF700FF0028F9D0002070BD3B
:101DA000940200200090024070B50546C87D0C46A4
:101DB00000284FF4847128460AD0FFF7F7FED5F8C3
:101DC0001805627EE1688854607E401C607670BDB4
:101DD000FFF7ECFED5F8180570BD1FB501238DF88F
:101DE00000308DF808100192D0E900126846904743
:101DF0001FBD000010B5084C0020D2B22070201D7D
:101E0000FFF784F908B1FEF78BFC6078002802D058
:101E100021780029FAD010BD080000202DE9F843F0
:101E2000224C8846054691461F4669461846A668D4
:101E3000FEF7ECFC88B3009800EA060104EB81028F
:101E400052F80C1F21F00301491C401C11605FEA8D
:101E5000C56C02D541F0040101E021F0040165F3F5
:101E6000C50167F3891168F39F21116000EA06023A
:101E7000290C04EB8202401CD160009000200AE093
:101E8000009959F8203001EA060204EB8202491C4D
:101E9000D360401C0091B842F2D394F81C0401E0D6
:101EA000FFF714FC0028FBD1BDE8F883C003002035
:101EB00070B50C4605464FF48E71FFF777FEA18A88
:101EC000A068415CA08A401CA082C5F81C1570BDAA
:101ED0001FB500228DF800208DF80810816801914F
:101EE0008275D0E90012684690471FBD0149012064
:101EF000087070470800002010B588B00446202202
:101F00000E496846FEF74AFA06200090C01F01906D
:101F1000029003904FF0EB7006900CB1084A00E07D
:101F2000002269460748FFF7BDF808B1FEF7F8FB45
:101F30000448001F447008B010BD0000402200009B
:101F4000ED1E00000C0000202DE9FF470C46054661
:101F50004FF40071FFF730FE01274FF4017800269F
:101F600018B34FF4927949462846FFF71AFEE0B1BC
:101F700049462846FFF71AFEC5F80883A07E00B937
:101F80006F6002208DF80000D5F88004C5F8800449
:101F90000390E07D8DF80800E0680190E6752676F4
:101FA000D4E900126846904727E004212846FFF74D
:101FB00003FE10B34FF484712846FFF7F2FDE0B141
:101FC00021462846FFF7F0FEE07D617E884214D16D
:101FD000207E38B1617EE268E0752069E060267697
:101FE000667607E0A07E00B96F60C5F80883E675E5
:101FF000617EE2682046FFF7F0FE4FF48E7841469E
:102000002846FFF7CEFD88B1A08AA17D884204D280
:1020100021462846FFF74CFF08E041462846FFF7D7
:10202000C5FDA17D11B12046FFF752FF4FF4A27804
:1020300041462846FFF7B5FD002812D04146284604
:10204000FFF7B4FDA07E00B12F60E07D002808D02E
:10205000E675617EE26804B02046BDE8F047FFF710
:10206000BCBEBDE8FF872DE9FF410C464FF49277D7
:1020700005463946FFF7A6FD0026C0B13946284679
:10208000FFF7A5FD02208DF80000D5F88004C5F803
:1020900080040390D5F83C058DF80800E0680190B5
:1020A000E6752676D4E900126846904724E04FF49E
:1020B000887739462846FFF785FDE8B13946284636
:1020C000FFF785FDD5F83C05C1B2E07D884213D10C
:1020D000207E60B1E268D5F8000220F02000C5F84B
:1020E0000002207EE0752069E060267601E0E6755A
:1020F000E2682046FFF771FE4FF4A2773946284682
:10210000FFF760FD68B139462846FFF760FDE07DC6
:1021100038B1E675D5F83C05E268C1B22046FFF754
:102120005CFE4FF4907631462846FFF74BFD0028C1
:102130000FD031462846FFF74AFDA07D002808D081
:10214000D5F84C0504B0C1B22046BDE8F041FFF718
:10215000BFBEBDE8FF8100002DE9F05F8346DDE9E9
:102160000A4A994690460D460846012703E000BFFB
:10217000B0FBF8F07F1C4045FAD2B94500D94F4674
:102180005FEACA7012D18CB15FEA8A7002D5B9F1E8
:10219000000F01D0202607E0302605E031465846E2
:1021A000641EFEF75DFB0CB1A742F7D35FF001069A
:1021B000B9F1010F02D9A9F1010903E0B5FBF6F06D
:1021C000404502D306FB08F6F2E7DFF83C9000BF7B
:1021D000B5FBF6F000FB165519F800105846FEF74F
:1021E0003FFBB6FBF8F6002EF2D15FEACA7009D0C9
:1021F000002C07D0A74205D220215846641EFEF7C6
:102200002FFBF5E7BDE8F09F2322000066010101E6
:10221000010100001311141516170403000001003A
:1022200000010730313233343536373839414243D3
:102230004445460071160000591600004F16000074
:10224000FFFFFFFFFFFFFFFFFFFFFFFFFFFFFFFF9E
:1022500000000000000000000000D601070100009F
:10226000280000202000002028000020000300207B
:102270001800000000404040404040404040414184
:10228000414141404040404040404040404040404B
:1022900040404040400502020202020202020202E5
:1022A00002020202022020202020202020202002E2
:1022B0000202020202029090909090901010101072
:1022C000101010101010101010101010101010100E
:1022D00002020202020288888888888808080808A2
:1022E000080808080808080808080808080808086E
:1022F0000202020240000000752200007761726E47
:10230000696E670064656275670000001B5B313BA6
:1023100033306D001B5B306D000000001B5B313BF8
:1023200033316D001B5B313B33326D001B5B313B46
:1023300033336D001B5B313B33346D001B5B313B32
:1023400033356D001B5B313B33366D001B5B313B1E
:1023500033376D00696E666F000000006572726F42
:1023600072000000756172740000000062616C6CA4
:102370006F63000061707000B02300000000002057
:10238000940000008806000044240000940000200F
:102390004C270000980600006423000000000000A5
:1023A0006C23000000000000742300000000030004
:1023B00000000000000000000000000000200040BD
:1023C00000000000342200000000000000000000B7
:1023D00000000000000000000000000000000000FD
:1023E000000000005C230000FC22000054230000D9
:1023F00004230000142300000C2300001C23000011
:10240000242300002C230000342300003C23000080
:10241000442300004C2300000090D0030000000083
:1024200000000000000000000000000000000000AC
:10243000000000000000000000000000000000009C
:042440000000000098
:0400000500000201F4
:00000001FF
