:020000040000FA
:10000000002600204D0300005503000057030000A8
:10001000590300005B0300005D03000000000000C6
:100020000000000000000000000000005F0300006E
:10003000610300000000000063030000650300008E
:10004000670300006703000001070000F5030000DC
:1000500067030000670300006703000067030000F8
:1000600067030000670300006703000067030000E8
:1000700067030000670300006703000067030000D8
:1000800067030000670300006703000067030000C8
:1000900067030000670300006703000067030000B8
:1000A00067030000670300006703000067030000A8
:1000B000670300006703000000000000000000006C
:1000C0006703000067030000670300006703000088
:1000D00067030000670300006703000000000000E2
:1000E0000000000000000000000000000000000010
:1000F0000000000000000000000000000000000000
:1001000000000000000000000000000000000000EF
:1001100000000000000000000000000000000000DF
:1001200000000000000000000000000000000000CF
:1001300000000000000000000000000000000000BF
:1001400000000000000000000000000000000000AF
:10015000000000000000000000000000000000009F
:10016000000000000000000000000000000000008F
:10017000000000000000000000000000000000007F
:10018000000000000000000000000000000000006F
:10019000000000000000000000000000000000005F
:1001A000000000000000000000000000000000004F
:1001B000000000000000000000000000000000003F
:1001C000000000000000000000000000000000002F
:1001D000000000000000000000000000000000001F
:1001E000000000000000000000000000000000000F
:1001F00000000000000000000000000000000000FF
:10020000DFF80CD000F0E4F8004800473D0C000097
:100210000026002030B4044654E8000F0D4644E8A0
:100220000053002BF8D1156030BC704730B4044641
:1002300054E8000F40EA010544E80053002BF7D1D1
:10024000156030BC704730B4044654E8000F00EA33
:10025000010544E80053002BF7D1156030BC70470E
:1002600030B4044654E8000F80EA010544E8005326
:10027000002BF7D1156030BC704730B4044654E809
:10028000000F00EB010544E80053002BF7D1156087
:1002900030BC704730B4044654E8000FA0EB0105B1
:1002A00044E80053002BF7D1156030BC70470000C4
:1002B00030B4044654E8000F0D4644E80053002BC8
:1002C000F8D1156030BC704730B4044654E8000FD4
:1002D00040EA010544E80053002BF7D1156030BC1B
:1002E000704730B4044654E8000F00EA010544E8C2
:1002F0000053002BF7D1156030BC704730B4044672
:1003000054E8000F80EA010544E80053002BF7D1C0
:10031000156030BC704730B4044654E8000F00EB61
:10032000010544E80053002BF7D1156030BC70473D
:1003300030B4044654E8000FA0EB010544E8005334
:10034000002BF7D1156030BC70470000064880478D
:1003500006480047FEE7FEE7FEE7FEE7FEE7FEE7AA
:10036000FEE7FEE7FEE7FEE70504000001020000ED
:1003700000487047F824000040EA01039B0703D0BF
:1003800009E008C9121F08C0042AFAD203E011F8D4
:10039000013B00F8013B521EF9D27047D2B201E096
:1003A00000F8012B491EFBD270470022F6E710B57A
:1003B00013460A4604461946FFF7F0FF204610BDD3
:1003C000421C10F8011B0029FBD1801A7047000065
:1003D000064C074D06E0E06840F0010394E8070092
:1003E00098471034AC42F6D3FFF70EFF7C2500008F
:1003F0009C2500000149024800F02EBB9800002017
:1004000000300040F0B5AE480023021D0178012500
:10041000101D4FF0805406290BD11678360708D1ED
:100420000678C6F30316032E06D0042E04D0052E3C
:1004300002D0062907D00EE0B4F82463A14FC6F31A
:1004400004263E6002E01678360704D10678C6F32B
:100450000316032E02D0062904D00FE09B4F9A4EBC
:100460007E670EE01678360708D10678C6F30316C5
:10047000032E06D0042E04D0052E02D0062907D064
:100480000EE0D4F84462924FC6F342363E6002E07A
:100490001678360704D10678C6F30316032E02D069
:1004A000062906D011E08B4E376827F08077376039
:1004B0000EE01678360708D10678C6F30316032E29
:1004C00006D0042E04D0052E02D006290AD011E051
:1004D0004FF08046C6F80C31C6F810317C4E361FFE
:1004E000336002E01678360704D10678C6F30316A7
:1004F000032E02D0062905D00CE0754F0326643781
:100500003E600AE01678360704D10678C6F3031673
:10051000032E02D006290DD014E06F4F05263E6051
:100520006D4E783635606C4E083633603F263F1D81
:100530003E6002E01678360704D10678C6F303164B
:10054000052E02D0062957D062E0644E3668644F0B
:100550003E60624E361D36683F1D3E605F4E083677
:1005600036683F1D3E605D4E0C3636683F1D3E606E
:100570005A4E103636683F1D3E60584E1436366867
:100580003F1D3E60554E18363668554F20373E6049
:10059000524E1C3636683F1D3E60504E203636683F
:1005A0003F1D3E604D4E243636683F1D3E604B4E2B
:1005B000283636683F1D3E60484E2C3636683F1D53
:1005C0003E60464E30363668454F40373E60434EBB
:1005D000343636683F1D3E60404E383636683F1D23
:1005E0003E603E4E3C3636683F1D3E603B4E4036D8
:1005F00036683F1D3E6002E01678360708D106785F
:10060000C6F30316032E06D0042E04D0052E02D006
:10061000062907D019E0D4F85812324A01F04F01E8
:10062000116002E0117809070FD10078C0F30310C0
:10063000032803D0042801D0052806D12A480168E0
:10064000C90702D06FF001010160224874380168C7
:1006500041F470010160BFF34F8FBFF36F8F4FF014
:100660001021D1F80002002803DBD1F80402002891
:1006700022DA1E4A15601E480468002CFCD015249E
:10068000C1F800420568002DFCD0C1F804420168A1
:100690000029FCD0136001680029FCD0BFF34F8F04
:1006A0000C48F0380168134A01F4E061114301601D
:1006B000BFF34F8F00BFFDE710490F480860F0BD42
:1006C000E00F00F0403501400DF0ADBA00C007402A
:1006D0003C050040FCED00E0105600400404001012
:1006E00020C50040E40E00400004004004E5014045
:1006F00000E401400400FA050090D00364000020EB
:100700000448017F04480029024901D001F0A5BD39
:1007100001F014BDC00000200020004002E008C825
:10072000121F08C1002AFAD170477047002001E06B
:1007300001C1121F002AFBD17047000001F018F917
:1007400000F086FF0028FBD1104C0121208801EB2E
:1007500000400FA101F064F810480068C00700D005
:1007600000BE2088022101EB00400DA101F058F8E5
:10077000BFF34F8F0948E43801680D4A01F4E06186
:1007800011430160BFF34F8F00BFFDE78C000020D5
:10079000466174616C206572726F7200F0ED00E06A
:1007A00053797374656D2072657365740000000081
:1007B0000400FA050EB500210091CDE901106A464A
:1007C00044F20100FFF7BAFF0EBD00F003B800F0DD
:1007D00009B8000072B602480168491C0160704700
:1007E0000000002003490868401E086000D162B67E
:1007F00070470000000000202DE9F041064608681F
:100800000C46411C4FF0A0474FF0010506D005FAF9
:1008100000F1C7F80815206800F038FE6068411C38
:1008200002D0002100F029FE3079204901EB401070
:10083000A169007F00283068C0F8241525D0607DAC
:10084000227D31681043C1F86C05D4E9001230688C
:10085000C0F80C15C0F8142524E0A068411C02D093
:10086000002100F00AFEE068411C05D08540C7F871
:100870000855E06800F00AFED4E902123068C0F8BA
:100880000825C0F81015BDE8F081607D217D326833
:100890000843C2F86C05D4E900123068C0F814258A
:1008A000C0F80C15207D0128D7D0ECE7C00000204F
:1008B0002DE9F041861C0C4601270020FFF785FF3B
:1008C0000F4801682160D0E90012891A8268044645
:1008D000511AB51C07E000BF00F066F9D4E9000129
:1008E000401AA168091A491C8D42F5D82068304485
:1008F00020600020FFF76BFF3846BDE8F081000064
:10090000E001002030B482680468531C8360A15465
:10091000D0E901128A4202D330BC00F09ABC30BC4C
:1009200070470000034803C8814201D1012070478D
:1009300000207047E00100202DE9FC5F0E00834697
:10094000DDE90C47C6F1000098469246814600D486
:100950000846012503E000BF90FBFAF06D1C5045EE
:10096000FADAA84500D9454624B1002E01DB780704
:1009700000D5641EB80702D5B8F1000F0AD0F807F9
:1009800008D13CB1A54205D220215846641EFFF78C
:10099000B9FFF6E7002E02DA4E462D2102E0780775
:1009A00003D52B215846FFF7ADFF07F003000228BF
:1009B0000BD1B8F1000F08D13CB1A54205D23021CE
:1009C0005846641EFFF79EFFF6E7CDE90047434611
:1009D00052463146584601F0B9FCBDE8FC9F000084
:1009E00070B50E460446007918494FF4A27501EB24
:1009F0004010017F2068A1B14FF4887101F0B7F871
:100A00004FF49071206801F0B2F84FF492712068B1
:100A100001F0ADF82946206801F0A9F80C492068DA
:100A200009E04FF48E7101F091F82946206801F039
:100A30008DF808492068C0F80413206800F07FFA98
:100A40003146BDE8704000F05EBA0000C0000020F2
:100A500010030200800002002DE9FF470D464FF40D
:100A600092770446394601F061F84FF002094FF0E1
:100A700001084FF4827640B13946204601F05BF818
:100A80003146204601F052F8B0B3B2463146204616
:100A900001F04CF84FF0FF36002770B35146204666
:100AA00001F049F805F10C0001AB07C883E8070025
:100AB00095F8230078B1287B01282DD0D4F84C0577
:100AC000C0B28DF80600287B022828D0D4F84C0547
:100AD000C0B28DF807004FF4B071204601F02BF83A
:100AE0004FF4AE71204601F026F895F8250080B34A
:100AF00095F8230068BB3CE000E013E0A868C4F868
:100B00000803C5F80890A868C4F80403C4F8208056
:100B1000C4F81480BDE8FF87D4F83C05D0E7D4F8CA
:100B20003C05D5E74FF4A471204601F004F8287B7A
:100B300080B14FF40070C4F80002801CA860C4F8B3
:100B40000863A868C4F80403C4F80880C4F82080C7
:100B5000E0E708E005F10C0001AB07C883E80700F7
:100B600095F8250028B90020C4F80002AF60C4F849
:100B70000863D4F8C404C4F8C404810702D58DF80E
:100B8000008006E0400702D58DF8009001E08DF866
:100B9000007095F8250008B985F82470D5E9002182
:100BA00068469047B6E7000070B588B0214800F06D
:100BB00005F92048001F064600F000F91E4DD5E952
:100BC000014105E0C0F3891202EB9050641C04441B
:100BD00004EA010005EB8000C0688207F2D0002023
:100BE0000DF1080204EA010305EB8303641CDB68D2
:100BF00042F82030401C0228F4D3029800F0030091
:100C0000012808D002280AD10298032101EB905054
:100C100004EB900403E00298C0F3831004443046D0
:100C2000002101AAFFF75DFB002800D06C6008B02E
:100C300070BD0000F8050020E001002008B5002785
:100C4000384600F04FFE08B1FFF7B4FD00F0F2FCAB
:100C5000194D032619A1288806EB004000F0E0FD9D
:100C600000F0F6FC0028FBD101F0EAF80124012392
:100C70006A462146154800F0CBF938B92888012783
:100C800006EB0040224612A100F0CEFD00F0E0FC91
:100C90000028FBD1641CE4B27F2CE8D957B928881E
:100CA00015A106EB004000F0BBFD00BF00F0D0FC3A
:100CB0000028FBD1FEE700008C000020545749209B
:100CC0007363616E6E65722E0000000000240000E8
:100CD000545749206465766963652064657465636B
:100CE000746564206174206164647265737320307C
:100CF0007825782E000000004E6F206465766963C9
:100D0000652077617320666F756E642E00000000A9
:100D10002DE9F047C7880446181D16468946B0FBE2
:100D2000F7F1B0FBF7F207FB12009A193A44D21C14
:100D3000B2FBF7F2DDF820A001E02468491E00298B
:100D4000FBD13D1A8846B54216D818E0BAF1000F1B
:100D500005D0211809EB08002A46091D04E02044AB
:100D600009EB08012A46001DFFF706FB0020246856
:100D7000761BA844B74201D9354600E03D46002E17
:100D8000E4D1BDE8F087000030B5024669B100F05B
:100D9000D7FD0021084C0BE001EB410304EB83037A
:100DA00015685B88AB4202D11160002030BD491C40
:100DB0008142F1D3052030BD6800002008B5012133
:100DC0006A46FFF781FA009808BD70B50446002511
:100DD0002846FFF7FAFC21686268086890420ED93D
:100DE000401E08600178238AE26801FB0325227A0D
:100DF0002168101AC0B20A79824200D2087100201C
:100E0000FFF7E5FC284670BD70B505460C4600208E
:100E1000FFF7DBFCE868298A201AB0FBF1F12A68A9
:100E20001068431C13600170BDE870400020FFF79C
:100E3000CEBC10B530B1017A42680368891AC9B2D4
:100E40001A6006E00E2010BD03681A68541C1C606E
:100E50001170491EC9B2F7D200680021017108461D
:100E600010BD000000283ED01F49204A096800BF7D
:100E700000BF00BF00BF00BF00BF00BF00BF914266
:100E80002FD000BF00BF00BF00BF00BF00BF00BF2A
:100E900000BF00BF00BF00BF00BF00BF00BF00BF5A
:100EA00000BF00BF00BF00BF00BF00BF00BF00BF4A
:100EB00000BF00BF00BF00BF00BF00BF00BF00BF3A
:100EC00000BF00BF00BF00BF00BF00BF00BF00BF2A
:100ED00000BF00BF00BF00BF00BF00BF00BF00BF1A
:100EE00000BF0138C3D17047640000200024F40023
:100EF00000F01F02012191404009800000F1E02034
:100F0000C0F8801170474907090E002806DA00F082
:100F10000F0202F1E02282F8141D03E000F1E0224A
:100F200082F8001400F01F02012191404009800066
:100F300000F1E020C0F88012C0F800117047000BEB
:100F400040B270470121B1EB507F01D101207047C1
:100F5000002070470121B1EB507F01D10120704783
:100F6000002070470179064A01EB8101006802EB1D
:100F7000C1010622C0F80025022081F82200704736
:100F80009800002070B506460D4600791F4900EB19
:100F9000800001EBC00494F8220008B1082070BD65
:100FA0000020C4E90023A06084F8250084F8240010
:100FB000A87B84F82700687B10B1284600F0EAFE81
:100FC000296840F20C60890001F1A041C1F80007D6
:100FD0006968890001F1A041C1F80007D5E9001254
:100FE0003068C0F80815C0F80C25A968C0F82415A9
:100FF000206828B13068297B000B40B2FFF783FFDF
:10100000012084F82200002070BD0000980000201C
:101010003EB5074D2C68AD6800948DF80110019223
:1010200002958DF802300022694600F003F83EBDBB
:101030001824000030B40379064C03EB830304EB5F
:10104000C304006813460A460146204630BC00F03F
:101050000DBF0000980000202DE9F0410546007901
:10106000164F904607EB40140E46E07E10B1082064
:10107000BDE8F081707F20772846FFF7BDFB5FEA6F
:10108000080060603169216003D0317F2846FFF796
:10109000A7FC287907EB4010007F0028286801D0C2
:1010A000082100E00421C0F800150020E07520763A
:1010B000A0750121E176A076DAE70000C0000020EB
:1010C0002DE9F047054600793F4E904606EB401467
:1010D0000F46207F18B10846FFF73CFF30B1284685
:1010E00000F074F820B11120BDE8F0871020FBE774
:1010F00084F81680A7600027A78228794FF001089E
:1011000006EB40143E46207F0028286825D04FF487
:101110009079494600F02BFD4FF4AC7A514628688F
:1011200000F025FD2868A17DA268C0F84425C0F81C
:1011300048152868C0F808806068F0B949462868F2
:1011400000F010FD80465146286800F00BFD58EA7B
:101150000001F3D058BBA7750FE04FF48E7A5146CB
:1011600000F0F4FC2868C0F808802146286800F0E8
:1011700099FF61684FF4807089B13046B4E75146F9
:10118000286800F0DEFC10B9A08A4845F7D1A08A93
:10119000484505D02146286800F084FF00E08146DC
:1011A000A08AA17D8842EAD3A08A484501D10F26B2
:1011B000D1E75146286800F0C4FC0028F9D028681F
:1011C000C0F80C80C7E70000C00000200079044987
:1011D00001EB4010807D002800D001207047000006
:1011E000C000002070B5044600791149002601EBCB
:1011F000401520682A7FC0F80065686888B12079AA
:1012000001EB4010007F0028206801D0094901E06F
:1012100008498C39C0F808132068FFF790FEFFF7E3
:1012200067FE204600F0AAFCEE766E6070BD0000FE
:10123000C0000020100302000FB408B50399002974
:1012400004D004AA00926A4600F00FF801B05DF8DD
:1012500014FB10B582680446002A05D0D4E90403C3
:10126000216898470020A06010BD2DE9FC479146F9
:101270000C00804676D014F8011B39B125290ED018
:101280004046FFF73FFB20780028F4D198F80C0087
:10129000002867D04046BDE8FC47FFF7DABF0020D2
:1012A000012221782B291BD02D2902D0302908D1E9
:1012B00002E040F0010001E040F00200641C002A5E
:1012C000EFD100252A290ED02178A1F130020A2A77
:1012D00011D205EB850201EB4205641C303DF1E7BC
:1012E00040F00400EAE7D9F800100B1DC9F80030FF
:1012F0000968641C0D44217800232E290BD114F8B1
:10130000011FA1F130020A2A05D203EB830201EB8F
:101310004203303BF3E76C290DD068290BD06929D3
:1013200021D00BDC252918D0582931D063290ED0C3
:10133000642915D117E014F8011FECE7702969D072
:10134000732932D075291BD0782909D120E0D9F82A
:101350000000011DC9F8001001784046FFF7D2FADD
:10136000641C90E76CE0D9F800100A1DC9F8002051
:101370000968CDE900500A224046FFF7DDFAEFE7A1
:10138000D9F800100A1DC9F8002009680A2206E0F1
:10139000D9F800100A1DC9F8002009681022CDE90B
:1013A0000050404600F0D2FFDAE7D9F800100027DD
:1013B0000A1DC9F800200E68C00705D112E040469A
:1013C000761C7F1CFFF79EFA31780029F7D104E0E4
:1013D000202140466D1EFFF795FABD42C0D9002D71
:1013E000F6D1BDE74EB13046FEF7EAFF074604E00E
:1013F000202140466D1EFFF785FABD4206D9002D1B
:10140000F6D103E04046761CFFF77CFA31780029DC
:10141000F8D1A5E7D9F80000011DC9F8001005684A
:1014200030214046FFF76EFA78214046FFF76AFA0E
:1014300008200021CDE90001034610222946B0E72B
:10144000BDE8FC8770B541EA4201DDE904564FF082
:10145000A04441EA830141EA052104EB800041EA0E
:101460000641C0F8001770BD1CB5002100910B4665
:1014700001220191FFF7E6FF1CBD1CB500220B46BF
:10148000009211460192FFF7DDFF1CBD1CB5002143
:1014900000910B46012201911146FFF7D3FF1CBDBD
:1014A0004FF0A04201218140C2F8081570470000AA
:1014B00030B5124B01460020D3F81044224609E013
:1014C000157A854205D1401C0A28F7DB4FF0FF3022
:1014D00030BD5268002AF3D1421CF9D00872D3F80B
:1014E00010242AB152684A60D3F81024516030BDEC
:1014F0000022C3F810144A6030BD0000E001002053
:10150000F0B595B01C4615460F4608461A9E00F0E9
:10151000E7FA182109A8FEF748FF0E96CDE909540D
:101520000023082203A9384600F0F4FA0598069033
:101530000498ADF81C0000208DF8200003980826C0
:1015400000F00300012802D002281DD03CE00398DF
:101550003346850AC0F3C2008DF81E0003980FA918
:10156000C0F380008DF81F000398C0F38314A2001D
:10157000384600F0CFFA09A8009006AB22460FA922
:10158000284600F009FA1FE00398840DC0F3C2005A
:101590008DF81E000398C0F380008DF81F00082C02
:1015A00001D2254600E0082533462A460FA93846D1
:1015B00000F0B0FA2E44641B09AB06AA29460FA816
:1015C00000F03AF9002CEAD1384600F092FA15B052
:1015D000F0BD7047012000F089BD000010B504483F
:1015E000FFF700FEBDE81040002000F07FBD0000C6
:1015F0000800002008B5034A00924023024AFFF782
:101600007FFF08BDD91C0000E0000020084A012926
:1016100002EBC00005D0022903D0032903D004291E
:1016200003D0002070470079704740797047000070
:101630009C25000010B5FFF7CDFF04210348FFF7FC
:1016400037FF02490120487210BD00001000002041
:101650002DE9FE4FFFF766F910B10020BDE8FE8FBF
:101660006D480021C0F81814BFF34F8FD0E9014630
:1016700004EA060100EB81014FF000090AE000BF17
:10168000C1F3891202EB9151641C0C4404EA060177
:1016900000EB8101C9688A07F2D000216A468046C2
:1016A00004EA060308EB8300641CC06842F82100CA
:1016B000491C0229F4D3009800F00300022802D04C
:1016C00001284DD0A2E000985022810D8A46B2EB4D
:1016D000905F00D850210D4665F39F50009008316F
:1016E0004E4800F0B4F9070077D000F0F9F94B4606
:1016F00008226946384600F013FA04EA0600311A57
:101700008900091D09F1080B8D4222D9424E0C3681
:1017100031B1CAB208EB8000691A91460C3004E07E
:101720003046EAB2002691463146CDB201465B46CC
:10173000384600F0F5F90BEB09032EB12A46314685
:101740004FEA070000F0ECF90AF1030004EB900403
:101750003AE008EB80015B462A4638460C31F1E757
:101760000098C0F38310062800D30620009960F388
:101770008911C1F38310801C00918100274800F07B
:1017800066F9070042D000F0ABF94B4608226946E3
:10179000384600F0C5F909F1080900250EE000BF40
:1017A00004EA060008EB80014B46042238460C315F
:1017B000641C00F0B5F909F104096D1C0098C0F330
:1017C0008310A842ECD847B1D8F81054D8F81804C0
:1017D000464660B1384600F08CF917E0687A012877
:1017E00004D12A6828463946126890476D68002D52
:1017F000F4D1384600F07DF90020FEF7E6FFD6F878
:10180000180400B974600020FEF7E1FFFFF78AF8C2
:1018100080F0010022E70000E001002060240000C9
:1018200000231A4600F06CBA08B5012300926A46FC
:1018300000F066FA08BD00002DE9F0470E4680462C
:101840001C46924608293ED894F80C90002020733C
:101850001946104600F0ECF90025B54206D218F8FA
:1018600005201AA12046FFF7E7FC03E019A1204656
:10187000FFF7E2FC6D1C082DEFD317A12046FFF700
:10188000DBFC0025B54210D218F80570FEF770FD9C
:101890000068C05D10F03E0F01D03A4600E02E22F5
:1018A0000EA12046FFF7C8FC03E00DA12046FFF77C
:1018B000C3FC6D1C082DE5D301222146504600F0E3
:1018C00099F984F80C90BDE8F087000020253032AB
:1018D00078000000202020007C000000256300002C
:1018E00020000000114810B5FF2181600021016037
:1018F0004160C0F81814C0F8141480F81C140C4887
:1019000000F0F5F800280FD10A480B490B4B401A9C
:10191000C108002005E000BF00EB400223F82200D0
:10192000401C8842F8D3002010BD0000E0010020D8
:1019300060240000BC2500009C25000068000020F9
:1019400002480349401AC00870470000BC25000047
:101950009C25000013B56846FFF716FA08B1002071
:101960001CBD0248009950F831001CBD9C250000A8
:1019700070B508480125D0F8104480F81C5405E0E3
:10198000657221682046496888476468002CF7D151
:1019900070BD0000E00100202DE9FF4781460C9D4D
:1019A00000200C462F7B2873984616462946184679
:1019B00000F03EF9072E42D2DFE806F004090F16C8
:1019C0001F2A360049462846FFF736FC37E04946CD
:1019D00028462268FFF730FC31E0D4E9002349466D
:1019E0002846FFF729FC2AE0A0680090D4E90023EC
:1019F00049462846FFF720FC21E0D4E90201CDE961
:101A00000001D4E9002349462846FFF715FC16E0FB
:101A100004F1080007C88DE80700D4E9002349460F
:101A20002846FFF709FC0AE004F108000FC88DE81A
:101A30000F00D4E9002349462846FFF7FDFB0022AA
:101A40002946404600F0D6F82F73BDE8FF872DE900
:101A5000F041058A80462D1F4819C01CB0FBF5F0E7
:101A6000C6B24046FFF7B1F9041E19D0002020711C
:101A700001206071E58000272546761EC4F80080AD
:101A80000BE04046FFF7A1F960B16179491C617133
:101A9000286005467F1CC0F80080B742F1D320467D
:101AA000BDE8F081204600F002F80020F8E72DE9BB
:101AB000F041457901466B1E002201E00968521C85
:101AC0009A42FBD30F680146002605E038460C68B1
:101AD000FFF79AF92146761CAE42F7D3BDE8F081B4
:101AE00008B501216A46001DFEF7C7FB08BDFFF7D8
:101AF000A0B938B50446001D01216A46FEF7CAFBAD
:101B0000009810F0FF0F04D12046BDE83840FFF7E1
:101B1000CEBF38BD38B501240094FFF7F9F838BDC1
:101B200038B500240094FFF7F3F838BD405800287A
:101B300000D00120704708B5002242504058009064
:101B400008BD4058002800D00120704708B5002289
:101B500042504058009008BDD0F80403084000D01F
:101B6000012070474058002800D00120704708B578
:101B7000002242504058009008BD000070B5034656
:101B800000791B4901EB40101968027F4FF0FF30CC
:101B9000002AD1F80C25D1F81465D1F80855D1F8F0
:101BA000104504D0C1F80C05C1F8140503E0C1F8D4
:101BB0001405C1F80C051968C1F80805C1F810052D
:101BC000501C02D01046FFF74FFC701C02D030466C
:101BD000FFF74AFC601C02D02046FFF745FC681C5A
:101BE00004D02846BDE87040FFF73EBC70BD000041
:101BF000C000002010B50C46C17949B11AB109A145
:101C00002046FFF719FB2046BDE81040FFF721BB37
:101C1000007A0028F3D0044804A102682046FFF7A8
:101C20000BFBECE70D0A00004000002025730000CC
:101C300070B50446C0790D4600281CD1207A50B1F9
:101C4000A179A088FFF7E2FC0B4951F820200BA1F5
:101C50002846FFF7F1FAA0880021FFF77BFE034634
:101C60000549A079143951F820202846BDE8704074
:101C700003A1FFF7E1BA70BD40000020257300000A
:101C80003C25733E2025733A2000000070B50546C0
:101C9000C87D0C4600284FF4847128460AD0FFF70F
:101CA00055FFD5F81805627EE1688854607E401CB7
:101CB000607670BDFFF74AFFD5F8180570BD1FB5F7
:101CC00001238DF800308DF808100192D0E9001240
:101CD000684690471FBD000010B5084C0020D2B2E6
:101CE0002070201DFFF7ECF908B1FEF763FD607866
:101CF000002802D021780029FAD010BD040000206D
:101D00002DE9F843224C8846054691461F46694610
:101D10001846A668FEF7CCFD88B3009800EA0601D5
:101D200004EB810252F80C1F21F00301491C401CF6
:101D300011605FEAC56C02D541F0040101E021F0B9
:101D4000040165F3C50167F3891168F39F211160F0
:101D500000EA0602290C04EB8202401CD1600090CC
:101D600000200AE0009959F8203001EA060204EB4D
:101D70008202491CD360401C0091B842F2D394F80F
:101D80001C0401E0FFF764FC0028FBD1BDE8F883E8
:101D9000E00100202DE9F041044640F20C6021688A
:101DA000890001F1A041C1F800076168890001F1D3
:101DB000A041C1F800072068FFF772FB6068FFF7D9
:101DC0006FFB216840F20D60890001F1A041C1F86C
:101DD00000076168890001F1A041C1F800070420F3
:101DE000FFF740F800274FF0A04601252179D6F8EB
:101DF0001005C84010F0010F02D0002F1DD010E0D8
:101E0000217805FA01F0C6F80C050420FFF72AF83E
:101E10002068FFF745FB0420FFF724F87F1C092FFB
:101E2000E4DB20798540C6F80C550420FFF71AF84A
:101E30006068BDE8F041FFF733BBBDE8F08100000A
:101E40001FB5094B0FCB8DE80F00074800231A463A
:101E500069460838FFF796F808B1FEF7ABFC024870
:101E60000838FFF77FF81FBD082400002DE9F05F58
:101E700006461F4615460C464FF0000A4FF0080B69
:101E80004FF482795068FFF75DF800287ED04FF05C
:101E9000FF30C4F8080396F8240028B1B068C4F8ED
:101EA00004031120BDE8F09F780703D4F80601D49D
:101EB000012000E0002086F8240095E8070006F1E4
:101EC0000C0383E80700C7F3001086F82500687844
:101ED000C4F888054FF482712046FFF72CFE4FF4BA
:101EE00092712046FFF727FEF8074FF0010800D057
:101EF0004046C4F85005B80701D5404600E0002030
:101F0000C4F84005287800286CD001287DD002282C
:101F10004ED0032814D04FF0070A380704D428788D
:101F2000032801D044F80B80306800286ED0780771
:101F300002D54FF40070B060B068C4F80403ACE0A0
:101F4000A868FEF7FFFF08B34FF48070C4F80002E2
:101F5000A8786968C4F84415C4F848054FF4A87116
:101F60002046FFF7E8FD4FF4B0712046FFF7E3FD90
:101F70004FF4A4712046FFF7DEFDC4F82080C4F8BA
:101F8000088000BF4FF4A871204600E028E0FFF76A
:101F9000CDFD0028F6D04FF4A8712046FFF7CBFD09
:101FA000E878A968C4F84415C4F848053C4815E029
:101FB000A8786968C4F84415C4F84805A868FEF70D
:101FC000C1FF68B1E878A968C4F83415C4F83805C9
:101FD0004FF48450C4F8000240F20220B0609CE745
:101FE00010205FE7A8786968C4F84415C4F848056C
:101FF000B8060FD54FF48070C4F800022848B060CE
:102000004FF4A4794946204601E00CE01BE0FFF7BD
:1020100092FD05E04FF40070C4F80002801CB0602F
:10202000C4F8208079E7A8786968C4F83415C4F842
:1020300038054FF48050C4F8000240F20220B0602E
:102040004FF0000BECE747464FF482754FF492785F
:102050000BE041462046FFF769FD30B1414620467E
:10206000FFF769FD27626761A94649462046FFF7E9
:102070005DFD0028EDD0D4F8C404C4F8C4040021E8
:1020800086F8241048B10321820701D548F20121C6
:10209000400701D548F202218A46504602E7000077
:1020A0000002040070B50C4605464FF48E71FFF730
:1020B0004DFDA18AA068415CA08A401CA082C5F8A1
:1020C0001C1570BD1FB500228DF800208DF808107A
:1020D000816801918275D0E90012684690471FBD62
:1020E00001490120087070470400002010B588B035
:1020F000044620220E496846FEF73EF9062000906D
:10210000C01F0190029003904FF0EB7006900CB14D
:10211000084A00E0002269460748FEF79DFF08B123
:10212000FEF748FB0448001F447008B010BD0000D3
:1021300040240000E1200000080000202DE9FF47B6
:102140000C4605464FF40071FFF706FD01274FF4DA
:102150000178002618B34FF4927949462846FFF7D4
:10216000F0FCE0B149462846FFF7F0FCC5F80883CB
:10217000A07E00B96F6002208DF80000D5F88004C1
:10218000C5F880040390E07D8DF80800E0680190B8
:10219000E6752676D4E900126846904727E00421C8
:1021A0002846FFF7D9FC10B34FF484712846FFF797
:1021B000C8FCE0B121462846FFF768FDE07D617E5E
:1021C000884214D1207E38B1617EE268E0752069D2
:1021D000E0602676667607E0A07E00B96F60C5F8FD
:1021E0000883E675617EE2682046FFF768FD4FF4DC
:1021F0008E7841462846FFF7A4FC88B1A08AA17DCD
:10220000884204D221462846FFF74CFF08E04146A9
:102210002846FFF79BFCA17D11B12046FFF752FF36
:102220004FF4A27841462846FFF78BFC002812D0D5
:1022300041462846FFF78AFCA07E00B12F60E07D72
:10224000002808D0E675617EE26804B02046BDE84B
:10225000F047FFF734BDBDE8FF872DE9FF410C468D
:102260004FF4927705463946FFF77CFC0026C0B153
:1022700039462846FFF77BFC02208DF80000D5F890
:102280008004C5F880040390D5F83C058DF808005B
:10229000E0680190E6752676D4E90012684690471A
:1022A00024E04FF4887739462846FFF75BFCE8B115
:1022B00039462846FFF75BFCD5F83C05C1B2E07D06
:1022C000884213D1207E60B1E268D5F8000220F088
:1022D0002000C5F80002207EE0752069E0602676C7
:1022E00001E0E675E2682046FFF7E9FC4FF4A277CB
:1022F00039462846FFF736FC68B139462846FFF7CD
:1023000036FCE07D38B1E675D5F83C05E268C1B22F
:102310002046FFF7D4FC4FF4907631462846FFF76D
:1023200021FC00280FD031462846FFF720FCA07D75
:10233000002808D0D5F84C0504B0C1B22046BDE84D
:10234000F041FFF7BFBEBDE8FF8100002DE9F05F5F
:102350008346DDE90A4A994690460D46084601271C
:1023600003E000BFB0FBF8F07F1C4045FAD2B9454E
:1023700000D94F465FEACA7012D18CB15FEA8A7009
:1023800002D5B9F1000F01D0202607E0302605E084
:1023900031465846641EFEF7B5FA0CB1A742F7D392
:1023A0005FF00106B9F1010F02D9A9F1010903E0BB
:1023B000B5FBF6F0404502D306FB08F6F2E7DFF87E
:1023C0003C9000BFB5FBF6F000FB165519F8001065
:1023D0005846FEF797FAB6FBF8F6002EF2D15FEA00
:1023E000CA7009D0002C07D0A74205D22021584638
:1023F000641EFEF787FAF5E7BDE8F09F242400008D
:1024000000300040000100001B0000001A00000026
:102410000000980102000000010000000000000020
:10242000000000003031323334353637383941421C
:1024300043444546F5150000DD150000D3150000A6
:10244000FFFFFFFFFFFFFFFFFFFFFFFFFFFFFFFF9C
:1024500000000000000000000000D601070100009D
:10246000240000201C000020240000202001002067
:102470001800000000404040404040404040414182
:102480004141414040404040404040404040404049
:1024900040404040400502020202020202020202E3
:1024A00002020202022020202020202020202002E0
:1024B0000202020202029090909090901010101070
:1024C000101010101010101010101010101010100C
:1024D00002020202020288888888888808080808A0
:1024E000080808080808080808080808080808086C
:1024F0000202020240000000752400007761726E43
:10250000696E670064656275670000001B5B313BA4
:1025100033306D001B5B306D000000001B5B313BF6
:1025200033316D001B5B313B33326D001B5B313B44
:1025300033336D001B5B313B33346D001B5B313B30
:1025400033356D001B5B313B33366D001B5B313B1C
:1025500033376D00696E666F000000006572726F40
:1025600072000000747769007561727400000000E9
:1025700062616C6C6F63000061707000BC250000CC
:1025800000000020980000001C07000054260000F6
:1025900098000020682500002C070000642500003A
:1025A0000000000068250000000000007025000009
:1025B000000000007825000000000300000000007B
:1025C0000000000000200040000000003424000053
:1025D00000000000000000000000000000000000FB
:1025E0000000000000000000000000005C2500006A
:1025F000FC240000542500000425000014250000E0
:102600000C2500001C250000242500002C250000BE
:10261000342500003C250000442500004C25000026
:102620000090D00300000000000000000000000047
:10263000000000000000000000000000000000009A
:10264000000000000000000000000000000000008A
:042650000000000086
:0400000500000201F4
:00000001FF
