:020000040000FA
:10000000E84800200D04000015040000170400005B
:10001000190400001B0400001D0400000000000083
:100020000000000000000000000000001F040000AD
:10003000210400000000000023040000250400004B
:1000400027040000270400001D1B000027040000F7
:1000500027040000270400002704000027040000F4
:1000600027040000270400002704000027040000E4
:1000700027040000270400002704000027040000D4
:1000800027040000270400002704000027040000C4
:1000900027040000270400002704000027040000B4
:1000A00027040000270400002704000027040000A4
:1000B00027040000270400000000000000000000EA
:1000C0002704000027040000270400002704000084
:1000D000270400002704000027040000000000009F
:1000E0000000000000000000000000000000000010
:1000F0000000000000000000000000000000000000
:1001000000000000000000000000000000000000EF
:1001100000000000000000000000000000000000DF
:1001200000000000000000000000000000000000CF
:1001300000000000000000000000000000000000BF
:1001400000000000000000000000000000000000AF
:10015000000000000000000000000000000000009F
:10016000000000000000000000000000000000008F
:10017000000000000000000000000000000000007F
:10018000000000000000000000000000000000006F
:10019000000000000000000000000000000000005F
:1001A000000000000000000000000000000000004F
:1001B000000000000000000000000000000000003F
:1001C000000000000000000000000000000000002F
:1001D000000000000000000000000000000000001F
:1001E000000000000000000000000000000000000F
:1001F00000000000000000000000000000000000FF
:100200004B1C012B98BF70472DE9F003911C9B08F4
:10021000B1F80480B1F802900A8831F802CC804429
:10022000814402448444D9F80070D8F8006015680D
:10023000DCF80040C9F80060C8F80070CCF8005045
:100240001460D9F80470D8F804605568DCF80440EC
:10025000C9F80460C8F80470CCF804505460083140
:100260005B1ED5D1BDE8F00370474B1C012B98BF36
:1002700070472DE9F003911C9B08B1F80480B1F898
:1002800002900A8831F802CC00EB580800EB5909BB
:1002900000EB520200EB5C0CD9F80070D8F800605B
:1002A0001568DCF80040C9F80060C8F80070CCF8A8
:1002B0000050146008315B1EDFD1BDE8F0037047C9
:1002C000DFF80CD001F046F800480047B12A0000E2
:1002D000E848002030B4044654E8000F0D4644E8D6
:1002E0000053002BF8D1156030BC704730B4044681
:1002F00054E8000F40EA010544E80053002BF7D111
:10030000156030BC704730B4044654E8000F00EA72
:10031000010544E80053002BF7D1156030BC70474D
:1003200030B4044654E8000F80EA010544E8005365
:10033000002BF7D1156030BC704730B4044654E848
:10034000000F00EB010544E80053002BF7D11560C6
:1003500030BC704730B4044654E8000FA0EB0105F0
:1003600044E80053002BF7D1156030BC7047000003
:1003700030B4044654E8000F0D4644E80053002B07
:10038000F8D1156030BC704730B4044654E8000F13
:1003900040EA010544E80053002BF7D1156030BC5A
:1003A000704730B4044654E8000F00EA010544E801
:1003B0000053002BF7D1156030BC704730B40446B1
:1003C00054E8000F80EA010544E80053002BF7D100
:1003D000156030BC704730B4044654E8000F00EBA1
:1003E000010544E80053002BF7D1156030BC70477D
:1003F00030B4044654E8000FA0EB010544E8005374
:10040000002BF7D1156030BC7047000006488047CC
:1004100006480047FEE7FEE7FEE7FEE7FEE7FEE7E9
:10042000FEE7FEE7FEE7FEE721180000C10200003C
:100430009FED3D0A5FEA920C57D000BFD0ED000A55
:1004400090ED011A0B1D60EEA00A083041EE010A82
:10045000F5EEC00AF1EE10FAA6BFB1EEE01A81ED9A
:10046000001A81ED000AD0ED000A90ED011A191D65
:1004700060EEA00A083041EE010AF5EEC00AF1EE86
:1004800010FAA6BFB1EEE01A83ED001A83ED000A60
:10049000D0ED000A90ED011A0B1D60EEA00A0830A5
:1004A00041EE010AF5EEC00AF1EE10FAA6BFB1EE78
:1004B000E01A81ED001A81ED000A90ED001AD0EDEE
:1004C000010A191D21EE011A083000EEA01AB5EE3E
:1004D000C01AF1EE10FAA6BFF1EEC10AC3ED000A90
:1004E00083ED000ABCF1010CA8D112F0030208BF91
:1004F000704700BFD0ED000A90ED011A0B4660EE88
:10050000A00A091D083041EE010AF5EEC00AF1EE1D
:1005100010FAA6BFB1EEE01A83ED001A83ED000ACF
:10052000521EE7D170470000000000002DE9F041A5
:1005300006462DED028B8C460088736801EB800423
:100540004508274601EB850004EB85025FEA950824
:100550007DD000BFD1ED003AD4ED001A91ED012A13
:1005600094ED013A73EEA16A91ED024A91ED031AFE
:10057000D4ED022AD4ED035A90ED008A90ED017A71
:1005800090ED020A90ED036A92ED005AD2ED014A15
:10059000D2ED027AD2ED030AC1ED006A72EE036A6F
:1005A00073EEE13A74EEC71AC1ED016A74EE226A85
:1005B00074EE622A37EEC04AC1ED026A71EE256A16
:1005C000C1ED036A72EE436A31EE652A38EE051A10
:1005D00035EE483A80ED001A37EE241A80ED011A04
:1005E00030EE271A80ED021A36EE201A80ED031A3B
:1005F00030EEC61A93ED000AD3ED010A63EE804A8D
:1006000026EEA05A66EE805A63EEA03A74EE854A52
:1006100075EEE33AC4ED004A63EE204AC4ED013AB8
:1006200061EE803A61EEA00A23EE000A74EEE31A4E
:1006300030EE800AC2ED001A82ED010A93ED020A43
:10064000D3ED030A62EE803A22EE203A00E024E085
:1006500062EEA01A22EE002A73EE832A10301031C7
:1006600072EE611AC4ED022A24EE202AC4ED031AA8
:1006700061EE001A61EE200A24EE000A103332EE19
:10068000611A103430EE800A82ED021A82ED030AFC
:100690001032B8F101087FF45DAF294602236046AD
:1006A000726800F041FB72682946BDEC028B384647
:1006B000BDE8F041022300F037BB2DE9F34F2DEDEB
:1006C000048B87B00B980088470801EB870000EB8C
:1006D000870606EB8705CDE90056DDF82C80A5F1ED
:1006E000040C0CEB8703CDE902014FEA5709D8F857
:1006F00004800427CDE90497D1ED000A96ED000AA5
:1007000090ED011A95ED013A70EE802A70EEC03A34
:10071000D1ED010A96ED010A041F321F30EE802A46
:1007200070EEC01A31EE230AD0ED000A32EE415AC3
:1007300033EEC11A30EE434A71EEE04A95ED000AFD
:1007400070EEA11A35EE435A74EE805A72EEE04A0A
:1007500070EEA20A71EEC01A31EE031A74EEC04AAE
:1007600030EE800A062708F1080A81ED000A90EDB4
:10077000010AD5ED010A08F1100B30EE020A08F16A
:10078000180830EE200A81ED010A80ED004AC0ED24
:10079000015AC6ED004A86ED015A85ED001AC5EDF5
:1007A000011ADDF810900830083108350836A9F133
:1007B00002095FEA590900F0078100BFD1ED000A84
:1007C00096ED000AD0ED011AD5ED014A30EE802AEF
:1007D00030EEC05AD1ED010A96ED010A70EE802A82
:1007E00030EEC01A31EE850AD5ED000A30EE644ACB
:1007F00090ED000A31EE403A30EE011A73EE205AC5
:1008000032EE403A30EE020A31EE601A73EE603A90
:1008100030EE200A32EEE13A75EE611A81ED000AFF
:1008200090ED010AD5ED010A33EE643A30EE220A6A
:1008300071EEA41A30EE200A81ED010AD4ED002AEF
:10084000DCED004A54ED010A1CED010A32EEA47AF7
:1008500032EEE49A72EEE42A52ED018A70EE807A6A
:1008600030EEC02A72EEE82AD2ED000A93ED000ABB
:1008700013ED018A30EEC05A72EE886A77EEE82AEC
:1008800035EE026A32EEC85A77EE602A72EEC04A3E
:1008900070EEC02A70EE870A72EEC22A30EE800A2D
:1008A00038EE682A84ED000A12ED010A53ED010AC0
:1008B00032EE492A30EE270A30EE200A04ED010A12
:1008C0009AED000ADAED010A64EE007A25EEA07ACC
:1008D00065EE805A24EE204A37EE877A35EEC44A18
:1008E00080ED007A80ED014A26EEA04A66EE005ABD
:1008F00066EE200A26EE800A083034EE654A08319A
:1009000030EE800A82ED004A083C02ED010A9BEDC0
:10091000000ADBED010ADDF814E023EE804A63EE05
:10092000205A23EE003A63EEA03A083A34EE254A04
:100930000BEB8E0B33EE633A86ED004A0AF1080AA0
:1009400086ED013AB1EE643A083663EE003A25EEE0
:10095000203A25EE000A64EEA00A33EEC33A30EEE8
:10096000C00A8CED003A0CED010A98ED000AD8EDB2
:10097000010A08EB870861EE803A21EE203A21EE69
:10098000001A61EEA01AACF1080C33EE833A31EE96
:10099000611A85ED003A62EE801A85ED011A22EEA9
:1009A000201A62EEA00A22EE000A083531EE611A22
:1009B00030EE800A83ED001A03ED010A083BB9F11D
:1009C00001097FF4FBAE00BFD1ED000A96ED000AED
:1009D00091ED011AD0ED015A30EE802A70EEC00A76
:1009E00096ED010A95ED015A042371EE001A71EE9D
:1009F000404A35EEA00A90ED001A31EEE54A70EE5D
:100A0000E50A30EE453A95ED000A34EE454A30EEFF
:100A1000855A74EEC12A72EE413A71EE240A31EE23
:100A2000021A72EE802A73EEC03A70EEC00A31EEFE
:100A3000000A81ED000A90ED010A95ED011A30EEF1
:100A4000210A30EE010A81ED010A9AED000A9AEDC1
:100A5000011A63EE001A22EE812A22EE800A23EEAA
:100A6000011A71EE821A30EE410AC0ED001A80EDD3
:100A7000010A9BED000A9BED011A63EE801A24EE39
:100A8000012A24EE000A23EE811A71EE821A30EE5A
:100A9000410AC6ED001A86ED010A98ED010A98EDAB
:100AA000001A60EE801A25EE012A60EE810A25EE1A
:100AB000000A32EE211A30EEC00A85ED001A85EDEB
:100AC000010A0B984268DDE9030100F02DF90B984B
:100AD000042304994268029800F026F90B98042335
:100AE00004994268019800F01FF90B9804990423B7
:100AF0004268009807B0BDEC048B02B0BDE8F04F2F
:100B000000F012B92DE9F0410488984617460D46C9
:100B10000646012A20D1281DF4B1A0F1080114F0E5
:100B2000010F06D091ED020AB1EE400A81ED020AF2
:100B300008315FEA540C0FD091ED020AB1EE400A81
:100B400081ED020A91ED040AB1EE400A81ED040A3A
:100B50001031BCF1010CEFD1B4F5807F1BD008DC63
:100B6000102C13D0202C16D0402C19D0802C0DD056
:100B70001CE0B4F5007F13D0B4F5806F06D0B4F557
:100B8000006F08D0B4F5805F0AD00FE029463046E8
:100B9000FFF7CCFC0AE029463046FFF78EFD05E062
:100BA000214601232846726800F0BEF8B8F1000F14
:100BB00004D0B1892846B268FFF722FB012F18BF85
:100BC000BDE8F08100EE104AB7EE001A002CF8EEF6
:100BD000400A81EE200A08BFBDE8F081A5F10800B7
:100BE00014F0010F0ED0D0ED020A60EE800AC0EDC5
:100BF000020AD0ED030AF1EE600A60EE800AC0ED51
:100C0000030A0830610808BFBDE8F081D0ED020A90
:100C100060EE800AC0ED020AD0ED030AF1EE600A30
:100C200060EE800AC0ED030AD0ED040A60EE800A8F
:100C3000C0ED040AD0ED050AF1EE600A60EE800A0C
:100C4000C0ED050A1030491EE0D1BDE8F08100007A
:100C500070B44FF0000CB0EC010A4E1E6446B508AB
:100C600031D000BFD0ED000A90ED011A0830B4EE8B
:100C7000E00AF1EE10FA3CBFB0EE600A0CF101049C
:100C8000F0EC010AB4EEC10AF1EE10FA3CBFB0EE8E
:100C9000410A0CF10204B0EC011AB4EEE00AF1EEE4
:100CA00010FA3CBFB0EE600A0CF10304B4EEC10AC6
:100CB000F1EE10FA3CBFB0EE410A0CF104046D1ED7
:100CC0000CF1040CCED106F0030C5FEA0C0617D031
:100CD000B6F1004F19D2002EC8BF002510DD00BFAD
:100CE000D0ED000AF4EEC00AF1EE10FA04DD4C1962
:100CF000B0EE600AA4EB0C04001D6D1C761EEFD153
:100D000082ED000A1C6070BC7047F0EC010AB4EE82
:100D1000E00AF1EE10FA3CBFB0EE600AA1EB0C0461
:100D2000BCF1010CF1D1EBE72DE9FF4F2DED108B5C
:100D300082B09FEDFEFA0B461C46DB084FF0000C1C
:100D40000CEB030505EB030808EB030909EB0306AD
:100D500006EB030A00EBCC0700EBC60697ED001A82
:100D6000D6ED000A0AEB030B00EBC50500EBCA0A3F
:100D700031EE200A71EE601A95ED002ADAED000AD4
:100D80000BEB030E00EBC80832EE201A00EBCB0B86
:100D900032EE602AD8ED002ADBED000A00EBC9092B
:100DA00000EBCE0E99ED003A9EED004A72EEA03AAD
:100DB00072EEE02A73EE040A33EE443A70EE636A90
:100DC00070EE233A31EE600A71EE200A33EEA01A7B
:100DD00073EEE00A87ED001AC6ED000A97ED011ADE
:100DE000D6ED010AD5ED013A98ED014A31EE206ABF
:100DF00071EE600A9AED011A99ED015A73EE814A7B
:100E000073EEC13A9BED011A34EE017A34EE411AC9
:100E10009EED014A75EE045A35EE444A36EE475AC5
:100E200036EE076A34EEE57A74EEA54A76EE245A79
:100E300076EE644AC7ED015AC6ED014A76EE874A5E
:100E4000C8ED004A76EEC74ACBED004A75EE404A3F
:100E500035EE000AC8ED014A8BED010A32EE430A75
:100E600032EE032A20EE0F0A62EE0F4A33EEC42A56
:100E7000A4448C4522EE0F3A33EE842A30EEC34A66
:100E800062EE0F3A30EE833A31EEC02A31EE800A3C
:100E900071EE630A31EE231A72EEE41A72EEA42A9E
:100EA00070EE013A30EE410AC5ED003A8EED000ACF
:100EB00032EE200A8AED000A32EE600A89ED000A5D
:100EC00033EE620A85ED010A33EE220A8EED010A45
:100ED00034EE610A8AED010A34EE210A89ED010A35
:100EE000FFF42EAF082B3FBF02B0BDEC108B04B057
:100EF000BDE8F08F4FF0000CCDF804C04FF0010CAE
:100F0000CDF800C0DDF804C0159DAC444FEA8C0557
:100F100005EB0C07CDF804C007EB0C094FEA4C08B1
:100F200008EB0C0609EB0C0A02EBCC0C02EBC80830
:100F300002EBC60602EBC50502EBC70702EBC909C7
:100F400002EBCA0A9CED00DA9CED018AD8ED00CADA
:100F500096ED00CAD5ED00BA97ED00BAD9ED00AA1A
:100F6000DAED008AD8ED017A96ED01AA95ED017AC5
:100F7000D7ED016A99ED016ADAED019ADDF800C05A
:100F80000CEB0307FD1805EB030A0AEB030808EB5B
:100F9000030606EB030B00EBCC0900EBC808D9ED08
:100FA000000A98ED000A00EBC70700EBC606D7ED74
:100FB000001A96ED001A70EE803A0BEB030E70EEFD
:100FC000C00A31EE810A00EBC50500EBCB0B31EE18
:100FD000C11AD5ED001A9BED002A00EBCA0A00EBFE
:100FE000CE0E31EE824A71EEC21A9AED002ADEED83
:100FF000002A32EE223A32EE622A73EEC42A73EEEF
:10100000843A30EE435A30EE030A33EE803A73EE00
:10101000C0DA89ED003A99ED010A98ED013AD7ED71
:10102000013A95ED014A70EE03EA30EE433A96ED4F
:10103000010A9AED01EADEED014A33EE809A73EE81
:10104000C03A9BED010A74EE005A34EE404A3EEE7F
:10105000240A7EEE644A3EEEE5EA7EEEA55A79EE7B
:1010600040EA39EE009A32EEAE0A72EEEE2A75EEE2
:1010700089EA35EEC99A7EEE455AC9ED01EA3EEE9F
:10108000055A2BEEADEA67EE09EA2BEE899A67EE78
:101090002DDA3EEE2EEA39EE6D9A88ED00EA67EE23
:1010A000A5DA88ED019A2CEE809A6CEEA55A27EE0F
:1010B000800A39EE2D9A35EEC00A85ED009A66EE6B
:1010C000055A85ED010A2AEEA20A2AEE855A66EE35
:1010D000222A30EE250A8BED000A35EE620A73EE05
:1010E000A42A8BED010A31EE420A31EE021A33EEE8
:1010F000E42A62EE8F3A20EE0F0A21EE0F1A22EE5A
:101100000F2A70EEC02A30EE800A71EEC10A71EE2D
:10111000811A33EE421A33EE022A34EE633A34EE89
:10112000234A70EE043A30EE444A01E0F304353FBE
:1011300072EE834A72EEC32A32EE613A32EE210A2F
:1011400071EE601A71EE200A2DEE232A28EE031AA2
:101150002DEE033A68EE233AA44432EE011A28EE4B
:10116000842A8C4587ED001A33EE631A29EE843AFF
:1011700087ED011A29EE801A28EE800A32EE011A54
:1011800030EE430A26EEA42A8EED001A8EED010AF7
:101190002BEE240A26EEA11A6BEE211A30EE010A7C
:1011A0002CEE221A86ED000A31EEC20A6AEE221AED
:1011B00086ED010A2AEE200A6CEE200A31EE000AC2
:1011C0008AED000A30EEE10A8AED010AFFF4D8AE9A
:1011D000DDF800C00CF1010CCDF800C063453FF60E
:1011E00091AEDDF854C04FF6FF7404EACC0CCDF894
:1011F00054C0072B3FF6A0AD02B0BDEC108B04B07D
:10120000BDE8F08F004870470C4300000649074ACC
:101210000868504343F239021044086040087047A0
:101220000149086070470000700000206D4EC64103
:1012300040EA01039B0703D009E008C9121F08C058
:10124000042AFAD203E011F8013B00F8013B521ED8
:10125000F9D27047D2B201E000F8012B491EFBD24F
:1012600070470022F6E710B513460A4604461946B1
:10127000FFF7F0FF204610BD421C10F8011B0029AB
:10128000FBD1801A704700F0004230F000400AD0D5
:10129000C10D01F56071C0F3160042EA0151C208A8
:1012A00040071143704700200146704701F000439A
:1012B00030B421F0004150EA010206D00A0DA2F537
:1012C0006072C1F31301002A02DC30BC00207047B9
:1012D000440F44EAC104C100E01830BC00EBC25026
:1012E000AFF300800029A8BF7047401C490008BF29
:1012F00020F00100704710B4B0FA80FC00FA0CF046
:1013000050EA010404BF10BC704749B1CCF120047D
:1013100021FA04F411FA0CF118BF0121214308430A
:10132000A3EB0C01CB1D4FEA00614FEA102042BF36
:10133000002010BC704700EBC35010440029A4BF2C
:1013400010BC7047401C490008BF20F0010010BCD1
:1013500070470000064C074D06E0E06840F00103CE
:1013600094E8070098471034AC42F6D3FEF7ACFF80
:10137000AC440000CC4400002DE9FE4F804681EAD9
:101380000300C00F0C46009021F0004123F00045FF
:10139000B8EB0200A94105D24046214690461C46C2
:1013A0000B46024623F00040104347D0270DC7F3F9
:1013B0000A00C3F30A510290401A019040286BDAE8
:1013C000C3F3130040F4801B0098924620B1002321
:1013D000D2EB030A63EB0B0B01985946C0F14002B4
:1013E000504600F08EF906460D4650465946019A81
:1013F00000F0A6F910EB08006141002487EA1152C1
:1014000084EAE7731A4340D0009A62B3019A012A32
:101410004FEA075215DC001B61EB02014FF000425E
:1014200002EA0752CDE90042001C41F58011324624
:101430002B4600F0A6F903B0BDE8F08F40462146E8
:10144000F9E7001B61EB0201001C41F58013001855
:101450005B412018A2F5001747EB030140EAD57065
:10146000B6196D4111E06D084FEA360645EAC075C0
:101470004FEA0752001B61EB0201001C41F580118D
:1014800049084FEA30000019514132462B4603B05B
:10149000BDE8F04F00F066B900980122400000233B
:1014A000D0EB020263EBE073009821464FEAE07450
:1014B000B8EB000061EB0401E9E783F000435BE770
:1014C00081F0004158E72DE9FE4F81EA030404F062
:1014D000004421F0004100944FF0000B23F0004342
:1014E00050EA01045ED052EA03045BD0C3F30A540D
:1014F000C1F30A552C44A4F2F3340194A0FB025426
:10150000C1F3130141F48011C3F3130343F48013B7
:1015100001FB024400FB034E840A970A44EA81540B
:1015200047EA8357A4FB076802958D0A05FB0785E8
:101530004FEA932C04FB0C542705029D4FEA0658F2
:1015400047EA1637B5EB08056EEB070C870E920ECF
:1015500047EA811742EA8312A7FB0201B6EB0B01AF
:1015600064EB00042B0D43EA0C335E1844EB1C5073
:10157000DA465146E7FB0201C5F313044FEA0B3389
:1015800043EA14534FEA0432019C43EA0603A4F1F0
:101590000C040294009CCDE900B400F0F2F803B012
:1015A000BDE8F08F00200146F9E72DE9F04D81EA12
:1015B000030404F0004B21F0004514464FF0000AEC
:1015C00023F0004150EA050220D054EA01021DD068
:1015D000C5F30A570246C5F31303C1F31300C1F361
:1015E0000A5640F4801543F48013A7EB0608101B3D
:1015F000D64608F2FD3873EB050002D308F1010866
:1016000001E092185B41B8F1000F03DA00200146B7
:10161000BDE8F08D00204FF48011064684460EE0B0
:10162000171B73EB050705D3121B63EB050306437A
:101630004CEA010C49084FEA300092185B4150EA2D
:101640000107EDD152EA030012D082EA040083EAD6
:101650000501084305D0101BAB4106D2012200232F
:1016600006E000224FF0004302E06FF00102531049
:101670001AEB06004CEB085110EB0A0041EB0B0192
:10168000BDE8F04D00F06EB80EB5C10F80EAE07015
:101690000844CA07002140F233438DE80E000A4691
:1016A0000B4600F06EF803B000BD0EB540F23341BA
:1016B00002910021CDE900110A460B4600F061F8C5
:1016C00003B000BD70B5C1F30A5201F0004500241B
:1016D000C1F3130140F2FF3341F480119A4201DA61
:1016E000002070BD40F233439A42A2F2334203DC41
:1016F000524200F015F800E090402C43F1D04042F7
:1017000070BD202A04DB203A00FA02F10020704765
:101710009140C2F1200320FA03F31943904070472F
:10172000202A04DB203A21FA02F00021704721FA36
:1017300002F3D040C2F1200291400843194670479D
:10174000202A06DBCB17203A41FA02F043EAE07385
:1017500006E041FA02F3D040C2F120029140084372
:101760001946704710B5141E73F1000408DA401CC6
:1017700041F1000192185B411A4301D120F00100B0
:1017800010BD2DE9F04D92469B4611B1B1FA81F2A0
:1017900002E0B0FA80F220329046FFF7B2FF044632
:1017A0000F4640EA0A0041EA0B0153465A460843F5
:1017B00013D0114653EA010019D0C8F14002504637
:1017C000FFF7AEFF05460E46504659464246FFF724
:1017D00098FF084305D0012004E020463946BDE8C3
:1017E000F08D0020054346EAE0762C4337430A9803
:1017F0006305E40AA0EB08000022FD0A44EA47540E
:101800000A3002D500200146E9E7010510196941B7
:10181000DDE9084500196941BDE8F04DA2E7000087
:10182000F0B5AE480023021D01780125101D4FF0D0
:10183000805406290BD11678360708D10678C6F3EE
:101840000316032E06D0042E04D0052E02D006293E
:1018500007D00EE0B4F82463A14FC6F304263E601F
:1018600002E01678360704D10678C6F30316032E75
:1018700002D0062904D00FE09B4F9A4E7E670EE0FF
:101880001678360708D10678C6F30316032E06D05D
:10189000042E04D0052E02D0062907D00EE0D4F87D
:1018A0004462924FC6F342363E6002E01678360735
:1018B00004D10678C6F30316032E02D0062906D0FB
:1018C00011E08B4E376827F0807737600EE016788E
:1018D000360708D10678C6F30316032E06D0042E69
:1018E00004D0052E02D006290AD011E04FF0804620
:1018F000C6F80C31C6F810317C4E361F336002E05A
:101900001678360704D10678C6F30316032E02D0E4
:10191000062905D00CE0754F032664373E600AE0C7
:101920001678360704D10678C6F30316032E02D0C4
:1019300006290DD014E06F4F05263E606D4E7836B7
:1019400035606C4E083633603F263F1D3E6002E036
:101950001678360704D10678C6F30316052E02D092
:10196000062957D062E0644E3668644F3E60624E8E
:10197000361D36683F1D3E605F4E083636683F1D97
:101980003E605D4E0C3636683F1D3E605A4E103646
:1019900036683F1D3E60584E143636683F1D3E6027
:1019A000554E18363668554F20373E60524E1C361D
:1019B00036683F1D3E60504E203636683F1D3E6003
:1019C0004D4E243636683F1D3E604B4E28363668F5
:1019D0003F1D3E60484E2C3636683F1D3E60464EE9
:1019E00030363668454F40373E60434E34363668B1
:1019F0003F1D3E60404E383636683F1D3E603E4ECD
:101A00003C3636683F1D3E603B4E403636683F1DD3
:101A10003E6002E01678360708D10678C6F3031652
:101A2000032E06D0042E04D0052E02D0062907D09E
:101A300019E0D4F85812324A01F04F01116002E067
:101A4000117809070FD10078C0F30310032803D0E1
:101A5000042801D0052806D12A480168C90702D008
:101A60006FF00101016022487438016841F470018F
:101A70000160BFF34F8FBFF36F8F4FF01021D1F88C
:101A80000002002803DBD1F80402002822DA1E4AF3
:101A900015601E480468002CFCD01524C1F80042D3
:101AA0000568002DFCD0C1F8044201680029FCD073
:101AB000136001680029FCD0BFF34F8F0C48F03849
:101AC0000168134A01F4E06111430160BFF34F8FD5
:101AD00000BFFDE710490F480860F0BDE00F00F0BF
:101AE000403501400DF0ADBA00C007403C05004054
:101AF000FCED00E0105600400404001020C500403A
:101B0000E40E00400004004004E5014000E4014010
:101B10000400FA050090D0036C0000200448017F07
:101B200004480029024901D002F073B902F0E2B87A
:101B3000A40300200020004003B401984100009855
:101B400050EAC12018BF04204A0D18BF40F0010020
:101B500040F2FF72B2EB515F08BF40F00200012873
:101B600008BF052002B0704710B52F499FED2C1B10
:101B70002DED020B84B0059820F000408842DCBFB8
:101B800000209DED040B32DD2849884209D10498DC
:101B900040B94FF0010000F06FFC00F03DFC06B0D2
:101BA00010BD05DB9DED040B00F02AFC06B010BD56
:101BB00068469DED040B00F03BF810F0030011D0D7
:101BC000012818D09DED021B9DED000B02281AD0B4
:101BD00000F04AFA51EC100B81F0004106B041ECE4
:101BE000100B10BD9DED021B9DED000B012000F0C0
:101BF0006FFB06B010BD9DED021B9DED000B00F0CC
:101C000033FA06B010BD012000F062FB51EC100B5E
:101C100081F0004106B041EC100B10BD0000000047
:101C20000000000000000000FB21E93F0000F07F01
:101C30002DE9F14F04462DED020B2DED088B8AB0F6
:101C40009FEDE70B80ED020B139EE74826F0004561
:101C500085420ADC9DED120B002084ED000B0AB0DA
:101C6000BDEC088B03B0BDE8F08FE0489FEDE0AB22
:101C70009FEDE1BBA84247DDE14F9FEDE39B9FED68
:101C8000E48B9DED120B53EC1A2B51EC100B002E34
:101C90001CDDFFF712FC41EC100BBD4208D053ECE9
:101CA0001B2B51EC100BFFF708FCC4E900010BE003
:101CB00053EC192B51EC100BFFF7FFFB53EC182BD7
:101CC000FFF7FBFBC4E900010120C8E7FFF754FB65
:101CD00041EC100BBD4208D053EC1B2B51EC100B08
:101CE000FFF74AFBC4E900010BE053EC192B51EC60
:101CF000100BFFF741FB53EC182BFFF73DFBC4E93A
:101D000000014FF0FF30AAE7C348A84279DB9DED00
:101D1000120B51EC100B00F069FD41EC180B9FED1C
:101D2000C00B53EC102BFFF7CEFB9FEDBF1B53EC0A
:101D3000112BFFF721FBFFF7C5FC0746FFF7A4FCBB
:101D400041EC190B53EC1A2BFFF7BDFB53EC182B8E
:101D5000FFF7B6FB41EC180B53EC1B2B51EC190BA6
:101D6000FFF7B1FBDFF8C8A241EC100B4FEA1558A2
:101D70000125FA4453EC102B51EC180BFFF79DFB97
:101D8000032DC4E900013DD0C1F30A5005EB451114
:101D9000A8EB00001139814234DA0AEB051BB0EEE2
:101DA00048AA9BED000BF0EE68AA53EC102B51EC07
:101DB000190BFFF788FB41EC1B0B51EC1A0B53EC92
:101DC0001B2BFFF77AFB41EC180B51EC1A0B53EC71
:101DD000182BFFF772FB53EC1B2BFFF76EFB9BEDF1
:101DE000020B41EC1A0B53EC102B51EC190BFFF7C3
:101DF0006AFB53EC1A2BFFF760FB41EC100B6D1CD8
:101E0000B8E70EE0002EA8BF3846BFF628AF94ED25
:101E1000000B51EC100B81F00041C4E90001784245
:101E20001DE7C6F3130040F4801EC6F30A50A0F26B
:101E3000F530471100F01F05C5F12000DDF848B06E
:101E400008900020069007900520EC467949002D67
:101E500007EB0002794408BF51F8221009D051F86D
:101E6000223001EB8201AB404A68089922FA01F165
:101E70001943A1FB0E26A1FB0B131A449A4234BF4F
:101E80000123002303EB06080CEB8003D3E901A632
:101E90000E448E4234BF0121002192448A4411B184
:101EA000924502D903E0924501D2012100E00021D0
:101EB000C3E901A641444CF82010011EA0F1010025
:101EC000C4DC029800F10050850F0298DDE9036739
:101ED0008000DDF81480FFF7D7FB41EC1A0B304689
:101EE000FFF7E3FB9FED541B53EC112BFFF7EBFACD
:101EF00041EC1B0B3846FFF7D8FB9FED511B53EC11
:101F0000112BFFF7E0FA41EC180B4046FFF7CDFB31
:101F10009FED4D1B53EC112BFFF7D5FA41EC190B3C
:101F200051EC180B53EC192BFFF726FA53EC1B2B33
:101F3000FFF722FA53EC1A2BFFF71EFACDE908013E
:101F4000002008909DED080B53EC1A2B51EC100B60
:101F5000FFF7B3FA53EC1B2BFFF7AFFA53EC182B38
:101F6000FFF7ABFA53EC192BFFF7AAFA9FED381BDA
:101F700053EC112BFFF7A7FA9FED370B41EC180B31
:101F800053EC102B9DED080B51EC100BFFF79BFA57
:101F900053EC182BFFF7F0F99FED310B41EC180BC8
:101FA00053EC102B9DED080B51EC100BFFF78BFA47
:101FB00053EC182BFFF7E0F941EC100B139810F0DD
:101FC000004F06D06D4251EC100B81F0004141EC06
:101FD000100B284684ED000B41E6000000000000D5
:101FE0000000000000000000FB21E93F7CD9024016
:101FF00000004054FB21F93F3163621A61B4D03DC7
:10200000FB21F93F000000000000601A61B4D03DE0
:102010007370032E8A19A33BFB2139410000000095
:1020200083C8C96D305FE43F000000000000E03F5E
:10203000CA25000018250000000000000000103E26
:10204000000000000000103C000000000000103AFA
:10205000182D4454FB21F93D3326A611460B113CA3
:1020600000000054FB21F93D10B52DED040B2DEDC2
:10207000088B82B0B0EE419AF0EE619A0B9820F096
:1020800000449FED4BABB4F1795F11DA9DED0A0B83
:1020900051EC100BFFF716FB002801BFB0EE4A0A07
:1020A000F0EE6A0A02B0BDEC088B04BF04B010BDAC
:1020B0009DED0A0B53EC102B51EC100BFFF703FABC
:1020C00041EC180B3C480621B0EE480AF0EE680AD5
:1020D000784400F081F853EC182B51EC100BFFF70B
:1020E000F2F99DED0A0B41EC1B0B53EC192B51EC53
:1020F000100BFFF7E8F941EC190B53EC1B2B51ECDB
:10210000180BFFF7E0F953EC192BFFF7D6F99FED09
:102110002C0B41EC190B53EC102B51EC180BFFF767
:10212000D2F941EC100B2848844210DA53EC192BF9
:1021300051EC100BFFF7C1F953EC1A2BFFF7C0F964
:1021400041EC100B02B0BDEC088B04B010BD1F4871
:10215000A042BCBF9FED1E1B8DED001B06DBA4F54E
:1021600000100190002000909DED001B51EC100B21
:1021700053EC112BFFF7A1F99DED000B41EC180B6F
:1021800053EC102B51EC1A0BFFF797F941EC1A0B9B
:1021900053EC192B51EC180BFFF78FF953EC1A2B5A
:1021A000FFF78EF941EC100BCCE7000000000000B7
:1021B000000000000000F03F3C2200000000000092
:1021C000000000000000E03F3333D33F0000E93F50
:1021D000000000000000D23F70B504462DED028BD8
:1021E0004D1E00EBC500B0EE408AF0EE608A90ED27
:1021F000000B35F0060017D053EC182B51EC100BE8
:10220000FFF761F941EC100B6D1E04EBC50090ED7A
:10221000001B51EC100B53EC112BFFF7ADF841EC08
:10222000100B35F00600E7D1022D36D0042D1CD05E
:10223000062D1CBFBDEC028B70BD53EC182B51EC6E
:10224000100BFFF740F994ED0A1B53EC112BFFF72D
:1022500093F853EC182BFFF736F994ED081B53EC69
:10226000112BFFF789F841EC100B53EC182B51ECB4
:10227000100BFFF728F994ED061B53EC112BFFF719
:102280007BF853EC182BFFF71EF994ED040B53EC7D
:10229000102BFFF771F841EC100B53EC182B51EC9D
:1022A000100BFFF710F994ED021B53EC112BFFF705
:1022B00063F853EC182BFFF706F994ED001B53EC71
:1022C000112BFFF759F8BDEC028B41EC100B70BDE0
:1022D00031B504462DED040B2DED0A8BB0EE41BA5D
:1022E000F0EE61BA0B989DED0A0B20F00040B0F1C2
:1022F000795F0DDA51EC100BFFF71EFC042808BFC4
:1023000000F09AF89DED0A0BBDEC0A8B05B030BDCC
:1023100053EC102B51EC100BFFF7D5F841EC180BD8
:102320009DED0A0B53EC182B51EC100BFFF7CBF87B
:1023300041EC190B2C48B0EE480AF0EE680A052172
:102340007844FFF749FF9FED2ACBB0EE40AAF0EEAC
:1023500060AA9CB353EC1C2B51EC190BFFF7B3F89C
:1023600041EC1C0B53EC1A2B51EC190BFFF7ABF89B
:102370009FED210B41EC190B53EC102B51EC1B0B77
:10238000FFF7A1F853EC192BFFF797F853EC182B34
:10239000FFF799F853EC1B2BFFF78FF853EC1C2B2E
:1023A000FFF78BF89DED0A1B53EC112BFFF788F814
:1023B000BDEC0A8B05B041EC100B30BDFFE753ECD0
:1023C0001A2B51EC180BFFF77EF853EC1C2BFEF781
:1023D000D3FF53EC192BFFF776F89DED0A1B53EC56
:1023E000112BFEF7C9FFE3E7C42000000000000046
:1023F000495555555555C5BF000000000000E03F48
:1024000010B553EC102B51EC100BFEF7B5FF41EC5F
:10241000100B10BD000000009FED050B10B553EC34
:10242000102B51EC100BFFF7C0F841EC100B10BD56
:1024300000000000000000009FED050B10B553ECFC
:10244000102B51EC100BFFF73EF841EC100B10BDB8
:10245000000000000000001002E008C8121F08C1C0
:10246000002AFAD170477047002001E001C1121F15
:10247000002AFBD170470000014908607047000046
:102480007C00002001F0B0F901F016F80028FBD123
:10249000104C0121208801EB00400FA101F0F4F85D
:1024A00010480068C00700D000BE2088022101EB60
:1024B00000400DA101F0E8F8BFF34F8F0948E43860
:1024C00001680D4A01F4E06111430160BFF34F8FD1
:1024D00000BFFDE798000020466174616C206572C2
:1024E000726F7200F0ED00E053797374656D2072C5
:1024F00065736574000000000400FA050EB5002144
:102500000091CDE901106A4644F20100FFF7BAFFDD
:102510000EBD00F003B800F009B8000072B6024822
:102520000168491C016070470800002003490868E1
:10253000401E086000D162B670470000080000200D
:102540002DE9F041064608680C46411C4FF0A047B3
:102550004FF0010506D005FA00F1C7F8081520680C
:1025600000F0D0FE6068411C02D0002100F0C1FEE6
:102570003079204901EB4010A169007F00283068C4
:10258000C0F8241525D0607D227D31681043C1F844
:102590006C05D4E900123068C0F80C15C0F8142599
:1025A00024E0A068411C02D0002100F0A2FEE068F7
:1025B000411C05D08540C7F80855E06800F0A2FE30
:1025C000D4E902123068C0F80825C0F81015BDE83B
:1025D000F081607D217D32680843C2F86C05D4E942
:1025E00000123068C0F81425C0F80C15207D0128B1
:1025F000D7D0ECE7A40300202DE9F041861C0C465F
:1026000001270020FFF785FF0F4801682160D0E90E
:102610000012891A82680446511AB51C07E000BFEF
:1026200000F0FCF9D4E90001401AA168091A491C1C
:102630008D42F5D82068304420600020FFF76BFF02
:102640003846BDE8F0810000C404002030B4826840
:102650000468531C8360A154D0E901128A4202D35A
:1026600030BC00F032BD30BC70470000034803C8E6
:10267000814201D10120704700207047C40400202E
:102680002DE9F0410025441C17460E462846FFF769
:1026900040FF174801683960D0E900278368D11BE3
:1026A000591A491C8C4208D8511C194000EB81056D
:1026B000111901600021316009E01F40A74207D9CC
:1026C00013194A1E1A44491E0260094D31600C3527
:1026D000D0E900128068891A401A401C022800D2F2
:1026E00000250020FFF717FF2846BDE8F081000015
:1026F000C40400202DE9FC47054616460C46481C3C
:1027000000F08EFA074601AB6A4621462846FEF7DE
:102710009FFADFF8C09035004FF000084FF0130A21
:1027200038D0681E00EE100A00207C22F8EE400A25
:1027300000EE106A28492023B8EE401A80EE810A84
:10274000DDED000A20EE800A0DE000BF01EB800CF9
:10275000DCED000AF4EEC00AF1EE10FA01DD3A54A5
:1027600000E03B54401CA042F0D307F804803846F8
:1027700001F04EF8B9F8002018A14AEA02430246D7
:10278000184600F085FF00BF00F096FE0028FBD140
:102790006D1EC6D1601C00F043FA054600202D21B5
:1027A00001E02954401CA042FBD305F804802846D0
:1027B00001F02EF8B9F8001002464AEA014009A1DA
:1027C00000F066FF284600F071F8384600F06EF819
:1027D000BDE8FC8798000020A402002025730D0AA4
:1027E0000000000025730D0A0000000082B0CDE952
:1027F000000121F0004001909DED000B02B051EC72
:10280000100B70472DE9F04116462DED028BB0EE0E
:10281000608AF0EE408A804602293CD300244F1E95
:1028200037E09FED1F0A600868EE000A00EE100A0C
:10283000B8EE400A60EE800A80EEA80A10EE100A98
:10284000FEF721FD41EC100BFFF78EF951EC100B58
:10285000FEF72CFDA2B208EB82052860A6B1FEF7B8
:10286000D5FC642190FBF1F201FB120000EE100A8E
:102870009FED0C1AF8EEC00A80EE810AD5ED000A31
:1028800020EE200A85ED000A9FED070AA41C85EDC5
:10289000010ABC42C5D3BDEC028BBDE8F08100004B
:1028A000DB0FC9400000C8420000000010B500283E
:1028B00021D0114B0022001F196803E0814203D888
:1028C0000A4649680029F9D152B11368841A9C421A
:1028D00004D1006818441060104602E0506000E027
:1028E000186039B102680B1A934203D10B681A447D
:1028F00002604968416010BD740000202DE9FC5F52
:102900000E008346DDE90C47C6F10000984692466A
:10291000814600D40846012503E000BF90FBFAF091
:102920006D1C5045FADAA84500D9454624B1002E61
:1029300001DB780700D5641EB80702D5B8F1000F97
:102940000AD0F80708D13CB1A54205D2202158464B
:10295000641EFFF77BFEF6E7002E02DA4E462D21BD
:1029600002E0780703D52B215846FFF76FFE07F0EA
:10297000030002280BD1B8F1000F08D13CB1A542E9
:1029800005D230215846641EFFF760FEF6E7CDE918
:102990000047434652463146584601F0B3FABDE877
:1029A000FC9F000070B50E460446007918494FF4AC
:1029B000A27501EB4010017F2068A1B14FF488712E
:1029C00001F03AF84FF49071206801F035F84FF4B7
:1029D0009271206801F030F82946206801F02CF847
:1029E0000C49206809E04FF48E7101F014F8294673
:1029F000206801F010F808492068C0F80413206826
:102A000000F05BFA3146BDE8704000F03ABA0000D1
:102A1000A4030020100302008000020070B588B0FB
:102A2000214800F089F92048001F064600F084F98B
:102A30001E4DD5E9014105E0C0F3891202EB90502B
:102A4000641C044404EA010005EB8000C0688207AE
:102A5000F2D000200DF1080204EA010305EB830324
:102A6000641CDB6842F82030401C0228F4D3029832
:102A700000F00300012808D002280AD1029803219F
:102A800001EB905004EB900403E00298C0F3831034
:102A900004443046002101AAFDF783FC002800D041
:102AA0006C6008B070BD0000DC080020C404002089
:102AB00000242DED048B204600F050FE08B1FFF7F6
:102AC0001DFD00F0EBFC324D132632A1288846EAAA
:102AD000004000F0D9FDDFF8FCB09FED3F9ADFED3C
:102AE0003F8ADFF8FCA0A8464FEA060984F00104FB
:102AF000FEF78CFBB0FBFBF20BFB120000EE100AA2
:102B000022468021B8EE400A364880EE098AB0EEAF
:102B1000680AF0EE480AFFF775FE324D324805F5B7
:102B2000007740269AF804309AF800202946FDF7ED
:102B3000E9FF324639462846FDF77AFC0CB12BA353
:102B400000E02BA3BCEEC80AB8F8001010EE100A83
:102B500082B249EA014027A100F0A1FD14224021E0
:102B60002C48FFF7C7FD00BF00F0A6FC0028FBD1F2
:102B7000F1EE100A284920F09F00E1EE100AF1EE74
:102B8000100A4020C1F88002244800F029F9ADE77E
:102B900098000020546869732069732046505520BE
:102BA0007573616765206578616D706C6520776904
:102BB0007468204646542063616C63756C61746967
:102BC0006F6E20616E642064726177696E672E0D8E
:102BD0000A00000080841E000000C84200442C4708
:102BE00000000020A4000020084000007965730068
:102BF0006E6F0000496E7075743A2073696E6520BF
:102C00002575487A2C206E6F6973653A2025732EDE
:102C10000D0A0000A402002004E000E040420F0082
:102C2000F0B50B30154D20F007010024144A0FE0D9
:102C300003688B420BD38B4205D95E1A4318476851
:102C4000C3E9006700E04368136002C004E0021DAE
:102C500010680028ECD12046002802D1286808B16D
:102C60000020F0BD064A07481060074A121A22F0F9
:102C70000702C0E9002401202860D7E7780000207F
:102C800074000020EC080020E82800202DE9F0471F
:102C9000C7880446181D16468946B0FBF7F1B0FBFD
:102CA000F7F207FB12009A193A44D21CB2FBF7F272
:102CB000DDF820A001E02468491E0029FBD13D1A5F
:102CC0008846B54216D818E0BAF1000F05D0211891
:102CD00009EB08002A46091D04E0204409EB08011D
:102CE0002A46001DFEF7A4FA00202468761BA8449B
:102CF000B74201D9354600E03D46002EE4D1BDE89B
:102D0000F087000030B5024669B100F055FD0021A2
:102D1000084C0BE001EB410304EB830315685B886F
:102D2000AB4202D11160002030BD491C8142F1D379
:102D3000052030BD8000002008B501216A46FDF75E
:102D400023FB009808BD70B5044600252846FFF710
:102D5000E0FB21686268086890420ED9401E086056
:102D60000178238AE26801FB0325227A2168101A80
:102D7000C0B20A79824200D208710020FFF7CBFB73
:102D8000284670BD70B505460C460020FFF7C1FB14
:102D9000E868298A201AB0FBF1F12A681068431C00
:102DA00013600170BDE870400020FFF7B4BB10B5A0
:102DB00030B1017A42680368891AC9B21A6006E024
:102DC0000E2010BD03681A68541C1C601170491E47
:102DD000C9B2F7D2006800210171084610BD000099
:102DE00000283ED01F49204A096800BF00BF00BF2D
:102DF00000BF00BF00BF00BF00BF91422FD000BF87
:102E000000BF00BF00BF00BF00BF00BF00BF00BFCA
:102E100000BF00BF00BF00BF00BF00BF00BF00BFBA
:102E200000BF00BF00BF00BF00BF00BF00BF00BFAA
:102E300000BF00BF00BF00BF00BF00BF00BF00BF9A
:102E400000BF00BF00BF00BF00BF00BF00BF00BF8A
:102E500000BF00BF00BF00BF00BF00BF00BF013800
:102E6000C3D170476C0000200024F40000F01F0262
:102E7000012191404009800000F1E020C0F880115C
:102E800070474907090E002806DA00F00F0202F128
:102E9000E02282F8141D03E000F1E02282F8001421
:102EA00000F01F02012191404009800000F1E02064
:102EB000C0F88012C0F800117047000B40B2704794
:102EC0000121B1EB507F01D10120704700207047F4
:102ED0002DE9F04105460079164F904607EB401466
:102EE0000E46E07E10B10820BDE8F081707F2077AB
:102EF0002846FFF725FB5FEA080060603169216022
:102F000003D0317F2846FFF74DFD287907EB4010AD
:102F1000007F0028286801D0082100E00421C0F8C3
:102F200000150020E0752076A0750121E176A076DD
:102F3000DAE70000A40300202DE9F04705460079F8
:102F40003F4E904606EB40140F46207F18B10846CE
:102F5000FFF7B6FF30B1284600F074F820B1112019
:102F6000BDE8F0871020FBE784F81680A7600027F3
:102F7000A78228794FF0010806EB40143E46207FD7
:102F80000028286825D04FF49079494600F054FD78
:102F90004FF4AC7A5146286800F04EFD2868A17DB8
:102FA000A268C0F84425C0F848152868C0F8088011
:102FB0006068F0B94946286800F039FD80465146FE
:102FC000286800F034FD58EA0001F3D058BBA7751B
:102FD0000FE04FF48E7A514600F01DFD2868C0F8CE
:102FE00008802146286800F039FE61684FF480703F
:102FF00089B13046B4E75146286800F007FD10B9A2
:10300000A08A4845F7D1A08A484505D021462868BE
:1030100000F024FE00E08146A08AA17D8842EAD328
:10302000A08A484501D10F26D1E75146286800F013
:10303000EDFC0028F9D02868C0F80C80C7E7000034
:10304000A40300200079044901EB4010807D002892
:1030500000D0012070470000A403002070B5044692
:1030600000791149002601EB401520682A7FC0F83D
:103070000065686888B1207901EB4010007F002866
:10308000206801D0094901E008498C39C0F80813CB
:103090002068FFF712FFFFF7E9FE204600F0D2FCA0
:1030A000EE766E6070BD0000A403002010030200E5
:1030B0000FB408B50399002904D004AA00926A4607
:1030C00000F00FF801B05DF814FB10B582680446FB
:1030D000002A05D0D4E90403216898470020A060A5
:1030E00010BD2DE9FC4791460C00804676D014F8BF
:1030F000011B39B125290ED04046FFF7A7FA2078E9
:103100000028F4D198F80C00002867D04046BDE8AC
:10311000FC47FFF7DABF0020012221782B291BD0C2
:103120002D2902D0302908D102E040F0010001E051
:1031300040F00200641C002AEFD100252A290ED09D
:103140002178A1F130020A2A11D205EB850201EBA8
:103150004205641C303DF1E740F00400EAE7D9F88D
:1031600000100B1DC9F800300968641C0D4421785B
:1031700000232E290BD114F8011FA1F130020A2AD5
:1031800005D203EB830201EB4203303BF3E76C29EA
:103190000DD068290BD0692921D00BDC252918D046
:1031A000582931D063290ED0642915D117E014F8BD
:1031B000011FECE7702969D0732932D075291BD023
:1031C000782909D120E0D9F80000011DC9F80010C4
:1031D00001784046FFF73AFA641C90E76CE0D9F8B2
:1031E00000100A1DC9F800200968CDE900500A2224
:1031F0004046FFF783FBEFE7D9F800100A1DC9F836
:10320000002009680A2206E0D9F800100A1DC9F852
:10321000002009681022CDE90050404600F072FEFF
:10322000DAE7D9F8001000270A1DC9F800200E6857
:10323000C00705D112E04046761C7F1CFFF706FA56
:1032400031780029F7D104E0202140466D1EFFF7B8
:10325000FDF9BD42C0D9002DF6D1BDE74EB13046D3
:10326000FEF70AF8074604E0202140466D1EFFF7EE
:10327000EDF9BD4206D9002DF6D103E04046761C9B
:10328000FFF7E4F931780029F8D1A5E7D9F8000073
:10329000011DC9F80010056830214046FFF7D6F936
:1032A00078214046FFF7D2F908200021CDE900013E
:1032B000034610222946B0E7BDE8FC8770B541EA15
:1032C0004201DDE904564FF0A04441EA830141EA9E
:1032D000052104EB800041EA0641C0F8001770BDEB
:1032E0001CB5002100910B4601220191FFF7E6FF7A
:1032F0001CBD1CB500220B46009211460192FFF73F
:10330000DDFF1CBD1CB5002100910B46012201917F
:103310001146FFF7D3FF1CBD30B5124B014600200C
:10332000D3F81044224609E0157A854205D1401CA5
:103330000A28F7DB4FF0FF3030BD5268002AF3D186
:10334000421CF9D00872D3F810242AB152684A609E
:10335000D3F81024516030BD0022C3F810144A6025
:1033600030BD0000C4040020F0B595B01C461546E1
:103370000F4608461A9E00F023FB182109A8FDF706
:1033800070FF0E96CDE909540023082203A93846A0
:1033900000F030FB059806900498ADF81C00002062
:1033A0008DF820000398082600F00300012802D0C1
:1033B00002281DD03CE003983346850AC0F3C200C2
:1033C0008DF81E0003980FA9C0F380008DF81F0030
:1033D0000398C0F38314A200384600F00BFB09A841
:1033E000009006AB22460FA9284600F045FA1FE0E0
:1033F0000398840DC0F3C2008DF81E000398C0F33B
:1034000080008DF81F00082C01D2254600E0082519
:1034100033462A460FA9384600F0ECFA2E44641BC6
:1034200009AB06AA29460FA800F042F9002CEAD100
:10343000384600F0CEFA15B0F0BD7047002000F01D
:1034400031BC000010B50448FFF708FEBDE810408D
:10345000002000F027BC00001000002008B5034A3F
:1034600000924023024AFFF77FFF08BDA13B000006
:10347000C4030020084A012902EBC00005D002293C
:1034800003D0032903D0042903D00020704700791A
:103490007047407970470000CC44000010B5FFF73A
:1034A000CDFF04210348FFF737FF0249012048728E
:1034B00010BD0000180000202DE9FE4FFFF7D6F8E0
:1034C00010B10020BDE8FE8F6D480021C0F818142F
:1034D000BFF34F8FD0E9014604EA060100EB8101FA
:1034E0004FF000090AE000BFC1F3891202EB9151CD
:1034F000641C0C4404EA060100EB8101C9688A07D8
:10350000F2D000216A46804604EA060308EB8300F5
:10351000641CC06842F82100491C0229F4D30098B9
:1035200000F00300022802D001284DD0A2E000984C
:103530005022810D8A46B2EB905F00D850210D4693
:1035400065F39F50009008314E4800F0F0F90700F5
:1035500077D000F035FA4B4608226946384600F02D
:103560004FFA04EA0600311A8900091D09F1080B17
:103570008D4222D9424E0C3631B1CAB208EB8000DE
:10358000691A91460C3004E03046EAB200269146B2
:103590003146CDB201465B46384600F031FA0BEBBE
:1035A00009032EB12A4631464FEA070000F028FAF7
:1035B0000AF1030004EB90043AE008EB80015B465B
:1035C0002A4638460C31F1E70098C0F383100628EC
:1035D00000D30620009960F38911C1F38310801C89
:1035E00000918100274800F0A2F9070042D000F0C6
:1035F000E7F94B4608226946384600F001FA09F11E
:10360000080900250EE000BF04EA060008EB80016F
:103610004B46042238460C31641C00F0F1F909F1E4
:1036200004096D1C0098C0F38310A842ECD847B180
:10363000D8F81054D8F81804464660B1384600F05F
:10364000C8F917E0687A012804D12A682846394663
:10365000126890476D68002DF4D1384600F0B9F932
:103660000020FEF756FFD6F8180400B97460002059
:10367000FEF751FFFEF7FAFF80F0010022E700009D
:10368000C4040020F43F000000231A4600F09CBA56
:1036900008B5012300926A4600F096FA08BD1CB5F1
:1036A000CDE9002302236A4600F08EFA1CBD00001B
:1036B0002DE9F0470E4680461C46924608293ED822
:1036C00094F80C90002020731946104600F014FA6C
:1036D0000025B54206D218F805201AA12046FFF7AA
:1036E000E7FC03E019A12046FFF7E2FC6D1C082D62
:1036F000EFD317A12046FFF7DBFC0025B54210D21F
:1037000018F80570FDF77EFD0068C05D10F03E0FF3
:1037100001D03A4600E02E220EA12046FFF7C8FC59
:1037200003E00DA12046FFF7C3FC6D1C082DE5D377
:1037300001222146504600F0C1F984F80C90BDE802
:10374000F087000020253032780000002020200083
:103750007C0000002563000020000000114810B527
:10376000FF218160002101604160C0F81814C0F899
:103770001414012180F81C140B4800F028F90028CB
:103780000ED10A480A490B4B401AC108002004E038
:1037900000EB400223F82200401C8842F8D30020AE
:1037A00010BD0000C4040020F43F0000E444000009
:1037B000CC4400008000002002480349401AC008A1
:1037C00070470000E4440000CC44000013B5684694
:1037D000FFF798FA08B100201CBD0248009950F884
:1037E00031001CBDCC44000070B508480125D0F85C
:1037F000104480F81C5405E0657221682046496831
:1038000088476468002CF7D170BD0000C404002014
:103810002DE9FC470746174890F81C1441BB3FB3FD
:103820008146D0F808803846FDF726FD441C001D6F
:1038300086080020009001AA69463046FEF720FF66
:10384000050012D00198009A00EA080009EB8001F7
:10385000C86820F0030062F38F1066F39F50C860C1
:10386000224639462846FDF7E3FC2846BDE8FC879A
:103870003846FBE7C40400202DE9FF4781460C9D34
:1038800000200C462F7B287398461646294618467A
:1038900000F032F9072E42D2DFE806F004090F16D5
:1038A0001F2A360049462846FFF702FC37E0494602
:1038B00028462268FFF7FCFB31E0D4E900234946A3
:1038C0002846FFF7F5FB2AE0A0680090D4E9002322
:1038D00049462846FFF7ECFB21E0D4E90201CDE997
:1038E0000001D4E9002349462846FFF7E1FB16E032
:1038F00004F1080007C88DE80700D4E90023494611
:103900002846FFF7D5FB0AE004F108000FC88DE850
:103910000F00D4E9002349462846FFF7C9FB0022DF
:103920002946404600F0CAF82F73BDE8FF872DE90D
:10393000F041058A80462D1F4819C01CB0FBF5F0E8
:10394000C6B24046FFF7FFF9041E19D000202071CF
:1039500001206071E58000272546761EC4F80080AE
:103960000BE04046FFF7EFF960B16179491C6171E6
:10397000286005467F1CC0F80080B742F1D320467E
:10398000BDE8F081204600F002F80020F8E72DE9BC
:10399000F041457901466B1E002201E00968521C86
:1039A0009A42FBD30F680146002605E038460C68B2
:1039B000FFF7E8F92146761CAE42F7D3BDE8F08167
:1039C00008B501216A46001DFCF7B7FC08BDFFF7EA
:1039D000EEB938B50446001D01216A46FCF7BAFC71
:1039E000009810F0FF0F04D12046BDE83840FFF7E3
:1039F000CEBF38BD38B501240094FFF747F938BD74
:103A000038B500240094FFF741F938BD405800282C
:103A100000D00120704708B5002242504058009065
:103A200008BDD0F80403084000D00120704740587A
:103A3000002800D00120704708B5002242504058AD
:103A4000009008BD70B5034600791B4901EB40109A
:103A50001968027F4FF0FF30002AD1F80C25D1F809
:103A60001465D1F80855D1F8104504D0C1F80C05FB
:103A7000C1F8140503E0C1F81405C1F80C05196874
:103A8000C1F80805C1F81005501C02D01046FFF718
:103A900027FC701C02D03046FFF722FC601C02D0CD
:103AA0002046FFF71DFC681C04D02846BDE8704086
:103AB000FFF716BC70BD0000A403002010B50C4633
:103AC000C17949B11AB109A12046FFF7F1FA2046A0
:103AD000BDE81040FFF7F9BA007A0028F3D0044897
:103AE00004A102682046FFF7E3FAECE70D0A0000A4
:103AF000480000202573000070B50446C0790D46CB
:103B000000281CD1207A50B1A179A088FFF7B2FC1F
:103B10000B4951F820200BA12846FFF7C9FAA088CD
:103B20000021FFF753FE03460549A079143951F8E7
:103B300020202846BDE8704003A1FFF7B9BA70BD48
:103B400048000020257300003C25733E2025733A71
:103B50002000000070B50546C87D0C4600284FF4D3
:103B6000847128460AD0FFF756FFD5F81805627E03
:103B7000E1688854607E401C607670BDFFF74BFFA3
:103B8000D5F8180570BD1FB501238DF800308DF8EC
:103B900008100192D0E90012684690471FBD00004E
:103BA00010B5084C0020D2B22070201DFFF7C4F9D8
:103BB00008B1FEF7A3FC6078002802D02178002924
:103BC000FAD010BD0C0000202DE9F843224C8846A5
:103BD000054691461F4669461846A668FEF70CFD45
:103BE00088B3009800EA060104EB810252F80C1F2A
:103BF00021F00301491C401C11605FEAC56C02D52D
:103C000041F0040101E021F0040165F3C50167F30F
:103C1000891168F39F21116000EA0602290C04EB68
:103C20008202401CD160009000200AE0009959F8FF
:103C3000203001EA060204EB8202491CD360401CDA
:103C40000091B842F2D394F81C0401E0FFF734FC71
:103C50000028FBD1BDE8F883C404002070B50C46F1
:103C600005464FF48E71FFF7D6FEA18AA068415C2D
:103C7000A08A401CA082C5F81C1570BD1FB500228B
:103C80008DF800208DF80810816801918275D0E9C7
:103C90000012684690471FBD014901200870704717
:103CA0000C00002010B588B0044620220E4968465A
:103CB000FDF7BEFA06200090C01F0190029003900D
:103CC0004FF0EB7006900CB1084A00E00022694604
:103CD0000748FFF7FDF808B1FEF710FC0448001F85
:103CE000447008B010BD0000D43F0000993C0000B3
:103CF000100000202DE9FF470C4605464FF40071E7
:103D0000FFF78FFE01274FF40178002618B34FF418
:103D1000927949462846FFF779FEE0B149462846A0
:103D2000FFF779FEC5F80883A07E00B96F60022016
:103D30008DF80000D5F88004C5F880040390E07D7C
:103D40008DF80800E0680190E6752676D4E9001247
:103D50006846904727E004212846FFF762FE10B32B
:103D60004FF484712846FFF751FEE0B12146284602
:103D7000FFF7F0FEE07D617E884214D1207E38B1ED
:103D8000617EE268E0752069E0602676667607E08D
:103D9000A07E00B96F60C5F80883E675617EE268B1
:103DA0002046FFF7F0FE4FF48E7841462846FFF795
:103DB0002DFE88B1A08AA17D884204D221462846E2
:103DC000FFF74CFF08E041462846FFF724FEA17D9F
:103DD00011B12046FFF752FF4FF4A2784146284622
:103DE000FFF714FE002812D041462846FFF713FEC5
:103DF000A07E00B12F60E07D002808D0E675617ECE
:103E0000E26804B02046BDE8F047FFF7BCBEBDE85D
:103E1000FF872DE9FF410C464FF49277054639465E
:103E2000FFF705FE0026C0B139462846FFF704FE1D
:103E300002208DF80000D5F88004C5F880040390B6
:103E4000D5F83C058DF80800E0680190E675267607
:103E5000D4E900126846904724E04FF48877394649
:103E60002846FFF7E4FDE8B139462846FFF7E4FDB0
:103E7000D5F83C05C1B2E07D884213D1207E60B107
:103E8000E268D5F8000220F02000C5F80002207E8C
:103E9000E0752069E060267601E0E675E26820467C
:103EA000FFF771FE4FF4A27739462846FFF7BFFDB2
:103EB00068B139462846FFF7BFFDE07D38B1E675A9
:103EC000D5F83C05E268C1B22046FFF75CFE4FF42E
:103ED000907631462846FFF7AAFD00280FD03146DC
:103EE0002846FFF7A9FDA07D002808D0D5F84C058D
:103EF00004B0C1B22046BDE8F041FFF7BFBEBDE847
:103F0000FF8100002DE9F05F8346DDE90A4A99460A
:103F100090460D460846012703E000BFB0FBF8F0CD
:103F20007F1C4045FAD2B94500D94F465FEACA70B6
:103F300012D18CB15FEA8A7002D5B9F1000F01D0BD
:103F4000202607E0302605E031465846641EFEF77D
:103F50007DFB0CB1A742F7D35FF00106B9F1010F69
:103F600002D9A9F1010903E0B5FBF6F0404502D3FF
:103F700006FB08F6F2E7DFF83C9000BFB5FBF6F071
:103F800000FB165519F800105846FEF75FFBB6FB0C
:103F9000F8F6002EF2D15FEACA7009D0002C07D0E3
:103FA000A74205D220215846641EFEF74FFBF5E7D5
:103FB000BDE8F09FB83F000030313233343536373A
:103FC00038394142434445465D34000045340000E1
:103FD0003B340000FFFFFFFFFFFFFFFFFFFFFFFF7E
:103FE000FFFFFFFF00000000000000000000D601FE
:103FF000070100002C000020240000202C000020DD
:1040000004040020180000004000000018400000D8
:1040100018420000380000000000803F000000004F
:104020006DC47E3F36BDC83DBE147B3FC2C5473E12
:104030000BFA743F31A0943E5E836C3F15EFC33E94
:1040400098C5613FEA5AF13E31DB543FDA390E3F01
:1040500003E4453F9967223FF304353FF304353FBE
:104060009967223F03E4453FDA390E3F31DB543F85
:10407000EA5AF13E98C5613F15EFC33E5E836C3F3F
:1040800031A0943E0BFA743FC2C5473EBE147B3F3D
:1040900036BDC83D6DC47E3F000000000000803F7B
:1040A00036BDC8BD6DC47E3FC2C547BEBE147B3F92
:1040B00031A094BE0BFA743F15EFC3BE5E836C3F14
:1040C000EA5AF1BE98C5613FDA390EBF31DB543F81
:1040D000996722BF03E4453FF30435BFF304353F3E
:1040E00003E445BF9967223F31DB54BFDA390E3F05
:1040F00098C561BFEA5AF13E5E836CBF15EFC33EBF
:104100000BFA74BF31A0943EBE147BBFC2C5473EBC
:104110006DC47EBF36BDC83D000080BF00000000FA
:104120006DC47EBF36BDC8BDBE147BBFC2C547BE11
:104130000BFA74BF31A094BE5E836CBF15EFC3BE93
:1041400098C561BFEA5AF1BE31DB54BFDA390EBF00
:1041500003E445BF996722BFF30435BFF30435BFBD
:10416000996722BF03E445BFDA390EBF31DB54BF84
:10417000EA5AF1BE98C561BF15EFC3BE5E836CBF3E
:1041800031A094BE0BFA74BFC2C547BEBE147BBF3C
:1041900036BDC8BD6DC47EBF00000080000080BF7A
:1041A00036BDC83D6DC47EBFC2C5473EBE147BBF91
:1041B00031A0943E0BFA74BF15EFC33E5E836CBF13
:1041C000EA5AF13E98C561BFDA390E3F31DB54BF80
:1041D0009967223F03E445BFF304353FF30435BF3D
:1041E00003E4453F996722BF31DB543FDA390EBF04
:1041F00098C5613FEA5AF1BE5E836C3F15EFC3BEBE
:104200000BFA743F31A094BEBE147B3FC2C547BEBB
:104210006DC47E3F36BDC8BD080040001000800060
:104220001800C0002000000128004001300080017B
:104230003800C001500088005800C8006000080124
:1042400068004801700088017800C8019800D0001B
:10425000A0001001A8005001B0009001B800D001EA
:10426000E0001801E8005801F0009801F800D801BA
:10427000280160013001A0013801E0017001A801AE
:104280007801E801B801F001004040404040404062
:104290004040414141414140404040404040404019
:1042A00040404040404040404005020202020202BD
:1042B000020202020202020202202020202020200C
:1042C0002020200202020202020290909090909020
:1042D00010101010101010101010101010101010DE
:1042E0001010101002020202020288888888888852
:1042F000080808080808080808080808080808083E
:10430000080808080202020240000000894200007A
:104310004C5555555555A53F7751C1166CC156BFE3
:104320009015CB19A001FA3EAD529C804F7E92BEF3
:10433000C4B1B4BD9EEE213ED43888BEE9FAA8BD12
:1043400000004054FB21F93F3163621A61B4D03D53
:104350000000601A61B4D03D7370032E8A19A33B2C
:104360000000002E8A19A33BC14920259A837B397E
:1043700000000000000000006E83F9A22915444EE1
:10438000D15727FCC0DD34F5999562DB4190433C61
:10439000AB6351FE61C5BBDE3A6E24B7E0D24D423D
:1043A000EA2E49061C92D1091CEB1DFE3EA729B13D
:1043B000F53582E88444BB2E26709CE9417E5FB4CB
:1043C00039D69139F43953838B5F849C3B28F9BDEE
:1043D000FF97F81F0F9805DE8B112FEF1F6D0A5AFC
:1043E000CF7E366DB709CB27663F464F2DEA5F9EDD
:1043F000C7BA27757BF1E5EBF739073DEA92528A98
:10440000B15FFB6B085D8D1FA6F810111111813F84
:10441000D561C119A0012ABF7DFEB157E31DC73E7A
:10442000EB9C2B8AE6E55ABE7CD5CF5A3AD9E53DBE
:104430007761726E696E670064656275670000007F
:104440001B5B313B33306D001B5B306D00000000A7
:104450001B5B313B33316D001B5B313B33326D00F5
:104460001B5B313B33336D001B5B313B33346D00E1
:104470001B5B313B33356D001B5B313B33366D00CD
:104480001B5B313B33376D00696E666F00000000C7
:104490006572726F72000000756172740000000036
:1044A00062616C6C6F63000061707000E444000036
:1044B00000000020A40000005824000088450000EF
:1044C000A400002044480000682400009844000034
:1044D00000000000A044000000000000A84400000C
:1044E00000000300000000000100000000000000C8
:1044F000000000000020004000000000C83F000055
:1045000000000000000000000000000000000000AB
:1045100000000000000000000000000090440000C7
:104520003044000088440000384400004844000043
:104530004044000050440000584400006044000023
:10454000684400007044000078440000804400008B
:104550000090D003000000000000000000000000F8
:10456000000000000000000000000000000000004B
:10457000000000000000000000000000000000003B
:08458000000000000000000033
:04000005000002C134
:00000001FF
