:020000040000FA
:10000000402B00201D04000025040000B102000068
:10001000290400002B0400002D0400000000000053
:100020000000000000000000000000002F0400009D
:10003000310400000000000033040000350400001B
:100040008F09000037040000CD0B000037040000CA
:100050003704000037040000A10500003704000049
:1000600037040000370400003704000037040000A4
:100070003704000037040000370400003704000094
:10008000370400009D090000370400003704000019
:10009000C1090000370400003704000037040000E5
:1000A0003704000037040000370400003704000064
:1000B00037040000370400000000000000000000CA
:1000C0003704000037040000370400003704000044
:1000D000370400003704000037040000E90B00007B
:1000E000370400003704000037040000000000005F
:1000F000000000003704000000000000370400008A
:1001000000000000000000000000000000000000EF
:1001100000000000000000000000000000000000DF
:1001200000000000000000000000000000000000CF
:1001300000000000000000000000000000000000BF
:1001400000000000000000000000000000000000AF
:10015000000000000000000000000000000000009F
:10016000000000000000000000000000000000008F
:10017000000000000000000000000000000000007F
:10018000000000000000000000000000000000006F
:10019000000000000000000000000000000000005F
:1001A000000000000000000000000000000000004F
:1001B000000000000000000000000000000000003F
:1001C000000000000000000000000000000000002F
:1001D000000000000000000000000000000000001F
:1001E000000000000000000000000000000000000F
:1001F00000000000000000000000000000000000FF
:10020000DFF80CD000F09CF90048004741240000C2
:10021000402B002030B4044654E8000F0D4644E85B
:100220000053002BF8D1156030BC704730B4044641
:1002300054E8000F40EA010544E80053002BF7D1D1
:10024000156030BC704730B4044654E8000F00EA33
:10025000010544E80053002BF7D1156030BC70470E
:1002600030B4044654E8000F80EA010544E8005326
:10027000002BF7D1156030BC704730B4044654E809
:10028000000F00EB010544E80053002BF7D1156087
:1002900030BC704730B4044654E8000FA0EB0105B1
:1002A00044E80053002BF7D1156030BC70470000C4
:1002B000094B1EF0040F1CBFEFF309801847EFF342
:1002C00008800649064A884201D8904202D88D46E5
:1002D0004FF000001847000065070000402B002089
:1002E000400B002030B4044654E8000F0D4644E8AB
:1002F0000053002BF8D1156030BC704730B4044671
:1003000054E8000F40EA010544E80053002BF7D100
:10031000156030BC704730B4044654E8000F00EA62
:10032000010544E80053002BF7D1156030BC70473D
:1003300030B4044654E8000F80EA010544E8005355
:10034000002BF7D1156030BC704730B4044654E838
:10035000000F00EB010544E80053002BF7D11560B6
:1003600030BC704730B4044654E8000FA0EB0105E0
:1003700044E80053002BF7D1156030BC70470000F3
:1003800030B4044654E8000F0D4644E80053002BF7
:10039000F8D1156030BC704730B4044654E8000F03
:1003A00040EA010544E80053002BF7D1156030BC4A
:1003B000704730B4044654E8000F00EA010544E8F1
:1003C0000053002BF7D1156030BC704730B40446A1
:1003D00054E8000F80EA010544E80053002BF7D1F0
:1003E000156030BC704730B4044654E8000F00EB91
:1003F000010544E80053002BF7D1156030BC70476D
:1004000030B4044654E8000FA0EB010544E8005363
:10041000002BF7D1156030BC7047000006488047BC
:1004200006480047FEE7FEE7FEE7FEE7FEE7FEE7D9
:10043000FEE7FEE7FEE7FEE7C50900000102000057
:100440002DE9F05F0546002092469B468846064609
:10045000814640241BE0284641464746224600F09C
:100460005FF853465A46C01A914110D311461846B8
:10047000224600F046F82D1A67EB01084F46224647
:100480000120002100F03DF817EB00094E41201E2D
:10049000A4F10104DFDC484631462A464346BDE864
:1004A000F09F0000004870473C69000040EA0103EB
:1004B0009B0703D009E008C9121F08C0042AFAD21A
:1004C00003E011F8013B00F8013B521EF9D27047DE
:1004D000D2B201E000F8012B491EFBD27047002286
:1004E000F6E710B513460A4604461946FFF7F0FF33
:1004F000204610BD421C10F8011B0029FBD1801AB8
:100500007047202A04DB203A00FA02F100207047ED
:100510009140C2F1200320FA03F319439040704741
:10052000202A04DB203A21FA02F00021704721FA48
:1005300002F3D040C2F120029140084319467047AF
:10054000064C074D06E0E06840F0010394E8070020
:1005500098471034AC42F6D3FFF756FE4C740000B7
:100560006C74000030B58C1810F8012B12F00F03DA
:1005700001D110F8013B120906D110F8012B03E05C
:1005800010F8015B01F8015B5B1EF9D101E001F895
:10059000013B521EFBD1A142E6D3002030BD00003A
:1005A0002DE9F04F00268FB0DFF8B081B1460296FA
:1005B0004FF48075012437460396284604F0C4F8AA
:1005C00038B1D8F80403204203D0284604F0B2F82A
:1005D00026432D1D64007F1CADB2082FEDD34FF4D0
:1005E000BE74204604F0B0F848B1204604F0A2F8EA
:1005F00046F0004602AA0221002004F061F8584C9F
:1006000016F0FF0F15D00127002537420DD008EB5B
:100610008501D1F81005D1F81015C0F3052054F864
:100620002520C1F3014102B190477F006D1C082DC8
:10063000EBD3002E7DDA0020CDF82890411E0DF17D
:10064000080B08AACDF82C9042F82010401C9146C7
:100650000228F9D300252E46A01910F8607F90F9E2
:10066000000027F0C008401C49D008A9404602F00D
:1006700073F988B34FEA971A404601F035F954F8F8
:1006800020701FB1BAF1030F03D00FE0BAF1030FCE
:1006900035D10AA84FEAD80208F00703815C4FF071
:1006A000010C0CFA03FC41EA0C01815406A8CDF8B8
:1006B000188003F075FF069900EB8100D0F8000761
:1006C00002A9C0F301400690404602F045F9002817
:1006D000069802D0022802D011E003280FD1BAF107
:1006E000030F08D10698022832D00221404603F0B9
:1006F0000AFF6D1CEDB217B151464046B847761C53
:10070000042EA9D3002D20D004AA0221002003F03A
:10071000D7FF00205A4604A952F8206051F8203033
:10072000B34217D000200AAE4FEA090351F82070F7
:1007300000E00AE042F8207056F8207043F820707C
:10074000401C0228F2D3002D84D10FB0BDE8F08FF9
:100750000321CBE7401C0228DED3F6E7006000400F
:10076000100200201CB5814604F078FA04F0CCF8A1
:100770000028FBD130484D460768304E012430A197
:100780003088D9F8182004EB004004F0A9F9D5E925
:100790000201CDE900013088D5E9002304EB0040D7
:1007A0002DA104F0B5F9E8690090D5E9042330885B
:1007B00037A104EB004004F0A2F91F48001D0068B7
:1007C000800705D530883C4904EB004004F084F9EB
:1007D000DFF8E880002500BF04FA05F0384208D0B1
:1007E00058F825202AB1308835A104EB004004F0E8
:1007F00077F96D1C1A2DEFD3380608D50E480C304A
:100800000268308831A104EB004004F069F9380433
:1008100008D5094810300268308834A104EB004044
:1008200004F05EF90448C8300068C00700D000BE7C
:10083000484600F069F8000028ED00E06C01002057
:1008400048415244204641554C5420617420307830
:100850002530385800000000202052303A20203047
:100860007825303858202052313A202030782530F1
:100870003858202052323A202030782530385820FD
:100880002052333A202030782530385800000000BC
:1008900020205231323A2030782530385820204CF0
:1008A000523A202030782530385820205053523A80
:1008B0002030782530385800286B00007000002068
:1008C00043617573653A2025732E00004D656D4DAB
:1008D000616E616765204661756C74204164647265
:1008E0006573733A2030782530385800427573208C
:1008F0004661756C7420416464726573733A20308C
:100900007825303858000000BFF34F8F0548016844
:10091000054A01F4E06111430160BFF34F8F00BF4E
:10092000FDE700000CED00E00400FA0500F01F02F6
:10093000012191404009800000F1E020C0F88012C0
:10094000704700F01F02012191404009800000F132
:10095000E020C0F80011704700F01F020121914013
:100960004009800000F1E020C0F8001270474907FC
:10097000090E002806DA00F00F0000F1E02080F8F0
:10098000141D704700F1E02080F80014704710B586
:1009900002F08CF9BDE8104002F042BB074800218C
:1009A000C0F84011C0F84411C0F84811C0F84C110B
:1009B000C0F80011C0F8041104F03ABF0010014063
:1009C00004F088BE30B54FF080500022D0F83011CE
:1009D0000123082902D1D0F8344114B1082909D0E3
:1009E0000BE04FF08041C1F80C21C1F8102168499B
:1009F0000A6005E0D0F8344114B1082957D059E015
:100A000064490968644C21606249091D0968241D14
:100A10002160604908310968241D21605D490C315D
:100A20000968241D21605B4910310968241D21607B
:100A3000584914310968241D216056491831096844
:100A4000554C2034216053491C310968241D216014
:100A5000504920310968241D21604E49243109681C
:100A6000241D21604B4928310968241D2160494912
:100A70002C310968241D2160464930310968464CF3
:100A800040342160434934310968241D21604149C3
:100A900038310968241D21603E493C310968241D14
:100AA00021603C4940310968241D216005E0D0F8EF
:100AB000344114B1082904D006E0394C374921608B
:100AC00005E0D0F8344114B1082904D006E0354CD3
:100AD000FB21216005E0D0F8344114B1082908D089
:100AE0000AE090F858423048016864F3030101605D
:100AF00005E0D0F8344114B1082905D00EE02B49A7
:100B00004FF40070086002E0D0F8340130B9284892
:100B10000168C90702D06FF0010101602548016832
:100B200041F470010160BFF34F8FBFF36F8F4FF03F
:100B30001021D1F80002002803DBD1F804020028BC
:100B400022DA1D4C23601D480368002BFCD01223C1
:100B5000C1F800320568002DFCD0C1F804320168EC
:100B60000029FCD0226001680029FCD0BFF34F8F20
:100B700010487C380168124A01F4E06111430160B9
:100B8000BFF34F8F00BFFDE70F490E48086030BD2F
:100B9000380500400404001020C5004048810300CF
:100BA0008C56004018F50040E40E0040409602408C
:100BB0000004004088ED00E004E5014000E401404D
:100BC0000400FA050090D003380100200448017F9A
:100BD00004480029024901D004F043BF04F0B2BE2A
:100BE00078020020002000402DE9F05F5448D0F842
:100BF000045300242E464FF0010913E096FAA6F0A4
:100C0000B0FA80F7B80000F58070804604F01AFB57
:100C100028B1404604F01EFB09FA07F0044309FA24
:100C200007F08643002EE9D102F026FF002869D0A4
:100C3000444AD078F0BBA00264D5434940F2A97879
:100C4000C1F80080081D036813F0FF0C02D0036890
:100C500003EA0C0C40F2AA7AC1F800A0036813F072
:100C6000FF0301D00668334040F2AB7BC1F800B00F
:100C7000066816F0FF0601D007683E4040F2AC77E8
:100C80000F60076817EA0C0709D0D2F810C04CEAC9
:100C9000070CC2F810C0C1F800800760076840F276
:100CA000AD770F6007681F4009D0136943EA074317
:100CB000136100E026E0C1F800A00760036840F27D
:100CC000AE730B60036833400BD0DE0701D044F4F1
:100CD0000004DE0601D544F00104C1F800B0036051
:100CE0000068106930F0011102D005F080710C43EA
:100CF00010F0011F06D0690504D520F0011044F45E
:100D000080641061C4F3C05624F400044F46DFF839
:100D10003C8009E094FAA4F0B0FA80F558F8250078
:100D2000804707FA05F08443002CF3D104F0A8FFB4
:100D3000002E03D0BDE8F05F01F014B8BDE8F09FCD
:100D4000007002403000002000780240BC660000C5
:100D500002E008C8121F08C1002AFAD17047704784
:100D6000002001E001C1121F002AFBD170470220C0
:100D700000F0AEBA70B50A4D686818B909A19020A4
:100D800000F05EFA002406E06868012110F83400E3
:100D900002F000F8641C28788442F5D3002070BD6E
:100DA000440000202E2E5C2E2E5C2E2E5C2E2E5CFF
:100DB0002E2E5C2E2E5C636F6D706F6E656E74737D
:100DC0005C6C69627261726965735C627574746F80
:100DD0006E5C6170705F627574746F6E2E6300007C
:100DE000F8B515460C460646052A01D20720F8BD7F
:100DF00002F0D4F818B902F0A3F80028F7D110498E
:100E000000204E600C70C1E902500E4D08610DE0EB
:100E100006EBC4006968009181788DF801100078B4
:100E2000094A694602F016F80028E0D1641EE4B2CF
:100E3000EED2BDE8F840054A0021024800F0B2B801
:100E4000440000205C670000451F0000CD19000031
:100E50002DE9FC4114468846074603F0FFFE00BF1B
:100E600003F052FD0028FBD16FF48040194D381873
:100E70004FF001061ED0012813D02888424606EB09
:100E8000004015A103F02CFE19480068C00700D0EF
:100E900000BE224602B041463846BDE8F04100F0AF
:100EA0004FB82888238806EB004012A1626803F03F
:100EB0001EFEE9E7A06803F0D5FF034621886068BD
:100EC000CDE90001288812A106EB0040A26803F0DA
:100ED0001FFED9E784010020554E4B4E4F574E2040
:100EE0004641554C542061742030782530385800E4
:100EF000F0ED00E0415353455254494F4E204641D6
:100F0000494C45442061742025733A257500000042
:100F10004552524F52202575205B25735D20617428
:100F20002025733A257500000EB5ADF80010CDE907
:100F300001206A46002144F20100FFF789FF0EBD3F
:100F400008B501238DF800309DF80030144B18606F
:100F500059609A606FF48041401807D001280FD182
:100F6000DA60D86800889861D86807E01A61186963
:100F70008068586118690088986118694068D8616C
:100F8000186858689868D868186958699869D8695D
:100F900072B600BF9DF800000028FBD162B608BD04
:100FA000F0040020074B9B7823B12AB120B10068E0
:100FB000037C1BB1082070470720704741744261D1
:100FC000002070471005002070B504F0CFFA1048DB
:100FD00000240B21047044700E4D817014206C604D
:100FE0002C706C70FFF7A2FC07211420FFF7BFFCE8
:100FF0001420FFF7A6FC0848046007211120FFF722
:10100000B6FC0548001F0068A860002070BD000005
:101010001005002058000020081501402DE9F84374
:10102000DFF8709099F802305BB350B3052902D213
:101030000720BDE8F88343691BB3437C012B22D012
:1010400000270446002588461646284600F036F854
:10105000684605F067FAC0B1012101700E4944608D
:101060000968C0E90218C0E904769DF8000089F813
:101070000100002000F050F81420FFF76DFC284616
:10108000D7E70820D5E70F46DBE70425002000F06E
:1010900043F8F4E71005002004150140064989785B
:1010A00039B130B1416921B100210174022104F04C
:1010B0009FBB0820704700001005002010B504F009
:1010C0000DFA012803D004A11D2000F0B9F8BDE8F5
:1010D000104000F04FB800002E2E5C2E2E5C2E2EFD
:1010E0005C2E2E5C2E2E5C2E2E5C636F6D706F6EF0
:1010F000656E74735C6C69627261726965735C754C
:1011000074696C5C6170705F7574696C5F706C6140
:1011100074666F726D2E630010B504F0DFF901285C
:1011200003D004A12B2000F08BF8BDE8104000F0A4
:1011300029B800002E2E5C2E2E5C2E2E5C2E2E5CEE
:101140002E2E5C2E2E5C636F6D706F6E656E7473E9
:101150005C6C69627261726965735C7574696C5C00
:101160006170705F7574696C5F706C6174666F72CA
:101170006D2E630072B602480168491C0160704719
:101180006C00002003490868401E086000D162B668
:10119000704700006C00002070B5054608680C46DA
:1011A000411C04D003F06FFA206803F0A2F96068D4
:1011B000411C02D0002103F093F928791F4901EB6B
:1011C00040102968007F0028A069C1F8240523D0B9
:1011D000607D227D29681043C1F86C05D4E90012B6
:1011E0002868C0F80C15C0F8142522E0A068411C3E
:1011F00002D0002103F074F9E068411C04D003F030
:1012000042FAE06803F075F9D4E902122868C0F8E0
:101210000825C0F8101570BD607D217D2A6808433F
:10122000C2F86C05D4E900122868C0F81425C0F88B
:101230000C15207D0128D9D070BD00007802002057
:101240001CB56A46ADF800000191002144F202008D
:10125000FFF7FEFD1CBD102802D31038C0B2704746
:1012600040F080007047000038B50446042803D3DE
:101270000AA15D20FFF7E4FF1448005D0090684676
:1012800003F05AF9D0F810050099C84010F0010099
:1012900000D0012080F0010038BD00002E2E5C2E11
:1012A0002E5C2E2E5C2E2E5C2E2E5C2E2E5C636F02
:1012B0006D706F6E656E74735C626F617264735C87
:1012C000626F617264732E63000000004C66000060
:1012D00038B50446042803D30BA13620FFF7B0FF2E
:1012E0001548005D0090684603F026F9D0F8042503
:1012F000009B0121994021EA0203C0F80835114002
:10130000C0F80C1538BD00002E2E5C2E2E5C2E2E43
:101310005C2E2E5C2E2E5C2E2E5C636F6D706F6EBD
:10132000656E74735C626F617264735C626F61722C
:1013300064732E63000000004866000010B5044688
:10134000042803D305A11E20FFF77AFF0F480121CF
:10135000005DBDE8104003F0A0B900002E2E5C2E09
:101360002E5C2E2E5C2E2E5C2E2E5C2E2E5C636F41
:101370006D706F6E656E74735C626F617264735CC6
:10138000626F617264732E630000000048660000A3
:1013900010B50446042803D305A11820FFF750FF19
:1013A0000F480021005DBDE8104003F076B9000051
:1013B0002E2E5C2E2E5C2E2E5C2E2E5C2E2E5C2E67
:1013C0002E5C636F6D706F6E656E74735C626F61BF
:1013D0007264735C626F617264732E63000000005C
:1013E0004866000038B50446042803D30AA111203A
:1013F000FFF726FF1448005D0090684603F09CF854
:10140000D0F804050099C84010F0010000D0012078
:1014100080F0010038BD00002E2E5C2E2E5C2E2E9A
:101420005C2E2E5C2E2E5C2E2E5C636F6D706F6EAC
:10143000656E74735C626F617264735C626F61721B
:1014400064732E6300000000486600007CB5002431
:10145000084E25460122305D009500231146019576
:1014600002F0EAFF641C042CF4D3BDE87C4000F0D9
:1014700003B800004866000010B500242046FFF7BE
:101480005DFF641C042CF9D310BD10B50024204668
:10149000FFF77EFF641C042CF9D310BD10B5024683
:1014A000064B4FF0FF3000215C5C944201D10846AE
:1014B00010BD491C0429F7D310BD00004C66000084
:1014C0002DE9F0470D468146FFF7E8FF0446042862
:1014D00036D2DFF874801B481C4EA8F10C0725B3E8
:1014E000012D0ED0022D2BD104EB44003044457861
:1014F000002D25D0B968002922D02846BDE8F04744
:10150000084704EB4401755C0E44717849B10E4AFA
:101510004FF40041093A8068FFF780FD08B987F869
:101520000390B17808F80410E2E78068FFF7B6FD91
:1015300004EB4401314418F804008D78A842D7D058
:10154000BDE8F087506600001C000020D00100209C
:10155000FFF78ABE70B50023042810D20D4D00EBB2
:101560004004012A02D101290CD00022094E00EBCF
:101570004000304461B1012906D0022906D007237A
:10158000184670BD0E30C2B22A55F9E74270F7E72F
:101590008270F5E7D00100200C2802D1014901201A
:1015A000887170470000002070B506461E48002470
:1015B000C0E90161B00720D5002501221146284667
:1015C000FFF7C8FF6D1C0446042D02D2002CF4D096
:1015D00013E094B940F2666204211448FFF700FC5E
:1015E00004000AD1FFF7C6FB040006D10F48104AD9
:1015F0000021001FFFF7D6FC0446F00701D0FFF7DB
:1016000025FF74B909480B4A00210C38FFF7CAFCC2
:10161000040006D10548084A01210838FFF7C2FC3A
:101620000446204670BD0000100000205C660000EB
:101630007D180000612100006F0D00002DE9F05FB2
:101640006A4C054600266078B34618B184F801B0AC
:1016500000F06EFD664F4FF47A694FF4C87A4FF090
:101660000108182D62D2DFE805F0AC0C0C31404DBA
:1016700062676B746B74BE7D7D7D7D7DACAFB2B5F2
:10168000BEBE0020FFF7AEFE00284FF0000008D0DD
:10169000FFF754FE022D02D14FF4E16008E0484606
:1016A00006E0FFF775FE022D01D1C82000E050468C
:1016B000410CC0034FF4FA72801841F1000125700B
:1016C00052000023FEF7BCFE01462AE00020FFF78F
:1016D00089FE00284FF0000004D0FFF72FFE4FF4E2
:1016E0004870E5E7FFF754FEDFE70020FFF77AFEDA
:1016F00000284FF0000002D0FFF720FECFE7FFF7F1
:1017000047FED4E70020FFF76DFE00284FF00000F1
:1017100002D0FFF713FE01E0FFF73AFE257041F615
:101720009A1100223868FFF779FC064646E000204F
:10173000FFF7CEFD257008E0002051E025703DE068
:1017400084F801800120FFF7C3FD002240F6CD415F
:10175000E8E784F801800120FFF7BAFD00224FF48A
:101760008041DFE77868FFF799FC0646D5F1110064
:1017700000D02EB10220FFF7E1FD84F802B01DE099
:10178000012816D980B2C8214843C117C90341EACC
:101790005041C0034FF4FA72801841F10001520029
:1017A0000023FEF74DFE014600227868FFF736FC65
:1017B00006460220FFF7ECFD84F802803046BDE8C3
:1017C000F09F00F0B5FCB9E700F0B2FCB4E700F020
:1017D000AFFC04E000F0ACFC0020FFF7D9FD0120D5
:1017E000FFF7D6FDAAE7FFF750FEA7E7100000209D
:1017F000506600002DE9F041861C0C4601270020B0
:10180000FFF75CFC0F4801682160D0E90012891ADB
:1018100082680446511AB51C07E000BF00F0BEFD07
:10182000D4E90001401AA168091A491C8D42F5D873
:101830002068304420600020FFF76EFC3846BDE889
:10184000F08100001C07002030B482680468531C3B
:101850008360A154D0E901128A4202D330BC02F065
:1018600095BC30BC70470000034803C8814201D1D9
:1018700001207047002070471C07002000780221DB
:10188000FFF71EBE05494FF0FF32082841F820201F
:1018900002D3084480F8582070470000100200204E
:1018A000F0B54FF0FF3512B10023082601E0082300
:1018B0000C260C4C05E000BF54F823707F1C04D0AC
:1018C0005B1CB342F8D32846F0BD26185DB286F8FB
:1018D000305044F82310002AF5D1E11881F858005F
:1018E000F1E70000100200200249084490F930009E
:1018F000704700001002002070B5084C050009D0A8
:1019000010342168002907D00868206049682846FB
:101910008847F6E70834F4E770BD0000FC010020BA
:101920002DE9F05F26484168F1B3DFF898B00E6802
:101930008146DBF8004087688078E11B21F07F4515
:10194000ED1CB0B9DFF880804FF48030C8F8440354
:10195000C8F804031120FEF7E9FF1120FEF7F1FF9C
:101960004FF0010AC8F800A02F2001F01BF889F8F9
:1019700002A0B54200D23546124BE8193C3320F0A4
:101980007F401860DBF800105A46091B21F07F41A8
:10199000001B20F07F40C91C81420FD910681860DD
:1019A0002F2000F0FFFF00E004E0BDE8F05F112011
:1019B000FEF7D2BFBDE8F05F03F0D8BDBDE8F09FF1
:1019C0005800002004150140001001402DE9F041AD
:1019D00000260125144C22E06068226900EBC6074E
:1019E000387805FA00F1114217D08A43226101F0DC
:1019F00095FA02463878E36805FA00F1194002FAD0
:101A000000F3994209D17978012901D0012100E040
:101A1000002151407A6802B19047761CF6B22078D6
:101A20008642D9D3BDE8F081440000200E4910B5AC
:101A30000A784C780023A24212D0521CD2B20A700B
:101A4000022A00D10B70084A0B780C3252F823207E
:101A500002608868104420F07F408860012010BD3B
:101A60000360002010BD00005800002010B504469F
:101A7000010600F00F00092804D306A140F2AE20B1
:101A8000FFF7DEFB6FEA0460C10F204661F31F1011
:101A900010BD00002E2E5C2E2E5C2E2E5C2E2E5C99
:101AA0002E2E5C2E2E5C636F6D706F6E656E747380
:101AB0005C647269766572735F6E72665C75736280
:101AC000645C6E72665F6472765F757362642E63C7
:101AD0000000000010B50D4C012802D060B10720B5
:101AE00010BD812001F0F6FD812001F0B5FE8120BE
:101AF00001F0F4FD012003E0812001F0BBFD002096
:101B0000207002F063F9002010BD000000000020EA
:101B100070B50546000605F00F0402D5092C09D35F
:101B200001E0092C08D307A140F29B20FFF788FBB6
:101B3000280601D5134801E01248903800EB041044
:101B400070BD00002E2E5C2E2E5C2E2E5C2E2E5C88
:101B50002E2E5C2E2E5C636F6D706F6E656E7473CF
:101B60005C647269766572735F6E72665C757362CF
:101B7000645C6E72665F6472765F757362642E6316
:101B8000000000002803002010B50446010600F004
:101B90000F00092804D3034940F27E20FFF750FBD1
:101BA000204610BD405C0000704700000C4910B595
:101BB0000020C8708020FFF7ABFF817B0124032940
:101BC00002D0006800280AD18020FFF74FFF844030
:101BD000E1430348BDE810400C3000F0B6BD10BD35
:101BE00030000020812003F001BA822003F0FEB90A
:101BF000832003F0FBB9842003F0F8B9852003F0BB
:101C0000F5B9862003F0F2B9872003F0EFB98820F8
:101C100003F040BA38B5144D0020E870FFF778FFA4
:101C2000817B0124032902D0006868B108E000200C
:101C3000FFF71CFF84400C48E1430C3000F085FDA9
:101C4000BDE8384002F0C5B80020FFF70FFF844020
:101C50000548E1430C3000F078FD0448C06800906E
:101C600069686846884738BD3000002088660000F3
:101C7000012003F051BA022003F04EBA032003F012
:101C80004BBA042003F048BA052003F045BA0620F9
:101C900003F042BA072003F03FBA000038B5104DF8
:101CA00000200824E8702046FFF732FF817B0329DB
:101CB00014D00068002811D12046FFF7D7FE01217B
:101CC0008140C94305F10C0000F03FFD0548406923
:101CD00000908DF8024069686846884738BD00006A
:101CE000300000208866000070B515480468046064
:101CF000BFF36F8FBFF34F8FBFF36F8FBFF34F8F64
:101D000001F0BAFE38B10F48016921F0011201F06B
:101D100001111443016101266CB194FAA4F0B0FAE8
:101D200080F52846FFF797FA06FA05F18C43294615
:101D300004F012F9F0E7BDE8704003F0A1BF000025
:101D40006C7402403000002010B5054CA078FFF7FD
:101D50008DFE0146A078BDE8104004F0FDB80000FB
:101D600030000020F8B51E48D0F8001221F0040120
:101D7000C0F800121B4800681B4DC6B2A878FFF7D8
:101D800075FE012404FA00F12889EA68C04380B294
:101D90001043014202D0A87804F05CF806F08000FD
:101DA000A8700020FFF762FE04FA00F68020FFF71B
:101DB0005DFE04FA00F006430B48F1430C3000F0DE
:101DC000C4FC8020FFF752FE8440A8680443074803
:101DD000AC60006A0090696868468847F8BD0000FA
:101DE00000700240807402403000002088660000CD
:101DF00038B5002000900B480068ADF8020088203C
:101E0000FFF734FE012505FA00F40820FFF72EFE47
:101E1000054985402C43886804438C6049686846BE
:101E2000884738BD207502403000002070B50B484F
:101E300004680460BFF36F8FBFF34F8F012609E082
:101E400094FAA4F0B0FA80F52846FFF704FA06FAEF
:101E500005F08443002CF3D170BD0000687402408B
:101E6000F8B51C480568284603F000FABFF36F8FE9
:101E7000BFF34F8F184E194CE80506D5012060704E
:101E8000706A0090616868468847A8054FF00007AF
:101E900005D56770B06A0090616868468847680534
:101EA00016D56078002813D003F0EAF920B10CA110
:101EB00040F2AB40FFF7C4F9677019490120086090
:101EC000582003F0E5F9F06A009061686846884799
:101ED000F8BD000000740240886600003000002059
:101EE0002E2E5C2E2E5C2E2E5C2E2E5C2E2E5C2E2C
:101EF0002E5C636F6D706F6E656E74735C64726977
:101F0000766572735F6E72665C757362645C6E7226
:101F1000665F6472765F757362642E630000000012
:101F200008750240054908B50020487088700448CB
:101F30004068009049686846884708BD3000002026
:101F4000886600002DE9F041124E07460125BD408C
:101F50003068FFF7A3F800280DD10F4C2069284204
:101F600007D1384600F0DAFF0028E06805D02843A2
:101F700004E0A8432061BDE8F081A843E060206947
:101F800028432061A1683068BDE8F0410022FFF7D6
:101F900045B800005C6700004400002010B500F068
:101FA000D3FD20B1134A40F2F531FEF7BDFF00200A
:101FB00001F00EF820B10F4A40F2F731FEF7B4FFFE
:101FC000002000F065FD002000F012FE00F030FD62
:101FD0000028FBD000F0DAFD0028F7D0FEF7F4FF70
:101FE000002806D0BDE81040024A40F20141FEF749
:101FF0009BBF10BD942500002DE9FC5F0E008346B9
:10200000DDE90C47C6F1000098469246814600D4AF
:102010000846012503E000BF90FBFAF06D1C504517
:10202000FADAA84500D9454624B1002E01DB78072D
:1020300000D5641EB80702D5B8F1000F0AD0F80722
:1020400008D13CB1A54205D220215846641EFFF7B5
:10205000FBFBF6E7002E02DA4E462D2102E0780760
:1020600003D52B215846FFF7EFFB07F003000228AA
:102070000BD1B8F1000F08D13CB1A54205D23021F7
:102080005846641EFFF7E0FBF6E7CDE900474346FC
:1020900052463146584603F05DFDBDE8FC9F000006
:1020A00070B50E460446007918494FF4A27501EB4D
:1020B0004010017F2068A1B14FF4887102F0F2FE58
:1020C0004FF49071206802F0EDFE4FF49271206899
:1020D00002F0E8FE2946206802F0E4FE0C49206880
:1020E00009E04FF48E7102F0CCFE2946206802F020
:1020F000C8FE08492068C0F80413206800F046FEB6
:102100003146BDE8704000F009BE000078020020B2
:1021100010030200800002000268134602E08A42B7
:1021200004D01268002AFAD10B60016070470000E9
:102130000A4810B5807860B1002401E0022C06D076
:102140002046FFF7FBF8641C042CF7D310BD0324D2
:10215000F6E7BDE81040FFF78FB90000100000203F
:1021600003480179C90702D00078FFF767BA7047C2
:10217000100000202DE9F047394E002780463D46EB
:10218000DFF8E090D6F804A057E003D00446D0F87A
:102190001C8035E099F8002002EB4201521CD2B2BB
:1021A00089F8002009EBC10199F80230091D9A4213
:1021B00001D189F8005048680A780446012A12D0F3
:1021C000022A02D0032A3BD108E003F0E1FA00B171
:1021D0000127257434E00574C06900E070680028A8
:1021E000F9D170602CE0207C50BB88686060C868C2
:1021F000A0600869E0604869A061F07800B165609E
:102200006268B168184B501A20F07F40984202D2A1
:10221000A168084406E0881AA16820F07F40814246
:1022200002D9081A206000E0256065600120A560E1
:1022300020742046E56103F08DFAB8F10000A4D1C6
:1022400099F8001099F801008142A3D117B971687B
:10225000514502D00120BDE8F0870020FBE70000D7
:102260005800002010050020FFFF7F0070B52E48A9
:1022700004682E4D03262EA1288806EB004002F0AC
:102280002BFC2CB928882EA106EB004002F024FC80
:10229000E00705D028882CA106EB004002F01CFCCA
:1022A000A00705D528882BA106EB004002F014FCFE
:1022B000600705D5288829A106EB004002F00CFC38
:1022C000200705D5288827A106EB004002F004FC72
:1022D000E00305D5288826A106EB004002F0FCFBB0
:1022E000A00305D5288824A106EB004002F0F4FBEA
:1022F000600305D5288823A106EB004002F0ECFB23
:10230000200305D5288821A106EB004002F0E4FB5C
:10231000E00207D528881FA106EB0040BDE8704009
:1023200002F0DABB70BD0000000400408401002010
:10233000526573657420726561736F6E733A000045
:102340002D204E4F4E4500002D20524553455450F0
:10235000494E00002D20444F470000002D205352CD
:10236000455100002D204C4F434B555000000000BC
:102370002D204F46460000002D204C50434F4D501D
:10238000000000002D204449460000002D204E464C
:10239000430000002D2056425553000070B588B010
:1023A000244800F0CBF92348001F064600F0C6F988
:1023B000214DD5E9014105E0C0F3891202EB9050AF
:1023C000641C044404EA010005EB8000C068820735
:1023D000F2D000200DF1080204EA010305EB8303AB
:1023E000641CDB6842F82030401C0228F4D30298B9
:1023F00000F00300012817D002280ED00F4940F248
:102400002710FEF71DFF3046002101AAFDF7D1FF7E
:10241000002800D06C6008B070BD0298032101EB69
:10242000905004EB9004EEE70298C0F3831004444C
:10243000E9E70000340B00201C0700206473000053
:10244000FFF7ACFD52490220FFF7AEF820B151A2D0
:1024500040F20B41FEF768FD0C2200210120FFF73E
:1024600079F820B14BA240F21141FEF75DFD00204A
:1024700002F0AEFB02F032FA01F0E2FA08B149A232
:1024800000E04AA24C4D03264CA1288806EB0040F0
:1024900002F026FB01F0D4FA08B142A200E043A208
:1024A00028884BA106EB004002F01AFBFFF7DEFE86
:1024B0004C49086808604C4801F02AFC20B135A25C
:1024C00040F25741FEF730FD4021002001F056F95F
:1024D0004021802001F052F9FEF7B8FF0220FEF7FC
:1024E00057FF0320FEF754FF404800F02BFE20B1B9
:1024F00028A240F26A41FEF717FD3D4CA079B0B129
:1025000028883CA106EB004002F0E6FA02F0FCF954
:102510000028FBD10220FEF711FF0320FEF70EFF7B
:10252000394901200860BFF34F8F20BFFDE7607875
:10253000617988420AD0607930B101F021FD607084
:1025400020B1FEF799FF01E000206070207890B183
:102550000020FEF7FDFF70B1607820B1A07850B187
:1025600001F0BCFD07E0288828A106EB004002F03E
:10257000B3FA00F0B7F802F0C7F90220FEF7DEFE6A
:1025800020BF40BF20BF0220FEF702FFB6E70000D9
:10259000991500002E2E5C2E2E5C2E2E5C6D61692E
:1025A0006E2E6300656E61626C65640064697361C0
:1025B000626C6564000000008401002055534220D5
:1025C000657272617461203130342025730000001F
:1025D0005553422065727261746120313534202573
:1025E0007300000000040040995F00006465000073
:1025F00000000020476F696E6720746F2073797345
:1026000074656D204F464600000500402020205490
:102610005820706F696E7465720000002DE9F05FDC
:10262000C7888A46191D1646B1FBF7F2B1FBF7F5CC
:1026300007FB121999193944C91CB1FBF7F104467B
:102640004079C9B2DDF828B0884206D217499420F3
:10265000FEF7F6FD01E024686D1E002DFBD1A846B3
:10266000A7EB0905B5421AD81CE000BFBBF1000F6B
:1026700006D004EB09010AEB08002A46091D05E013
:1026800004EB09000AEB08012A46001DFDF70EFFC6
:102690002468761B4FF00009A844B74201D935469B
:1026A00000E03D46002EE1D1BDE8F09F686F0000DC
:1026B00030B5024669B102F0B9FA0021084C0BE0CE
:1026C00001EB410304EB830315685B88AB4202D145
:1026D0001160002030BD491C8142F1D3052030BD7E
:1026E0003C01002013480178002922D001790029FB
:1026F0001FD1C17811F0030106D0012907D00229AA
:1027000008D003290CD108E04FF4206107E04FF412
:10271000202104E04FF4764101E04FF47601C160DE
:10272000C178491CC170012101710349812001F068
:10273000E7B87047000000203C66000008B50121A2
:102740006A46FDF729FE009808BD08B56A46FDF700
:102750007AFD009808BD000070B5040003D113A1F4
:10276000C620FEF76DFD00252846FEF7A7FC206871
:1027700062680168914214D9491E01600D781CB944
:1027800019A18920FEF75CFD208AE16805FB001590
:102790002068217A0278891A0279C9B28A4200D265
:1027A00001710020FEF7B8FC284670BD2E2E5C2E6D
:1027B0002E5C2E2E5C2E2E5C2E2E5C2E2E5C636FDD
:1027C0006D706F6E656E74735C6C69627261726954
:1027D00065735C62616C6C6F635C6E72665F626194
:1027E0006C6C6F632E6300002E2E5C2E2E5C2E2EE2
:1027F0005C2E2E5C2E2E5C2E2E5C636F6D706F6EC9
:10280000656E74735C6C69627261726965735C6237
:10281000616C6C6F635C6E72665F62616C6C6F633F
:102820002E63000070B50C46050003D10FA1EA200D
:10283000FEF706FD1CB90DA1EB20FEF701FD0020FF
:10284000FEF73CFC1DB918499620FEF7F9FCE86834
:102850002A68211A288AB1FBF0F11068431C136022
:102860000170BDE870400020FEF756BC2E2E5C2E95
:102870002E5C2E2E5C2E2E5C2E2E5C2E2E5C636F1C
:102880006D706F6E656E74735C6C69627261726993
:1028900065735C62616C6C6F635C6E72665F6261D3
:1028A0006C6C6F632E630000E827000010B5040015
:1028B00002D0206830B901E00E2010BD17A1A02081
:1028C000FEF7BEFC606818B914A1A120FEF7B8FCA1
:1028D000A06818B911A1A220FEF7B2FCE06818B9EF
:1028E0000EA1A320FEF7ACFC208A18B90BA1A420EE
:1028F000FEF7A6FC207A61682268401AC0B2116017
:1029000004E0226811684B1C13600870401EC0B2BE
:10291000F7D221680020087110BD00002E2E5C2E19
:102920002E5C2E2E5C2E2E5C2E2E5C2E2E5C636F6B
:102930006D706F6E656E74735C6C696272617269E2
:1029400065735C62616C6C6F635C6E72665F626122
:102950006C6C6F632E630000C20800F00703012057
:10296000895C98400840704700F18040006800286A
:1029700000D00120704708B500F1804000210160BF
:102980000068009008BD00000549096840F48030E7
:1029900001F00111814201D10120704700207047F0
:1029A0000C04004000283ED01F49204A096800BF9F
:1029B00000BF00BF00BF00BF00BF00BF00BF91420B
:1029C0002FD000BF00BF00BF00BF00BF00BF00BFCF
:1029D00000BF00BF00BF00BF00BF00BF00BF00BFFF
:1029E00000BF00BF00BF00BF00BF00BF00BF00BFEF
:1029F00000BF00BF00BF00BF00BF00BF00BF00BFDF
:102A000000BF00BF00BF00BF00BF00BF00BF00BFCE
:102A100000BF00BF00BF00BF00BF00BF00BF00BFBE
:102A200000BF0138C3D17047380100200024F400F2
:102A3000064810B5007820B905A140F24110FEF714
:102A4000FFFBBDE810400120FFF79EBFFC01002006
:102A50002E2E5C2E2E5C2E2E5C2E2E5C2E2E5C2EB0
:102A60002E5C636F6D706F6E656E74735C647269FB
:102A7000766572735F6E72665C636C6F636B5C6EBF
:102A800072665F6472765F636C6F636B2E630000C7
:102A900070B51C4C0546207820B91BA14FF48970F5
:102AA000FEF7CEFB607838B115B169680020884721
:102AB0000020FEF703FB13E00020FEF7FFFA25B12C
:102AC000104829460830FFF727FB606840B94FF4EB
:102AD0008070FFF750FF01208107C1F804030860F0
:102AE0006068401C60600020FEF716FB60680028EC
:102AF00006D1BDE8704004A14FF49770FEF7A0BB6B
:102B000070BD0000FC0100202E2E5C2E2E5C2E2EAF
:102B10005C2E2E5C2E2E5C2E2E5C636F6D706F6EA5
:102B2000656E74735C647269766572735F6E7266EB
:102B30005C636C6F636B5C6E72665F6472765F631E
:102B40006C6F636B2E63000070B50E4C002520780F
:102B500008B1852513E00021A16061602161E16079
:102B60004FF0E020D0F80001012610F0010F03D152
:102B70000721002000F0D2F803480660267028469E
:102B800070BD0000FC01002018050040064810B58B
:102B9000007820B905A14FF48270FEF751FB13486D
:102BA0000068C0F3004010BDFC0100202E2E5C2EFA
:102BB0002E5C2E2E5C2E2E5C2E2E5C2E2E5C636FD9
:102BC0006D706F6E656E74735C6472697665727336
:102BD0005F6E72665C636C6F636B5C6E72665F6483
:102BE00072765F636C6F636B2E63000018040040A5
:102BF00070B51C4C0546207818B91BA1D520FEF7EE
:102C00001FFBA07838B115B1696801208847002002
:102C1000FEF754FA15E00020FEF750FA25B11148EE
:102C200029461030FFF778FAE06850B94FF4827007
:102C3000FFF7A1FE02204107C1F804031A49012051
:102C40000860E068401CE0600020FEF765FAE0687C
:102C5000002805D1BDE8704003A1F120FEF7F0BACD
:102C600070BD0000FC0100202E2E5C2E2E5C2E2E4E
:102C70005C2E2E5C2E2E5C2E2E5C636F6D706F6E44
:102C8000656E74735C647269766572735F6E72668A
:102C90005C636C6F636B5C6E72665F6472765F63BD
:102CA0006C6F636B2E630000080000402DE9F0415B
:102CB0004FF480773846FFF757FE0124104EA507E2
:102CC00048B13846FFF757FE0120C5F80803747075
:102CD0000020FEF711FE4FF482773846FFF744FEDE
:102CE00000280BD03846FFF746FE0220C5F808033F
:102CF000B470BDE8F0410120FEF7FEBDBDE8F081F3
:102D0000FC01002000F01F020121914040098000D9
:102D100000F1E020C0F880117047000070B50D464A
:102D20000446082903D31049FE20FEF789FA6807F4
:102D3000000E002C06DA04F00F0101F1E02181F809
:102D4000140D03E004F1E02181F8000404F01F01F8
:102D5000012088406109890001F1E021C1F8800269
:102D6000C1F8000170BD00008469000041098900BC
:102D700001F1E021D1F8001100F01F020120904084
:102D8000014201D00120704700207047000B40B283
:102D9000704700002DE9F0410E468046302804D3EC
:102DA000294940F2FF10FEF74BFA404602F07CFA48
:102DB00020B925494FF40070FEF742FA404602F070
:102DC0007DFA224D0028404616D0FEF78DFD28449E
:102DD00090F858008009032802D001280AD003E0A7
:102DE000404601F045FC28B103214046BDE8F041D2
:102DF00001F089BB0221F8E702F06CFA002820D02C
:102E00004046FEF771FD0446114F4FF4807007EB0A
:102E1000840100EB8400D1F8102580B242F0010259
:102E2000C1F8102501F086FC002E0AD04046FEF7BE
:102E30005BFD55F82000002803D00120A040C7F812
:102E40000403BDE8F0810000C86900001002002002
:102E5000006000402DE9FC4114460E46054630282E
:102E600004D32A4940F2D110FEF7EAF90027284698
:102E700002F01AFA08B1082744E0F2782146284601
:102E8000FEF70EFD0446401C3BD0B07868B16846A2
:102E9000009501F085FB009900EB8100D0F8001748
:102EA00021F00201C0F8001707E0002173782846DE
:102EB00000910A46019101F0D8FAF078C0B11448A7
:102EC000317800EB8400D0F81025124B1A40C0F87E
:102ED00010254FF47C524FF4403302EA052203EAF6
:102EE00001410A43D0F810150A43C0F8102509E043
:102EF00009483278204410F8581F41EA82110170C5
:102F000000E004273846BDE8FC810000C8690000E5
:102F100000600040FFC0FCFF1002002010B5044616
:102F2000302804D305494FF41370FEF789F9204681
:102F300001F09EFB002800D0012010BDC8690000F0
:102F400070B5144D95F8640008B1082070BD0020DC
:102F5000411E2A18401CC0B282F830103028F8D325
:102F600000242046FEF78EFC641CE4B20C2CF8D33F
:102F700007210620FFF7D2FE4FF4BE7001F0DAFB06
:102F800005494FF00040C1F80403012085F86400B2
:102F9000002070BD1002002000600040034890F83F
:102FA0006400002800D001207047000010020020BB
:102FB0000121B1EB507F01D1012070470020704703
:102FC0000121B1EB507F01D10120704700207047F3
:102FD00070B5104C217809B1852070BD00B90E483C
:102FE0000E4A0178C1F3400111600C49007808399C
:102FF00000F0010008604FF0E020D0F8000101254A
:1030000010F0010F03D107210020FFF787FE257084
:10301000002070BD20000020846600008005004074
:1030200070B54FF08040D0F80453354C68070DD58B
:103030004FF4847001F0F0FE40B1606820B931A116
:1030400040F24110FEF7FCF860688047A8060ED5F4
:103050004FF48A7001F0E0FE48B1A06820B929A1C0
:1030600040F24910FEF7ECF8A16800208847680696
:103070000ED54FF48C7001F0CFFE48B1A06820B996
:1030800020A14FF4A870FEF7DBF8A1680120884763
:1030900028060ED54FF48E7001F0BEFE48B1E068F0
:1030A00020B918A140F25910FEF7CAF8E1680020D3
:1030B0008847E8050ED54FF4907001F0ADFE48B199
:1030C000E06820B90FA14FF4B070FEF7B9F8E168DD
:1030D00001208847A80511D54FF4927001F09CFE9D
:1030E00000280BD0E06820B906A140F26710FEF777
:1030F000A7F8E168BDE870400220084770BD0000F5
:10310000200000202E2E5C2E2E5C2E2E5C2E2E5C9F
:103110002E2E5C2E2E5C636F6D706F6E656E7473F9
:103120005C647269766572735F6E72665C706F77ED
:1031300065725C6E72665F6472765F706F776572DF
:103140002E63000000B5024600F00EF8106838B19A
:103150000449C8604FF080414FF46070C1F8040327
:10316000002000BD200000204FF080414FF460702F
:10317000C1F8080301490020C86070472000002002
:1031800010B50446B0F5000F03D307496C20FEF7D5
:1031900057F84FF0E020816982698A1A22F07F4255
:1031A000A242F9D310BD00000C6A000070B50B4DAF
:1031B00004460B4E28680B49B0FBF6F0B1FBF0F06B
:1031C000A04203D208497720FEF73AF82868B0FBFE
:1031D000F6F06043BDE87040FFF7D2BF3801002031
:1031E00040420F00FFFF7F000C6A00004FF0E0201C
:1031F0006FF07F4141610521016170472DE9F04188
:1032000090460D00064603D118A1EA20FEF718F8F3
:103210003079264F07EB4014E07E10B10820BDE85E
:10322000F081687F207729463046FDF7B5FF5FEAD9
:10323000080060602969216003D0297F3046FEF7CD
:103240002FFF307907EB4010007F0028306801D055
:10325000082100E00421C0F800150020E075207668
:10326000A0750121E176A076D9E700002E2E5C2E14
:103270002E5C2E2E5C2E2E5C2E2E5C2E2E5C636F12
:103280006D706F6E656E74735C647269766572736F
:103290005F6E72665C756172745C6E72665F64729A
:1032A000765F756172742E63000000007802002062
:1032B0002DE9F0470E460179DFF82881044608EB36
:1032C00041151746E87E012804D047A14FF4B97094
:1032D000FDF7B6FF27B944A140F27310FDF7B0FF28
:1032E00026B941A14FF4BA70FDF7AAFF217908EB86
:1032F0004110007F18B13046FFF75AFE30B120462A
:1033000000F092F820B11120BDE8F0871020FBE713
:10331000AF750027AE60AF8221793E4608EB4115BC
:103320004FF00108287F0028206825D04FF49079BD
:10333000494601F0B7FD4FF4AC7A5146206801F0E0
:10334000B1FD2068A97DAA68C0F84425C0F84815D9
:103350002068C0F808806868F0B94946206801F024
:103360009CFD80465146206801F097FD58EA000117
:10337000F3D058BBAF750FE04FF48E7A514601F091
:1033800080FD2068C0F808802946206802F08AFA8B
:1033900069684FF4807089B13046B5E751462068BE
:1033A00001F06AFD10B9A88A4845F7D1A88A4845B6
:1033B00005D02946206802F075FA00E08146A88A07
:1033C000A97D8842EAD3A88A484501D10F26D1E7D2
:1033D0005146206801F050FD0028F9D02068C0F85F
:1033E0000C80C7E7780200202E2E5C2E2E5C2E2E3D
:1033F0005C2E2E5C2E2E5C2E2E5C636F6D706F6EBD
:10340000656E74735C647269766572735F6E726602
:103410005C756172745C6E72665F6472765F756112
:1034200072742E63000000000079044901EB401023
:10343000807D002800D00120704700007802002025
:1034400070B5044600791149002601EB401520684B
:103450002A7FC0F80065686888B1207901EB4010C8
:10346000007F0028206801D0094901E008498C3913
:10347000C0F808132068FFF789FCFFF743FC2046DB
:1034800001F034FFEE766E6070BD0000780200201F
:10349000100302002DE9F0411D46174606460C4672
:1034A000AA4204D213A140F2C510FDF7C9FE20685C
:1034B00038B1FFF785FD20B90EA14FF4E370FDF799
:1034C000BFFE6068A84204D20021716021683160AB
:1034D00007E075602168401B316060602168294405
:1034E0002160AF4203D110B10120BDE8F08100207E
:1034F000FBE700002E2E5C2E2E5C2E2E5C2E2E5C0A
:103500002E2E5C2E2E5C636F6D706F6E656E747305
:103510005C647269766572735F6E72665C75736205
:10352000645C6E72665F6472765F757362642E634C
:103530000000000010B50D4C207820B90CA140F21D
:103540009E60FDF77DFE00F0D1FC1949D1F804031F
:10355000C1F80803174900200860BFF36F8FBFF35D
:103560004F8FE0700120207010BD0000300000205F
:103570002E2E5C2E2E5C2E2E5C2E2E5C2E2E5C2E85
:103580002E5C636F6D706F6E656E74735C647269D0
:10359000766572735F6E72665C757362645C6E7280
:1035A000665F6472765F757362642E63000000006C
:1035B000007002400075024070B51A4C2078012856
:1035C00004D019A140F27D60FDF73AFE4FF400658A
:1035D000284601F04BFE244901200860BFF36F8F9D
:1035E000BFF34F8F214801680905FCD5284601F03B
:1035F0003DFE1F4940F2E37008604020091D08604D
:10360000BFF36F8FBFF34F8F174980201C310860C5
:1036100040F2FF10A0600020E060E070A070022087
:10362000207070BD300000202E2E5C2E2E5C2E2EC1
:103630005C2E2E5C2E2E5C2E2E5C636F6D706F6E7A
:10364000656E74735C647269766572735F6E7266C0
:103650005C757362645C6E72665F6472765F7573CC
:1036600062642E6300000000007502400074024096
:103670000078024070B5054602F0ECFB2846FEF7E4
:1036800083FA044600F00F00092804D30E4940F2E3
:10369000E240FDF7D5FD04F00F0122064FF00100D6
:1036A00001D50A4A01E0094A121D13688840834384
:1036B0001360BFF36F8FBFF34F8F284600F0E4F81D
:1036C0000349C1F8080370BDA04000001075024016
:1036D00000700240012101F0EBBB000070B505460F
:1036E00000F0D2F82149C1F80403284601F02CFC6F
:1036F00000283AD12846FEF747FA044600F00F00AA
:10370000092804D31A4940F2D140FDF799FD04F08D
:103710000F0021064FF0010401D5164901E01549BB
:10372000091D0A6804FA00F002430A60BFF36F8FB4
:10373000BFF34F8F280718D0280616D405F00F00C6
:10374000082812D20020FDF7B9FC284600F03CFC06
:103750002846FEF78BF984400748C168A143C16041
:10376000BDE870400020FDF7D7BC70BD007002407E
:10377000A0400000107502403000002070B50C0021
:10378000054602D0601E044204D011A140F22D7003
:10379000FDF756FD05F00F0008280CD31C48006803
:1037A000C1B2802904D04FF48060A0420AD204E064
:1037B0004FF40070F9E7402C04D905A140F22F70B6
:1037C000FDF73EFD2846FEF7A3F9848170BD000099
:1037D0002E2E5C2E2E5C2E2E5C2E2E5C2E2E5C2E23
:1037E0002E5C636F6D706F6E656E74735C6472696E
:1037F000766572735F6E72665C757362645C6E721E
:10380000665F6472765F757362642E630000000009
:103810001C75024010B5FEF7B7F9044600F00F0022
:10382000082804D3064940F2FB40FDF709FD05498D
:1038300044F480700860BFF36F8FBFF34F8F10BDEB
:10384000A04000001875024010B5FEF79DF9BDE8D4
:10385000104001F0B5BB000010B5FEF795F9044625
:1038600000F00F00082804D3054940F20350FDF78B
:10387000E7FC04480460BFF36F8FBFF34F8F10BDA8
:10388000A04000001875024070B50546000605F01E
:103890000F0402D5092C09D301E0092C08D307A194
:1038A0004FF4C770FDF7CCFC280601D5134801E0A2
:1038B00012480930015D0120884070BD2E2E5C2E1B
:1038C0002E5C2E2E5C2E2E5C2E2E5C2E2E5C636FBC
:1038D0006D706F6E656E74735C6472697665727319
:1038E0005F6E72665C757362645C6E72665F647252
:1038F000765F757362642E63000000004867000005
:103900002DE9F0410D460646FEF7B0F8044625B90C
:1039100030A140F27970FDF793FC0020FDF7CEFB5B
:103920003C48310704D181788E4201D0102438E020
:1039300001898046C943C06889B201270143A74075
:10394000394201D011242CE03046FEF7E1F804465C
:1039500006F00F00310600EB40002AD52E4901EB9E
:1039600080062868FFF72CFB0028287A4FEAC070F1
:1039700004D008B1294803E0294801E0B8B129483A
:10398000206095E8070086E807000020C4E9016090
:10399000A073D8F80C1004460F43C8F80C7002F05E
:1039A000EDFC0020FDF7B8FB2046BDE8F0811E4885
:1039B000E6E719496C3101EB8006286838B1FFF75A
:1039C000FFFA20B903A140F2D270FDF739FC174885
:1039D000D6E700002E2E5C2E2E5C2E2E5C2E2E5C4A
:1039E0002E2E5C2E2E5C636F6D706F6E656E747321
:1039F0005C647269766572735F6E72665C75736221
:103A0000645C6E72665F6472765F757362642E6367
:103A10000000000030000020B80300207D3C0000C2
:103A2000F93B0000513B0000B13A00009534000022
:103A300010B5FEF7A9F8BDE8104001F0D7BB0000B3
:103A40000C480078082810D10A48001D00780007AB
:103A50000BD108480830007810F0F00F05D1054868
:103A60000C30007810F0F00F01D0002070470120DA
:103A700070470000E00F00F00C480078082810D1D3
:103A80000A48001D007800070BD10848083000786C
:103A900010F0F00F05D105480C30007810F0F00F51
:103AA00001D000207047012070470000E00F00F0B7
:103AB0002DE9F041804616460C460868FFF780FA6B
:103AC00020B112A140F22E20FDF7BAFB65681F4F0E
:103AD000B54200D93546402D04D90CA14FF40E70E3
:103AE000FDF7AEFB2A4638462168FCF7DFFCC8E943
:103AF00000756068401B6060206828442060606832
:103B0000002800D00120BDE8F08100002E2E5C2EA0
:103B10002E5C2E2E5C2E2E5C2E2E5C2E2E5C636F69
:103B20006D706F6E656E74735C64726976657273C6
:103B30005F6E72665C757362645C6E72665F6472FF
:103B4000765F757362642E630000000090040020AD
:103B50002DE9F041064690460D460868FFF730FA19
:103B600020B114A14FF41570FDF76AFB6C68214F6A
:103B70004046444500D90446402C04D90DA140F2EA
:103B80005E20FDF75DFB34B1224638462968FCF71C
:103B90008DFC376001E00020306074606868001BB5
:103BA000686028682044286014B10120BDE8F081D5
:103BB0000020FBE72E2E5C2E2E5C2E2E5C2E2E5C23
:103BC0002E2E5C2E2E5C636F6D706F6E656E74733F
:103BD0005C647269766572735F6E72665C7573623F
:103BE000645C6E72665F6472765F757362642E6386
:103BF00000000000900400202DE9F0410746164621
:103C00000C460868FFF7DCF920B90CA14FF4F670F8
:103C1000FDF716FB6568B54200D935462068C7E94F
:103C200000056068401B6060206828442060606870
:103C3000002800D00120BDE8F08100002E2E5C2E6F
:103C40002E5C2E2E5C2E2E5C2E2E5C2E2E5C636F38
:103C50006D706F6E656E74735C6472697665727395
:103C60005F6E72665C757362645C6E72665F6472CE
:103C7000765F757362642E63000000002DE9F041E9
:103C8000074616460C460868FFF79AF920B910A1B6
:103C900040F20D20FDF7D4FA6568B54200D93546EB
:103CA000002D0FD0D4F80000C7E900056068A0EB34
:103CB0000500606020682844206006D04FF00100B5
:103CC000BDE8F0814FF00000EEE74FF00000F7E7AD
:103CD0002E2E5C2E2E5C2E2E5C2E2E5C2E2E5C2E1E
:103CE0002E5C636F6D706F6E656E74735C64726969
:103CF000766572735F6E72665C757362645C6E7219
:103D0000665F6472765F757362642E630000000004
:103D10002DE9F0410446FFF7AFFE08B1FFF766FA60
:103D20002CB11E49087820B10820BDE8F081072099
:103D3000FBE74C6001200024087046024FEA0405AE
:103D400044F0800707F00F00082801D3314600E057
:103D500040213846FFF712FD3846FDF7D9FE85733E
:103D6000641C0560E4B28560092CE9D35FF00004AF
:103D700004F00F00082801D3314600E0402120461E
:103D8000FFF7FCFC2046FDF7C3FE8573641C05604D
:103D9000E4B28560092CEBD30020C6E73000002098
:103DA00003480078022801D30120704700207047A3
:103DB0003000002010B5FFF7F3FF28B12720FEF7F1
:103DC000D5FF08B1012010BD002010BD502001F02A
:103DD0005FBA10B5FFF750FE58B1EFF3108472B61A
:103DE0004C2001F055FA4C2001F052FA84F310886F
:103DF00010BDBDE810404C2001F04ABA002101601E
:103E000041601149096801700F49091D0968417035
:103E10000D49083109680C4A0C32126841EA022146
:103E20004180094910310968074A1432126841EA91
:103E300002218180044918310968034A1C32126842
:103E400041EA0221C180704780740240542001F091
:103E50001FBA000070B5104C05462078022804D027
:103E60000EA140F2AC60FDF7EBF9002060701B4C36
:103E700015B9FFF701FE00B1194C1A48C0F8044308
:103E800007212720FEF74AFF174901200860BFF3EA
:103E90006F8FBFF34F8F70BD300000202E2E5C2E31
:103EA0002E5C2E2E5C2E2E5C2E2E5C2E2E5C636FD6
:103EB0006D706F6E656E74735C6472697665727333
:103EC0005F6E72665C757362645C6E72665F64726C
:103ED000765F757362642E63000000000714C003F0
:103EE0000714E0030070024004750240104810B54A
:103EF0000078022804D00FA140F2CB60FDF7A0F9B2
:103F00002720FEF733FF002810D002F005F81949EA
:103F100000200860BFF36F8FBFF34F8F16498020DA
:103F2000C1F8800148171549C1F8080310BD000009
:103F3000300000202E2E5C2E2E5C2E2E5C2E2E5C51
:103F40002E2E5C2E2E5C636F6D706F6E656E7473BB
:103F50005C647269766572735F6E72665C757362BB
:103F6000645C6E72665F6472765F757362642E6302
:103F7000000000000475024004E000E00070024010
:103F800010B500242046FDF799F80C48407878B128
:103F900001F0C2FF0A480168890509D409490122D4
:103FA0000A600068800502D50020086000E0012456
:103FB0000020FDF7B1F8204610BD000030000020C1
:103FC000007402402C7502402DE9F04104460006C1
:103FD00004D521A140F67200FDF732F9FFF74CFD40
:103FE00001274FF000082C4D002804F00F06404632
:103FF00012D0FDF763F82046FDF738FD8740A8682A
:104000002649B843A86040F2C57000EB460008603E
:10401000091DC1F800801AE0FDF750F82046FDF7B1
:1040200025FD8740A868B843A860200601D4082E63
:1040300004D31BA140F28E40FDF702F9264A02EBA1
:104040008601C1F8A084BFF36F8FBFF34F8FBDE827
:10405000F0410020FDF760B82E2E5C2E2E5C2E2E37
:104060005C2E2E5C2E2E5C2E2E5C636F6D706F6E40
:10407000656E74735C647269766572735F6E726686
:104080005C757362645C6E72665F6472765F757392
:1040900062642E63000000003000002000780240BF
:1040A0002E2E5C2E2E5C2E2E5C2E2E5C2E2E5C2E4A
:1040B0002E5C636F6D706F6E656E74735C64726995
:1040C000766572735F6E72665C68616C5C6E726658
:1040D0005F757362642E68000070024010B50024A2
:1040E0002046FCF7EBFF0748407830B101F0C8F8F4
:1040F00018B105490020086001240020FDF70CF8E4
:10410000204610BD300000202C7502400FB438B599
:10411000040003D110A11C20FDF792F8606918B9C2
:104120000DA11D20FDF78CF8206818B90AA11E20EA
:10413000FDF786F8606818B907A11F20FDF780F821
:104140000599002905D006A800906A46204600F08F
:1041500049F838BC5DF814FB2E2E5C2E2E5C2E2EFA
:104160005C2E2E5C2E2E5C2E2E5C65787465726E35
:10417000616C5C667072696E74665C6E72665F66B6
:104180007072696E74662E630000000010B5040042
:1041900003D107A10B20FDF753F8A268002A05D030
:1041A000D4E90403216898470020A06010BD0000F6
:1041B0002E2E5C2E2E5C2E2E5C2E2E5C2E2E5C2E39
:1041C0002E5C65787465726E616C5C667072696E87
:1041D00074665C6E72665F667072696E74662E637A
:1041E000000000002DE9FC4791460C465FEA0008FC
:1041F00004D183A14FF49F70FDF722F8D8F8140082
:1042000020B97FA14FF4A070FDF71AF8D8F800008C
:1042100020B97BA140F24110FDF712F8D8F8040054
:1042200020B977A14FF4A170FDF70AF8002C76D0E1
:1042300014F8011B39B125290ED04046FDF704FBC7
:1042400020780028F4D198F80C00002867D0404668
:10425000BDE8FC47FFF79ABF0020012221782B29F7
:104260001BD02D2902D0302908D102E040F00100F6
:1042700001E040F00200641C002AEFD100252A2949
:104280000ED02178A1F130020A2A11D205EB850265
:1042900001EB4205641C303DF1E740F00400EAE721
:1042A000D9F800100B1DC9F800300968641C0D44D2
:1042B000217800232E290BD114F8011FA1F130021F
:1042C0000A2A05D203EB830201EB4203303BF3E7FA
:1042D0006C290DD068290BD0692921D00BDC252948
:1042E00018D0582931D063290ED0642915D117E090
:1042F00014F8011FECE7702969D0732932D07529B1
:104300001BD0782909D120E0D9F80000011DC9F897
:10431000001001784046FDF797FA641C90E76CE0C6
:10432000D9F800100A1DC9F800200968CDE900502D
:104330000A224046FDF760FEEFE7D9F800100A1D9B
:10434000C9F8002009680A2206E0D9F800100A1D01
:10435000C9F8002009681022CDE90050404601F05C
:10436000F9FBDAE7D9F8001000270A1DC9F8002088
:104370000E68C00705D112E04046761C7F1CFDF791
:1043800063FA31780029F7D104E0202140466D1E00
:10439000FDF75AFABD42C0D9002DF6D1BDE74EB1A6
:1043A0003046FCF7A7F8074604E0202140466D1E82
:1043B000FDF74AFABD4206D9002DF6D103E040468A
:1043C000761CFDF741FA31780029F8D1A5E7D9F834
:1043D0000000011DC9F80010056830214046FDF7B6
:1043E00033FA78214046FDF72FFA08200021CDE965
:1043F0000001034610222946B0E7BDE8FC87000013
:104400002E2E5C2E2E5C2E2E5C2E2E5C2E2E5C2EE6
:104410002E5C65787465726E616C5C667072696E34
:1044200074665C6E72665F667072696E74665F66F3
:104430006F726D61742E63002DE9FF411C46DDE94A
:104440000A7815460E46684600F076F846EA4501B9
:1044500041EA840141EA072242EA0841009A00EB5E
:104460008200C0F80017BDE8FF812DE9FF411C461E
:10447000DDE90A7815460E46684600F091F846EAEE
:10448000450141EA840141EA072242EA0841009AD3
:1044900000EB8200C0F80017BDE8FF812DE9FF4165
:1044A0001C46DDE90A7815460E46684600F0ACF871
:1044B00046EA450141EA840141EA072242EA08410D
:1044C000009A00EB8200C0F80017BDE8FF811CB520
:1044D000002100910B4601220191FFF7DFFF1CBD77
:1044E0001CB500220B46009211460192FFF7D6FF41
:1044F0001CBD1CB5002100910B4601220191114603
:10450000FFF7CCFF1CBD13B50C46684600F048F819
:10451000009900EB8101D1F8002722F44032C1F864
:104520000027009900EB8100D0F8001741EA044110
:10453000C0F800171CBD000010B504460068302804
:1045400004D308A14FF4D570FCF77AFE2068202828
:1045500002D24FF0A04010BD00F01F0020600F48B5
:1045600010BD00002E2E5C2E2E5C2E2E5C2E2E5C9E
:104570002E2E5C2E2E5C636F6D706F6E656E747385
:104580005C647269766572735F6E72665C68616C9A
:104590005C6E72665F6770696F2E68000003005082
:1045A00010B504460068302804D308A14FF4D57034
:1045B000FCF746FE2068202802D24FF0A04010BD34
:1045C00000F01F0020600F4810BD00002E2E5C2E52
:1045D0002E5C2E2E5C2E2E5C2E2E5C2E2E5C636F9F
:1045E0006D706F6E656E74735C64726976657273FC
:1045F0005F6E72665C68616C5C6E72665F67706944
:104600006F2E68000003005010B504460068302883
:1046100004D308A14FF4D570FCF712FE20682028BF
:1046200002D24FF0A04010BD00F01F0020600F48E4
:1046300010BD00002E2E5C2E2E5C2E2E5C2E2E5CCD
:104640002E2E5C2E2E5C636F6D706F6E656E7473B4
:104650005C647269766572735F6E72665C68616CC9
:104660005C6E72665F6770696F2E680000030050B1
:1046700001B56846FFF794FFD0F810050099C840CF
:1046800000F0010008BD01B56846FFF7BDFF009AC4
:1046900001219140C0F8081508BD38B501240090EB
:1046A000684631B1FFF748FF00998C40C0F80845D3
:1046B00038BDFFF741FF00998C40C0F80C4538BD6C
:1046C0007CB5154604460C4A6618022ED2E9000253
:1046D000CDE9000204D909A140F2C220FCF7B0FDE7
:1046E000694605E051F82400D0F81005641C01C5A6
:1046F000A642F7D87CBD00007C6600002E2E5C2E02
:104700002E5C2E2E5C2E2E5C2E2E5C2E2E5C636F6D
:104710006D706F6E656E74735C64726976657273CA
:104720005F6E72665C68616C5C6E72665F67706912
:104730006F2E6800034908B5084400210160006835
:10474000009008BD0060004002494058012800D098
:10475000002070470060004030B5124B0146002039
:10476000D3F81044224609E0157A854205D1401C51
:104770000A28F7DB4FF0FF3030BD5268002AF3D132
:10478000421CF9D00872D3F810242AB152684A604A
:10479000D3F81024516030BD0022C3F810144A60D1
:1047A00030BD00001C070020F0B595B01C46154632
:1047B0000F4608461A9E00F009FB182109A8FBF7CE
:1047C0008EFE0E96CDE909540023082203A938462F
:1047D00000F016FB059806900498ADF81C00002028
:1047E0008DF820000398082600F00300012802D06D
:1047F00002281DD03CE003983346850AC0F3C2006E
:104800008DF81E0003980FA9C0F380008DF81F00DB
:104810000398C0F38314A200384600F0F1FA09A807
:10482000009006AB22460FA9284600F02BFA1FE0A5
:104830000398840DC0F3C2008DF81E000398C0F3E6
:1048400080008DF81F00082C01D2254600E00825C5
:1048500033462A460FA9384600F0D2FA2E44641B8C
:1048600009AB06AA29460FA800F05CF9002CEAD192
:10487000384600F0B4FA15B0F0BD7047012001F0E1
:1048800035B8000010B50448FEF7DAFDBDE8104069
:10489000002001F02BB80000DC00002008B5034A1E
:1048A00000924023024AFFF77FFF08BDF555000044
:1048B0001C060020084A012902EBC00005D002298D
:1048C00003D0032903D0042903D0002070470079C6
:1048D00070474079704700006C74000010B5FFF716
:1048E000CDFF04210648FFF737FF002803DA05490A
:1048F0002220FCF7A5FC02490120487210BD0000EF
:10490000E40000200C7300002DE9FE4FFCF7ACFF23
:1049100010B10020BDE8FE8F6D480021C0F81814CA
:10492000BFF34F8FD0E9014604EA060100EB810195
:104930004FF000090AE000BFC1F3891202EB915168
:10494000641C0C4404EA060100EB8101C9688A0773
:10495000F2D000216A46804604EA060308EB830091
:10496000641CC06842F82100491C0229F4D3009855
:1049700000F00300022802D001284DD0A2E00098E8
:104980005022810D8A46B2EB905F00D850210D462F
:1049900065F39F50009008314E4800F0CEF90700B3
:1049A00077D000F013FA4B4608226946384600F0EB
:1049B0002DFA04EA0600311A8900091D09F1080BD5
:1049C0008D4222D9424E0C3631B1CAB208EB80007A
:1049D000691A91460C3004E03046EAB2002691464E
:1049E0003146CDB201465B46384600F00FFA0BEB7C
:1049F00009032EB12A4631464FEA070000F006FAB5
:104A00000AF1030004EB90043AE008EB80015B46F6
:104A10002A4638460C31F1E70098C0F38310062887
:104A200000D30620009960F38911C1F38310801C24
:104A300000918100274800F080F9070042D000F083
:104A4000C5F94B4608226946384600F0DFF909F1FE
:104A5000080900250EE000BF04EA060008EB80010B
:104A60004B46042238460C31641C00F0CFF909F1A2
:104A700004096D1C0098C0F38310A842ECD847B11C
:104A8000D8F81054D8F81804464660B1384600F0FB
:104A9000A6F917E0687A012804D12A682846394621
:104AA000126890476D68002DF4D1384600F097F9F0
:104AB0000020FCF703FBD6F8180400B9746000204E
:104AC000FCF72AFBFCF7D0FE80F0010022E7000093
:104AD0001C070020A468000000231A4600F0A2BDB5
:104AE00008B5012300926A4600F09CFD08BD1CB584
:104AF000CDE9002302236A4600F094FD1CBD3EB5BB
:104B0000069C8DE81C0003236A4600F08BFD3EBD29
:104B10007FB5DDE908458DE83C0004236A4600F0D6
:104B200081FD7FBD2DE9F0470E4680461C4692462A
:104B300008293ED894F80C9000202073194610469E
:104B400000F09EFC0025B54206D218F805201AA1F7
:104B50002046FFF7DBFA03E019A12046FFF7D6FA5B
:104B60006D1C082DEFD317A12046FFF7CFFA0025C3
:104B7000B54210D218F80570FBF794FC0068C05DD0
:104B800010F03E0F01D03A4600E02E220EA1204642
:104B9000FFF7BCFA03E00DA12046FFF7B7FA6D1C42
:104BA000082DE5D301222146504600F0DBFB84F8B6
:104BB0000C90BDE8F087000020253032780000001E
:104BC000202020007C000000256300002000000061
:104BD000114810B5FF218160002101604160C0F8DB
:104BE0001814C0F8141480F81C140C4800F0F5F8E0
:104BF00000280FD10A480B490B4B401AC10800206E
:104C000005E000BF00EB400223F82200401C884270
:104C1000F8D3002010BD00001C070020A46800008D
:104C2000A47400006C7400003C0100200248034999
:104C3000401AC00870470000A47400006C740000A3
:104C400013B56846FDF734FD08B100201CBD0248CD
:104C5000009950F831001CBD6C74000070B5084814
:104C60000125D0F8104480F81C5405E065722168D5
:104C70002046496888476468002CF7D170BD000061
:104C80001C0700202DE9FF4781460C9D00200C46A3
:104C90002F7B2873984616462946184600F0F0FBED
:104CA000072E42D2DFE806F004090F161F2A36004D
:104CB00049462846FFF72AFA37E04946284622683F
:104CC000FFF724FA31E0D4E9002349462846FFF7EC
:104CD0001DFA2AE0A0680090D4E90023494628463E
:104CE000FFF714FA21E0D4E90201CDE90001D4E98B
:104CF000002349462846FFF709FA16E004F10800A8
:104D000007C88DE80700D4E9002349462846FFF785
:104D1000FDF90AE004F108000FC88DE80F00D4E99E
:104D2000002349462846FFF7F1F90022294640466C
:104D300000F018FB2F73BDE8FF872DE9F041058ACD
:104D400080462D1F4819C01CB0FBF5F0C6B2404686
:104D5000FDF702FD041E19D00020207101206071B2
:104D6000E58000272546761EC4F800800BE040460B
:104D7000FDF7F2FC60B16179491C6171286005465C
:104D80007F1CC0F80080B742F1D32046BDE8F08117
:104D9000204600F002F80020F8E72DE9F0414579BF
:104DA00001466B1E002201E00968521C9A42FBD3A7
:104DB0000F680146002605E038460C68FDF732FD15
:104DC0002146761CAE42F7D3BDE8F08108B501213B
:104DD0006A46001DFBF7B9FA08BDFDF767BD38B597
:104DE0000446001D01216A46FBF7BCFA009810F04A
:104DF000FF0F04D12046BDE83840FFF7CEBF38BDD5
:104E000038B501240094FDF709FC38BD38B50024FD
:104E10000094FDF703FC38BD00F1804108680022D2
:104E200010B101200A607047104670470C4A10B557
:104E300002F1F0030EE0991AC91001EBD17149108B
:104E400002EBC1010C68844201D90B4602E005D295
:104E500001F108029A42EED3002010BD486810BD4F
:104E60008867000000B5FFF7E1FF002800D1014886
:104E700000BD0000746700004058002800D00120E9
:104E8000704708B5002242504058009008BDD0F845
:104E90000403084000D0012070474058002800D08B
:104EA0000120704708B5002242504058009008BDCC
:104EB00070B50446000604F00F050E46092D04D314
:104EC0000B4940F2AE40FCF7BBF9082D04D308496A
:104ED00040F2AF40FCF7B4F906480460BFF34F8FCF
:104EE00044EA06210160BFF36F8FBFF34F8F70BD9F
:104EF000A04000000C75024030B5050600F00F031D
:104F00000E4C03EB830004EB80000AD5082B03D37F
:104F10000B480160001D09E0C0F80016C0F8042627
:104F200030BD082B04D307480160001D026030BD6E
:104F3000C0F80017C0F8042730BD00000070024020
:104F4000A0760240A077024010B5044600F00F00A2
:104F5000092804D30BA140F2C240FCF771F92106E5
:104F60004FF0010004F00F0200FA02F001D51349DE
:104F700001E01249091D0968014201D0012010BD5C
:104F8000002010BD2E2E5C2E2E5C2E2E5C2E2E5C54
:104F90002E2E5C2E2E5C636F6D706F6E656E74735B
:104FA0005C647269766572735F6E72665C68616C70
:104FB0005C6E72665F757362642E680010750240E5
:104FC00000F00F0108290DD2020607494FEA0070D0
:104FD00001EB906002D5D0F8200401E0D0F8440441
:104FE000012800D0002070470070024070B50446D0
:104FF000000604D416A14FF45F70FCF721F904F009
:105000000F00082804D312A140F27D30FCF718F9F4
:10501000200704D10EA140F27E30FCF711F91C49A3
:105020000020C8702046FCF773FD817B0125032911
:1050300002D0006800280AD12046FCF717FD854001
:10504000E943BDE8704012480C30FDF77EBB70BDEF
:105050002E2E5C2E2E5C2E2E5C2E2E5C2E2E5C2E8A
:105060002E5C636F6D706F6E656E74735C647269D5
:10507000766572735F6E72665C757362645C6E7285
:10508000665F6472765F757362642E630000000071
:1050900030000020F8B50446000604D41B494FF444
:1050A0006770FCF7CDF804F00F00082804D2174908
:1050B00040F29D30FCF7C4F8154E0020F0702046F9
:1050C000FCF726FD817B0125032914D00068002808
:1050D00010D12046FCF7CAFC8540E94306F10C00DC
:1050E000FDF733FB0B48806800908DF80240716833
:1050F00068468847F8BD2046FCF7B8FC8540E94380
:10510000BDE8F84002480C30FDF71FBB405C0000D2
:105110003000002088660000F8B50446000604D57B
:1051200020A14FF47870FCF78BF804F00F000828EA
:1051300004D31CA140F2E130FCF782F8200704D12F
:1051400018A140F2E230FCF77BF8264E0020F07008
:105150002046FCF7DDFC817B0125032902D0006895
:1051600050B11AE02046FCF781FC85401D48E94318
:105170000C30FDF7EAFA10E02046FCF777FC85409A
:105180001848E9430C30FDF7E0FA17480069009031
:105190008DF80240716868468847BDE8F84000F025
:1051A0006FBD00002E2E5C2E2E5C2E2E5C2E2E5CF3
:1051B0002E2E5C2E2E5C636F6D706F6E656E747339
:1051C0005C647269766572735F6E72665C75736239
:1051D000645C6E72665F6472765F757362642E6380
:1051E00000000000300000208866000070B5054611
:1051F000000605F00F0402D5092C09D301E0092CA3
:105200000BD30D4940F26A40FCF71AF8280604D582
:10521000094940F26B40FCF713F8082C05D3074806
:105220000068C10300D5002070BD054901EB840072
:10523000D0F8A00470BD0000A0400000C07402407F
:105240000070024002494058002800D001207047F9
:10525000007002400449084400210160BFF36F8FD1
:10526000BFF34F8F70470000007002400349086091
:10527000BFF36F8FBFF34F8F704700000074024081
:1052800002480068002800D0012070472C750240B9
:105290000449084401210160BFF36F8FBFF34F8FB2
:1052A00070470000007002400349084490F9300044
:1052B000C017401C70470000100200200449084439
:1052C00090F93000082801DB01207047002070476A
:1052D000100200200449084490F93000082801D247
:1052E00001207047002070471002002070B503466F
:1052F00000791B4901EB40101968027F4FF0FF3025
:10530000002AD1F80C25D1F81465D1F80855D1F848
:10531000104504D0C1F80C05C1F8140503E0C1F82C
:105320001405C1F80C051968C1F80805C1F8100585
:10533000501C02D01046FFF7CAF8701C02D030464D
:10534000FFF7C5F8601C02D02046FFF7C0F8681CC4
:1053500004D02846BDE87040FFF7B9B870BD000022
:105360007802002010B50C46C17949B11AB109A1E3
:105370002046FEF7CBFE2046BDE81040FEF706BFF4
:10538000007A0028F3D0044804A102682046FEF702
:10539000BDFEECE70D0A000014010020257300009B
:1053A000244910B50988032202EB014250B10128BB
:1053B00014D002282CD0BDE810401FA14FF4787003
:1053C000FBF73EBF104620A1FFF786FBFEF7E8FC87
:1053D00000282DD1BDE81040FEF7EEB810461FA101
:1053E000FFF77AFB2249002008700871FEF7E2FC03
:1053F00008B1FEF77BFDFEF7D3FC08B1FEF79AF883
:105400000020FBF79BFFBDE810400120FBF796BF93
:10541000104618A1FFF760FB0120FBF7B9FFFEF76C
:10542000C9FC002804D1BDE810400120FEF712BDE0
:1054300010BD0000840100202E2E5C2E2E5C2E2E2E
:105440005C6D61696E2E630055534220706F776505
:10545000722064657465637465640000555342206E
:10546000706F7765722072656D6F766564000000FD
:1054700000000020555342207265616479000000ED
:1054800070B50446C0790D4600281CD1207A50B171
:10549000A179A088FFF70EFA0B4951F820200BA143
:1054A0002846FEF733FEA0880021FFF7C9FB03461C
:1054B0000549A079143951F820202846BDE87040EC
:1054C00003A1FEF723BE70BD140100202573000068
:1054D0003C25733E2025733A20000000EFF3058041
:1054E000C005C00D01D001207047EFF3148040F3D8
:1054F0000000401C704700000EB50023009301938C
:105500000293C088904200D20246CDE9001269465B
:105510008020FEF7F5F902000CD007480121008831
:1055200001EB004005A1FFF7DBFA0CA14FF4DC70A2
:10553000FBF786FE0EBD0000840100205472616EF0
:1055400073666572207374617274696E6720666138
:10555000696C65643A202564000000002E2E5C2EE4
:105560002E5C2E2E5C6D61696E2E630070B5012677
:1055700070044FF0E0210025C1F88001084C401074
:10558000C4F84803C4F8080366602F20FDF70AFA40
:10559000A660044C2F20A560FDF704FAA57070BD2D
:1055A000001001405800002070B50546C87D0C462B
:1055B00000284FF4847128460AD0FFF762FCD5F822
:1055C0001805627EE1688854607E401C607670BD7C
:1055D000FFF757FCD5F8180570BD1FB501238DF8EE
:1055E00000308DF808100192D0E90012684690470B
:1055F0001FBD000010B5094C0020D2B22070201D44
:10560000FDF756FE18B1064A2D21FBF78DFC607898
:10561000002802D021780029FAD010BDD80000203F
:10562000B87200002DE9F84FDFF8A09088460546D3
:1056300092461F4669461846D9F80860FCF7DAF822
:10564000D8B3009C04EA060009EB800151F80C0F66
:1056500020F00300401C641C0860EA0602D540F0FC
:10566000040001E020F0040065F3C50067F3891031
:1056700068F39F202D0C0860FFF7D8FAA84204D8E1
:10568000134940F24310FBF7DBFD04EA060009EB87
:105690008000641CC5604946002000940BE000BFF8
:1056A000009A5AF8204002EA060301EB8303521CD9
:1056B000DC60401C0092B842F2D399F81C0401E06F
:1056C000FFF722F90028FBD1BDE8F88F1C07002066
:1056D000647300002DE9F84F1D4C00256846D4E99D
:1056E00001A6FCF7A3F9002738B30023009A6168EC
:1056F0001CE0D1F800C00846944503D9ACEB020287
:105700000A6015E0A2EB0C0263440760D0F80CC0FD
:10571000C1698146BCF1000F08D006EB030828F0F0
:105720007F48C0E9018CC9F81C5005460029E0D12A
:1057300028466160FCF71EFD03E02846FCF71AFDD1
:1057400010B15046FCF7ECF8E770BDE8F88F0000A8
:10575000580000200D4B10B5596831B102680C6833
:10576000A24204D8A21A0A60C161586010BD0B465B
:1057700003E00B46C969121B21B10C689442F8D3AF
:10578000A41A0C600260C161D86110BD58000020ED
:105790002DE9F041144E77683D462C4603E08442E3
:1057A00004D02546E469002CF9D11BE0D4B1A54210
:1057B0000BD1F869706040B90C4901208860002164
:1057C000B160F0702F20FDF7EDF82168E069E86125
:1057D00010B10268114401607068874202D0012054
:1057E000BDE8F0810020FBE75800002000100140D8
:1057F000F8B5064600240D462046FBF75FFC6846D8
:1058000000F090FE68B10570084946609DF8000000
:1058100048700020FBF780FC1420FBF79DF8204621
:10582000F8BD04240020FBF777FCF8E71005002002
:105830002DE9F041194D6C68002C2CD01848002738
:105840000068A968B846401A20F07F462068B04238
:105850000CD82146361A0744E469087C20B181F847
:105860001080886949698847002CEFD129786878C9
:10587000814206D1401CC0B26870022801D185F86F
:105880000180064869780C3040F82170BDE8F0418D
:105890001420FBF761B8BDE8F0810000580000203B
:1058A0000415014070B50C4605464FF48E71FFF7A4
:1058B000E8FAA18AA068415CA08A401CA082C5F8D1
:1058C0001C1570BD1FB500228DF800208DF8081042
:1058D000816801918275D0E90012684690471FBD2A
:1058E0000149012008707047D800002010B588B029
:1058F000044620220F496846FAF7D8FD062000909A
:10590000C01F0190029003904FF0EB7006900CB115
:10591000094A00E0002269460848FDF76FFC18B10B
:10592000074A1D21FBF700FB0448001F447008B024
:1059300010BD000084680000E1580000DC00002079
:10594000B87200002DE9FF470C4605464FF4007180
:10595000FFF79DFA01274FF40178002618B34FF4A2
:10596000927949462846FFF787FAE0B1494628462A
:10597000FFF787FAC5F80883A07E00B96F600220A0
:105980008DF80000D5F88004C5F880040390E07D10
:105990008DF80800E0680190E6752676D4E90012DB
:1059A0006846904727E004212846FFF770FA10B3B5
:1059B0004FF484712846FFF75FFAE0B1214628468C
:1059C000FFF7F2FDE07D617E884214D1207E38B180
:1059D000617EE268E0752069E0602676667607E021
:1059E000A07E00B96F60C5F80883E675617EE26845
:1059F0002046FFF7F2FD4FF48E7841462846FFF728
:105A00003BFA88B1A08AA17D884204D2214628466B
:105A1000FFF748FF08E041462846FFF732FAA17D2C
:105A200011B12046FFF74EFF4FF4A27841462846B9
:105A3000FFF722FA002812D041462846FFF721FA44
:105A4000A07E00B12F60E07D002808D0E675617E61
:105A5000E26804B02046BDE8F047FFF7BEBDBDE8F0
:105A6000FF872DE9FF410C464FF4927705463946F2
:105A7000FFF713FA0026C0B139462846FFF712FA9D
:105A800002208DF80000D5F88004C5F8800403904A
:105A9000D5F83C058DF80800E0680190E67526769B
:105AA000D4E900126846904724E04FF488773946DD
:105AB0002846FFF7F2F9E8B139462846FFF7F2F930
:105AC000D5F83C05C1B2E07D884213D1207E60B19B
:105AD000E268D5F8000220F02000C5F80002207E20
