:020000040000FA
:10000000102600204D030000550300005703000098
:10001000590300005B0300005D03000000000000C6
:100020000000000000000000000000005F0300006E
:10003000610300000000000063030000650300008E
:1000400067030000670300004D060000670300001F
:1000500067030000670300006703000067030000F8
:1000600067030000670300006703000067030000E8
:1000700067030000F503000067030000670300004A
:1000800067030000670300006703000067030000C8
:1000900067030000670300006703000067030000B8
:1000A00067030000670300006703000067030000A8
:1000B000670300006703000000000000000000006C
:1000C0006703000067030000670300006703000088
:1000D0006703000067030000670300006703000078
:1000E00067030000670300006703000000000000D2
:1000F000000000006703000000000000670300002C
:1001000000000000000000000000000000000000EF
:1001100000000000000000000000000000000000DF
:1001200000000000000000000000000000000000CF
:1001300000000000000000000000000000000000BF
:1001400000000000000000000000000000000000AF
:10015000000000000000000000000000000000009F
:10016000000000000000000000000000000000008F
:10017000000000000000000000000000000000007F
:10018000000000000000000000000000000000006F
:10019000000000000000000000000000000000005F
:1001A000000000000000000000000000000000004F
:1001B000000000000000000000000000000000003F
:1001C000000000000000000000000000000000002F
:1001D000000000000000000000000000000000001F
:1001E000000000000000000000000000000000000F
:1001F00000000000000000000000000000000000FF
:10020000DFF80CD000F0E4F800480047290A0000AD
:100210001026002030B4044654E8000F0D4644E890
:100220000053002BF8D1156030BC704730B4044641
:1002300054E8000F40EA010544E80053002BF7D1D1
:10024000156030BC704730B4044654E8000F00EA33
:10025000010544E80053002BF7D1156030BC70470E
:1002600030B4044654E8000F80EA010544E8005326
:10027000002BF7D1156030BC704730B4044654E809
:10028000000F00EB010544E80053002BF7D1156087
:1002900030BC704730B4044654E8000FA0EB0105B1
:1002A00044E80053002BF7D1156030BC70470000C4
:1002B00030B4044654E8000F0D4644E80053002BC8
:1002C000F8D1156030BC704730B4044654E8000FD4
:1002D00040EA010544E80053002BF7D1156030BC1B
:1002E000704730B4044654E8000F00EA010544E8C2
:1002F0000053002BF7D1156030BC704730B4044672
:1003000054E8000F80EA010544E80053002BF7D1C0
:10031000156030BC704730B4044654E8000F00EB61
:10032000010544E80053002BF7D1156030BC70473D
:1003300030B4044654E8000FA0EB010544E8005334
:10034000002BF7D1156030BC70470000064880478D
:1003500006480047FEE7FEE7FEE7FEE7FEE7FEE7AA
:10036000FEE7FEE7FEE7FEE74504000001020000AD
:1003700000487047A821000040EA01039B0703D012
:1003800009E008C9121F08C0042AFAD203E011F8D4
:10039000013B00F8013B521EF9D27047D2B201E096
:1003A00000F8012B491EFBD270470022F6E710B57A
:1003B00013460A4604461946FFF7F0FF204610BDD3
:1003C000421C10F8011B0029FBD1801A7047000065
:1003D000064C074D06E0E06840F0010394E8070092
:1003E00098471034AC42F6D3FFF70EFF2C220000E2
:1003F0004C2200001CB510480E4903680022002B57
:1004000016D0D1F8081311F0010F11D00260006866
:1004100001900A4800688DF800006946084801F01C
:10042000B7FA074801F09EFA002801D000F0BEFCA0
:100430001CBD000000D0004000D1004008D50040A5
:10044000C020000030B54FF080500022D0F83011AD
:100450000123082902D1D0F8344114B1082909D068
:100460000BE04FF08041C1F80C21C1F81021684920
:100470000A6005E0D0F8344114B1082957D059E09A
:1004800064490968644C21606249091D0968241D9A
:100490002160604908310968241D21605D490C31E3
:1004A0000968241D21605B4910310968241D216001
:1004B000584914310968241D2160564918310968CA
:1004C000554C2034216053491C310968241D21609A
:1004D000504920310968241D21604E4924310968A2
:1004E000241D21604B4928310968241D2160494998
:1004F0002C310968241D2160464930310968464C79
:1005000040342160434934310968241D2160414948
:1005100038310968241D21603E493C310968241D99
:1005200021603C4940310968241D216005E0D0F874
:10053000344114B1082904D006E0394C3749216010
:1005400005E0D0F8344114B1082904D006E0354C58
:10055000FB21216005E0D0F8344114B1082908D00E
:100560000AE090F858423048016864F303010160E2
:1005700005E0D0F8344114B1082905D00EE02B492C
:100580004FF40070086002E0D0F8340130B9284818
:100590000168C90702D06FF00101016025480168B8
:1005A00041F470010160BFF34F8FBFF36F8F4FF0C5
:1005B0001021D1F80002002803DBD1F80402002842
:1005C00022DA1D4C23601D480368002BFCD0122347
:1005D000C1F800320568002DFCD0C1F80432016872
:1005E0000029FCD0226001680029FCD0BFF34F8FA6
:1005F00010487C380168124A01F4E061114301603F
:10060000BFF34F8F00BFFDE70F490E48086030BDB4
:10061000380500400404001020C500404881030054
:100620008C56004018F50040E40E00404096024011
:100630000004004088ED00E004E5014000E40140D2
:100640000400FA050090D003680000200448017FF0
:1006500004480029024901D001F05DBC01F0CCBB87
:10066000CC0000200020004002E008C8121F08C192
:10067000002AFAD170477047002001E001C1121F23
:10068000002AFBD17047000001F08EF800F0ACFEAC
:100690000028FBD1104C0121208801EB00400FA164
:1006A00000F0E2FF10480068C00700D000BE2088BC
:1006B000022101EB00400DA100F0D6FFBFF34F8FE8
:1006C0000948E43801680D4A01F4E0611143016012
:1006D000BFF34F8F00BFFDE79000002046617461BB
:1006E0006C206572726F7200F0ED00E053797374E4
:1006F000656D207265736574000000000400FA05E2
:100700000EB500210091CDE901106A4644F20100C6
:10071000FFF7BAFF0EBD00F003B800F009B8000003
:1007200072B602480168491C01607047040000204D
:1007300003490868401E086000D162B67047000097
:100740000400002070B5054608680C46411C04D022
:1007500000F070FD206800F054FD6068411C02D07C
:10076000002100F045FD28791F4901EB4010296860
:10077000007F0028A069C1F8240523D0607D227D78
:1007800029681043C1F86C05D4E900122868C0F844
:100790000C15C0F8142522E0A068411C02D00021ED
:1007A00000F026FDE068411C04D000F043FDE06845
:1007B00000F027FDD4E902122868C0F80825C0F827
:1007C000101570BD607D217D2A680843C2F86C0554
:1007D000D4E900122868C0F81425C0F80C15207D53
:1007E0000128D9D070BD0000CC0000202DE9F041D7
:1007F000861C0C4601270020FFF78DFF0F4801687B
:100800002160D0E90012891A82680446511AB51C89
:1008100007E000BF00F0BEF8D4E90001401AA1686B
:10082000091A491C8D42F5D8206830442060002008
:10083000FFF773FF3846BDE8F0810000EC010020AF
:1008400030B482680468531C8360A154D0E901125B
:100850008A4202D330BC00F0B0BB30BC704700000D
:10086000034803C8814201D101207047002070472E
:10087000EC0100202DE9FC5F0E008346DDE90C470A
:10088000C6F1000098469246814600D408460125EC
:1008900003E000BF90FBFAF06D1C5045FADAA84562
:1008A00000D9454624B1002E01DB780700D5641E2F
:1008B000B80702D5B8F1000F0AD0F80708D13CB14B
:1008C000A54205D220215846641EFFF7B9FFF6E77E
:1008D000002E02DA4E462D2102E0780703D52B21A7
:1008E0005846FFF7ADFF07F0030002280BD1B8F11F
:1008F000000F08D13CB1A54205D230215846641EF4
:10090000FFF79EFFF6E7CDE90047434652463146E2
:10091000584601F079FBBDE8FC9F000070B50E461B
:100920000446007918494FF4A27501EB4010017F8D
:100930002068A1B14FF4887101F0C1F84FF49071B3
:10094000206801F0BCF84FF49271206801F0B7F80C
:100950002946206801F0B3F80C49206809E04FF4FB
:100960008E7101F09BF82946206801F097F808493C
:100970002068C0F80413206800F0B9F93146BDE8DA
:10098000704000F098B90000CC0000201003020075
:100990008000020070B588B0214800F0E7F82048D8
:1009A000001F064600F0E2F81E4DD5E9014105E0C2
:1009B000C0F3891202EB9050641C044404EA010065
:1009C00005EB8000C0688207F2D000200DF108021C
:1009D00004EA010305EB8303641CDB6842F8203062
:1009E000401C0228F4D3029800F00300012808D02C
:1009F00002280AD10298032101EB905004EB9004E5
:100A000003E00298C0F3831004443046002101AA99
:100A1000FFF767FC002800D06C6008B070BD0000D4
:100A200004060020EC01002086B0002000F076FED5
:100A300008B1FFF765FE00F0C9FC002000F06CF97A
:100A400008B1FFF75DFE174D03266F46102404A87A
:100A500000F058F99DF81000102800D804462146EF
:100A6000384600F085F908B1FFF74AFE28880EA144
:100A700006EB004000F0F8FD2888224606EB004017
:100A8000694600F099FD28880BA106EB004000F0B4
:100A9000EBFD00BF00F0A8FC0028FBD1074800F0E8
:100AA000B9F8D2E79000002052616E646F6D205655
:100AB0006563746F723A000000000000A0860100B8
:100AC0002DE9F047C7880446181D16468946B0FB35
:100AD000F7F1B0FBF7F207FB12009A193A44D21C67
:100AE000B2FBF7F2DDF820A001E02468491E0029DE
:100AF000FBD13D1A8846B54216D818E0BAF1000F6E
:100B000005D0211809EB08002A46091D04E02044FD
:100B100009EB08012A46001DFFF72EFC002024687F
:100B2000761BA844B74201D9354600E03D46002E69
:100B3000E4D1BDE8F087000030B5024669B100F0AD
:100B40001BFE0021084C0BE001EB410304EB830387
:100B500015685B88AB4202D11160002030BD491C92
:100B60008142F1D3052030BD6C00002008B5012181
:100B70006A46FFF7A9FB009808BD70B5044600253A
:100B80002846FFF7C8FD21686268086890420ED9C0
:100B9000401E08600178238AE26801FB0325227A5F
:100BA0002168101AC0B20A79824200D2087100206E
:100BB000FFF7B3FD284670BD70B505460C46002012
:100BC000FFF7A9FDE868298A201AB0FBF1F12A682D
:100BD0001068431C13600170BDE870400020FFF7EF
:100BE0009CBD10B530B1017A42680368891AC9B258
:100BF0001A6006E00E2010BD03681A68541C1C60C1
:100C00001170491EC9B2F7D200680021017108466F
:100C100010BD000000283ED01F49204A096800BFCF
:100C200000BF00BF00BF00BF00BF00BF00BF9142B8
:100C30002FD000BF00BF00BF00BF00BF00BF00BF7C
:100C400000BF00BF00BF00BF00BF00BF00BF00BFAC
:100C500000BF00BF00BF00BF00BF00BF00BF00BF9C
:100C600000BF00BF00BF00BF00BF00BF00BF00BF8C
:100C700000BF00BF00BF00BF00BF00BF00BF00BF7C
:100C800000BF00BF00BF00BF00BF00BF00BF00BF6C
:100C900000BF0138C3D17047680000200024F40071
:100CA00000F01F02012191404009800000F1E02086
:100CB000C0F8801170474907090E002806DA00F0D5
:100CC0000F0202F1E02282F8141D03E000F1E0229D
:100CD00082F8001400F01F020121914040098000B9
:100CE00000F1E020C0F88012C0F800117047000B3E
:100CF00040B270470121B1EB507F01D10120704714
:100D00000020704710B50446024800F0B4FE207081
:100D100010BD0000C020000010B5114C217809B1B1
:100D2000852010BD00B90F480088A4F80100607844
:100D3000C00704D00C48016841F0010101600B4874
:100D4000D0F8001221F00101C0F80012A1780D20A6
:100D5000FFF7B1FF00F01AF801202070002010BD4D
:100D600000000020BC20000004D5004000D000405E
:100D70000A4610B50146044800F060FE044600F043
:100D800005F8204610BD0000C0200000064908B547
:100D9000002204480A60096800910121C0F8041388
:100DA000016008BD00D0004000D10040034901208F
:100DB000C1F80803091D08607047000000D000401A
:100DC0002DE9F04105460079164F904607EB401497
:100DD0000E46E07E10B10820BDE8F081707F2077DC
:100DE0002846FFF7AFFC5FEA0800606031692160C8
:100DF00003D0317F2846FFF791FD287907EB40109B
:100E0000007F0028286801D0082100E00421C0F8F4
:100E100000150020E0752076A0750121E176A0760E
:100E2000DAE70000CC0000202DE9F0470546007904
:100E30003F4E904606EB40140F46207F18B10846FF
:100E4000FFF758FF30B1284600F074F820B11120A8
:100E5000BDE8F0871020FBE784F81680A760002724
:100E6000A78228794FF0010806EB40143E46207F08
:100E70000028286825D04FF49079494600F01FFEDD
:100E80004FF4AC7A5146286800F019FE2868A17D1D
:100E9000A268C0F84425C0F848152868C0F8088042
:100EA0006068F0B94946286800F004FE8046514663
:100EB000286800F0FFFD58EA0001F3D058BBA77581
:100EC0000FE04FF48E7A514600F0E8FD2868C0F834
:100ED00008802146286800F043FF61684FF4807065
:100EE00089B13046B4E75146286800F0D2FD10B908
:100EF000A08A4845F7D1A08A484505D021462868F0
:100F000000F02EFF00E08146A08AA17D8842EAD34E
:100F1000A08A484501D10F26D1E75146286800F044
:100F2000B8FD0028F9D02868C0F80C80C7E7000099
:100F3000CC0000200079044901EB4010807D00289E
:100F400000D0012070470000CC00002070B504469E
:100F500000791149002601EB401520682A7FC0F86E
:100F60000065686888B1207901EB4010007F002897
:100F7000206801D0094901E008498C39C0F80813FC
:100F80002068FFF7B4FEFFF78BFE204600F09EFDC1
:100F9000EE766E6070BD0000CC00002010030200F1
:100FA0000FB408B50399002904D004AA00926A4638
:100FB00000F00FF801B05DF814FB10B5826804462C
:100FC000002A05D0D4E90403216898470020A060D6
:100FD00010BD2DE9FC4791460C00804676D014F8F0
:100FE000011B39B125290ED04046FFF729FC207896
:100FF0000028F4D198F80C00002867D04046BDE8DE
:10100000FC47FFF7DABF0020012221782B291BD0F3
:101010002D2902D0302908D102E040F0010001E082
:1010200040F00200641C002AEFD100252A290ED0CE
:101030002178A1F130020A2A11D205EB850201EBD9
:101040004205641C303DF1E740F00400EAE7D9F8BE
:1010500000100B1DC9F800300968641C0D4421788C
:1010600000232E290BD114F8011FA1F130020A2A06
:1010700005D203EB830201EB4203303BF3E76C291B
:101080000DD068290BD0692921D00BDC252918D077
:10109000582931D063290ED0642915D117E014F8EE
:1010A000011FECE7702969D0732932D075291BD054
:1010B000782909D120E0D9F80000011DC9F80010F5
:1010C00001784046FFF7BCFB641C90E76CE0D9F860
:1010D00000100A1DC9F800200968CDE900500A2255
:1010E0004046FFF7C7FBEFE7D9F800100A1DC9F823
:1010F000002009680A2206E0D9F800100A1DC9F884
:10110000002009681022CDE90050404600F07CFF25
:10111000DAE7D9F8001000270A1DC9F800200E6888
:10112000C00705D112E04046761C7F1CFFF788FB04
:1011300031780029F7D104E0202140466D1EFFF7E9
:101140007FFBBD42C0D9002DF6D1BDE74EB1304680
:10115000FFF736F9074604E0202140466D1EFFF7F1
:101160006FFBBD4206D9002DF6D103E04046761C48
:10117000FFF766FB31780029F8D1A5E7D9F8000020
:10118000011DC9F80010056830214046FFF758FBE3
:1011900078214046FFF754FB08200021CDE90001EB
:1011A000034610222946B0E7BDE8FC872DE9FF4140
:1011B0001C46DDE90A7815460E46684600F02CF814
:1011C00046EA450141EA840141EA072242EA084130
:1011D000009A00EB8200C0F80017BDE8FF811CB543
:1011E000002100910B4601220191FFF7DFFF1CBD9A
:1011F0001CB500220B46009211460192FFF7D6FF64
:101200001CBD1CB5002100910B4601220191114625
:10121000FFF7CCFF1CBD00000168202902D24FF06F
:10122000A040704701F01F010160014870470000B5
:101230000003005001B56846FFF7EEFF009A012158
:101240009140C0F8081508BD30B5124B014600208A
:10125000D3F81044224609E0157A854205D1401C96
:101260000A28F7DB4FF0FF3030BD5268002AF3D177
:10127000421CF9D00872D3F810242AB152684A608F
:10128000D3F81024516030BD0022C3F810144A6016
:1012900030BD0000EC010020F0B595B01C461546AD
:1012A0000F4608461A9E00F037FB182109A8FFF7E1
:1012B0007CF80E96CDE909540023082203A938468C
:1012C00000F044FB059806900498ADF81C0000203F
:1012D0008DF820000398082600F00300012802D0B2
:1012E00002281DD03CE003983346850AC0F3C200B3
:1012F0008DF81E0003980FA9C0F380008DF81F0021
:101300000398C0F38314A200384600F01FFB09A81D
:10131000009006AB22460FA9284600F059FA1FE0BC
:101320000398840DC0F3C2008DF81E000398C0F32B
:1013300080008DF81F00082C01D2254600E008250A
:1013400033462A460FA9384600F000FB2E44641BA2
:1013500009AB06AA29460FA800F08AF9002CEAD1A9
:10136000384600F0E2FA15B0F0BD7047012000F0F9
:101370001BBD000010B50448FFF7E8FDBDE81040B4
:10138000002000F011BD00000C00002008B5034A49
:1013900000924023024AFFF77FFF08BDA51C000012
:1013A000EC000020084A012902EBC00005D0022908
:1013B00003D0032903D0042903D00020704700790B
:1013C00070474079704700004C22000010B5FFF7CD
:1013D000CDFF04210348FFF737FF0249012048727F
:1013E00010BD0000140000202DE9FE4FFFF738FA71
:1013F00010B10020BDE8FE8F6D480021C0F8181420
:10140000BFF34F8FD0E9014604EA060100EB8101EA
:101410004FF000090AE000BFC1F3891202EB9151BD
:10142000641C0C4404EA060100EB8101C9688A07C8
:10143000F2D000216A46804604EA060308EB8300E6
:10144000641CC06842F82100491C0229F4D30098AA
:1014500000F00300022802D001284DD0A2E000983D
:101460005022810D8A46B2EB905F00D850210D4684
:1014700065F39F50009008314E4800F004FA0700D1
:1014800077D000F049FA4B4608226946384600F00A
:1014900063FA04EA0600311A8900091D09F1080BF4
:1014A0008D4222D9424E0C3631B1CAB208EB8000CF
:1014B000691A91460C3004E03046EAB200269146A3
:1014C0003146CDB201465B46384600F045FA0BEB9B
:1014D00009032EB12A4631464FEA070000F03CFAD4
:1014E0000AF1030004EB90043AE008EB80015B464C
:1014F0002A4638460C31F1E70098C0F383100628DD
:1015000000D30620009960F38911C1F38310801C79
:1015100000918100274800F0B6F9070042D000F0A2
:10152000FBF94B4608226946384600F015FA09F1E6
:10153000080900250EE000BF04EA060008EB800160
:101540004B46042238460C31641C00F005FA09F1C0
:1015500004096D1C0098C0F38310A842ECD847B171
:10156000D8F81054D8F81804464660B1384600F050
:10157000DCF917E0687A012804D12A682846394640
:10158000126890476D68002DF4D1384600F0CDF90F
:101590000020FFF7C0F8D6F8180400B974600020E6
:1015A000FFF7BBF8FFF75CF980F0010022E70000CD
:1015B000EC010020102100002DE9F843294C0646DB
:1015C0008846D01C154680086946A768FFF70EF9C3
:1015D00080B3009800EA070104EB8101401C0090F1
:1015E00051F80C0F20F00300801C0860F20602D5B1
:1015F00040F0040001E020F0040066F3C5004FF65F
:10160000C072904365F39F5008600098320C00EA66
:10161000070104EB8101401CCA600090A1683840BA
:10162000091A8E00361DB54204EB800003D82A4605
:1016300041460AE00CE0324641460C30FEF79CFE83
:10164000A81B82B2074808EB06010C30FEF794FE97
:1016500094F81C0402E000BFFFF7C6FE0028FBD18F
:10166000BDE8F883EC01002000231A4600F02EBBF1
:101670002DE9F0470E4680461C46924608293ED882
:1016800094F80C90002020731946104600F078FA68
:101690000025B54206D218F805201AA12046FFF70A
:1016A0007FFC03E019A12046FFF77AFC6D1C082D92
:1016B000EFD317A12046FFF773FC0025B54210D2E7
:1016C00018F80570FEF754FE0068C05D10F03E0F7C
:1016D00001D03A4600E02E220EA12046FFF760FC22
:1016E00003E00DA12046FFF75BFC6D1C082DE5D340
:1016F00001222146504600F025FA84F80C90BDE8FE
:10170000F0870000202530327800000020202000E3
:101710007C0000002563000020000000114810B587
:10172000FF218160002101604160C0F81814C0F8F9
:10173000141480F81C140C4800F0F5F800280FD1A0
:101740000A480B490B4B401AC108002005E000BFB6
:1017500000EB400223F82200401C8842F8D300200E
:1017600010BD0000EC010020102100006C220000E0
:101770004C2200006C00002002480349401AC008B7
:10178000704700006C2200004C22000013B5684630
:10179000FFF7D2F908B100201CBD0248009950F8AB
:1017A00031001CBD4C22000070B508480125D0F85E
:1017B000104480F81C5405E0657221682046496891
:1017C00088476468002CF7D170BD0000EC01002050
:1017D0002DE9FF4781460C9D00200C462F7B287386
:1017E000984616462946184600F0CAF9072E42D2F6
:1017F000DFE806F004090F161F2A3600494628467E
:10180000FFF7CEFB37E0494628462268FFF7C8FBC2
:1018100031E0D4E9002349462846FFF7C1FB2AE01E
:10182000A0680090D4E9002349462846FFF7B8FB9A
:1018300021E0D4E90201CDE90001D4E900234946C1
:101840002846FFF7ADFB16E004F1080007C88DE855
:101850000700D4E9002349462846FFF7A1FB0AE028
:1018600004F108000FC88DE80F00D4E900234946B1
:101870002846FFF795FB00222946404600F062F912
:101880002F73BDE8FF872DE9F041058A80462D1FA3
:101890004819C01CB0FBF5F0C6B24046FFF76DF921
:1018A000041E19D00020207101206071E5800027FE
:1018B0002546761EC4F800800BE04046FFF75DF930
:1018C00060B16179491C6171286005467F1CC0F8D0
:1018D0000080B742F1D32046BDE8F081204600F0F9
:1018E00002F80020F8E72DE9F041457901466B1E2A
:1018F000002201E00968521C9A42FBD30F6801469E
:10190000002605E038460C68FFF756F92146761C9C
:10191000AE42F7D3BDE8F08108B501216A46001D4B
:10192000FEF7ABFC08BDFFF75CB938B50446001DF7
:1019300001216A46FEF7AEFC009810F0FF0F04D1BB
:101940002046BDE83840FFF7CEBF38BD38B501248A
:101950000094FFF7B5F838BD38B500240094FFF7C0
:10196000AFF838BD01680A6849688068884201D9C3
:10197000491C00E00021914201D101207047002064
:1019800070478068884201D9481C70470020704722
:101990002DE9F04104464FF000080E464046FEF7A0
:1019A000BAFE2046FFF7DEFF070009D0207C38B1E1
:1019B0004FF004080020FEF7B0FE4046BDE8F0817D
:1019C0002068456841682046FFF7DBFF21684860D2
:1019D00037B1206801682046FFF7D3FF216808600F
:1019E000E268012A14D0022A16D0042A19D0082A43
:1019F0001CD06068314605FB0200FEF7BDFC2046A6
:101A000000F01FF921688A688242D3D28860D1E74A
:101A1000616830784855F2E76168308821F8150030
:101A2000EDE76168306841F82500E8E7D6E9000194
:101A3000626802EBC502C2E90001E0E72DE9F0416E
:101A400007464FF0000415000E46204611D0FEF761
:101A500062FE384600F0F5F8A84205D32A46314622
:101A6000384600F0BBF800E005240020FEF755FEE4
:101A70002046BDE8F08110B504460020FEF74BFE7D
:101A8000204600F0DEF804460020FEF746FE204621
:101A900010BD4058002800D00120704708B5002232
:101AA00042504058009008BDD0F80403084000D0D0
:101AB000012070474058002800D00120704708B529
:101AC000002242504058009008BD000070B5034607
:101AD00000791B4901EB40101968027F4FF0FF307D
:101AE000002AD1F80C25D1F81465D1F80855D1F8A1
:101AF000104504D0C1F80C05C1F8140503E0C1F885
:101B00001405C1F80C051968C1F80805C1F81005DD
:101B1000501C02D01046FFF762FB701C02D030460A
:101B2000FFF75DFB601C02D02046FFF758FB681CE6
:101B300004D02846BDE87040FFF751BB70BD0000DF
:101B4000CC00002010B50C46C17949B11AB109A1E9
:101B50002046FFF725FA2046BDE81040FFF72DBAD2
:101B6000007A0028F3D0044804A102682046FFF759
:101B700017FAECE70D0A000044000020257300006E
:101B800070B50446C0790D4600281CD1207A50B1AA
:101B9000A179A088FFF706FC0B4951F820200BA182
:101BA0002846FFF7FDF9A0880021FFF7EFFD034667
:101BB0000549A079143951F820202846BDE8704025
:101BC00003A1FFF7EDB970BD4400002025730000AC
:101BD0003C25733E2025733A200000002DE9F0419A
:101BE000044600681746884605684068854201D863
:101BF000461B02E0A068461B761CE2686068B7429C
:101C000005FB02010CD87A434046FEF7B5FBA168FC
:101C1000E819884200D9002021680860BDE8F081F9
:101C200002FB06F52A464046FEF7A6FBE268BE1B0D
:101C3000724308EB05006168FEF79EFB20680660B2
:101C4000ECE701680A684968914201D3881A704735
:101C50008068801A0844401C704770B50546C87DEE
:101C60000C4600284FF4847128460AD0FFF716FF6F
:101C7000D5F81805627EE1688854607E401C607665
:101C800070BDFFF70BFFD5F8180570BD1FB5012318
:101C90008DF800308DF808100192D0E900126846E6
:101CA00090471FBD10B5084C0020D2B22070201DF7
:101CB000FFF7BAF808B1FEF723FD6078002802D0DC
:101CC00021780029FAD010BD080000202DE9F84342
:101CD000224C8846054691461F4669461846A66826
:101CE000FEF784FD88B3009800EA060104EB810248
:101CF00052F80C1F21F00301491C401C11605FEADF
:101D0000C56C02D541F0040101E021F0040165F346
:101D1000C50167F3891168F39F21116000EA06028B
:101D2000290C04EB8202401CD160009000200AE0E4
:101D3000009959F8203001EA060204EB8202491C9E
:101D4000D360401C0091B842F2D394F81C0401E027
:101D5000FFF74AFB0028FBD1BDE8F883EC01002027
:101D600070B50C4605464FF48E71FFF797FEA18AB9
:101D7000A068415CA08A401CA082C5F81C1570BDFB
:101D80001FB500228DF800208DF8081081680191A0
:101D90008275D0E90012684690471FBD01490120B5
:101DA000087070470800002010B588B00446202253
:101DB0000E496846FEF7E0FA06200090C01F019029
:101DC000029003904FF0EB7006900CB1084A00E0CF
:101DD000002269460748FEF7F3FF08B1FEF790FCC2
:101DE0000448001F447008B010BD0000F02000003F
:101DF0009D1D00000C0000202DE9FF470C46054604
:101E00004FF40071FFF750FE01274FF401780026D0
:101E100018B34FF4927949462846FFF73AFEE0B1ED
:101E200049462846FFF73AFEC5F80883A07E00B968
:101E30006F6002208DF80000D5F88004C5F880049A
:101E40000390E07D8DF80800E0680190E675267645
:101E5000D4E900126846904727E004212846FFF79E
:101E600023FE10B34FF484712846FFF712FEE0B151
:101E700021462846FFF7F1FEE07D617E884214D1BD
:101E8000207E38B1617EE268E0752069E0602676E8
:101E9000667607E0A07E00B96F60C5F80883E67536
:101EA000617EE2682046FFF7F1FE4FF48E784146EE
:101EB0002846FFF7EEFD88B1A08AA17D884204D2B2
:101EC00021462846FFF74CFF08E041462846FFF729
:101ED000E5FDA17D11B12046FFF752FF4FF4A27836
:101EE00041462846FFF7D5FD002812D04146284636
:101EF000FFF7D4FDA07E00B12F60E07D002808D060
:101F0000E675617EE26804B02046BDE8F047FFF761
:101F1000BDBEBDE8FF872DE9FF410C464FF4927727
:101F200005463946FFF7C6FD0026C0B139462846AA
:101F3000FFF7C5FD02208DF80000D5F88004C5F834
:101F400080040390D5F83C058DF80800E068019006
:101F5000E6752676D4E900126846904724E04FF4EF
:101F6000887739462846FFF7A5FDE8B13946284667
:101F7000FFF7A5FDD5F83C05C1B2E07D884213D13D
:101F8000207E60B1E268D5F8000220F02000C5F89C
:101F90000002207EE0752069E060267601E0E675AB
:101FA000E2682046FFF772FE4FF4A27739462846D2
:101FB000FFF780FD68B139462846FFF780FDE07DD8
:101FC00038B1E675D5F83C05E268C1B22046FFF7A6
:101FD0005DFE4FF4907631462846FFF76BFD0028F2
:101FE0000FD031462846FFF76AFDA07D002808D0B3
:101FF000D5F84C0504B0C1B22046BDE8F041FFF76A
:10200000BFBEBDE8FF8100002DE9F05F8346DDE93A
:102010000A4A994690460D460846012703E000BF4C
:10202000B0FBF8F07F1C4045FAD2B94500D94F46C5
:102030005FEACA7012D18CB15FEA8A7002D5B9F139
:10204000000F01D0202607E0302605E03146584633
:10205000641EFEF7F5FB0CB1A742F7D35FF0010653
:10206000B9F1010F02D9A9F1010903E0B5FBF6F0BE
:10207000404502D306FB08F6F2E7DFF83C9000BFCC
:10208000B5FBF6F000FB165519F800105846FEF7A0
:10209000D7FBB6FBF8F6002EF2D15FEACA7009D082
:1020A000002C07D0A74205D220215846641EFEF717
:1020B000C7FBF5E7BDE8F09FD42000000007000053
:1020C000C00000209C000020200000000100000053
:1020D0000000000030313233343536373839414270
:1020E000434445468D130000751300006B13000038
:1020F000FFFFFFFFFFFFFFFFFFFFFFFFFFFFFFFFF0
:1021000000000000000000000000D60107010000F0
:102110002800002020000020280000202C010020A2
:1021200018000000004040404040404040404141D5
:10213000414141404040404040404040404040409C
:102140004040404040050202020202020202020236
:102150000202020202202020202020202020200233
:1021600002020202020290909090909010101010C3
:10217000101010101010101010101010101010105F
:1021800002020202020288888888888808080808F3
:1021900008080808080808080808080808080808BF
:1021A0000202020240000000252100007761726EE9
:1021B000696E670064656275670000001B5B313BF8
:1021C00033306D001B5B306D000000001B5B313B4A
:1021D00033316D001B5B313B33326D001B5B313B98
:1021E00033336D001B5B313B33346D001B5B313B84
:1021F00033356D001B5B313B33366D001B5B313B70
:1022000033376D00696E666F000000006572726F93
:1022100072000000726E6700756172740000000049
:1022200062616C6C6F630000617070006C22000072
:10223000000000209C000000680600000823000049
:102240009C00002074250000780600001422000085
:102250000000000018220000000000002022000002
:102260000000000028220000000003000000000021
:1022700000000000000000000020004000000000FE
:10228000E42000000000000000000000000000004A
:10229000000000000000000000000000000000003E
:1022A0000C220000AC21000004220000B421000038
:1022B000C4210000BC210000CC210000D42100007A
:1022C000DC210000E4210000EC210000F4210000EA
:1022D000FC2100000090D00300000000000000007E
:1022E00000000000000000000000000000000000EE
:1022F00000000000000000000000000000000000DE
:082300000000000000000000D5
:0400000500000201F4
:00000001FF
